:10000000B81A0020591E000095770000451E000018
:10001000451E0000451E0000451E000000000000B7
:10002000000000000000000000000000B51F0000FC
:10003000451E000000000000611F0000451E00007A
:100040004121000041210000412100004121000028
:100050004121000041210000412100004121000018
:100060004121000041210000412100004121000008
:1000700041210000412100004121000041210000F8
:1000800041210000412100004121000041210000E8
:1000900041210000412100004121000041210000D8
:1000A00041210000412100004121000041210000C8
:1000B00041210000412100004121000041210000B8
:1000C00041210000412100004121000041210000A8
:0C00D000412100004121000041210000FE
:1000DC0053B94AB9002908BF00281CBF4FF0FF31A3
:1000EC004FF0FF3000F00CB8ADF1080C6DE904CE08
:1000FC0000F010F8DDF804E0DDE9022304B07047ED
:10010C00704700BF034613F8012B002AFBD1181AC5
:10011C00013870472DE9F04786468C460846089E04
:10012C00154674461946002B40F0C2808542B2FA3F
:10013C0082F245D94AB1C2F1200300FA02FC2EFA30
:10014C0003F3954043EA0C0C94404FEA154EA8B2C9
:10015C00BCFBFEF8230C0EFB18CC08FB00F943EAA1
:10016C000C43994528D9EB1808F1FF3704D299456F
:10017C0002D9A8F102072B44A3EB0903A4B2B3FBE9
:10018C00FEFC0EFB1C330CFB00F044EA0344A042C3
:10019C0014D92C190CF1FF3304D2A04202D9ACF1C2
:1001AC0002032C44241A43EA07401EB1D440002316
:1001BC0034607360BDE8F0874746DDE76346F1E7DE
:1001CC0092BB431B01214FEA154EAFB2B3FBFEFCB1
:1001DC00200C0EFB1C330CFB07F840EA034398453C
:1001EC0062D9EB180CF1FF3004D2984502D9ACF16E
:1001FC0002002B44A3EB0803A4B2B3FBFEFC0EFBE2
:10020C001C330CFB07F744EA0344A7424ED92C19C4
:10021C000CF1FF3304D2A74202D9ACF102032C44F7
:10022C00E41B43EA0040C0E7C2F1200320FA03F1CB
:10023C00954090402EFA03F303434FEA154EAFB2AC
:10024C00B1FBFEFC0EFB1C10190C0CFB07F841EA71
:10025C000041884504FA02F422D969180CF1FF30E8
:10026C0004D2884502D9ACF102002944A1EB080163
:10027C009BB2B1FBFEFC0EFB1C110CFB07F743EA17
:10028C0001439F420ED9EB180CF1FF3104D29F426F
:10029C0002D9ACF102012B44DB1B41EA004192E78D
:1002AC006046E3E76146F7E76046A3E76346B7E7D6
:1002BC00834206D916B9002108467BE7C6E900E05F
:1002CC00F9E7B3FA83F78FB9834201D3724508D8A3
:1002DC00BEEB020460EB030301209C461EB9002117
:1002EC0068E73846FAE7C6E9004CF8E7C7F1200C96
:1002FC00BB4022FA0CF41C432EFA0CF120FA0CF33E
:10030C00B84001434FEA14490EFA07F5B3FBF9F86C
:10031C001FFA84FE09FB18300B0C08FB0EFA43EA9B
:10032C0000439A4502FA07F240D9E31808F1FF306E
:10033C0004D29A4502D9A8F102002344A3EB0A0384
:10034C0089B2B3FBF9F809FB183308FB0EFE41EA3E
:10035C0003418E452CD9611808F1FF3304D28E4528
:10036C0002D9A8F10203214443EA0040A0FB029801
:10037C00A1EB0E014145CE46434602D306D14D4575
:10038C0004D2B9EB020E68EB04030138002EA6D0A0
:10039C00B5EB0E0261EB030101FA0CFC22FA07F338
:1003AC004CEA0303F940C6E9003198E74046C5E73B
:1003BC004346D9E7024883684FF400415B6918470C
:1003CC009C820000054803691B681B0483684FF47A
:1003DC00004154BF1B69DB68184700BF9C820000BA
:1003EC0010B50F4807F0B1FC08B9002010BD0C483F
:1003FC0007F0ABFC0028F8D0094807F0A6FC002851
:10040C00F3D0084806F07CFB0446074806F078FB5E
:10041C000443064806F074FB2043C043C00FE5E7D5
:10042C009C82000048850000408500003885000053
:10043C002DE9F04F91B08407009302F0040302936E
:10044C00C2F3C20303F10103DDF868800392054691
:10045C000E46059340F0BA81041D30B1072909D826
:10046C006FF01B0011B0BDE8F08F01F007063444AB
:10047C00C6F10806009B4FF00009591E4FF0040A04
:10048C004FF0FF330193CDF810904F46CB465346B7
:10049C000DB1009A22600598002800F3E880984876
:1004AC00009A824203D397488242C0F0E080039ABC
:1004BC00A4EB050E92074FEA9E0000F103810F2F6B
:1004CC0000F2B180002D00F0058107F140020DEB28
:1004DC00020C019A0CF8200C0CF8102C049801302A
:1004EC000490E7E07A285DD84B280ED8472859D8D5
:1004FC0029282DD8252852D054D820287AD0233812
:10050C00D0F1000B4BEB000B74E04C382E2849D883
:10051C00DFE800F070484848484848484848484890
:10052C004B484848484848484859484B4B595959F2
:10053C00704B6D487048184B184848827F4B4848A0
:10054C004B487F0000204FF0000B4FF0040A38E0BE
:10055C002A38C0B2012202FA00F010EA0E0F49D17B
:10056C0010F0625C2FD110EA020B43D06046013CC4
:10057C005444B4FBFAF40AFB04F4002D61D0A3EB51
:10058C00050CA444B4453FF66BAF002868D1042B8E
:10059C0047D158F8043B2360043404232AE0019A21
:1005AC00013A01924FF0000B24E011F8010C6C2879
:1005BC0034D111F8023C00206C2B8346C5D14FF08E
:1005CC00080A5346D3E708F1070828F00708073450
:1005DC00F8E802AB24F0070435B106982044B04289
:1005EC003FF63EAFC4E900AB08344FF0000B4FF0C0
:1005FC00080A534611F8010F002878D0BBF1000F00
:10060C007FF470AF2528F5D1019B013301934FF096
:10061C00010B4FF0040AECE7584694E700208346A0
:10062C00A5E7082B02D06FF015001BE708F10708AF
:10063C0028F00708F8E80223C4E90023083408234B
:10064C00D8E768B9042B02D108F10408A4E7082BF9
:10065C00E9D108F1070828F0070808F10808EDE7C8
:10066C00059A013A059258F8042B009210E7039A68
:10067C00900720D5A4EB050E4FEA9E004FF0010C1D
:10068C00BEF5007FCFD20F2FCDD8F5B107F14002C8
:10069C000DEB020EC0B2019A0EF8200C0EF8102CC5
:1006AC00BCF1000F3FF41AAF60F07F000EF8200C85
:1006BC0009F101090137C5F10802043406924FF61D
:1006CC00DA7E97E74FF0000CDAE7BCF1000F01D0AF
:1006DC000136EFE7029802360028EBD10098CDE9FD
:1006EC000631FFF70FFDDDE906310644E2E7631B37
:1006FC00B3F5806F97D23DB9A6F10804E018B1E6C6
:10070C002482000074910000029A28609B082B70D0
:10071C009DF81030C2B1EB7085F80290B9F1000F62
:10072C0005D008A80022C5F1010C97420ED1C5F1E5
:10073C0001030DF120084FF0000A01930DF1300B6D
:10074C00574512D1601B8DE66B70E5E710F8013B45
:10075C00190608D50CEB040EB64503F07F033FF6E3
:10076C007FAE04F8013B0132DFE7B9F1000F03D093
:10077C0098F90020002A17DB029BD3B11AF80B2042
:10078C0004F8012B0022019B18191044B0423FF6CB
:10079C0067AE98F8000004F8010B0099039220460C
:1007AC0007F0AEFC039A14440AF1010A08F101089F
:1007BC00C6E798F8002055F822300093029B45F8C4
:1007CC0022300098FFF79EFC421CDCE76FF00D0016
:1007DC0048E600BF2DE9F04F97B000AF90F802A0AB
:1007EC00D7F880B03B62CBF3C0030446FA62BB611E
:1007FC00894641B9457800780AEB800020444D4584
:10080C0017D8A0EB0409E378FB61BAF1000F02D012
:10081C001BF0010F16D1FB6953BBFB6A1BB13A6A83
:10082C004946204698474D4628465C37BD46BDE8AC
:10083C00F08F461C3046FFF765FC0130304409F15F
:10084C000109DCE7237862687A62FA6A99007961B7
:10085C0004EB8301002A40F000814D460E4601EB6B
:10086C000A094FF000084E454CD101EB0A0610E086
:10087C001BF0020FD1D023789A007A6162687A62F9
:10088C00FA6A04EB8301002A77D14D4601EB0A0684
:10089C0090461BF0050F0CBF02230123FB62FB6982
:1008AC0006EB430A0BF00203BB625645BCD016F8AC
:1008BC00021B16F8013C54F82390994B994502D32E
:1008CC00984B994536D3BB69002B40D0786A06F01B
:1008DC0055FA00283BD0E9468AB06A46924B5361E0
:1008EC007B6AC2E906314FF4007313848F4B42F8D4
:1008FC00103F8F4800234FF4125100F023FD023DAE
:10090C00CD46D2E716F8013BF96254F82300FFF705
:10091C00F9FBD7F88430F96A01304BB1D7F888303D
:10092C0098453EBFD7F8843023F8180008F1010829
:10093C00054498E7BB6923B1786A06F01FFA0028D2
:10094C00C9D11BF0010F05D1FB6AED1AADE7BB6AEB
:10095C00002BAAD04846FFF7D5FBD7F8843053B10B
:10096C00D7F8883098453FBFD7F88420431C22F82D
:10097C00183008F10108054497E7BAF1000F72D05E
:10098C001BF0040672D0D046002607F148005246F0
:10099C003B61B96207F0B4FBB96A3B6901EB0A022F
:1009AC00BA62FA69F9695200FA60BA6A02EB41025A
:1009BC003A610BF00202BA603A69B96A8A4257D1BD
:1009CC0062787A621BF0020F32440CBF4FEA580176
:1009DC0000211BF0010FD2B240F09F801BF0040FDE
:1009EC0014BF40460020BB616270A070E1703A6A8F
:1009FC007969FB6A20469847051EFFF615AFBB695F
:100A0C0023707B6A6370FB69E37041463A6AFB6A48
:100A1C0084F802A007F148009847B0F10008C0F232
:100A2C00BB807B693A6AA9EB0A01C91AFB68C91A2F
:100A3C00D7E90A0398470028C0F2B080A84408EB15
:100A4C0000054FF0000B07F1380AB34572D30021B3
:100A5C003A6AFB6A08469847E6E656464FF00008A5
:100A6C0007F1380093E75646D04697E7B04695E72E
:100A7C00BA6A12F8021BBA6212F8015C284A54F8DE
:100A8C002500904202D3274A90421ED3BA6932B154
:100A9C00786A7B6006F072F97B6800288CD1BA68A2
:100AAC0002BB08F1280207F1300C08F10100944454
:100ABC0007F1580252FA80F008F102080CF8101CE9
:100ACC005FFA88F800F8105C76E7BA693AB1786A90
:100ADC007B6006F053F97B6800287FF46DAF1BF048
:100AEC00010F09D006F1280207F13000711C16180D
:100AFC0006F8205CCEB25FE71BF0040F3FF45CAF4E
:100B0C0008F1280207F1300008F1010102EB00089E
:100B1C0008F8105C5FFA81F84EE7002063E700BF2D
:100B2C00248200007491000013870000040000016F
:100B3C00C48400001BF80A3087F8373054F823902F
:100B4C00D7F884302BB3D7F888309B4521D2D7F80F
:100B5C00843033F81B803A6AFB6A012107F13700B5
:100B6C00984700281ADB0544B8F1000F06D1484617
:100B7C00FFF7C8FA00F101081FFA88F83A6AFB6A15
:100B8C00414648469847002808DB05440BF1010B09
:100B9C005BE74FF00008DEE7454645E6054643E6D1
:100BAC00014B1860704700BF0000002080B505465F
:100BBC000E461746984605F0C5F9034607F022FB8A
:100BCC00DFF81890044649F8003042463046394662
:100BDC00A84754F8090001F0A7F900BF080000006D
:100BEC002DE9F047058B04462807904611D40229BD
:100BFC0005F0070540F0CC80204606F05DFB78B18F
:100C0C000138218B042811D8DFE800F0C2106D8563
:100C1C00950001290CBF45F0100545F020052583F2
:100C2C0088F31188BFF36F8FBDE8F08701F0070AD6
:100C3C00AA4500F0A5800027B9463E46A368002BC4
:100C4C0000F0BC8041F00801218388F31188BFF3C8
:100C5C006F8FA168002900F0BA800D68002900F0A0
:100C6C00B680D1F80480334652462046C047002D4A
:100C7C0076D02B6829461D46F0E701F007035A1F72
:100C8C00012A1BD8002221F00701062B276889B204
:100C9C00C4E9002209D13B4603E0628B0132628336
:100CAC001B68002BF9D141F002012183204606F08C
:100CBC0003FB00287AD041F0200176E0042B0AD106
:100CCC0021F0070189B22183204606F0F5FA10B114
:100CDC0041F020012183218B01F0070AAA454FD056
:100CEC000027B946AAE7236921F0070141F0060164
:100CFC00062DD3F8009021832DD1B9F1000F3FD0F0
:100D0C0041F00801218388F31188BFF36F8F3A49B2
:100D1C002046C84729E021F00701236941F004016E
:100D2C0089B2042DD3F804902183E6D000273E46E7
:100D3C004FF0040A82E721F00701236941F0050115
:100D4C0089B2052DD3F808902183D6D000273E46D2
:100D5C004FF0050A72E700273E464FF0060A6DE792
:100D6C002B4687E7B9F1000FD1D1EFF3118820237F
:100D7C0083F31288BFF36F8F238B23F00803238335
:100D8C00258BEA062ED525F01003238305F00705E5
:100D9C006669218B002EBFF670AF00232768C4E96B
:100DAC00003321F0070141F001012183218B01F077
:100DBC00070AAA454FF000097FF440AF002F9CD0E2
:100DCC0041F00801218388F31188BFF36F8F002F46
:100DDC00C8D03D68394633465246204606F098FA4C
:100DEC002F46F4E7AB067FF51BAF25F020032383DA
:100DFC0005F0070500E700BF497300002DE9F04737
:100E0C00DFF85880044607464FF0010914B93846FC
:100E1C00BDE8F08794FAA4F5B5FA85F509FA05F35F
:100E2C002E0108EB05156FEA030A24EA03042B7B59
:100E3C00002BEBD058F806301B694BB94644042202
:100E4C0073682846196807EA0A0706F065FBDDE7B0
:100E5C00284698470028D9D1F0E700BF1C85000030
:100E6C0030B51049104889B0002207F021F90F4D18
:100E7C000F4900220023CDE9062300240E23CDE9DF
:100E8C000334CDE901440B4B00944FF440722846D7
:100E9C0004F07AFD0849284606F0E6FF204609B022
:100EAC0030BD00BFC90E0000D00500204801002055
:100EBC00780A0020F5110000C7870000014804F0F3
:100ECC0049BB00BF380100202DE9F047804621487E
:100EDC000F4606F001FB0646002833D000252846B5
:100EEC00BDE8F087237B83B12368DB680BB1204618
:100EFC009847636883F8069023681B69D3B96368C5
:100F0C0004221968204606F007FB013610345445BC
:100F1C00E8D3B8F1000FE2D0002DDFD02846FFF760
:100F2C006DFF0546002FF7D000214FF4A47007F099
:100F3C0031F8F1E7204698470028E0D009FA06F38B
:100F4C001D43E2E7044CDFF814A005464FF00109FD
:100F5C00DDE700BF780800201C8500002C85000010
:100F6C00014B53F8200070476485000008B5034618
:100F7C0008462BB1044A136000F07AFC002008BD2F
:100F8C006FF01500FBE700BF0400002010B5044C07
:100F9C00237813B9034804F0DDFA0123237010BD44
:100FAC005E0A00203801002010B504460B4806F0FC
:100FBC0093FA5CB1BFF35B8F094B53E8001F013907
:100FCC0043E80012002AF8D1BFF35B8F054807F005
:100FDC007BF80548BDE8104004F0BCBA700800204E
:100FEC0074080020D0050020380100200020064B9A
:100FFC00BFF35B8F014653E8000F43E80012002A51
:10100C00F9D1BFF35B8F70477008002070B5FFF704
:10101C00EDFF084C084E0546B44200D370BD636822
:10102C005B792BB123685B6813B12946204698473E
:10103C001034F1E71C8500002C85000010B5044C21
:10104C000449204605F0D1FF034B1C6010BD00BFC6
:10105C00C400002050850000680800200D4A0E488E
:10106C00002310B513700D4A13600D4A4FF4004164
:10107C001360FFF77BFFFFF7E1FF0A4B0A491846A5
:10108C008B4200D310BD1A1A5C6812110132227106
:10109C001033F5E75F0A0020E174000070080020AF
:1010AC00740800201C8500002C85000001460022DD
:1010BC000148002305F0BABFC4000020014806F027
:1010CC0053B800BFC4000020024B0146186806F05C
:1010DC009FB800BF68080020014806F0D4B800BFD4
:1010EC00C400002070B5294B187800284DD0FFF7AC
:1010FC00E5FF0546002845D1254B264C1B68002BE7
:10110C0019DD06F0D3FF4FF47A72A0FB020302FB49
:10111C000131C30BD4E9002043EA41439B1A4FEA47
:10112C00D13140F2E93261EB0001934271F10001DF
:10113C0001D3FFF76BFFD4E9003213F57A7342F158
:10114C000002C4E90032BDE87040FFF7C5BF636818
:10115C005B7923B1236829461B68204698471034D5
:10116C00B442F4D32846FFF7AFFFBFF35B8F0A4BB3
:10117C0053E8001F013943E80012002AF8D1BFF3ED
:10118C005B8FB9E7054C064EEAE770BD5E0A00209E
:10119C0070080020C8050020740800201C85000081
:1011AC002C85000070B50D4D297861B90120FFF731
:1011BC008BFE0B4C0B4EB44206D3FFF793FF00286B
:1011CC00FBD101232B7070BD63685B791BB1236865
:1011DC0020469B6898471034EDE700BF5F0A00205B
:1011EC001C8500002C85000000212DE9F0470846E5
:1011FC00FFF76AFE044658B340F267684FF00009E7
:10120C0007F000F81B4B1C4A1B58136033B11B4BE7
:10121C001B68092B02DD1A4804F09CF9194FDFF802
:10122C0060A0002544B12046FFF7E8FD044618B93C
:10123C004FF0FF384FF0FF39FFF754FF064628B93F
:10124C00B5B942464B46504604F0B8F93546E9E785
:10125C004FF0FF384FF0FF39D2E72B689B691BB179
:10126C0000221146284698471035BD42F5D3E8E7D1
:10127C00054DFAE7080000006C08002074080020F7
:10128C00380100202C8500001C85000013B518487F
:10129C0006F022F9174B1B7873B1EFF3118420235E
:1012AC0083F31288BFF36F8FFFF71CFF84F3118851
:1012BC00BFF36F8F02B010BD0F4B1B68002BF9D022
:1012CC0050B900220023CDE900230C484FF4004212
:1012DC00002305F035F9EDE70928EBD1074806F0B6
:1012EC00F3FE074802B0BDE8104004F033B900BF6C
:1012FC00740800205F0A00206C080020D005002034
:10130C003801002010B5064B1B680446984721464F
:10131C00A060044805F009FFBDE81040FFF7B6BF18
:10132C0004000020C4000020044A054B9B1AB1EBBA
:10133C00D30F34BF52F8310000207047C484000032
:10134C001C8500002DE9F04F8FB004AFC1F34A2883
:10135C00B8600D4691467B600C0DB8F1000F63D060
:10136C00002607F114034FF0040B4FF00A0AC7F8DC
:10137C000C80C7E907667E620193CDF808B0CDF802
:10138C0000A007F11C03F96832464846FFF722FA21
:10139C00B0F5006F03461CD36C468AB0D9F8041024
:1013AC0004AB2648C3E9050140F2FF71D9611A4626
:1013BC004FF400711984224B42F8103F21483346F8
:1013CC004FF41251FFF7BEFFA5462C37BD46BDE8C2
:1013DC00F08FC0F30A0804F11700184420F007003E
:1013EC0080083B60FFF762FE68F35325044690B11A
:1013FC003B68154AC7E9083600F1100107F11403E0
:10140C00F961CDE900A3CDF808B0F96807F11C0328
:10141C004846FFF7DFF968F353257B68B9682A461D
:10142C00204606F098F8D0E704F1170020F00700EA
:10143C008008FFF73BFE0446EDE700BFDC870000A9
:10144C0004000001D4840000377500002DE9F04F32
:10145C0087B0DDE91279DDE9105A04460391934611
:10146C009846BFB1CDF800903B4652461021002063
:10147C00CDF81490FEF7DCFFB0F5006F06460AD3EA
:10148C00184A194840F2FF73022107B0BDE8F04F2B
:10149C0006F0BAB83E4605F11700304420F00700BC
:1014AC0004F007048008FFF701FE0BF0070BE400C3
:1014BC0044EA8B1444EA462444EA0554054640B1F8
:1014CC003FB1CDF800903B46524631461030FEF706
:1014DC00AFFF039943462246284607B0BDE8F04FBC
:1014EC0006F039B81B880000D4840000406820B195
:1014FC00034BC01A40F3CF0070474FF0FF307047DA
:10150C00C48400000EB403B503AB014653F8042B9E
:10151C000448019300F068FF02B05DF804EB03B0DF
:10152C00704700BF5F760000CA0605D48B064CBF1F
:10153C0002490349FFF7E6BF704700BF548800001B
:10154C00538800002DE9F04F89B09B46149B0693FD
:10155C009DF84CA0159B0593169B179E049304466F
:10156C000D469046BAF1000F00F09D8006F4807392
:10157C00079305F0CFFF06F00209024600283ED083
:10158C0091492046FFF7BEFF0746B9F1000F08D07E
:10159C0016F0440F35D18D492A462046FFF7B2FF8D
:1015AC00074406F0010353B1894B8A4953F82A20AA
:1015BC00894B2046002A08BF1A46FFF7A3FF06F402
:1015CC008073002B49D006F00803002B63D1B8F1CF
:1015DC00000F66D0814942462046FFF793FF05462F
:1015EC00069B3D44002B6DD1049B002B73D1F3075C
:1015FC0000F1E48031462046FFF796FFD8E007461D
:10160C00C3E7774B18680028CAD0764B4FF47A7929
:10161C001B68B5FBF3F54FF46163B5FBF0F100FB10
:10162C00115509FB05F54FF03C0CB1FBF3F203FB34
:10163C001211B5FBF0FEB1FBFCF300FB1E550CFBCD
:10164C00131109FB05F50091B5FBF0F56649CDE9E1
:10165C0001E52046FFF756FFA2E706F00803EBB1C1
:10166C00624B634953F82A202046FFF74BFF05468F
:10167C00B8F1000F05D0594942462046FFF742FF0A
:10168C000544BBF1000FABD05A495A462046FFF730
:10169C0039FF0544A4E74FF0000BE1E706F008051D
:1016AC00E6E745469CE7BBF1010F069B06D1002BF4
:1016BC0064D1049B002B7BD000250CE0002BF8D0D0
:1016CC004D485CE04D48069B4D49224605F025FBF4
:1016DC00049B002B68D0DFF82C81DFF82C91049F41
:1016EC003146102F204628BF1027FFF71DFF4FF063
:1016FC00000B5D4545DC059B49461A782046FFF7F3
:10170C0001FF4FF0010B1BF0070F03D141462046A0
:10171C00FFF7F8FE5F453BD9059B494613F80B20B4
:10172C002046FFF7EFFE0BF1010BBBF1100FEAD1D6
:10173C00364920464FF0000BFFF7E4FE5A46059B56
:10174C009A5CA2F120015F2928BF2E223049204645
:10175C00FFF7D8FE0BF1010BBBF1100F1DD01BF0E6
:10176C00070F03D141462046FFF7CCFE5F455A4692
:10177C00E5D841462046FFF7C5FEEBE71F48554626
:10178C00A1E741462046FFF7BDFE0BF1010BB0E788
:10179C0020492046FFF7B6FEC5E7059B3B44059361
:1017AC00049BDB1B04939AD1BAF1000F7FF41FAF9B
:1017BC00204609B0BDE8F04F05F03EBF064A05498A
:1017CC002046FFF79FFE15E75B8800005F8800004E
:1017DC0074850000578F0000568800008488000034
:1017EC00800800207C0800206888000088850000A4
:1017FC00888800008E880000957600005F760000D7
:10180C00F52300009B880000938800009D88000051
:10181C009F8800009988000073B542F20F738B42C9
:10182C0028BF0B4605680F4A04460521684604F09C
:10183C00D7FE63680C495B6806460B22284605F008
:10184C00EDFE63683246694628465B6805F0E6FEA5
:10185C00636806495B681B22284605F0DFFE02B070
:10186C0070BD00BF128A0000BE880000A288000074
:10187C00074A00210123904206D8064A01B90123E8
:10188C001360054B1860704740085B000121F2E7BC
:10189C0040420F007C08002080080020F8B5074F5C
:1018AC000D4604464618B44201D12846F8BD14F83A
:1018BC00011BBB6801485B689847F4E7BC820000D9
:1018CC00014B036000207047D085000008B5044828
:1018DC0005F07BFABDE80840024805F076BA00BF77
:1018EC0004890000398900002DE9F047064600AF55
:1018FC000C46002936D0E9468AB0D1E90012A3681B
:10190C006D462148A8464FF0050AC5E90501C5E911
:10191C00072348F810AF1D48424600234FF42151CD
:10192C00FFF710FDCD46D4E903126369AD461848A4
:10193C00C5F810A0C5E90501C5E907231348002324
:10194C0042464FF42151FFF7FDFCCD46E369114AA5
:10195C000E48012105F058FEA3690F4A0B480121DE
:10196C0005F052FE012E07D1EFF305830B4A074811
:10197C00103B314605F048FE2146304603F08CFB07
:10198C00BD46BDE8F08700BF67890000FC840000FD
:10199C0096890000C5890000D4890000028A0000E5
:1019AC0030BFFFF7FDBF00BF2DE9F0410B4EDFF854
:1019BC00308006EB0807CC1B054632460949204609
:1019CC0006F09EFBA01942460021083C06F0A6FB3F
:1019DC002C6707F10800BDE8F08100BF0000000093
:1019EC00040000002C850000054B5A699B689A4244
:1019FC001FBF044A536843F080535360704700BFC5
:101A0C00280A002000ED00E070B52A4C06460D4671
:101A1C0029482A4905F0BFFEA36ADB0647D52648AC
:101A2C00274905F0B8FE1120A36A1C0704D52248EB
:101A3C00244905F0B0FE12201E4CA36A990712D55A
:101A4C0021491D4805F0A7FE636BA26A120609D551
:101A5C001E4A1948012105F0D7FD1EB1A36A23F0D7
:101A6C008003A3621320134CA36ADE0704D512482B
:101A7C00174905F090FE1420A36A9C0604D50E4865
:101A8C00144905F088FE15200A4B9A6AD10658BFF6
:101A9C009A6A9A6A920642BF5A6A22F400525A62B1
:101AAC009A6A42F0FF029A6200232B7070BD1020DC
:101ABC00BAE700BF00ED00E0FC840000158A0000CE
:101ACC002B8A00005E8A0000718A0000898A00005F
:101ADC009F8A0000BE8A000010B5204C2049214886
:101AEC0005F059FEA36A990136D51E481E4905F02A
:101AFC0052FE1E20A36ADA0104D51A481B4905F0D0
:101B0C004AFE1F20154CA36A1B0304D5154818491F
:101B1C0005F041FE2120A36A590304D5114815494B
:101B2C0005F039FE22200D4CA36A9A0304D50D480A
:101B3C00114905F030FE2320A36ADB0304D50948C4
:101B4C000E4905F028FE2420044A936A6FEA0343E9
:101B5C006FEA1343936210BD1D20CBE700ED00E04C
:101B6C00ED8A0000FC840000058B0000188B00003F
:101B7C00328B0000508B0000758B00008F8B0000A7
:101B8C0070B5294C06460D462848294905F003FE38
:101B9C00A36AD9043CD52548264905F0FCFD17203D
:101BAC00A36A1A0504D52148234905F0F4FD182031
:101BBC001D4CA36A9B0512D51C48204905F0EBFD72
:101BCC00A36BA26A100409D51D4A1848012105F01F
:101BDC001BFD1EB1A36A23F40043A3621920124C0F
:101BEC00A36A590504D51148164905F0D4FD1A20ED
:101BFC00A36ADA050ED50D48134905F0CCFD1B2060
:101C0C00094A936A43F47F43936200232B7070BD9F
:101C1C001620C5E7A36A9B04F2D504480B4905F0CE
:101C2C00BAFD1C20ECE700BF00ED00E0FC840000D6
:101C3C00BA8B0000D08B00005E8A0000E18B0000A4
:101C4C00FA8B00000F8C00002A8C0000BE8A00006A
:101C5C002DE9F041654B8AB0D3F8048000AF0446FF
:101C6C00C8F30805002686F31188BFF36F8F02F0C6
:101C7C007F43B3F17F4F07D102F00C03082B12D135
:101C8C005B495C4805F087FD002634460023FB7158
:101C9C00EB1E092B00F28980DFE803F00A7F827BC0
:101CAC0087878787878510074CBF0C460126EDE791
:101CBC00514950484D4D05F06EFD0023FB71EB6A08
:101CCC009A0705D54D494B4805F065FD002331E0D9
:101CDC00EB6A002B01DA4A49F5E7EB6A5B00F5D5B4
:101CEC004849444805F057FD6B69A26943F4807379
:101CFC006B61BFF34F8FBFF36F8F6B6932F8022CA0
:101D0C0023F480736B61BFF34F8FBFF36F8F4DF66E
:101D1C0002739A4207D0AB6ADBB26BB3F91D012098
:101D2C00FFF772FE37E02368374A3248012105F08D
:101D3C006BFC2368FA79DAB907F1080504F1200C79
:101D4C00206861682A4603C2083464451546F7D1F9
:101D5C007A6A002E45D0C2F3080121B96FEA5222EB
:101D6C006FEA42227A6207F108011846FFF7BCFDC0
:101D7C002837BD46BDE8F081AB6A13F47F4F04D021
:101D8C00F91D0120FFF7FCFE05E0AB6AB3F5803FBF
:101D9C009CD3FFF7A1FE0346CCE7F91D0020BFE75B
:101DAC00F91D0020EEE719498DE7194A194B18F473
:101DBC00F87FE8468AB018BF13466A461649C2E94E
:101DCC0005134FF400731384103D144BD56142F886
:101DDC00103F084800234FF41151FFF7B3FAC546E2
:101DEC0074E722F4FF7222F00102BBE700ED00E081
:101DFC00708C0000FC8400009B8C0000B28C0000F6
:101E0C00D38C0000E18C0000008D00001C8D0000C4
:101E1C00578C0000428C0000408D00000400000133
:101E2C00044B5A6942F010025A615A6922F00802B6
:101E3C005A61704700ED00E0EFF30880EFF3098181
:101E4C0001B57246FFF704FF01BD00BF002080F30F
:101E5C001488BFF36F8F0F4880F3088801F0D8FF08
:101E6C0000200D490860BFF34F8F00F02BF82020A5
:101E7C0080F3118809484FF40061401880F30988F9
:101E8C00EFF314800221084380F31488BFF36F8FA3
:101E9C0000F0F2F8B81A002094ED00E0780D002064
:101EAC000749D1F890200023C2F307221846934229
:101EBC0000DB7047C1F89830C1F8A0000133F6E799
:101ECC0000ED00E008B572B6002383F31388FFF72A
:101EDC00E7FF144B4FF0FF32C3F88020C3F8842087
:101EEC00C3F88820C3F88C20C3F89020C3F8942042
:101EFC00C3F89820C3F89C20C3F88021C3F8842130
:101F0C00C3F88821C3F88C21C3F89021C3F894211D
:101F1C00C3F89821C3F89C2162B6BFF34F8FBFF36F
:101F2C006F8F08BD00E100E0084B9B6883420BD12A
:101F3C00EFF3058343B1064B5A6842F080525A6066
:101F4C005A6A22F400425A6204F002B8280A0020AD
:101F5C0000ED00E011498A684FF030001044EFF3B7
:101F6C00098C80E8F01F202080F31288BFF36F8F5C
:101F7C000B4F4FF000664A698A603E60106F094C47
:101F8C002060506F0023536780F3118802F13000FA
:101F9C0090E8F01F8CF3098870470000280A002095
:101FAC0004ED00E0A80800201EF0040F0CBFEFF3B6
:101FBC000880EFF30980816911F8021C0229FFD017
:101FCC0001B5724605F0DCFB01BD00BF40B2002834
:101FDC0007DB044A4109012300F01F00834042F84B
:101FEC002130704700E100E040B200280CDB4309CF
:101FFC00064900F01F0020330122824041F82320C3
:10200C00BFF34F8FBFF36F8F704700BF00E100E04D
:10201C00054B420900F01F0053F82220012303FA5C
:10202C0000F01040704700BF00E100E040B2002813
:10203C00A8BF00F1604001F10101B8BF064B4FEAA7
:10204C004111ACBF00F5614000F00F00C9B2B4BF44
:10205C00195480F80013704714ED00E0044B054A46
:10206C0023F07F039360BFF34F8FBFF36F8F7047E5
:10207C000000000000ED00E008B5FFF7EFFF074A95
:10208C00D2F8883023F47003C2F8883003F0F0F8EB
:10209C0004F092F800F042F803F02AF900ED00E0A9
:1020AC0042F8203C009B42F81C3C0A49019B42F838
:1020BC00183C029B42F8143C21F001014FF0807354
:1020CC0042F8043C42F8081C0023203A026543679E
:1020DC00704700BFB90B000000B5094B9860094B65
:1020EC001546026F1A600E462C4686F309880020AE
:1020FC00054B98472046002100220023034C204723
:10210C00280A0020A8080020B3770000B90B0000B3
:10211C00014B10221A61704700ED00E004480023C7
:10212C002021C2180133272B82F80013F9D17047F4
:10213C0000E100E008B5EFF30583064A103B02EB23
:10214C00C30152F8330049688847BDE80840FFF7DF
:10215C004BBC00BF1C830000024B034A0348012107
:10216C0000F07AB80000012000000020D0850000AB
:10217C0008B503461048D0F89020C2F30722013A64
:10218C00934207D90D480E4A012105F03DFA6FF034
:10219C00150008BDC0F898300A6822F01F021A43D7
:1021AC0042F01002C0F89C208A6842F00102C0F88C
:1021BC00A0201846EDE700BF00ED00E0EC84000025
:1021CC00578D0000F0B50E4685B01F46044600251D
:1021DC00B5420DDA606810B397B1431E18420AD0AD
:1021EC00104A11482B46012105F00EFA6FF015022A
:1021FC00104605B0F0BD1F28F2D921680B42EFD173
:10220C002368019305F0F2FAA36801A90343D0B245
:10221C000393FFF7ADFF10F1160FE7D0421C013509
:10222C000C34D5E77D8D0000EC840000044B0522B6
:10223C00C3F89420BFF34F8FBFF36F8F704700BF6D
:10224C0000ED00E0BFF35F8F024B0022C3F8942037
:10225C00704700BF00ED00E010B5034C012322785D
:10226C00FFF7B0FF207010BD610A00202DE9F0438C
:10227C0057485849D0F890300D68C3F307239D4256
:10228C0085B000F2A180FFF7DDFF4968002295427E
:10229C0001F10C011AD1504C504F25706846FFF7D4
:1022AC000FFBDFF83C81DFF83C9106460025AE427F
:1022BC001FD1237846490020D1F89020C2F3072281
:1022CC0093427BDBFFF7B2FF00204CE0C0F8982074
:1022DC0051F80C3C23F01F03134343F01003C0F8D8
:1022EC009C3051F8043C43F00103C0F8A03001329B
:1022FC00CDE7009800EB05114FEA051CCB683B407D
:10230C00B3F5000F44D00AD8B3F5001F2ED0B3F5A7
:10231C00800F34D0B3F5801F10D00135C7E7B3F16F
:10232C00807F3ED0B3F1007FF7D150F80C30886835
:10233C004A6805F05BFA40F4802009E050F80C3054
:10234C0088684A6805F052FA40F0885040F4302012
:10235C00039001A92078CDE90123FFF709FF00289C
:10236C0028DA6FF0150005B0BDE8F08350F80C309A
:10237C0088684A6805F03AFA40EA0800E8E750F83D
:10238C000C3088684A6805F031FA40EA0900DFE74A
:10239C0050F80C3088684A6805F028FA40F08270D2
:1023AC00D6E750F80C3088684A6805F01FFA40F000
:1023BC008870CDE7237801332370AEE7C1F89830ED
:1023CC00C1F8A000013377E74FF0FF30CBE700BF37
:1023DC0000ED00E0DC850000610A00200000F0FF49
:1023EC000000081100000206F0B587B007460E4643
:1023FC0014460021102268461D4605F08FFE02236C
:10240C008DF802302A46054B019321466846CDE9EA
:10241C00047604F011F907B0F0BD00BF1978000084
:10242C0008B5024B1B689847002008BDAC0800207B
:10243C00034B044A1860937843F00203937070477F
:10244C00AC0800201000002008B50649064821F011
:10245C000701C1F1005202F5803204F006FC0020A5
:10246C0008BD00BFBF1E0020B0080020024B012297
:10247C00C3F840250020704700E0014020B1034B19
:10248C00800143F001031847704700BF30850000FE
:10249C00084B70B5C31A0D4607499B1004465943A7
:1024AC000648402205F0C6F92B4601462046BDE8F9
:1024BC0070401847D0080020B76DDBB67C82000056
:1024CC0073B50C4C0C4A4023041B00930D460B4671
:1024DC000A49A41061430646094805F0D6F9011EC5
:1024EC0005DA30462B4602B0BDE87040184702B002
:1024FC0070BD00BFD0080020FF780000B76DDBB6C0
:10250C007C820000002270B5012104461046FFF7C2
:10251C008DFD114801F05EFE104B984218D12069D8
:10252C0000F0DEF901F068FE26690D49304604F032
:10253C0012FF00280BDB012535642469084904F1DE
:10254C001C0004F008FF002801DBE564002070BDCE
:10255C006FF00400FBE700BF492600000000AD0B44
:10256C00FC8500001FB500220123CDE90223094A96
:10257C00CDF800D06B46CDF804D005F0B3F90028A7
:10258C0005DB4FF480420023684603F017F805B0D2
:10259C005DF804FB1179000010B5074C23782BB9BA
:1025AC004FF4A57005F0CCFB01232370BDE810405F
:1025BC00002001F033BE00BF620A002010B5EFF31B
:1025CC001184202383F31288BFF36F8F074A13689B
:1025DC0023F00201DB07116002D4012005F0CAFAD6
:1025EC0084F31188BFF36F8F10BD00BF200900204A
:1025FC0030B4104B0C2202FB003301460020D3E90F
:10260C000E529863EFF31180202484F31288BFF3E9
:10261C006F8F1C6C04F0C00444F002041C6480F343
:10262C001188BFF36F8F1DB12B46034830BC184780
:10263C0030BC7047D00800207C820000012810B507
:10264C0004460AD003280CD078B9084B1B6C5B07E6
:10265C000BD1BDE81040FFF7CBBF00F04FF920467F
:10266C00F7E7BDE8104000F057B910BDD0080020C6
:10267C0010B4EFF31182202383F31288BFF36F8F12
:10268C001748016841F002040460C80707D482F3BC
:10269C001188BFF36F8F012010BC01F0BFBD4FF04C
:1026AC008041D1F80C04D1F80C14C907EFD5EFF325
:1026BC00118083F31288BFF36F8F0A490B6C03F000
:1026CC00C00343F002030B6480F31188BFF36F8FD8
:1026DC0082F31188BFF36F8F002010BCFFF788BF07
:1026EC0020090020D0080020024AC3B21C2003FBA2
:1026FC0000207047D0080020F8B52849BFF35B8F45
:10270C000646012251E8003F41E800200028F9D19B
:10271C00BFF35B8F33B9224922484B60CB608A6090
:10272C0004F02CFE731E012B1DD805F097FB0446FC
:10273C00D0B91D4B1B78BBB14FF080430222C3F8BC
:10274C00082305464FF08047D7F81824D7F81834DB
:10275C00D20312D59B0701D0012E0ED1BCB185F34B
:10276C001188BFF36F8FF8BDEFF31185202383F32E
:10277C001288BFF36F8F0124E4E71CB1284605F0E3
:10278C0026F8E1E70021212005F004FCDCE74FF0FE
:10279C0080430222C3F80423E5E700BFCC080020E5
:1027AC00BC080020EC080020740A00200D4BBFF37D
:1027BC005B8F012253E8001F002903D143E800205E
:1027CC000028F7D1BFF35B8F0AD107490023CB60F8
:1027DC00064B4B6003238B60054B186804F0CEBD91
:1027EC00704700BF4009002028090020C1280000C4
:1027FC002409002007B500220023CDE90023084856
:10280C004FF40032002303F09BFE064B186804F0D3
:10281C000CFE054B00221A6003B05DF804FB00BFF0
:10282C00000100202409002040090020F7B51C4EAF
:10283C001C4CB7681C4DFB6840213046984740B192
:10284C00002323702B8001F05BFD0123237003B068
:10285C00F0BD0C213B696A46304698470028EFD101
:10286C00124A019B93FBF2F3009A217803EB82034B
:10287C001BB2B5F900200029E4D09A1A002AB8BF7F
:10288C00524212B2012ADDDC094A136801390133C4
:10289C002170136003B0BDE8F040FFF7ABBF00BF81
:1028AC00FC820000630A00205C0A002090D0030028
:1028BC003809002008B5074805F047FA28B901F097
:1028CC001FFD054B01221A7008BDBDE808400348E6
:1028DC0002F0D6BFFC820000630A0020200000201A
:1028EC00034B044A186000231360034A13607047BB
:1028FC00240900203C09002038090020024B00224A
:10290C001A70FFF753BF00BF630A0020014805F09F
:10291C00DBBB00BF00010020024A136801331360C7
:10292C00FFF768BF3C09002008B5074805F00DFA11
:10293C0038B10648FFF77CFD0448FEF731F900205A
:10294C0008BD6FF01200FBE7BC8200005D2900009F
:10295C000A2838B5074D044604D1AB680D215B68D5
:10296C0028469847AB6803485B68E1B29847204615
:10297C0038BD00BFBC820000430970B507D10B4BBA
:10298C00596821B101250C68094E854001B970BD0B
:10299C008A682A4002D04B68304698471CB123689D
:1029AC0021461C46F2E72346FAE700BF4409002003
:1029BC009C8200002DE9F043476840F20636D006B1
:1029CC003B7B87B002EA060654BFC2F340100320DB
:1029DC0001F01F05B6F5837F144645EA43158DF8C3
:1029EC00030042D00FD8062E18D007D8B6B1022E4D
:1029FC003DD06FF0150007B0BDE8F083B6F5807FD1
:102A0C00F7D101260AE040F20222964231D0B6F507
:102A1C00407F30D0B6F5007FEBD1022622032CD5B7
:102A2C007A6801238B40C2F808353B696BBB05F013
:102A3C001F026D0976D1920002F1A04284F480311C
:102A4C00D2F80037C1F30041C4F3404423F4E163EE
:102A5C0044EA410423F007031C4344EA800444EA9B
:102A6C000624C2F800470020C5E70726D6E704264F
:102A7C00D4E70526D2E70326D0E7630341BF012341
:102A8C007A688B40C2F80C35CFE710370DF1020293
:102A9C002946384601F0B4FE14F4403F80460CD170
:102AAC002946384605F0D8F8214B9845DBD19DF8DE
:102ABC000210384601F0E4FED5E701AB4FF00009F7
:102ACC0003AA29463846CDE90439CDE90199CDF858
:102ADC000C9001F065FD164B98428AD114F400332A
:102AEC0015D09DF803308DF80E3084F48034C4F387
:102AFC0000444B4603AA294638468DF80C608DF8E5
:102B0C000D4001F001FE0A4B9842CDD071E7CDE9A2
:102B1C00043303AA0DF1030329463846039301F04D
:102B2C003FFDF0E702F5E07253F82230FFDE00BF04
:102B3C000000AD0B38B545682B69B3B1103528468C
:102B4C0001F094FE044680B90146284601F06AFE65
:102B5C00084B98420BD108492246284601F04AFE00
:102B6C00224605210620FFF761FA002038BD6FF0E0
:102B7C000400FBE70000AD0B85290000F0B51646FC
:102B8C004268107B01F01F0444EA4014106987B0BE
:102B9C0000286ED0B6F5001F02F1100506D12146B3
:102BAC00284605F05BF8002007B0F0BD01A800270F
:102BBC00B6F5800F0197476038D1B3F1007F14BF91
:102BCC00052304238DF804300023CDE9040303937B
:102BDC00936823FA01F111F001010DF103073AD1C9
:102BEC00B6F1A07F37D104F01F03620903F5E0733F
:102BFC0045D14FF0A04252F82330DB072BD43A4694
:102C0C002146284601F0FCFD1E4B984219D0029734
:102C1C0003AA2146284601F0C3FC1B4B98422BD13A
:102C2C0001222146284601F03BFEBCE7B3F1C06F00
:102C3C0005D0B3F1007F14BF01230223C2E70323A5
:102C4C00C0E73946284601F023FE0F4B9842DED0F0
:102C5C006FF00B00A8E73A462146284601F0D0FD5C
:102C6C00094B9842D4D19DF80310284601F008FE78
:102C7C00CEE76FF0850097E76FF0150094E751F8F9
:102C8C002330FFDE0400AD0B0000AD0B2DE9F04F3F
:102C9C00DFF81CC1474F002540F2FF16EBB29942FA
:102CAC0002D80020BDE8F08F50F8254014F4804F76
:102CBC00C4F3C32EC4F3080366D1240E17F80E9088
:102CCC00B34208BF4FF0FF33062C60D8DFE804F0A6
:102CDC00040A114F14494F00C2F80C355C1C49D141
:102CEC000135DBE7C2F814355C1CF9D00024A04692
:102CFC0012E0C2F80835F1E75C1CC2F80835EFD0D9
:102D0C0000245FEA531E45D14FF001084FF0A04E4E
:102D1C0008FA03FACEF80CA550F825B00BF4004EC7
:102D2C00BEF1000F1CBF4FF00008012403F01F0E72
:102D3C005B0937D14FEA8E0E0EF1A04ECBF3412B2F
:102D4C00DEF800A74FEA092343EA8B030AEA0C0AD0
:102D5C0043EA0A0343EA080343EA4403CEF8003784
:102D6C00BEE75C1CC2F80C35BAD00124C9E7C2F826
:102D7C001035B9E75C0911D101244FF0A04E04FACB
:102D8C0003F8CEF80885B2E76FF015008AE76FF00C
:102D9C00850087E70023C3F80C35FFDE0023C3F85A
:102DAC000835FAE70EF5E07E002353F82E30F4E7F1
:102DBC00F0F8FCFFEA8D0000014B01221A6070470D
:102DCC0000C000400C2903690BD15B6A0649074817
:102DDC004B4393FBF0F100FB113311605360002067
:102DEC0070476FF08500704790D0030040420F0091
:102DFC00044B00690022C3F80021D3F8003102F023
:102E0C00A9BB00BF00C000407FB50569AB6A63B3C6
:102E1C00402901D00C292BD105F110064FF0FF32BF
:102E2C004FF0FF33304602F0CDFA134B0193A86AF2
:102E3C000323002469460394029304F09FFA4FF095
:102E4C00FF324FF0FF33284602F0B8FBA86A04F0BB
:102E5C00ECFA0A4BD3F808256A6201225A60304614
:102E6C0002F028FB204604B070BD6FF00A00FAE7B0
:102E7C006FF08500F7E700BFC52D000000C00040D3
:102E8C0010B504690020FFF72FFCA0624FF0FF3251
:102E9C000021204604F0A1FF04F1100004F096FF7D
:102EAC00002201210C20FFF7C1F80C20FFF78EF84F
:102EBC00024B0122C3F80423002010BD00C00040C7
:102ECC00074BD3F8082142B10020C3F80801D3F80E
:102EDC000821D3F818350B7070474FF0FF3070474E
:102EEC0000200040024BD3F88004C3F880047047E4
:102EFC0000200040F8B50E4604F0B0FF1A4D78BB28
:102F0C0064240127BFF35B8F55E8003F002B03D1EE
:102F1C0045E80072002AF7D1BFF35B8F07D0212060
:102F2C000021013C05F036F814F0FF04EAD10F4CF7
:102F3C000023C4F81C31D4F81C310123A360C4F85D
:102F4C001C6542F21076D4F81C3123B9012004F030
:102F5C000FFE013EF7D10123E36000232B60F8BD87
:102F6C0001232B60E3E700BF7C0900200020004018
:102F7C0073B5594A436804690021C2F800151E68EC
:102F8C00054601AA304604F01FFD0028C0F28180DE
:102F9C00019B326819791868FFF778FE002878DBF6
:102FAC006379012B1CD1A379032B19D1E379BBB91C
:102FBC00217911B1022913D10E212368B3F5164FD3
:102FCC0069D02BD8B3F5165F67D014D8B3F5966FCC
:102FDC0065D008D8B3F5967F64D0B3F5167F64D06E
:102FEC006FF0850055E0B3F5166F61D0B3F5965FC1
:102FFC00F6D13A4B39E0B3F5E14F5CD007D8B3F5D5
:10300C00615F5AD0B3F5964FEAD1354B2DE047F6B8
:10301C0012229342E4D14FF4000326E0B3F5613F52
:10302C004ED011D8B3F5963F4CD008D84DF6C022EF
:10303C00934249D0B3F5614FD2D12A4B15E0B3F589
:10304C00E13FCDD1284B10E0B3F5612F3FD007D82D
:10305C00264A93423DD0B3F5E12FC1D1244B04E075
:10306C00244A9342BCD14FF080531B4A2D69C2F8BD
:10307C002435C2F86C1594E8030085E8030004239A
:10308C000020C2F80035C2F80801D2F8083101233B
:10309C00136002B070BD184BE7E7184BE5E74FF42F
:1030AC009E23E2E74FF4A033DFE74FF41C33DCE759
:1030BC004FF41D23D9E7124BD7E74FF46C13D4E729
:1030CC00104BD2E7104BD0E74FF46503CDE70F4B15
:1030DC00CBE74FF08063C8E70020004000B013003E
:1030EC0000A04E0000F0EB0000E0D70190D00300F0
:1030FC0000705F0740420F0000509D0000502700F9
:10310C0000F0750000B0AF0300903A0100D0BE0E85
:10311C0090F86830B3B190F86A3090F869100122D9
:10312C009B008A4003F18043074903F5C043C1F873
:10313C000825D3F8102522F00302C3F8102500232C
:10314C0080F86830704700BF00F001402DE9F0476F
:10315C004568D0F8108000AF06460021686B04F07B
:10316C0060FC041E11DBE96B481C1AD005F1400011
:10317C0000F0A6FB10F1130F04460AD1414A424855
:10318C00012104F034FC6FF012042046BD46BDE86A
:10319C00F087411D05D13D4A3B48012104F027FC35
:1031AC00F3E7EB6A9847D8F808504FF00109D8E9D3
:1031BC00023203EBC2039D4215D3404604F086FC59
:1031CC0035697368002285F8682093F83830002B35
:1031DC0050D005F1690001F057FC2D4B9842044684
:1031EC003FD02C4ACBE7286804F0AFFD0346B0B9BA
:1031FC002A68297910686C468AB06A46264DD161D6
:10320C004FF4007111842549C2E9055042F8101F92
:10321C001D484FF41151FEF795F8A546B3E7286801
:10322C002979EB88D0F810C0D0F808A0DCF8004061
:10323C00DA0754BF43F4B01383F4D01323F4801291
:10324C0009FA01FEDB074CBF4EEA040424EA0E0423
:10325C00CCF80040DAF800309847041E95DB0835AE
:10326C00A5E70F4805F16A0101F012FBA04201D05D
:10327C000C4A84E773680021586B04F0D2FB0024DD
:10328C0083E700BF188E00000C850000438E000001
:10329C000000AD0B848E0000608E00000400000165
:1032AC00CC860000A38E00002DE9FF41056947681C
:1032BC002B6D0646A86C88BB002B00F0A6803C8EBC
:1032CC006A6CD5F84C809C4228BF1C46E96C59B1FD
:1032DC002B6D4BB108F06043B3F1005F04D0082CA8
:1032EC00D5F8648028BF08246B6CAC651BB1AB6C43
:1032FC00002B18BF2346019361BB0023039300925C
:10330C00CDF8088000226946384601F09DFD414BFE
:10331C0098427CD02846FFF7FBFE6EE0696CD5F82E
:10332C004C803C8E0A4613B1984228BF1846844202
:10333C0028BF04460029C9D001F06043B3F1005FF7
:10334C00C4D0082C28BF08242246286E04F0D8FECE
:10335C002A6EBBE7296D0029CFD0012C0394009273
:10336C00CDF80880CED1012BCCD897F83830002B73
:10337C003ED03269736892F86900D3F800E092F895
:10338C006A3082F8684099009B0003F1804303F592
:10339C00C043DEF808250EF1140CD3F810E52EF41A
:1033AC00473E2EF4407EC3F810E5D3F810E5120228
:1033BC0002F4F85242EA0E0242F44032C3F81025ED
:1033CC00D3F8102542F00102C3F81025C30003F115
:1033DC00804303F5F83301F1804101F5C241C3F894
:1033EC001015C3F814C50C4B8440C3F8044589E789
:1033FC000A4A0B48022104F0FAFA6FF00401304635
:10340C0004B0BDE8F04104F083BB1946F7E704B003
:10341C00BDE8F0810000AD0B00F00140C58E00004E
:10342C000C85000038B503780546002B63D10C6978
:10343C00A36D33B9606D6FF07301BDE8384004F0D3
:10344C0067BB2046FFF764FEE06C48B1236D3BB1CF
:10345C00EB682BB1834203D0A26D616E04F050FE79
:10346C00A36CA26D33B19A4213D9234A234801218C
:10347C0004F0BDFA236DA26D33B19A4222D91E4AD3
:10348C001E48012104F0B3FA606DBDE83840FFF727
:10349C000BBF9B1AA3647BB9636B08336363A36B89
:1034AC00013BA36304F1480204F1380104F1340038
:1034BC0004F0A4FA6064DDE7636C002BDAD01344EB
:1034CC006364D7E79B1A23657BB9E36B0833E3632B
:1034DC00236C013B236404F1500204F1400104F11C
:1034EC003C0004F08BFAE064CEE7E36C002BCBD00D
:1034FC001344E364C8E738BD008F00000C8500005E
:10350C002DE9F04F8DB000AFC7E9023243687B6004
:10351C008B88046988469904054633D44FF0FF32F2
:10352C004FF0FF3304F1100002F048F8C4F80480A7
:10353C00D5F804A0D5F81090DAF808303B6099F86B
:10354C005D3023B1D9F80030984500F0D380B8F83D
:10355C00046016F400631CD0AF4AB048012104F09B
:10356C0046FA6FF0850623689B8813F4005304D148
:10357C00636004F1100001F0EDFF30463437BD46B6
:10358C00BDE8F08FA369002BC8D163689845C5D1FD
:10359C00CEE7F20715D529686D4688B06A46A04873
:1035AC00C2E905014FF4007191839E4942F8101F46
:1035BC009A484FF4E251FDF7C5FEAD466FF0150683
:1035CC00D1E7330705D5984A9448012104F00FFA46
:1035DC00F4E7C6F34513082B01D0944AF4E7D8F866
:1035EC0000B0934B9B4501D8924AEDE70AF10C0EC3
:1035FC00BEE80F0007F1100CACE80F009EE80F00BE
:10360C008CE80F003B685B4528BF5B469B468A4BAA
:10361C009B4511D2894B9B4552D8894B9B4551D820
:10362C00884B9B4550D8884B9B454FD88749884B36
:10363C00884A8B4588BF1346B0077B6206F00403AB
:10364C0046D5002B14BF0323022387F82830C6F37A
:10365C00001387F82930DAF80030D3F80825511C0C
:10366C0012D016F0020F02F01F00C6F340014FEA11
:10367C0052124FF001032FD1002A40F019814FF064
:10368C00A0428340C2F80C3599F85D302BB15046FE
:10369C0001F09EFB002389F85D306F4A2B4607F141
:1036AC001001504601F060FB6C4A904203461CD05E
:1036BC006B4A5A48012103F0A7FF6FF0040652E74A
:1036CC00684BB9E7684BB7E7684BB5E7684BB3E7AE
:1036DC00003B18BF0123B8E7002A40F0EC804FF004
:1036EC00A0428340C2F80835CEE7012389F85D304B
:1036FC00C9F80080012384F85C307B68D96B4A1CC4
:10370C000AD003F1400000F00BF9743004D1594A8F
:10371C004248022104F06BF9FB68002B6CD1636307
:10372C000023A36304F1480204F1380104F13400CE
:10373C0004F064F9BB686064002B65D1E36300237B
:10374C00236404F1500204F1400104F13C0004F044
:10375C0055F900263246E06401212046266304F028
:10376C0095F92846FFF7A0FDA06B324633468342FD
:10377C0040F084800023266C1946B14240F08580CD
:10378C009A42A04638BF1A464FF4FA5303FB02F68E
:10379C0058F8203B4FF4004C1B68B6FBF3F640F294
:1037AC00E730C83600214FF47A720023E6FB0C0197
:1037BC00FCF78EFC02460B46404601F0FFFE02462B
:1037CC00002869D02C4A1548012104F010F9002674
:1037DC007868A66501F0FCFA84F85D606FF07301FF
:1037EC00284604F095F9404601F00EFF2046FFF7FD
:1037FC008FFC6FF07306B6E6FB681B686363002BE7
:10380C008ED0FB685B688CE7BB681B68E363002B9E
:10381C0095D0BB685B6893E71E8F00000C85000099
:10382C00388F0000030000015A8F0000798F0000D0
:10383C0047E80100A88F000000127A00FF083D0045
:10384C007F841E003F420F001FA107008FD0030092
:10385C0048E8010090D00300313400000000AD0BAB
:10386C00D98F000000093D0080841E0040420F00EB
:10387C0020A10700009000002A900000616B01EB72
:10388C00C301013349680A4471E7E06B00EBC100E6
:10389C0001314068034470E7266B16F1740F96D023
:1038AC00002E3FF460AE0146286904F0EFF85AE6AA
:1038BC00C1F80C15FFDE0023C3F80835FAE700BF8A
:1038CC00F0B587B001238DF8023002238DF8043057
:1038DC006B4403930F4601AB0DF1030100240493D9
:1038EC0005460291059400F0D3FF0C4B9842064616
:1038FC000FD103AA3946284600F052FEB0420BD035
:10390C009DF80310284600F0BBFF6FF0040007B0D1
:10391C00F0BD6FF01200FAE72046F8E70000AD0B9F
:10392C002DE9F0410D46064604F09AF900220746AF
:10393C002946304600F0B4FF6B0905F01F0429D16D
:10394C00A40004F1A044164BD4F80027134043F014
:10395C000C03C4F8003704F0F8F880463368DB59E0
:10396C007BB100273046294604F078F9D4F80027BB
:10397C000B4B134043F00403C4F800373846BDE842
:10398C00F08104F0E2F8A0EB08000628E6D96FF00D
:10399C007307E7E704F5E074002353F82430FFDEE7
:1039AC00F0F8FCFF70B5012383400E4ABFF35B8F28
:1039BC00DC4352E8001F01EA040542E80056002EE1
:1039CC00F7D1BFF35B8F4FF4803282400648C0F8CA
:1039DC000823BFF35F8FBFF36F8F0B4214BF01201F
:1039EC00002070BD840900200010014070B40E4905
:1039FC00D1E90034D01AC31844F1000422F07F46F8
:103A0C00C1E90034A6F50013B3F5400F09D2074BFA
:103A1C001B681A0A1B069C19054B42F10005C3E9E9
:103A2C00004570BC02F0A4BC1806002088090020D8
:103A3C002006002011B3BFF35B8F0123104A834093
:103A4C0052E800CF4CEA030C42E800C10029F7D140
:103A5C00BFF35B8F0B4A4FF480338340C2F80433BF
:103A6C00094BBFF35B8F1B68BFF35B8FC340DB0756
:103A7C0042BF064B4FF40032C3F80021704700BF21
:103A8C0084090020001001408009002000E100E0C2
:103A9C000D4B1868010A0006BFF35F8F0B4BD3F870
:103AAC000435181841F10001B3F5801F0AD2084BF8
:103ABC00D3E90023904271EB030303D210F1807021
:103ACC0041F10001704700BF88090020001001403F
:103ADC00200600202DE9F04F85B016461F469DF8B4
:103AEC0040A00446FFF75EFF0190FFF7D1FFB04204
:103AFC0071EB070354D23E4B301A67EB010198422D
:103B0C0071F100014FD23B4B03EB0413D3E90223B9
:103B1C009F4208BF96425ED037494FF4803804F17B
:103B2C00500508FA04F8AD00C1F848832046ADB240
:103B3C0003F0FFFF26F07F4B05F1804504F5A873D9
:103B4C0005F58835DC464FF003090293029A2CF0F8
:103B5C007F4341F82230C1F84483D1F80435274A19
:103B6C006FF00200C01A604420F07F40904232D9BE
:103B7C00286868B1D1F804350393A3EB0B0020F04F
:103B8C007F40B0F5000F26D9204603F0D2FF039BEF
:103B9C00BAF1000F07D109EB030C09F10109D5E7C4
:103BAC00BAF1000F09D06FF0150520460199FFF707
:103BBC0041FF284605B0BDE8F08F0123104ABFF342
:103BCC005B8FA34052E8000F184342E80001002924
:103BDC00F8D1BFF35B8F07490E98230101EB041258
:103BEC00C8500F9B5360C2E902670025DDE700BF98
:103BFC00010080000806002000100140FDFF7F003E
:103C0C00800900207FB51C4C1C4BC4F80833C4F849
:103C1C0048331B4B00254FF0FF304FF0FF31C4F8F9
:103C2C000855C3E902014FF48033C4F80433154B33
:103C3C0002264FF400320121C4F804631120C3F8AA
:103C4C0080212A46FEF7F2F91120FEF7BFF90E4A41
:103C5C000123A360236013600C4B0D4A0093CDE944
:103C6C00015500232846FFF735FF3046FEF744FD8B
:103C7C00284604B070BD00BF0010014003000F00C7
:103C8C000806002000E100E084090020F93900005A
:103C9C00FFFF7F002DE9F7432F4CD4F8043399072D
:103CAC000BD5D4F8043143B12C4A0023C4F80431A9
:103CBC00D4F80431136801331360D4F80433DA03F5
:103CCC0029D5BFF35B8F264B53E8002F22F001015F
:103CDC0043E800100028F7D1BFF35B8FD30702D461
:103CEC00D4F84031BBB10025C4F84051D4F8403170
:103CFC00FFF7CEFEEFF31182202383F31288BFF37C
:103D0C006F8F184BD3E90267B042B94106D282F3E8
:103D1C001188BFF36F8F03B0BDE8F0834FF0FF380D
:103D2C004FF0FF39C3E90289D3E900101D604FF44D
:103D3C008033C4F84833C4F84051D4F8403182F38E
:103D4C001188BFF36F8F0029E5D0009032463B46B7
:103D5C0028468847DFE700BF001001408809002093
:103D6C00800900200806002030B5431C124C85B099
:103D7C0005D08442A8BF0446012CB8BF0124FFF72C
:103D8C0087FE0E4B0C4DD3E90013401AB0F5000F13
:103D9C0010D22218AA4228BF2A4652184FF000000F
:103DAC0007490091CDE9010043F10003FFF792FEB2
:103DBC0005B030BD2A46F0E7FFFF7F001806002053
:103DCC00F939000008B5FFF763FE024B1B68C01AF7
:103DDC0008BD00BF180600204FF0704393F8E02F89
:103DEC00062A09D1D3F8E83FC3F30313033B042B92
:103DFC0002D8024AD05C7047002070477A900000CD
:103E0C00024AD2F80034002BFBD0704700E001408E
:103E1C0010B503F09EFE40B14FF080538E4AD3F89C
:103E2C002433C3F30423C2F84035FFF7D5FF10B198
:103E3C008A4B8B4A5A6703F08CFE48B14FF0805383
:103E4C004FF08042D3F84432C3F34233C2F83C35CE
:103E5C00FFF7C2FF30B1834AD2F8FC3023F08073F5
:103E6C00C2F8FC3003F075FE40B14FF080430022E5
:103E7C00C3F80C21C3F81021C3F83825FFF7ACFFA9
:103E8C0020B14FF080430322C3F8A025FFF7A4FF15
:103E9C0060B1754B0522C3F810260122C3F88826A1
:103EAC000022C3F818263F22C3F814264FF0805383
:103EBC00D3F83021511C09BF4FF07043D3F8343183
:103ECC0093F8E02FD3F8E83F08BFC3F30313062A97
:103EDC004DD1033B042B03D8644AD35C002B46D052
:103EEC004FF08052624BD2F80414C3F82015D2F86C
:103EFC000814C3F82415D2F80C14C3F82815D2F8FA
:103F0C001014C3F82C15D2F81414C3F83015D2F8C9
:103F1C001814C3F83415D2F81C14C3F84015D2F891
:103F2C002014C3F84415D2F82414C3F84815D2F859
:103F3C002814C3F84C15D2F82C14C3F85015D2F829
:103F4C003014C3F85415D2F83414C3F86015D2F8F1
:103F5C003814C3F86415D2F83C14C3F86815D2F8B9
:103F6C004014C3F86C15D2F84424C3F8702503F040
:103F7C00F0FD48B14FF080534FF08042D3F85832E7
:103F8C0003F04F03C2F8E43E03F0E3FD48B14FF0F9
:103F9C008043D3F80024D20744BF6FF00102C3F86A
:103FAC0000244FF08053D3F83021062A26D1D3F8C1
:103FBC003431033B042B02D82E4AD35C63B12E4A16
:103FCC00D2F83C3743F48063C2F83C374FF080534F
:103FDC00D3F83031062B11D14FF08053D3F8343154
:103FEC00033B042B02D8254AD35C3BB14FF0102382
:103FFC00D3F808224FF08043C3F858254FF0102314
:10400C00D3F80022002A03DBD3F80432002B22DA87
:10401C001B4901234FF01020C1F804351524FFF77C
:10402C00EFFEC0F80042FFF7EBFEC0F80442FFF7CA
:10403C00E7FE0023C1F80435FFF7E2FEBFF34F8F14
:10404C000849104BCA6802F4E0621343CB60BFF31B
:10405C004F8F00BFFDE710BD0030014000C007408E
:10406C000DF0ADBA00ED00E000500040759000007E
:10407C0000C0004070900000001000406B900000E9
:10408C0000E001400400FA0530B50468CCB1BFF380
:10409C005B8FB4FA84F3C3F11F03DBB201229A40A5
:1040AC0024EA020250E8005FA54204D140E8002C4B
:1040BC00BCF1000FF6D1BFF35B8FE6D102480B7059
:1040CC0030BD0248FCE700BF0000AD0B0200AD0B99
:1040DC0010B50368CB40DB0714D401238B40026876
:1040EC00BFF35B8F43EA020150E8004F944204D1C6
:1040FC0040E8001CBCF1000FF6D1BFF35B8FEED192
:10410C00014810BD0148FCE70000AD0B0400AD0BED
:10411C00F7B50546F8B101281BD104224FF4807382
:10412C0001464FF0804003440244C0F808130026B7
:10413C00012111601E608D421B688DF8071008BFAD
:10414C000DF1070642F210744FF0804745B1012D76
:10415C0029D003B0F0BD0C224FF482730221E0E7AA
:10416C00D7F8183403F4803366B9002BF1D0012052
:10417C0003F0FEFC013CF3D1EBE703F0F9FC013C4E
:10418C00E4D1E6E7D7F8182402F003023260002BE2
:10419C00DFD09DF807000128EFD0012DD9D10C4BB1
:1041AC0000225A71D5E7D7F80C3403F480333EB9AA
:1041BC00002BF4D0012003F0DBFC013CF3D1C8E769
:1041CC00D7F80C2402F001023270002BE1D1E6E7A3
:1041DC008C090020054B1A792AB99A7101221860B2
:1041EC009A80034870470348704700BF8C09002031
:1041FC000000AD0B0C00AD0B08B5074B1B682BB1C9
:10420C000020FDF705FF08B9FDF7E0FE4FF08043F5
:10421C000022C3F8182508BD8C09002038B5B0B1B0
:10422C00012851D14FF080420023C2F80031D2F85E
:10423C0000212E4A03F18043012119602C4B1B688D
:10424C00002B4CD04FF08043C3F804033CE04FF0FC
:10425C008043D3F81814D3F81824CC0326D5900730
:10426C0002D00020FFF754FF4FF080430022C3F828
:10427C001825C3F804211F4AD3F80431D2F8FC00E6
:10428C0040F08073C2F8FC301B4B1C6844F00101F9
:10429C0019605D685968491BB1F50A5FFAD31C6057
:1042AC00C2F8FC000823154A0220C3E7D3F81424F3
:1042BC00D107D9D5D3F81C249207D2D10C4A126855
:1042CC001AB10222C3F8042338BDD3F80421002A02
:1042DC00FBD00022C3F80421D3F80431F4E71368AF
:1042EC00002BFCD0002313601368EDE700010040A5
:1042FC008C09002000ED00E0001000E004010040FB
:10430C004FF08043D3F80C14D3F80C24C80325D5F4
:10431C00D10723D5D3F81824D2031FD5114A91798C
:10432C0001F0FF00E1B9C3F80C01D3F80C11022025
:10433C0001219171C3F8340C1961126822B1082261
:10434C00C3F8042308487047D3F80C21002AFBD08B
:10435C000022C3F80C21D3F80C31F3E70348704763
:10436C00034870478C0900200000AD0B0500AD0B15
:10437C000B00AD0BF8B54FF08043184DD3F8044348
:10438C000127002604B9F8BDB4FA84F0C0F11F006F
:10439C00830003F580739BB203F1804307FA00F2AC
:1043AC001968D2B224EA02040029EBD01E601B6803
:1043BC004FF08043012AC3F8082305D0082A08D0FF
:1043CC002B68C0B29847DDE76B79002BDAD16A71A4
:1043DC00F6E7C3F8346CAE71F2E700BF8C0900202D
:1043EC0070B5C3B20C4C0833054634F81330DA05FB
:1043FC000E4607D5C3F3432304EBC30254F8333002
:10440C0052689847A3682BB1E26831462846BDE84C
:10441C007040184770BD00BF9409002010B4C0B2A2
:10442C00114A083032F81030D9051BD5C3F343219B
:10443C0023F4F85322F8103002F10E04002034F863
:10444C00023F13F4807F03D0C3F34323994209D076
:10445C0001302028F3D1002342F83130034810BC3E
:10446C00FFF736BE10BC704794090020EC09002001
:10447C0001F18051F0B501F5C2510446114A0020FA
:10448C008900012506468A420BD10F4BD3F87C21BB
:10449C0032B10022C3F87C21D3F87C3140F00040CB
:1044AC00F0BD02F14043A3F5C2439B0805FA03F3A8
:1044BC001C4204D0176817B11660176818430432F1
:1044CC00E1E700BF0061004000600040C0B2064B55
:1044DC00083033F81000830643BF400B800000F512
:1044EC0080704FF4BE70704794090020CBB2024626
:1044FC00083308460C4931F81330990611D5990741
:10450C000FD410685B0B01219940C0F80813126896
:10451C0002EB8303D3F8102522F00302C3F8102515
:10452C007047002103F07BBB94090020F7B5CDB296
:10453C00174E0835074636F81530DB070C4624D5E0
:10454C00FFF7D4FF36F815309A0606D55B0B3A68A0
:10455C0003F5A273002142F823102046FFF75EFFFB
:10456C00002301A826F81530019403F005FB019BEC
:10457C0000EB8300074BD0F80027134043F00203F5
:10458C00C0F80037044803B0F0BD0448FBE700BF97
:10459C0094090020F0F8FCFF0000AD0B0400AD0BFB
:1045AC002DE9FF41136807460C461646FBB1CDB208
:1045BC00DFF84481083538F8152002F02202222A4F
:1045CC0022D00022CDE900228DF80E208DF80F208C
:1045DC000DF10E010DF10F02204603F0D7FA38F859
:1045EC00153023F0020343F0010328F815307368EB
:1045FC004BB393F800C058683F4AE3B2083332F823
:10460C0013108D0702D5B0B13C481FE021F02001FA
:10461C00C904C90C22F8131068B1BCF1030FF3D80C
:10462C007068406805783868BCF1000F11D105F549
:10463C00A27540F825C032F8131021F01C0141EA94
:10464C008C0122F81310B36863BB2D4804B0BDE88D
:10465C00F08100EB850041EA4531D0F810E52EF0F1
:10466C00030EC0F810E53F6807EB850741F0200109
:10467C00D7F8100522F8131020F4473020F44070BE
:10468C00C7F810052002D7F810E500F4F85040EAFE
:10469C000C4040EA0E00C7F8100502EB4500A0F8EC
:1046AC005C40C8E7D3E900672046FFF7B7FE002E51
:1046BC00CBD0114DD5E90023964203D19F4201D1B5
:1046CC00002209E00F480DF10F01FFF7DDFC0C4B48
:1046DC009842BBD19DF80F2045F83260E4B205EB4F
:1046EC00C20308345F6035F8143043EA422343F4C4
:1046FC00807325F81430A8E7940900200400AD0B52
:10470C000000AD0BEC0900202DE9FF4107460C46DB
:10471C001E4612B3CDB2DFF8D080083538F815300C
:10472C00980701D4990621D413F01C0F02D05378AA
:10473C00012B1BD001238DF80F300023CDE9002372
:10474C000DF10F01931C2046013203F01FFA38F8CB
:10475C00153043F0030328F81530002E42D0E1B297
:10476C00214D083135F81120930703D41F4804B0AC
:10477C00BDE8F08196F800E0D7F800C022F02002E6
:10478C000EF5A270D2040023D20C4CF8203025F880
:10479C00112096F801C0BCF1000F23D03868B67810
:1047AC0000EB8E004FEA0C4CD0F8103523F4981324
:1047BC0023F4F853C0F81035230203F4F8530CF427
:1047CC00403C3605D0F8107543EA0C0306F480160D
:1047DC0042EA4E32334342F020023B4325F811208B
:1047EC00C0F810350248C2E7940900200400AD0B54
:1047FC000000AD0B014BC3E9021270479409002075
:10480C00C9B20831044B33F81130990643BF5B0B26
:10481C000248137002487047940900200000AD0B49
:10482C000400AD0B70B50E4C94F86C500646A5B94F
:10483C004022294604F1100003F070FC3068C0F8E7
:10484C007C51D0F87C3140F30730FDF7BFFB0123DE
:10485C00044884F86C30A36570BD0348FCE700BFC6
:10486C00940900200000AD0B0C00AD0B034B93F82A
:10487C006C00003818BF0120704700BF940900205D
:10488C000079024B03EB8000FFF722BCA400002050
:10489C000079024B03EB8000FFF7F6BBA40000206D
:1048AC0073B5CBB20C460833214931F8133001688B
:1048BC009D0619D513F0020616D15B0B9C0004F56E
:1048CC0080754E51495901682144D1F8104544F086
:1048DC000104C1F810452AB10168012202FA03F360
:1048EC00C1F8043302B070BDD1F80423002AA8BF6C
:1048FC004FF00042C3F38203A8BFC1F80423042B7A
:10490C0012D0052B12D001A8019403F035F9019AAD
:10491C00D0F81035D34003F00103991C204602B0A7
:10492C00BDE8704003F07BB90321F7E70221F5E7FE
:10493C00940900202DE9F347514BD3F80403C0B27E
:10494C00082140F00040FFF793FD051E16DA002306
:10495C0001216846009303F071F9DFF828810127E3
:10496C00009999B94FF00040FFF782FD012168468C
:10497C0003F064F90028F3D125F00045404E414F77
:10498C000124002D66D102B0BDE8F08791FAA1F4A4
:10499C00B4FA84F4E00804F1080304F0070238F8D0
:1049AC0013901DF80030019407FA02F223EA020377
:1049BC000DF8003001A803F0DFF8019B03F5E0735C
:1049CC004FEA990150F82360C9F3820A4B07D1468C
:1049DC00C6F3014623D520465146FFF701FD01A839
:1049EC00019403F0C9F8019B03F5E073F6B250F89B
:1049FC002330C3F301439E4207D10021204603F02C
:104A0C000EF93146204603F00AF901A8019403F08F
:104A1C00B3F8019B07FA03F3C0F82035A0E7022E88
:104A2C000CD10321204603F0FAF80AF00503012B00
:104A3C00EBD149462046FFF7D3FCE6E7022120469E
:104A4C0003F0EDF8BAF1030FF3D0032EDDD1BAF178
:104A5C00020FEDE795FAA5F3B3FA83F304FA03F228
:104A6C0025EA020503F5A27207EB430356F8221060
:104A7C00B3F85C00C1F30141FFF7B2FC81E700BF62
:104A8C00006000409409002001460148FFF7FCBA81
:104A9C00A800002070B54B7F04460D467BB1012366
:104AAC004361642600220221204603F0F1F820B96C
:104ABC00012003F05DF8013EF4D100236B774FF039
:104ACC008053D3F83021511C09BF4FF07043D3F8F9
:104ADC00343193F8E02FD3F8E83F08BFC3F3031346
:104AEC00062A1CD1033B042B02D80F4AD35CB3B16A
:104AFC004FF0FF320023D4F80805D4F80C15C4F895
:104B0C000035C4F80825C4F80C250922C4F8002582
:104B1C00C4F80035C4F80805C4F80C1570BD0023A2
:104B2C00C4F80035FAE700BF7F9000000C4B9842A8
:104B3C0013D00AD80B4B98420FD00B4B98420CD089
:104B4C000A4BC31A584258417047094B984204D03B
:104B5C00084B984201D0084BF3E70120704700BF87
:104B6C0040420F0090D0030020A1070048E801004C
:104B7C0000093D0000127A0080841E00431C15D0F1
:104B8C0000F01F0340090BD19B0003F1A043084A1E
:104B9C00D3F800170A4042F00202C3F8002770470E
:104BAC00002203F5E07352F82330FFDE704700BF9C
:104BBC00F0F8FCFF38B51446421C054616D0012906
:104BCC0002D1A3B103F0A2F805F01F036D0911D1B6
:104BDC009B0003F1A0430A4AD3F8000741EA84047E
:104BEC000240144344EA4101C3F8001738BD03F0F6
:104BFC009AF8E9E7002203F5E07352F82330FFDE60
:104C0C00F0F8FCFF2DE9F843504B4D6990F80490F7
:104C1C009D4206460C4600F0848077D84C4B9D4252
:104C2C0000F082804B4B9D4200F081804A4B9D42AC
:104C3C000CBF4FF000754FF08045DFF82081E07E0F
:104C4C00242202FB0983997F60F300019977337961
:104C5C00217C02FB03839A7F61F341029A77E77E02
:104C6C00EFB9237E2068012B94BF002301233A4621
:104C7C000121FFF79FFF60683B463A460121FFF791
:104C8C0099FFA27EA0683B463946FFF793FF237C31
:104C9C00E06883F001033A460121FFF78BFF2423E0
:104CAC0003FB0983E2681A62217C9A7F61F341025B
:104CBC009A77277FA07C217E637E326847B9D4E93E
:104CCC0000C7A468C2F808C5C2F80C75C2F8104534
:104CDC00003B18BF01230229C2F8C005C2F82455B5
:104CEC002BD003292CD0012901D143F00203C2F8A7
:104CFC00543533792422534358F803301BB33068AE
:104D0C00BDE8F84340F30730FDF760B9144B9D4202
:104D1C0010D0144B9D420CBF4FF000454FF0804516
:104D2C008BE74FF0805588E74FF0806585E74FF0B3
:104D3C00006582E74FF000557FE743F00403D6E7A8
:104D4C0043F00603D3E7BDE8F88300BF40420F00F1
:104D5C0090D0030020A1070048E80100040A0020BD
:104D6C0080841E0000127A002DE9F8430746144C8B
:104D7C0097F80480242505FB08F504EB05091E466D
:104D8C0099F81C30C3B999B14869FFF7CFFEA8B1A7
:104D9C0038466251C9F80460FFF734FF242303FB43
:104DAC00084400236377074801232377BDE8F88381
:104DBC006251C9F80460F1E70348F7E70348F5E7E7
:104DCC00040A00200000AD0B0C00AD0B0400AD0B71
:104DDC002DE9F041044606790068194D40F307307F
:104DEC00FDF702F924237343EB5853B12368154A9A
:104DFC00C3F8082306EBC601206805EB8101FFF719
:104E0C0049FE2368242404FB0654D3F80805D3F880
:104E1C000C75D3F81085A37FDB070AD4FFF7AEFE21
:104E2C004046FFF7ABFE3846FFF7A8FE206AFFF7B7
:104E3C00A5FE242303FB065500232B77BDE8F08148
:104E4C00040A0020520108002DE9F04390F8048078
:104E5C005D4D242303FB08F31746EA180E46517FD9
:104E6C0085B08146002940F0AD80EB5823B117F096
:104E7C00140F04BF0123537796E80F00242404FB7E
:104E8C00085404F10C0C8CE80F00206A421C04D06E
:104E9C00A37F9B071AD502F039FF3368D9F800407D
:104EAC0023B103F06043B3F1005F06D1B36883B163
:104EBC0003F06043B3F1005F0BD0242303FB0853D2
:104ECC00002242485A7705B0BDE8F08302F02BFF70
:104EDC00E3E717F0010318BF0123C4F8503517F0AE
:104EEC00020318BF0123C4F8403596E80F00EC46C6
:104EFC008CE80F0017F008020AD00023C4F84C31DC
:104F0C00019303934FF40023D4F84C11C4F80433E9
:104F1C00009BC4F84435019BC4F84835029BC4F887
:104F2C003435039BC4F838350023C4F81831D4F851
:104F3C0018310723C4F80035242303FB08F3FAB90E
:104F4C00E8580121EA18216160B9D4F81831002B16
:104F5C00FBD062464021204602F09AFE242303FB3C
:104F6C0008F3EA18EB581BBB106A461C14D108EB6B
:104F7C00C80805EB88012046FFF78CFD1448A2E712
:104F8C00EA18EB58A3B9106A411CF7D0937F9A0723
:104F9C000BD502F0C8FEF1E7937F9B0702D502F018
:104FAC00C2FEE4E702F0B2FEE1E702F0AFFEE5E795
:104FBC0017F0040F4FF0400314BFC4F80833C4F8C3
:104FCC000433DBE703487EE7040A00200A00AD0B3C
:104FDC000000AD0B0B00AD0B10B54FF04023D3F818
:104FEC00042311031FD5D3F84C21E2B10022C3F8DE
:104FFC004C21D3F84C11C3F81821D3F818214FF4D5
:10500C000022C3F80823194AD2E90301C3F8440566
:10501C00C3F84815D2E90521C3F834250122C3F899
:10502C0038151A6110BD124A40214FF0402002F091
:10503C002FFE0028F6D00D4C206A421C04D0A37F12
:10504C009B0710D502F06FFE637F23B107494FF029
:10505C004020FFF71FFD002323720648D4E90031DE
:10506C00BDE81040184702F051FEEDE7040A00209D
:10507C00100A00200C0A002010B50446FCF792F828
:10508C000348044A012102F0B6FA204602F068FEF9
:10509C00FC840000849000002DE9F843044600AF26
:1050AC000D46EFF31188202383F31288BFF36F8F23
:1050BC000428294A98BF294B9668117C94BF53F851
:1050CC002030274BE9468AB06A462648C2E90731A8
:1050DC0040F201339384244BC2E9050442F8103F9B
:1050EC00224800234FF43151FCF72CF9CD4645B141
:1050FC00EB69C3F3080323B11D4A1C48012102F0DC
:10510C007AFA2EB1304602F0B2FE08B1037803B938
:10511C001848E9468AB06A46174BD061C2E9053691
:10512C0040F201331384154B42F8103F00230F4813
:10513C004FF41151FCF706F92946CD462046FFF7EE
:10514C009BFF88F31188BFF36F8F3046FCF7ECFEA2
:10515C00BD46BDE8F88300BF280A0020D4860000B5
:10516C0093900000A990000005000001FC84000051
:10517C00D1900000A1900000F2900000040000010A
:10518C0038B50A4B53F82040013053F82050A54253
:10519C0000D838BD606830B1037FDB0701D402F062
:1051AC00E7FD0834F3E723689847FAE7E886000040
:1051BC0070B52A4B2A4C2B4D012286B003201A7055
:1051CC00FFF7DEFFFCF782FB0420FFF7D9FF264632
:1051DC00AE4204F1300410D300F0A2FD204C224E5C
:1051EC00AC4226D300F0B0FD01F083FC1F4A137BC8
:1051FC0023F00103137306B070BD54F80C3C0593F7
:10520C0054F8103C049354F8143C039354F8183C91
:10521C00029354F81C3C019354F8203C009354E93D
:10522C000A2354E90C0100F071FB54F8303C5E6524
:10523C00CDE7D4E90A23B3F1FF3F08BFB2F1FF3F3A
:10524C0005D052EA0301206803D100F057FE303438
:10525C00C6E73146183000F0F9FFF8E7740A002071
:10526C0054840000548400006D7F0000A8060020C8
:10527C0008B50348034A0021121A02F090FD08BD3C
:10528C0048010020780A002070B5002386B0012266
:10529C00CDE90423114E124D01930F22CDE90232B8
:1052AC001049142303FB005506EBC0164FF4A072F3
:1052BC00044602FB00110C4B0095304600F026FB17
:1052CC00737B2C7423F004037373084BEE6001346E
:1052DC0003EBC4236B6006B070BD00BF2806002032
:1052EC00280A002078150020B37D0000780D0020DE
:1052FC00BFB50020FFF744FF2A4B83F308882A4CE4
:10530C002A4F636943F4007363610025E02384F83A
:10531C002230E57725766576A57684F82050636A89
:10532C0043F4E023636284F82350FCF779FDFCF727
:10533C00EFFE4FF0FF33A362E362FCF797FFFCF73D
:10534C000BFFFBF78BFE1A481A4C00F049FB02F0DE
:10535C00FBFC0120FFF714FF0220FFF711FF00F008
:10536C0027FD154B15495C61154B05930123CDE9C0
:10537C0003534FF480623B46CDE90155009520461E
:10538C0000F0C4FA627B064622F0040220466273E7
:10539C0002F0A9FD2846FFF777FF3A463146204632
:1053AC00FCF79AFE7815002000ED00E0BD510000DE
:1053BC0028070020A8060020280A0020B816002084
:1053CC00549100002DE9F341044617461E46EFF3B5
:1053DC001188202383F31288BFF36F8FC368334A7D
:1053EC007BB180689168884219D057EA060318D1BE
:1053FC0088F31188BFF36F8F6FF00F0002B0BDE818
:10540C00F081916891F90E1021610133E36093688A
:10541C00A36088F31188BFF36F8F0020EEE721693A
:10542C00F2E791F90E1090F90E309942A8BF194687
:10543C006FF07E029142B8BF11468B422DDD02F017
:10544C00BDFC0546CDE9007619482246414600F0E0
:10545C00ADFB0028E1D0EFF31186202383F31288F3
:10546C00BFF36F8FA068D0B1236821699C420AD02A
:10547C004BB193F90E309942A8BF19466FF07E03D9
:10548C009942B8BF194602F099FC40B10848314620
:10549C0000F020FC6FF00A00B0E70025D2E7002DE9
:1054AC00F4D186F31188BFF36F8FF3E7280A00203D
:1054BC00750A0020F8B583680546002B3FD0234AB7
:1054CC00926893423ED1C368012B03D9013BC36060
:1054DC000020F8BDEFF31187202383F31288BFF36C
:1054EC006F8F0169806802F069FC2C68AC4207D1AF
:1054FC000023C5E9023387F31188BFF36F8FE7E709
:10550C00002CF5D0D4E9003213605A60637B00267E
:10551C0023F002036373C4E90066A66004F118006B
:10552C0002F098FDAC6094F90E302B612046A66712
:10553C0002F0D9FC0648394600F0CCFBC8E76FF006
:10554C001500C6E74FF0FF30C3E700BF280A002064
:10555C00750A002070B5EFF31186202383F31288AF
:10556C00BFF36F8F0468A0421AD0CCB1D4E90032DB
:10557C0013605A60637B002523F002036373C4E954
:10558C000055A56004F1180002F064FD2046A567E3
:10559C0002F0A9FC31460848BDE8704000F09ABB07
:1055AC00D0E902329A4218BF0133836086F3118826
:1055BC00BFF36F8F70BD00BF750A002013B5EFF3FA
:1055CC001181202484F31288BFF36F8F846844B157
:1055DC00013C846081F31188BFF36F8F002002B00F
:1055EC0010BD52EA030406D181F31188BFF36F8F0B
:1055FC006FF00F00F3E7CDE900230246014800F0FD
:10560C00D5FAECE7750A00202DE9F0410546EFF3D9
:10561C001187202383F31288BFF36F8F00231E465C
:10562C006FF00A082C68A54216D0ACB1D4E9003250
:10563C0013605A60637BA66023F002036373C4E9B2
:10564C00006604F1180002F005FDC4F878802046CD
:10565C0002F049FC0123E5E70022AA602BB1394690
:10566C000548BDE8F04100F035BB87F31188BFF366
:10567C006F8FBDE8F08100BF750A00202DE9FF4156
:10568C004F4E04462027EFF3118887F31288BFF39F
:10569C006F8FD4F88450F5B9022104F19C0002F00C
:1056AC00A8FB002868D004F19405002201212846AB
:1056BC0002F097FC0028F8D1002302934FF0FF3240
:1056CC004FF0FF33CDE90023414604F18C023D48F5
:1056DC0000F0DAFCD7E7D4F888202B68C4F88430C3
:1056EC00954208BFC4F88830D4F89C3043F00203CC
:1056FC00C4F89C30EB6823F0040343F00103EB6027
:10570C006B6888F31188BFF36F8F28469847EFF3C7
:10571C00118887F31288BFF36F8FEB68D80623F0DC
:10572C00010236D4EA60EB689A0716D5306823F08C
:10573C000203EB6088B10368002170B142689542A6
:10574C0035D1036869BB72683360824200D17360E3
:10575C00002340F8083BFFF7FDFED4F89C3023F003
:10576C000203C4F89C3088F31188BFF36F8FDB05FC
:10577C0089D400F025FB86E7D4F89C30D9069BD55C
:10578C00C4F89C0088F31188BFF36F8F04B0BDE898
:10579C00F08123F01103EB6005F11000FFF7DAFE46
:1057AC00C1E70B607368834208BF7160D0E723B117
:1057BC001A68014618461346BFE71A46F9E700BFB8
:1057CC00480A0020750A0020F8B5C3689A070446F9
:1057DC000F46C3F340062ED45B071CD40B680BB9E1
:1057EC0083680B60E368DD0744BFA3683B603D68DA
:1057FC004CBF02260126002D3CD0204B9A68D5F8D0
:10580C0080309A420AD0D5F89C30D807C3F3800276
:10581C0014D46FF0120600233B6025E002F01EFB4F
:10582C00D5F89C300028F0D1D907C3F3C002F0D5CD
:10583C0052B15B0708D46FF00F06ECE7002AFAD1DF
:10584C00C3F3C003002BF6D100232360D5F88830B6
:10585C0063B9C5E92144284602F0D6FAE36843F05F
:10586C000403E3603B68A3603046F8BD1C60C5F8D8
:10587C008840F0E76FF01506CDE700BF280A00203E
:10588C000146014802F0DABAC8070020F0B589B029
:10589C0004460020C4E921000E9D04F18C00C4E9EB
:1058AC00230004F19400C4E9250055B3287900289D
:1058BC0040F2011008BF0120C4F89C0000204FF0FA
:1058CC00FF364FF0FF37CDE90330CDE90100CDE9CC
:1058DC0006670D4B0094204600F056F855B1296828
:1058EC0011B1204602F0C0FA6B791BB1237B43F057
:1058FC0001032373204600F001FBC4F8804009B07B
:10590C00F0BD0120D8E700BF895600002DE9F04317
:10591C0085B0984600F158030732C0E91633109B46
:10592C00037322F0070504230026437301EB0509DA
:10593C000F9B83730F46C0E9066649468660C673A3
:10594C000446FCF731F807300E9B20F00700A066E8
:10595C00C4E9187502930D9B0193A9EB00090C9BEC
:10596C0000934A46434639462046FCF799FB054BC3
:10597C0066659B6803B1DB6EE366484605B0BDE81F
:10598C00F08300BF280A0020F0B587B000250595EC
:10599C00109D04950F9D03950E9D0295DDE91276E1
:1059AC000D9D01950C9D00950446FFF7AFFFB6F1D8
:1059BC00FF3F08BFB7F1FF3F05D056EA070305D1FB
:1059CC00204600F09BFA204607B0F0BD3A4633461D
:1059DC0004F11800014900F039FCF4E76D7F000078
:1059EC0040F2011383810023C0E91833C366014BD5
:1059FC0098607047280A0020094A93686FF00A01E2
:105A0C009967084958674B6843F080534B600023F3
:105A1C0083F31188BFF36F8F9368986F704700BF43
:105A2C00280A002000ED00E070B590F90D20437BB2
:105A3C00002A36DBD90634D11B4C63F07F03224697
:105A4C00437352F8183FE169934207D1C0E9002132
:105A5C000860E06111E09942F8D01B68002BF5D08A
:105A6C0090F90E5093F90E60B542F4D0AE42F2DDCF
:105A7C005968C0E9003108605860A569954200D0AA
:105A8C0005B9E568A3685A7BD20604D1DA897F2A66
:105A9C0001D9AA6932B1AB4202D0284600F034FBDE
:105AAC00656170BD6361FCE7280A002038B590F988
:105ABC000D20437B002A014604DA03F07F03437375
:105ACC0002F0D7F90D4D2A46AB6852F8184F9442A4
