:1000000018960020BD67000021110100A9670000BB
:10001000A9670000A9670000A967000000000000B0
:100020000000000000000000000000002169000046
:10003000A967000000000000D5680000A967000063
:10004000DD6A0000DD6A0000DD6A0000DD6A000094
:10005000DD6A0000DD6A0000DD6A0000DD6A000084
:10006000DD6A0000DD6A0000DD6A0000DD6A000074
:10007000DD6A0000DD6A0000DD6A0000DD6A000064
:10008000DD6A0000DD6A0000DD6A0000DD6A000054
:10009000DD6A0000DD6A0000DD6A0000DD6A000044
:1000A000DD6A0000DD6A0000DD6A0000DD6A000034
:1000B000DD6A0000DD6A0000DD6A0000DD6A000024
:1000C000DD6A0000DD6A0000DD6A0000DD6A000014
:0C00D000DD6A0000DD6A0000DD6A00004F
:1000E00001F0FF01102A2BDB10F0070F08D010F8E9
:1000F000013B013A8B422DD010F0070F42B3F6D1ED
:10010000F0B441EA012141EA014122F007047FF005
:1001100000070023F0E80256083C85EA010586EA5C
:10012000010685FA47F5A3FA87F586FA47F6A5FA98
:1001300087F68EB9EED1F0BC01F0FF0102F00702A4
:1001400032B110F8013B013A83EA010313B1F8D14F
:100150000020704701387047002D06BF3546033830
:10016000073815F0010F07D1013015F4807F02BF69
:10017000013015F4C03F0130F0BC0138704700BFBA
:1001800081F0004102E000BF83F0004330B54FEA48
:1001900041044FEA430594EA050F08BF90EA020FB5
:1001A0001FBF54EA000C55EA020C7FEA645C7FEA48
:1001B000655C00F0E2804FEA5454D4EB5555B8BF6B
:1001C0006D420CDD2C4480EA020281EA030382EADC
:1001D000000083EA010180EA020281EA0303362D6E
:1001E00088BF30BD11F0004F4FEA01314FF4801C41
:1001F0004CEA113102D0404261EB410113F0004F53
:100200004FEA03334CEA133302D0524263EB430309
:1002100094EA050F00F0A780A4F10104D5F1200EA7
:100220000DDB02FA0EFC22FA05F2801841F1000102
:1002300003FA0EF2801843FA05F359410EE0A5F1D6
:1002400020050EF1200E012A03FA0EFC28BF4CF007
:10025000020C43FA05F3C01851EBE37101F00045BD
:1002600007D54FF0000EDCF1000C7EEB00006EEBCA
:100270000101B1F5801F1BD3B1F5001F0CD3490854
:100280005FEA30004FEA3C0C04F101044FEA4452AB
:1002900012F5800F80F09A80BCF1004F08BF5FEA32
:1002A000500C50F1000041EB045141EA050130BD12
:1002B0005FEA4C0C404141EB0101013C28BFB1F524
:1002C000801FE9D291F0000F04BF01460020B1FA6F
:1002D00081F308BF2033A3F10B03B3F120020CDA42
:1002E0000C3208DD02F1140CC2F10C0201FA0CF020
:1002F00021FA02F10CE002F11402D8BFC2F1200C85
:1003000001FA02F120FA0CFCDCBF41EA0C0190403A
:10031000E41AA2BF01EB0451294330BD6FEA040483
:100320001F3C1CDA0C340EDC04F11404C4F120026E
:1003300020FA04F001FA02F340EA030021FA04F380
:1003400045EA030130BDC4F10C04C4F1200220FAD7
:1003500002F001FA04F340EA0300294630BD21FA15
:1003600004F0294630BD94F0000F83F4801306BFDB
:1003700081F480110134013D4EE77FEA645C18BFCF
:100380007FEA655C29D094EA050F08BF90EA020F66
:1003900005D054EA000C04BF1946104630BD91EA5E
:1003A000030F1EBF0021002030BD5FEA545C05D161
:1003B0004000494128BF41F0004130BD14F58004A0
:1003C0003CBF01F5801130BD01F0004545F0FE4114
:1003D00041F470014FF0000030BD7FEA645C1ABF49
:1003E000194610467FEA655C1CBF0B46024650EA80
:1003F000013406BF52EA033591EA030F41F40021AC
:1004000030BD00BF90F0000F04BF0021704730B531
:100410004FF4806404F132044FF000054FF0000106
:1004200050E700BF90F0000F04BF0021704730B5C7
:100430004FF4806404F1320410F0004548BF40429C
:100440004FF000013EE700BF42004FEAE2014FEAF1
:1004500031014FEA02701FBF12F07F4393F07F4FCC
:1004600081F06051704732F07F4208BF704793F0CF
:100470007F4F04BF41F40021704730B54FF46074E2
:1004800001F0004521F000411CE700BF50EA0102E5
:1004900008BF704730B54FF000050AE050EA01028E
:1004A00008BF704730B511F0004502D5404261EBFE
:1004B00041014FF4806404F132045FEA915C3FF43F
:1004C000D8AE4FF003025FEADC0C18BF03325FEADC
:1004D000DC0C18BF033202EBDC02C2F1200300FA8D
:1004E00003FC20FA02F001FA03FE40EA0E0021FAB2
:1004F00002F11444BDE600BF70B54FF0FF0C4CF4A0
:10050000E06C1CEA11541DBF1CEA135594EA0C0F51
:1005100095EA0C0F00F0DEF82C4481EA030621EA8C
:100520004C5123EA4C5350EA013518BF52EA0335C7
:1005300041F4801143F4801338D0A0FB02CE4FF079
:100540000005E1FB02E506F00042E0FB03E54FF0A9
:100550000006E1FB03569CF0000F18BF4EF0010EA1
:10056000A4F1FF04B6F5007F64F5407404D25FEA9D
:100570004E0E6D4146EB060642EAC62141EA555150
:100580004FEAC52040EA5E504FEACE2EB4F1FD0C92
:1005900088BFBCF5E06F1ED8BEF1004F08BF5FEA10
:1005A000500E50F1000041EB045170BD06F00046C2
:1005B00046EA010140EA020081EA0301B4EB5C046F
:1005C000C2BFD4EB0C0541EA045170BD41F4801167
:1005D0004FF0000E013C00F3AB8014F1360FDEBF8C
:1005E000002001F0004170BDC4F10004203C35DA68
:1005F0000C341BDC04F11404C4F1200500FA05F3EB
:1006000020FA04F001FA05F240EA020001F000428B
:1006100021F0004110EBD37021FA04F642EB060101
:100620005EEA430E08BF20EAD37070BDC4F10C042B
:10063000C4F1200500FA04F320FA05F001FA04F2EF
:1006400040EA020001F0004110EBD37041F10001DB
:100650005EEA430E08BF20EAD37070BDC4F12005E6
:1006600000FA05F24EEA020E20FA04F301FA05F24E
:1006700043EA020321FA04F001F0004121FA04F2F6
:1006800020EA020000EBD3705EEA430E08BF20EAC6
:10069000D37070BD94F0000F0FD101F00046400000
:1006A00041EB010111F4801F08BF013CF7D041EA82
:1006B000060195F0000F18BF704703F00046520086
:1006C00043EB030313F4801F08BF013DF7D043EA57
:1006D0000603704794EA0C0F0CEA135518BF95EA0D
:1006E0000C0F0CD050EA410618BF52EA4306D1D194
:1006F00081EA030101F000414FF0000070BD50EAB3
:10070000410606BF1046194652EA430619D094EA3C
:100710000C0F02D150EA013613D195EA0C0F05D126
:1007200052EA03361CBF104619460AD181EA03017A
:1007300001F0004141F0FE4141F470014FF0000032
:1007400070BD41F0FE4141F4780170BD70B54FF0CD
:10075000FF0C4CF4E06C1CEA11541DBF1CEA13554D
:1007600094EA0C0F95EA0C0F00F0A7F8A4EB05042F
:1007700081EA030E52EA03354FEA013100F0888026
:100780004FEA03334FF0805545EA131343EA1263EF
:100790004FEA022245EA111545EA10654FEA0026A4
:1007A0000EF000419D4208BF964244F1FD0404F55D
:1007B000407402D25B084FEA3202B61A65EB0305B9
:1007C0005B084FEA32024FF480104FF4002CB6EB76
:1007D000020E75EB030E22BFB61A754640EA0C00F6
:1007E0005B084FEA3202B6EB020E75EB030E22BF36
:1007F000B61A754640EA5C005B084FEA3202B6EB77
:10080000020E75EB030E22BFB61A754640EA9C0035
:100810005B084FEA3202B6EB020E75EB030E22BF05
:10082000B61A754640EADC0055EA060E18D04FEAC3
:10083000051545EA16754FEA06164FEAC30343EA63
:1008400052734FEAC2025FEA1C1CC0D111F4801F30
:100850000BD141EA00014FF000004FF0004CB6E729
:1008600011F4801F04BF01430020B4F1FD0C88BFC8
:10087000BCF5E06F3FF6AFAEB5EB030C04BFB6EBD3
:10088000020C5FEA500C50F1000041EB045170BDC6
:100890000EF0004E4EEA113114EB5C04C2BFD4EBF3
:1008A0000C0541EA045170BD41F480114FF0000E77
:1008B000013C90E645EA060E8DE60CEA135594EAF3
:1008C0000C0F08BF95EA0C0F3FF43BAF94EA0C0FF6
:1008D0000AD150EA01347FF434AF95EA0C0F7FF46B
:1008E00025AF104619462CE795EA0C0F06D152EABF
:1008F00003353FF4FDAE1046194622E750EA4106A3
:1009000018BF52EA43067FF4C5AE50EA41047FF4B3
:100910000DAF52EA43057FF4EBAE12E74FF0FF3C18
:1009200006E000BF4FF0010C02E000BF4FF0010CE9
:100930004DF804CD4FEA410C7FEA6C5C4FEA430C62
:1009400018BF7FEA6C5C1BD001B050EA410C0CBFB1
:1009500052EA430C91EA030F02BF90EA020F002013
:10096000704710F1000F91EA030F58BF994208BF7A
:1009700090422CBFD8176FEAE37040F00100704737
:100980004FEA410C7FEA6C5C02D150EA013C07D18E
:100990004FEA430C7FEA6C5CD6D152EA033CD3D0D9
:1009A0005DF8040B704700BF8446104662468C46D3
:1009B0001946634600E000BF01B5FFF7B7FF002806
:1009C00048BF10F1000F01BD4DF808EDFFF7F4FF2F
:1009D0000CBF012000205DF808FB00BF4DF808EDBA
:1009E000FFF7EAFF34BF012000205DF808FB00BFDD
:1009F0004DF808EDFFF7E0FF94BF012000205DF8FF
:100A000008FB00BF4DF808EDFFF7CEFF94BF0120B3
:100A100000205DF808FB00BF4DF808EDFFF7C4FFAC
:100A200034BF012000205DF808FB00BF4FEA410CF5
:100A30007FEA6C5C02D150EA013C0AD14FEA430CD8
:100A40007FEA6C5C02D152EA033C02D14FF0000015
:100A500070474FF0010070474FEA410212F5001253
:100A600015D211D56FF47873B3EB625212D94FEAF5
:100A7000C12343F0004343EA505311F0004F23FADF
:100A800002F018BF404270474FF00000704750EA34
:100A9000013005D111F0004008BF6FF000407047F1
:100AA0004FF00000704700BF7BB972B90029BEBF8C
:100AB00000204FF0004106E008BF00281CBF6FF087
:100AC00000414FF0FF3000F057B8ADF1080C6DE970
:100AD00004CE002909DB002B1ADB00F057F8DDF803
:100AE00004E0DDE9022304B07047404261EB4101BC
:100AF000002B1BDB00F04AF8DDF804E0DDE90223FF
:100B000004B0404261EB4101524263EB4303704742
:100B1000524263EB430300F039F8DDF804E0DDE90D
:100B2000022304B0404261EB41017047524263EB43
:100B3000430300F02BF8DDF804E0DDE9022304B004
:100B4000524263EB4303704753B94AB9002908BFC7
:100B500000281CBF4FF0FF314FF0FF3000F00CB801
:100B6000ADF1080C6DE904CE00F010F8DDF804E0FA
:100B7000DDE9022304B07047704700BF034613F855
:100B8000012B002AFBD1181A013870472DE9F047D4
:100B900086468C460846089E154674461946002B24
:100BA00040F0C2808542B2FA82F245D94AB1C2F120
:100BB000200300FA02FC2EFA03F3954043EA0C0CE2
:100BC00094404FEA154EA8B2BCFBFEF8230C0EFB76
:100BD00018CC08FB00F943EA0C43994528D9EB18D7
:100BE00008F1FF3704D2994502D9A8F102072B4436
:100BF000A3EB0903A4B2B3FBFEFC0EFB1C330CFBFE
:100C000000F044EA0344A04214D92C190CF1FF333C
:100C100004D2A04202D9ACF102032C44241A43EAC4
:100C200007401EB1D440002334607360BDE8F087F4
:100C30004746DDE76346F1E792BB431B01214FEADC
:100C4000154EAFB2B3FBFEFC200C0EFB1C330CFBAD
:100C500007F840EA0343984562D9EB180CF1FF30DE
:100C600004D2984502D9ACF102002B44A3EB08034F
:100C7000A4B2B3FBFEFC0EFB1C330CFB07F744EAEB
:100C80000344A7424ED92C190CF1FF3304D2A742DA
:100C900002D9ACF102032C44E41B43EA0040C0E754
:100CA000C2F1200320FA03F1954090402EFA03F39D
:100CB00003434FEA154EAFB2B1FBFEFC0EFB1C1016
:100CC000190C0CFB07F841EA0041884504FA02F4CC
:100CD00022D969180CF1FF3004D2884502D9ACF151
:100CE00002002944A1EB08019BB2B1FBFEFC0EFB04
:100CF0001C110CFB07F743EA01439F420ED9EB1886
:100D00000CF1FF3104D29F4202D9ACF102012B4415
:100D1000DB1B41EA004192E76046E3E76146F7E703
:100D20006046A3E76346B7E7834206D916B90021B8
:100D300008467BE7C6E900E0F9E7B3FA83F78FB925
:100D4000834201D3724508D8BEEB020460EB030373
:100D500001209C461EB9002168E73846FAE7C6E93B
:100D6000004CF8E7C7F1200CBB4022FA0CF41C43FE
:100D70002EFA0CF120FA0CF3B84001434FEA144963
:100D80000EFA07F5B3FBF9F81FFA84FE09FB1830D9
:100D90000B0C08FB0EFA43EA00439A4502FA07F2ED
:100DA00040D9E31808F1FF3004D29A4502D9A8F1DE
:100DB00002002344A3EB0A0389B2B3FBF9F809FB51
:100DC000183308FB0EFE41EA03418E452CD9611809
:100DD00008F1FF3304D28E4502D9A8F10203214461
:100DE00043EA0040A0FB0298A1EB0E014145CE462C
:100DF000434602D306D14D4504D2B9EB020E68EB4F
:100E000004030138002EA6D0B5EB0E0261EB0301FE
:100E100001FA0CFC22FA07F34CEA0303F940C6E995
:100E2000003198E74046C5E74346D9E70000000097
:100E3000D0B504464068FFF7F5FA09A3D3E90023CB
:100E4000FFF784FC064620680F46FFF7EBFA0246E0
:100E50000B4630463946FFF799F9D0BDAFF3008015
:100E60000000000080842E4138B50446154699BB29
:100E7000106840F23463A0F10C029A421BD804F5CA
:100E8000845104F1180504F580541831B4F89830F1
:100E900053B910F052FAC1B2284609F057FF28465C
:100EA0000AF08EF8002038BD10F047FAC1B228468B
:100EB00009F04CFFF6E748B904F1180004F5805436
:100EC0000AF062F92B68A4F89830EBE7364A374805
:100ED000012110F076F8E5E7072948D15368286822
:100EE0003349DA17C0FB0132B425A3FB0501012BFE
:100EF00005FB021172F1000211DB2E4BC01828A372
:100F0000D3E9002341F10001FFF7CEFD40F2D661A5
:100F1000A0F1FA028A42034609D9274AD7E7274BAC
:100F2000C01861F100011EA3D3E90023ECE7F92A00
:100F300004F1180014D9A3F5FA72B2F5FA7F12D3AE
:100F4000B3F5FA6F15BF4FF47A734FF4FA632021AB
:100F5000002104F58054A4F89A3009F031FFA1E78C
:100F6000FA236021F5E74FF4FA734021F1E7C9B2A3
:100F7000122912D11068B42807DD114A0B4801214B
:100F800010F01FF86FF015008DE710F028FAC1B2CD
:100F900004F1180009F0F8FE84E70A4AEEE700BF02
:100FA000D8EF2F0000000000AE480100C829010062
:100FB00040420F00ECF71700C74801001408E8FF93
:100FC000E14801003C4701002DE9F04F476A97B026
:100FD00014461D46CDE90445239E83467FB9102063
:100FE0000DF04AFE0246CBF8240020B9A24BEA21BC
:100FF000A2480FF079F9C0E901770760C760DBF814
:101000002430196859B15A684A60012393408B60B3
:1010100058460EF099FBDBF8243000221A602B1E94
:10102000B9BF23F00043059300233360059F944B21
:10103000BCBF01223260BB4319D1229A42F20F7326
:101040001360C7F31303234300F0E285249B53B9D5
:101050008C4B21E08C4B08930833249A136008983A
:1010600017B0BDE8F08F874B08930333F5E7DDE950
:101070000423CDE90C23DDE90C0100220023FFF756
:10108000A3FC804650B1229A01231360249B13B124
:10109000249A7E4B13607E4B0893E0E714AB0193D8
:1010A00015AB00935846DDE90C230EF0CDFDC7F3D8
:1010B0000A560390002E7AD00D9BCDF84C80C3F3D6
:1010C0001303DDE90C0143F07F5343F44013A6F210
:1010D000FF36194600226F4BFFF756F860A3D3E99D
:1010E0000023FFF709FA60A3D3E90023FFF74EF8C6
:1010F000044630460D46FFF795F95DA3D3E900237A
:10110000FFF7FAF902460B4620462946FFF73EF85C
:1011100004460D46FFF7A0FC0022074600232046A8
:101120002946FFF75BFC40B13846FFF77BF92246C2
:101130002B46FFF749FC00B9013F162F54D8564BF8
:1011400003EBC703D3E90023DDE90C01FFF746FCFD
:1011500000284BD0013F00231293149B9B1B5A1E67
:1011600045BFC3F101030693002300230A9254BF35
:1011700006930A93002F3BDB0A9B0F973B440A938D
:1011800000230B93209B092B00F28A80052BC4BF00
:10119000043B2093209BA3F10203CCBF0024012435
:1011A000032B00F28880DFE803F02B383657DDE9A7
:1011B00014631E4406F23243202BC1BFC3F1400327
:1011C0009F4006F2124324FA03F3D6BFC3F1200373
:1011D00047EA030004FA03F0FFF714F90122A1F132
:1011E000F873013E139274E70123B5E71290B4E758
:1011F000069BDB1B06937B420B9300230F93C1E7F7
:1012000000230E93219B002B58DC01230993994660
:101210001A4621920CE00123F3E700230E93219B51
:10122000FB1803F1010909934B46012BB8BF0123B9
:10123000DBF824000021042202F114059D4241D96B
:10124000416058460EF040FA089000283DD1134BFB
:1012500002464FF4D571CBE60123DFE7AFF3008000
:1012600061436F63A787D23FB3C8608B288AC63FAC
:10127000FB799F501344D33FC25B0100D95B01004F
:101280000000F07FBE5B0100B55B01003E31010054
:101290003D3101000000F83FC02A0100355C01002B
:1012A0000124002320930E944FF0FF3309939946B5
:1012B00000221223ADE701230E93F5E7219B09934A
:1012C0009946B5E701315200B6E7DBF82430089AB9
:1012D0001A60B9F10E0F6FD8002C6DD0002F36DDDB
:1012E000A14B07F00F0203EBC203D3E90034F8056A
:1012F000CDE910344FEA271417D59C4BDDE90C01DA
:10130000D3E90823FFF722FACDE9040104F00F0422
:101310004FF00308954D5CB9DDE91023DDE90401C8
:10132000FFF714FACDE904012BE04FF00208F1E7D2
:10133000E10709D5DDE91001D5E90023FFF7DCF865
:10134000CDE9100108F1010864100835E3E700F069
:1013500007817C42844B854D04F00F0203EBC203EE
:10136000D3E90023DDE90C01FFF7C6F8CDE904015C
:10137000241100234FF00208002C40F0E580002BE0
:10138000D0D1129BDDE90445002B00F04C81784B55
:10139000002220462946FFF721FB002800F0438168
:1013A000B9F1000F00F03F81099B002B00F3E480AE
:1013B000DDE90C34CDE90434159B002B02DB0E2F44
:1013C00040F342820E9A002A40F067820B9CDDF8BF
:1013D00018800025B8F1000F0DD00A9B002B0ADD04
:1013E0004345069AA8BF4346D21A06920A9AA8EB2A
:1013F0000308D31A0A930B9B0BB30E9B002B00F030
:10140000A682002C00F0A1822946224658460EF002
:10141000C3FA039A0146054658460EF013FA03999B
:10142000064658460EF090F90B9B1B1B0B9300F0E1
:1014300091820B9A314658460EF0AEFA0390012184
:1014400058460EF0E9F90F9B0446002B00F0848209
:101450001A46014658460EF09FFA209B012B04467F
:1014600003DC049B002B00F07C820026236904EB44
:101470008303186910F0CBFE0F96C0F120000A9B81
:10148000184410F01F0000F09182C0F12003042BDB
:1014900040F38182069BC0F11C00034406930A9B23
:1014A000034480440A93069B002B05DD03991A46EA
:1014B00058460EF0CBFA03900A9B002B05DD21461F
:1014C0001A4658460EF0C2FA0446129B002B00F052
:1014D00076820398214610F0E9FE002880F26F82A0
:1014E000002303990A2258460EF050F90E9B0390F0
:1014F0007E1E002B00F05C82002329460A225846FB
:101500000EF044F9099B002B054603DC209B022BBF
:1015100000F35E82B8F1000F05DD294642465846C9
:101520000EF094FA05460F9B002B00F0D0826968FC
:1015300058460EF0C9F80746002840F07F820D4B50
:10154000024640F2EA2153E5E20706D5D5E9002339
:10155000FEF7D2FF08F101080123641008350BE7FC
:101560004FF002080DE700BFC02A0100982A0100D1
:101570000000F03F355C01002046AD4B00222946BB
:10158000FEF7BAFFCDE90401099C7E1E08F10108AF
:101590004046FEF747FFDDE90423FEF7ADFFA54B0C
:1015A0000022FEF7F3FDA1F15073CDE91001119374
:1015B000002C3BD1DDE904019F4B0022FEF7E4FD46
:1015C00002460B46CDE90423DDE91023FFF724FA98
:1015D000002840F05781DDE9102101F10043DDE9E9
:1015E0000401FFF7FBF900283FF4E2AE0024254692
:1015F000219BDDF820A0DE434FF00008214658462D
:101600000EF0A2F8002D00F0A980B8F1000F05D06F
:10161000A84503D0414658460EF096F8294658464C
:101620000EF092F89AE03E464C46B1E7834B03EB4E
:10163000C40353E90201089B1C440E9B002B4AD0B3
:1016400002460B4600207E49FFF780F8DDE91023B3
:10165000FEF79AFDCDE91001DDF820A0DDE90401D7
:10166000FFF7FAF90546FEF7DDFE02460B46DDE917
:101670000401FEF789FD3035CDE9040102460B4631
:101680000AF8015BDDE91001FFF7C6F9002865D112
:10169000DDE904236B490020FEF776FD02460B4688
:1016A000DDE91001FFF7B8F9002840F00D81A245EF
:1016B00000F0EA80DDE910015D4B0022FEF71CFF1F
:1016C0005B4BCDE910010022DDE90401FEF714FFB8
:1016D000CDE90401C2E7DDE91023FEF70DFFCDE9F6
:1016E0001001DDF820A0A046DDE90401FFF7B4F900
:1016F0000546FEF797FE02460B46DDE90401FEF7BC
:1017000043FD30350AF8015B02460B46A245CDE9A0
:1017100004234FF0000223D1494BDDE91001FEF70D
:1017200035FD02460B46DDE90401FFF775F9002897
:1017300040F0CA80DDE9102341490020FEF724FD76
:1017400002460B46DDE90401FFF748F970B1C246D5
:1017500008F1FF381AF8013C302BF8D0374655E035
:10176000334BFEF7C9FECDE90401BDE7DDE90C34DA
:10177000CDE90434159B002BFFF628AE0E2F3FF762
:1017800025AE2E4B03EBC703D3E90034CDE9063475
:10179000219B002B02DAB9F1000F64D0DDE904458A
:1017A000DDF820A0DDE9062320462946FEF7CEFF1E
:1017B000FFF752F90646FEF735FEDDE90623FEF790
:1017C0009BFE02460B462046294606F13004FEF7F2
:1017D000DBFC0AF8014B089CAAEB0404A145024675
:1017E0000B4640F08280FEF7D1FCDDE9062304467B
:1017F0000D46FFF711F9002865D1DDE906232046E3
:101800002946FFF7E1F808B1F3075CD4039958467D
:101810000DF09AFF00238AF80030229B01371F60E9
:10182000249B002B3FF41BACC3F800A017E400BFBF
:101830000000244000001C4000001440C02A0100A9
:101840000000E03F0000F03FA24B03EBC703D3E9E9
:101850000034CDE90634219B002B9FDAB9F1000F4B
:101860009CDC7FF4C3AE9C4B0022DDE90601FEF751
:1018700043FEDDE90423FFF7C5F8044600287FF4A2
:10188000B5AE3E462546B4E0DDE90C34CDE904347E
:10189000159B002B01DB0E2FD6DD209A012A36DCAA
:1018A000139A82B303F233430B9CDDF81880069A37
:1018B0001A4406920A9A01211A4458460A920DF0D7
:1018C000ABFF054686E53E4653469A4613F8012D82
:1018D000392A06D1089A9A42F7D10899302201365E
:1018E0000A701A7801321A7038E77C4B0022FEF732
:1018F00003FE0022002304460D46FFF765F800288A
:101900003FF450AF82E7149BC3F13603CCE70B9B47
:1019100009F1FF34A34208DBB9F1000FA3EB040483
:101920000EDBDDF818804B46C1E70B9B0F9A0B943A
:10193000E31A1A44DDF818800F924B460024B6E7EC
:10194000069BA3EB09080023B1E7039E71E50B9A00
:10195000039970E5039672E5209B012B17DC049B2D
:10196000ABB9059BC3F313039BB9059B23F000465A
:10197000360D360536B1069B013306930A9B0133BB
:101980000A9301260F9B002B7FF470AD0F96012068
:1019900075E50026F6E73FF486AD069A1C331A4437
:1019A00006920A9A1A4498440A927CE50346F4E7A0
:1019B000099B002B2BDC209B022B09DC27E0B9F1D3
:1019C000000F1DDC209B022B1ADDCDF824903E4633
:1019D000099B002B7FF40CAE2146052258460DF0E2
:1019E000D5FE01460446039810F060FC00287FF7FE
:1019F000FFADDDF820A031230AF8013B0136FBE5FD
:101A00000E9BCDF824903E46002B7FF483AD089FBB
:101A10000398214610F03EFB00F1300907F8019BC6
:101A2000089B099AFB1A9A4240F3CB800399002342
:101A30000A2258460DF0AAFE0390E9E72A6902320D
:101A4000920005F10C010C3010F0F4F90122394636
:101A500058460DF0FBFF089B03F1010ADDE908235E
:101A600013440A93049B03F00103A8460B93054615
:101A70000AF1FF3321460398069310F00BFB414611
:101A8000099000F13009039810F010FC2A46214615
:101A9000074658460EF046F8C268014602B358465B
:101AA0000DF052FE002F3ADA0399012258460DF04C
:101AB000CDFF2146039010F0F9FB002803DC29D16B
:101AC00019F0010F26D0B9F1390F1DD132E02846A7
:101AD000C1E700BFC02A01000000144000002440FC
:101AE0000E90039810F0E2FB0E990C9058460DF002
:101AF0002BFE0C9A5ABB209B53B90B9B43B9B9F1EF
:101B0000390F17D0002F05DD099B03F1310901E0E2
:101B1000002F2ADADDF818A00AF8019B6EE5209B59
:101B20003B4304D1049B03F00103002BBCD0B9F16B
:101B3000390F36D1069F392307F8013BBA46013FDA
:101B40001AF8013C392B5BD001333B7056E5002F6E
:101B500006DB209B3B4306D1049B03F0010313B932
:101B6000002AA1DCD6E7002AE1DC0A9B0AF8019CE6
:101B7000534557462FD0039900230A2258460DF0AB
:101B800005FEA84503904FF000034FF00A024146BE
:101B900058460BD10DF0FAFD804605460AF1010AC0
:101BA00066E7DDF818A009F10109B5E70DF0EEFDD3
:101BB0002946804600230A2258460DF0E7FD0546D7
:101BC000ECE7099B002BC8BF1F46089BD8BF012725
:101BD0001F444FF000080399012258460DF036FFCC
:101BE0002146039010F062FB0028A7DC02D119F017
:101BF000010FA3D1BA4617F8013D302BFAD0FDE40E
:101C0000089BBB429AD1089A312301361370F5E440
:101C1000249B002B7FF41EAA014BFFF73DBA00BFA7
:101C2000B55B0100F0B52B4D2B4E2C4F95B04C22DF
:101C30000021684610F00CF90224294B8DF80D4064
:101C400004958DF8214009968DF835400E978DF852
:101C5000494013934FF0FF334FF0FF3204216846A1
:101C60000CF060FE039B03F4FE13B3F5004F09D1A3
:101C70000022002328460EF03AFC204601F09EF890
:101C800001F080F8089B03F4FE13B3F5004F06D172
:101C90000022002330460EF02AFC01F073F80D9B61
:101CA00003F4FE13B3F5004F06D10022002338469B
:101CB0000EF01DFC01F066F8129B03F4FE13B3F561
:101CC000004FB4D10648002200230EF010FC01F0B2
:101CD00059F8ACE7D4630020EC63002004640020D2
:101CE0001C64002038B5074D074C4FF0FF334FF010
:101CF000FF3228460EF0FBFB2368012BF5D100F0E4
:101D0000EFFFF2E7646400202C6E0020D0B588B0AD
:101D100000F0E2FA0A2101200EF029FC00F0C6FBD7
:101D2000274B1B68012B01D100F0C6FF00F04CF9D6
:101D3000244A254803210FF044F901F0FBF8234B16
:101D4000B0FA80F040091870214A1F4803210FF0B3
:101D500038F90026002700240723CDE90334CDE914
:101D60000667CDE901441B4B1B4900944FF4816287
:101D70001A480AF089FD1A4918480FF04EFF05234A
:101D8000CDE90243CDE90667CDE90044154B16497C
:101D900004944FF4806215480AF076FD1449134804
:101DA0000FF03BFF134A084803210FF00AF90EF029
:101DB000CCFB4FF0FF314FF0FF300BF047FCF8E762
:101DC0002C6E0020E62E0100182A0100B2700020BF
:101DD000FC2E0100E51C0000D074002030650020BE
:101DE0001C2F0100251C0000D070002098640020EA
:101DF000272F0100362F010013B50FF071FF4FF4AC
:101E00007A74A0FB040304FB01310E4AC30B43EABE
:101E100041434EF66020B3FBF2F102FB1133C9B22D
:101E2000B3FBF0F200FB1233002061F30700D2B2E3
:101E300062F30F20B3FBF4F3DBB263F3174002B09D
:101E400010BD00BF80EE360001480AF07DB800BF2B
:101E50001C64002070B503460068197983684568E2
:101E60009C6902690CB32D6801238B402B420ED173
:101E70000E490F4A0F4840F293330EF0E9FD0E4829
:101E80000EF0E6FD0A4840F293310EF0D8FD1268DC
:101E90001342A44618BF4FF00073BDE8704008BF5E
:101EA0004FF080634FF0A072604770BD932F010028
:101EB000622F0100D12F0100EE2F010001460348DF
:101EC0008368DB690BB1012218477047482701007E
:101ED0002DE9F04103460068DD88197945F4803228
:101EE00005F03004302CD0E9013706690ED12449C1
:101EF000244A254840F2E2330EF0AAFD23480EF0B2
:101F0000A7FD40F2E2311F480EF099FD05F00204F2
:101F100064B11F491B4A1C4840F2E6330EF098FD9D
:101F20001C480EF095FD40F2E631ECE705F00604A2
:101F3000042C09D11849134A134840F2E9330EF032
:101F400087FD40F2E931DEE71B6801248C401C422A
:101F50000CD112490B4A0C484FF47F730EF078FDF8
:101F60000F480EF075FD4FF47F71CCE73368ED0735
:101F70004CBF2343A34333603B68BDE8F04118479F
:101F800000300100622F0100D12F01003930010023
:101F900076300100BD3001000C310100932F0100AB
:101FA000EE2F0100014809F0CFBF00BFD46300202D
:101FB000014809F0C9BF00BFEC630020014809F0E7
:101FC000C3BF00BF0464002010B51F4C2046FFF7BC
:101FD0007FFF2046FFF73EFF1C481D4C1D4B436012
:101FE0004FF400638360FFF769FF2046FFF770FF3F
:101FF0002046FFF72FFF1848184C194B43604FF449
:1020000080538360FFF75AFF2046FFF761FF2046A9
:10201000FFF720FF1348144C144B43604FF4005358
:102020008360FFF74BFF2046FFF752FF2046FFF784
:1020300011FF0F480F4B43604FF480438360BDE8AE
:102040001040FFF73BBF00BFA02B01001C6E00201B
:10205000982B0100A51F0000106E0020902B01009E
:10206000B11F0000046E0020882B0100BD1F00007E
:10207000F86D0020491E0000014809F065BF00BF4F
:102080004C640020014809F05FBF00BF7C64002061
:10209000014809F059BF00BF6464002013B5114C1A
:1020A000012021680EF05CFA0F4823680268B3FA39
:1020B00083F301325B09072A026023600EDD0021F1
:1020C000016001200EF04CFA4FF4802200230748F3
:1020D000CDE900230CF0A2F902B010BD40F2676216
:1020E000F4E700BFA0100020286E002098620020B6
:1020F00007B5032826D8DFE800F0020E151C4FF4C0
:1021000080220023CDE900230F480CF087F901203D
:1021100003B05DF804FB4FF4902200230B48CDE997
:102120000023F2E74FF4C04200230948CDE9002321
:10213000EBE700220023CDE9002306484FF490226C
:102140000023E2E70020E3E798620020D06200204D
:1021500008630020406300202DE9F0410346006839
:102160001979DB8803F03002302AD0E9014706698B
:102170000ED12149214A224840F2E2330EF068FC98
:1021800020480EF065FC40F2E2311C480EF057FC8E
:1021900003F00602042A09D11B49184A184840F2E4
:1021A000E9330EF055FC40F2E931EEE724680125F1
:1021B000DA0705FA01F554BF43F4B01383F4D013E2
:1021C000254223F480120CD110490C4A0C484FF4DC
:1021D0007F730EF03DFC0E480EF03AFC4FF47F7119
:1021E000D3E73468DB074CBF2C43AC4334603B6817
:1021F000BDE8F041184700BF00300100622F010028
:10220000D12F0100393001000C310100932F010062
:10221000EE2F010010B5034600681B79012199409B
:1022200043681B6819420ED109490A4A0A4840F21C
:10223000B6630EF00DFC09480EF00AFC054840F2AA
:10224000B6610EF0FCFB8368BDE810405B6918477F
:10225000932F0100622F0100D12F0100EE2F01000A
:1022600010B503460A46006819790469012303FA88
:1022700001F143681B6819420ED10E490E4A0F48FE
:1022800040F28D630EF0E4FB0D480EF0E1FB0A48CE
:1022900040F28D610EF0D3FB2368194203D022B1C6
:1022A00083681B6903E0002AFAD08368DB68BDE815
:1022B00010401847932F0100622F0100D12F010019
:1022C000EE2F0100013802289ABF024B53F820007C
:1022D00000207047A82B010010B50F480FF00EFC2E
:1022E00008B9002010BD0C480FF008FC0028F8D0F9
:1022F00009480FF003FC0028F3D00848FFF72CFF33
:1023000004460748FFF728FF04430648FFF724FF69
:102310002043C043C00FE5E748270100C42B01005C
:10232000BC2B0100B42B010037B5034600681B79B4
:1023300001249C4043681B681C420ED10E490F4A81
:102340000F4840F234630EF083FB0E480EF080FB22
:102350000A4840F234610EF072FB0569836801A9F6
:102360005B68984730B92A68019B5340234214BFE9
:102370000120002003B030BD932F0100622F010027
:10238000D12F0100EE2F01002DE9F0410346006836
:10239000DD88197945F4803205F03004302CD0E91D
:1023A000013706690ED12449244A254840F2E23318
:1023B0000EF04EFB23480EF04BFB40F2E2311F487B
:1023C0000EF03DFB05F0020464B11F491B4A1C4896
:1023D00040F2E6330EF03CFB1C480EF039FB40F2B5
:1023E000E631ECE705F00604042C09D11849134A3C
:1023F000134840F2E9330EF02BFB40F2E931DEE7FF
:102400001B6801248C401C420CD112490B4A0C4819
:102410004FF47F730EF01CFB0F480EF019FB4FF4C6
:102420007F71CCE73368ED074CBF2343A343336090
:102430003B68BDE8F041184700300100622F010001
:10244000D12F01003930010076300100BD3001008C
:102450000C310100932F0100EE2F010070B50F48E1
:10246000FFF762FF06460E48FFF75EFF04460D4881
:10247000FFF75AFF05460C48FFF756FF6400AD0012
:1024800005F0040504F002042C4306F00106C00028
:10249000344300F00800204370BD00BFE42B01006E
:1024A000DC2B0100D42B0100CC2B010010B515480A
:1024B0000FF024FB18B96FF01204204610BD11482C
:1024C0000FF01CFB0028F6D00E480FF017FB002879
:1024D000F1D00C480FF012FB0028ECD00A48FFF7AF
:1024E00053FF04460948FFF74FFF04430848FFF72E
:1024F0004BFF04430748FFF747FF0443DDD1FFF7D5
:10250000ADFFDAE748270100E42B0100DC2B0100D6
:10251000D42B0100CC2B010070B50E4615460446A5
:1025200080B10C3BDBB2142B96BF074A074852F828
:10253000230000F057F92246B1B2A8B2BDE87040BE
:1025400000F0DEB970BD00BFEC2B0100EC3A0020BA
:10255000074B084A1B880849013B1380074B0022A0
:102560001A80074B1B88013B0B80064B1A80704773
:1025700066130020AA700020A6700020A87000201A
:1025800064130020A47000200E4B1B88834217D9CF
:102590000D4B1B888B4213D90C4B1A88824288BF83
:1025A00018800B4B1A88824238BF1880094B1A8852
:1025B0008A4288BF1980084B1A888A4238BF19801E
:1025C000704700BF6613002064130020AA7000202B
:1025D000A8700020A6700020A470002010B5234B26
:1025E000234C1A88234B248818882349234B0988B5
:1025F0001B8810442244224C248886B0194423446A
:102600002A248DF808408DF80A00C0F307248DF8BD
:102610000C20C2F307202B228DF81020C1F30722D3
:102620008DF80B008DF811208DF81210C3F30722DE
:102630008DF8143002A92C2305208DF813208DF875
:1026400004308DF809400EF031F804A905200EF091
:102650002DF801A901200EF013F80A4902200EF00E
:102660001AF8FFF775FF06B010BD00BFAE7000206E
:10267000A8700020AA700020A6700020AC70002076
:10268000A4700020B770002008B5094A1288824261
:102690000DD9084A12888A4209D9074B1A88074B74
:1026A0001A80FFF771FFBDE80840FFF797BF08BD2C
:1026B0006613002064130020B5700020B77000205E
:1026C00008B5094A128882420DD9084A12888A42FE
:1026D00009D9074B1A88074B1A80FFF755FFBDE849
:1026E0000840FFF77BBF08BD66130020641300207D
:1026F000B3700020B770002010B503460A4600688A
:1027000019790469012303FA01F143681B6819422E
:102710000ED10E490E4A0F4840F28D630EF098F923
:102720000D480EF095F90A4840F28D610EF087F9D8
:102730002368194218BF82F0010222B18368DB6866
:10274000BDE81040184783681B69F9E7932F010023
:10275000622F0100D12F0100EE2F010008B50448BF
:102760000121FFF7C9FF0A20BDE808400FF0C2B9F8
:10277000402C010008B504480021FFF7BDFF0A20E6
:10278000BDE808400FF0B6B9402C01001FB5CDE9F7
:1027900000100749CDF808D0012351F8040B03932A
:1027A000836802AA1C680023A04704B010BD00BFC4
:1027B000A4100020014B1870704700BFC1700020AA
:1027C00008B5064A064B12881B88002108460EF001
:1027D00018F8BDE80840FFF701BF00BF66130020EE
:1027E0006413002030B5094D00212860CAB200EB07
:1027F00082049300B4F80540E4B224B91AB1063358
:102800001844686030BD0131F0E700BFB9700020A6
:10281000F0B5DFF85CC0DCF8006073780022DF08F8
:102820005B07044618BF0137134695B206EB8505D2
:10283000B5F8051011F0FF0004D11FFA82FEBEF1B9
:10284000000F0ED1A142B5F807000BD8A04209D362
:1028500023445B1ADCF8040032789BB27B4302FB12
:102860000300F0BD013003445B1A9BB20132DCE788
:10287000B97000202DE9F84F064610460F46FFF7C5
:10288000C7FF044650B1DFF870804FF0000AD8F857
:1028900000301B785FFA8AF5AB4227D8BDE8F88F85
:1028A000590708BF14F8019BD94301F0070149FA01
:1028B00001F1CA0710D53344294698B2FFF7E4FE68
:1028C0000BF1010BD8F8001049785FFA8BF39942AD
:1028D000E6D80AF1010ADAE7084A11780029EFD1AF
:1028E0003344294698B2FFF7EBFEE9E74FF0000BBF
:1028F0003D44D946ADB2E5E7B9700020C170002073
:10290000F8B5084F04460E46551E15F8012F02B9BA
:10291000F8BD20463146FFF7ADFF3B685B781C44AD
:10292000A4B2F2E7B970002001F03F0100F01F00EF
:1029300040EA4110044B40EAC22282B0C2F30722AF
:102940001A70587002B07047B570002001F03F0156
:1029500000F01F0040EA4110044B40EAC22282B05E
:10296000C2F307221A70587002B07047B37000208B
:1029700000B589B0C0F307420092C0F30723C2B28A
:10298000064904A80CF0B0FD0C231422022104A86F
:102990000DF010FE09B05DF804FB00BF56310100D8
:1029A00030B5154DB0F900208BB00446294601A87A
:1029B0000CF09AFDB4F90420294604A80CF094FD0B
:1029C000B4F90620294607A80CF08EFD0DF0E6FDAF
:1029D00001A81423082200210DF0ECFD04A8142303
:1029E000082201210DF0E6FD14230822022107A888
:1029F0000DF0E0FD0BB030BD9747010013B50A465E
:102A000004460A4968460CF06FFD0DF0C7FD14231B
:102A10000C2202212046FFF77FFD14230C22032104
:102A20006846FFF779FD02B010BD00BF974701006F
:102A3000024A00231360024A13607047386E002078
:102A4000346E0020434203F0030310B50C4600F03F
:102A5000030158BF59420A481023002201310DF0EA
:102A6000A9FD634203F0030304F0030158BF594278
:102A7000BDE8104003481023002201310DF0DEBDF7
:102A8000AD390100573E0100F8B5134F3A680028F0
:102A90000346B8BFC31C002A4FEAA303B8BF0332E2
:102AA000B3EBA20F044600D169B10C4E002506EB32
:102AB0000316013556F8040B10230C2229460DF09D
:102AC0008DFD042DF5D1064B386800221A70214681
:102AD000BDE8F840FFF7B6BF306E0020CC100020F4
:102AE000C370002008B5054B01211868FFF7CCFF23
:102AF000034A00231360034A137008BD386E002098
:102B0000346E0020C370002010B5084B03EB800327
:102B10005C5C022C03D1BDE81040FFF7E3BF00F07E
:102B20006DF92046BDE8104000F048B9446100202E
:102B3000074A084913680B60411C03D10BB1013BE4
:102B4000136070470128FCD1032BFAD00133F7E75B
:102B5000386E0020306E0020014B1878704700BF9F
:102B6000C27000202DE9F04700290C468046B8BF0E
:102B7000CC1C0DF09EFEDFF86C90A410D9F800304C
:102B8000A0EB8406042EA8BF0426002BB8BF033395
:102B9000B4EBA30F0D4600D132B15823DFF848A0A3
:102BA0005C430027BE420CDC6A4202F0030205F0DF
:102BB000030358BF53429E42D9F800000CDC711E3B
:102BC0000BE05AF828000137204410230C22394624
:102BD0000DF004FD1634E5E72946BDE8F047FFF7A0
:102BE00031BF00BF306E0020BC10002008B50A4A7B
:102BF0000A4913680B60411C03D10BB1013B136000
:102C000008BD0128FCD1064908680DF052FE0138C4
:102C10008342F5D00133F2E7346E0020306E00209D
:102C2000386E002070B51F4B1D7804463DB31E4B17
:102C30001E7866B1022833D100221A7000F0DEF847
:102C4000FFF750FF2046BDE8704000F0B7B80228FB
:102C5000164D174C0AD101221A7016480AF03AFD97
:102C600029682068BDE87040FFF74EBFFFF7BEFF40
:102C7000296832462068BDE87040FFF773BF02281C
:102C80000B4C05D101221A70084B29461D60F1E753
:102C9000FFF74EFF20682946BDE87040FFF7F4BEFD
:102CA00070BD00BFC3700020C2700020346E0020D1
:102CB000386E0020400D030008B5064A064803217F
:102CC0000EF07FF9054B01221A70BDE80840FFF7AE
:102CD000AFBE00BF8C310100702A010005620020E8
:102CE00013B5244C23785A1E062A3AD8DFE802F09E
:102CF000041A20252A2F34000DF023FCC0F30723EB
:102D00008DF80400C0F307408DF805308DF80600FB
:102D10000198FFF72DFE184B1A780AB100221A709D
:102D200002B010BD002002B0BDE81040FFF77ABF2E
:102D300002B0BDE8104000F067B802B0BDE8104036
:102D400000F0C4B802B0BDE810400DF0B8BD02B04C
:102D5000BDE810400DF0B4BD02B0BDE8104000F079
:102D6000DDB8064A064801210EF034F9012323702C
:102D7000D6E700BF0562002004620020A0310100F8
:102D8000702A010008B50C4B1B78022B13D1FFF7FA
:102D900065FB012805D14FF0FF30BDE80840FFF783
:102DA00041BF022801D10120F7E7042801D1022008
:102DB000F3E70828FBD008BD0562002038B50E4DAA
:102DC0002B788342044616D0012808D002282870A8
:102DD00011D1BDE8384001210020FFF755BEFFF7B3
:102DE000BBFE40B92C70FFF723FE0DF0D7FBBDE80A
:102DF0003840FFF775BF38BD05620020014B002247
:102E00001A6070473C6E002010B52A4B1B788BB1BE
:102E1000294B2A48002119600C2214230DF0DEFBF7
:102E2000274A13785178907843EA012343EA004017
:102E3000FFF79EFDFFF712FB012821D11E4B204C0E
:102E40001B687BB920780DF070FB20701C4A13784A
:102E50005178907843EA0123BDE8104043EA0040EE
:102E6000FFF786BD012B04D160780DF064FB607024
:102E7000ECE7022BEAD1A0780DF051FBA070E5E75A
:102E80000228E3D0082814D10B4A13680133012B20
:102E9000136007D10B4814230C220021BDE8104019
:102EA0000DF09CBB022B04D1074814230C220021F7
:102EB000F4E710BDC47000203C6E0020B731010063
:102EC000C5700020BD310100C531010038B5124880
:102ED0003221FFF793FD4FF4803000210AF0B6FB5A
:102EE0000D4D322442F210700AF0F4FBFFF7B6FAEF
:102EF000012809D1013CE4B228462146FFF77EFDB6
:102F000020460DF0BCFBEDE7022801D10134F2E7C9
:102F10000028E7D138BD00BFCD31010008B5002041
:102F20000DF0E1FCBDE8084001460148FFF766BD31
:102F3000D631010010B590B01E4A1F4803210EF093
:102F400040F800F06FF80446642000F0CBF804432A
:102F5000642000F0E3F8044304A800F07DF8DDE904
:102F60000823CDE90223DDE906230443CDE900234C
:102F70001248DDE904230CF08FFADDE90E23CDE9D8
:102F80000223DDE90C230E48CDE90023DDE90A2305
:102F90000CF082FA3CB90B4A074803210EF011F8F5
:102FA000204610B010BD084A0348234603210EF006
:102FB00011F8F5E7DF310100F8290100F4310100D3
:102FC0001B3201003F3201005032010070B5094B45
:102FD00088B0064601A9186801AC0DF08AFA0FCC3A
:102FE00035460FC594E8070085E80700304608B06D
:102FF00070BD00BF406E002010B5084B1868836894
:103000004021DB689847041E05DA054821460DF08B
:10301000DBFC204610BD0024FBE700BF446E00200F
:103020008232010008B5084B084818600EF066FDB2
:1030300020B907480DF0C8FC102008BD05480DF068
:10304000C3FC0020F9E700BF446E0020C827010040
:10305000AA320100C332010070B58CB00546FFF7FB
:10306000CBFF041E0BDB1C4E6A46306803210DF0BB
:103070003CFC041E06DA194821460DF0A5FC20464A
:103080000CB070BD306806AA07210DF02EFC041E9E
:1030900002DA13482146F0E76846FDF7C9FEC5E9A4
:1030A000000102A8FDF7C4FEC5E9020104A8FDF76E
:1030B000BFFEC5E9040106A8FDF7BAFEC5E9060191
:1030C00008A8FDF7B5FEC5E908010AA8FDF7B0FE9E
:1030D0000024C5E90A01D2E7446E0020E63201006F
:1030E0001233010013B50B4B0090002218680192B7
:1030F00083681C685CB16B460321A047044618B185
:10310000054821460DF060FC204602B010BD6FF06E
:103110005704F5E7446E00203B33010013B50B4B19
:10312000009000221868019283681C685CB16B46AD
:103130000721A047044618B1054821460DF044FC7C
:10314000204602B010BD6FF05704F5E7446E002032
:10315000713301002DE9F04F91B00546009302F064
:1031600004030193C2F3C203013304938307DDF820
:10317000689002920E4640F0FC81041D30B1072990
:1031800009D86FF01B0011B0BDE8F08F01F0070601
:103190003444C6F10806009B4FF000084FF0040BC2
:1031A000591ECDF80C80474643464FF0FF32DA46B1
:1031B0000DB1009820600498002800F3DF809B4840
:1031C000DDF800C0844503D399488445C0F0D6801B
:1031D000DDF808C0A4EB050E1CF0020F4FEA9E00BC
:1031E00000F0E7804FF0000CD1E07A2862D84B283D
:1031F0000FD847285ED829282DD8252859D059D846
:1032000020287DD0A0F12309D9F1000343EB090365
:1032100076E04C382E284DD8DFE800F0724C4C4C4C
:103220004C4C4C4C4C4C4C4C4E4C4C4C4C4C4C4CDC
:103230004C5C4C4E4E5C5C5C724E6F4C724C184E4B
:10324000184C4C817E4E4C4C4E4C7E00002000238E
:103250004FF0040B3CE02A384FF0010EC0B20EFADA
:1032600000F04FF6DA7E10EA0E0F49D110F0625EE0
:1032700030D110F0010343D07046013C5C44B4FBF4
:10328000FBF40BFB04F4002D5ED0AAEB050EA64464
:10329000B6453FF676AF002868D1BAF1040F43D1A6
:1032A000E14659F8040B20600434CC464FF0040A80
:1032B00026E0013A002323E011F8013C6C2B30D1C9
:1032C00011F8023C00206C2B0346C1D14FF0080BD3
:1032D000DA46D2E70CF1070929F0070C0734FCE8BD
:1032E00002AB24F0070435B105982044B0423FF604
:1032F00048AFC4E900AB083400234FF0080BDA46AE
:1033000011F8010F002800F0BC80002B7FF46DAF96
:103310002528F5D1013201234FF0040BEFE71846C1
:1033200095E700200346A8E7BAF1080F40F09B801C
:103330000CF1070929F0070CFCE8029AC4E9009A8D
:1033400008344FF0080ADBE780B9BAF1040F02D164
:103350000CF10409A8E7BAF1080F40F084800CF1E1
:10336000070929F0070909F1080CE9E70498E14683
:103370000138049059F8040B009019E7029880076F
:1033800048D5A4EB050E4FEA9E004FF0010CBEF5A8
:10339000007F1DD32749284A28484FF41F730DF09A
:1033A00057FB27480DF054FB4FF41F7122480DF0D6
:1033B00046FB0F2F0ED8002D46D007F1400CEC44F1
:1033C0000CF8200C0CF8102C03980130039020E02E
:1033D0000F2F0CD91749184A184840F281230DF0D5
:1033E00037FB18480DF034FB40F28121DEE7BDB118
:1033F00007F1400EEE44C0B20EF8200C0EF8102C6F
:10340000BCF1000FE0D060F07F000EF8200C08F156
:1034100001080137C5F108000434CC4605906FE778
:10342000BCF1000F10D00136F3E700BFA826010061
:10343000F85C01003D310100A3330100D12F0100F0
:10344000D1330100F2330100019802360028E0D1A7
:1034500000980592CDE90631FDF790FBDDE90631D4
:10346000059A0644D5E7444A4449454840F2C623F4
:103470000DF0EEFA514643480DF0EAFA40F2C6214B
:1034800094E7631BB3F5806F0CD33C493A4A3C4840
:1034900040F2D2230DF0DCFA3B480DF0D9FA40F2AD
:1034A000D22183E71DB9A6F10804E0186BE6019A62
:1034B00028609B082B709DF80C30C2B1EB7085F82A
:1034C0000280B8F1000F05D008A80022C5F1010C58
:1034D00097420ED1C5F101030DF120094FF0000A0A
:1034E00002930DF1300B574512D1601B4BE66B7008
:1034F000E5E710F8013B190608D50CEB040EB645BC
:1035000003F07F033FF63DAE04F8013B0132DFE7F5
:10351000B8F1000F03D099F90020002A17DB019BB6
:10352000D3B11AF80B2004F8012B0022029B1819C2
:103530001044B0423FF625AE99F8000004F8010BA4
:103540000099039220460EF075FC039A14440AF188
:10355000010A09F10109C6E799F8002055F822305F
:103560000093019B45F822300098FDF707FB421CB1
:10357000DCE76FF00D0006E6A33301003D310100EA
:10358000D12F01000C340100213401002DE9F04F4E
:1035900097B000AF8946D7F880B0FA623B62044624
:1035A00058B9A849A84AA94840F299330DF050FAF1
:1035B00040F29931A4480DF042FACBF3C00390F8E1
:1035C00002A07B6141B9457800780AEB8000204475
:1035D0004D4517D8A0EB0409E378FB61BAF1000F61
:1035E00002D01BF0010F16D1FB6953BBFB6A1BB164
:1035F0003A6A4946204698474D4628465C37BD46BC
:10360000BDE8F08F461C3046FDF7B8FA0130304473
:1036100009F10109DCE7237862687A62FA6A9900A5
:10362000B96104EB8301002A40F001814D460E464A
:1036300001EB0A094FF000084E454CD101EB0A0698
:1036400010E01BF0020FD1D023789A00BA616268B3
:103650007A62FA6A04EB8301002A77D14D4601EBC6
:103660000A0690461BF0050F0CBF02230123FB62E4
:10367000FB6906EB430A0BF00203BB625645BCD064
:1036800016F8021B16F8013C54F82390704B99452C
:1036900002D3704B994536D37B69002B40D0786AB2
:1036A0000DF057F900283BD0E9468AB06A466A4BCC
:1036B00053617B6AC2E906314FF400731384674B90
:1036C00042F8103F664800234FF4125102F01AFAF4
:1036D000023DCD46D2E716F8013BF96254F82300CB
:1036E000FDF74CFAD7F88430F96A01304BB1D7F8BE
:1036F000883098453EBFD7F8843023F8180008F189
:103700000108054498E77B6923B1786A0DF021F937
:103710000028C9D11BF0010F05D1FB6AED1AADE7F6
:10372000BB6A002BAAD04846FDF728FAD7F88430A8
:1037300053B1D7F8883098453FBFD7F88420431C51
:1037400022F8183008F10108054497E7BAF1000F94
:1037500073D01BF0040673D0D046002607F1480052
:1037600052463B61B9620EF065FBB96A3B6901EBF9
:103770000A02BA62FA69F9695200FA60BA6A02EB9F
:1037800041023A610BF00202BA60BA6A39698A42B0
:1037900068D162787A621BF0020F32440CBF4FEAA4
:1037A000580100211BF0010FD2B240F0E4801BF061
:1037B000040F14BF404600207B616270A070E1706E
:1037C0003A6AB969FB6A20469847051EFFF615AFAD
:1037D0007B6923707B6A6370FB69E37041463A6AD8
:1037E000FB6A84F802A007F148009847B0F100088E
:1037F000C0F2F580BB693A6AA9EB0A01C91AFB68F5
:10380000C91AD7E90A0398470028C0F2EA80A844F9
:1038100008EB00054FF0000B07F1380AB345C0F084
:10382000AC8000213A6AFB6A08469847E5E65646AE
:103830004FF0000807F1380092E75646D04696E769
:10384000B04694E738340100A3330100D12F0100C2
:10385000A8260100F85C01005334010004000001B7
:10386000D8290100BA6A12F8021BBA6212F8015C88
:103870005D4A54F82500904202D35C4A904218D326
:103880007A693AB1786A7B600DF063F87B6800284A
:103890007FF47BAFBA68002A4CD00F2E40D9544930
:1038A000544A554840F24D430DF0D2F840F24D4194
:1038B00080E67A693AB1786A7B600DF04AF87B68F5
:1038C00000287FF462AF1BF0010F0BD00F2E27D919
:1038D0004749484A484840F243430DF0B9F840F29E
:1038E000434167E61BF0040F3FF44FAFB8F10F0FF1
:1038F00009D942493F4A404840F246430DF0A8F8F2
:1039000040F2464156E608F1280207F1300008F17E
:10391000010102EB000808F8105C5FFA81F834E757
:1039200006F1280207F13000711C161806F8205C19
:10393000CEB22AE7B8F10F0F09D930492D4A2E48E7
:103940004FF48A630DF084F84FF48A6132E608F18F
:10395000280207F1300C08F10100944407F15802E5
:1039600052FA80F008F102080CF8101C5FFA88F88F
:1039700000F8105C09E700201EE71BF80A3087F802
:10398000373054F82390D7F884302BB3D7F88830E9
:103990009B4521D2D7F8843033F81B803A6AFB6A02
:1039A000012107F13700984700281ADB0544B8F1D8
:1039B000000F06D14846FDF7E1F800F101081FFAB3
:1039C00088F83A6AFB6A414648469847002808DB6F
:1039D00005440BF1010B21E74FF00008DEE74546F7
:1039E0000BE6054609E600BFA8260100F85C0100C9
:1039F000F6340100A3330100D12F01001535010079
:103A0000014B1860704700BFDC10002030B587B054
:103A10000025CDE903010446009503A90548059555
:103A200000F06EF8DDE904309842B8BF255407B0C5
:103A300030BD00BFA1090100F0B5094E0168024682
:103A40000A2700200B4601311C78355D6D0701D433
:103A50001360F0BD07FB0043A3F13000F2E700BFA5
:103A6000875A01002DE9F84F15469A46D378234A24
:103A700012F803B06F2B81460F460BF0030B2BD0CF
:103A800026D8582B0CBF10260A26DDF8288032468F
:103A9000002348463946FDF757F8092A08F1FF3850
:103AA000D4B21ED83034B145E4B277F1000788F8BB
:103AB000004001D3D04511D82B789B0605D5082EA0
:103AC00015D1AB7843F00803AB704046BDE8F88FE2
:103AD00003F0F703702BD5E70826D6E781460F469B
:103AE000D5E7BBF1010F0CBF37345734DBE7102E9D
:103AF000EBD1AB7843F01003E6E700BF875A010033
:103B00002DE9F04F97B08A46039016461C460025D3
:103B1000307808B9284656E325280AD0039B514639
:103B200098470028C0F24F83731C01350493049E0C
:103B3000EEE71822002110A80EF08AF97378252BE1
:103B400000F0A3800023711C98469E469C461846B0
:103B50000F4611F8012B2B2A00F0C68000F2BD8021
:103B6000202A00F0C480232A00F0C4802BB19DF8E5
:103B7000483043F040038DF84830B8F1000F05D0CD
:103B80009DF8483043F020038DF84830BEF1000F17
:103B900005D09DF8483043F010038DF84830BCF153
:103BA000000F05D09DF8483043F008038DF84830E9
:103BB00028B19DF8483043F004038DF848309DF853
:103BC000483003F04401442903D16FF386138DF884
:103BD00048309DF84830099743F080032A2A8DF831
:103BE000483040F08C809DF8493043F001038DF857
:103BF00049307B1C1A782E2A9DF849200CBF0121E0
:103C0000002161F341028DF849200CD15A1C099220
:103C10005A782A2A40F083809DF8492042F0040215
:103C20008DF8492002331A786C2A00F0A48000F243
:103C30008680682A00F08C806A2A00F0A5804C2AD1
:103C400000F0AA801A4612F8013B0492782B9DF8E6
:103C500049208DF84B3000F217816D2B00F2A980BE
:103C6000692B00F21181572B00F2BE80412B03D04B
:103C7000453B022B00F208819DF84A30042262F392
:103C800002038DF84A300123CAE08DF84B30B31C93
:103C900004939DF84930D90740F1FD8054F8048B16
:103CA000B8F1000F07DA9DF8482042F004028DF8C1
:103CB0004820C8F100085A0740F1F68054F804BBC8
:103CC000BBF1000F80F2F5809DF849306FF341039E
:103CD0008DF849304FF0FF3BEBE02D2A0DD0302A14
:103CE0007FF444AF012333E74FF0010C30E74FF08E
:103CF000010E2DE74FF001082AE7012028E709A867
:103D0000FFF79AFE099BBB423FF474AF9DF8482031
:103D10001390C00F60F341028DF848206AE709A8AC
:103D2000FFF78AFE9DF848301490C3F3400242EA40
:103D3000D07262F341038DF84830099B73E7742A0F
:103D400026D07A2A7FF47EAF9DF8492006210CE028
:103D50005A78682A9DF8492006D1012161F3C602EC
:103D60008DF8492002336DE7022161F3C6028DF818
:103D70004920013366E75A786C2A9DF8492001D121
:103D80000421EBE70321F0E79DF849200521ECE74A
:103D90009DF849200721E8E7BDF8482022F4F042C9
:103DA00022F0020242F4804242F00202ADF84820C2
:103DB000DFE76E3BD9B201238B4040F282410B42D8
:103DC00038D113F0240F52D1DF075DD59DF84A306A
:103DD000032161F302038DF84A3002F07803A3F166
:103DE0004000434243411BE0A3F15801C9B2012006
:103DF00000FA01F111F4624F7FF43EAF40F6010783
:103E000039421DD111F4043F3ED09DF84A3060F391
:103E1000020302F07802402A8DF84A3034D00023A1
:103E20009DF84820C2F340010B4363F341028DF833
:103E300048202EE79DF84A30022161F30203E8E7AB
:103E40009DF84A10022002F0780260F30201402A35
:103E50008DF84A1002BF9DF8481041F001018DF81D
:103E60004810632BDBD1131E18BF0123D8E79DF840
:103E70004A30032161F3020312F0780F8DF84A30C3
:103E800014BF01230023CBE79DF8483043F0010322
:103E90008DF84830C3E79DF94820002AB4BFDDF80B
:103EA0004C804FF0FF3806E79F077FF513AFDDF832
:103EB00050B09DF849100023CDE913339DF84A30E6
:103EC00003F00703012BC1F3C30132D1CB1E042B36
:103ED00004D8DFE803F020454520200023680129AD
:103EE0004FEAE372CDE910321BD19DF94030DA1769
:103EF000CDE9103204349DF8483013F003074FD059
:103F0000049B0398324651460CF082FD0028C0F213
:103F10005A8105440BE654F8043BDA17CDE9103218
:103F2000E9E70229E6D11AB243F3C033CDE9102301
:103F3000E0E7022B24D1CB1E042B04D8DFE803F0EA
:103F4000181010181800012954F8043B4FF0000213
:103F500014D00229CDE91032CDD19BB21093CAE71B
:103F6000073424F00704F4E80223CDE91023C2E764
:103F700054F8043B109300231193BCE7DBB2CDE768
:103F8000042B08D1073424F00704D4E900230834B3
:103F9000CDE91023AFE7032BADD154F8043BDDE7A7
:103FA0009DF84B0078283FF6C2AD62281ED8252820
:103FB00050D058287FF4BBAD0DF13E030093DDE9EE
:103FC00010010AAB12AAFFF74DFDBBF1000F8146AD
:103FD00080F2C280B9F1000F3FF4A9AD0DF13E06A9
:103FE000A6EB0903002F7BD0013379E06338152855
:103FF0003FF69DAD01A252F820F000BFCF40000077
:104000002D4100002F3B00002F3B00002F3B000004
:104010002F3B00002D4100002F3B00002F3B0000F4
:104020002F3B00002F3B00007B410000534100006C
:104030008D4000002F3B00002F3B0000654000003A
:104040002F3B0000534100002F3B00002F3B00009E
:1040500053410000039B514698470028C0F2B380AB
:10406000013564E5BBF1000FDDF840900ADB5946ED
:1040700048460EF003F8B9F1000F3FF458AD09EBD4
:10408000000620E04846FCF779FDF8E71098002884
:1040900000F087800DF13E060AAB009612AA0021BF
:1040A000FFF7E0FCBDF84A3003F0EF0343F4F043C0
:1040B00043F01003BBF1000F8146ADF84A304ADAF5
:1040C00000283FF434ADA6EB0903002708E0109B5D
:1040D0008DF8283000270DF129060DF1280901235C
:1040E0009DF84A1011F01002069260D00233139A24
:1040F000059213444A0644BF14995B18B8F1000FA7
:104100006EDDA8EB03089DF848305807C3F3800B19
:1041100066D459065AD53FB1039B51463846984755
:10412000002850DB01355F46302350E01E075CBF9E
:10413000C3F300135F01DDE9102348BF2B27002BD9
:10414000BFF63AAF524263EB4303CDE910232D276C
:1041500032E7002730E700279DF848100DF13E03B5
:10416000A3EB09036FF386119B458DF848107FF68A
:1041700031AFABEB030313932CE7109B07293FF6FA
:10418000D6ACDFE801F00C04060C08080C0C1D701E
:10419000CDE41D80CBE4EA17C3E90052C7E41D60FB
:1041A000C5E4314E0746A6F10509052398E708073F
:1041B00048BF01339BE7184607935146039B984736
:1041C0000028079B04DA17B0BDE8F08F2023C34610
:1041D000594600290BF1FF3BEDDC45446D1AD846EA
:1041E00037B1039B5146384698470028EBDB013531
:1041F0009DF84A30DA0601D41B0706D5039B5146C9
:10420000302098470028DEDB0135069B3BB19DF846
:104210004B00039B514698470028D4DB0135059F8E
:104220002F4406E0039B5146302098470028CADB04
:1042300001357B1B002BF5DC039833464A4651467B
:104240000CF0E6FB0028BEDB0544A844A8EB050300
:10425000002B7FF76CAC039B514620209847002829
:10426000B1DB0135F2E700BF4B35010038B50D4633
:104270000446202200210DF0EBFDEB68E361AB6802
:10428000A3612B6823626B6863620022A2622A69C1
:1042900023B1591E194208BF42F0010222610122D6
:1042A000002104F12C000DF080FC48B105490648BE
:1042B000064A2F230CF0CCFB04482F210CF0BFFB47
:1042C00038BD00BF72350100D12F01004C3501000F
:1042D0002DE9F04F89B0CDE90123436A00278B42D5
:1042E0000446884605970797BA4654D300F114064A
:1042F000EFF31185202383F31288BFF36F8F3046CD
:10430000A94609F0D3FC58B94D4A4E494E48882376
:104310000CF09EFB31464D480CF09AFB882163E07F
:10432000304609F0E7FC079A2AB1394620460CF0DE
:1043300077FC0023079306A920460CF096FB06990C
:104340004145834630D32268236A13F8221021F0B6
:10435000030103F8221003EB820A2168424620463B
:104360000CF0A7FBE3682060984218D04FF0000BD8
:10437000304609F0A9FC50B389F31188BFF36F8F61
:10438000059929B1A2690AB12046904700230593F7
:10439000BBF1000FACD1504609B0BDE8F08F2369E6
:1043A00043F008032361E1E718B120460CF09BFBC2
:1043B000DEE7DDE90132134339D003910DF027FC2C
:1043C0000399A0BB9DBB304609F07EFC78B91C4A1E
:1043D0001F491D4840F231130CF03AFB31461D488D
:1043E0000CF036FB40F2311115480CF028FB85F338
:1043F0001188BFF36F8FDDE9012304F12C0007F072
:1044000027FE8346EFF31189202383F31288BFF33D
:104410006F8F304609F04AFC00283FF475AF3046F4
:10442000BBFA8BFB09F066FC4FEA5B1BA0E707AB0E
:1044300005AA204627680CF073FB834698E700BF67
:104440007B350100A8350100D12F0100BD350100E9
:10445000D3350100EA3501002DE9F0410446C36976
:1044600008460E46984704F114050746EFF31188F5
:10447000202383F31288BFF36F8F284609F016FCC0
:1044800068B91B4A1B491C4888230CF0E1FA2946ED
:104490001A480CF0DDFA882115480CF0D0FA2846AD
:1044A00009F028FC337843F00103337061683A4621
:1044B00020460CF0FEFA606020460CF0CCFB28464B
:1044C00009F002FC68B90A4A0D490B4840F2311361
:1044D0000CF0BEFA29460B480CF0BAFA40F2311142
:1044E000DAE788F31188BFF36F8FBDE8F08100BF72
:1044F0007B350100A8350100D12F0100BD35010039
:10450000D3350100EA3501002DE9F843044600F1F6
:104510001407EFF31188202383F31288BFF36F8F02
:10452000384609F0C3FB054668B9354A354936486F
:1045300088230CF08DFA394634480CF089FA88212A
:104540002F480CF07CFA384609F0D4FB2369A268A6
:1045500013F0080F02D163689A4200D9636A9B1A6C
:10456000002B3FD0216A11F8223013F0030001EB39
:1045700082093AD0022803D151F82260B60805D149
:10458000D8071FD4E369484698470646A1683246D3
:1045900020460CF08EFA3146A06020460CF097FAC7
:1045A000384609F091FB10BB154A1949164840F2EC
:1045B00031130CF04DFA394616480CF049FA40F226
:1045C0003111BDE743F0020301F822304846E369A8
:1045D000A56898472946024620460CF06AFA00254D
:1045E000A060DDE71D46A946DAE70546FBE788F34C
:1045F0001188BFF36F8F002D8BD14846BDE8F8833B
:104600007B350100A8350100D12F0100BD35010027
:10461000D3350100EA3501002DE9F0410446C369B4
:1046200008460D46984704F114060746EFF3118833
:10463000202383F31288BFF36F8F304609F036FBD7
:1046400068B9284A2849294888230CF001FA3146DC
:1046500027480CF0FDF9882122480CF0F0F930468B
:1046600009F048FB2B786FF300032B7023699B073D
:1046700005D5E268236A03EB82039D4222D12B78A1
:104680006FF341032B70D4E90231994204D13A46C9
:1046900020460CF00EFAA060394620460CF017FABE
:1046A000304609F011FB90B90E4A12490F4840F20A
:1046B00031130CF0CDF931460F480CF0C9F940F236
:1046C0003111C9E72B6867F39F032B60E8E788F394
:1046D0001188BFF36F8F04F12C00BDE8F04107F0A3
:1046E00033BC00BF7B350100A8350100D12F01008C
:1046F000BD350100D3350100EA35010070B504462F
:1047000000F11405EFF31186202383F31288BFF321
:104710006F8F284609F0CAFA68B91B4A1B491C4822
:1047200088230CF095F929461A480CF091F9882154
:1047300015480CF084F9284609F0DCFA2369A068D2
:1047400013F0080F02D16368984213D9646A241ADF
:10475000284609F0B9FA78B90B4A0F490C4840F2DB
:1047600031130CF075F929460C480CF071F940F240
:104770003111DDE71C1AEBE786F31188BFF36F8F69
:10478000201E18BF012070BD7B350100A835010037
:10479000D12F0100BD350100D3350100EA350100FC
:1047A0002DE99F480446EFF31185202383F31288F7
:1047B000BFF36F8F09F07AFA58B9504A50495148FF
:1047C00088230CF045F921464F480CF041F9882127
:1047D0003CE0204609F08EFA4C4E04F10C030393A2
:1047E0004FF0FF384FF0FF39039801210CF0CFFA5A
:1047F0000746002874D00146A0F1280B039800F06A
:1048000009F9B368BB60E36904F11802C7E9002342
:104810001F60B368E76157F8282C9A7357F8242C67
:104820001A611A7B22F010021A73204609F04CFA22
:1048300078B9324A3649334840F231130CF008F95E
:10484000214634480CF004F940F231112B480CF0A9
:10485000F6F885F31188BFF36F8F57F8203C584660
:104860009847EFF311854FF0200A8AF31288BFF3BF
:104870006F8F204609F01AFA00289ED0204609F0D2
:1048800039FAB3681B7B13F01003ADD1D7E90020D0
:1048900002605060C7E90033BB60636ADBB1204649
:1048A00009F012FA0028C4D085F31188BFF36F8F86
:1048B000636A58469847EFF311858AF31288BFF36D
:1048C0006F8F204609F0F2F900283FF476AF2046BA
:1048D00009F010FA88E7A7F1180007F035FB83E725
:1048E000CDE90089221D2946204608F07FFAEFF322
:1048F0001185202383F31288E1E700BF7B35010097
:10490000A8350100D12F0100BD3501004070002005
:10491000D3350100EA35010010B5282204460021F4
:104920000DF096FA231DC4E90133034B236104F112
:104930001803C4E9063310BD710C010070B50446BC
:1049400088B0256A084645F3400611461A460023FA
:104950006FF00F05CDE90235CDE900430493CDE9B1
:104960000666024B07F090FF08B070BDA14700003B
:104970002DE9F047214C224F4FF09808BC4238D91E
:104980002049214A21489A230CF062F820480CF073
:104990005FF81D489A210CF052F86368A668073347
:1049A00023F0070A6369D90707D509FB0566304676
:1049B000FFF7B2FFA369736201E0002DF7D06369CE
:1049C0005A0748BF43F002033362D4E90312636815
:1049D00005FB0A2208FB05113046FFF7AFFF013542
:1049E0002368AB42D9D81C34C8E700254FF028090A
:1049F000F6E7FAD30020BDE8F08700BF20290100C8
:104A00003C29010020360100FF350100D12F0100B3
:104A1000413601002DE9F04F87B083689B0000AF5D
:104A20000B3323F00703C7F80CD0ADEB030DE946B9
:104A30006B469B084A460E463B6183460CF02DF9B7
:104A400009EB8008044658F8042CB2424FEA800370
:104A50005DD13568012D4DD97268002A4AD03A6976
:104A6000012825F00105C8BF58F8080C43F822506A
:104A7000D8BF002001346B68002B4ED109EB840AAB
:104A80005AF8083C00284DD041687B61A1EB060C28
:104A9000DCF100012A4641EB0C010CF01BF97B69AB
:104AA0009E4242D12A68336822F0010203F00103DA
:104AB000134333602B6803F0010333432B607368A7
:104AC0006B60002373605AF8042C58F8043C48F8D3
:104AD000042C32684AF8043C2B6822F0010103F0F0
:104AE00001030B4333602B6802F0010223F0010342
:104AF00013432B603268012A2ED9012C22F00105C4
:104B000034DCCBF800502B6843F001032B60D7F85E
:104B10000CD01C37BD46BDE8F08F49F824301D4647
:104B20000134A8E7CBF80050BAE75968481B414266
:104B30004141324618460CF0CDF832682B6802F03D
:104B4000010123F001030B4333602B6822F00102C3
:104B500003F001031343B1E7012C756828DCCBF89F
:104B60000050002DCFD1CBF80850D0E7023C59F8C7
:104B7000240041688C1B61422A4661410CF0AAF86E
:104B800032682B6812F0010F40F0F280D80700F174
:104B9000ED807A497A4A7B4840F2ED130BF058FFDA
:104BA00079480BF055FF764840F2ED110BF047FFC6
:104BB000A31E59F82300002DDBD112F0010200F0F2
:104BC000D08004F18043013B09EB830259F82310A4
:104BD00052F804AC7961DAF80450A94202BFDAF85D
:104BE000005025F001054FF00108296818BF4FF06B
:104BF0000008C9071FD4214649F8235048467A6067
:104C0000BB600CF070F8DAF800107A687B695360CA
:104C100021F00101CAF800102968BB6841F00101C8
:104C200059F823A029600134B8F1000F28D0DAF830
:104C3000005025F0010528686B68012820F001016B
:104C400002D90A68D20750D513B11A68D2071FD506
:104C50007B699E4204D10022414650460CF03AF84E
:104C60002B6823F001032B60DAF80030D9070AD54E
:104C7000013C012CA5D1D9F80030CBF8003046E733
:104C8000DAF80450D7E743F00103CAF80030F2E73E
:104C9000B8F1000F57D001282AD804F1804101391A
:104CA0008A0038697A6009EB810142F820504B6034
:104CB0004846611CBB600CF016F82968BB687A682E
:104CC00021F001012960196841F0010119603B6977
:104CD00052F82350B8F1000F3DD0296821F00101AE
:104CE000D7E9043042F8230007E0B8F1000F29D0DB
:104CF0000A68D2074FF00108CFD42B68DAF80020F9
:104D000023F0010302F0010213432B60DAF80030B4
:104D100043F00103CAF800300B6843F001030B6055
:104D200004F18043013B214649F8235048460BF0EB
:104D3000DAFF7B699E429ED10022414650460BF02D
:104D4000C9FF98E72BB11A686FEA020818F001084A
:104D500003D10B46A1E76968C2E719464FF0000886
:104D6000CBE741688D1B69426941E8E7D10701D56E
:104D7000DA0780D443F001032B607CE7873601001B
:104D800065360100D12F0100A93601002DE9F84F49
:104D900004460846A38B1907154612D4022803F0CF
:104DA000070165D120460BF0FFFF88B101380428C8
:104DB00000F23781DFE810F05C0035018200D4009A
:104DC000040101280CBF43F0100143F02001A1832E
:104DD0001434204608F078FF002840F09D819A495D
:104DE0009A4A9B4840F231130BF032FE2146B1E063
:104DF00003F00702501F01281ED80020062A27684A
:104E0000C4E9000014D13A4603E0E08B0130E083AE
:104E10001268002AF9D123F0070343F00202A283AB
:104E200020460BF0C1FF90B342F02002A2832EE097
:104E300023F007039AB2F2E7042A33D123F00703E1
:104E40009AB2A28320460BF0AFFF10B142F02002CD
:104E5000A283A38B03F00709894540F0EC80A18B66
:104E6000CA0640F1508121F01003A38301F007012D
:104E7000D4F81880A38BB8F1000FB9DA00222768A4
:104E800023F00703C4E9002243F00103A383A38BAB
:104E900003F00709894540F0CF80002FDFD00026BE
:104EA000B24644E06B496C4A694840F21B130BF070
:104EB000CFFD40F21B1168480BF0C1FD49B16749B5
:104EC000654A63484FF4AB730BF0C2FD4FF4AB710E
:104ED000F1E723684BB962495F4A5D4840F25713D6
:104EE0000BF0B6FD40F25711E5E723691E684EB995
:104EF0005C49594A56484FF4AD730BF0A9FD4FF485
:104F0000AD71D8E7A38B23F0070343F006039BB2F0
:104F1000A3830F4688464FF00609A268002A40F096
:104F20008D80002F40F08D80002E98D0BA4643F03F
:104F3000080304F1140BA383584608F0C5FE0028AB
:104F400040F09A804049414A414840F231130BF009
:104F50007FFD594644480BF07BFD40F23111ADE036
:104F6000022909D041493C4A394840F25D130BF00F
:104F70006FFD40F25D119EE7E78B4FB13C49364A29
:104F800033484FF4AF730BF063FD4FF4AF7192E70A
:104F900023695E684EB933492F4A2D4840F26113A8
:104FA0000BF056FD40F2611185E7A38B23F0070358
:104FB00043F004039BB2A383B8464FF00409ACE767
:104FC000012909D02B49244A21484FF4B2730BF030
:104FD0003FFD4FF4B2716EE723684BB920491E4A7A
:104FE0001B4840F265130BF033FD40F2651162E798
:104FF00023699E684EB91B49174A15484FF4B4738C
:105000000BF026FD4FF4B47155E7A38B23F0070393
:1050100043F005039BB20027A383B8464FF0050970
:105020007BE70C490C4A0A4840F26B130BF010FD69
:1050300040F26B113FE7002700266EE74FF0010AB0
:1050400075E7924673E700BFD33501007B35010059
:10505000D12F01003D310100BC360100E1360100D5
:10506000ED36010010370100EA3501002737010055
:105070003D3701004C37010085F31188BFF36F8F76
:10508000BAF1000F1CD177BB16B126492046B047B4
:10509000EFF31185202383F31288BFF36F8F5846F7
:1050A00008F004FE38BB204A2049214888230BF031
:1050B000CFFC59461F480BF0CBFC88211A48FBE671
:1050C000A1680029DFD00D680029DCD0D1F804A048
:1050D00043464A462046D0471DB12B6829461D4607
:1050E000F2E72B46FAE7394643464A4620463F68F0
:1050F0000BF086FEC7E7584608F0FCFDA38B23F0B3
:105100000803A383ABE68B067FF562AE21F0200394
:10511000A38301F0070145E685F31188BFF36F8F84
:10512000BDE8F88F395100007B350100A83501003A
:10513000D12F0100BD350100F8B504460D4600F140
:105140001406EFF31187202383F31288BFF36F8FC8
:10515000304608F0ABFD68B90C4A0D490D4888236C
:105160000BF076FC0C4831460BF072FC07488821A6
:105170000BF065FC304608F0BDFDA5613A462046BF
:105180000121BDE8F840FFF701BE00BF7B350100FB
:10519000A8350100D12F0100BD3501002DE9F047F0
:1051A00004460F460BF01CFE051E68DB04F11409D3
:1051B000EFF3118A202383F31288BFF36F8F4846E1
:1051C00008F074FD804660B9384A39493948882367
:1051D0000BF03EFC494638480BF03AFC8821334836
:1051E00042E0484608F086FDE38BA68B4FF6FF723F
:1051F000934206F0070645D0022E15D10133E38312
:105200003546484608F060FD002841D1274A2B4921
:10521000284840F231130BF01BFC494628480BF09C
:1052200017FC40F23111DAE7062E13D8DFE806F05A
:10523000092D1212090409006FF085054FF00008CE
:10524000DFE700233B60636883B9C4E9007786B178
:105250003546F3E71B4917481B4A4FF4E4730BF03C
:10526000F7FB19484FF4E4710BF0E9FB1F6067602E
:10527000EDE7524602212046FFF788FD35462846D5
:10528000BDE8F0876FF00A05D8E76FF00405D5E7B1
:105290008AF31188BFF36F8FB8F1000FEFD00023AE
:1052A0003246394620460BF0ABFDE8E77B3501007E
:1052B000A8350100D12F0100BD350100D335010013
:1052C000EA3501004C370100BC360100F8B505464F
:1052D00000F11406EFF31187202383F31288BFF344
:1052E0006F8F304608F0E2FC60B9264A264927480D
:1052F00088230BF0ADFB314625480BF0A9FB882134
:1053000020482BE0304608F0F5FCAC8B04F0070495
:10531000022C17D0012C0CBF6FF004046FF0850431
:10532000304608F0D1FC38BB164A1A49174840F2FB
:1053300031130BF08DFB314617480BF089FB40F21F
:105340003111DDE7EB8B5BB914491048144A40F288
:10535000EF130BF07DFB124840F2EF110BF06FFBE7
:10536000013B9BB2EB83002BDAD13A46214628461B
:10537000FFF70CFD2046F8BD87F31188BFF36F8F50
:10538000F8E700BF7B350100A8350100D12F0100EF
:10539000BD350100D3350100EA3501006237010057
:1053A000BC36010008B54268816002F00302022A9F
:1053B00003460AD0032A4FF0000103D0012A0AD184
:1053C000596006E01868596008BD186800225A60E4
:1053D00058B90020F8E706490648074A45230BF06C
:1053E00037FB054845210BF02AFB09F0D3FBF0E71A
:1053F0003D310100D12F01007037010030B5104957
:10540000104889B000220CF06DFC0F4D0F490022AE
:105410000023CDE9062300240E23CDE90334CDE992
:1054200001440B4B00944FF40062284607F02CFA1D
:10543000084928460CF0F1FB204609B030BD00BFFA
:10544000A1550000686A0020C8650020D8780020B7
:10545000F5580000963701002DE9F047DFF8588035
:10546000044607464FF0010914B93846BDE8F087F5
:1054700094FAA4F5B5FA85F509FA05F32E0108EBBF
:1054800005156FEA030A24EA03042B7B002BEBD0FB
:1054900058F806301B694BB9464404227368284605
:1054A000196807EA0A070BF01DFDDDE72846984753
:1054B0000028D9D1F0E700BF802A01002DE9F0478C
:1054C000DFF8BC902F4CA9EB04038F2B80460F46CE
:1054D0000BD92D492D4A2E484FF4A7730BF0B8FA7B
:1054E0004FF4A77129480BF0AAFA2A480BF0DAFC0E
:1054F000064678B300252846BDE8F087237B83B1B4
:105500002368DB680BB120469847636883F806A0E0
:1055100023681B69B3B963680422196820460BF03D
:10552000E1FC013610344C4518D91B49174A18487C
:105530004FF4AD730BF08CFA18480BF089FA4FF466
:10554000AD71CFE7204698470028E4D00AFA06F369
:105550001D43E6E705464FF0010AE4E7CED3B8F174
:10556000000FC8D0002DC5D02846FFF775FF0546AF
:10557000002FF7D000214FF4A47008F067F8F1E78E
:10558000902A0100802A0100CB3701009E370100DC
:10559000D12F01005C6E0020FB3701004136010075
:1055A000014806F0D1BC00BF34640020014B53F821
:1055B000200070475C2C010008B5034608462BB15B
:1055C000044A136000F0BEFD002008BD6FF0150016
:1055D000FBE700BFE010002010B5044C237813B99E
:1055E000034806F0B1FC0123237010BDC8700020F1
:1055F0003464002010B504460B480BF053FC5CB13A
:10560000BFF35B8F094B53E8001F013943E80012D9
:10561000002AF8D1BFF35B8F05480CF06FFB0548FB
:10562000BDE8104006F090BC546E0020586E00207B
:10563000686A0020346400200020064BBFF35B8FB3
:10564000014653E8000F43E80012002AF9D1BFF3E6
:105650005B8F7047546E002070B5FFF7EDFF104C64
:10566000104E0546B44219D90F49104A104840F26D
:105670000E230BF0EDF90F480BF0EAF90B4840F25E
:105680000E210BF0DCF963685B792BB123685B6852
:1056900013B12946204698471034E3E7F3D370BD91
:1056A000802A0100902A0100FB3701009E3701008B
:1056B000D12F01004136010010B5044C04492046A9
:1056C000FEF7D4FD034B1C6010BD00BF1462002028
:1056D000482C0100486E0020154A1648002310B5DA
:1056E0001370154A1360154A4FF400411360FFF719
:1056F00063FFFFF7E1FF124B124918468B4215D9A1
:105700001149124A124840F229130BF0A1F911482D
:105710000BF09EF90D4840F229110BF090F91A1A7E
:105720005C681211013222711033E7E7F7D310BD24
:10573000C9700020A10E0100546E0020586E002098
:10574000802A0100902A0100FB3701009E370100EA
:10575000D12F0100413601000146002201480023FB
:10576000FEF7B6BD146200200148FEF7CDBE00BFB3
:1057700014620020024B01461868FEF74DBF00BFBF
:10578000486E00200148FEF7B9BF00BF1462002038
:1057900070B5314B187800285DD0FFF7E5FF05465E
:1057A000002844D12D4B2E4C1B68002B19DD0CF02A
:1057B00097FA4FF47A72A0FB020302FB0131C30B8C
:1057C000D4E9002043EA41439B1A4FEAD13140F229
:1057D000E93261EB0001934271F1000101D3FFF75F
:1057E0003BFFD4E9003213F57A7342F10002C4E9B9
:1057F0000032BDE87040FFF7C5BF63685B7923B135
:10580000236829461B68204698471034B44211D9B2
:105810001449154A154840F202230BF019F91448AF
:105820000BF016F9104840F202210BF008F9114C68
:10583000114EEBE7E1D32846FFF79CFFBFF35B8FE8
:105840000E4B53E8001F013943E80012002AF8D13B
:10585000BFF35B8FA6E770BDC8700020546E0020B8
:10586000606A0020FB3701009E370100D12F010044
:1058700041360100802A0100902A0100586E002064
:1058800070B5154D297829BB0120FFF717FE134C81
:10589000134EB44217D91349134A144840F2C713A0
:1058A0000BF0D6F812480BF0D3F80F4840F2C711AE
:1058B0000BF0C5F863685B791BB1236820469B68D1
:1058C00098471034E5E7F5D3FFF762FF0028FBD1D6
:1058D00001232B7070BD00BFC9700020802A010019
:1058E000902A0100FB3701009E370100D12F0100F3
:1058F000413601002DE9F0472F4B304FFB1A1B09B1
:105900000BD12F492F4A304840F2AB330BF0A0F8AF
:1059100040F2AB312B480BF092F800210846FFF71C
:10592000CDFD044640B340F267684FF0000907F030
:1059300047FF264B186030B1254B1B68092B02DD51
:10594000244806F001FBDFF88CA0002544B1204676
:10595000FFF782FD044618B94FF0FF384FF0FF39CA
:10596000FFF716FF064628B95DB942464B4650463A
:1059700006F06EFB3546E9E74FF0FF384FF0FF3990
:10598000D5E70D4D08E0F0D22B689B691BB10022D2
:105990001146284698471035BD42F4D90E49094AA8
:1059A000094840F29F330BF053F80C480BF050F8C5
:1059B00040F29F31AEE700BF802A0100902A01002B
:1059C0001C3801009E370100D12F0100506E0020CD
:1059D000586E002034640020FB370100413601007E
:1059E00013B52C480BF05EFA2B4B1B78002B35D0EF
:1059F000EFF31184202383F31288BFF36F8F2748BE
:105A000008F054F968B9264A2649274888230BF03C
:105A10001FF8224925480BF01BF8882120480BF07D
:105A20000EF81E4808F066F9FFF7B2FE1B4808F0B2
:105A30004BF968B91A4A1E491B4840F231130BF062
:105A400007F816491B480BF003F840F23111E5E75F
:105A500084F31188BFF36F8F02B010BD164B1B6823
:105A6000002BF9D050B900220023CDE900231348C0
:105A70004FF40042002308F0D1FCEDE70928EBD1F8
:105A80000E480CF03BF90E4802B0BDE8104006F09D
:105A90005BBA00BF586E0020C97000204C6E002019
:105AA0007B350100A8350100D12F0100BD35010073
:105AB000D3350100EA350100506E0020686A0020ED
:105AC0003464002010B5064B1B68044698472146F5
:105AD000A0600448FEF7C0FCBDE81040FFF780BF9F
