:10000000489E00206D54000043CF0000595400006A
:1000100059540000595400005954000000000000D9
:10002000000000000000000000000000C9550000B2
:1000300059540000000000007D5500005954000094
:1000400069570000695700006957000069570000B0
:1000500069570000695700006957000069570000A0
:100060006957000069570000695700006957000090
:100070006957000069570000695700006957000080
:100080006957000069570000695700006957000070
:100090006957000069570000695700006957000060
:1000A0006957000069570000695700006957000050
:1000B0006957000069570000695700006957000040
:1000C0006957000069570000695700006957000030
:0C00D000695700006957000069570000E4
:1000E00001F0FF01102A2BDB10F0070F08D010F8E9
:1000F000013B013A8B422DD010F0070F42B3F6D1ED
:10010000F0B441EA012141EA014122F007047FF005
:1001100000070023F0E80256083C85EA010586EA5C
:10012000010685FA47F5A3FA87F586FA47F6A5FA98
:1001300087F68EB9EED1F0BC01F0FF0102F00702A4
:1001400032B110F8013B013A83EA010313B1F8D14F
:100150000020704701387047002D06BF3546033830
:10016000073815F0010F07D1013015F4807F02BF69
:10017000013015F4C03F0130F0BC0138704700BFBA
:1001800081F0004102E000BF83F0004330B54FEA48
:1001900041044FEA430594EA050F08BF90EA020FB5
:1001A0001FBF54EA000C55EA020C7FEA645C7FEA48
:1001B000655C00F0E2804FEA5454D4EB5555B8BF6B
:1001C0006D420CDD2C4480EA020281EA030382EADC
:1001D000000083EA010180EA020281EA0303362D6E
:1001E00088BF30BD11F0004F4FEA01314FF4801C41
:1001F0004CEA113102D0404261EB410113F0004F53
:100200004FEA03334CEA133302D0524263EB430309
:1002100094EA050F00F0A780A4F10104D5F1200EA7
:100220000DDB02FA0EFC22FA05F2801841F1000102
:1002300003FA0EF2801843FA05F359410EE0A5F1D6
:1002400020050EF1200E012A03FA0EFC28BF4CF007
:10025000020C43FA05F3C01851EBE37101F00045BD
:1002600007D54FF0000EDCF1000C7EEB00006EEBCA
:100270000101B1F5801F1BD3B1F5001F0CD3490854
:100280005FEA30004FEA3C0C04F101044FEA4452AB
:1002900012F5800F80F09A80BCF1004F08BF5FEA32
:1002A000500C50F1000041EB045141EA050130BD12
:1002B0005FEA4C0C404141EB0101013C28BFB1F524
:1002C000801FE9D291F0000F04BF01460020B1FA6F
:1002D00081F308BF2033A3F10B03B3F120020CDA42
:1002E0000C3208DD02F1140CC2F10C0201FA0CF020
:1002F00021FA02F10CE002F11402D8BFC2F1200C85
:1003000001FA02F120FA0CFCDCBF41EA0C0190403A
:10031000E41AA2BF01EB0451294330BD6FEA040483
:100320001F3C1CDA0C340EDC04F11404C4F120026E
:1003300020FA04F001FA02F340EA030021FA04F380
:1003400045EA030130BDC4F10C04C4F1200220FAD7
:1003500002F001FA04F340EA0300294630BD21FA15
:1003600004F0294630BD94F0000F83F4801306BFDB
:1003700081F480110134013D4EE77FEA645C18BFCF
:100380007FEA655C29D094EA050F08BF90EA020F66
:1003900005D054EA000C04BF1946104630BD91EA5E
:1003A000030F1EBF0021002030BD5FEA545C05D161
:1003B0004000494128BF41F0004130BD14F58004A0
:1003C0003CBF01F5801130BD01F0004545F0FE4114
:1003D00041F470014FF0000030BD7FEA645C1ABF49
:1003E000194610467FEA655C1CBF0B46024650EA80
:1003F000013406BF52EA033591EA030F41F40021AC
:1004000030BD00BF90F0000F04BF0021704730B531
:100410004FF4806404F132044FF000054FF0000106
:1004200050E700BF90F0000F04BF0021704730B5C7
:100430004FF4806404F1320410F0004548BF40429C
:100440004FF000013EE700BF42004FEAE2014FEAF1
:1004500031014FEA02701FBF12F07F4393F07F4FCC
:1004600081F06051704732F07F4208BF704793F0CF
:100470007F4F04BF41F40021704730B54FF46074E2
:1004800001F0004521F000411CE700BF50EA0102E5
:1004900008BF704730B54FF000050AE050EA01028E
:1004A00008BF704730B511F0004502D5404261EBFE
:1004B00041014FF4806404F132045FEA915C3FF43F
:1004C000D8AE4FF003025FEADC0C18BF03325FEADC
:1004D000DC0C18BF033202EBDC02C2F1200300FA8D
:1004E00003FC20FA02F001FA03FE40EA0E0021FAB2
:1004F00002F11444BDE600BF70B54FF0FF0C4CF4A0
:10050000E06C1CEA11541DBF1CEA135594EA0C0F51
:1005100095EA0C0F00F0DEF82C4481EA030621EA8C
:100520004C5123EA4C5350EA013518BF52EA0335C7
:1005300041F4801143F4801338D0A0FB02CE4FF079
:100540000005E1FB02E506F00042E0FB03E54FF0A9
:100550000006E1FB03569CF0000F18BF4EF0010EA1
:10056000A4F1FF04B6F5007F64F5407404D25FEA9D
:100570004E0E6D4146EB060642EAC62141EA555150
:100580004FEAC52040EA5E504FEACE2EB4F1FD0C92
:1005900088BFBCF5E06F1ED8BEF1004F08BF5FEA10
:1005A000500E50F1000041EB045170BD06F00046C2
:1005B00046EA010140EA020081EA0301B4EB5C046F
:1005C000C2BFD4EB0C0541EA045170BD41F4801167
:1005D0004FF0000E013C00F3AB8014F1360FDEBF8C
:1005E000002001F0004170BDC4F10004203C35DA68
:1005F0000C341BDC04F11404C4F1200500FA05F3EB
:1006000020FA04F001FA05F240EA020001F000428B
:1006100021F0004110EBD37021FA04F642EB060101
:100620005EEA430E08BF20EAD37070BDC4F10C042B
:10063000C4F1200500FA04F320FA05F001FA04F2EF
:1006400040EA020001F0004110EBD37041F10001DB
:100650005EEA430E08BF20EAD37070BDC4F12005E6
:1006600000FA05F24EEA020E20FA04F301FA05F24E
:1006700043EA020321FA04F001F0004121FA04F2F6
:1006800020EA020000EBD3705EEA430E08BF20EAC6
:10069000D37070BD94F0000F0FD101F00046400000
:1006A00041EB010111F4801F08BF013CF7D041EA82
:1006B000060195F0000F18BF704703F00046520086
:1006C00043EB030313F4801F08BF013DF7D043EA57
:1006D0000603704794EA0C0F0CEA135518BF95EA0D
:1006E0000C0F0CD050EA410618BF52EA4306D1D194
:1006F00081EA030101F000414FF0000070BD50EAB3
:10070000410606BF1046194652EA430619D094EA3C
:100710000C0F02D150EA013613D195EA0C0F05D126
:1007200052EA03361CBF104619460AD181EA03017A
:1007300001F0004141F0FE4141F470014FF0000032
:1007400070BD41F0FE4141F4780170BD70B54FF0CD
:10075000FF0C4CF4E06C1CEA11541DBF1CEA13554D
:1007600094EA0C0F95EA0C0F00F0A7F8A4EB05042F
:1007700081EA030E52EA03354FEA013100F0888026
:100780004FEA03334FF0805545EA131343EA1263EF
:100790004FEA022245EA111545EA10654FEA0026A4
:1007A0000EF000419D4208BF964244F1FD0404F55D
:1007B000407402D25B084FEA3202B61A65EB0305B9
:1007C0005B084FEA32024FF480104FF4002CB6EB76
:1007D000020E75EB030E22BFB61A754640EA0C00F6
:1007E0005B084FEA3202B6EB020E75EB030E22BF36
:1007F000B61A754640EA5C005B084FEA3202B6EB77
:10080000020E75EB030E22BFB61A754640EA9C0035
:100810005B084FEA3202B6EB020E75EB030E22BF05
:10082000B61A754640EADC0055EA060E18D04FEAC3
:10083000051545EA16754FEA06164FEAC30343EA63
:1008400052734FEAC2025FEA1C1CC0D111F4801F30
:100850000BD141EA00014FF000004FF0004CB6E729
:1008600011F4801F04BF01430020B4F1FD0C88BFC8
:10087000BCF5E06F3FF6AFAEB5EB030C04BFB6EBD3
:10088000020C5FEA500C50F1000041EB045170BDC6
:100890000EF0004E4EEA113114EB5C04C2BFD4EBF3
:1008A0000C0541EA045170BD41F480114FF0000E77
:1008B000013C90E645EA060E8DE60CEA135594EAF3
:1008C0000C0F08BF95EA0C0F3FF43BAF94EA0C0FF6
:1008D0000AD150EA01347FF434AF95EA0C0F7FF46B
:1008E00025AF104619462CE795EA0C0F06D152EABF
:1008F00003353FF4FDAE1046194622E750EA4106A3
:1009000018BF52EA43067FF4C5AE50EA41047FF4B3
:100910000DAF52EA43057FF4EBAE12E74FF0FF3C18
:1009200006E000BF4FF0010C02E000BF4FF0010CE9
:100930004DF804CD4FEA410C7FEA6C5C4FEA430C62
:1009400018BF7FEA6C5C1BD001B050EA410C0CBFB1
:1009500052EA430C91EA030F02BF90EA020F002013
:10096000704710F1000F91EA030F58BF994208BF7A
:1009700090422CBFD8176FEAE37040F00100704737
:100980004FEA410C7FEA6C5C02D150EA013C07D18E
:100990004FEA430C7FEA6C5CD6D152EA033CD3D0D9
:1009A0005DF8040B704700BF8446104662468C46D3
:1009B0001946634600E000BF01B5FFF7B7FF002806
:1009C00048BF10F1000F01BD4DF808EDFFF7F4FF2F
:1009D0000CBF012000205DF808FB00BF4DF808EDBA
:1009E000FFF7EAFF34BF012000205DF808FB00BFDD
:1009F0004DF808EDFFF7E0FF94BF012000205DF8FF
:100A000008FB00BF4DF808EDFFF7CEFF94BF0120B3
:100A100000205DF808FB00BF4DF808EDFFF7C4FFAC
:100A200034BF012000205DF808FB00BF4FEA410CF5
:100A30007FEA6C5C02D150EA013C0AD14FEA430CD8
:100A40007FEA6C5C02D152EA033C02D14FF0000015
:100A500070474FF0010070474FEA410212F5001253
:100A600015D211D56FF47873B3EB625212D94FEAF5
:100A7000C12343F0004343EA505311F0004F23FADF
:100A800002F018BF404270474FF00000704750EA34
:100A9000013005D111F0004008BF6FF000407047F1
:100AA0004FF00000704700BF4A0011D212F500124B
:100AB00011D20DD56FF47873B3EB62520ED44FEAB6
:100AC000C12343F0004343EA505323FA02F0704736
:100AD0004FF00000704750EA013002D14FF0FF3074
:100AE00070474FF00000704753B94AB9002908BF5A
:100AF00000281CBF4FF0FF314FF0FF3000F00CB862
:100B0000ADF1080C6DE904CE00F010F8DDF804E05A
:100B1000DDE9022304B07047704700BF034613F8B5
:100B2000012B002AFBD1181A013870472DE9F04734
:100B300086468C460846089E154674461946002B84
:100B400040F0C2808542B2FA82F245D94AB1C2F180
:100B5000200300FA02FC2EFA03F3954043EA0C0C42
:100B600094404FEA154EA8B2BCFBFEF8230C0EFBD6
:100B700018CC08FB00F943EA0C43994528D9EB1837
:100B800008F1FF3704D2994502D9A8F102072B4496
:100B9000A3EB0903A4B2B3FBFEFC0EFB1C330CFB5E
:100BA00000F044EA0344A04214D92C190CF1FF339D
:100BB00004D2A04202D9ACF102032C44241A43EA25
:100BC00007401EB1D440002334607360BDE8F08755
:100BD0004746DDE76346F1E792BB431B01214FEA3D
:100BE000154EAFB2B3FBFEFC200C0EFB1C330CFB0E
:100BF00007F840EA0343984562D9EB180CF1FF303F
:100C000004D2984502D9ACF102002B44A3EB0803AF
:100C1000A4B2B3FBFEFC0EFB1C330CFB07F744EA4B
:100C20000344A7424ED92C190CF1FF3304D2A7423A
:100C300002D9ACF102032C44E41B43EA0040C0E7B4
:100C4000C2F1200320FA03F1954090402EFA03F3FD
:100C500003434FEA154EAFB2B1FBFEFC0EFB1C1076
:100C6000190C0CFB07F841EA0041884504FA02F42C
:100C700022D969180CF1FF3004D2884502D9ACF1B1
:100C800002002944A1EB08019BB2B1FBFEFC0EFB64
:100C90001C110CFB07F743EA01439F420ED9EB18E6
:100CA0000CF1FF3104D29F4202D9ACF102012B4476
:100CB000DB1B41EA004192E76046E3E76146F7E764
:100CC0006046A3E76346B7E7834206D916B9002119
:100CD00008467BE7C6E900E0F9E7B3FA83F78FB986
:100CE000834201D3724508D8BEEB020460EB0303D4
:100CF00001209C461EB9002168E73846FAE7C6E99C
:100D0000004CF8E7C7F1200CBB4022FA0CF41C435E
:100D10002EFA0CF120FA0CF3B84001434FEA1449C3
:100D20000EFA07F5B3FBF9F81FFA84FE09FB183039
:100D30000B0C08FB0EFA43EA00439A4502FA07F24D
:100D400040D9E31808F1FF3004D29A4502D9A8F13E
:100D500002002344A3EB0A0389B2B3FBF9F809FBB1
:100D6000183308FB0EFE41EA03418E452CD9611869
:100D700008F1FF3304D28E4502D9A8F102032144C1
:100D800043EA0040A0FB0298A1EB0E014145CE468C
:100D9000434602D306D14D4504D2B9EB020E68EBAF
:100DA00004030138002EA6D0B5EB0E0261EB03015F
:100DB00001FA0CFC22FA07F34CEA0303F940C6E9F6
:100DC000003198E74046C5E74346D9E700000000F8
:100DD000D0B500F0D9FF0446194B1860FFF712FB9D
:100DE00011A3D3E90023FFF787FB11A3D3E9002365
:100DF000FFF7ACFCFFF758FE241A124B1868FFF7F8
:100E000011FB0DA3D3E90023FFF776FB06460F463F
:100E10002046FFF7F7FA32463B46FFF7B7F9FFF7F0
:100E200043FED0BDAFF300801C7C61325556C340F9
:100E3000000000000088C340802D6ABFFB5784413A
:100E4000746F0020706F002008B501F0D5FE0346D6
:100E5000002811DB43F3CF101930FFF7E3FA08A3A2
:100E6000D3E90023FFF748FB0022074BFFF78EF979
:100E7000FFF7F2FD00B208BD00F17F03EAE700BF13
:100E8000CDCCCCCCCCCCFC3F0000404000000000DE
:100E90002DE9F04F476A97B014461D46CDE9044549
:100EA000239E83467FB9102008F094FF0246CBF8BA
:100EB000240020B9A24BEA21A24809F0EFFFC0E9C3
:100EC00001770760C760DBF82430196859B15A68A8
:100ED0004A60012393408B60584609F00BFCDBF815
:100EE000243000221A602B1EB9BF23F00043059363
:100EF00000233360059F944BBCBF01223260BB438B
:100F000019D1229A42F20F731360C7F313032343DC
:100F100000F0E285249B53B98C4B21E08C4B089365
:100F20000833249A1360089817B0BDE8F08F874BF8
:100F300008930333F5E7DDE90423CDE90C23DDE96C
:100F40000C0100220023FFF73FFD804650B1229A9A
:100F500001231360249B13B1249A7E4B13607E4BB4
:100F60000893E0E714AB019315AB00935846DDE915
:100F70000C2309F03FFEC7F30A560390002E7AD0E7
:100F80000D9BCDF84C80C3F31303DDE90C0143F056
:100F90007F5343F44013A6F2FF36194600226F4BED
:100FA000FFF7F2F860A3D3E90023FFF7A5FA60A3E7
:100FB000D3E90023FFF7EAF8044630460D46FFF771
:100FC00031FA5DA3D3E90023FFF796FA02460B46F8
:100FD00020462946FFF7DAF804460D46FFF73CFDA8
:100FE00000220746002320462946FFF7F7FC40B1C0
:100FF0003846FFF717FA22462B46FFF7E5FC00B903
:10100000013F162F54D8564B03EBC703D3E90023F7
:10101000DDE90C01FFF7E2FC00284BD0013F002383
:101020001293149B9B1B5A1E45BFC3F101030693E9
:10103000002300230A9254BF06930A93002F3BDB40
:101040000A9B0F973B440A9300230B93209B092B89
:1010500000F28A80052BC4BF043B2093209BA3F1A0
:101060000203CCBF00240124032B00F28880DFE8B8
:1010700003F02B383657DDE914631E4406F2324381
:10108000202BC1BFC3F140039F4006F2124324FA54
:1010900003F3D6BFC3F1200347EA030004FA03F0C9
:1010A000FFF7B0F90122A1F1F873013E139274E742
:1010B0000123B5E71290B4E7069BDB1B06937B4246
:1010C0000B9300230F93C1E700230E93219B002B6A
:1010D00058DC0123099399461A4621920CE001231A
:1010E000F3E700230E93219BFB1803F101090993F9
:1010F0004B46012BB8BF0123DBF82400002104225A
:1011000002F114059D4241D94160584609F0B2FAF6
:10111000089000283DD1134B02464FF4D571CBE621
:101120000123DFE7AFF3008061436F63A787D23FFE
:10113000B3C8608B288AC63FFB799F501344D33FC6
:10114000020F0100190F01000000F07FFE0E0100E8
:10115000F50E0100D20E0100D10E01000000F83F93
:1011600090FE0000750F01000124002320930E94CF
:101170004FF0FF330993994600221223ADE7012374
:101180000E93F5E7219B09939946B5E7013152008B
:10119000B6E7DBF82430089A1A60B9F10E0F6FD861
:1011A000002C6DD0002F36DDA14B07F00F0203EBB2
:1011B000C203D3E90034F805CDE910344FEA27140F
:1011C00017D59C4BDDE90C01D3E90823FFF7BEFAE4
:1011D000CDE9040104F00F044FF00308954D5CB90C
:1011E000DDE91023DDE90401FFF7B0FACDE90401E0
:1011F0002BE04FF00208F1E7E10709D5DDE9100126
:10120000D5E90023FFF778F9CDE9100108F10108CD
:1012100064100835E3E700F007817C42844B854D7C
:1012200004F00F0203EBC203D3E90023DDE90C0154
:10123000FFF762F9CDE90401241100234FF0020801
:10124000002C40F0E580002BD0D1129BDDE9044555
:10125000002B00F04C81784B002220462946FFF7F6
:10126000BDFB002800F04381B9F1000F00F03F8181
:10127000099B002B00F3E480DDE90C34CDE9043454
:10128000159B002B02DB0E2F40F342820E9A002AA0
:1012900040F067820B9CDDF818800025B8F1000F44
:1012A0000DD00A9B002B0ADD4345069AA8BF434692
:1012B000D21A06920A9AA8EB0308D31A0A930B9B38
:1012C0000BB30E9B002B00F0A682002C00F0A18235
:1012D00029462246584609F035FB039A0146054641
:1012E000584609F085FA03990646584609F002FA6D
:1012F0000B9B1B1B0B9300F091820B9A31465846B7
:1013000009F020FB03900121584609F05BFA0F9B7E
:101310000446002B00F084821A460146584609F024
:1013200011FB209B012B044603DC049B002B00F0E7
:101330007C820026236904EB830318690EF044F9CC
:101340000F96C0F120000A9B184410F01F0000F017
:101350009182C0F12003042B40F38182069BC0F1EF
:101360001C00034406930A9B034480440A93069B93
:10137000002B05DD03991A46584609F03DFB039002
:101380000A9B002B05DD21461A46584609F034FB1E
:101390000446129B002B00F07682039821460EF043
:1013A00062F9002880F26F82002303990A225846CE
:1013B00009F0C2F90E9B03907E1E002B00F05C82A8
:1013C000002329460A22584609F0B6F9099B002B4A
:1013D000054603DC209B022B00F35E82B8F1000F70
:1013E00005DD29464246584609F006FB05460F9B97
:1013F000002B00F0D0826968584609F03BF9074697
:10140000002840F07F820D4B024640F2EA2153E56E
:10141000E20706D5D5E90023FFF76EF808F10108C9
:101420000123641008350BE74FF002080DE700BFF9
:1014300090FE000068FE00000000F03F750F010004
:101440002046AD4B00222946FFF756F8CDE90401AE
:10145000099C7E1E08F101084046FEF7E3FFDDE926
:101460000423FFF749F8A54B0022FEF78FFEA1F1F8
:101470005073CDE910011193002C3BD1DDE904013B
:101480009F4B0022FEF780FE02460B46CDE9042367
:10149000DDE91023FFF7C0FA002840F05781DDE9AD
:1014A000102101F10043DDE90401FFF797FA00285C
:1014B0003FF4E2AE00242546219BDDF820A0DE4368
:1014C0004FF000082146584609F014F9002D00F0AD
:1014D000A980B8F1000F05D0A84503D04146584671
:1014E00009F008F92946584609F004F99AE03E4601
:1014F0004C46B1E7834B03EBC40353E90201089B5D
:101500001C440E9B002B4AD002460B4600207E490D
:10151000FFF71CF9DDE91023FEF736FECDE91001D7
:10152000DDF820A0DDE90401FFF796FA0546FEF795
:1015300079FF02460B46DDE90401FEF725FE303552
:10154000CDE9040102460B460AF8015BDDE9100112
:10155000FFF762FA002865D1DDE904236B4900201A
:10156000FEF712FE02460B46DDE91001FFF754FAC2
:10157000002840F00D81A24500F0EA80DDE910016D
:101580005D4B0022FEF7B8FF5B4BCDE91001002256
:10159000DDE90401FEF7B0FFCDE90401C2E7DDE9B2
:1015A0001023FEF7A9FFCDE91001DDF820A0A04629
:1015B000DDE90401FFF750FA0546FEF733FF024666
:1015C0000B46DDE90401FEF7DFFD30350AF8015B6B
:1015D00002460B46A245CDE904234FF0000223D179
:1015E000494BDDE91001FEF7D1FD02460B46DDE96E
:1015F0000401FFF711FA002840F0CA80DDE910234A
:1016000041490020FEF7C0FD02460B46DDE904011A
:10161000FFF7E4F970B1C24608F1FF381AF8013C4F
:10162000302BF8D0374655E0334BFEF765FFCDE958
:101630000401BDE7DDE90C34CDE90434159B002B32
:10164000FFF628AE0E2F3FF725AE2E4B03EBC70358
:10165000D3E90034CDE90634219B002B02DAB9F13D
:10166000000F64D0DDE90445DDF820A0DDE90623A4
:1016700020462946FFF76AF8FFF7EEF90646FEF71F
:10168000D1FEDDE90623FEF737FF02460B46204672
:10169000294606F13004FEF777FD0AF8014B089C55
:1016A000AAEB0404A14502460B4640F08280FEF7F7
:1016B0006DFDDDE9062304460D46FFF7ADF9002870
:1016C00065D1DDE9062320462946FFF77DF908B1FB
:1016D000F3075CD40399584609F00CF800238AF804
:1016E0000030229B01371F60249B002B3FF41BAC72
:1016F000C3F800A017E400BF0000244000001C4015
:101700000000144090FE00000000E03F0000F03FA9
:10171000A24B03EBC703D3E90034CDE90634219B88
:10172000002B9FDAB9F1000F9CDC7FF4C3AE9C4B19
:101730000022DDE90601FEF7DFFEDDE90423FFF705
:1017400061F9044600287FF4B5AE3E462546B4E074
:10175000DDE90C34CDE90434159B002B01DB0E2FA1
:10176000D6DD209A012A36DC139A82B303F2334382
:101770000B9CDDF81880069A1A4406920A9A0121F9
:101780001A4458460A9209F01DF8054686E53E4679
:1017900053469A4613F8012D392A06D1089A9A42DF
:1017A000F7D10899302201360A701A7801321A707E
:1017B00038E77C4B0022FEF79FFE00220023044600
:1017C0000D46FFF701F900283FF450AF82E7149B64
:1017D000C3F13603CCE70B9B09F1FF34A34208DBCE
:1017E000B9F1000FA3EB04040EDBDDF818804B46C3
:1017F000C1E70B9B0F9A0B94E31A1A44DDF818808B
:101800000F924B460024B6E7069BA3EB0908002382
:10181000B1E7039E71E50B9A039970E5039672E5B3
:10182000209B012B17DC049BABB9059BC3F313036F
:101830009BB9059B23F00046360D360536B1069B55
:10184000013306930A9B01330A9301260F9B002B59
:101850007FF470AD0F96012075E50026F6E73FF4A2
:1018600086AD069A1C331A4406920A9A1A44984482
:101870000A927CE50346F4E7099B002B2BDC209BB6
:10188000022B09DC27E0B9F1000F1DDC209B022BA5
:101890001ADDCDF824903E46099B002B7FF40CAE58
:1018A00021460522584608F047FF014604460398A2
:1018B0000DF0D9FE00287FF7FFADDDF820A0312321
:1018C0000AF8013B0136FBE50E9BCDF824903E461D
:1018D000002B7FF483AD089F039821460DF0ECFDAB
:1018E00000F1300907F8019B089B099AFB1A9A42FC
:1018F00040F3CB80039900230A22584608F01CFFCE
:101900000390E9E72A690232920005F10C010C30DC
:101910000DF08FFC01223946584609F06DF8089BFE
:1019200003F1010ADDE9082313440A93049B03F041
:101930000103A8460B9305460AF1FF33214603989D
:1019400006930DF0B9FD4146099000F13009039866
:101950000DF089FE2A4621460746584609F0B8F898
:10196000C268014602B3584608F0C4FE002F3ADAB6
:1019700003990122584609F03FF8214603900DF0E3
:1019800072FE002803DC29D119F0010F26D0B9F12D
:10199000390F1DD132E02846C1E700BF90FE00009C
:1019A00000001440000024400E9003980DF05BFEF0
:1019B0000E990C90584608F09DFE0C9A5ABB209B3D
:1019C00053B90B9B43B9B9F1390F17D0002F05DD7F
:1019D000099B03F1310901E0002F2ADADDF818A094
:1019E0000AF8019B6EE5209B3B4304D1049B03F066
:1019F0000103002BBCD0B9F1390F36D1069F392332
:101A000007F8013BBA46013F1AF8013C392B5BD07D
:101A100001333B7056E5002F06DB209B3B4306D18C
:101A2000049B03F0010313B9002AA1DCD6E7002AC6
:101A3000E1DC0A9B0AF8019C534557462FD00399D5
:101A400000230A22584608F077FEA84503904FF07D
:101A500000034FF00A02414658460BD108F06CFED5
:101A6000804605460AF1010A66E7DDF818A009F18B
:101A70000109B5E708F060FE2946804600230A22E6
:101A8000584608F059FE0546ECE7099B002BC8BFF5
:101A90001F46089BD8BF01271F444FF00008039939
:101AA0000122584608F0A8FF214603900DF0DBFD07
:101AB0000028A7DC02D119F0010FA3D1BA4617F80C
:101AC000013D302BFAD0FDE4089BBB429AD1089A25
:101AD000312301361370F5E4249B002B7FF41EAAFA
:101AE000014BFFF73DBA00BFF50E010008B54FF0FE
:101AF000FF324FF0FF33024806F000FFF7E700BF68
:101B0000AC53002008B54FF0FF324FF0FF330248CE
:101B100006F0F4FEF7E700BFDC53002008B54FF0F5
:101B2000FF324FF0FF33054806F0E8FE044B1B6818
:101B3000012BF4D100F02EFFF1E700BFC4530020C9
:101B4000A06F002000B591B03C22002101A80DF04B
:101B50007EFB9DF81120022363F305028DF811200E
:101B6000274A05929DF8252063F305028DF825206C
:101B7000244A0A929DF8392063F305028DF8392032
:101B8000214B0F934FF0FF324FF0FF33032101A899
:101B900008F086F8049B03F4FE13B3F5004F13D04E
:101BA000099B03F4FE13B3F5004F1DD00E9B03F405
:101BB000FE13B3F5004FC7D100220023124806F0F0
:101BC0009DFE00F01BFFBFE7002200230C4806F03B
:101BD00095FE012000F078FA0C4A03210C480BF026
:101BE0009FF800F00BFFDBE700220023054806F01A
:101BF00085FE084B00221A6000F000FFD6E700BF08
:101C00004C530020645300207C53002058FF0000F8
:101C1000BCFD0000686F00202DE9F04389B000F0A2
:101C200021FA0A21012009F00EFE00F08FFA0121AD
:101C3000084609F0FEFD3F4B1B68012B77D00021C1
:101C4000012009F0F6FD00F01DF93B4D3B4A032150
:101C500028460BF065F83A4A032128460BF060F855
:101C600000260027DFF8DC90CDE906670024049405
:101C70004FF00708CDF80C80029401940094324B89
:101C80004FF40062314948460CF002FF30494846A3
:101C900006F0F2FFDFF8BC90CDE906670494CDF8BA
:101CA0000C800294019400942B4B4FF400622B495A
:101CB00048460CF0EDFE2A49484606F0DDFFDFF805
:101CC000A490CDE906670494CDF80C8002940194A9
:101CD0000094254B4FF48062244948460CF0D8FE0E
:101CE0002349484606F0C8FFDFF88880CDE906673B
:101CF0000494052303930294019400941E4B4FF423
:101D000000621E4940460CF0C3FE1D49404606F0E5
:101D1000B3FF1C4A032128460BF002F809F024FD0A
:101D20004FF0FF304FF0FF310CF0E7FFF8E700F025
:101D30001FFE84E7A06F0020BCFD000060FF0000D4
:101D400078FF000020560020ED1A000008860020D1
:101D500098FF0000685500201D1B0000087E002031
:101D6000A8FF0000B0540020051B0000087A0020E6
:101D7000B4FF0000F8530020451B0000087200204B
:101D8000C4FF0000D4FF0000054B1B681BB1054ACF
:101D90001368013313600020014B1860704700BFC7
:101DA0006C6F0020706F002000B583B009F04DFC0F
:101DB000174BA3FB00235B0D8DF80030154A02FB87
:101DC0001300154BA3FB00239B0B8DF801304EF63F
:101DD000602202FB1300114BA3FB003080098DF839
:101DE0000200009BADF804301B0C8DF8063000207B
:101DF0009DF8043063F307009DF8053063F30F206E
:101E00009DF8063063F3174003B05DF804FB00BF94
:101E1000B17C219580EE360073B2E745D34D621058
:101E200038B5836805699C697CB112F4000F06D04F
:101E30002D6801238B401D4201D082F0C062044B0B
:101E4000134002F0B072A04738BD6FF05700FBE7B7
:101E50004000000608B5024806F008FD08BD00BFB6
:101E60007C53002008B5024806F000FD08BD00BF05
:101E70006453002008B5024806F0F8FC08BD00BF16
:101E80004C53002038B51F4C4FF48031204609F0E8
:101E900056FC4FF0B861204609F021FC1A491B4B53
:101EA0004B604FF400638B60194C204609F052FCE4
:101EB000184D4FF48031284609F041FC4FF0B861CD
:101EC000284609F00CFC1449144B4B604FF4805326
:101ED0008B60204609F03EFC114D4FF480312846BE
:101EE00009F02DFC4FF0B861284609F0F8FB0D49C8
:101EF0000D4B4B604FF400538B60204609F02AFCD9
:101F000038BD00BF18000100906F0020751E000052
:101F100044FB000010000100846F0020651E0000DB
:101F200008000100786F0020551E000010B582B037
:101F3000144C2168012009F07CFC134B1A68013213
:101F40001A602368B3FA83F35B092360072A0FDD65
:101F500000210D4B1960012009F06BFC4FF4802229
:101F60000023CDE90023094807F040FE02B010BD70
:101F700040F267620023CDE90023044807F036FEF3
:101F8000F4E700BF000000209C6F002030520020CA
:101F900008B5024806F06AFC08BD00BFAC5300203B
:101FA00008B5024806F062FC08BD00BFC45300201B
:101FB00008B5024806F05AFC08BD00BFDC530020FB
:101FC00010B582B003282FD8DFE800F0020D1822E8
:101FD0004FF480220023CDE90023144807F006FEC9
:101FE000012002B010BD04464FF490220023CDE939
:101FF00000230F4807F0FAFD2046F2E740F267623F
:102000000023CDE900230B4807F0F0FD0120E8E7AD
:102010004FF49022002300200021CDE90001064862
:1020200007F0E4FD0120DCE70020DAE73052002071
:1020300068520020A0520020D8520020022807D069
:10204000032807D0012801D00020704702487047BC
:102050000248704702487047300001002800010024
:102060002000010010B514480CF000FC08B9002055
:1020700010BD11480CF0FAFB08B90020F8E70E4833
:102080000CF0F4FB08B90020F2E74FF4B0110B4854
:1020900009F09DFB04464FF4B011094809F097FB85
:1020A00004434FF4B011074809F091FB044301D4F5
:1020B0000120DDE70020DBE744FB000030000100E9
:1020C000280001002000010038B5FFF7B7FF0546E2
:1020D000002406E0284609F0A2FB064807F0CAF9EA
:1020E00001340B2CF6DD00222979286809F08AFBDF
:1020F00038BD00BFA0860100F8B5124F0B2138464D
:1021000009F0F9FB04460C21384609F0F4FB0646B9
:102110000D21384609F0EFFB05460E21384609F03F
:10212000EAFB04F00104760006F002063443AD0039
:1021300005F004052C43C00000F008002043024BCA
:102140001870F8BD44FB0000F671002010B5194866
:102150000CF08CFB30B317480CF088FB10B315481B
:102160000CF084FBF0B113480CF080FBD0B14FF4BD
:102170008031114809F0A8FB04464FF480310F4824
:1021800009F0A2FB04434FF480310D4809F09CFB99
:1021900004434FF480310B4809F096FB044304D00C
:1021A000204610BD6FF01204FAE7FFF7A5FF064BBB
:1021B0001870F5E744FB00005000010048000100E2
:1021C0004000010038000100F67100200C3814288E
:1021D00016D8DFE800F00B151515171515150D1598
:1021E00015150F151515111515151300064870470F
:1021F00006487047064870470648704706487047CB
:102200000348704705487047004A0020783700208F
:10221000A4270020301500201C000020AC44002022
:10222000844650B101EB4103054AA2FB032301EBB5
:10223000D3000CFB00F00A3070470220704700BF4B
:10224000CDCCCCCC074B1B88013B074A1380002226
:10225000064B1A80064B1B88013B06490B80064B38
:102260001A8070479E510020EE710020EC71002012
:102270009C510020EA710020E8710020104B1B885F
:1022800083421BD90F4B1B888B4217D90E4B1B88DF
:10229000834201D90C4B18800C4B1B88834201D21E
:1022A0000A4B18800A4B1B888B4201D9084B1980B6
:1022B000084B1B888B4201D2064B1980704700BF28
:1022C0009E5100209C510020EE710020EC710020F6
:1022D000EA710020E871002010B586B0234B188801
:1022E000234B1A881044234B1988234B1B8819440D
:1022F000224C24882244224CB4F800C063444FF09E
:102300002A0C8DF810C0C0F3072C8DF811C08DF881
:102310001200C2F307208DF813008DF814202B2231
:102320008DF80820C1F307228DF809208DF80A10D6
:10233000C3F307228DF80B208DF80C302C238DF879
:10234000043004A9052009F048FB02A9052009F082
:1023500044FB01A9012009F02CFB0A49022009F0E5
:1023600032FBFFF76FFF06B010BD00BFEE7100201B
:10237000F2710020EA710020F0710020EC71002061
:10238000E8710020AC6F002008B5094B1B88834220
:1023900003D9084B1B888B4200D808BD064B1A880E
:1023A000064B1A80FFF76AFFFFF796FFF5E700BFBD
:1023B0009E5100209C510020A86F0020AC6F00208F
:1023C00008B5094B1B88834203D9084B1B888B42F5
:1023D00000D808BD064B1A88064B1A80FFF74EFF3F
:1023E000FFF77AFFF5E700BF9E5100209C510020C7
:1023F000A46F0020AC6F002008B501221E21024806
:1024000009F0C0FA08BD00BF44FB000008B5002277
:102410001E21024809F0B6FA08BD00BF44FB0000C7
:1024200000B585B00291039002AB009301230193A4
:102430006946034809F0B3FA05B05DF804FB00BF34
:10244000040000200A4B1860002301E00133DBB2D6
:1024500000EB8302B2F8052012F0FF0FF6D1002B3B
:10246000F4D09B0006331844014B5860704700BFFE
:10247000B06F002030B51D4B1C6863784FEAD30E57
:1024800013F0070F01D00EF1010E0022944614E064
:10249000814205D804EB8305B5F80750854218D270
:1024A00004EB8303B3F807305B1A1CFA83F39BB287
:1024B00001331FFA83FC013292B2134604EB82010E
:1024C000B1F8051011F0FF0FE2D1002AE0D0002092
:1024D00030BD431A1CFA83F39BB2044A506803FBD5
:1024E0000EFE237803FB0E00F2E700BFB06F002062
:1024F0002DE9F843804689461046FFF7BBFF0028C8
:1025000035D00026054637462AE007EB090104EBE3
:10251000080089B280B2FFF737FF0134E4B2154BEF
:102520001B685B78A34219D914F0070F01D115F885
:10253000016BE34303F0070346FA03F313F0010FC3
:10254000E3D10D4B1B78002BE7D107EB090104EB1E
:10255000080089B280B2FFF733FFDEE70137FFB230
:10256000044B1B681B78BB4201D90024D7E7BDE8A8
:10257000F88300BFB06F0020F771002070B50546EA
:102580000E46144609E0013431462846FFF7B0FFF5
:10259000044B1B685878284485B22278002AF2D16F
:1025A00070BD00BFB06F002000B589B003909DF8EA
:1025B0000E3000939DF80D309DF80C20064904A8BC
:1025C00008F028F814231A46022104A809F0B5F9E6
:1025D00009B05DF804FB00BF7000010000B585B0D4
:1025E00002460649684608F015F814231E22032106
:1025F000684609F0A2F905B05DF804FB800001000F
:1026000000B585B002460649684608F003F8142371
:102610000C220421684609F090F905B05DF804FB2E
:102620008C00010030B58BB00446144DB0F9002089
:10263000294607A807F0EEFFB4F90420294604A8AC
:1026400007F0E8FFB4F90620294601A807F0E2FFE9
:1026500009F072F914230822002107A809F05BF998
:1026600014230822012104A809F055F91423082293
:10267000022101A809F04FF90BB030BDF8040100A8
:1026800010B582B004460A460949684607F0C2FF01
:1026900009F052F914230C220221204609F03BF9DB
:1026A00014230C220321684609F035F902B010BD4D
:1026B000F80401000023024A1360024A13607047C5
:1026C000C06F0020BC6F002010B54B4201F0030426
:1026D00003F0030358BF5C42434200F0030103F0E0
:1026E000030358BF5942102300220131044809F066
:1026F00024F910230022611C024809F01EF910BDC4
:10270000F000010098000100F8B5074605460028D2
:1027100009DBAD10124B1B68002B06DBB5EBA30FDA
:1027200005D0002411E0C51CF3E70333F6E771B1CF
:1027300000240AE004EB850C013410230C2221460E
:10274000084E56F82C0009F0F8F8032CF2DD064B81
:1027500000221A70024B18683946FFF7B5FFF8BD22
:10276000B86F0020044F0020F971002008B5054B18
:1027700018680121FFF7C8FF0023034A1360034ACA
:10278000137008BDC06F0020BC6F0020F9710020DD
:1027900038B505460C4609F0CFF804EB8504024B2A
:1027A00053F82430984738BD044E00200D4B1A686A
:1027B0000D4B1A60B0F1FF3F02D0012809D07047DD
:1027C000084B1B68002BFAD0064A1368013B1360C4
:1027D000F3E7044B1B68032BF1D0024A1368013363
:1027E0001360ECE7C06F0020B86F00202DE9F843BC
:1027F0000746884616460C46002916DBA4103846C4
:1028000009F0FDF84FEA8409A0EB8405042D00DDF2
:1028100004251B4B1B68002B09DBB4EBA30F00D175
:10282000BEB109F089F8002411E0CC1CE6E70333BF
:10283000F3E7144B53F8276009EB040C14230C2224
:102840002146162000FB0C6009F077F80134A54200
:10285000EFDCD8F1000208F0030302F0030258BFD6
:102860005342AB4206DA064B18684146FFF72CFF8D
:10287000BDE8F883024B1868691EFFF725FFF7E7EC
:10288000B86F0020444E002008B5104B1A68104B5A
:102890001A60B0F1FF3F02D0012809D008BD0B4BF0
:1028A0001B68002BFAD0094A1368013B1360F3E759
:1028B000084B186809F0A3F80138044B1B689842CC
:1028C000ECD0024A136801331360E7E7BC6F0020C5
:1028D000B86F0020C06F002008B5204B1B7833B3C1
:1028E0001F4B1B7883B1022806D01E4B18681E4B65
:1028F0001968FFF74DFF23E0194B00221A7000F012
:102900009FF8FFF733FF1BE0022809D0FFF7BCFF59
:10291000144B1868144B19680022FFF767FF0FE08B
:102920000F4B01221A70114806F0A4FD08E002289E
:1029300007D0FFF73BFF0B4B18680021FFF7E4FEC1
:1029400008BD0122054B1A70074B0021196005498B
:1029500008681968FFF74AFFF2E700BFF971002025
:10296000F8710020C06F0020BC6F0020400D0300F4
:1029700008B5054B01221A60FFF79CFE034A0321AC
:1029800003480AF0CDF908BDC46F0020C000010063
:10299000FCFD000000B583B0164B1B68012B06D070
:1029A000144B1B68022B20D003B05DF804FB08F029
:1029B00078FE8DF80400C0F307238DF80530C0F3CE
:1029C00007408DF806000198FFF7EEFD0A4B1B78D3
:1029D000002BE9D041F21B00FFF700FE4620FFF775
:1029E0000FFE054B00221A70DEE70020FFF774FF90
:1029F000DAE700BFC46F0020A051002008B50F4BDC
:102A00001B68022B00D008BDFFF776FB012809D018
:102A100002280AD004280DD00828F4D10220FFF79C
:102A20005BFFF0E7FFF758FFEDE74FF0FF30FFF7F0
:102A300053FFE8E70220FFF74FFFE4E7C46F0020F1
:102A4000014B00221A607047C86F002038B514236C
:102A50000C220021364808F070FF14230C220121BB
:102A6000344808F06AFF344B1868FFF79DFD334B7C
:102A70001B687BB1012B14D0022B19D00025032435
:102A80002F4B9D421BDAFFF737FB0446032816D174
:102A90000135F5E714230C2200212A4808F03BFFFA
:102AA000ECE714230C220021274808F034FFE5E767
:102AB00014230C220021254808F02DFFDEE7022C0C
:102AC00012D014230C220021194808F024FF1423EB
:102AD0000C220121174808F01EFF174B1868FFF75A
:102AE00063FD012C19D038BD144B1B684BB1012B71
:102AF0000DD0022BE5D1104DA87808F0C0FDA870CC
:102B0000DFE70D4D287808F0C0FD2870D9E70A4DA1
:102B1000687808F0C0FD6870D3E7084A136801338D
:102B20001360022BDFDD134600221A60DBE700BFD3
:102B3000E0000100E8000100CC6F0020C86F002019
:102B4000A0252600F4000100FC00010004010100A2
:102B500070B532211548FFF793FD4FF4FA6008F085
:102B600058FF3224012603E0013CE4B2012595B967
:102B7000D6B142F2107006F07DFCFFF7BDFA0128D5
:102B8000F2D0022803D00028F1D10026EFE701346B
:102B9000E4B20125EBE721460448FFF771FD20462A
:102BA00008F0DFFE0025E3E770BD00BF0C01010067
:102BB00008B50020FEF748F901460248FFF760FD1E
:102BC00008BD00BF1801010010B588B0044601A976
:102BD000084B186808F021FDA6460DF1040CBCE86E
:102BE0000F00AEE80F009CE807008EE807002046C3
:102BF00008B010BDD06F002008B5024800F004F8FE
:102C000008BD00BFD856002010B582B004460DF1B3
:102C100007030122114909F028F810B100B202B0EF
:102C200010BD01AB02220E49204609F01EF804F542
:102C3000805090F84530102B07D09DF80500000219
:102C400000B29DF804301843E9E79DF80400000243
:102C500000B29DF805301843E1E700BF39000100DC
:102C600009000100B0B10C4A91420FD007D879B1E8
:102C7000013A914201D11830704700207047074A4D
:102C8000914201D11A3070470020704719307047C7
:102C90001B307047704700BF200001002100010079
:102CA00080B370B582B00446037F012B0FD00DF1C5
:102CB00007030122154908F0D8FF9DF8073003F0FB
:102CC00010038DF80730C3B94FF0FF3015E00F4EF9
:102CD0000DF107030122314608F0C7FF05469DF8B4
:102CE000073023F010038DF807300DF107030122A0
:102CF0003146204608F036FF2843237F013B2377E7
:102D000002B070BD6FF00A00704700BF1F000100E5
:102D1000F0B583B000284ED00546037FABBB294EEB
:102D20000DF107030122314608F09FFF04469DF88C
:102D3000073043F010038DF807300DF1070301222F
:102D40003146284608F00EFF044331D108F0B2FFA7
:102D500006460F460DF1070301224FF48031284645
:102D600008F083FF044618BB08F0A4FF801B61EB4A
:102D70000701154B83424FF000038B411ED39DF892
:102D8000073013F0080FE5D00FE00DF10703012223
:102D90000C4908F06AFF04469DF8073003F0100361
:102DA0008DF807300BB94FF0FF342B7F01332B77B1
:102DB000204603B0F0BD6FF00A04F9E76FF003049A
:102DC000F6E700BF1F00010040420F002DE9F04F61
:102DD00091B005920293134602F004020092C3F3ED
:102DE000C20210F00303019340F02B8280468A4612
:102DF0000132041D00284FD0B8F1000F05D0A4EB1C
:102E000008030433534500F21F82029B5D1E019BA1
:102E100004930693039300264FF0FF3B0427B94623
:102E2000B8F1000F01D0029B2360531E0793002AC4
:102E300040F35D81059B13F0020228D00120A4EB32
:102E400008018B081AB1B1F5007F80F00382039965
:102E50000F2900F20282B8F1000F00F06081DBB2AE
:102E600001F140026A4402F8103C02F820BC00283C
:102E700000F0518163F07F0301F140026A4402F8DF
:102E8000103C049B01330493039B013303930434EC
:102E90000022CC4640463DE001F0070A5444CAF106
:102EA000080AA9E7002634E0002632E0002630E0D8
:102EB0000827BC462DE025292BD10BF1010B01265B
:102EC0000427BC4625E04729EED82A2914D32A39FD
:102ED000C9B24FF0010E0EFA01F14FF6DA7E11EA97
:102EE0000E0F16D111F0625F40F0C08011F0010F9B
:102EF00040F08C8000260CE0252903D10BF1FF3B2C
:102F0000002606E001D9002603E0202901D023296C
:102F1000CCD11D466B1C6978002900F01981002E68
:102F2000C9D07A29BED84C29CDD34C392E2961D8A5
:102F30000FF2040E5EF821F0132F0000F52F0000B1
:102F4000F52F0000F52F0000F52F0000F52F0000F1
:102F5000F52F0000F52F0000F52F0000F52F0000E1
:102F6000F52F0000F52F000005300000F52F0000C0
:102F7000F52F0000F52F0000F52F0000F52F0000C1
:102F8000F52F0000F52F0000F52F00006D30000038
:102F9000F52F000005300000053000006D30000006
:102FA0006D3000006D300000132F00000530000070
:102FB000B12E0000F52F0000132F0000F52F0000A8
:102FC000C930000005300000C9300000F52F0000B6
:102FD000F52F0000D1300000FF2F00000530000069
:102FE000F52F0000F52F000005300000F52F000040
:102FF000F92F000000268CE70427BC4689E7042748
:10300000BC4686E729786C2924D000263C44013C44
:10301000B4FBF7F407FB04F420B1211A61445145D5
:1030200000F21581002A58D1BCF1040F00F088800D
:10303000BCF1080F40F014811A99073121F0070103
:1030400001F108051A95D1E9008908B1C4E90089A0
:1030500008345EE713F8021C6C2903D0002604270D
:10306000BC46D3E700260827BC46CFE729784C2981
:103070001AD01A99073121F0070101F108061A96B2
:10308000D1E90067073424F0070440B1211A083160
:10309000514513D829784C2913D0C4E90067083466
:1030A00000260827BC4634E71A99073121F00701AA
:1030B00001F108061A96D1E90067E3E76FF01B00FB
:1030C000BCE0C4E90067EAE700260427BC469DE7A8
:1030D000324600260427BC4698E7E14680461A9A05
:1030E000111D1A9112680292079A1D4698E6624BCA
:1030F000029A9A4204D3614B9A420AD3002300E019
:103100000023002B7FF496AE059B03F00202002003
:1031100095E60123F5E7069B01330693B4E610B16B
:103120000AF1010AB0E6009B13B10AF1020AABE60C
:103130000298FDF7F3FC0AEB000303F1020AA3E691
:103140001A990D1D1A95096800B121600434E0E652
:103150008046231AB3F5806F80F0858090B10022FD
:1031600002609B080370009B83B1069BC370049BA5
:1031700088F802301BBB019DDDF80C90DDF810B023
:10318000029F3DE05344A3F1080057E0069B4370C3
:10319000EDE701339842EED903F140026A4412F898
:1031A000101C12F9102C002AF3DA01F07F01A4EBB5
:1031B00008020132524559D804F8011BE9E7019B86
:1031C0000398E7E7009B43B305F140036B4413F812
:1031D000203C04F8013B019EA4EB08033344013377
:1031E000534546D805F140036B4413F8103C04F8EE
:1031F000013B3246394620460CF01BF83444013579
:10320000A94519D9BBF1000FDCD005F140036B448F
:1032100013F9103C002BD5DAF1E705F140036B44BC
:1032200013F8103C58F82370002248F82320384641
:10323000FDF774FC461CCFE7A4EB080011B0BDE815
:10324000F08F6FF00D00F9E76FF01B00F6E76FF0FD
:103250001B00F3E76FF01500F0E76FF01500EDE7E6
:103260006FF01500EAE76FF01500E7E76FF01B005D
:10327000E4E76FF01B00E1E7CCFA00003C1001002E
:103280002DE9F04F97B000AF8346BA613B61D7F8A4
:103290008030C3F3C0033B62F96011B908F02CFD24
:1032A000F8609BF80260B14636B1D7F8803013F071
:1032B000010F0DD1002300E000239BF803207A6268
:1032C00042B1D7F8802012F0020F22D1002202E092
:1032D0000123F2E7002202B9EBB19BF80050AA00EB
:1032E000BA60DBF804207A610BEB8505BA69F2B1AC
:1032F000002B40F00481B9F1000F00F00F81D7F8E6
:10330000803013F0040F40F00D810020F861064674
:10331000F9E00122DFE7BB691BB13A69F968584659
:103320009847FC6820465C37BD46BDE8F08FFC68D6
:10333000E3B94D4400233B6123E0044401350136E9
:103340004E451AD22A7800235BF822201946B86924
:1033500008F0E7FCBAF1000FEFD0D7F888309845B5
:10336000EBD22AF8180008F10108E6E70026C7F8B2
:103370001C80B046D7F884A0E2E7C7F81080D7F8E1
:103380001C80D7F8803003F00503FB604FF0000A83
:10339000A146C7F81CB09CE000253B6A7BB9002D14
:1033A00079D0D7F8803013F0010F79D1FB68002B6A
:1033B0006FD10223A9EB030988E00125EDE7594607
:1033C000786908F0F4FC0028E9D06C46002387F8FF
:1033D0002C30022387F82D308AB0694611F1100293
:1033E00037D012251AB1042D01DDB34B4B610023F8
:1033F00087F82830022387F829306ABB112D45DD74
:10340000122362B1042087F82C00002087F82D00D9
:1034100087F82E00012087F82F00F86A08616FF303
:1034200000086FF341086FF382086FF3C5080221AB
:1034300061F38818C3F30A0363F353286FF31F582B
:10344000002341469D4801F007F9A546A9F102096C
:103450003CE06FF00045C5E72B46082D01DD78699B
:1034600088610C2B01DDC1F81CB001F120030020A4
:1034700009E000F1300C07F1280EF4441CF830CCC0
:1034800003F801CB01300128F3D9B7E76FF01B0334
:10349000B7E701238EE7D7F8803013F0020F15D07D
:1034A000002322461946B86908F03BFCD7F884305F
:1034B00053B13B69D7F88820934205D2D7F88420CE
:1034C00022F8130001333B61013881440AF1010AFB
:1034D00035467B6A9A4510D22E4616F802BB6B78A9
:1034E000FA6952F82340764B9C42FFF455AF754B76
:1034F0009C42FFF462AF00254FE74C4612E707F10C
:1035000044000023FB6118B14A4629460BF091FEA6
:103510004D444FF00008C7F804901EE00020F86109
:103520000646F0E7FE6107F134000026EBE70025D0
:103530003B6A33BB002D3BD0D7F8803013F0010F2E
:1035400026D0731C06F1300207F12801561806F840
:10355000149CDEB208F1010825467B6A98454AD2E0
:103560002C4614F802AB95F801905BF82930544AC8
:103570009342DCD3534A934201D30025D8E7012577
:10358000D6E75146786908F012FC0028D2D0E1E76E
:10359000D7F8803013F0040FDCD0FA69531C3032B6
:1035A00007F128010A4402F8249CDBB2FB61D1E751
:1035B000D7F8803013F0020F09D0731C06F13002E7
:1035C00007F12801561806F8149CDEB2C2E7F86924
:1035D000431C00F1300107F128028A1802F824ACDC
:1035E00002460232D2B2FA6107F1580252FA83F36C
:1035F00003F8249CAEE7D7F804909BF8003087F8D6
:1036000054309BF80130334487F85530D7F8803078
:1036100013F0020F0ED1FB69C3F3470387F857304D
:10362000D7F8803013F0010F06D113F0040F3ED10C
:10363000002302E00023F1E7002387F85630DBF88F
:1036400000003863786DCBF80000D7F81080424650
:10365000B9685846D7F818A0D047041EFFF662AEE6
:10366000386BCBF80000C7F810804246F96907F1C3
:103670003400D04700285EDB04EB0008B9684944F9
:103680007B6A01EB4301D7F810904A46FB68591A50
:103690002846D047041EFFF645AE08EB04054FF060
:1036A0000008C7F824B0B3465446CA4621E0FB6977
:1036B000C3E74FF0000909E04401010074FD000078
:1036C000CCFA00003C1001004FF0000952460121E5
:1036D00007F12C00A04700282FDB05444B4632465B
:1036E0005146204608F01DFB002828DB054408F160
:1036F0000108D84518D208F1300307F12802134415
:1037000013F8143C87F82C307A6A52F82360D7F803
:103710008430002BCDD0D7F888309845D4D2D7F854
:10372000843033F81890D1E73A6900210846BB6924
:1037300098472C46F6E50446F4E50446F2E50446CF
:10374000F0E500BF014B1860704700BF144F002028
:1037500010B586B0044603900491002105910091B4
:1037600003A9064800F0DAF8059B049A934201DAAF
:103770000022E254059806B010BD00BF01BE000053
:1037800084460268002006E000EB8000013203EB73
:103790004003A3F1300013780349C95C11F0040F12
:1037A000F2D1CCF800207047C10D010084460846D4
:1037B000012226E09CF8003043F004038CF800302E
:1037C000F2B101301CE09CF8003043F008038CF8A3
:1037D0000030F5E79CF8003043F010038CF800301F
:1037E000EEE79CF8003043F020038CF80030E7E768
:1037F0009CF8003043F040038CF80030E0E70022F2
:1038000042B30378203B102BF9D801A151F823F0E3
:10381000D5370000FF370000FF370000E337000016
:10382000FF370000FF370000FF370000FF370000C0
:10383000FF370000FF370000FF370000C7370000E8
:10384000FF370000B5370000FF370000FF370000EA
:10385000F13700009CF8003003F04403442B00D003
:1038600070479CF800306FF386138CF80030F7E750
:103870002DE9F84F05460C46934699460A9ED078A6
:10388000254B13F800A00AF0030A08F075FC074660
:1038900014E0BAF1010F20D0D2B25732D2B2327056
:1038A0003A46434628462146FDF71EF9BD4274F1CB
:1038B000000416D34E4514D905460C464FF00008B7
:1038C0003A46434628462146FDF70EF9013E092AAD
:1038D000DFD8D2B23032D2B2E1E7D2B23732D2B28E
:1038E000DDE79BF8003013F0200F03D0082F04D041
:1038F000102F09D03046BDE8F88F9BF8023043F016
:1039000008038BF80230F5E79BF8023043F0100310
:103910008BF80230EEE700BFC10D01002DE9F04F3A
:1039200091B006460D4691460393002499F8000095
:10393000002800F0B982252808D02946B047002881
:10394000C0F2B382013409F10109EFE700230493C7
:1039500005930693079308930993494606A808F030
:10396000E9FB02909DF8193013F0010F00F09780E9
:10397000039B1A1D03921F68002FC0F288809DF8D8
:10398000193013F0040F00F09C80039B1A1D039262
:10399000D3F800A0BAF1000FC0F28A800023079389
:1039A00008939DF81A3003F007039DF81910C1F32E
:1039B000C301012B00F08E80022B00F0D380042B7A
:1039C00000F02481032B00F03B819DF8188018F053
:1039D000030B40F03B819DF81B30253B532B00F23D
:1039E000CA81DFE813F04001C801C801C801C8015D
:1039F000C801C801C801C801C801C801C801C8017F
:103A0000C801C801C801C801C801C801C801C8016E
:103A1000C801C801C801C801C801C801C801C8015E
:103A2000C801C801C801C801C801C801C801C8014E
:103A3000C801C801C801C801C801C801C801C8013E
:103A4000C801C801C801C801C801C8019D01C80159
:103A5000C801C801C801C801C801C801C801C8011E
:103A6000C8017A018301C801C801C801C8018301E6
:103A7000C801C801C801C801BD019D015E01C8019E
:103A8000C8014D01C8019D01C801C8019D019DF8F3
:103A9000183043F004038DF818307F426FE79DF92A
:103AA0001830002B02DB4FF0FF3768E7079F66E70F
:103AB0009DF819306FF341038DF819304FF0FF3A3C
:103AC0006CE713F0020F02D0DDF820A066E74FF09C
:103AD000FF3A63E7CB1E042B04D8DFE803F00B1D8D
:103AE00029353500039B1A1D03921B68DA170493CE
:103AF000059206E0039B1A1D03921B68DA170493D4
:103B00000592012928D002297FF45FAFBDF910305A
:103B1000DA170493059258E7039B073323F0070352
:103B200003F108020392D3E90023CDE90423E8E777
:103B3000039B073323F0070303F108020392D3E941
:103B40000023CDE90423DCE7039B1A1D03921B68C5
:103B5000DA1704930592D4E79DF91030DA1704932D
:103B6000059232E7CB1E042B04D8DFE803F00B1FCD
:103B700035414100039B1A1D03921B6804930023E7
:103B800005931EE09DF81B30632B07D0039B1A1D85
:103B900003921B6804930023059312E0039B1A1DF4
:103BA00003921B680493002305930AE0039B0733E9
:103BB00023F0070303F108020392D3E90023CDE9C0
:103BC000042301291CD002297FF4FFAEBDF8103078
:103BD000049300230593F8E6039B073323F00703C0
:103BE00003F108020392D3E90023CDE90423E8E7B7
:103BF000039B1A1D03921B68049300230593E0E7BF
:103C00009DF81030049300230593DEE608290BD0BD
:103C1000039B073323F0070303F108020392D3E960
:103C20000023CDE90423D0E6039B073323F00703E9
:103C300003F108020392D3E90023CDE90423C4E68B
:103C4000039B1A1D03921B680493BEE6029F3B462A
:103C50004A462946304608F0C3FA0028C0F22581BA
:103C60000444B94662E629462520B0470028C0F240
:103C70001C810134D8460DF13E0A4FF000097FE067
:103C8000DDF81090BAF1000F06DA4846FCF746FF5F
:103C900009EB000AD84673E0514648460BF000FC99
:103CA000F6E7049828B9D846DFF804A2AAF1050976
:103CB00066E00DF13E0300930AAB06AA0021FFF770
:103CC000D7FD81469DF81A3043F010038DF81A3065
:103CD00078238DF81B30D8462DE0049B8DF82830D2
:103CE000D8460DF1290A0DF1280949E018F0080F0E
:103CF00005D118F0100804D04FF0200801E04FF073
:103D00002B08049A059B002B02DB0492059308E024
:103D1000524263EB4303049205934FF02D0800E0F9
:103D2000D8460DF13E0300930AAB06AADDE9040173
:103D3000FFF79EFD8146BAF1000F50DB0DF13E0307
:103D4000A3EB09039DF818206FF386128DF8182055
:103D50009A4547D9AAEB030307930DF13E0A0FE0FA
:103D60002246049906A808F01CFAD8460DF13E0A2E
:103D70004FF0000904E0D8460DF13E0A4FF000096B
:103D8000B9F1000F00F08D80AAEB0902B8F1000F25
:103D900000D001329DF81A1011F0100F25D0023218
:103DA000079B134411F0400F01D0089A1344002FD1
:103DB00031DDFF1A9DF8183013F0040F2BD113F0EA
:103DC000400F17D0B8F1000F17D029464046B04732
:103DD00000286ADB0134D8464FF0300B0FE00DF1BC
:103DE0003E0ACDE70DF13E0ACAE711F0080FD7D021
:103DF0000132D5E74FF0200B01E04FF0300B3B468E
:103E00005F1E002B07DD29465846B04700284CDBD3
:103E100001343B46F4E7B8F1000F05D0294640468F
:103E2000B047002841DB01349DF81A30C3F300127B
:103E3000C3F3C0031A4305D029463020B0470028F9
:103E400033DB01349DF81A3013F0100F06D02946E9
:103E50009DF81B00B047002827DB0134079B03F1C6
:103E6000FF38002B07DD29463020B04700281CDB37
:103E700001344346F3E753464A462946304608F0A4
:103E8000AFF9002811DB0444002F07DD294620206C
:103E9000B047002809DB0134013FF5E7DDF8089061
:103EA00044E5DDF8089041E5204611B0BDE8F08F0B
:103EB000010201002DE9F04383B00446084615468F
:103EC000238B13F0080F05D103F00706002300939E
:103ED000019354E0012909D043F02003238385F3A3
:103EE0001188BFF36F8F03B0BDE8F08343F0100378
:103EF0002383F4E7204608F0B3FC42E0D4F81490A2
:103F00004A466946204608F0C4FC4FF00008238B5F
:103F100003F00707B74269D0A268002A66D00122E1
:103F200043F00803238385F31188BFF36F8F002AC2
:103F300064D1009B2BB14B463A466946204608F0B7
:103F400021FDB8F1000F02D034492046C047EFF3FD
:103F50001185202383F31288BFF36F8F238B23F007
:103F600008032383238B13F0100F4DD023F010038D
:103F700023830120268B06F007060028AFD00228F5
:103F8000B8D00028ABD0013804282BD801A353F8AF
:103F900020F000BFFD3E0000E53F0000A93F00000B
:103FA000BD3F0000D13F00002369D3F80080062107
:103FB000204608F02BFC4FF00009A8E72369D3F84E
:103FC00004800421204608F021FC4FF000099EE700
:103FD0002369D3F808800521204608F017FC4FF02C
:103FE000000994E74FF00008C14690E7009A0AB133
:103FF000002295E7B8F1000F92D1B3E74A4639465F
:10400000204608F00BFC94E713F0200F04D023F0B7
:10401000200323830220ADE70020ABE7B3C90000F3
:1040200038B505460B4C00E010340B4B9C420FD2C8
:1040300063685B79002BF7D02946204608F0BDFD68
:104040000028F1D023681B68294620469847EBE7F3
:1040500038BD00BF04FE000014FE000070B5064627
:104060000D46084C04E02A46314620469847103455
:10407000054B9C4204D223689B69002BF3D1F6E7E1
:1040800070BD00BF04FE000014FE00002DE9F041E9
:10409000074605460AE007EA0807144B03EB061338
:1040A0005B6804221968204608F0D1FDD5B195FA65
:1040B000A5F6B6FA86F60D4C04EB06140123B340C0
:1040C0006FEA030825EA0305237B002BEED03301BA
:1040D000064AD3581B69002BDDD02046984700289C
:1040E000E4D1D8E73846BDE8F08100BF04FE000007
:1040F0002DE9F04180460F461F4BBFF35B8F53E81D
:10410000005F6A1C43E800210029F8D1BFF35B8FF0
:104110006DBB1A4C002607E063680422196820462C
:1041200008F095FD01361034154B9C4211D2237BCB
:10413000002BF7D0204608F034FD23681B69002BC4
:10414000EAD0204698470028E6D00123B3401D431B
:10415000E8E7B8F1000F0BD055B12846FFF796FFFE
:104160000546002FF8D00A2008F02DFDF4E70025C1
:104170002846BDE8F08100BFE86F002004FE000083
:1041800014FE000008B5064B186018B1054B1B68FB
:10419000092B00DC08BD044804F068FBFAE700BF07
:1041A000DC6F0020E46F00209453002008B5024823
:1041B00004F05CFB08BD00BF9453002030B589B00B
:1041C00000220F490F480AF080FE0F4D0022002305
:1041D000CDE90623002404940E2303930294019452
:1041E00000940A4B4FF44072094928460AF050FCEB
:1041F0000849284604F040FD204609B030BD00BF04
:10420000AD410000F06B00203067002089450000C0
:10421000088E002004020100014B53F82000704773
:104220002002010048B108B5054A1060054B19602D
:10423000084600F007FD002008BD6FF0150070472C
:10424000184F0020D86F002008B5054B1B781BB114
:10425000034B01221A7008BD024804F007FBF7E780
:10426000FA7100209453002008B5104BBFF35B8F08
:1042700053E8001F013143E80012002AF8D1BFF3D0
:104280005B8F30B90A480AF02CFE0A4804F0EEFAB7
:1042900008BD094BBFF35B8F53E8001F013943E8AA
:1042A0000012002AF8D1BFF35B8FEBE7E06F00202C
:1042B000F06B002094530020E46F0020064B002098
:1042C0000146BFF35B8F53E8000F43E80012002A5A
:1042D000F9D1BFF35B8F7047E06F002038B5FFF76F
:1042E000EDFF0546094C00E01034094B9C420BD20F
:1042F00063685B79002BF7D023685B68002BF3D0F1
:10430000294620469847EFE738BD00BF04FE00006D
:1043100014FE0000034B18680028D4BF00200120C1
:10432000704700BFE06F002010B5044C04492046E0
:1043300008F0C7F8034B1C6010BD00BFB05100204F
:104340000C020100D46F002008B500230C4A137042
:104350000C4A13600C4A13604FF400410B48FFF7FE
:1043600061FFFFF7E1FF0A4A06E0094BD31A1B1170
:10437000013351680B711032064B9A42F5D308BDD8
:10438000FB710020E06F0020E46F0020BFCB000035
:1043900004FE000014FE000008B50146014808F0C4
:1043A00028FC08BDB051002008B5024808F06CF99F
:1043B00008BD00BFB051002008B50146024B186887
:1043C00008F01DFC08BD00BFD46F002008B50248EE
:1043D00008F019FC08BD00BFB051002010B582B034
:1043E00000220023CDE90023284B187808B902B039
:1043F00010BD684608F01FFC044680B1FFF710FEB0
:104400002046FFF7D9FF224BBFF35B8F53E8001F15
:10441000013943E80012002AF8D1BFF35B8FFFF7A0
:1044200079FF58B91B4A1368516813F57A7341F143
:10443000000113605160FFF7C9FFD8E70AF036FDAD
:104440004A0142EAD06243011B1A62EB0102920068
:1044500042EA93729B001B1842EB0102D20042EA2F
:104460005372C3F3103343EA4243D20B0948016845
:1044700040685B1A62EB000240F2E9318B4272F154
:104480000002CFD3FFF72AFFCCE700BFFA7100206C
:10449000E46F0020E86B00200F4B1B7803B17047DE
:1044A00010B500210120FFF723FE0C4C00E0103472
:1044B0000B4B9C4208D263685B79002BF7D02368D2
:1044C0009B6820469847F2E7FFF788FF0028FBD15A
:1044D000014B01221A7010BDFB71002004FE000088
:1044E00014FE000010B582B01A4BBFF35B8F53E887
:1044F000002F511C43E800100028F8D1BFF35B8F58
:10450000154B1B7863B9154B1B68B3B1BAB1092AB7
:1045100013D113480AF0E5FC124804F0A7F90CE0A7
:10452000EFF31184202383F31288BFF36F8FFFF71B
:1045300055FF84F31188BFF36F8F02B010BD0022C6
:104540000023CDE900234FF400420023044805F086
:104550004DFBF2E7E46F0020FB710020DC6F0020D0
:10456000F06B00209453002010B50446044B1B68E8
:104570009847A0602146034808F061FB10BD00BFCA
:10458000184F0020B05100202DE9F04100210846CD
:10459000FFF7AEFD804640B140F26766002704F0A9
:1045A000C9FFFFF7EFFD002515E04FF0FF364FF094
:1045B000FF37F4E74046FFF769FD804670B94FF0DA
:1045C000FF364FF0FF3709E02C4632463B4609489C
:1045D00004F094F92546B8F1000FEBD1FFF7FEFE89
:1045E00004460028F6D1002DEED000210846FFF742
:1045F00035FDEAE7945300200248034BC01AC00877
:10460000704700BF04FE00006CFD000010B50C46B2
:10461000FFF7F2FFA04203D9024B53F8340010BD5C
:104620000020FCE76CFD000000B589B00592069300
:104630000023079362B1074A0C9B02930B9B0193E3
:104640000A9B009305ABFEF71BFE09B05DF804FB67
:104650000022F1E765CC00002DE9F04F8BB004AFEC
:1046600005461E468846C1F34A24002C00F0898086
:1046700091460022FA603A617A6104230293FB18A2
:1046800001930A23009307F10C0321464846FEF7E5
:10469000F7FDB0F5006F58D3D9F804106D4600232C
:1046A0003B7302237B738AB004AC14F1100217D061
:1046B00012201AB1042801DD3B4B636100233B70DB
:1046C00002237B70CAB10346082800DDA1610C2BD0
:1046D00002DD40F2FF73E36104F1200300210AE0F0
:1046E0006FF00040E5E701F118063E4416F8186C3B
:1046F00003F8016B01310129F5D9112822DD1223BC
:1047000042B10421397300217973B9730121F9731E
:10471000F868206100216FF300016FF341016FF32E
:1047200082016FF3C501022060F38811C3F30A030D
:1047300063F353210023C1F313011C4808F005FB68
:10474000AD462DE06FF01B03DAE760F35328C0F3AA
:104750000A0A0AEB1850173020F007008008FFF70C
:104760001BFE8346B0B104230293FB1801930A2376
:104770000093534600F1100221464846FFF754FFCC
:1047800008E004EB1154173424F00704A008FFF7E5
:1047900003FE8346334642462946584608F078FAD7
:1047A0001C37BD46BDE8F08F40020100A4FD0000AB
:1047B0002DE9F04F85B080460D4617461E46DDF8C0
:1047C00038B0DDF84090B9F1000F41D0119B039350
:1047D00000934B460F9A10210020FEF7F7FAB0F530
:1047E000006F2DD282460BEB0003173323F0070333
:1047F00000246FF300046FF341046FF3820468F345
:10480000C50467F3881460F353246BF31F549808AE
:10481000FFF7C2FD074650B11030B9F1000F06D0C6
:10482000119B00934B460F9A5146FEF7CFFA334641
:1048300022462946384608F02BFA05B0BDE8F08F2D
:1048400040F2FF73034A0221034808F073FAF4E7C9
:104850000020C7E780020100A4FD0000406820B1ED
:10486000034BC01A40F3CF0070474FF0FF30704742
:104870006CFD00000EB400B584B0014605AB53F8E2
:10488000042B0393002000900348FFF747F804B07F
:104890005DF804EB03B0704781CD000010B584B023
:1048A00011F0440F05D01A4B1B6833B9002004B037
:1048B00010BD1849FFF7DEFFF9E717490968B2FB99
:1048C000F1F2B2FBF3FC03FB1C224FF47A7E0EFBE9
:1048D00002F2B2FBF3F403FB14210EFB01F1B1FB76
:1048E000F3F10E4AA2FB0C32D20A4FF4616303FBD0
:1048F00012CC0B4BA3FB0CE35B0902910194C3EBBD
:104900000311ACEB810100910649FFF7B3FFCEE73D
:10491000F06F0020B8020100EC6F0020C5B3A29137
:1049200089888888C402010061B108B52AB1064AA5
:1049300052F8232012B9054A00E0044A0449FFF75F
:1049400099FF08BD704700BF64030100E002010049
:10495000E80201002DE9F04105461746069EDDF804
:104960001C8081B900242EB1324611492846FFF738
:1049700081FF0444B8F1000F14D06FB1099B042BE0
:1049800013D00C4909E00C4B099A53F822200B492B
:10499000FFF770FF0446E6E7064942462846FFF760
:1049A00069FF04442046BDE8F0810549F5E700BFF2
:1049B00000030100F002010078030100F802010089
:1049C000EC0201002DE9F04F87B005460C46049239
:1049D00005939DF84C7001F0020B01F0010AC1F340
:1049E000C00801F4807908F030F918B3024616497E
:1049F0002846FFF73FFF0646BBF1000F1CD13A46A1
:104A00005146284608F0EFF9B9F1000F01D0002314
:104A100011930397129B0293119B0193109B009398
:104A20000023049A41462846FFF794FF304407B01C
:104A3000BDE8F08F0026DFE7059A21462846FFF7FC
:104A40002DFF0644DBE700BF0403010011F0100F47
:104A50000BD108B511F0200F03D00449FFF70AFF6E
:104A600008BD0349FFF706FFFAE770474404010059
:104A7000080301002DE9F04105460F461646984609
:104A80000699FFF7E3FF0024444505DA2449284648
:104A9000FFF7F0FE0134F7E7002409E0204928463B
:104AA000FFF7E8FE0BE01F492846FFF7E3FE01345D
:104AB0000F2C0CDC002C02DD14F0070FEED0B442FA
:104AC000F1D23A5D18492846FFF7D4FEEFE71749BF
:104AD0002846FFF7CFFE002409E011492846FFF7DA
:104AE000C9FE0BE012492846FFF7C4FE01340F2C23
:104AF00013DC002C02DD14F0070FEED0B44207D215
:104B00003A5D0C4B9B5C13F0970FEBD12E22E9E73B
:104B100003492846FFF7AEFEE8E7BDE8F08100BF95
:104B2000F0000100E40001000C0301001403010087
:104B300018030100C10D01002DE9F04184B00446C5
:104B40009DF82C500C9F0E9E95B9012B1ED0194834
:104B50004FF0000827B13B462246174907F0F7F807
:104B6000C6B905BB204608F0F4F804B0BDE8F081F2
:104B700003950A980290019300920B4600220F9928
:104B80002046FFF71FFF80460C48E3E70B484FF035
:104B90000008DFE70F9B0093434632460D992046FD
:104BA00008F039F9DDE72A460F99204608F027F981
:104BB000D8E700BFB9CD0000D7CD000081CD0000FF
:104BC0002DE9F04383B00646056842F20F738B422D
:104BD00028BF0B46184A0521684607F03AF90446F3
:104BE0007368D3F804900B27DFF8508005E04A463D
:104BF00039464046A8473F1A8044002FF7D17368D2
:104C0000D3F804806F4605E0424621463846A8475F
:104C1000241A0744002CF7D173685F681B24084EE0
:104C200005E03A4621463046A847241A0644002C9F
:104C3000F7D103B0BDE8F083F804010038030100A8
:104C40001C030100074B01221A6004E04008054ADA
:104C500013685B001360044B9842F7D8034B18604D
:104C6000704700BFEC6F002040420F00F06F002043
:104C700070B506460D46002405E0315D04488368A2
:104C80005B6898470134AC42F7D3284670BD00BF3B
:104C900064FB0000014B036000207047E00301004B
:104CA00008B5034807F0C7F8024807F0C4F808BD84
:104CB000E0030100180401002DE9F04182B000AFCB
:104CC0000446D0F800E0D0F804C085686E468AB08B
:104CD0006B4613F1100200F0888014218AB1084657
:104CE000042903DDDFF81C81C3F81480082801DDE6
:104CF000C3F818E00C2801DDC3F81CC0102800DD43
:104D00001D62132974DD14253AB105213971002182
:104D10007971B971F9717868186100216FF3000138
:104D20006FF341016FF382016FF3C501012363F358
:104D30008811C5F30A0565F353216FF31F51002352
:104D40003148FFF789FCB546D4F80CC0266965697F
:104D5000E8468AB06B4613F110024CD0142182B1A0
:104D60000846042903DDDFF8A4E0C3F814E00828AE
:104D700001DDC3F818C00C2800DDDE61102800DD5D
:104D80001D6213293ADD14253AB10521397100213C
:104D90007971B971F9717868186100216FF30001B8
:104DA0006FF341016FF382016FF3C501012666F3D2
:104DB0008811C5F30A0565F353216FF31F51124D96
:104DC00000232846FFF748FCC546E369104A3146F0
:104DD000284607F0AFFFA3690E4A3146284607F080
:104DE000A9FF0837BD46BDE8F0816FF0004175E7C7
:104DF0006FF01B0588E76FF00041B0E76FF01B050F
:104E0000C2E700BF48040100DCFD00007804010097
:104E1000A8040100B804010038B504460D4611B1DC
:104E20000846FFF749FF012C04D02946204603F02D
:104E3000FDF938BDEFF30583103B034A0121034818
:104E400007F078FFF1E700BFE8040100DCFD000097
:104E500030BFFFF7FDBF00BF054B5A699B689A4200
:104E600004D0044A536843F080535360704700BF36
:104E7000A071002000ED00E081690D4B5A6942F4F9
:104E800080725A61BFF34F8FBFF36F8F31F8021CEE
:104E90005A6922F480725A61BFF34F8FBFF36F8F4C
:104EA0004DF60273994201D00020704701207047EF
:104EB00000ED00E04FF0000C83F800C002F07F4CE2
:104EC000BCF17F4F14D102F00C0CBCF1080F04D0E0
:104ED00012F0080F09D00846704708B5054A0121AD
:104EE000054807F01DFF002008BD01221A70704719
:104EF00000207047FC040100DCFD000008B52B4ACF
:104F000001212B4807F00CFF2A4B9B6A13F0007F0E
:104F100021D11D20274B9B6A13F0807F22D1254B86
:104F20009B6A13F4002F24D1224B9B6A13F4802F29
:104F300026D1204B9B6A13F4003F28D11D4B9B6A5E
:104F400013F4803F2AD11B4A936A6FEA03436FEA46
:104F50001343936208BD184A0121154807F0E0FE8B
:104F60001E20D7E7154A0121114807F0D9FE1F205E
:104F7000D5E7134A01210E4807F0D2FE2120D3E7DE
:104F8000104A01210A4807F0CBFE2220D1E70E4A41
:104F90000121074807F0C4FE2320CFE70B4A012177
:104FA000034807F0BDFE2420CDE700BF280501001F
:104FB000DCFD000000ED00E04005010054050100AB
:104FC0007005010090050100B8050100D40501003D
:104FD00008B500230B70034A0121034807F0A0FE27
:104FE00008BD00BF00060100DCFD000090B583B0E5
:104FF00000AF0F2923DC2F4C103900233B71022313
:105000007B718AB0EC461CF110021AD0122022B13A
:10501000042802DD284BCCF8143000233B70022317
:105020007B70E2B10346082801DDCCF818400C2B58
:1050300001DDCCF81C100CF1200300210DE01F4C09
:10504000DAE76FF00040E2E701F1080404EB070E35
:105050001EF808EC03F801EB01310129F4D91128FD
:1050600024DD12234AB10421397100217971B9710B
:105070000121F9717868CCF8100000216FF300016C
:105080006FF341016FF382016FF3C501012060F3FB
:105090008811C3F30A0363F353216FF31F510023F5
:1050A0000748FFF7D9FA0C37BD4690BD6FF01B03D8
:1050B000D8E700BF24060100580601003C060100A5
:1050C000DCFD0000F8B505460F461446394A0121BB
:1050D000394807F025FE394B9B6A13F0100F31D188
:1050E0001026364B9B6A13F0080F32D1334B9B6A64
:1050F00013F0020F34D1314B9B6A13F0010F4BD1E7
:105100002E4B9B6A13F0200F4DD12C4B9B6A13F052
:10511000100F01D1294B9B6A284B9B6A13F0200F7B
:1051200004D0264A536A23F400535362234A936AF5
:1051300043F0FF0393620121284607F008FF207027
:105140003046F8BD1E4A01211B4807F0E9FD112633
:10515000C7E71C4A0121184807F0E2FD1226C5E7FF
:10516000194A0121144807F0DBFD144A536B926A77
:1051700012F0800F01D11326BDE7144A01210E4819
:1051800007F0D8FD37B10D4A936A23F0800393628C
:105190001326B0E71326AEE70D4A0121064807F0B3
:1051A000BFFD1426ACE70B4A0121034807F0B8FD08
:1051B0001526AAE76C060100DCFD000000ED00E00A
:1051C00084060100B8060100CC060100E4060100D7
:1051D000FC0601001C070100F8B505460F46144601
:1051E000374A0121374807F09BFD374B9B6A13F480
:1051F000805F25D11626344B9B6A13F4006F26D1AD
:10520000314B9B6A13F4007F28D12F4B9B6A13F418
:10521000806F3FD12C4B9B6A13F4807F41D12A4B86
:105220009B6A13F4005F43D1274A936A43F47F4398
:1052300093620121284607F08AFE20703046F8BDAF
:10524000224A01211F4807F06BFD1726D3E7204AA9
:1052500001211C4807F064FD1826D1E71D4A0121F1
:10526000184807F05DFD184A936B926A12F4004FDC
:1052700001D11926C9E7184A0121124807F05AFD41
:1052800037B1114A936A23F4004393621926BCE7AD
:105290001926BAE7114A01210A4807F041FD1A26EA
:1052A000B8E70F4A0121074807F03AFD1B26BBE784
:1052B0000C4A0121034807F033FD1C26B4E700BF68
:1052C0004C070100DCFD000000ED00E06407010078
:1052D000B80601007807010094070100AC0701003F
:1052E000C80701001C07010070B506460D462B4A91
:1052F00001212B4807F014FD00232B70294BDC6A99
:1053000014F002040AD1274BDB6A002B0DDB254B7E
:10531000DC6A14F080440ED1204670BD224A01217F
:105320001F4807F0FDFC0024F6E7204A01211C4835
:1053300007F0F6FCF0E71E4A0121194807F0F0FCDF
:105340003046FFF799FD98B9164B9B6A13F0FF0F93
:1053500016D1144B9C6A14F47F4418D1114B9B6AEC
:10536000B3F5803FD8D33046FFF7C8FD0446D3E7F6
:105370003368104A01210A4807F0DCFC3468CBE7A7
:105380002A4601213046FFF79DFE0446C4E72A461F
:1053900001213046FFF720FF0446BDE7E00701008A
:1053A000DCFD000000ED00E0F80701001C08010032
:1053B0002C0801004C08010030B58BB01F4B5D6814
:1053C000C5F30805002383F31188BFF36F8F0DF138
:1053D0002603FFF76FFD04460DF12702294607F06B
:1053E000B8FD9DF827300BB10BB030BD05460DF16F
:1053F000040C20686168A268E368ACE80F002069CB
:105400006169A269E369ACE80F009DF826304BB1F1
:10541000089BC3F308025AB96FEA53236FEA432388
:10542000089305E0089B23F4FF7323F0010308931E
:1054300001A92846FFF7F0FCD6E700BF00ED00E029
:10544000044B5A6942F010025A615A6922F008026C
:105450005A61704700ED00E0EFF30880EFF3098137
:1054600001B57246FFF7A8FF01BD00BF002080F321
:105470001488BFF36F8F114880F30888002010490B
:10548000087001F0CDFF00200E490860BFF34F8F78
:1054900000F030F8202080F311880B484FF40061B1
:1054A000401880F30988EFF314800221084380F349
:1054B0001488BFF36F8F00F0E9F80000489E0020C9
:1054C0000072002094ED00E008910020084BD3F812
:1054D0009000C0F30720002306E0054AC2F8983088
:1054E0000021C2F8A01001338342F6DB704700BFF1
:1054F00000ED00E010B572B6002484F31388FFF7C6
:10550000E5FF234608E003F120010E4A4FF0FF308B
:1055100042F821000133DBB2072BF4D9002308E065
:1055200003F16001074A4FF0FF3042F821000133D8
:10553000DBB2072BF4D962B6BFF34F8FBFF36F8F87
:1055400010BD00BF00E100E008B50A4B9B68834234
:1055500002D003F0F5FF08BDEFF30583002BF8D070
:10556000054B5A6842F080525A605A6A22F400424F
:105570005A62EEE7A071002000ED00E010498A6851
:105580004FF030001044EFF3098C80E8F01F20202A
:1055900080F31288BFF36F8F0A4F4FF000664A699D
:1055A0008A603E60D2F8AC000023C2F8AC3080F3D1
:1055B000118802F1300090E8F01F8CF309887047E1
:1055C000A071002004ED00E01EF0040F0CBFEFF30B
:1055D0000880EFF30980816911F8021C0229FFD0CD
:1055E00001B5724607F0A7FC01BD00BF002807DB2C
:1055F00000F01F02400901239340024A42F8203084
:10560000704700BF00E100E000280CDB00F01F0243
:105610004009012393402030034A42F82030BFF371
:105620004F8FBFF36F8F704700E100E0002808DB69
:105630004901C9B200F1604000F5614080F80013F3
:10564000704700F00F004901C9B2014B195470476F
:1056500014ED00E04209054B53F8222000F01F0032
:10566000012303FA00F01040704700BF00E100E0A2
:10567000044B23F07F03044A9360BFF34F8FBFF3C3
:105680006F8F70470000000000ED00E008B5FFF7E5
:10569000EFFF074AD2F8883023F47003C2F888304D
:1056A00002F072FF04F0C6F800F044F802F0C8FF00
:1056B00000ED00E010B4A2F120040E4942F8081CED
:1056C00021F0010142F8081C42F8203C019B42F8FD
:1056D0001C3C029B42F8183C039B42F8143C4FF0E0
:1056E000807342F8043C04650023C0F8AC3010BC61
:1056F000704700BF6FBE000000B50E461546074B51
:1057000098602C4686F309880020054B9847204670
:10571000002100220023034C204700BFA07100207D
:10572000C9CF00006FBE0000014B10221A61704704
:1057300000ED00E0002206E003F00F0309491944E0
:1057400020230B760132262A0ADC53B2002BF3DB2E
:1057500003F1604303F56143202183F80013F1E76F
:10576000704700BFFCEC00E008B5EFF30583103B89
:10577000044A02EBC301496852F833008847FFF737
:105780006BFB08BDC4FB000008B5034B034A0121B5
:10579000034807F044FD08BD000001200000002080
:1057A00068080100084AC2F898000B6823F01F033C
:1057B000034343F01003C2F89C308B6843F00103AD
:1057C000C2F8A030704700BF00ED00E010B50446FD
:1057D0000A4BD3F89030C3F30723013B984203D818
:1057E000FFF7E0FF204610BD0346054A01210548AA
:1057F00007F0A0FA6FF01500F5E700BF00ED00E03C
:1058000078080100C4FD00002DE9F04780460F46EE
:105810009A461646002409E02946F0B207F008FC33
:10582000064610F1160F1AD001360134BC4216DAC2
:1058300004EB440508EB85056A68002AF5D0BAF147
:10584000000FE9D0284607F0E2FB0028E4D1234608
:10585000044A0121044807F06DFA6FF0150630463E
:10586000BDE8F087A0080100C4FD000010B5034C9E
:1058700001232278FFF7C8FF207010BDFC710020C3
:10588000044B0522C3F89420BFF34F8FBFF36F8FF3
:10589000704700BF00ED00E0BFF35F8F024B0022B6
:1058A000C3F89420704700BF00ED00E038B51C4BF2
:1058B0001D681C4BD3F89030C3F307239D422BD8AF
:1058C000FFF7EAFF002409E0154B5B6804EB440195
:1058D00003EB81012046FFF765FF0134A542F3D8B1
:1058E0001148057007F0C3FB10F1160F13D00E4BD3
:1058F0001A780C4BD3F89030C3F307239A4207DA97
:10590000084BC3F898200021C3F8A0100132F0E73B
:10591000FFF7B6FF002038BD4FF0FF30FBE700BFB8
:10592000C408010000ED00E0FC710020014B18608C
:10593000704700BF284F002070B506460D46002472
:1059400000E00134AC4208DA054B1B68984730553B
:105950000A2801D00D28F4D10134204670BD00BFC3
:10596000244F0020F8B505460F46002404E0094BFB
:105970001B68307898470134BC4208DA2E192B5D39
:105980000A2BF4D1034B1B680D209847EFE73846EC
:10599000F8BD00BF284F00200246084B1968084B8D
:1059A000C8180A44C3F1005303F580339A4202D267
:1059B000024B1A6070474FF0FF3070472470002090
:1059C00048A2002008B5054806F035FA002383F305
:1059D0001188BFF36F8F0423184602DFF40801001B
:1059E000024B0122C3F840250020704700E001402F
:1059F00030B108B5034B800143F00103984708BD5F
:105A0000704700BF60FE0000004870477C700020B7
:105A1000034BC01A8010034B03FB00F0704700BF1C
:105A20003C700020B76DDBB638B505460C46FFF775
:105A3000EFFF01464022034807F0BCFC0146284620
:105A4000A04738BD24FB000030B583B005460C46A6
:105A5000FFF7DEFF0146402300932346054A064830
:105A600007F0C2FC011E01DB03B030BD2846A04791
:105A7000FAE700BF31D4000024FB000010B582B06B
:105A8000EFF31184202383F31288BFF36F8F154A3D
:105A9000136843F00201116013F0010F09D10023D4
:105AA00084F31188BFF36F8FB3B907F0C9FC02B05C
:105AB00010BD0DF1070201214FF0804007F0EAFB15
:105AC0009DF80730012B01D00023E9E7FFF79CFF89
:105AD00007F04CFC0123E3E70021034807F058FCE2
