:1000000070370020C14A000075DE0000AD4A0000D4
:10001000AD4A0000AD4A0000AD4A000000000000FB
:100020000000000000000000000000001D4C000067
:10003000AD4A000000000000D14B0000AD4A0000B6
:10004000BD4D0000BD4D0000BD4D0000BD4D000088
:10005000BD4D0000BD4D0000BD4D0000BD4D000078
:10006000BD4D0000BD4D0000BD4D0000BD4D000068
:10007000BD4D0000BD4D0000BD4D0000BD4D000058
:10008000BD4D0000BD4D0000BD4D0000BD4D000048
:10009000BD4D0000BD4D0000BD4D0000BD4D000038
:1000A000BD4D0000BD4D0000BD4D0000BD4D000028
:1000B000BD4D0000BD4D0000BD4D0000BD4D000018
:1000C000BD4D0000BD4D0000BD4D0000BD4D000008
:0C00D000BD4D0000BD4D0000BD4D000006
:1000E00001F0FF01102A2BDB10F0070F08D010F8E9
:1000F000013B013A8B422DD010F0070F42B3F6D1ED
:10010000F0B441EA012141EA014122F007047FF005
:1001100000070023F0E80256083C85EA010586EA5C
:10012000010685FA47F5A3FA87F586FA47F6A5FA98
:1001300087F68EB9EED1F0BC01F0FF0102F00702A4
:1001400032B110F8013B013A83EA010313B1F8D14F
:100150000020704701387047002D06BF3546033830
:10016000073815F0010F07D1013015F4807F02BF69
:10017000013015F4C03F0130F0BC0138704700BFBA
:1001800081F0004102E000BF83F0004330B54FEA48
:1001900041044FEA430594EA050F08BF90EA020FB5
:1001A0001FBF54EA000C55EA020C7FEA645C7FEA48
:1001B000655C00F0E2804FEA5454D4EB5555B8BF6B
:1001C0006D420CDD2C4480EA020281EA030382EADC
:1001D000000083EA010180EA020281EA0303362D6E
:1001E00088BF30BD11F0004F4FEA01314FF4801C41
:1001F0004CEA113102D0404261EB410113F0004F53
:100200004FEA03334CEA133302D0524263EB430309
:1002100094EA050F00F0A780A4F10104D5F1200EA7
:100220000DDB02FA0EFC22FA05F2801841F1000102
:1002300003FA0EF2801843FA05F359410EE0A5F1D6
:1002400020050EF1200E012A03FA0EFC28BF4CF007
:10025000020C43FA05F3C01851EBE37101F00045BD
:1002600007D54FF0000EDCF1000C7EEB00006EEBCA
:100270000101B1F5801F1BD3B1F5001F0CD3490854
:100280005FEA30004FEA3C0C04F101044FEA4452AB
:1002900012F5800F80F09A80BCF1004F08BF5FEA32
:1002A000500C50F1000041EB045141EA050130BD12
:1002B0005FEA4C0C404141EB0101013C28BFB1F524
:1002C000801FE9D291F0000F04BF01460020B1FA6F
:1002D00081F308BF2033A3F10B03B3F120020CDA42
:1002E0000C3208DD02F1140CC2F10C0201FA0CF020
:1002F00021FA02F10CE002F11402D8BFC2F1200C85
:1003000001FA02F120FA0CFCDCBF41EA0C0190403A
:10031000E41AA2BF01EB0451294330BD6FEA040483
:100320001F3C1CDA0C340EDC04F11404C4F120026E
:1003300020FA04F001FA02F340EA030021FA04F380
:1003400045EA030130BDC4F10C04C4F1200220FAD7
:1003500002F001FA04F340EA0300294630BD21FA15
:1003600004F0294630BD94F0000F83F4801306BFDB
:1003700081F480110134013D4EE77FEA645C18BFCF
:100380007FEA655C29D094EA050F08BF90EA020F66
:1003900005D054EA000C04BF1946104630BD91EA5E
:1003A000030F1EBF0021002030BD5FEA545C05D161
:1003B0004000494128BF41F0004130BD14F58004A0
:1003C0003CBF01F5801130BD01F0004545F0FE4114
:1003D00041F470014FF0000030BD7FEA645C1ABF49
:1003E000194610467FEA655C1CBF0B46024650EA80
:1003F000013406BF52EA033591EA030F41F40021AC
:1004000030BD00BF90F0000F04BF0021704730B531
:100410004FF4806404F132044FF000054FF0000106
:1004200050E700BF90F0000F04BF0021704730B5C7
:100430004FF4806404F1320410F0004548BF40429C
:100440004FF000013EE700BF42004FEAE2014FEAF1
:1004500031014FEA02701FBF12F07F4393F07F4FCC
:1004600081F06051704732F07F4208BF704793F0CF
:100470007F4F04BF41F40021704730B54FF46074E2
:1004800001F0004521F000411CE700BF50EA0102E5
:1004900008BF704730B54FF000050AE050EA01028E
:1004A00008BF704730B511F0004502D5404261EBFE
:1004B00041014FF4806404F132045FEA915C3FF43F
:1004C000D8AE4FF003025FEADC0C18BF03325FEADC
:1004D000DC0C18BF033202EBDC02C2F1200300FA8D
:1004E00003FC20FA02F001FA03FE40EA0E0021FAB2
:1004F00002F11444BDE600BF70B54FF0FF0C4CF4A0
:10050000E06C1CEA11541DBF1CEA135594EA0C0F51
:1005100095EA0C0F00F0DEF82C4481EA030621EA8C
:100520004C5123EA4C5350EA013518BF52EA0335C7
:1005300041F4801143F4801338D0A0FB02CE4FF079
:100540000005E1FB02E506F00042E0FB03E54FF0A9
:100550000006E1FB03569CF0000F18BF4EF0010EA1
:10056000A4F1FF04B6F5007F64F5407404D25FEA9D
:100570004E0E6D4146EB060642EAC62141EA555150
:100580004FEAC52040EA5E504FEACE2EB4F1FD0C92
:1005900088BFBCF5E06F1ED8BEF1004F08BF5FEA10
:1005A000500E50F1000041EB045170BD06F00046C2
:1005B00046EA010140EA020081EA0301B4EB5C046F
:1005C000C2BFD4EB0C0541EA045170BD41F4801167
:1005D0004FF0000E013C00F3AB8014F1360FDEBF8C
:1005E000002001F0004170BDC4F10004203C35DA68
:1005F0000C341BDC04F11404C4F1200500FA05F3EB
:1006000020FA04F001FA05F240EA020001F000428B
:1006100021F0004110EBD37021FA04F642EB060101
:100620005EEA430E08BF20EAD37070BDC4F10C042B
:10063000C4F1200500FA04F320FA05F001FA04F2EF
:1006400040EA020001F0004110EBD37041F10001DB
:100650005EEA430E08BF20EAD37070BDC4F12005E6
:1006600000FA05F24EEA020E20FA04F301FA05F24E
:1006700043EA020321FA04F001F0004121FA04F2F6
:1006800020EA020000EBD3705EEA430E08BF20EAC6
:10069000D37070BD94F0000F0FD101F00046400000
:1006A00041EB010111F4801F08BF013CF7D041EA82
:1006B000060195F0000F18BF704703F00046520086
:1006C00043EB030313F4801F08BF013DF7D043EA57
:1006D0000603704794EA0C0F0CEA135518BF95EA0D
:1006E0000C0F0CD050EA410618BF52EA4306D1D194
:1006F00081EA030101F000414FF0000070BD50EAB3
:10070000410606BF1046194652EA430619D094EA3C
:100710000C0F02D150EA013613D195EA0C0F05D126
:1007200052EA03361CBF104619460AD181EA03017A
:1007300001F0004141F0FE4141F470014FF0000032
:1007400070BD41F0FE4141F4780170BD70B54FF0CD
:10075000FF0C4CF4E06C1CEA11541DBF1CEA13554D
:1007600094EA0C0F95EA0C0F00F0A7F8A4EB05042F
:1007700081EA030E52EA03354FEA013100F0888026
:100780004FEA03334FF0805545EA131343EA1263EF
:100790004FEA022245EA111545EA10654FEA0026A4
:1007A0000EF000419D4208BF964244F1FD0404F55D
:1007B000407402D25B084FEA3202B61A65EB0305B9
:1007C0005B084FEA32024FF480104FF4002CB6EB76
:1007D000020E75EB030E22BFB61A754640EA0C00F6
:1007E0005B084FEA3202B6EB020E75EB030E22BF36
:1007F000B61A754640EA5C005B084FEA3202B6EB77
:10080000020E75EB030E22BFB61A754640EA9C0035
:100810005B084FEA3202B6EB020E75EB030E22BF05
:10082000B61A754640EADC0055EA060E18D04FEAC3
:10083000051545EA16754FEA06164FEAC30343EA63
:1008400052734FEAC2025FEA1C1CC0D111F4801F30
:100850000BD141EA00014FF000004FF0004CB6E729
:1008600011F4801F04BF01430020B4F1FD0C88BFC8
:10087000BCF5E06F3FF6AFAEB5EB030C04BFB6EBD3
:10088000020C5FEA500C50F1000041EB045170BDC6
:100890000EF0004E4EEA113114EB5C04C2BFD4EBF3
:1008A0000C0541EA045170BD41F480114FF0000E77
:1008B000013C90E645EA060E8DE60CEA135594EAF3
:1008C0000C0F08BF95EA0C0F3FF43BAF94EA0C0FF6
:1008D0000AD150EA01347FF434AF95EA0C0F7FF46B
:1008E00025AF104619462CE795EA0C0F06D152EABF
:1008F00003353FF4FDAE1046194622E750EA4106A3
:1009000018BF52EA43067FF4C5AE50EA41047FF4B3
:100910000DAF52EA43057FF4EBAE12E74FF0FF3C18
:1009200006E000BF4FF0010C02E000BF4FF0010CE9
:100930004DF804CD4FEA410C7FEA6C5C4FEA430C62
:1009400018BF7FEA6C5C1BD001B050EA410C0CBFB1
:1009500052EA430C91EA030F02BF90EA020F002013
:10096000704710F1000F91EA030F58BF994208BF7A
:1009700090422CBFD8176FEAE37040F00100704737
:100980004FEA410C7FEA6C5C02D150EA013C07D18E
:100990004FEA430C7FEA6C5CD6D152EA033CD3D0D9
:1009A0005DF8040B704700BF8446104662468C46D3
:1009B0001946634600E000BF01B5FFF7B7FF002806
:1009C00048BF10F1000F01BD4DF808EDFFF7F4FF2F
:1009D0000CBF012000205DF808FB00BF4DF808EDBA
:1009E000FFF7EAFF34BF012000205DF808FB00BFDD
:1009F0004DF808EDFFF7E0FF94BF012000205DF8FF
:100A000008FB00BF4DF808EDFFF7CEFF94BF0120B3
:100A100000205DF808FB00BF4DF808EDFFF7C4FFAC
:100A200034BF012000205DF808FB00BF4FEA410CF5
:100A30007FEA6C5C02D150EA013C0AD14FEA430CD8
:100A40007FEA6C5C02D152EA033C02D14FF0000015
:100A500070474FF0010070474FEA410212F5001253
:100A600015D211D56FF47873B3EB625212D94FEAF5
:100A7000C12343F0004343EA505311F0004F23FADF
:100A800002F018BF404270474FF00000704750EA34
:100A9000013005D111F0004008BF6FF000407047F1
:100AA0004FF00000704700BF7BB972B90029BEBF8C
:100AB00000204FF0004106E008BF00281CBF6FF087
:100AC00000414FF0FF3000F057B8ADF1080C6DE970
:100AD00004CE002909DB002B1ADB00F057F8DDF803
:100AE00004E0DDE9022304B07047404261EB4101BC
:100AF000002B1BDB00F04AF8DDF804E0DDE90223FF
:100B000004B0404261EB4101524263EB4303704742
:100B1000524263EB430300F039F8DDF804E0DDE90D
:100B2000022304B0404261EB41017047524263EB43
:100B3000430300F02BF8DDF804E0DDE9022304B004
:100B4000524263EB4303704753B94AB9002908BFC7
:100B500000281CBF4FF0FF314FF0FF3000F00CB801
:100B6000ADF1080C6DE904CE00F010F8DDF804E0FA
:100B7000DDE9022304B07047704700BF034613F855
:100B8000012B002AFBD1181A013870472DE9F047D4
:100B900086468C460846089E154674461946002B24
:100BA00040F0C2808542B2FA82F245D94AB1C2F120
:100BB000200300FA02FC2EFA03F3954043EA0C0CE2
:100BC00094404FEA154EA8B2BCFBFEF8230C0EFB76
:100BD00018CC08FB00F943EA0C43994528D9EB18D7
:100BE00008F1FF3704D2994502D9A8F102072B4436
:100BF000A3EB0903A4B2B3FBFEFC0EFB1C330CFBFE
:100C000000F044EA0344A04214D92C190CF1FF333C
:100C100004D2A04202D9ACF102032C44241A43EAC4
:100C200007401EB1D440002334607360BDE8F087F4
:100C30004746DDE76346F1E792BB431B01214FEADC
:100C4000154EAFB2B3FBFEFC200C0EFB1C330CFBAD
:100C500007F840EA0343984562D9EB180CF1FF30DE
:100C600004D2984502D9ACF102002B44A3EB08034F
:100C7000A4B2B3FBFEFC0EFB1C330CFB07F744EAEB
:100C80000344A7424ED92C190CF1FF3304D2A742DA
:100C900002D9ACF102032C44E41B43EA0040C0E754
:100CA000C2F1200320FA03F1954090402EFA03F39D
:100CB00003434FEA154EAFB2B1FBFEFC0EFB1C1016
:100CC000190C0CFB07F841EA0041884504FA02F4CC
:100CD00022D969180CF1FF3004D2884502D9ACF151
:100CE00002002944A1EB08019BB2B1FBFEFC0EFB04
:100CF0001C110CFB07F743EA01439F420ED9EB1886
:100D00000CF1FF3104D29F4202D9ACF102012B4415
:100D1000DB1B41EA004192E76046E3E76146F7E703
:100D20006046A3E76346B7E7834206D916B90021B8
:100D300008467BE7C6E900E0F9E7B3FA83F78FB925
:100D4000834201D3724508D8BEEB020460EB030373
:100D500001209C461EB9002168E73846FAE7C6E93B
:100D6000004CF8E7C7F1200CBB4022FA0CF41C43FE
:100D70002EFA0CF120FA0CF3B84001434FEA144963
:100D80000EFA07F5B3FBF9F81FFA84FE09FB1830D9
:100D90000B0C08FB0EFA43EA00439A4502FA07F2ED
:100DA00040D9E31808F1FF3004D29A4502D9A8F1DE
:100DB00002002344A3EB0A0389B2B3FBF9F809FB51
:100DC000183308FB0EFE41EA03418E452CD9611809
:100DD00008F1FF3304D28E4502D9A8F10203214461
:100DE00043EA0040A0FB0298A1EB0E014145CE462C
:100DF000434602D306D14D4504D2B9EB020E68EB4F
:100E000004030138002EA6D0B5EB0E0261EB0301FE
:100E100001FA0CFC22FA07F34CEA0303F940C6E995
:100E2000003198E74046C5E74346D9E70000000097
:100E300010B50468E217530143EAD4636101091B4A
:100E400063EB02035B0243EAD1534902091942EB07
:100E5000030C4FEA8C1E4EEA916E8B015B1A6EEB0F
:100E60000C0E1B1942EB0E0241685B1842EBE1725B
:100E7000012B72F100011ADBD91842EB0200CB18EA
:100E800042EB0002110141EA13711801C01A61EB33
:100E90000201890041EA90718000154BC01812A32D
:100EA000D3E9002341F10001FFF7FEFD10BDD91881
:100EB00042EB0200CB1842EB0002110141EA137130
:100EC0001801C01A61EB0201890041EA90718000AB
:100ED000084BC01804A3D3E9002361F10001FFF718
:100EE000E3FDE3E7AFF30080D8EF2F000000000040
:100EF000ECF717001408E8FF2DE9F04F476A97B0A8
:100F000014461D46CDE90445239E83467FB9102033
:100F100009F0E8FE0246CBF8240020B9A24BEA21F2
:100F2000A2480AF027FEC0E901770760C760DBF836
:100F30002430196859B15A684A60012393408B6084
:100F400058460AF03FFBDBF8243000221A602B1EC3
:100F5000B9BF23F00043059300233360059F944BF2
:100F6000BCBF01223260BB4319D1229A42F20F73F7
:100F70001360C7F31303234300F0E285249B53B9A6
:100F80008C4B21E08C4B08930833249A136008980B
:100F900017B0BDE8F08F874B08930333F5E7DDE921
:100FA0000423CDE90C23DDE90C0100220023FFF727
:100FB0000BFD804650B1229A01231360249B13B18C
:100FC000249A7E4B13607E4B0893E0E714AB0193A9
:100FD00015AB00935846DDE90C230AF073FDC7F307
:100FE0000A560390002E7AD00D9BCDF84C80C3F3A7
:100FF0001303DDE90C0143F07F5343F44013A6F2E1
:10100000FF36194600226F4BFFF7BEF860A3D3E905
:101010000023FFF771FA60A3D3E90023FFF7B6F8C6
:10102000044630460D46FFF7FDF95DA3D3E90023E2
:10103000FFF762FA02460B4620462946FFF7A6F85C
:1010400004460D46FFF708FD002207460023204610
:101050002946FFF7C3FC40B13846FFF7E3F92246C3
:101060002B46FFF7B1FC00B9013F162F54D8564B61
:1010700003EBC703D3E90023DDE90C01FFF7AEFC66
:1010800000284BD0013F00231293149B9B1B5A1E38
:1010900045BFC3F101030693002300230A9254BF06
:1010A00006930A93002F3BDB0A9B0F973B440A935E
:1010B00000230B93209B092B00F28A80052BC4BFD1
:1010C000043B2093209BA3F10203CCBF0024012406
:1010D000032B00F28880DFE803F02B383657DDE978
:1010E00014631E4406F23243202BC1BFC3F14003F8
:1010F0009F4006F2124324FA03F3D6BFC3F1200344
:1011000047EA030004FA03F0FFF77CF90122A1F19A
:10111000F873013E139274E70123B5E71290B4E728
:10112000069BDB1B06937B420B9300230F93C1E7C7
:1011300000230E93219B002B58DC01230993994631
:101140001A4621920CE00123F3E700230E93219B22
:10115000FB1803F1010909934B46012BB8BF01238A
:10116000DBF824000021042202F114059D4241D93C
:10117000416058460AF0E6F9089000283DD1134B2B
:1011800002464FF4D571CBE60123DFE7AFF30080D1
:1011900061436F63A787D23FB3C8608B288AC63F7D
:1011A000FB799F501344D33F8E280100A5280100EE
:1011B0000000F07F8A280100812801005E280100DC
:1011C0005D2801000000F83FB01401000129010072
:1011D0000124002320930E944FF0FF330993994686
:1011E00000221223ADE701230E93F5E7219B09931B
:1011F0009946B5E701315200B6E7DBF82430089A8A
:101200001A60B9F10E0F6FD8002C6DD0002F36DDAB
:10121000A14B07F00F0203EBC203D3E90034F8053A
:10122000CDE910344FEA271417D59C4BDDE90C01AA
:10123000D3E90823FFF78AFACDE9040104F00F048B
:101240004FF00308954D5CB9DDE91023DDE9040199
:10125000FFF77CFACDE904012BE04FF00208F1E73B
:10126000E10709D5DDE91001D5E90023FFF744F9CD
:10127000CDE9100108F1010864100835E3E700F03A
:1012800007817C42844B854D04F00F0203EBC203BF
:10129000D3E90023DDE90C01FFF72EF9CDE90401C4
:1012A000241100234FF00208002C40F0E580002BB1
:1012B000D0D1129BDDE90445002B00F04C81784B26
:1012C000002220462946FFF789FB002800F04381D1
:1012D000B9F1000F00F03F81099B002B00F3E4807F
:1012E000DDE90C34CDE90434159B002B02DB0E2F15
:1012F00040F342820E9A002A40F067820B9CDDF890
:1013000018800025B8F1000F0DD00A9B002B0ADDD4
:101310004345069AA8BF4346D21A06920A9AA8EBFA
:101320000308D31A0A930B9B0BB30E9B002B00F000
:10133000A682002C00F0A1822946224658460AF0D7
:1013400069FA039A0146054658460AF0B9F9039925
:10135000064658460AF036F90B9B1B1B0B9300F010
:1013600091820B9A314658460AF054FA03900121B3
:1013700058460AF08FF90F9B0446002B00F0848238
:101380001A46014658460AF045FA209B012B0446AE
:1013900003DC049B002B00F07C820026236904EB15
:1013A000830318690FF07DFC0F96C0F120000A9BA3
:1013B000184410F01F0000F09182C0F12003042BAC
:1013C00040F38182069BC0F11C00034406930A9BF4
:1013D000034480440A93069B002B05DD03991A46BB
:1013E00058460AF071FA03900A9B002B05DD21464E
:1013F0001A4658460AF068FA0446129B002B00F081
:101400007682039821460FF09BFC002880F26F82C1
:10141000002303990A2258460AF0F6F80E9B03901F
:101420007E1E002B00F05C82002329460A225846CB
:101430000AF0EAF8099B002B054603DC209B022BEF
:1014400000F35E82B8F1000F05DD2946424658469A
:101450000AF03AFA05460F9B002B00F0D08269682B
:1014600058460AF06FF80746002840F07F820D4B7F
:10147000024640F2EA2153E5E20706D5D5E900230A
:10148000FFF73AF808F101080123641008350BE76B
:101490004FF002080DE700BFB014010088140100EE
:1014A0000000F03F012901002046AD4B00222946F3
:1014B000FFF722F8CDE90401099C7E1E08F101081E
:1014C0004046FEF7AFFFDDE90423FFF715F8A54B13
:1014D0000022FEF75BFEA1F15073CDE910011193DC
:1014E000002C3BD1DDE904019F4B0022FEF74CFEAE
:1014F00002460B46CDE90423DDE91023FFF78CFA01
:10150000002840F05781DDE9102101F10043DDE9B9
:101510000401FFF763FA00283FF4E2AE00242546F9
:10152000219BDDF820A0DE434FF0000821465846FD
:101530000AF048F8002D00F0A980B8F1000F05D09E
:10154000A84503D0414658460AF03CF8294658467B
:101550000AF038F89AE03E464C46B1E7834B03EB7D
:10156000C40353E90201089B1C440E9B002B4AD084
:1015700002460B4600207E49FFF7E8F8DDE910231C
:10158000FEF702FECDE91001DDF820A0DDE904013F
:10159000FFF762FA0546FEF745FF02460B46DDE916
:1015A0000401FEF7F1FD3035CDE9040102460B469A
:1015B0000AF8015BDDE91001FFF72EFA002865D17A
:1015C000DDE904236B490020FEF7DEFD02460B46F1
:1015D000DDE91001FFF720FA002840F00D81A24557
:1015E00000F0EA80DDE910015D4B0022FEF784FF88
:1015F0005B4BCDE910010022DDE90401FEF77CFF21
:10160000CDE90401C2E7DDE91023FEF775FFCDE95E
:101610001001DDF820A0A046DDE90401FFF71CFA67
:101620000546FEF7FFFE02460B46DDE90401FEF724
:10163000ABFD30350AF8015B02460B46A245CDE909
:1016400004234FF0000223D1494BDDE91001FEF7DE
:101650009DFD02460B46DDE90401FFF7DDF9002898
:1016600040F0CA80DDE9102341490020FEF78CFDDF
:1016700002460B46DDE90401FFF7B0F970B1C2463E
:1016800008F1FF381AF8013C302BF8D0374655E006
:10169000334BFEF731FFCDE90401BDE7DDE90C3442
:1016A000CDE90434159B002BFFF628AE0E2F3FF733
:1016B00025AE2E4B03EBC703D3E90034CDE9063446
:1016C000219B002B02DAB9F1000F64D0DDE904455B
:1016D000DDF820A0DDE9062320462946FFF736F88D
:1016E000FFF7BAF90646FEF79DFEDDE90623FEF791
:1016F00003FF02460B462046294606F13004FEF75A
:1017000043FD0AF8014B089CAAEB0404A1450246DC
:101710000B4640F08280FEF739FDDDE906230446E2
:101720000D46FFF779F9002865D1DDE9062320464B
:101730002946FFF749F908B1F3075CD403995846E5
:1017400009F040FF00238AF80030229B01371F6018
:10175000249B002B3FF41BACC3F800A017E400BF90
:101760000000244000001C4000001440B0140100A0
:101770000000E03F0000F03FA24B03EBC703D3E9BA
:101780000034CDE90634219B002B9FDAB9F1000F1C
:101790009CDC7FF4C3AE9C4B0022DDE90601FEF722
:1017A000ABFEDDE90423FFF72DF9044600287FF4A2
:1017B000B5AE3E462546B4E0DDE90C34CDE904344F
:1017C000159B002B01DB0E2FD6DD209A012A36DC7B
:1017D000139A82B303F233430B9CDDF81880069A08
:1017E0001A4406920A9A01211A4458460A9209F0AC
:1017F00051FF054686E53E4653469A4613F8012DAD
:10180000392A06D1089A9A42F7D10899302201362E
:101810000A701A7801321A7038E77C4B0022FEF702
:101820006BFE0022002304460D46FFF7CDF800288A
:101830003FF450AF82E7149BC3F13603CCE70B9B18
:1018400009F1FF34A34208DBB9F1000FA3EB040454
:101850000EDBDDF818804B46C1E70B9B0F9A0B940B
:10186000E31A1A44DDF818800F924B460024B6E7BD
:10187000069BA3EB09080023B1E7039E71E50B9AD1
:10188000039970E5039672E5209B012B17DC049BFE
:10189000ABB9059BC3F313039BB9059B23F000462B
:1018A000360D360536B1069B013306930A9B01338C
:1018B0000A9301260F9B002B7FF470AD0F96012039
:1018C00075E50026F6E73FF486AD069A1C331A4408
:1018D00006920A9A1A4498440A927CE50346F4E771
:1018E000099B002B2BDC209B022B09DC27E0B9F1A4
:1018F000000F1DDC209B022B1ADDCDF824903E4604
:10190000099B002B7FF40CAE21460522584609F0B6
:101910007BFE0146044603980FF012FA00287FF779
:10192000FFADDDF820A031230AF8013B0136FBE5CD
:101930000E9BCDF824903E46002B7FF483AD089F8C
:10194000039821460FF025F900F1300907F8019BB3
:10195000089B099AFB1A9A4240F3CB800399002313
:101960000A22584609F050FE0390E9E72A6902323C
:10197000920005F10C010C300EF0C8FF012239462F
:10198000584609F0A1FF089B03F1010ADDE908238D
:1019900013440A93049B03F00103A8460B930546E6
:1019A0000AF1FF332146039806930FF0F2F84146FF
:1019B000099000F1300903980FF0C2F92A46214638
:1019C0000746584609F0ECFFC268014602B3584684
:1019D00009F0F8FD002F3ADA03990122584609F080
:1019E00073FF214603900FF0ABF9002803DC29D1E7
:1019F00019F0010F26D0B9F1390F1DD132E0284678
:101A0000C1E700BFB01401000000144000002440F2
:101A10000E9003980FF094F90E990C90584609F027
:101A2000D1FD0C9A5ABB209B53B90B9B43B9B9F11A
:101A3000390F17D0002F05DD099B03F1310901E0B3
:101A4000002F2ADADDF818A00AF8019B6EE5209B2A
:101A50003B4304D1049B03F00103002BBCD0B9F13C
:101A6000390F36D1069F392307F8013BBA46013FAB
:101A70001AF8013C392B5BD001333B7056E5002F3F
:101A800006DB209B3B4306D1049B03F0010313B903
:101A9000002AA1DCD6E7002AE1DC0A9B0AF8019CB7
:101AA000534557462FD0039900230A22584609F080
:101AB000ABFDA84503904FF000034FF00A024146EA
:101AC00058460BD109F0A0FD804605460AF1010AEF
:101AD00066E7DDF818A009F10109B5E709F094FD02
:101AE0002946804600230A22584609F08DFD054606
:101AF000ECE7099B002BC8BF1F46089BD8BF0127F6
:101B00001F444FF0000803990122584609F0DCFEFB
:101B1000214603900FF014F90028A7DC02D119F038
:101B2000010FA3D1BA4617F8013D302BFAD0FDE4DE
:101B3000089BBB429AD1089A312301361370F5E411
:101B4000249B002B7FF41EAA014BFFF73DBA00BF78
:101B50008128010008B500F09DF80A2000F0F8F88F
:101B600000F05EF8174A032117480CF072F80121C3
:101B700008460AF073FC00F005F9002101200AF084
:101B80006DFC13E0022000F0CBF8104B00221A602D
:101B900013E0032000F0C4F80D4B00221A601E2051
:101BA0000AF0A7FB40F6B8300AF0A3FB1E2000F0B5
:101BB000CFF8064B1B68002BE4D1054B1B68002BAC
:101BC000E7D1ECE778150100CC130100F41C0020EC
:101BD000F01C002038B5836805699C697CB112F45B
:101BE000000F06D02D6801238B401D4201D082F0EA
:101BF000C062044B134002F0B072A04738BD6FF0D2
:101C00005700FBE740000006014B01221A607047B5
:101C1000F41C0020014B01221A607047F01C0020C8
:101C200038B5154C4FF4803120460AF0A8FB4FF030
:101C3000B86120460AF073FB1049114B4B604FF41A
:101C400000638B600F4C20460AF0A4FB0E4D4FF44E
:101C5000803128460AF093FB4FF0707128460AF055
:101C60005EFB0A490A4B4B604FF480538B60204661
:101C70000AF090FB38BD00BFA8150100E41C00204D
:101C8000091C000004110100A0150100D81C00204F
:101C9000151C000010B514480EF077FA08B90020A2
:101CA00010BD11480EF071FA08B90020F8E70E488F
:101CB0000EF06BFA08B90020F2E74FF4B0110B48B0
:101CC0000AF09AFB04464FF4B01109480AF094FB5D
:101CD00004434FF4B01107480AF08EFB044301D4CB
:101CE0000120DDE70020DBE704110100C015010041
:101CF000B8150100B0150100022807D0032807D04D
:101D0000012801D000207047024870470248704700
:101D100002487047C0150100B8150100B015010058
:101D200038B5FFF7E9FF0546002406E028460AF02B
:101D30008BFB064808F0C4FB01340B2CF6DD0022B7
:101D4000297928680AF073FB38BD00BFA08601001E
:101D500038B50546002409E008480AF075FB40F64E
:101D6000B83005FB00F008F0ABFB0134052CF3DDC7
:101D700000220F2102480AF05AFB38BDC0150100AD
:101D80000411010010B582B0A02000F027FA4FF630
:101D9000FF7000F0F5F900240BE04FF4704300935E
:101DA000234600221A49098810460AF0DFFB053451
:101DB000A4B2174B5B88A342EFD800240AE00F239C
:101DC0000093002322461249098818460AF0CEFBE8
:101DD0000534A4B20E4B5B88A342F0D8002408E07F
:101DE000002322460A49098818460AF043FC0134B8
:101DF000A4B21D2CF4D905214B2000F02DF881222E
:101E00004FF6FF71034800F07DF902B010BD00BF2E
:101E1000A0100020C815010008B503480AF082FB95
:101E200000B9FEE708BD00BFA810002000B587B0CC
:101E30008DF807000DF1070304930123059304AA0D
:101E40000292039302A903480AF062FBC0B207B0F2
:101E50005DF804FBA8100020F02806D9054B198076
:101E6000054B02221A8000207047024B1980024B5A
:101E70001880F8E7221F0020201F002038B50446F4
:101E8000124D00221E2128460AF035FB3620FFF7AE
:101E9000CDFF01221E2128460AF02DFB2046FFF728
:101EA000C5FF04F0F004602C01D0A02C0CD1084A2E
:101EB0004FF4A0731380F023538093885B009BB290
:101EC0000A3393801423D38038BD00BF041101006E
:101ED000A0100020884247D82DE9F04107460C4663
:101EE00016461D46244B1B888B423FD3AA4240D83E
:101EF000214B5B88AB4201D2012038E0DFF87C80C7
:101F000000221E2140460AF0F6FA2A20FFF78EFF33
:101F100001221E2140460AF0EEFA380AFFF786FF3A
:101F2000F8B2FFF783FF200AFFF780FFE0B2FFF768
:101F30007DFF00221E2140460AF0DDFA2B20FFF72C
:101F400075FF01221E2140460AF0D5FA300AFFF73C
:101F50006DFFF0B2FFF76AFF280AFFF767FFE8B2EC
:101F6000FFF764FF002002E0012070470120BDE878
:101F7000F0810120FBE700BFA01000200411010048
:101F800070B505460C460D4E00221E2130460AF063
:101F9000B2FA2C20FFF74AFF01221E2130460AF038
:101FA000AAFA06E0280AFFF741FFE8B2FFF73EFF72
:101FB0003446661E002CF5D170BD00BF041101002F
:101FC0002DE9F04180460F466AB3802A5CD0812A11
:101FD0003BD105252B46013DEDB2002B00F086805C
:101FE000A8F1200303EB8303434A13445E5D0823F7
:101FF0005EE023465C1EE4B2B3B146FA04F313F08C
:10200000010FF6D03D4B1888284480B23C4B1A880B
:10201000224492B213460146FFF75CFF0121384685
:10202000FFF7AEFFE5E705252B46013DEDB243B1D5
:10203000A8F1200303EB83032F4A13445E5D0823BA
:10204000D8E72E4A1388063313800020BDE8F081BC
:1020500023465C1EE4B2C3B146FA04F313F0010F49
:10206000F6D0264B1888284480B2254B1A8802EBFC
:10207000440292B2531C9BB20146FFF72BFF022190
:102080003846FFF77DFFE3E705252B46013DEDB21E
:1020900043B1A8F1200303EB8303174A13445E5DA9
:1020A0000823D6E7154A138806331380CDE7234665
:1020B0005C1EE4B2002B8DD046FA04F313F0010F3E
:1020C000F5D00E4B188800EB450080B20C4B1A88F7
:1020D00002EB440292B2531C411C9BB289B2FFF73F
:1020E000F9FE04213846FFF74BFFE0E7034A138867
:1020F0000B331380A9E700BF0C160100201F00203E
:10210000221F00202DE9F041054688461646170992
:10211000083700240CE0174B1A80174BA3F800E097
:102120000134A4B2324641469CF80000FFF748FF54
:1021300005EB040C285DD8B106F00F02052393408F
:102140000D4A128813440D48B0F804E01EFA83F3D8
:102150009BB2084A12883A4492B2C188114489B2AB
:1021600000889842DCD2054B5B888B42D3D2012099
:10217000BDE8F081221F0020201F0020A0100020B9
:1021800010B5044606494B88002209881046FFF71F
:10219000A1FE4FF496312046FFF7F2FE10BD00BFBE
:1021A000A010002010B5044600221E2103480AF0AA
:1021B000A2F92046FFF73AFE10BD00BF041101004E
:1021C00010B5044601221E2103480AF094F9204666
:1021D000FFF72CFE10BD00BF0411010010B504462E
:1021E000FFF71AFE14480DF0D0FF00B910BD1248D9
:1021F0000DF0CBFF0028F9D00F480DF0C6FF0028E6
:10220000F4D04FF4D0110D480AF05AF94FF4D01120
:102210000B480AF055F94FF4B0110A480AF050F98A
:102220000A200AF08DF90AF037FA07480AF04DFA49
:102230002046FFF723FED9E7041101000416010030
:10224000F4150100FC150100E01501002DE9F04F27
:1022500091B005920293134602F004020092C3F378
:10226000C20210F00303019340F02B8280468A469D
:102270000132041D00284FD0B8F1000F05D0A4EBA7
:1022800008030433534500F21F82029B5D1E019B2D
:1022900004930693039300264FF0FF3B0427B946AF
:1022A000B8F1000F01D0029B2360531E0793002A50
:1022B00040F35D81059B13F0020228D00120A4EBBE
:1022C00008018B081AB1B1F5007F80F003820399F1
:1022D0000F2900F20282B8F1000F00F06081DBB23A
:1022E00001F140026A4402F8103C02F820BC0028C8
:1022F00000F0518163F07F0301F140026A4402F86B
:10230000103C049B01330493039B01330393043477
:102310000022CC4640463DE001F0070A5444CAF191
:10232000080AA9E7002634E0002632E0002630E063
:102330000827BC462DE025292BD10BF1010B0126E6
:102340000427BC4625E04729EED82A2914D32A3988
:10235000C9B24FF0010E0EFA01F14FF6DA7E11EA22
:102360000E0F16D111F0625F40F0C08011F0010F26
:1023700040F08C8000260CE0252903D10BF1FF3BB7
:10238000002606E001D9002603E0202901D02329F8
:10239000CCD11D466B1C6978002900F01981002EF4
:1023A000C9D07A29BED84C29CDD34C392E2961D831
:1023B0000FF2040E5EF821F0932300007524000054
:1023C00075240000752400007524000075240000A9
:1023D0007524000075240000752400007524000099
:1023E0007524000075240000852400007524000079
:1023F0007524000075240000752400007524000079
:10240000752400007524000075240000ED240000F0
:10241000752400008524000085240000ED240000C0
:10242000ED240000ED24000093230000852400002B
:102430003123000075240000932300007524000060
:10244000492500008524000049250000752400006E
:1024500075240000512500007F2400008524000021
:1024600075240000752400008524000075240000F8
:102470007924000000268CE70427BC4689E704275E
:10248000BC4686E729786C2924D000263C44013CD0
:10249000B4FBF7F407FB04F420B1211A6144514561
:1024A00000F21581002A58D1BCF1040F00F0888099
:1024B000BCF1080F40F014811A99073121F007018F
:1024C00001F108051A95D1E9008908B1C4E900892C
:1024D00008345EE713F8021C6C2903D00026042799
:1024E000BC46D3E700260827BC46CFE729784C290D
:1024F0001AD01A99073121F0070101F108061A963E
:10250000D1E90067073424F0070440B1211A0831EB
:10251000514513D829784C2913D0C4E900670834F1
:1025200000260827BC4634E71A99073121F0070135
:1025300001F108061A96D1E90067E3E76FF01B0086
:10254000BCE0C4E90067EAE700260427BC469DE733
:10255000324600260427BC4698E7E14680461A9A90
:10256000111D1A9112680292079A1D4698E6624B55
:10257000029A9A4204D3614B9A420AD3002300E0A4
:102580000023002B7FF496AE059B03F0020200208F
:1025900095E60123F5E7069B01330693B4E610B1F7
:1025A0000AF1010AB0E6009B13B10AF1020AABE698
:1025B0000298FEF7E3FA0AEB000303F1020AA3E62E
:1025C0001A990D1D1A95096800B121600434E0E6DE
:1025D0008046231AB3F5806F80F0858090B1002289
:1025E00002609B080370009B83B1069BC370049B31
:1025F00088F802301BBB019DDDF80C90DDF810B0AF
:10260000029F3DE05344A3F1080057E0069B43704E
:10261000EDE701339842EED903F140026A4412F823
:10262000101C12F9102C002AF3DA01F07F01A4EB40
:1026300008020132524559D804F8011BE9E7019B11
:102640000398E7E7009B43B305F140036B4413F89D
:10265000203C04F8013B019EA4EB08033344013302
:10266000534546D805F140036B4413F8103C04F879
:10267000013B3246394620460EF048F934440135D4
:10268000A94519D9BBF1000FDCD005F140036B441B
:1026900013F9103C002BD5DAF1E705F140036B4448
:1026A00013F8103C58F82370002248F823203846CD
:1026B000FEF764FA461CCFE7A4EB080011B0BDE8B2
:1026C000F08F6FF00D00F9E76FF01B00F6E76FF089
:1026D0001B00F3E76FF01500F0E76FF01500EDE772
:1026E0006FF01500EAE76FF01500E7E76FF01B00E9
:1026F000E4E76FF01B00E1E764100100C829010066
:102700002DE9F04F97B000AF8346BA613B61D7F82F
:102710008030C3F3C0033B62F96011B90AF002F8DC
:10272000F8609BF80260B14636B1D7F8803013F0FC
:10273000010F0DD1002300E000239BF803207A62F3
:1027400042B1D7F8802012F0020F22D1002202E01D
:102750000123F2E7002202B9EBB19BF80050AA0076
:10276000BA60DBF804207A610BEB8505BA69F2B137
:10277000002B40F00481B9F1000F00F00F81D7F871
:10278000803013F0040F40F00D810020F861064600
:10279000F9E00122DFE7BB691BB13A69F9685846E5
:1027A0009847FC6820465C37BD46BDE8F08FFC6862
:1027B000E3B94D4400233B6123E004440135013675
:1027C0004E451AD22A7800235BF822201946B869B0
:1027D00009F0BDFFBAF1000FEFD0D7F88830984567
:1027E000EBD22AF8180008F10108E6E70026C7F83E
:1027F0001C80B046D7F884A0E2E7C7F81080D7F86D
:102800001C80D7F8803003F00503FB604FF0000A0E
:10281000A146C7F81CB09CE000253B6A7BB9002D9F
:1028200079D0D7F8803013F0010F79D1FB68002BF5
:102830006FD10223A9EB030988E00125EDE7594692
:10284000786909F0CAFF0028E9D06C46002387F8B0
:102850002C30022387F82D308AB0694611F110021E
:1028600037D012251AB1042D01DDB34B4B61002383
:1028700087F82830022387F829306ABB112D45DDFF
:10288000122362B1042087F82C00002087F82D0065
:1028900087F82E00012087F82F00F86A08616FF38F
:1028A00000086FF341086FF382086FF3C508022137
:1028B00061F38818C3F30A0363F353286FF31F58B7
:1028C000002341469D4801F0F1F9A546A9F102090E
:1028D0003CE06FF00045C5E72B46082D01DD786927
:1028E00088610C2B01DDC1F81CB001F12003002030
:1028F00009E000F1300C07F1280EF4441CF830CC4C
:1029000003F801CB01300128F3D9B7E76FF01B03BF
:10291000B7E701238EE7D7F8803013F0020F15D008
:10292000002322461946B86909F011FFD7F8843010
:1029300053B13B69D7F88820934205D2D7F8842059
:1029400022F8130001333B61013881440AF1010A86
:1029500035467B6A9A4510D22E4616F802BB6B7834
:10296000FA6952F82340764B9C42FFF455AF754B01
:102970009C42FFF462AF00254FE74C4612E707F197
:1029800044000023FB6118B14A4629460DF0BEFF02
:102990004D444FF00008C7F804901EE00020F86195
:1029A0000646F0E7FE6107F134000026EBE700255C
:1029B0003B6A33BB002D3BD0D7F8803013F0010FBA
:1029C00026D0731C06F1300207F12801561806F8CC
:1029D000149CDEB208F1010825467B6A98454AD26C
:1029E0002C4614F802AB95F801905BF82930544A54
:1029F0009342DCD3534A934201D30025D8E7012503
:102A0000D6E75146786909F0E8FE0028D2D0E1E720
:102A1000D7F8803013F0040FDCD0FA69531C303241
:102A200007F128010A4402F8249CDBB2FB61D1E7DC
:102A3000D7F8803013F0020F09D0731C06F1300272
:102A400007F12801561806F8149CDEB2C2E7F869AF
:102A5000431C00F1300107F128028A1802F824AC67
:102A600002460232D2B2FA6107F1580252FA83F3F7
:102A700003F8249CAEE7D7F804909BF8003087F861
:102A800054309BF80130334487F85530D7F8803004
:102A900013F0020F0ED1FB69C3F3470387F85730D9
:102AA000D7F8803013F0010F06D113F0040F3ED198
:102AB000002302E00023F1E7002387F85630DBF81B
:102AC00000003863786DCBF80000D7F810804246DC
:102AD000B9685846D7F818A0D047041EFFF662AE72
:102AE000386BCBF80000C7F810804246F96907F14F
:102AF0003400D04700285EDB04EB0008B968494485
:102B00007B6A01EB4301D7F810904A46FB68591ADB
:102B10002846D047041EFFF645AE08EB04054FF0EB
:102B20000008C7F824B0B3465446CA4621E0FB6902
:102B3000C3E74FF0000909E0FC17010094130100FE
:102B400064100100C82901004FF00009524601211C
:102B500007F12C00A04700282FDB05444B463246E6
:102B60005146204609F0F3FD002828DB054408F112
:102B70000108D84518D208F1300307F128021344A0
:102B800013F8143C87F82C307A6A52F82360D7F88F
:102B90008430002BCDD0D7F888309845D4D2D7F8E0
:102BA000843033F81890D1E73A6900210846BB69B0
:102BB00098472C46F6E50446F4E50446F2E504465B
:102BC000F0E500BF014B1860704700BFC010002047
:102BD00010B586B004460390049100210591009140
:102BE00003A9064800F0DAF8059B049A934201DA3B
:102BF0000022E254059806B010BD00BF2DC80000A9
:102C000084460268002006E000EB8000013203EBFE
:102C10004003A3F1300013780349C95C11F0040F9D
:102C2000F2D1CCF8002070474D27010084460846B9
:102C3000012226E09CF8003043F004038CF80030B9
:102C4000F2B101301CE09CF8003043F008038CF82E
:102C50000030F5E79CF8003043F010038CF80030AA
:102C6000EEE79CF8003043F020038CF80030E7E7F3
:102C70009CF8003043F040038CF80030E0E700227D
:102C800042B30378203B102BF9D801A151F823F06F
:102C9000552C00007F2C00007F2C0000632C0000CE
:102CA0007F2C00007F2C00007F2C00007F2C000078
:102CB0007F2C00007F2C00007F2C0000472C0000A0
:102CC0007F2C0000352C00007F2C00007F2C0000A2
:102CD000712C00009CF8003003F04403442B00D01A
:102CE00070479CF800306FF386138CF80030F7E7DC
:102CF0002DE9F84F05460C46934699460A9ED07832
:102D0000254B13F800A00AF0030A09F04BFF074611
:102D100014E0BAF1010F20D0D2B25732D2B23270E1
:102D20003A46434628462146FDF70EFFBD4274F160
:102D3000000416D34E4514D905460C464FF0000842
:102D40003A46434628462146FDF7FEFE013E092A43
:102D5000DFD8D2B23032D2B2E1E7D2B23732D2B219
:102D6000DDE79BF8003013F0200F03D0082F04D0CC
:102D7000102F09D03046BDE8F88F9BF8023043F0A1
:102D800008038BF80230F5E79BF8023043F010039C
:102D90008BF80230EEE700BF4D2701002DE9F04F20
:102DA00091B006460D4691460393002499F8000021
:102DB000002800F0B982252808D02946B04700280D
:102DC000C0F2B382013409F10109EFE70023049353
:102DD00005930693079308930993494606A809F0BB
:102DE000BFFE02909DF8193013F0010F00F097809C
:102DF000039B1A1D03921F68002FC0F288809DF864
:102E0000193013F0040F00F09C80039B1A1D0392ED
:102E1000D3F800A0BAF1000FC0F28A800023079314
:102E200008939DF81A3003F007039DF81910C1F3B9
:102E3000C301012B00F08E80022B00F0D380042B05
:102E400000F02481032B00F03B819DF8188018F0DE
:102E5000030B40F03B819DF81B30253B532B00F2C8
:102E6000CA81DFE813F04001C801C801C801C801E8
:102E7000C801C801C801C801C801C801C801C8010A
:102E8000C801C801C801C801C801C801C801C801FA
:102E9000C801C801C801C801C801C801C801C801EA
:102EA000C801C801C801C801C801C801C801C801DA
:102EB000C801C801C801C801C801C801C801C801CA
:102EC000C801C801C801C801C801C8019D01C801E5
:102ED000C801C801C801C801C801C801C801C801AA
:102EE000C8017A018301C801C801C801C801830172
:102EF000C801C801C801C801BD019D015E01C8012A
:102F0000C8014D01C8019D01C801C8019D019DF87E
:102F1000183043F004038DF818307F426FE79DF9B5
:102F20001830002B02DB4FF0FF3768E7079F66E79A
:102F30009DF819306FF341038DF819304FF0FF3AC7
:102F40006CE713F0020F02D0DDF820A066E74FF027
:102F5000FF3A63E7CB1E042B04D8DFE803F00B1D18
:102F600029353500039B1A1D03921B68DA17049359
:102F7000059206E0039B1A1D03921B68DA1704935F
:102F80000592012928D002297FF45FAFBDF91030E6
:102F9000DA170493059258E7039B073323F00703DE
:102FA00003F108020392D3E90023CDE90423E8E703
:102FB000039B073323F0070303F108020392D3E9CD
:102FC0000023CDE90423DCE7039B1A1D03921B6851
:102FD000DA1704930592D4E79DF91030DA170493B9
:102FE000059232E7CB1E042B04D8DFE803F00B1F59
:102FF00035414100039B1A1D03921B680493002373
:1030000005931EE09DF81B30632B07D0039B1A1D10
:1030100003921B6804930023059312E0039B1A1D7F
:1030200003921B680493002305930AE0039B073374
:1030300023F0070303F108020392D3E90023CDE94B
:10304000042301291CD002297FF4FFAEBDF8103003
:10305000049300230593F8E6039B073323F007034B
:1030600003F108020392D3E90023CDE90423E8E742
:10307000039B1A1D03921B68049300230593E0E74A
:103080009DF81030049300230593DEE608290BD049
:10309000039B073323F0070303F108020392D3E9EC
:1030A0000023CDE90423D0E6039B073323F0070375
:1030B00003F108020392D3E90023CDE90423C4E617
:1030C000039B1A1D03921B680493BEE6029F3B46B6
:1030D0004A462946304609F099FD0028C0F225816C
:1030E0000444B94662E629462520B0470028C0F2CC
:1030F0001C810134D8460DF13E0A4FF000097FE0F3
:10310000DDF81090BAF1000F06DA4846FDF736FDFB
:1031100009EB000AD84673E0514648460DF02DFDF4
:10312000F6E7049828B9D846DFF804A2AAF1050901
:1031300066E00DF13E0300930AAB06AA0021FFF7FB
:10314000D7FD81469DF81A3043F010038DF81A30F0
:1031500078238DF81B30D8462DE0049B8DF828305D
:10316000D8460DF1290A0DF1280949E018F0080F99
:1031700005D118F0100804D04FF0200801E04FF0FE
:103180002B08049A059B002B02DB0492059308E0B0
:10319000524263EB4303049205934FF02D0800E085
:1031A000D8460DF13E0300930AAB06AADDE90401FF
:1031B000FFF79EFD8146BAF1000F50DB0DF13E0393
:1031C000A3EB09039DF818206FF386128DF81820E1
:1031D0009A4547D9AAEB030307930DF13E0A0FE086
:1031E0002246049906A809F0F2FCD8460DF13E0AE1
:1031F0004FF0000904E0D8460DF13E0A4FF00009F7
:10320000B9F1000F00F08D80AAEB0902B8F1000FB0
:1032100000D001329DF81A1011F0100F25D00232A3
:10322000079B134411F0400F01D0089A1344002F5C
:1032300031DDFF1A9DF8183013F0040F2BD113F075
:10324000400F17D0B8F1000F17D029464046B047BD
:1032500000286ADB0134D8464FF0300B0FE00DF147
:103260003E0ACDE70DF13E0ACAE711F0080FD7D0AC
:103270000132D5E74FF0200B01E04FF0300B3B4619
:103280005F1E002B07DD29465846B04700284CDB5F
:1032900001343B46F4E7B8F1000F05D0294640461B
:1032A000B047002841DB01349DF81A30C3F3001207
:1032B000C3F3C0031A4305D029463020B047002885
:1032C00033DB01349DF81A3013F0100F06D0294675
:1032D0009DF81B00B047002827DB0134079B03F152
:1032E000FF38002B07DD29463020B04700281CDBC3
:1032F00001344346F3E753464A462946304609F02F
:1033000085FC002811DB0444002F07DD294620201E
:10331000B047002809DB0134013FF5E7DDF80890EC
:1033200044E5DDF8089041E5204611B0BDE8F08F96
:10333000B918010080B582B00546EFF3118720234C
:1033400083F31288BFF36F8F0DE089F31188BFF309
:103350006F8F2B6A40469847EFF31187202383F342
:103360001288BFF36F8F05F10806012130460AF07D
:10337000F0F8044600283BD0A0F120080146304672
:103380000AF0F6F8244EB368A36005F11403AA69A5
:10339000236062601460AC614146B06809F04CFF84
:1033A000B06809F06AFF87F31188BFF36F8F54F894
:1033B000183C40469847EFF31189202383F3128885
:1033C000BFF36F8F4F46B06809F05CFF0028CAD189
:1033D0006268236813605A60002323606360A360FF
:1033E0002B6A002BB1D1A4F1100006F053FABAE712
:1033F0004FF0FF324FF0FF33CDE900232A46394624
:10340000284606F077FEEFF31187202383F3128816
:10341000BFF36F8FA7E700BFD81E002010B504468A
:10342000242200210DF080FA24606460034BE360E5
:1034300004F114036361A36110BD00BF43D2000017
:10344000F0B589B00446084611461A46E36913F000
:10345000020F12D04FF0FF364FF0FF37CDE906676D
:10346000002304936FF00F050395029301930094DA
:10347000034B0DF013F809B0F0BD00260027EDE76F
:10348000353300002DE9F0411D4C31E0A66829E0FC
:103490003046FFF7C3FFA36933626369F36113F03A
:1034A000040F02D043F00203F361E168226963680C
:1034B00005FB0822B02000FB08113046FFF7C0FFD3
:1034C00001372368B846BB4211D96568073525F036
:1034D0000705636913F00103D8D0A66808EBC8019B
:1034E0008A001644002FD3D0002BD6D0D0E71C344E
:1034F000044B9C4201D20027E3E70020BDE8F081A5
:10350000DC120100F81201002DE9F04383B00446FB
:1035100008461546238B13F0080F05D103F0070664
:1035200000230093019354E0012909D043F02003C4
:10353000238385F31188BFF36F8F03B0BDE8F08359
:1035400043F010032383F4E720460AF036F942E003
:10355000D4F814904A46694620460AF047F94FF0DD
:103560000008238B03F00707B74269D0A268002A3E
:1035700066D0012243F00803238385F31188BFF34B
:103580006F8F002A64D1009B2BB14B463A466946A7
:1035900020460AF0A4F9B8F1000F02D034492046C1
:1035A000C047EFF31185202383F31288BFF36F8F99
:1035B000238B23F008032383238B13F0100F4DD0AC
:1035C00023F0100323830120268B06F00706002832
:1035D000AFD00228B8D00028ABD0013804282BD8AF
:1035E00001A353F820F000BF513500003936000028
:1035F000FD35000011360000253600002369D3F8A0
:103600000080062120460AF0AEF84FF00009A8E736
:103610002369D3F80480042120460AF0A4F84FF06F
:1036200000099EE72369D3F80880052120460AF0A7
:103630009AF84FF0000994E74FF00008C14690E770
:10364000009A0AB1002295E7B8F1000F92D1B3E7D2
:103650004A46394620460AF08EF894E713F0200FC8
:1036600004D023F0200323830220ADE70020ABE742
:103670000DD9000038B505460B4C00E010340B4B5B
:103680009C420FD263685B79002BF7D02946204615
:103690000AF02CFA0028F1D023681B68294620463E
:1036A0009847EBE738BD00BF241401003414010033
:1036B00070B506460D46084C04E02A4631462046C1
:1036C00098471034054B9C4204D223689B69002B19
:1036D000F3D1F6E770BD00BF2414010034140100DB
:1036E0002DE9F041074605460AE007EA0807144BB2
:1036F00003EB06135B680422196820460AF040FABF
:10370000D5B195FAA5F6B6FA86F60D4C04EB06147B
:103710000123B3406FEA030825EA0305237B002B4E
:10372000EED03301064AD3581B69002BDDD020466A
:1037300098470028E4D1D8E73846BDE8F08100BFBB
:10374000241401002DE9F04180460F461F4BBFF3C2
:103750005B8F53E8005F6A1C43E800210029F8D121
:10376000BFF35B8F6DBB1A4C002607E06368042231
:10377000196820460AF004FA01361034154B9C42B1
:1037800011D2237B002BF7D020460AF0A3F923683F
:103790001B69002BEAD0204698470028E6D0012379
:1037A000B3401D43E8E7B8F1000F0BD055B12846F0
:1037B000FFF796FF0546002FF8D00A200AF09CF983
:1037C000F4E700252846BDE8F08100BF0C1D00206D
:1037D000241401003414010008B5064B186018B118
:1037E000054B1B68092B00DC08BD044806F052F8A5
:1037F000FAE700BF001D0020081D0020081400206B
:1038000008B5024806F046F808BD00BF08140020BD
:1038100030B589B000220F490F480DF058F80F4D10
:1038200000220023CDE90623002404940E230393F1
:103830000294019400940A4B4FF4407209492846BF
:103840000CF02CFE0849284606F01EFA204609B066
:1038500030BD00BF01380000D0180020181400202F
:10386000DD3B0000301F0020C4180100014B53F85D
:1038700020007047E018010048B108B5054A106003
:10388000054B1960084600F007FD002008BD6FF0E9
:1038900015007047C4100020FC1C002008B5054B23
:1038A0001B781BB1034B01221A7008BD024805F0BA
:1038B000F1FFF7E7261F00200814002008B5104B81
:1038C000BFF35B8F53E8001F013143E80012002A69
:1038D000F8D1BFF35B8F30B90A480DF004F80A48FD
:1038E00005F0D8FF08BD094BBFF35B8F53E8001FFD
:1038F000013943E80012002AF8D1BFF35B8FEBE7F0
:10390000041D0020D018002008140020081D0020ED
:10391000064B00200146BFF35B8F53E8000F43E8DE
:103920000012002AF9D1BFF35B8F7047041D0020FD
:1039300038B5FFF7EDFF0546094C00E01034094BA0
:103940009C420BD263685B79002BF7D023685B68DD
:10395000002BF3D0294620469847EFE738BD00BF3B
:103960002414010034140100034B18680028D4BF4C
:1039700000200120704700BF041D002010B5044C3A
:103980000449204609F0B3FA034B1C6010BD00BF88
:103990003C130020CC180100F81C002008B50023BF
:1039A0000C4A13700C4A13600C4A13604FF4004128
:1039B0000B48FFF761FFFFF7E1FF0A4A06E0094BFA
:1039C000D31A1B11013351680B711032064B9A4206
:1039D000F5D308BD271F0020041D0020081D00206E
:1039E000F1DA0000241401003414010008B5014686
:1039F00001480AF097F808BD3C13002008B50248BA
:103A000009F058FB08BD00BF3C13002008B5014673
:103A1000024B18680AF08CF808BD00BFF81C0020A3
:103A200008B502480AF088F808BD00BF3C13002022
:103A300010B582B000220023CDE90023284B18786E
:103A400008B902B010BD68460AF08EF8044680B18D
:103A5000FFF710FE2046FFF7D9FF224BBFF35B8F25
:103A600053E8001F013943E80012002AF8D1BFF3E0
:103A70005B8FFFF779FF58B91B4A1368516813F53C
:103A80007A7341F1000113605160FFF7C9FFD8E775
:103A90000CF00EFF4A0142EAD06243011B1A62EBAE
:103AA0000102920042EA93729B001B1842EB010252
:103AB000D20042EA5372C3F3103343EA4243D20BBB
:103AC0000948016840685B1A62EB000240F2E93184
:103AD0008B4272F10002CFD3FFF72AFFCCE700BF81
:103AE000261F0020081D0020C81800200F4B1B783F
:103AF00003B1704710B500210120FFF723FE0C4CE5
:103B000000E010340B4B9C4208D263685B79002BB9
:103B1000F7D023689B6820469847F2E7FFF788FFB5
:103B20000028FBD1014B01221A7010BD271F002075
:103B3000241401003414010010B582B01A4BBFF3F5
:103B40005B8F53E8002F511C43E800100028F8D188
:103B5000BFF35B8F154B1B7863B9154B1B68B3B173
:103B6000BAB1092A13D113480CF0BDFE124805F072
:103B700091FE0CE0EFF31184202383F31288BFF34E
:103B80006F8FFFF755FF84F31188BFF36F8F02B07B
:103B900010BD00220023CDE900234FF40042002392
:103BA000044807F049F8F2E7081D0020271F00200D
:103BB000001D0020D01800200814002010B5044675
:103BC000044B1B689847A0602146034809F0D0FFCA
:103BD00010BD00BFC41000203C1300202DE9F041AF
:103BE00000210846FFF7AEFD804640B140F267660F
:103BF000002706F0C5FCFFF7EFFD002515E04FF0AC
:103C0000FF364FF0FF37F4E74046FFF769FD804687
:103C100070B94FF0FF364FF0FF3709E02C463246BF
:103C20003B46094805F07AFE2546B8F1000FEBD176
:103C3000FFF7FEFE04460028F6D1002DEED000214D
:103C40000846FFF735FDEAE7081400200248034B59
:103C5000C01AC008704700BF24140100841301007B
:103C600010B50C46FFF7F2FFA04203D9024B53F800
:103C7000340010BD0020FCE78413010000B589B0BA
:103C8000059206930023079362B1074A0C9B0293A7
:103C90000B9B01930A9B009305ABFEF731FD09B026
:103CA0005DF804FB0022F1E797DB00002DE9F04FFF
:103CB0008BB004AF05461E468846C1F34A24002C4B
:103CC00000F0898091460022FA603A617A6104230B
:103CD0000293FB1801930A23009307F10C0321467A
:103CE0004846FEF70DFDB0F5006F58D3D9F8041023
:103CF0006D4600233B7302237B738AB004AC14F13E
:103D0000100217D012201AB1042801DD3B4B636169
:103D100000233B7002237B70CAB10346082800DDF4
:103D2000A1610C2B02DD40F2FF73E36104F120037B
:103D300000210AE06FF00040E5E701F118063E447B
:103D400016F8186C03F8016B01310129F5D9112817
:103D500022DD122342B10421397300217973B97332
:103D60000121F973F868206100216FF300016FF3FE
:103D700041016FF382016FF3C501022060F38811E6
:103D8000C3F30A0363F353210023C1F313011C4857
:103D900009F074FFAD462DE06FF01B03DAE760F326
:103DA0005328C0F30A0A0AEB1850173020F0070016
:103DB0008008FFF71BFE8346B0B104230293FB1873
:103DC00001930A230093534600F11002214648460E
:103DD000FFF754FF08E004EB1154173424F00704F4
:103DE000A008FFF703FE834633464246294658465D
:103DF00009F0E7FE1C37BD46BDE8F08F0019010051
:103E0000B41301002DE9F04F85B080460D461746EA
:103E10001E46DDF838B0DDF84090B9F1000F41D012
:103E2000119B039300934B460F9A10210020FEF73D
:103E30000DFAB0F5006F2DD282460BEB000317335D
:103E400023F0070300246FF300046FF341046FF3C2
:103E5000820468F3C50467F3881460F353246BF39A
:103E60001F549808FFF7C2FD074650B11030B9F152
:103E7000000F06D0119B00934B460F9A5146FEF758
:103E8000E5F9334622462946384609F09AFE05B040
:103E9000BDE8F08F40F2FF73034A0221034809F0A6
:103EA000E2FEF4E70020C7E740190100B413010067
:103EB000406820B1034BC01A40F3CF0070474FF069
:103EC000FF307047841301000EB400B584B0014682
:103ED00005AB53F8042B0393002000900348FEF732
:103EE0005DFF04B05DF804EB03B07047B3DC000085
:103EF00010B584B011F0440F05D01A4B1B6833B9CC
:103F0000002004B010BD1849FFF7DEFFF9E717499C
:103F10000968B2FBF1F2B2FBF3FC03FB1C224FF485
:103F20007A7E0EFB02F2B2FBF3F403FB14210EFBCC
:103F300001F1B1FBF3F10E4AA2FB0C32D20A4FF4AD
:103F4000616303FB12CC0B4BA3FB0CE35B090291F7
:103F50000194C3EB0311ACEB810100910649FFF71B
:103F6000B3FFCEE7141D002078190100101D0020BA
:103F7000C5B3A291898888888419010061B108B508
:103F80002AB1064A52F8232012B9054A00E0044A31
:103F90000449FFF799FF08BD704700BF281A0100C8
:103FA000A0190100A81901002DE9F04105461746A6
:103FB000069EDDF81C8081B900242EB132461149DD
:103FC0002846FFF781FF0444B8F1000F14D06FB109
:103FD000099B042B13D00C4909E00C4B099A53F8A8
:103FE00022200B49FFF770FF0446E6E706494246E8
:103FF0002846FFF769FF04442046BDE8F0810549E3
:10400000F5E700BFC0190100B01901003C1A01001A
:10401000B8190100AC1901002DE9F04F87B0054631
:104020000C46049205939DF84C7001F0020B01F0D0
:10403000010AC1F3C00801F4807909F09FFD18B3AB
:10404000024616492846FFF73FFF0646BBF1000F20
:104050001CD13A465146284609F05EFEB9F1000FE0
:1040600001D0002311930397129B0293119B01939C
:10407000109B00930023049A41462846FFF794FFC3
:10408000304407B0BDE8F08F0026DFE7059A2146EF
:104090002846FFF72DFF0644DBE700BFC4190100E7
:1040A00011F0100F0BD108B511F0200F03D0044907
:1040B000FFF70AFF08BD0349FFF706FFFAE770475D
:1040C000081B0100C81901002DE9F04105460F4603
:1040D000164698460699FFF7E3FF0024444505DAA3
:1040E00024492846FFF7F0FE0134F7E7002409E0F1
:1040F00020492846FFF7E8FE0BE01F492846FFF756
:10410000E3FE01340F2C0CDC002C02DD14F0070F51
:10411000EED0B442F1D23A5D18492846FFF7D4FEFA
:10412000EFE717492846FFF7CFFE002409E01149C1
:104130002846FFF7C9FE0BE012492846FFF7C4FEE8
:1041400001340F2C13DC002C02DD14F0070FEED02D
:10415000B44207D23A5D0C4B9B5C13F0970FEBD146
:104160002E22E9E703492846FFF7AEFEE8E7BDE85F
:10417000F08100BFBC190100D4190100CC19010065
:10418000D8190100DC1901004D2701002DE9F0418B
:1041900084B004469DF82C500C9F0E9E95B9012BBF
:1041A0001ED019484FF0000827B13B462246174958
:1041B00008F0E3FAC6B905BB204609F063FD04B078
:1041C000BDE8F08103950A980290019300920B4696
:1041D00000220F992046FFF71FFF80460C48E3E7B7
:1041E0000B484FF00008DFE70F9B00934346324631
:1041F0000D99204609F0A8FDDDE72A460F992046D3
:1042000009F096FDD8E700BFEBDC000009DD0000F7
:10421000B3DC00002DE9F04383B00646056842F2A6
:104220000F738B4228BF0B46184A0521684608F0D9
:1042300026FB04467368D3F804900B27DFF8508000
:1042400005E04A4639464046A8473F1A8044002FB9
:10425000F7D17368D3F804806F4605E042462146E3
:104260003846A847241A0744002CF7D173685F68C2
:104270001B24084E05E03A4621463046A847241A3A
:104280000644002CF7D103B0BDE8F083FC20010008
:10429000FC190100E0190100074B01221A6004E03B
:1042A0004008054A13685B001360044B9842F7D836
:1042B000034B1860704700BF101D002040420F00E4
:1042C000141D002070B506460D46002405E0315D42
:1042D000044883685B6898470134AC42F7D32846AA
:1042E00070BD00BF24110100014B03600020704726
:1042F000A41A010008B5034808F0B3FA024808F010
:10430000B0FA08BDA41A0100DC1A01002DE9F04141
:1043100082B000AF0446D0F800E0D0F804C0856851
:104320006E468AB06B4613F1100200F088801421AB
:104330008AB10846042903DDDFF81C81C3F8148024
:10434000082801DDC3F818E00C2801DDC3F81CC003
:10435000102800DD1D62132974DD14253AB10521F2
:10436000397100217971B971F9717868186100218A
:104370006FF300016FF341016FF382016FF3C50129
:10438000012363F38811C5F30A0565F353216FF325
:104390001F5100233148FFF789FCB546D4F80CC003
:1043A00026696569E8468AB06B4613F110024CD065
:1043B000142182B10846042903DDDFF8A4E0C3F824
:1043C00014E0082801DDC3F818C00C2800DDDE6108
:1043D000102800DD1D6213293ADD14253AB10521AC
:1043E000397100217971B971F9717868186100210A
:1043F0006FF300016FF341016FF382016FF3C501A9
:10440000012666F38811C5F30A0565F353216FF39E
:104410001F51124D00232846FFF748FCC546E369AB
:10442000104A3146284609F01EFCA3690E4A31465F
:10443000284609F018FC0837BD46BDE8F0816FF04A
:10444000004175E76FF01B0588E76FF00041B0E7AA
:104450006FF01B05C2E700BF0C1B0100EC1301004D
:104460003C1B01006C1B01007C1B010038B504469D
:104470000D4611B10846FFF749FF012C04D029462B
:10448000204604F0D5FE38BDEFF30583103B034A08
:104490000121034809F0E7FBF1E700BFAC1B010075
:1044A000EC13010030BFFFF7FDBF00BF054B5A6999
:1044B0009B689A4204D0044A536843F08053536087
:1044C000704700BFD81E002000ED00E081690D4B51
:1044D0005A6942F480725A61BFF34F8FBFF36F8FF6
:1044E00031F8021C5A6922F480725A61BFF34F8F6F
:1044F000BFF36F8F4DF60273994201D000207047D1
:104500000120704700ED00E04FF0000C83F800C080
:1045100002F07F4CBCF17F4F14D102F00C0CBCF1C7
:10452000080F04D012F0080F09D00846704708B5EC
:10453000054A0121054809F08CFB002008BD012235
:104540001A70704700207047C01B0100EC13010077
:1045500008B52B4A01212B4809F07BFB2A4B9B6AAB
:1045600013F0007F21D11D20274B9B6A13F0807F21
:1045700022D1254B9B6A13F4002F24D1224B9B6A36
:1045800013F4802F26D1204B9B6A13F4003F28D1CF
:104590001D4B9B6A13F4803F2AD11B4A936A6FEA32
:1045A00003436FEA1343936208BD184A012115487B
:1045B00009F04FFB1E20D7E7154A0121114809F0E9
:1045C00048FB1F20D5E7134A01210E4809F041FBA3
:1045D0002120D3E7104A01210A4809F03AFB2220A2
:1045E000D1E70E4A0121074809F033FB2320CFE72A
:1045F0000B4A0121034809F02CFB2420CDE700BF22
:10460000EC1B0100EC13010000ED00E0041C0100B4
:10461000181C0100341C0100541C01007C1C01000A
:10462000981C010008B500230B70034A01210348C0
:1046300009F00FFB08BD00BFC41C0100EC13010012
:1046400090B583B000AF0F2923DC2F4C1039002325
:104650003B7102237B718AB0EC461CF110021AD028
:10466000122022B1042802DD284BCCF8143000239C
:104670003B7002237B70E2B10346082801DDCCF8D1
:1046800018400C2B01DDCCF81C100CF1200300218C
:104690000DE01F4CDAE76FF00040E2E701F108049B
:1046A00004EB070E1EF808EC03F801EB01310129B9
:1046B000F4D9112824DD12234AB1042139710021D3
:1046C0007971B9710121F9717868CCF81000002175
:1046D0006FF300016FF341016FF382016FF3C501C6
:1046E000012060F38811C3F30A0363F353216FF3CE
:1046F0001F5100230748FFF7D9FA0C37BD4690BD7C
:104700006FF01B03D8E700BFE81C01001C1D01006F
:10471000001D0100EC130100F8B505460F461446D4
:10472000394A0121394809F094FA394B9B6A13F050
:10473000100F31D11026364B9B6A13F0080F32D17F
:10474000334B9B6A13F0020F34D1314B9B6A13F049
:10475000010F4BD12E4B9B6A13F0200F4DD12C4BE8
:104760009B6A13F0100F01D1294B9B6A284B9B6A5F
:1047700013F0200F04D0264A536A23F400535362E7
:10478000234A936A43F0FF0393620121284609F00C
:1047900077FB20703046F8BD1E4A01211B4809F006
:1047A00058FA1126C7E71C4A0121184809F051FAA6
:1047B0001226C5E7194A0121144809F04AFA144A99
:1047C000536B926A12F0800F01D11326BDE7144A91
:1047D00001210E4809F047FA37B10D4A936A23F0D8
:1047E000800393621326B0E71326AEE70D4A01213A
:1047F000064809F02EFA1426ACE70B4A01210348BB
:1048000009F027FA1526AAE7301D0100EC13010074
:1048100000ED00E0481D01007C1D0100901D01001D
:10482000A81D0100C01D0100E01D0100F8B50546EE
:104830000F461446374A0121374809F00AFA374B28
:104840009B6A13F4805F25D11626344B9B6A13F4C0
:10485000006F26D1314B9B6A13F4007F28D12F4B78
:104860009B6A13F4806F3FD12C4B9B6A13F4807FBB
:1048700041D12A4B9B6A13F4005F43D1274A936AC4
:1048800043F47F4393620121284609F0F9FA20702E
:104890003046F8BD224A01211F4809F0DAF91726EF
:1048A000D3E7204A01211C4809F0D3F91826D1E7A3
:1048B0001D4A0121184809F0CCF9184A936B926AF5
:1048C00012F4004F01D11926C9E7184A01211248F4
:1048D00009F0C9F937B1114A936A23F4004393628E
:1048E0001926BCE71926BAE7114A01210A4809F03E
:1048F000B0F91A26B8E70F4A0121074809F0A9F9CB
:104900001B26BBE70C4A0121034809F0A2F91C262B
:10491000B4E700BF101E0100EC13010000ED00E041
:10492000281E01007C1D01003C1E0100581E0100D4
:10493000701E01008C1E0100E01D010070B50646CE
:104940000D462B4A01212B4809F083F900232B70D7
:10495000294BDC6A14F002040AD1274BDB6A002BD6
:104960000DDB254BDC6A14F080440ED1204670BD6F
:10497000224A01211F4809F06CF90024F6E7204A79
:1049800001211C4809F065F9F0E71E4A0121194888
:1049900009F05FF93046FFF799FD98B9164B9B6A0D
:1049A00013F0FF0F16D1144B9C6A14F47F4418D1F6
:1049B000114B9B6AB3F5803FD8D33046FFF7C8FD53
:1049C0000446D3E73368104A01210A4809F04BF93D
:1049D0003468CBE72A4601213046FFF79DFE0446A6
:1049E000C4E72A4601213046FFF720FF0446BDE711
:1049F000A41E0100EC13010000ED00E0BC1E01004C
:104A0000E01E0100F01E0100101F010030B58BB048
:104A10001F4B5D68C5F30805002383F31188BFF3BE
:104A20006F8F0DF12603FFF76FFD04460DF127028E
:104A3000294609F027FA9DF827300BB10BB030BD9D
:104A400005460DF1040C20686168A268E368ACE8D3
:104A50000F0020696169A269E369ACE80F009DF865
:104A600026304BB1089BC3F308025AB96FEA5323AF
:104A70006FEA4323089305E0089B23F4FF7323F0B8
:104A80000103089301A92846FFF7F0FCD6E700BF11
:104A900000ED00E0044B5A6942F010025A615A6975
:104AA00022F008025A61704700ED00E0EFF3088041
:104AB000EFF3098101B57246FFF7A8FF01BD00BF02
:104AC000002080F31488BFF36F8F114880F30888AB
:104AD00000201049087002F065FE00200E490860B1
:104AE000BFF34F8F00F030F8202080F311880B487F
:104AF0004FF40061401880F30988EFF3148002211D
:104B0000084380F31488BFF36F8F00F0E9F80000CA
:104B1000703700202C1F002094ED00E0302A002088
:104B2000084BD3F89000C0F30720002306E0054AA5
:104B3000C2F898300021C2F8A01001338342F6DB9E
:104B4000704700BF00ED00E010B572B6002484F39A
:104B50001388FFF7E5FF234608E003F120010E4A22
:104B60004FF0FF3042F821000133DBB2072BF4D9BC
:104B7000002308E003F16001074A4FF0FF3042F8DC
:104B800021000133DBB2072BF4D962B6BFF34F8F9C
:104B9000BFF36F8F10BD00BF00E100E008B50A4B06
:104BA0009B68834202D005F0F1FC08BDEFF305835A
:104BB000002BF8D0054B5A6842F080525A605A6A6E
:104BC00022F400425A62EEE7D81E002000ED00E019
:104BD00010498A684FF030001044EFF3098C80E8E8
:104BE000F01F202080F31288BFF36F8F0A4F4FF021
:104BF00000664A698A603E60D2F8A8000023C2F8C5
:104C0000A83080F3118802F1300090E8F01F8CF397
:104C100009887047D81E002004ED00E01EF0040F44
:104C20000CBFEFF30880EFF30980816911F8021CD3
:104C30000229FFD001B5724609F016F901BD00BF87
:104C4000002807DB00F01F02400901239340024ABD
:104C500042F82030704700BF00E100E000280CDB84
:104C600000F01F024009012393402030034A42F81C
:104C70002030BFF34F8FBFF36F8F704700E100E02C
:104C8000002808DB4901C9B200F1604000F561402D
:104C900080F80013704700F00F004901C9B2014BC2
:104CA0001954704714ED00E04209054B53F82220D7
:104CB00000F01F00012303FA00F01040704700BF0E
:104CC00000E100E0044B23F07F03044A9360BFF34C
:104CD0004F8FBFF36F8F70470000000000ED00E0C2
:104CE00008B5FFF7EFFF074AD2F8883023F47003C6
:104CF000C2F8883004F04AFC05F0C2FD00F044F828
:104D000004F0A0FC00ED00E010B4A2F120040E4974
:104D100042F8081C21F0010142F8081C42F8203C2E
:104D2000019B42F81C3C029B42F8183C039B42F852
:104D3000143C4FF0807342F8043C04650023C0F833
:104D4000A83010BC704700BF9BC8000000B50E46DD
:104D50001546074B98602C4686F309880020054BC2
:104D600098472046002100220023034C204700BF23
:104D7000D81E0020FBDE00009BC80000014B102263
:104D80001A61704700ED00E0002206E003F00F0317
:104D90000949194420230B760132262A0ADC53B232
:104DA000002BF3DB03F1604303F56143202183F81B
:104DB0000013F1E7704700BFFCEC00E008B5EFF32B
:104DC0000583103B044A02EBC301496852F83300E3
:104DD0008847FFF76BFB08BDA411010008B5034B22
:104DE000034A0121034809F0B3F908BD000001207E
:104DF000000000202C1F0100084AC2F898000B6830
:104E000023F01F03034343F01003C2F89C308B6868
:104E100043F00103C2F8A030704700BF00ED00E08E
:104E200010B504460A4BD3F89030C3F30723013B77
:104E3000984203D8FFF7E0FF204610BD0346054A1D
:104E40000121054808F00FFF6FF01500F5E700BFDE
:104E500000ED00E03C1F0100D41301002DE9F047F4
:104E600080460F469A461646002409E02946F0B2CD
:104E700009F077F8064610F1160F1AD00136013402
:104E8000BC4216DA04EB440508EB85056A68002A83
:104E9000F5D0BAF1000FE9D0284609F051F8002802
:104EA000E4D12346044A0121044808F0DCFE6FF0F7
:104EB00015063046BDE8F087641F0100D4130100D9
:104EC00010B5034C01232278FFF7C8FF207010BDF6
:104ED000281F0020044B0522C3F89420BFF34F8FF6
:104EE000BFF36F8F704700BF00ED00E0BFF35F8F2F
:104EF000024B0022C3F89420704700BF00ED00E091
:104F000038B51C4B1D681C4BD3F89030C3F30723F6
:104F10009D422BD8FFF7EAFF002409E0154B5B68A0
:104F200004EB440103EB81012046FFF765FF0134E8
:104F3000A542F3D81148057009F032F810F1160FA8
:104F400013D00E4B1A780C4BD3F89030C3F30723D1
:104F50009A4207DA084BC3F898200021C3F8A01042
:104F60000132F0E7FFF7B6FF002038BD4FF0FF3009
:104F7000FBE700BF881F010000ED00E0281F0020B4
:104F8000014B1860704700BFD410002070B5064672
:104F90000D46002400E00134AC4208DA054B1B68E2
:104FA000984730550A2801D00D28F4D10134204605
:104FB00070BD00BFD0100020F8B505460F46002494
:104FC00004E0094B1B68307898470134BC4208DA8A
:104FD0002E192B5D0A2BF4D1034B1B680D2098472B
:104FE000EFE73846F8BD00BFD41000200246084B5A
:104FF0001968084BC8180A44C3F1005303F58033FD
:105000009A4202D2024B1A6070474FF0FF3070474D
:10501000401D0020503C002008B5054807F021FC49
:10502000002383F31188BFF36F8F0423184602DF38
:10503000B81F0100024B0122C3F840250020704731
:1050400000E0014030B108B5034B800143F001039B
:10505000984708BD704700BF8014010030B4224A51
:1050600019E0136903EB811303F1300000241C6382
:10507000EFF31183202484F31288BFF36F8F146839
:105080001060206083F31188BFF36F8F0131938923
:105090008B42E6DC1432154B9A4201D20021F6E72E
:1050A000134A18E010691C0100EB0311002505519B
:1050B000EFF31180202484F31288BFF36F8F1468FC
:1050C0001160216080F31188BFF36F8F01339189E4
:1050D0009942E7DC1432074B9A4201D20023F6E7EB
:1050E000002030BC704700BF1814002018140020A6
:1050F000181400201814002008B5014601480BF0D0
:1051000098F808BDB013002000487047BC1D00206F
:10511000034BC01A8010034B03FB00F0704700BF25
:105120007C1D0020B76DDBB638B505460C46FFF791
:10513000EFFF01464022034809F0D5F80146284612
:10514000A04738BDE410010030B583B005460C46D9
:10515000FFF7DEFF0146402300932346054A064839
:1051600009F0DBF8011E01DB03B030BD2846A04783
:10517000FAE700BF63E30000E410010010B582B05D
:10518000EFF31184202383F31288BFF36F8F154A46
:10519000136843F00201116013F0010F09D10023DD
:1051A00084F31188BFF36F8FB3B909F0E2F802B04E
:1051B00010BD0DF1070201214FF0804009F003F806
:1051C0009DF80730012B01D00023E9E7FFF79CFF92
:1051D00009F065F80123E3E70021034809F071F8BD
:1051E000E5E700BFCC1D0020E410010010B5EFF38F
:1051F0001184202383F31288BFF36F8F074A13684B
:1052000023F00201116013F0010F04D084F3118820
:10521000BFF36F8F10BD09F0B1F8F7E7CC1D002088
:1052200070B582B006460BF026F918B904461A4B41
:105230001B7873B9EFF31185202383F31288BFF332
:105240006F8F01245CB94FF080430222C3F808231A
:1052500005E00025F6E7ACB1284608F062FE01AA99
:1052600000214FF0804008F0AEFF0028F3D0019BF2
:105270000BB1012EEFD14CB185F31188BFF36F8FC5
:1052800002B070BD012009F07EF8E8E74FF08043DE
:105290000222C3F80423F3E72C1F002000B585B0D9
:1052A000CDF800D0CDF804D000230293012303935E
:1052B0006B46074A09F04DF8002805DB4FF48042A1
:1052C0000023684604F02AFB05B05DF804FB00BF2C
:1052D000B3E3000070B5054600220121104608F036
:1052E00000FE134802F0FCFB124B98421CD12869C7
:1052F00000F046F902F008FC0024012C12D82146E7
:10530000284608F07CFF06462146284608F084FF20
:10531000094908F009FB002805DB0123B3601C44A0
:10532000E4B2EAE7002070BD6FF00400FBE700BFC5
:105330003D5300000000AD0BD81F010008B5012847
:1053400010D0032815D000B108BD00210A4808F08C
:1053500056FF836813F0070FF6D10021064808F0C6
:10536000B0FFF1E709F04BF80121034808F0A9FF6D
:10537000EAE700F01BF9E7E7E410010008B5064B87
:105380001B7803B108BD4FF4A5700AF0F8FE024B7C
:1053900001221A70F6E700BF291F002008B5C1B22C
:1053A000014808F039FF08BDE410010010B50446BB
:1053B000104B0121BFF35B8F53E8002F43E800102F
:1053C0000028F9D1BFF35B8F1AB1631E012B0DD9F1
:1053D00010BD094808F020FF084900234B608B608E
:1053E000CB6001238B6008F0BCFAEEE72046FFF7A4
:1053F00017FFEDE7781D0020E4100100681D002074
:1054000010B582B004460D488368DB684021984798
:1054100088B90A4883681B696A460C21984750B9C5
:10542000019B074A82FB0312DB17C3EB2243009A5E
:1054300003EB8203238002B010BD00BF64110100A2
:1054400083DE1B4308B5024B186808F0C5FF08BD92
:10545000D01D002000B583B000220023CDE9002339
:105460004FF400320023054805F0E6FBFFF7EAFFA2
:10547000034B00221A6003B05DF804FB7813002090
:10548000EC1D002008B502F0C1FB024B01221A708E
:1054900008BD00BF2A1F002008B505480AF075FEA8
:1054A00010B9FFF7EFFF08BD024804F091FBFAE7DF
:1054B00064110100D810002000B583B00023ADF8BE
:1054C00006300DF10600FFF79BFF80B10023124A62
:1054D0001370114A12780AB1012B13DD0F4BBDF87E
:1054E00006201A80FFF7CEFF03B05DF804FBBDF97C
:1054F00006300A4AB2F900209B1A002BB8BF5B4263
:105500001BB2E6E7013A044B1A70054A13680133EF
:105510001360FFF79FFFE7E72A1F0020241F0020EA
:10552000E41D002008B5034A0349044B186808F03D
:1055300057FF08BD99540000D41D0020D01D002045
:1055400008B5094B0122BFF35B8F53E8001F002908
:1055500003D143E800200028F7D1BFF35B8F01D1CE
:10556000FFF7E0FF08BD00BFEC1D002008B5034BAE
:1055700000221A70FFF7E4FF08BD00BF2A1F0020B9
:10558000034B18600023034A1360034A13607047FB
:10559000D01D0020E81D0020E41D002008B50248B1
:1055A0000BF0A1F908BD00BF7813002008B5034A2D
:1055B000136801331360FFF74DFF08BDE81D00209D
:1055C00010B504460A2806D0E1B2064883685B6835
:1055D0009847204610BD034883685B680D219847B3
:1055E000F2E700BF2411010010B5044C2046FFF77C
:1055F000C7FC2046FDF7E6FA10BD00BFC15500000C
:1056000008B505480AF0C1FD18B1FFF7EDFF00200D
:1056100008BD6FF01200FBE72411010008B9024831
:1056200070470020704700BF041101002DE9F047CA
:1056300086B0884616469946446801F01F05237BCC
:1056400045EA4315204608F0A1FF00286ED0B6F5C4
:10565000001F35D00DF10C0A002703970497494627
:10566000304608F0D0FF8DF80C00009701970297A4
:10567000CDF804A0A36823FA08F313F0010F02D1B8
:10568000B6F1A07F23D004F110060DF117022946D0
:1056900030460AF06AFA284B984241D010346A46E4
:1056A000294620460AF055FA234B984241D101225F
:1056B000294620460AF071FA002006B0BDE8F087BE
:1056C000294604F110000AF06CFA0020F5E705F015
:1056D0001F036A0916D14FF0A04203F5E07352F898
:1056E000233013F0010FCED10DF11702294604F13A
:1056F00010000AF03AFA114B984205D00DF1170349
:105700000493CBE73A46E8E70DF1170241462046FD
:1057100008F0B5FF084B9842F0D06FF00B00CCE7D3
:105720009DF8171030460AF030FAB7E76FF08500A1
:10573000C3E76FF01500C0E70000AD0B0400AD0B30
:10574000F0B589B00F461446456801F01F062B7B63
:1057500046EA4316104608F01EFF8DF81E0040F280
:1057600006332340B3F5837F54D016D8062B4DD093
:1057700006D9B3F5807F0DD101238DF81D3024E0CB
:1057800003B3022B03D104238DF81D301DE06FF00D
:10579000150039E06FF0150036E040F20222934226
:1057A0003CD0B3F5407F03D103238DF81D300CE0CE
:1057B000B3F5007F03D102238DF81D3005E06FF0B3
:1057C000150021E000238DF81D3014F4002F29D09E
:1057D0006A680123BB40C2F80835284608F0D6FEA7
:1057E00048B310350DF11F02314628460AF0BDF9C5
:1057F000074614F4403F37D1314628460AF0C1F934
:105800003C4B9F426ED0002009B0F0BD06238DF8BE
:105810001D30DAE707238DF81D30D6E705238DF814
:105820001D30D2E714F4802FD7D06A680123BB4023
:10583000C2F80C35D1E7C4F340438DF8083014F4B6
:10584000803F0CBF012300238DF810300024019409
:105850000DF11D0300930DF11E0304AA02A93046A9
:1058600008F0F4FD2046CFE702AA00230293039339
:10587000049305930693059204AA314628460AF03C
:1058800068F91C4B98421DD114F4003F1DD09DF8BF
:105890001D308DF8103014F4803F0CBF012300231D
:1058A0008DF811309DF81E308DF81230002304AAB7
:1058B000314628460AF051F90E4B9842A0D06FF0BD
:1058C0001500A1E76FF015009EE7002304930593F0
:1058D00006930DF11E03049304AA314628460AF0EC
:1058E00038F9E9E79DF81F1028460AF04EF9002024
:1058F0008AE700BF0000AD0B38B50446456828466E
:1059000008F044FE20B91049204608F0EEFD38BDED
:10591000103528460AF031F90028F4D10021284634
:105920000AF027F9094B98420AD100220849284673
:105930000AF017F900220521062008F0D2FAE2E762
:105940006FF00400E3E700BF65E600000000AD0B68
:105950003FE6000030B500F01F0C400917D14FF0B2
:10596000A04E0CF5E0705EF820500A4C2C4041EA45
:10597000420141EA83039DF80C2043EA02239DF88B
:10598000102043EA024323434EF8203030BD4FF04D
:10599000000EE6E7F0F8FCFF2DE9F04F85B08046F9
:1059A00089460392002421E04FF0FF3634E0039B48
:1059B000C3F80C65012702973946B6F1FF3F13D0B3
:1059C000B1F1FF3F6AD158F80A3013F4004F69D1A2
:1059D000029D00220192CDF800B0C3F341233A4664
:1059E00029463046FFF7B6FF0134E4B24C455BD29E
:1059F0004FEA840A58F82430C3F3C725C3F3C322FF
:105A0000C3F3080615F0080552D12C4911F802B06D
:105A100040F2FF129642C7D01B0E062B4BD801A2B4
:105A200052F823F0AF590000415A0000515A0000CB
:105A30005F5A00006F5A00007F5A00008D5A000024
:105A4000039BC3F814652F4602954FF0FF31B4E76E
:105A5000039BC3F80865012702973946ADE7039B0E
:105A6000C3F810652F4602954FF0FF31A5E7039B61
:105A7000C3F808652F460123029300219DE7039B8D
:105A8000C3F80C6501270297002196E7039BC3F832
:105A900010652F4602954FF0FF318EE7304608F033
:105AA0000DFE90E7012794E7002005B0BDE8F08FD8
:105AB0006FF01500F9E76FF08500F6E7542001005C
:105AC000014B01221A60704700C0004003690C2995
:105AD00010D15B6A094901FB03F3094880FB0310FD
