:020000040000FA
:1000000050650020615600007BD300004D56000073
:100010004D5600004D5600004D56000000000000F7
:10002000000000000000000000000000BD570000BC
:100030004D56000000000000715700004D560000B2
:100040005D5900005D5900005D5900005D590000D8
:100050005D5900005D5900005D5900005D590000C8
:100060005D5900005D5900005D5900005D590000B8
:100070005D5900005D5900005D5900005D590000A8
:100080005D5900005D5900005D5900005D59000098
:100090005D5900005D5900005D5900005D59000088
:1000A0005D5900005D5900005D5900005D59000078
:1000B0005D5900005D5900005D5900005D59000068
:1000C0005D5900005D5900005D5900005D59000058
:0C00D0005D5900005D5900005D59000002
:1000E00001F0FF01102A2BDB10F0070F08D010F8E9
:1000F000013B013A8B422DD010F0070F42B3F6D1ED
:10010000F0B441EA012141EA014122F007047FF005
:1001100000070023F0E80256083C85EA010586EA5C
:10012000010685FA47F5A3FA87F586FA47F6A5FA98
:1001300087F68EB9EED1F0BC01F0FF0102F00702A4
:1001400032B110F8013B013A83EA010313B1F8D14F
:100150000020704701387047002D06BF3546033830
:10016000073815F0010F07D1013015F4807F02BF69
:10017000013015F4C03F0130F0BC0138704700BFBA
:1001800081F0004102E000BF83F0004330B54FEA48
:1001900041044FEA430594EA050F08BF90EA020FB5
:1001A0001FBF54EA000C55EA020C7FEA645C7FEA48
:1001B000655C00F0E2804FEA5454D4EB5555B8BF6B
:1001C0006D420CDD2C4480EA020281EA030382EADC
:1001D000000083EA010180EA020281EA0303362D6E
:1001E00088BF30BD11F0004F4FEA01314FF4801C41
:1001F0004CEA113102D0404261EB410113F0004F53
:100200004FEA03334CEA133302D0524263EB430309
:1002100094EA050F00F0A780A4F10104D5F1200EA7
:100220000DDB02FA0EFC22FA05F2801841F1000102
:1002300003FA0EF2801843FA05F359410EE0A5F1D6
:1002400020050EF1200E012A03FA0EFC28BF4CF007
:10025000020C43FA05F3C01851EBE37101F00045BD
:1002600007D54FF0000EDCF1000C7EEB00006EEBCA
:100270000101B1F5801F1BD3B1F5001F0CD3490854
:100280005FEA30004FEA3C0C04F101044FEA4452AB
:1002900012F5800F80F09A80BCF1004F08BF5FEA32
:1002A000500C50F1000041EB045141EA050130BD12
:1002B0005FEA4C0C404141EB0101013C28BFB1F524
:1002C000801FE9D291F0000F04BF01460020B1FA6F
:1002D00081F308BF2033A3F10B03B3F120020CDA42
:1002E0000C3208DD02F1140CC2F10C0201FA0CF020
:1002F00021FA02F10CE002F11402D8BFC2F1200C85
:1003000001FA02F120FA0CFCDCBF41EA0C0190403A
:10031000E41AA2BF01EB0451294330BD6FEA040483
:100320001F3C1CDA0C340EDC04F11404C4F120026E
:1003300020FA04F001FA02F340EA030021FA04F380
:1003400045EA030130BDC4F10C04C4F1200220FAD7
:1003500002F001FA04F340EA0300294630BD21FA15
:1003600004F0294630BD94F0000F83F4801306BFDB
:1003700081F480110134013D4EE77FEA645C18BFCF
:100380007FEA655C29D094EA050F08BF90EA020F66
:1003900005D054EA000C04BF1946104630BD91EA5E
:1003A000030F1EBF0021002030BD5FEA545C05D161
:1003B0004000494128BF41F0004130BD14F58004A0
:1003C0003CBF01F5801130BD01F0004545F0FE4114
:1003D00041F470014FF0000030BD7FEA645C1ABF49
:1003E000194610467FEA655C1CBF0B46024650EA80
:1003F000013406BF52EA033591EA030F41F40021AC
:1004000030BD00BF90F0000F04BF0021704730B531
:100410004FF4806404F132044FF000054FF0000106
:1004200050E700BF90F0000F04BF0021704730B5C7
:100430004FF4806404F1320410F0004548BF40429C
:100440004FF000013EE700BF42004FEAE2014FEAF1
:1004500031014FEA02701FBF12F07F4393F07F4FCC
:1004600081F06051704732F07F4208BF704793F0CF
:100470007F4F04BF41F40021704730B54FF46074E2
:1004800001F0004521F000411CE700BF50EA0102E5
:1004900008BF704730B54FF000050AE050EA01028E
:1004A00008BF704730B511F0004502D5404261EBFE
:1004B00041014FF4806404F132045FEA915C3FF43F
:1004C000D8AE4FF003025FEADC0C18BF03325FEADC
:1004D000DC0C18BF033202EBDC02C2F1200300FA8D
:1004E00003FC20FA02F001FA03FE40EA0E0021FAB2
:1004F00002F11444BDE600BF70B54FF0FF0C4CF4A0
:10050000E06C1CEA11541DBF1CEA135594EA0C0F51
:1005100095EA0C0F00F0DEF82C4481EA030621EA8C
:100520004C5123EA4C5350EA013518BF52EA0335C7
:1005300041F4801143F4801338D0A0FB02CE4FF079
:100540000005E1FB02E506F00042E0FB03E54FF0A9
:100550000006E1FB03569CF0000F18BF4EF0010EA1
:10056000A4F1FF04B6F5007F64F5407404D25FEA9D
:100570004E0E6D4146EB060642EAC62141EA555150
:100580004FEAC52040EA5E504FEACE2EB4F1FD0C92
:1005900088BFBCF5E06F1ED8BEF1004F08BF5FEA10
:1005A000500E50F1000041EB045170BD06F00046C2
:1005B00046EA010140EA020081EA0301B4EB5C046F
:1005C000C2BFD4EB0C0541EA045170BD41F4801167
:1005D0004FF0000E013C00F3AB8014F1360FDEBF8C
:1005E000002001F0004170BDC4F10004203C35DA68
:1005F0000C341BDC04F11404C4F1200500FA05F3EB
:1006000020FA04F001FA05F240EA020001F000428B
:1006100021F0004110EBD37021FA04F642EB060101
:100620005EEA430E08BF20EAD37070BDC4F10C042B
:10063000C4F1200500FA04F320FA05F001FA04F2EF
:1006400040EA020001F0004110EBD37041F10001DB
:100650005EEA430E08BF20EAD37070BDC4F12005E6
:1006600000FA05F24EEA020E20FA04F301FA05F24E
:1006700043EA020321FA04F001F0004121FA04F2F6
:1006800020EA020000EBD3705EEA430E08BF20EAC6
:10069000D37070BD94F0000F0FD101F00046400000
:1006A00041EB010111F4801F08BF013CF7D041EA82
:1006B000060195F0000F18BF704703F00046520086
:1006C00043EB030313F4801F08BF013DF7D043EA57
:1006D0000603704794EA0C0F0CEA135518BF95EA0D
:1006E0000C0F0CD050EA410618BF52EA4306D1D194
:1006F00081EA030101F000414FF0000070BD50EAB3
:10070000410606BF1046194652EA430619D094EA3C
:100710000C0F02D150EA013613D195EA0C0F05D126
:1007200052EA03361CBF104619460AD181EA03017A
:1007300001F0004141F0FE4141F470014FF0000032
:1007400070BD41F0FE4141F4780170BD70B54FF0CD
:10075000FF0C4CF4E06C1CEA11541DBF1CEA13554D
:1007600094EA0C0F95EA0C0F00F0A7F8A4EB05042F
:1007700081EA030E52EA03354FEA013100F0888026
:100780004FEA03334FF0805545EA131343EA1263EF
:100790004FEA022245EA111545EA10654FEA0026A4
:1007A0000EF000419D4208BF964244F1FD0404F55D
:1007B000407402D25B084FEA3202B61A65EB0305B9
:1007C0005B084FEA32024FF480104FF4002CB6EB76
:1007D000020E75EB030E22BFB61A754640EA0C00F6
:1007E0005B084FEA3202B6EB020E75EB030E22BF36
:1007F000B61A754640EA5C005B084FEA3202B6EB77
:10080000020E75EB030E22BFB61A754640EA9C0035
:100810005B084FEA3202B6EB020E75EB030E22BF05
:10082000B61A754640EADC0055EA060E18D04FEAC3
:10083000051545EA16754FEA06164FEAC30343EA63
:1008400052734FEAC2025FEA1C1CC0D111F4801F30
:100850000BD141EA00014FF000004FF0004CB6E729
:1008600011F4801F04BF01430020B4F1FD0C88BFC8
:10087000BCF5E06F3FF6AFAEB5EB030C04BFB6EBD3
:10088000020C5FEA500C50F1000041EB045170BDC6
:100890000EF0004E4EEA113114EB5C04C2BFD4EBF3
:1008A0000C0541EA045170BD41F480114FF0000E77
:1008B000013C90E645EA060E8DE60CEA135594EAF3
:1008C0000C0F08BF95EA0C0F3FF43BAF94EA0C0FF6
:1008D0000AD150EA01347FF434AF95EA0C0F7FF46B
:1008E00025AF104619462CE795EA0C0F06D152EABF
:1008F00003353FF4FDAE1046194622E750EA4106A3
:1009000018BF52EA43067FF4C5AE50EA41047FF4B3
:100910000DAF52EA43057FF4EBAE12E74FF0FF3C18
:1009200006E000BF4FF0010C02E000BF4FF0010CE9
:100930004DF804CD4FEA410C7FEA6C5C4FEA430C62
:1009400018BF7FEA6C5C1BD001B050EA410C0CBFB1
:1009500052EA430C91EA030F02BF90EA020F002013
:10096000704710F1000F91EA030F58BF994208BF7A
:1009700090422CBFD8176FEAE37040F00100704737
:100980004FEA410C7FEA6C5C02D150EA013C07D18E
:100990004FEA430C7FEA6C5CD6D152EA033CD3D0D9
:1009A0005DF8040B704700BF8446104662468C46D3
:1009B0001946634600E000BF01B5FFF7B7FF002806
:1009C00048BF10F1000F01BD4DF808EDFFF7F4FF2F
:1009D0000CBF012000205DF808FB00BF4DF808EDBA
:1009E000FFF7EAFF34BF012000205DF808FB00BFDD
:1009F0004DF808EDFFF7E0FF94BF012000205DF8FF
:100A000008FB00BF4DF808EDFFF7CEFF94BF0120B3
:100A100000205DF808FB00BF4DF808EDFFF7C4FFAC
:100A200034BF012000205DF808FB00BF4FEA410CF5
:100A30007FEA6C5C02D150EA013C0AD14FEA430CD8
:100A40007FEA6C5C02D152EA033C02D14FF0000015
:100A500070474FF0010070474FEA410212F5001253
:100A600015D211D56FF47873B3EB625212D94FEAF5
:100A7000C12343F0004343EA505311F0004F23FADF
:100A800002F018BF404270474FF00000704750EA34
:100A9000013005D111F0004008BF6FF000407047F1
:100AA0004FF00000704700BF4A0011D212F500124B
:100AB00011D20DD56FF47873B3EB62520ED44FEAB6
:100AC000C12343F0004343EA505323FA02F0704736
:100AD0004FF00000704750EA013002D14FF0FF3074
:100AE00070474FF00000704753B94AB9002908BF5A
:100AF00000281CBF4FF0FF314FF0FF3000F00CB862
:100B0000ADF1080C6DE904CE00F010F8DDF804E05A
:100B1000DDE9022304B07047704700BF034613F8B5
:100B2000012B002AFBD1181A013870472DE9F04734
:100B300086468C460846089E154674461946002B84
:100B400040F0C2808542B2FA82F245D94AB1C2F180
:100B5000200300FA02FC2EFA03F3954043EA0C0C42
:100B600094404FEA154EA8B2BCFBFEF8230C0EFBD6
:100B700018CC08FB00F943EA0C43994528D9EB1837
:100B800008F1FF3704D2994502D9A8F102072B4496
:100B9000A3EB0903A4B2B3FBFEFC0EFB1C330CFB5E
:100BA00000F044EA0344A04214D92C190CF1FF339D
:100BB00004D2A04202D9ACF102032C44241A43EA25
:100BC00007401EB1D440002334607360BDE8F08755
:100BD0004746DDE76346F1E792BB431B01214FEA3D
:100BE000154EAFB2B3FBFEFC200C0EFB1C330CFB0E
:100BF00007F840EA0343984562D9EB180CF1FF303F
:100C000004D2984502D9ACF102002B44A3EB0803AF
:100C1000A4B2B3FBFEFC0EFB1C330CFB07F744EA4B
:100C20000344A7424ED92C190CF1FF3304D2A7423A
:100C300002D9ACF102032C44E41B43EA0040C0E7B4
:100C4000C2F1200320FA03F1954090402EFA03F3FD
:100C500003434FEA154EAFB2B1FBFEFC0EFB1C1076
:100C6000190C0CFB07F841EA0041884504FA02F42C
:100C700022D969180CF1FF3004D2884502D9ACF1B1
:100C800002002944A1EB08019BB2B1FBFEFC0EFB64
:100C90001C110CFB07F743EA01439F420ED9EB18E6
:100CA0000CF1FF3104D29F4202D9ACF102012B4476
:100CB000DB1B41EA004192E76046E3E76146F7E764
:100CC0006046A3E76346B7E7834206D916B9002119
:100CD00008467BE7C6E900E0F9E7B3FA83F78FB986
:100CE000834201D3724508D8BEEB020460EB0303D4
:100CF00001209C461EB9002168E73846FAE7C6E99C
:100D0000004CF8E7C7F1200CBB4022FA0CF41C435E
:100D10002EFA0CF120FA0CF3B84001434FEA1449C3
:100D20000EFA07F5B3FBF9F81FFA84FE09FB183039
:100D30000B0C08FB0EFA43EA00439A4502FA07F24D
:100D400040D9E31808F1FF3004D29A4502D9A8F13E
:100D500002002344A3EB0A0389B2B3FBF9F809FBB1
:100D6000183308FB0EFE41EA03418E452CD9611869
:100D700008F1FF3304D28E4502D9A8F102032144C1
:100D800043EA0040A0FB0298A1EB0E014145CE468C
:100D9000434602D306D14D4504D2B9EB020E68EBAF
:100DA00004030138002EA6D0B5EB0E0261EB03015F
:100DB00001FA0CFC22FA07F34CEA0303F940C6E9F6
:100DC000003198E74046C5E74346D9E700000000F8
:100DD000D0B500F0BDFF0446194B1860FFF712FBB9
:100DE00011A3D3E90023FFF787FB11A3D3E9002365
:100DF000FFF7ACFCFFF758FE241A124B1868FFF7F8
:100E000011FB0DA3D3E90023FFF776FB06460F463F
:100E10002046FFF7F7FA32463B46FFF7B7F9FFF7F0
:100E200043FED0BDAFF300801C7C61325556C340F9
:100E3000000000000088C340802D6ABFFB5784413A
:100E4000943500209035002008B501F0CFFF03460F
:100E5000002811DB43F3CF101930FFF7E3FA08A3A2
:100E6000D3E90023FFF748FB0022074BFFF78EF979
:100E7000FFF7F2FD00B208BD00F17F03EAE700BF13
:100E8000CDCCCCCCCCCCFC3F0000404000000000DE
:100E90002DE9F04F476A97B014461D46CDE9044549
:100EA000239E83467FB9102009F08EF80246CBF8C6
:100EB000240020B9A24BEA21A2480AF0E9F8C0E9CF
:100EC00001770760C760DBF82430196859B15A68A8
:100ED0004A60012393408B60584609F005FDDBF81A
:100EE000243000221A602B1EB9BF23F00043059363
:100EF00000233360059F944BBCBF01223260BB438B
:100F000019D1229A42F20F731360C7F313032343DC
:100F100000F0E285249B53B98C4B21E08C4B089365
:100F20000833249A1360089817B0BDE8F08F874BF8
:100F300008930333F5E7DDE90423CDE90C23DDE96C
:100F40000C0100220023FFF73FFD804650B1229A9A
:100F500001231360249B13B1249A7E4B13607E4BB4
:100F60000893E0E714AB019315AB00935846DDE915
:100F70000C2309F039FFC7F30A560390002E7AD0EC
:100F80000D9BCDF84C80C3F31303DDE90C0143F056
:100F90007F5343F44013A6F2FF36194600226F4BED
:100FA000FFF7F2F860A3D3E90023FFF7A5FA60A3E7
:100FB000D3E90023FFF7EAF8044630460D46FFF771
:100FC00031FA5DA3D3E90023FFF796FA02460B46F8
:100FD00020462946FFF7DAF804460D46FFF73CFDA8
:100FE00000220746002320462946FFF7F7FC40B1C0
:100FF0003846FFF717FA22462B46FFF7E5FC00B903
:10100000013F162F54D8564B03EBC703D3E90023F7
:10101000DDE90C01FFF7E2FC00284BD0013F002383
:101020001293149B9B1B5A1E45BFC3F101030693E9
:10103000002300230A9254BF06930A93002F3BDB40
:101040000A9B0F973B440A9300230B93209B092B89
:1010500000F28A80052BC4BF043B2093209BA3F1A0
:101060000203CCBF00240124032B00F28880DFE8B8
:1010700003F02B383657DDE914631E4406F2324381
:10108000202BC1BFC3F140039F4006F2124324FA54
:1010900003F3D6BFC3F1200347EA030004FA03F0C9
:1010A000FFF7B0F90122A1F1F873013E139274E742
:1010B0000123B5E71290B4E7069BDB1B06937B4246
:1010C0000B9300230F93C1E700230E93219B002B6A
:1010D00058DC0123099399461A4621920CE001231A
:1010E000F3E700230E93219BFB1803F101090993F9
:1010F0004B46012BB8BF0123DBF82400002104225A
:1011000002F114059D4241D94160584609F0ACFBFB
:10111000089000283DD1134B02464FF4D571CBE621
:101120000123DFE7AFF3008061436F63A787D23FFE
:10113000B3C8608B288AC63FFB799F501344D33FC6
:1011400012130100291301000000F07F0E130100AB
:1011500005130100E2120100E11201000000F83F56
:10116000C0020100851301000124002320930E9486
:101170004FF0FF330993994600221223ADE7012374
:101180000E93F5E7219B09939946B5E7013152008B
:10119000B6E7DBF82430089A1A60B9F10E0F6FD861
:1011A000002C6DD0002F36DDA14B07F00F0203EBB2
:1011B000C203D3E90034F805CDE910344FEA27140F
:1011C00017D59C4BDDE90C01D3E90823FFF7BEFAE4
:1011D000CDE9040104F00F044FF00308954D5CB90C
:1011E000DDE91023DDE90401FFF7B0FACDE90401E0
:1011F0002BE04FF00208F1E7E10709D5DDE9100126
:10120000D5E90023FFF778F9CDE9100108F10108CD
:1012100064100835E3E700F007817C42844B854D7C
:1012200004F00F0203EBC203D3E90023DDE90C0154
:10123000FFF762F9CDE90401241100234FF0020801
:10124000002C40F0E580002BD0D1129BDDE9044555
:10125000002B00F04C81784B002220462946FFF7F6
:10126000BDFB002800F04381B9F1000F00F03F8181
:10127000099B002B00F3E480DDE90C34CDE9043454
:10128000159B002B02DB0E2F40F342820E9A002AA0
:1012900040F067820B9CDDF818800025B8F1000F44
:1012A0000DD00A9B002B0ADD4345069AA8BF434692
:1012B000D21A06920A9AA8EB0308D31A0A930B9B38
:1012C0000BB30E9B002B00F0A682002C00F0A18235
:1012D00029462246584609F02FFC039A0146054646
:1012E000584609F07FFB03990646584609F0FCFA78
:1012F0000B9B1B1B0B9300F091820B9A31465846B7
:1013000009F01AFC03900121584609F055FB0F9B88
:101310000446002B00F084821A460146584609F024
:101320000BFC209B012B044603DC049B002B00F0EC
:101330007C820026236904EB830318690EF060FBAE
:101340000F96C0F120000A9B184410F01F0000F017
:101350009182C0F12003042B40F38182069BC0F1EF
:101360001C00034406930A9B034480440A93069B93
:10137000002B05DD03991A46584609F037FC039007
:101380000A9B002B05DD21461A46584609F02EFC23
:101390000446129B002B00F07682039821460EF043
:1013A0007EFB002880F26F82002303990A225846B0
:1013B00009F0BCFA0E9B03907E1E002B00F05C82AD
:1013C000002329460A22584609F0B0FA099B002B4F
:1013D000054603DC209B022B00F35E82B8F1000F70
:1013E00005DD29464246584609F000FC05460F9B9C
:1013F000002B00F0D0826968584609F035FA07469C
:10140000002840F07F820D4B024640F2EA2153E56E
:10141000E20706D5D5E90023FFF76EF808F10108C9
:101420000123641008350BE74FF002080DE700BFF9
:10143000C0020100980201000000F03F8513010086
:101440002046AD4B00222946FFF756F8CDE90401AE
:10145000099C7E1E08F101084046FEF7E3FFDDE926
:101460000423FFF749F8A54B0022FEF78FFEA1F1F8
:101470005073CDE910011193002C3BD1DDE904013B
:101480009F4B0022FEF780FE02460B46CDE9042367
:10149000DDE91023FFF7C0FA002840F05781DDE9AD
:1014A000102101F10043DDE90401FFF797FA00285C
:1014B0003FF4E2AE00242546219BDDF820A0DE4368
:1014C0004FF000082146584609F00EFA002D00F0B2
:1014D000A980B8F1000F05D0A84503D04146584671
:1014E00009F002FA2946584609F0FEF99AE03E460C
:1014F0004C46B1E7834B03EBC40353E90201089B5D
:101500001C440E9B002B4AD002460B4600207E490D
:10151000FFF71CF9DDE91023FEF736FECDE91001D7
:10152000DDF820A0DDE90401FFF796FA0546FEF795
:1015300079FF02460B46DDE90401FEF725FE303552
:10154000CDE9040102460B460AF8015BDDE9100112
:10155000FFF762FA002865D1DDE904236B4900201A
:10156000FEF712FE02460B46DDE91001FFF754FAC2
:10157000002840F00D81A24500F0EA80DDE910016D
:101580005D4B0022FEF7B8FF5B4BCDE91001002256
:10159000DDE90401FEF7B0FFCDE90401C2E7DDE9B2
:1015A0001023FEF7A9FFCDE91001DDF820A0A04629
:1015B000DDE90401FFF750FA0546FEF733FF024666
:1015C0000B46DDE90401FEF7DFFD30350AF8015B6B
:1015D00002460B46A245CDE904234FF0000223D179
:1015E000494BDDE91001FEF7D1FD02460B46DDE96E
:1015F0000401FFF711FA002840F0CA80DDE910234A
:1016000041490020FEF7C0FD02460B46DDE904011A
:10161000FFF7E4F970B1C24608F1FF381AF8013C4F
:10162000302BF8D0374655E0334BFEF765FFCDE958
:101630000401BDE7DDE90C34CDE90434159B002B32
:10164000FFF628AE0E2F3FF725AE2E4B03EBC70358
:10165000D3E90034CDE90634219B002B02DAB9F13D
:10166000000F64D0DDE90445DDF820A0DDE90623A4
:1016700020462946FFF76AF8FFF7EEF90646FEF71F
:10168000D1FEDDE90623FEF737FF02460B46204672
:10169000294606F13004FEF777FD0AF8014B089C55
:1016A000AAEB0404A14502460B4640F08280FEF7F7
:1016B0006DFDDDE9062304460D46FFF7ADF9002870
:1016C00065D1DDE9062320462946FFF77DF908B1FB
:1016D000F3075CD40399584609F006F900238AF809
:1016E0000030229B01371F60249B002B3FF41BAC72
:1016F000C3F800A017E400BF0000244000001C4015
:1017000000001440C00201000000E03F0000F03F74
:10171000A24B03EBC703D3E90034CDE90634219B88
:10172000002B9FDAB9F1000F9CDC7FF4C3AE9C4B19
:101730000022DDE90601FEF7DFFEDDE90423FFF705
:1017400061F9044600287FF4B5AE3E462546B4E074
:10175000DDE90C34CDE90434159B002B01DB0E2FA1
:10176000D6DD209A012A36DC139A82B303F2334382
:101770000B9CDDF81880069A1A4406920A9A0121F9
:101780001A4458460A9209F017F9054686E53E467E
:1017900053469A4613F8012D392A06D1089A9A42DF
:1017A000F7D10899302201360A701A7801321A707E
:1017B00038E77C4B0022FEF79FFE00220023044600
:1017C0000D46FFF701F900283FF450AF82E7149B64
:1017D000C3F13603CCE70B9B09F1FF34A34208DBCE
:1017E000B9F1000FA3EB04040EDBDDF818804B46C3
:1017F000C1E70B9B0F9A0B94E31A1A44DDF818808B
:101800000F924B460024B6E7069BA3EB0908002382
:10181000B1E7039E71E50B9A039970E5039672E5B3
:10182000209B012B17DC049BABB9059BC3F313036F
:101830009BB9059B23F00046360D360536B1069B55
:10184000013306930A9B01330A9301260F9B002B59
:101850007FF470AD0F96012075E50026F6E73FF4A2
:1018600086AD069A1C331A4406920A9A1A44984482
:101870000A927CE50346F4E7099B002B2BDC209BB6
:10188000022B09DC27E0B9F1000F1DDC209B022BA5
:101890001ADDCDF824903E46099B002B7FF40CAE58
:1018A00021460522584609F041F8014604460398AE
:1018B0000EF0F5F800287FF7FFADDDF820A031230A
:1018C0000AF8013B0136FBE50E9BCDF824903E461D
:1018D000002B7FF483AD089F039821460EF008F893
:1018E00000F1300907F8019B089B099AFB1A9A42FC
:1018F00040F3CB80039900230A22584609F016F8DA
:101900000390E9E72A690232920005F10C010C30DC
:101910000DF0ABFE01223946584609F067F9089BE5
:1019200003F1010ADDE9082313440A93049B03F041
:101930000103A8460B9305460AF1FF33214603989D
:1019400006930DF0D5FF4146099000F13009039848
:101950000EF0A5F82A4621460746584609F0B2F986
:10196000C268014602B3584608F0BEFF002F3ADABB
:1019700003990122584609F039F9214603900EF0E7
:101980008EF8002803DC29D119F0010F26D0B9F117
:10199000390F1DD132E02846C1E700BFC002010067
:1019A00000001440000024400E9003980EF077F8D9
:1019B0000E990C90584608F097FF0C9A5ABB209B42
:1019C00053B90B9B43B9B9F1390F17D0002F05DD7F
:1019D000099B03F1310901E0002F2ADADDF818A094
:1019E0000AF8019B6EE5209B3B4304D1049B03F066
:1019F0000103002BBCD0B9F1390F36D1069F392332
:101A000007F8013BBA46013F1AF8013C392B5BD07D
:101A100001333B7056E5002F06DB209B3B4306D18C
:101A2000049B03F0010313B9002AA1DCD6E7002AC6
:101A3000E1DC0A9B0AF8019C534557462FD00399D5
:101A400000230A22584608F071FFA84503904FF082
:101A500000034FF00A02414658460BD108F066FFDA
:101A6000804605460AF1010A66E7DDF818A009F18B
:101A70000109B5E708F05AFF2946804600230A22EB
:101A8000584608F053FF0546ECE7099B002BC8BFFA
:101A90001F46089BD8BF01271F444FF00008039939
:101AA0000122584609F0A2F8214603900DF0F7FFF5
:101AB0000028A7DC02D119F0010FA3D1BA4617F80C
:101AC000013D302BFAD0FDE4089BBB429AD1089A25
:101AD000312301361370F5E4249B002B7FF41EAAFA
:101AE000014BFFF73DBA00BF0513010008B54FF0E9
:101AF000FF324FF0FF33024806F0FAFFF7E700BF6E
:101B0000CC19002008B501E001F01EF84FF0FF32BB
:101B10004FF0FF33034806F0EBFF034B1B78002B1D
:101B2000F4D0F1E7E4190020DC17002008B54FF0ED
:101B3000FF324FF0FF33054806F0DAFF002009F0CE
:101B40008EFF034B00221A70F1E700BFFC19002042
:101B5000DC17002000B58BB02822002168460DF06C
:101B600092FD9DF80D30022161F305038DF80D30D3
:101B70001F4B04939DF8213061F305038DF821304C
:101B80001C4B09934FF0FF324FF0FF33684608F0CB
:101B900081F9039B03F4FE13B3F5004F1AD0089BA1
:101BA00003F4FE13B3F5004FD6D1002200231148F1
:101BB00006F09EFF104B00221A60104B187880F040
:101BC0000100187009F04BFF032000F0BBF900F092
:101BD000F3FFC1E700220023054806F089FF064B0A
:101BE00000221A60022001F007F800F0E5FFD6E7B6
:101BF000841900209C19002088350020DC17002063
:101C00002DE9F04389B000F0EFF90A2000F01EFA48
:101C100000F014F909F0A2FE394D3A4A0321284692
:101C20000BF09AFA00F02CFA00F07CFF364A032100
:101C300028460BF091FA00260027DFF8D090CDE976
:101C40000667002404944FF00708CDF80C80029436
:101C5000019400942E4B4FF400622E4948460DF03B
:101C600033F92D49484607F001F9DFF8B090CDE986
:101C700006670494CDF80C80029401940094284BDC
:101C80004FF40062274948460DF01EF926494846A0
:101C900007F0ECF8DFF89490CDE906670494CDF8EE
:101CA0000C80029401940094214B4FF480622149EE
:101CB00048460DF009F92049484607F0D7F8DFF803
:101CC0007C80CDE906670494052303930294019474
:101CD00000941B4B4FF400621A4940460DF0F4F893
:101CE0001949404607F0C2F8184A032128460BF06C
:101CF00033FA4FF0FF304FF0FF310DF01AFAF8E7EA
:101D0000F401010088030100A0030100401C002031
:101D1000ED1A0000104D0020C0030100881B0020B8
:101D2000051B000010450020D0030100D01A002040
:101D30002D1B000010410020DC030100181A0020B8
:101D4000551B000010390020EC030100FC030100CA
:101D5000054B1B681BB1054A136801331360002053
:101D6000014B1860704700BF8C3500209035002073
:101D700000B583B009F063FD174BA3FB00235B0D97
:101D80008DF80030154A02FB1300154BA3FB00230E
:101D90009B0B8DF801304EF6602202FB1300114BB5
:101DA000A3FB003080098DF80200009BADF80430E1
:101DB0001B0C8DF8063000209DF8043063F30700FB
:101DC0009DF8053063F30F209DF8063063F317404C
:101DD00003B05DF804FB00BFB17C219580EE3600B6
:101DE00073B2E745D34D621038B5836805699C69C5
:101DF0007CB112F4000F06D02D6801238B401D42E8
:101E000001D082F0C062044B134002F0B072A047D0
:101E100038BD6FF05700FBE74000000608B50248E8
:101E200006F01EFE08BD00BF9C19002008B5024840
:101E300006F016FE08BD00BF8419002038B5154C09
:101E40004FF48031204609F074FD4FF0B861204610
:101E500009F03FFD1049114B4B604FF400638B605C
:101E60000F4C204609F070FD0E4D4FF4803128468E
:101E700009F05FFD4FF07071284609F02AFD0A490C
:101E80000A4B4B604FF480538B60204609F05CFD99
:101E900038BD00BF38040100A43500202D1E00000D
:101EA0007CFF000030040100983500201D1E00005A
:101EB00010B582B0144C2168012009F0B1FD134B1C
:101EC0001A6801321A602368B3FA83F35B0923604E
:101ED000072A0FDD00210D4B1960012009F0A0FD3C
:101EE0004FF480220023CDE90023094807F078FF52
:101EF00002B010BD40F267620023CDE90023044820
:101F000007F06EFFF4E700BF00000020B0350020AE
:101F10006818002008B5024806F0A2FD08BD00BF01
:101F2000CC19002008B5024806F09AFD08BD00BF94
:101F3000E419002008B5024806F092FD08BD00BF74
:101F4000FC19002010B582B003282FD8DFE800F07C
:101F5000020D18224FF480220023CDE900231448FB
:101F600007F03EFF012002B010BD04464FF490225E
:101F70000023CDE900230F4807F032FF2046F2E7A7
:101F800040F267620023CDE900230B4807F028FFE9
:101F90000120E8E74FF49022002300200021CDE942
:101FA0000001064807F01CFF0120DCE70020DAE70B
:101FB00068180020A0180020D81800201019002050
:101FC000022807D0032807D0012801D0002070473D
:101FD00002487047024870470248704750040100A9
:101FE000480401004004010010B514480CF05AFEEA
:101FF00008B9002010BD11480CF054FE08B90020AB
:10200000F8E70E480CF04EFE08B90020F2E74FF456
:10201000B0110B4809F0D2FC04464FF4B011094846
:1020200009F0CCFC04434FF4B011074809F0C6FC9A
:10203000044301D40120DDE70020DBE77CFF000042
:1020400050040100480401004004010038B5054671
:10205000002409E0084809F0D9FC40F6B83005FB37
:1020600000F007F001FB0134052CF3DD00220F2105
:10207000024809F0BEFC38BD500401007CFF00009E
:1020800008B509F00AFD142211463C2009F0B9FEFA
:1020900000F082FA024800F08FFA09F0CAFD08BD8C
:1020A0009400002020B310B5044604290FD8DFE8BF
:1020B00001F0030F13171B000E4800F07DFA0222F7
:1020C0001146204609F0B7FC0B4800F075FA10BD28
:1020D0000F2109F0B0FCFAE72D2109F0ACFCF6E77E
:1020E0004B2109F0A8FCF2E7692109F0A4FCEEE716
:1020F000704700BF681000209400002038B500250C
:102100000AE0074B5C5D691C1944204609F083FD19
:102110002C44A4B20134A5B2742DF2D938BD00BF4D
:102120000400002030B583B0074C2578002000F073
:102130001BFA257041F22803ADF8043001A90220F2
:1021400009F055FD03B030BDDE17002000B583B0A7
:10215000074B187800F008FA42F61113ADF8043076
:1021600001A9022009F043FD03B05DF804FB00BFA4
:10217000DE170020074B1B88013B074A1380002213
:10218000064B1A80064B1B88013B06490B80064B09
:102190001A807047DA170020FE380020FC38002033
:1021A000D8170020FA380020F8380020104B1B8880
:1021B00083421BD90F4B1B888B4217D90E4B1B88B0
:1021C000834201D90C4B18800C4B1B88834201D2EF
:1021D0000A4B18800A4B1B888B4201D9084B198087
:1021E000084B1B888B4201D2064B1980704700BFF9
:1021F000DA170020D8170020FE380020FC38002015
:10220000FA380020F838002010B586B0364B188810
:10221000364B1A881044364B1988364B1B881944A4
:10222000354C24882244354CB4F800C063444FF048
:102230002A0C8DF810C0C0F3072C8DF811C08DF852
:102240001200C2F307208DF813008DF814202B2202
:102250008DF80820C1F307228DF809208DF80A10A7
:10226000C3F307228DF80B208DF80C302C238DF84A
:10227000043004A9052009F0CEFC02A9052009F0CC
:10228000CAFC01A9012009F0B2FC1D4B1B78012BEF
:1022900009D0B3B1022B22D0194B03221A70FFF7D9
:1022A00069FF06B010BD104B1B88134A1088C01A76
:1022B0000130400080B2134901EB430109F0A1FC59
:1022C000EAE70B4B1B880D4A1088C01A013040000A
:1022D00080B20C4901EB430109F093FCDCE70A49A9
:1022E000022009F08EFCD7E7FE380020D617002028
:1022F000FA380020D4170020FC380020F8380020DD
:10230000DD170020C0350020BC35002038B505465B
:102310000C464B4B1B78032B60D0022B18D0012BA3
:1023200068D0002B65D1474B1B8883420DD1464BAB
:102330001B88834209D1454B1B88013B994204DB32
:10234000434B1B880133994271DDFFF75DFF45E088
:102350003F4B1B888B4220D03A4A1288AA423BD17D
:10236000394A1288AA4237D1384A1288511E8C4203
:1023700002D001339C422FD1314B00211970354BD3
:102380003549098823F81210344A128823F814209A
:1023900021462846FFF70AFF2BE02C4A12888A4282
:1023A000DAD1294A11884A1E904204D0254A12885F
:1023B00001329042D0D1224B01221A70254B264A7D
:1023C000128823F81120254A128823F81520214667
:1023D0002846FFF7EBFE0CE0FFF716FF1F4B1A88AD
:1023E0001D4B1A80164B02221A7021462846FFF711
:1023F000DDFE38BD164B1B888B420DD1134B1B885D
:102400008B4209D1104B1B88013B984204DB0D4BDA
:102410001B880133984202DDFFF7F6FEDEE70F4B23
:102420001A880C4B23F81020FFF7C0FEE1E70B4B96
:102430001A88084B23F81120FFF7B8FED9E700BF30
:10244000DD170020FC380020FE380020FA3800207C
:10245000F8380020C0350020BC350020B8350020F9
:1024600008B5064B1B88834203D9054B1B888B425A
:1024700000D808BDFFF74AFFFBE700BFDA170020CE
:10248000D81700200C4B1B88834203D90B4B1B88A9
:102490008B4200D8704710B582B0094C2388ADF844
:1024A0000430084B1B882380FFF730FFBDF8043051
:1024B000238002B010BD00BFDA170020D81700201B
:1024C000B8350020B435002008B50D4809F06BFB85
:1024D00000B9FEE70B480CF0E5FB00B9FEE7094840
:1024E0000CF0E0FB00B9FEE74FF4B011064809F02C
:1024F00028FB4FF4B011054809F023FB08BD00BFCD
:102500007C0000207CFF00006804010060040100E2
:1025100008B500221F21024809F02EFB08BD00BFAC
:102520007CFF000008B501221F21024809F024FBAE
:1025300008BD00BF7CFF000008B501221E21034832
:1025400009F01AFB012009F03CFB08BD7CFF0000EC
:1025500008B500221E21034809F00EFB012009F0F6
:1025600030FB08BD7CFF0000014B1870704700BFB6
:10257000DE17002000B585B00291039002AB0093F6
:10258000012301936946034809F003FB05B05DF898
:1025900004FB00BF7C00002008B5054B1B88054AE2
:1025A00012880021084609F0DAFB09F042FB08BD59
:1025B000D8170020DA1700200A4B1860002301E02A
:1025C0000133DBB200EB8302B2F8052012F0FF0FFB
:1025D000F6D1002BF4D09B0006331844014B586011
:1025E000704700BFC036002030B51D4B1C686378B3
:1025F0004FEAD30E13F0070F01D00EF1010E0022A7
:10260000944614E0814205D804EB8305B5F80750E1
:10261000854218D204EB8303B3F807305B1A1CFA27
:1026200083F39BB201331FFA83FC013292B213464B
:1026300004EB8201B1F8051011F0FF0FE2D1002A7E
:10264000E0D0002030BD431A1CFA83F39BB2044A49
:10265000506803FB0EFE237803FB0E00F2E700BF79
:10266000C03600202DE9F843804689461046FFF722
:10267000BBFF002835D00026054637462AE007EB89
:10268000090104EB080089B280B2FFF7E9FE0134CA
:10269000E4B2154B1B685B78A34219D914F0070FFD
:1026A00001D115F8016BE34303F0070346FA03F386
:1026B00013F0010FE3D10D4B1B78002BE7D107EB93
:1026C000090104EB080089B280B2FFF7DBFEDEE708
:1026D0000137FFB2044B1B681B78BB4201D90024B1
:1026E000D7E7BDE8F88300BFC036002002390020DC
:1026F00070B505460E46144609E0013431462846B9
:10270000FFF7B0FF044B1B685878284485B2227845
:10271000002AF2D170BD00BFC036002082B0ADF8F3
:1027200004009DF80520034B1A709DF804205A7090
:1027300002B07047B835002000B587B002460B469E
:102740000549684608F060F8002211466846FFF720
:10275000A9FC07B05DF804FB8004010000B589B056
:1027600003909DF80E3000939DF80D309DF80C20DD
:10277000054904A808F048F81422022104A8FFF72C
:1027800091FC09B05DF804FB9004010000B585B030
:1027900002460649684608F037F81E2203216846BB
:1027A000FFF780FC05B05DF804FB00BFA00401004A
:1027B00000B585B002460649684608F025F80C22A7
:1027C00004216846FFF76EFC05B05DF804FB00BF0E
:1027D000AC04010030B58BB00446134DB0F90020B5
:1027E000294607A808F010F8B4F90420294604A8DF
:1027F00008F00AF8B4F90620294601A808F004F800
:1028000009F023F90822002107A809F014F9082289
:10281000012104A809F00FF90822022101A809F0FA
:102820000AF90BB030BD00BF0809010010B582B035
:1028300004460A460849684607F0E6FF09F005F92C
:102840000C220221204609F0F6F80C2203216846EA
:1028500009F0F1F802B010BD080901000023024A96
:102860001360024A13607047D0360020CC36002037
:1028700010B54B4201F0030403F0030358BF5C4260
:10288000434200F0030103F003034FF0000258BF7E
:102890005942044809F0CFF800222146024809F0C5
:1028A000CAF810BD00050100B804010070B5054666
:1028B000064600281ADBB610134B1B68002B17DBEB
:1028C000B6EBA30F00D1A9B109F0BFF80024032C87
:1028D00010DC022C0ED004EB86000C2221460B4BA0
:1028E00053F82000FFF7DEFB0134F0E7C61CE2E7F7
:1028F0000333E5E7064B00221A70034B186829469C
:10290000FFF7B6FF70BD00BFC83600204415002099
:102910000439002008B5054B18680121FFF7C6FFF0
:102920000023034A1360034A137008BDD036002009
:10293000CC3600200439002038B505460C4609F095
:1029400084F804EB8504024B53F82430984738BDD3
:102950006C1400200D4B1A680D4B1A60B0F1FF3F4C
:1029600002D0012809D07047084B1B68002BFAD011
:10297000064A1368013B1360F3E7044B1B68012B05
:10298000F1D0024A136801331360ECE7D03600201F
:10299000C8360020014B1878704700BF033900206B
:1029A0002DE9F84306460F4691460C46002918DBF0
:1029B000A410304609F03FFA4FEA8408A0EB8405E2
:1029C000042D00DD04251B4B1B68002B0BDBB4EB37
:1029D000A30F02D1B9F1000F16D009F036F8002488
:1029E00010E0CC1CE4E70333F1E7134B53F8263037
:1029F00008EB040C0C222146162000FB0C30FFF7DC
:102A000051FB0134A542F0DC7A4207F0030302F0E7
:102A1000030258BF5342AB4206DA064B18683946E8
:102A2000FFF726FFBDE8F883024B1868691EFFF721
:102A30001FFFF7E7C83600208C14002008B5104BA4
:102A40001A68104B1A60B0F1FF3F02D0012809D07C
:102A500008BD0B4B1B68002BFAD0094A1368013BD9
:102A60001360F3E7084B186809F0E5F90138044BE7
:102A70001B689842ECD0024A136801331360E7E701
:102A8000CC360020C8360020D036002008B5204BB8
:102A90001B7833B31F4B1B7883B1022806D01E4B23
:102AA00018681E4B1968FFF747FF23E0194B0022F7
:102AB0001A7000F0C7F8FFF72DFF1BE0022809D0BD
:102AC000FFF7BCFF144B1868144B19680022FFF77E
:102AD00067FF0FE00F4B01221A70114806F0C4FD8A
:102AE00008E0022807D0FFF735FF0B4B18680021DC
:102AF000FFF7DCFE08BD0122054B1A70074B0021D1
:102B00001960054908681968FFF74AFFF2E700BF36
:102B10000439002003390020D0360020CC360020B4
:102B2000400D030008B5054B01221A60FFF796FE21
:102B3000034A032103480AF00FFB08BDD4360020E6
:102B4000D00401003402010000B583B0184B1B68AB
:102B5000012B06D0164B1B68022B24D003B05DF866
:102B600004FB08F098FE8DF80400C0F307238DF8ED
:102B70000530C0F307408DF806000198FFF7EEFD21
:102B80000C4B1B78002BE9D063210120FFF7D4FD0B
:102B900041F21B00FFF7FAFD4620FFF709FE054B47
:102BA00000221A70DAE70020FFF770FFD6E700BFB7
:102BB000D4360020DF17002008B54BF6803006F031
:102BC00053FD0C4B1B68022B00D008BD08F032FFF0
:102BD000012807D0022808D00028F6D10220FFF7EC
:102BE00055FFF2E7FFF752FFEFE74FF0FF30FFF737
:102BF0004DFFEAE7D4360020114B1B6883421ED0FC
:102C000010B50446012809D00D4B1C601B68012B30
:102C100009D00B4B1B68022B0CD010BDFFF7BAFE7E
:102C20000028F1D0F9E7FFF719FE08F00EFFFFF7D3
:102C30008BFFF2E701210020FFF738FEEDE7704738
:102C4000D4360020014B00221A607047D83600208D
:102C500038B50C2200213348FFF724FA0C22012159
:102C60003148FFF71FFA314B1868FFF777FD304BFB
:102C70001B687BB1012B13D0022B17D00025032436
:102C80002C4B9D4218DA08F0D5FE0446032813D1D8
:102C90000135F5E70C220021274808F0CCFEEDE7CE
:102CA0000C220021254808F0C6FEE7E70C2200218F
:102CB000234808F0C0FEE1E7022C10D00C220021CE
:102CC000184808F0B8FE0C220121174808F0B3FE9E
:102CD000164B1868FFF742FD012C19D038BD144B74
:102CE0001B684BB1012B0DD0022BE7D10F4DA878FB
:102CF00008F0BFFDA870E1E70C4D287808F0BFFD93
:102D00002870DBE7094D687808F0BFFD6870D5E7EB
:102D1000074A136801331360022BDFDD13460022DC
:102D20001A60DBE7F0040100F8040100DC36002043
:102D3000D8360020A0252600040501000C0501005E
:102D40001405010070B532211548FFF76FFD4FF4EF
:102D5000FA6009F07AF83224012603E0013CE4B27B
:102D6000012595B9D6B142F2107006F07DFC08F04D
:102D700061FE0128F2D0022803D00028F1D10026FC
:102D8000EFE70134E4B20125EBE721460448FFF701
:102D90004DFD204608F062FE0025E3E770BD00BF50
:102DA0001C05010008B50020FEF74EF80146024858
:102DB000FFF73CFD08BD00BF2805010010B588B035
:102DC000044601A9084B186808F021FDA6460DF13C
:102DD000040CBCE80F00AEE80F009CE807008EE88A
:102DE0000700204608B010BDE036002008B50248B4
:102DF00000F004F808BD00BFF81C002010B582B038
:102E000004460DF107030122114909F04AF910B1F6
:102E100000B202B010BD01AB02220E49204609F0FB
:102E200040F904F5805090F84530102B07D09DF8FC
:102E30000500000200B29DF804301843E9E79DF850
:102E40000400000200B29DF805301843E1E700BF1E
:102E50003900010009000100B0B10C4A91420FD0C5
:102E600007D879B1013A914201D11830704700205A
:102E70007047074A914201D11A30704700207047CD
:102E8000193070471B307047704700BF20000100A9
:102E90002100010080B370B582B00446037F012B8E
:102EA0000FD00DF107030122154909F0FAF89DF83A
:102EB000073003F010038DF80730C3B94FF0FF302F
:102EC00015E00F4E0DF107030122314609F0E9F834
:102ED00005469DF8073023F010038DF807300DF1FB
:102EE000070301223146204609F058F82843237F82
:102EF000013B237702B070BD6FF00A00704700BF3E
:102F00001F000100F0B583B000284ED00546037FB6
:102F1000ABBB294E0DF107030122314609F0C1F880
:102F200004469DF8073043F010038DF807300DF18B
:102F3000070301223146284609F030F8044331D115
:102F400009F0D4F806460F460DF1070301224FF4AD
:102F50008031284609F0A5F8044618BB09F0C6F8E8
:102F6000801B61EB0701154B83424FF000038B413F
:102F70001ED39DF8073013F0080FE5D00FE00DF1D8
:102F8000070301220C4909F08CF804469DF807302C
:102F900003F010038DF807300BB94FF0FF342B7F8F
:102FA00001332B77204603B0F0BD6FF00A04F9E738
:102FB0006FF00304F6E700BF1F00010040420F005E
:102FC0002DE9F04F91B005920293134602F00402EE
:102FD0000092C3F3C20210F00303019340F02B826E
:102FE00080468A460132041D00284FD0B8F1000FF8
:102FF00005D0A4EB08030433534500F21F82029B63
:103000005D1E019B04930693039300264FF0FF3B44
:103010000427B946B8F1000F01D0029B2360531E6C
:103020000793002A40F35D81059B13F0020228D02C
:103030000120A4EB08018B081AB1B1F5007F80F0E4
:10304000038203990F2900F20282B8F1000F00F009
:103050006081DBB201F140026A4402F8103C02F8E0
:1030600020BC002800F0518163F07F0301F1400291
:103070006A4402F8103C049B01330493039B013320
:10308000039304340022CC4640463DE001F0070A99
:103090005444CAF1080AA9E7002634E0002632E0C9
:1030A000002630E00827BC462DE025292BD10BF166
:1030B000010B01260427BC4625E04729EED82A2922
:1030C00014D32A39C9B24FF0010E0EFA01F14FF6AE
:1030D000DA7E11EA0E0F16D111F0625F40F0C08067
:1030E00011F0010F40F08C8000260CE0252903D15F
:1030F0000BF1FF3B002606E001D9002603E0202962
:1031000001D02329CCD11D466B1C6978002900F021
:103110001981002EC9D07A29BED84C29CDD34C397B
:103120002E2961D80FF2040E5EF821F0073100005D
:10313000E9310000E9310000E9310000E931000027
:10314000E9310000E9310000E9310000E931000017
:10315000E9310000E9310000E9310000F9310000F7
:10316000E9310000E9310000E9310000E9310000F7
:10317000E9310000E9310000E9310000E9310000E7
:1031800061320000E9310000F9310000F93100003E
:10319000613200006132000061320000073100003E
:1031A000F9310000A5300000E931000007310000CE
:1031B000E9310000BD320000F9310000BD320000ED
:1031C000E9310000E9310000C5320000F3310000B0
:1031D000F9310000E9310000E9310000F931000067
:1031E000E9310000ED31000000268CE70427BC46E1
:1031F00089E70427BC4686E729786C2924D0002675
:103200003C44013CB4FBF7F407FB04F420B1211A61
:103210006144514500F21581002A58D1BCF1040FD8
:1032200000F08880BCF1080F40F014811A99073132
:1032300021F0070101F108051A95D1E9008908B1CB
:10324000C4E9008908345EE713F8021C6C2903D036
:1032500000260427BC46D3E700260827BC46CFE754
:1032600029784C291AD01A99073121F0070101F168
:1032700008061A96D1E90067073424F0070440B124
:10328000211A0831514513D829784C2913D0C4E9A3
:103290000067083400260827BC4634E71A9907312E
:1032A00021F0070101F108061A96D1E90067E3E76A
:1032B0006FF01B00BCE0C4E90067EAE700260427C2
:1032C000BC469DE7324600260427BC4698E7E14607
:1032D00080461A9A111D1A9112680292079A1D4689
:1032E00098E6624B029A9A4204D3614B9A420AD3FF
:1032F000002300E00023002B7FF496AE059B03F033
:103300000202002095E60123F5E7069B01330693B0
:10331000B4E610B10AF1010AB0E6009B13B10AF15C
:10332000020AABE60298FDF7F9FB0AEB000303F192
:10333000020AA3E61A990D1D1A95096800B12160C9
:103340000434E0E68046231AB3F5806F80F0858070
:1033500090B1002202609B080370009B83B1069B22
:10336000C370049B88F802301BBB019DDDF80C90F4
:10337000DDF810B0029F3DE05344A3F1080057E090
:10338000069B4370EDE701339842EED903F140020A
:103390006A4412F8101C12F9102C002AF3DA01F01A
:1033A0007F01A4EB08020132524559D804F8011BF1
:1033B000E9E7019B0398E7E7009B43B305F140036E
:1033C0006B4413F8203C04F8013B019EA4EB080376
:1033D00033440133534546D805F140036B4413F899
:1033E000103C04F8013B3246394620460CF03DF9CA
:1033F00034440135A94519D9BBF1000FDCD005F1E2
:1034000040036B4413F9103C002BD5DAF1E705F1CA
:1034100040036B4413F8103C58F82370002248F81E
:1034200023203846FDF77AFB461CCFE7A4EB0800C3
:1034300011B0BDE8F08F6FF00D00F9E76FF01B00E1
:10344000F6E76FF01B00F3E76FF01500F0E76FF0A1
:103450001500EDE76FF01500EAE76FF01500E7E7FC
:103460006FF01B00E4E76FF01B00E1E704FF0000D2
:103470004C1401002DE9F04F97B000AF8346BA61BC
:103480003B61D7F88030C3F3C0033B62F96011B9E8
:1034900008F04EFEF8609BF80260B14636B1D7F8EE
:1034A000803013F0010F0DD1002300E000239BF8C2
:1034B00003207A6242B1D7F8802012F0020F22D1A5
:1034C000002202E00123F2E7002202B9EBB19BF8EF
:1034D0000050AA00BA60DBF804207A610BEB850586
:1034E000BA69F2B1002B40F00481B9F1000F00F08D
:1034F0000F81D7F8803013F0040F40F00D810020C9
:10350000F8610646F9E00122DFE7BB691BB13A69C1
:10351000F96858469847FC6820465C37BD46BDE8C8
:10352000F08FFC68E3B94D4400233B6123E0044481
:10353000013501364E451AD22A7800235BF8222045
:103540001946B86908F009FEBAF1000FEFD0D7F8B4
:1035500088309845EBD22AF8180008F10108E6E710
:103560000026C7F81C80B046D7F884A0E2E7C7F869
:103570001080D7F81C80D7F8803003F00503FB607B
:103580004FF0000AA146C7F81CB09CE000253B6A3A
:103590007BB9002D79D0D7F8803013F0010F79D1A5
:1035A000FB68002B6FD10223A9EB030988E00125FA
:1035B000EDE75946786908F016FE0028E9D06C4618
:1035C000002387F82C30022387F82D308AB0694613
:1035D00011F1100237D012251AB1042D01DDB34BC1
:1035E0004B61002387F82830022387F829306ABB13
:1035F000112D45DD122362B1042087F82C00002034
:1036000087F82D0087F82E00012087F82F00F86A30
:1036100008616FF300086FF341086FF382086FF3DE
:10362000C508022161F38818C3F30A0363F3532822
:103630006FF31F58002341469D4801F007F9A54646
:10364000A9F102093CE06FF00045C5E72B46082DC3
:1036500001DD786988610C2B01DDC1F81CB001F136
:103660002003002009E000F1300C07F1280EF4449B
:103670001CF830CC03F801CB01300128F3D9B7E7AF
:103680006FF01B03B7E701238EE7D7F8803013F004
:10369000020F15D0002322461946B86908F05DFDD7
:1036A000D7F8843053B13B69D7F88820934205D2CC
:1036B000D7F8842022F8130001333B61013881449C
:1036C0000AF1010A35467B6A9A4510D22E4616F851
:1036D00002BB6B78FA6952F82340764B9C42FFF4A8
:1036E00055AF754B9C42FFF462AF00254FE74C4647
:1036F00012E707F144000023FB6118B14A4629464E
:103700000BF0B3FF4D444FF00008C7F804901EE0E3
:103710000020F8610646F0E7FE6107F1340000265C
:10372000EBE700253B6A33BB002D3BD0D7F8803058
:1037300013F0010F26D0731C06F1300207F12801A7
:10374000561806F8149CDEB208F1010825467B6A7B
:1037500098454AD22C4614F802AB95F801905BF8D4
:103760002930544A9342DCD3534A934201D3002573
:10377000D8E70125D6E75146786908F034FD0028DE
:10378000D2D0E1E7D7F8803013F0040FDCD0FA692B
:10379000531C303207F128010A4402F8249CDBB2A2
:1037A000FB61D1E7D7F8803013F0020F09D0731C0A
:1037B00006F1300207F12801561806F8149CDEB213
:1037C000C2E7F869431C00F1300107F128028A18AA
:1037D00002F824AC02460232D2B2FA6107F1580272
:1037E00052FA83F303F8249CAEE7D7F804909BF8D1
:1037F000003087F854309BF80130334487F8553057
:10380000D7F8803013F0020F0ED1FB69C3F34703E2
:1038100087F85730D7F8803013F0010F06D113F036
:10382000040F3ED1002302E00023F1E7002387F8D4
:103830005630DBF800003863786DCBF80000D7F81D
:1038400010804246B9685846D7F818A0D047041EE1
:10385000FFF662AE386BCBF80000C7F81080424626
:10386000F96907F13400D04700285EDB04EB00085B
:10387000B96849447B6A01EB4301D7F810904A4686
:10388000FB68591A2846D047041EFFF645AE08EBE0
:1038900004054FF00008C7F824B0B3465446CA46A2
:1038A00021E0FB69C3E74FF0000909E0540501007E
:1038B000AC01010004FF00004C1401004FF00009AE
:1038C0005246012107F12C00A04700282FDB0544B8
:1038D0004B4632465146204608F03FFC002828DB84
:1038E000054408F10108D84518D208F1300307F162
:1038F0002802134413F8143C87F82C307A6A52F8E3
:103900002360D7F88430002BCDD0D7F88830984585
:10391000D4D2D7F8843033F81890D1E73A6900212F
:103920000846BB6998472C46F6E50446F4E504468C
:10393000F2E50446F0E500BF014B1860704700BF98
:103940004C15002010B586B0044603900491002168
:103950000591009103A9064800F0DAF8059B049A46
:10396000934201DA0022E254059806B010BD00BF70
:1039700039C2000084460268002006E000EB8000A7
:10398000013203EB4003A3F1300013780349C95C13
:1039900011F0040FF2D1CCF800207047D1110100D2
:1039A00084460846012226E09CF8003043F00403D8
:1039B0008CF80030F2B101301CE09CF8003043F08C
:1039C00008038CF80030F5E79CF8003043F0100352
:1039D0008CF80030EEE79CF8003043F020038CF8C0
:1039E0000030E7E79CF8003043F040038CF80030EB
:1039F000E0E7002242B30378203B102BF9D801A165
:103A000051F823F0C9390000F3390000F339000000
:103A1000D7390000F3390000F3390000F339000012
:103A2000F3390000F3390000F3390000F3390000E6
:103A3000BB390000F3390000A9390000F339000058
:103A4000F3390000E53900009CF8003003F044032E
:103A5000442B00D070479CF800306FF386138CF82D
:103A60000030F7E72DE9F84F05460C469346994696
:103A70000A9ED078254B13F800A00AF0030A08F03C
:103A800097FD074614E0BAF1010F20D0D2B25732A9
:103A9000D2B232703A46434628462146FDF724F812
:103AA000BD4274F1000416D34E4514D905460C46A8
:103AB0004FF000083A46434628462146FDF714F8E1
:103AC000013E092ADFD8D2B23032D2B2E1E7D2B217
:103AD0003732D2B2DDE79BF8003013F0200F03D06D
:103AE000082F04D0102F09D03046BDE8F88F9BF87E
:103AF000023043F008038BF80230F5E79BF8023000
:103B000043F010038BF80230EEE700BFD111010043
:103B10002DE9F04F91B006460D46914603930024DF
:103B200099F80000002800F0B982252808D029461D
:103B3000B0470028C0F2B382013409F10109EFE770
:103B4000002304930593069307930893099349462A
:103B500006A808F00BFD02909DF8193013F0010F34
:103B600000F09780039B1A1D03921F68002FC0F27C
:103B700088809DF8193013F0040F00F09C80039B9F
:103B80001A1D0392D3F800A0BAF1000FC0F28A8088
:103B90000023079308939DF81A3003F007039DF85C
:103BA0001910C1F3C301012B00F08E80022B00F02D
:103BB000D380042B00F02481032B00F03B819DF87F
:103BC000188018F0030B40F03B819DF81B30253B1B
:103BD000532B00F2CA81DFE813F04001C801C8018D
:103BE000C801C801C801C801C801C801C801C8018D
:103BF000C801C801C801C801C801C801C801C8017D
:103C0000C801C801C801C801C801C801C801C8016C
:103C1000C801C801C801C801C801C801C801C8015C
:103C2000C801C801C801C801C801C801C801C8014C
:103C3000C801C801C801C801C801C801C801C8013C
:103C40009D01C801C801C801C801C801C801C80157
:103C5000C801C801C8017A018301C801C801C801AF
:103C6000C8018301C801C801C801C801BD019D0187
:103C70005E01C801C8014D01C8019D01C801C8010C
:103C80009D019DF8183043F004038DF818307F42F1
:103C90006FE79DF91830002B02DB4FF0FF3768E724
:103CA000079F66E79DF819306FF341038DF81930CF
:103CB0004FF0FF3A6CE713F0020F02D0DDF820A0BE
:103CC00066E74FF0FF3A63E7CB1E042B04D8DFE82A
:103CD00003F00B1D29353500039B1A1D03921B6849
:103CE000DA170493059206E0039B1A1D03921B68E2
:103CF000DA1704930592012928D002297FF45FAFD7
:103D0000BDF91030DA170493059258E7039B073387
:103D100023F0070303F108020392D3E90023CDE95E
:103D20000423E8E7039B073323F0070303F10802AA
:103D30000392D3E90023CDE90423DCE7039B1A1D9A
:103D400003921B68DA1704930592D4E79DF91030AB
:103D5000DA170493059232E7CB1E042B04D8DFE870
:103D600003F00B1F35414100039B1A1D03921B6892
:103D70000493002305931EE09DF81B30632B07D0AE
:103D8000039B1A1D03921B6804930023059312E002
:103D9000039B1A1D03921B680493002305930AE0FA
:103DA000039B073323F0070303F108020392D3E9CF
:103DB0000023CDE9042301291CD002297FF4FFAEA2
:103DC000BDF81030049300230593F8E6039B0733F6
:103DD00023F0070303F108020392D3E90023CDE99E
:103DE0000423E8E7039B1A1D03921B680493002336
:103DF0000593E0E79DF81030049300230593DEE679
:103E000008290BD0039B073323F0070303F10802B3
:103E10000392D3E90023CDE90423D0E6039B0733C3
:103E200023F0070303F108020392D3E90023CDE94D
:103E30000423C4E6039B1A1D03921B680493BEE689
:103E4000029F3B464A462946304608F0E5FB0028DB
:103E5000C0F225810444B94662E629462520B047D0
:103E60000028C0F21C810134D8460DF13E0A4FF003
:103E700000097FE0DDF81090BAF1000F06DA48463D
:103E8000FCF74CFE09EB000AD84673E05146484661
:103E90000BF022FDF6E7049828B9D846DFF804A213
:103EA000AAF1050966E00DF13E0300930AAB06AAEC
:103EB0000021FFF7D7FD81469DF81A3043F010032B
:103EC0008DF81A3078238DF81B30D8462DE0049BEE
:103ED0008DF82830D8460DF1290A0DF1280949E05E
:103EE00018F0080F05D118F0100804D04FF0200882
:103EF00001E04FF02B08049A059B002B02DB049293
:103F0000059308E0524263EB4303049205934FF09C
:103F10002D0800E0D8460DF13E0300930AAB06AA37
:103F2000DDE90401FFF79EFD8146BAF1000F50DB89
:103F30000DF13E03A3EB09039DF818206FF38612E1
:103F40008DF818209A4547D9AAEB030307930DF182
:103F50003E0A0FE02246049906A808F03EFBD84628
:103F60000DF13E0A4FF0000904E0D8460DF13E0A7B
:103F70004FF00009B9F1000F00F08D80AAEB0902A3
:103F8000B8F1000F00D001329DF81A1011F0100F97
:103F900025D00232079B134411F0400F01D0089A3C
:103FA0001344002F31DDFF1A9DF8183013F0040F71
:103FB0002BD113F0400F17D0B8F1000F17D02946BE
:103FC0004046B04700286ADB0134D8464FF0300B3A
:103FD0000FE00DF13E0ACDE70DF13E0ACAE711F000
:103FE000080FD7D00132D5E74FF0200B01E04FF09A
:103FF000300B3B465F1E002B07DD29465846B04775
:1040000000284CDB01343B46F4E7B8F1000F05D043
:1040100029464046B047002841DB01349DF81A305C
:10402000C3F30012C3F3C0031A4305D0294630205E
:10403000B047002833DB01349DF81A3013F0100F1D
:1040400006D029469DF81B00B047002827DB013425
:10405000079B03F1FF38002B07DD29463020B047CE
:1040600000281CDB01344346F3E753464A46294601
:10407000304608F0D1FA002811DB0444002F07DD98
:1040800029462020B047002809DB0134013FF5E72D
:10409000DDF8089044E5DDF8089041E5204611B0D0
:1040A000BDE8F08F110601002DE9F04383B004460E
:1040B00008461546238B13F0080F05D103F00706B9
:1040C00000230093019354E0012909D043F0200319
:1040D000238385F31188BFF36F8F03B0BDE8F083AE
:1040E00043F010032383F4E7204608F0D5FD42E0B7
:1040F000D4F814904A466946204608F0E6FD4FF091
:104100000008238B03F00707B74269D0A268002A92
:1041100066D0012243F00803238385F31188BFF39F
:104120006F8F002A64D1009B2BB14B463A466946FB
:10413000204608F043FEB8F1000F02D03449204673
:10414000C047EFF31185202383F31288BFF36F8FED
:10415000238B23F008032383238B13F0100F4DD000
:1041600023F0100323830120268B06F00706002886
:10417000AFD00228B8D00028ABD0013804282BD803
:1041800001A353F820F000BFF1400000D941000026
:104190009D410000B1410000C54100002369D3F8F2
:1041A00000800621204608F04DFD4FF00009A8E7E9
:1041B0002369D3F804800421204608F043FD4FF022
:1041C00000099EE72369D3F808800521204608F0FE
:1041D00039FD4FF0000994E74FF00008C14690E721
:1041E000009A0AB1002295E7B8F1000F92D1B3E727
:1041F0004A463946204608F02DFD94E713F0200F7B
:1042000004D023F0200323830220ADE70020ABE796
:10421000EBCD000038B505460B4C00E010340B4BDD
:104220009C420FD263685B79002BF7D02946204669
:1042300008F0DFFE0028F1D023681B6829462046DD
:104240009847EBE738BD00BF3C0201004C0201007B
:1042500070B506460D46084C04E02A463146204615
:1042600098471034054B9C4204D223689B69002B6D
:10427000F3D1F6E770BD00BF3C0201004C02010023
:104280002DE9F041074605460AE007EA0807144B06
:1042900003EB06135B6804221968204608F0F3FE5E
:1042A000D5B195FAA5F6B6FA86F60D4C04EB0614D0
:1042B0000123B3406FEA030825EA0305237B002BA3
:1042C000EED03301064AD3581B69002BDDD02046BF
:1042D00098470028E4D1D8E73846BDE8F08100BF10
:1042E0003C0201002DE9F04180460F461F4BBFF311
:1042F0005B8F53E8005F6A1C43E800210029F8D176
:10430000BFF35B8F6DBB1A4C002607E06368042285
:104310001968204608F0B7FE01361034154B9C4250
:1043200011D2237B002BF7D0204608F056FE2368DD
:104330001B69002BEAD0204698470028E6D00123CD
:10434000B3401D43E8E7B8F1000F0BD055B1284644
:10435000FFF796FF0546002FF8D00A2008F04FFE21
:10436000F4E700252846BDE8F08100BFF8360020BC
:104370003C0201004C02010008B5064B186018B160
:10438000054B1B68092B00DC08BD044804F068FBE2
:10439000FAE700BFEC360020F4360020B419002004
:1043A00008B5024804F05CFB08BD00BFB41900204A
:1043B00030B589B000220F490F480AF0A2FF0F4D17
:1043C00000220023CDE90623002404940E23039346
:1043D0000294019400940A4B4FF440720949284614
:1043E0000AF072FD0849284604F040FD204609B055
:1043F00030BD00BFA143000010320020502D00202E
:104400007D4700001055002014060100014B53F8B1
:10441000200070473006010048B108B5054A106019
:10442000054B1960084600F007FD002008BD6FF03D
:104430001500704750150020E836002008B5054BE0
:104440001B781BB1034B01221A7008BD024804F00F
:1044500007FBF7E705390020B419002008B5104B19
:10446000BFF35B8F53E8001F013143E80012002ABD
:10447000F8D1BFF35B8F30B90A480AF04EFF0A4803
:1044800004F0EEFA08BD094BBFF35B8F53E8001F41
:10449000013943E80012002AF8D1BFF35B8FEBE744
:1044A000F036002010320020B4190020F43600202D
:1044B000064B00200146BFF35B8F53E8000F43E833
:1044C0000012002AF9D1BFF35B8F7047F03600204D
:1044D00038B5FFF7EDFF0546094C00E01034094BF5
:1044E0009C420BD263685B79002BF7D023685B6832
:1044F000002BF3D0294620469847EFE738BD00BF90
:104500003C0201004C020100034B18680028D4BF94
:1045100000200120704700BFF036002010B5044C89
:104520000449204608F0E9F9034B1C6010BD00BFA8
:10453000EC1700201C060100E436002008B500231B
:104540000C4A13700C4A13600C4A13604FF400417C
:104550000B48FFF761FFFFF7E1FF0A4A06E0094B4E
:10456000D31A1B11013351680B711032064B9A425A
:10457000F5D308BD06390020F0360020F4360020BF
:10458000F7CF00003C0201004C02010008B50146D3
:10459000014808F04AFD08BDEC17002008B50248A4
:1045A00008F08EFA08BD00BFEC17002008B50146E0
:1045B000024B186808F03FFD08BD00BFE43600203C
:1045C00008B5024808F03BFD08BD00BFEC1700200D
:1045D00010B582B000220023CDE90023284B1878C3
:1045E00008B902B010BD684608F041FD044680B12C
:1045F000FFF710FE2046FFF7D9FF224BBFF35B8F7A
:1046000053E8001F013943E80012002AF8D1BFF334
:104610005B8FFFF779FF58B91B4A1368516813F590
:104620007A7341F1000113605160FFF7C9FFD8E7C9
:104630000AF058FE4A0142EAD06243011B1A62EBBB
:104640000102920042EA93729B001B1842EB0102A6
:10465000D20042EA5372C3F3103343EA4243D20B0F
:104660000948016840685B1A62EB000240F2E931D8
:104670008B4272F10002CFD3FFF72AFFCCE700BFD5
:1046800005390020F4360020083200200F4B1B783B
:1046900003B1704710B500210120FFF723FE0C4C39
:1046A00000E010340B4B9C4208D263685B79002B0E
:1046B000F7D023689B6820469847F2E7FFF788FF0A
:1046C0000028FBD1014B01221A7010BD06390020D1
:1046D0003C0201004C02010010B582B01A4BBFF33E
:1046E0005B8F53E8002F511C43E800100028F8D1DD
:1046F000BFF35B8F154B1B7863B9154B1B68B3B1C8
:10470000BAB1092A13D113480AF007FE124804F07F
:10471000A7F90CE0EFF31184202383F31288BFF391
:104720006F8FFFF755FF84F31188BFF36F8F02B0CF
:1047300010BD00220023CDE900234FF400420023E6
:10474000044805F04DFBF2E7F4360020063900205E
:10475000EC36002010320020B419002010B50446B9
:10476000044B1B689847A0602146034808F083FC6F
:1047700010BD00BF50150020EC1700202DE9F041BE
:1047800000210846FFF7AEFD804640B140F2676663
:10479000002704F0C9FFFFF7EFFD002515E04FF0FB
:1047A000FF364FF0FF37F4E74046FFF769FD8046DC
:1047B00070B94FF0FF364FF0FF3709E02C46324614
:1047C0003B46094804F094F92546B8F1000FEBD1B7
:1047D000FFF7FEFE04460028F6D1002DEED00021A2
:1047E0000846FFF735FDEAE7B41900200248034BFD
:1047F000C01AC008704700BF3C020100A4010100BC
:1048000010B50C46FFF7F2FFA04203D9024B53F854
:10481000340010BD0020FCE7A401010000B589B000
:10482000059206930023079362B1074A0C9B0293FB
:104830000B9B01930A9B009305ABFEF71BFE09B08F
:104840005DF804FB0022F1E79DD000002DE9F04F58
:104850008BB004AF05461E468846C1F34A24002C9F
:1048600000F0898091460022FA603A617A6104235F
:104870000293FB1801930A23009307F10C032146CE
:104880004846FEF7F7FDB0F5006F58D3D9F804108D
:104890006D4600233B7302237B738AB004AC14F192
:1048A000100217D012201AB1042801DD3B4B6361BE
:1048B00000233B7002237B70CAB10346082800DD49
:1048C000A1610C2B02DD40F2FF73E36104F12003D0
:1048D00000210AE06FF00040E5E701F118063E44D0
:1048E00016F8186C03F8016B01310129F5D911286C
:1048F00022DD122342B10421397300217973B97387
:104900000121F973F868206100216FF300016FF352
:1049100041016FF382016FF3C501022060F388113A
:10492000C3F30A0363F353210023C1F313011C48AB
:1049300008F027FCAD462DE06FF01B03DAE760F3CB
:104940005328C0F30A0A0AEB1850173020F007006A
:104950008008FFF71BFE8346B0B104230293FB18C7
:1049600001930A230093534600F110022146484662
:10497000FFF754FF08E004EB1154173424F0070448
:10498000A008FFF703FE83463346424629465846B1
:1049900008F09AFB1C37BD46BDE8F08F50060100B9
:1049A000DC0101002DE9F04F85B080460D46174629
:1049B0001E46DDF838B0DDF84090B9F1000F41D067
:1049C000119B039300934B460F9A10210020FEF792
:1049D000F7FAB0F5006F2DD282460BEB00031733C8
:1049E00023F0070300246FF300046FF341046FF317
:1049F000820468F3C50467F3881460F353246BF3EF
:104A00001F549808FFF7C2FD074650B11030B9F1A6
:104A1000000F06D0119B00934B460F9A5146FEF7AC
:104A2000CFFA334622462946384608F04DFB05B0FA
:104A3000BDE8F08F40F2FF73034A0221034808F0FB
:104A400095FBF4E70020C7E790060100DC010100B8
:104A5000406820B1034BC01A40F3CF0070474FF0BD
:104A6000FF307047A40101000EB400B584B00146C8
:104A700005AB53F8042B0393002000900348FFF785
:104A800047F804B05DF804EB03B07047B9D10000FB
:104A900010B584B011F0440F05D01A4B1B6833B920
:104AA000002004B010BD1849FFF7DEFFF9E71749F1
:104AB0000968B2FBF1F2B2FBF3FC03FB1C224FF4DA
:104AC0007A7E0EFB02F2B2FBF3F403FB14210EFB21
:104AD00001F1B1FBF3F10E4AA2FB0C32D20A4FF402
:104AE000616303FB12CC0B4BA3FB0CE35B0902914C
:104AF0000194C3EB0311ACEB810100910649FFF770
:104B0000B3FFCEE700370020C8060100FC360020C6
:104B1000C5B3A29189888888D406010061B108B51F
:104B20002AB1064A52F8232012B9054A00E0044A85
:104B30000449FFF799FF08BD704700BF74070100E3
:104B4000F0060100F80601002DE9F0410546174680
:104B5000069EDDF81C8081B900242EB13246114931
:104B60002846FFF781FF0444B8F1000F14D06FB15D
:104B7000099B042B13D00C4909E00C4B099A53F8FC
:104B800022200B49FFF770FF0446E6E7064942463C
:104B90002846FFF769FF04442046BDE8F081054937
:104BA000F5E700BF100701000007010088070100BA
:104BB00008070100FC0601002DE9F04F87B005460B
:104BC0000C46049205939DF84C7001F0020B01F025
:104BD000010AC1F3C00801F4807908F052FA18B351
:104BE000024616492846FFF73FFF0646BBF1000F75
:104BF0001CD13A465146284608F011FBB9F1000F86
:104C000001D0002311930397129B0293119B0193F0
:104C1000109B00930023049A41462846FFF794FF17
:104C2000304407B0BDE8F08F0026DFE7059A214643
:104C30002846FFF72DFF0644DBE700BF14070100FD
:104C400011F0100F0BD108B511F0200F03D004495B
:104C5000FFF70AFF08BD0349FFF706FFFAE77047B1
:104C600054080100180701002DE9F04105460F46E0
:104C7000164698460699FFF7E3FF0024444505DAF7
:104C800024492846FFF7F0FE0134F7E7002409E045
:104C900020492846FFF7E8FE0BE01F492846FFF7AA
:104CA000E3FE01340F2C0CDC002C02DD14F0070FA6
:104CB000EED0B442F1D23A5D18492846FFF7D4FE4F
:104CC000EFE717492846FFF7CFFE002409E0114916
:104CD0002846FFF7C9FE0BE012492846FFF7C4FE3D
:104CE00001340F2C13DC002C02DD14F0070FEED082
:104CF000B44207D23A5D0C4B9B5C13F0970FEBD19B
:104D00002E22E9E703492846FFF7AEFEE8E7BDE8B3
:104D1000F08100BF00050100F40401001C07010040
:104D20002407010028070100D11101002DE9F041FD
:104D300084B004469DF82C500C9F0E9E95B9012B13
:104D40001ED019484FF0000827B13B4622461749AC
:104D500007F019FAC6B905BB204608F016FA04B0E8
:104D6000BDE8F08103950A980290019300920B46EA
:104D700000220F992046FFF71FFF80460C48E3E70B
:104D80000B484FF00008DFE70F9B00934346324685
:104D90000D99204608F05BFADDE72A460F99204678
:104DA00008F049FAD8E700BFF1D100000FD20000A7
:104DB000B9D100002DE9F04383B00646056842F200
:104DC0000F738B4228BF0B46184A0521684607F02F
:104DD0005CFA04467368D3F804900B27DFF8508020
:104DE00005E04A4639464046A8473F1A8044002F0E
:104DF000F7D17368D3F804806F4605E04246214638
:104E00003846A847241A0744002CF7D173685F6816
:104E10001B24084E05E03A4621463046A847241A8E
:104E20000644002CF7D103B0BDE8F0830809010067
:104E3000480701002C070100074B01221A6004E01B
:104E40004008054A13685B001360044B9842F7D88A
:104E5000034B1860704700BFFC36002040420F0033
:104E60000037002070B506460D46002405E0315D90
:104E7000044883685B6898470134AC42F7D32846FE
:104E800070BD00BF9CFF0000014B03600020704715
:104E9000F007010008B5034807F0E9F9024807F0F8
:104EA000E6F908BDF0070100280801002DE9F041EE
:104EB00082B000AF0446D0F800E0D0F804C08568A6
:104EC0006E468AB06B4613F1100200F08880142100
:104ED0008AB10846042903DDDFF81C81C3F8148079
:104EE000082801DDC3F818E00C2801DDC3F81CC058
:104EF000102800DD1D62132974DD14253AB1052147
:104F0000397100217971B971F971786818610021DE
:104F10006FF300016FF341016FF382016FF3C5017D
:104F2000012363F38811C5F30A0565F353216FF379
:104F30001F5100233148FFF789FCB546D4F80CC057
:104F400026696569E8468AB06B4613F110024CD0B9
:104F5000142182B10846042903DDDFF8A4E0C3F878
:104F600014E0082801DDC3F818C00C2800DDDE615C
:104F7000102800DD1D6213293ADD14253AB1052100
:104F8000397100217971B971F9717868186100215E
:104F90006FF300016FF341016FF382016FF3C501FD
:104FA000012666F38811C5F30A0565F353216FF3F3
:104FB0001F51124D00232846FFF748FCC546E36900
:104FC000104A3146284608F0D1F8A3690E4A314606
:104FD000284608F0CBF80837BD46BDE8F0816FF0F1
:104FE000004175E76FF01B0588E76FF00041B0E7FF
:104FF0006FF01B05C2E700BF580801001402010052
:1050000088080100B8080100C808010038B5044646
:105010000D4611B10846FFF749FF012C04D029467F
:10502000204603F0FDF938BDEFF30583103B034A3A
:105030000121034808F09AF8F1E700BFF8080100E1
:105040001402010030BFFFF7FDBF00BF054B5A69D6
:105050009B689A4204D0044A536843F080535360DB
:10506000704700BFB038002000ED00E081690D4BB3
:105070005A6942F480725A61BFF34F8FBFF36F8F4A
:1050800031F8021C5A6922F480725A61BFF34F8FC3
:10509000BFF36F8F4DF60273994201D00020704725
:1050A0000120704700ED00E04FF0000C83F800C0D5
:1050B00002F07F4CBCF17F4F14D102F00C0CBCF11C
:1050C000080F04D012F0080F09D00846704708B541
:1050D000054A0121054808F03FF8002008BD0122DB
:1050E0001A707047002070470C090100140201007B
:1050F00008B52B4A01212B4808F02EF82A4B9B6A51
:1051000013F0007F21D11D20274B9B6A13F0807F75
:1051100022D1254B9B6A13F4002F24D1224B9B6A8A
:1051200013F4802F26D1204B9B6A13F4003F28D123
:105130001D4B9B6A13F4803F2AD11B4A936A6FEA86
:1051400003436FEA1343936208BD184A01211548CF
:1051500008F002F81E20D7E7154A0121114807F090
:10516000FBFF1F20D5E7134A01210E4807F0F4FF8B
:105170002120D3E7104A01210A4807F0EDFF222041
:10518000D1E70E4A0121074807F0E6FF2320CFE7C9
:105190000B4A0121034807F0DFFF2420CDE700BFC1
:1051A000380901001402010000ED00E0500901007F
:1051B0006409010080090100A0090100C80901007B
:1051C000E409010008B500230B70034A01210348DC
:1051D00007F0C2FF08BD00BF100A01001402010061
:1051E00090B583B000AF0F2923DC2F4C103900237A
:1051F0003B7102237B718AB0EC461CF110021AD07D
:10520000122022B1042802DD284BCCF814300023F0
:105210003B7002237B70E2B10346082801DDCCF825
:1052200018400C2B01DDCCF81C100CF120030021E0
:105230000DE01F4CDAE76FF00040E2E701F10804EF
:1052400004EB070E1EF808EC03F801EB013101290D
:10525000F4D9112824DD12234AB104213971002127
:105260007971B9710121F9717868CCF810000021C9
:105270006FF300016FF341016FF382016FF3C5011A
:10528000012060F38811C3F30A0363F353216FF322
:105290001F5100230748FFF7D9FA0C37BD4690BDD0
:1052A0006FF01B03D8E700BF340A0100680A010051
:1052B0004C0A010014020100F8B505460F461446D9
:1052C000394A0121394807F047FF394B9B6A13F0EF
:1052D000100F31D11026364B9B6A13F0080F32D1D4
:1052E000334B9B6A13F0020F34D1314B9B6A13F09E
:1052F000010F4BD12E4B9B6A13F0200F4DD12C4B3D
:105300009B6A13F0100F01D1294B9B6A284B9B6AB3
:1053100013F0200F04D0264A536A23F4005353623B
:10532000234A936A43F0FF0393620121284608F061
:105330002AF820703046F8BD1E4A01211B4807F0AC
:105340000BFF1126C7E71C4A0121184807F004FF8C
:105350001226C5E7194A0121144807F0FDFE144A38
:10536000536B926A12F0800F01D11326BDE7144AE5
:1053700001210E4807F0FAFE37B10D4A936A23F077
:10538000800393621326B0E71326AEE70D4A01218E
:10539000064807F0E1FE1426ACE70B4A012103485A
:1053A00007F0DAFE1526AAE77C0A010014020100C4
:1053B00000ED00E0940A0100C80A0100DC0A0100C7
:1053C000F40A01000C0B01002C0B0100F8B5054696
:1053D0000F461446374A0121374807F0BDFE374BC8
:1053E0009B6A13F4805F25D11626344B9B6A13F415
:1053F000006F26D1314B9B6A13F4007F28D12F4BCD
:105400009B6A13F4806F3FD12C4B9B6A13F4807F0F
:1054100041D12A4B9B6A13F4005F43D1274A936A18
:1054200043F47F4393620121284607F0ACFF2070CC
:105430003046F8BD224A01211F4807F08DFE17268D
:10544000D3E7204A01211C4807F086FE1826D1E741
:105450001D4A0121184807F07FFE184A936B926A93
:1054600012F4004F01D11926C9E7184A0121124848
:1054700007F07CFE37B1114A936A23F4004393622C
:105480001926BCE71926BAE7114A01210A4807F094
:1054900063FE1A26B8E70F4A0121074807F05CFEB1
:1054A0001B26BBE70C4A0121034807F055FE1C26CA
:1054B000B4E700BF5C0B01001402010000ED00E046
:1054C000740B0100C80A0100880B0100A40B010045
:1054D000BC0B0100D80B01002C0B010070B5064677
:1054E0000D462B4A01212B4807F036FE00232B7076
:1054F000294BDC6A14F002040AD1274BDB6A002B2B
:105500000DDB254BDC6A14F080440ED1204670BDC3
:10551000224A01211F4807F01FFE0024F6E7204A17
:1055200001211C4807F018FEF0E71E4A0121194826
:1055300007F012FE3046FFF799FD98B9164B9B6AAB
:1055400013F0FF0F16D1144B9C6A14F47F4418D14A
:10555000114B9B6AB3F5803FD8D33046FFF7C8FDA7
:105560000446D3E73368104A01210A4807F0FEFDDC
:105570003468CBE72A4601213046FFF79DFE0446FA
:10558000C4E72A4601213046FFF720FF0446BDE765
:10559000F00B01001402010000ED00E0080C010016
:1055A0002C0C01003C0C01005C0C010030B58BB0F0
:1055B0001F4B5D68C5F30805002383F31188BFF313
:1055C0006F8F0DF12603FFF76FFD04460DF12702E3
:1055D000294607F0DAFE9DF827300BB10BB030BD3D
:1055E00005460DF1040C20686168A268E368ACE828
:1055F0000F0020696169A269E369ACE80F009DF8BA
:1056000026304BB1089BC3F308025AB96FEA532303
:105610006FEA4323089305E0089B23F4FF7323F00C
:105620000103089301A92846FFF7F0FCD6E700BF65
:1056300000ED00E0044B5A6942F010025A615A69C9
:1056400022F008025A61704700ED00E0EFF3088095
:10565000EFF3098101B57246FFF7A8FF01BD00BF56
:10566000002080F31488BFF36F8F114880F30888FF
:1056700000201049087001F0CDFF00200E4908609D
:10568000BFF34F8F00F030F8202080F311880B48D3
:105690004FF40061401880F30988EFF31480022171
:1056A000084380F31488BFF36F8F00F0E9F800001F
:1056B000506500200B39002094ED00E010580020C8
:1056C000084BD3F89000C0F30720002306E0054AFA
:1056D000C2F898300021C2F8A01001338342F6DBF3
:1056E000704700BF00ED00E010B572B6002484F3EF
:1056F0001388FFF7E5FF234608E003F120010E4A77
:105700004FF0FF3042F821000133DBB2072BF4D910
:10571000002308E003F16001074A4FF0FF3042F830
:1057200021000133DBB2072BF4D962B6BFF34F8FF0
:10573000BFF36F8F10BD00BF00E100E008B50A4B5A
:105740009B68834202D003F0F5FF08BDEFF30583A9
:10575000002BF8D0054B5A6842F080525A605A6AC2
:1057600022F400425A62EEE7B038002000ED00E07B
:1057700010498A684FF030001044EFF3098C80E83C
:10578000F01F202080F31288BFF36F8F0A4F4FF075
:1057900000664A698A603E60D2F8AC000023C2F815
:1057A000AC3080F3118802F1300090E8F01F8CF3E8
:1057B00009887047B038002004ED00E01EF0040FA7
:1057C0000CBFEFF30880EFF30980816911F8021C28
:1057D0000229FFD001B5724607F0C9FD01BD00BF27
:1057E000002807DB00F01F02400901239340024A12
:1057F00042F82030704700BF00E100E000280CDBD9
:1058000000F01F024009012393402030034A42F870
:105810002030BFF34F8FBFF36F8F704700E100E080
:10582000002808DB4901C9B200F1604000F5614081
:1058300080F80013704700F00F004901C9B2014B16
:105840001954704714ED00E04209054B53F822202B
:1058500000F01F00012303FA00F01040704700BF62
:1058600000E100E0044B23F07F03044A9360BFF3A0
:105870004F8FBFF36F8F70470000000000ED00E016
:1058800008B5FFF7EFFF074AD2F8883023F470031A
:10589000C2F8883002F072FF04F0C6F800F044F855
:1058A00002F0C8FF00ED00E010B4A2F120040E49A0
:1058B00042F8081C21F0010142F8081C42F8203C83
:1058C000019B42F81C3C029B42F8183C039B42F8A7
:1058D000143C4FF0807342F8043C04650023C0F888
:1058E000AC3010BC704700BFA7C2000000B50E4628
:1058F0001546074B98602C4686F309880020054B17
:1059000098472046002100220023034C204700BF77
:10591000B038002001D40000A7C20000014B1022C3
:105920001A61704700ED00E0002206E003F00F036B
:105930000949194420230B760132262A0ADC53B286
:10594000002BF3DB03F1604303F56143202183F86F
:105950000013F1E7704700BFFCEC00E008B5EFF37F
:105960000583103B044A02EBC301496852F8330037
:105970008847FFF76BFB08BDFCFF000008B5034B31
:10598000034A0121034807F066FE08BD000001201C
:1059900000000020780C0100084AC2F898000B684B
:1059A00023F01F03034343F01003C2F89C308B68BD
:1059B00043F00103C2F8A030704700BF00ED00E0E3
:1059C00010B504460A4BD3F89030C3F30723013BCC
:1059D000984203D8FFF7E0FF204610BD0346054A72
:1059E0000121054807F0C2FB6FF01500F5E700BF85
:1059F00000ED00E0880C0100FC0101002DE9F047FA
:105A000080460F469A461646002409E02946F0B221
:105A100007F02AFD064610F1160F1AD001360134A0
:105A2000BC4216DA04EB440508EB85056A68002AD7
:105A3000F5D0BAF1000FE9D0284607F004FD0028A0
:105A4000E4D12346044A0121044807F08FFB6FF09C
:105A500015063046BDE8F087B00C0100FC010100DE
:105A600010B5034C01232278FFF7C8FF207010BD4A
:105A700007390020044B0522C3F89420BFF34F8F51
:105A8000BFF36F8F704700BF00ED00E0BFF35F8F83
:105A9000024B0022C3F89420704700BF00ED00E0E5
:105AA00038B51C4B1D681C4BD3F89030C3F307234B
:105AB0009D422BD8FFF7EAFF002409E0154B5B68F5
:105AC00004EB440103EB81012046FFF765FF01343D
:105AD000A542F3D81148057007F0E5FC10F1160F48
