:10000000482B0020B1320000E58A00009D3200003C
:100010009D3200009D3200009D3200000000000073
:100020000000000000000000000000000D3400008F
:100030009D32000000000000B93300009D32000036
:100040009935000099350000993500009935000078
:100050009935000099350000993500009935000068
:100060009935000099350000993500009935000058
:100070009935000099350000993500009935000048
:100080009935000099350000993500009935000038
:100090009935000099350000993500009935000028
:1000A0009935000099350000993500009935000018
:1000B0009935000099350000993500009935000008
:1000C00099350000993500009935000099350000F8
:0C00D000993500009935000099350000BA
:1000E00081F0004102E000BF83F0004330B54FEAE9
:1000F00041044FEA430594EA050F08BF90EA020F56
:100100001FBF54EA000C55EA020C7FEA645C7FEAE8
:10011000655C00F0E2804FEA5454D4EB5555B8BF0B
:100120006D420CDD2C4480EA020281EA030382EA7C
:10013000000083EA010180EA020281EA0303362D0E
:1001400088BF30BD11F0004F4FEA01314FF4801CE1
:100150004CEA113102D0404261EB410113F0004FF3
:100160004FEA03334CEA133302D0524263EB4303AA
:1001700094EA050F00F0A780A4F10104D5F1200E48
:100180000DDB02FA0EFC22FA05F2801841F10001A3
:1001900003FA0EF2801843FA05F359410EE0A5F177
:1001A00020050EF1200E012A03FA0EFC28BF4CF0A8
:1001B000020C43FA05F3C01851EBE37101F000455E
:1001C00007D54FF0000EDCF1000C7EEB00006EEB6B
:1001D0000101B1F5801F1BD3B1F5001F0CD34908F5
:1001E0005FEA30004FEA3C0C04F101044FEA44524C
:1001F00012F5800F80F09A80BCF1004F08BF5FEAD3
:10020000500C50F1000041EB045141EA050130BDB2
:100210005FEA4C0C404141EB0101013C28BFB1F5C4
:10022000801FE9D291F0000F04BF01460020B1FA0F
:1002300081F308BF2033A3F10B03B3F120020CDAE2
:100240000C3208DD02F1140CC2F10C0201FA0CF0C0
:1002500021FA02F10CE002F11402D8BFC2F1200C25
:1002600001FA02F120FA0CFCDCBF41EA0C019040DB
:10027000E41AA2BF01EB0451294330BD6FEA040424
:100280001F3C1CDA0C340EDC04F11404C4F120020F
:1002900020FA04F001FA02F340EA030021FA04F321
:1002A00045EA030130BDC4F10C04C4F1200220FA78
:1002B00002F001FA04F340EA0300294630BD21FAB6
:1002C00004F0294630BD94F0000F83F4801306BF7C
:1002D00081F480110134013D4EE77FEA645C18BF70
:1002E0007FEA655C29D094EA050F08BF90EA020F07
:1002F00005D054EA000C04BF1946104630BD91EAFF
:10030000030F1EBF0021002030BD5FEA545C05D101
:100310004000494128BF41F0004130BD14F5800440
:100320003CBF01F5801130BD01F0004545F0FE41B4
:1003300041F470014FF0000030BD7FEA645C1ABFE9
:10034000194610467FEA655C1CBF0B46024650EA20
:10035000013406BF52EA033591EA030F41F400214C
:1003600030BD00BF90F0000F04BF0021704730B5D2
:100370004FF4806404F132044FF000054FF00001A7
:1003800050E700BF90F0000F04BF0021704730B568
:100390004FF4806404F1320410F0004548BF40423D
:1003A0004FF000013EE700BF42004FEAE2014FEA92
:1003B00031014FEA02701FBF12F07F4393F07F4F6D
:1003C00081F06051704732F07F4208BF704793F070
:1003D0007F4F04BF41F40021704730B54FF4607483
:1003E00001F0004521F000411CE700BF50EA010286
:1003F00008BF704730B54FF000050AE050EA01022F
:1004000008BF704730B511F0004502D5404261EB9E
:1004100041014FF4806404F132045FEA915C3FF4DF
:10042000D8AE4FF003025FEADC0C18BF03325FEA7C
:10043000DC0C18BF033202EBDC02C2F1200300FA2D
:1004400003FC20FA02F001FA03FE40EA0E0021FA52
:1004500002F11444BDE600BF70B54FF0FF0C4CF440
:10046000E06C1CEA11541DBF1CEA135594EA0C0FF2
:1004700095EA0C0F00F0DEF82C4481EA030621EA2D
:100480004C5123EA4C5350EA013518BF52EA033568
:1004900041F4801143F4801338D0A0FB02CE4FF01A
:1004A0000005E1FB02E506F00042E0FB03E54FF04A
:1004B0000006E1FB03569CF0000F18BF4EF0010E42
:1004C000A4F1FF04B6F5007F64F5407404D25FEA3E
:1004D0004E0E6D4146EB060642EAC62141EA5551F1
:1004E0004FEAC52040EA5E504FEACE2EB4F1FD0C33
:1004F00088BFBCF5E06F1ED8BEF1004F08BF5FEAB1
:10050000500E50F1000041EB045170BD06F0004662
:1005100046EA010140EA020081EA0301B4EB5C040F
:10052000C2BFD4EB0C0541EA045170BD41F4801107
:100530004FF0000E013C00F3AB8014F1360FDEBF2C
:10054000002001F0004170BDC4F10004203C35DA08
:100550000C341BDC04F11404C4F1200500FA05F38B
:1005600020FA04F001FA05F240EA020001F000422C
:1005700021F0004110EBD37021FA04F642EB0601A2
:100580005EEA430E08BF20EAD37070BDC4F10C04CC
:10059000C4F1200500FA04F320FA05F001FA04F290
:1005A00040EA020001F0004110EBD37041F100017C
:1005B0005EEA430E08BF20EAD37070BDC4F1200587
:1005C00000FA05F24EEA020E20FA04F301FA05F2EF
:1005D00043EA020321FA04F001F0004121FA04F297
:1005E00020EA020000EBD3705EEA430E08BF20EA67
:1005F000D37070BD94F0000F0FD101F000464000A1
:1006000041EB010111F4801F08BF013CF7D041EA22
:10061000060195F0000F18BF704703F00046520026
:1006200043EB030313F4801F08BF013DF7D043EAF7
:100630000603704794EA0C0F0CEA135518BF95EAAD
:100640000C0F0CD050EA410618BF52EA4306D1D134
:1006500081EA030101F000414FF0000070BD50EA53
:10066000410606BF1046194652EA430619D094EADD
:100670000C0F02D150EA013613D195EA0C0F05D1C7
:1006800052EA03361CBF104619460AD181EA03011B
:1006900001F0004141F0FE4141F470014FF00000D3
:1006A00070BD41F0FE4141F4780170BD70B54FF06E
:1006B000FF0C4CF4E06C1CEA11541DBF1CEA1355EE
:1006C00094EA0C0F95EA0C0F00F0A7F8A4EB0504D0
:1006D00081EA030E52EA03354FEA013100F08880C7
:1006E0004FEA03334FF0805545EA131343EA126390
:1006F0004FEA022245EA111545EA10654FEA002645
:100700000EF000419D4208BF964244F1FD0404F5FD
:10071000407402D25B084FEA3202B61A65EB030559
:100720005B084FEA32024FF480104FF4002CB6EB16
:10073000020E75EB030E22BFB61A754640EA0C0096
:100740005B084FEA3202B6EB020E75EB030E22BFD6
:10075000B61A754640EA5C005B084FEA3202B6EB17
:10076000020E75EB030E22BFB61A754640EA9C00D6
:100770005B084FEA3202B6EB020E75EB030E22BFA6
:10078000B61A754640EADC0055EA060E18D04FEA64
:10079000051545EA16754FEA06164FEAC30343EA04
:1007A00052734FEAC2025FEA1C1CC0D111F4801FD1
:1007B0000BD141EA00014FF000004FF0004CB6E7CA
:1007C00011F4801F04BF01430020B4F1FD0C88BF69
:1007D000BCF5E06F3FF6AFAEB5EB030C04BFB6EB74
:1007E000020C5FEA500C50F1000041EB045170BD67
:1007F0000EF0004E4EEA113114EB5C04C2BFD4EB94
:100800000C0541EA045170BD41F480114FF0000E17
:10081000013C90E645EA060E8DE60CEA135594EA93
:100820000C0F08BF95EA0C0F3FF43BAF94EA0C0F96
:100830000AD150EA01347FF434AF95EA0C0F7FF40B
:1008400025AF104619462CE795EA0C0F06D152EA5F
:1008500003353FF4FDAE1046194622E750EA410643
:1008600018BF52EA43067FF4C5AE50EA41047FF454
:100870000DAF52EA43057FF4EBAE12E74A0011D206
:1008800012F5001211D20DD56FF47873B3EB6252EA
:100890000ED44FEAC12343F0004343EA505323FAF6
:1008A00002F070474FF00000704750EA013002D16B
:1008B0004FF0FF3070474FF00000704753B94AB90E
:1008C000002908BF00281CBF4FF0FF314FF0FF3058
:1008D00000F00CB8ADF1080C6DE904CE00F010F892
:1008E000DDF804E0DDE9022304B07047704700BF83
:1008F000034613F8012B002AFBD1181A0138704760
:100900002DE9F04786468C460846089E15467446F3
:100910001946002B40F0C2808542B2FA82F245D9D6
:100920004AB1C2F1200300FA02FC2EFA03F395400B
:1009300043EA0C0C94404FEA154EA8B2BCFBFEF8FB
:10094000230C0EFB18CC08FB00F943EA0C43994535
:1009500028D9EB1808F1FF3704D2994502D9A8F13C
:1009600002072B44A3EB0903A4B2B3FBFEFC0EFB6E
:100970001C330CFB00F044EA0344A04214D92C19A8
:100980000CF1FF3304D2A04202D9ACF102032C4493
:10099000241A43EA07401EB1D44000233460736038
:1009A000BDE8F0874746DDE76346F1E792BB431BAE
:1009B00001214FEA154EAFB2B3FBFEFC200C0EFB3B
:1009C0001C330CFB07F840EA0343984562D9EB1847
:1009D0000CF1FF3004D2984502D9ACF102002B444F
:1009E000A3EB0803A4B2B3FBFEFC0EFB1C330CFB11
:1009F00007F744EA0344A7424ED92C190CF1FF3300
:100A000004D2A74202D9ACF102032C44E41B43EA0E
:100A10000040C0E7C2F1200320FA03F19540904066
:100A20002EFA03F303434FEA154EAFB2B1FBFEFCBF
:100A30000EFB1C10190C0CFB07F841EA004188451D
:100A400004FA02F422D969180CF1FF3004D2884567
:100A500002D9ACF102002944A1EB08019BB2B1FB21
:100A6000FEFC0EFB1C110CFB07F743EA01439F42FF
:100A70000ED9EB180CF1FF3104D29F4202D9ACF130
:100A800002012B44DB1B41EA004192E76046E3E7A9
:100A90006146F7E76046A3E76346B7E7834206D9B6
:100AA00016B9002108467BE7C6E900E0F9E7B3FA8A
:100AB00083F78FB9834201D3724508D8BEEB020495
:100AC00060EB030301209C461EB9002168E738460D
:100AD000FAE7C6E9004CF8E7C7F1200CBB4022FA60
:100AE0000CF41C432EFA0CF120FA0CF3B84001432D
:100AF0004FEA14490EFA07F5B3FBF9F81FFA84FE22
:100B000009FB18300B0C08FB0EFA43EA00439A4528
:100B100002FA07F240D9E31808F1FF3004D29A45EF
:100B200002D9A8F102002344A3EB0A0389B2B3FB64
:100B3000F9F809FB183308FB0EFE41EA03418E4524
:100B40002CD9611808F1FF3304D28E4502D9A8F1DF
:100B50000203214443EA0040A0FB0298A1EB0E01EE
:100B60004145CE46434602D306D14D4504D2B9EBAA
:100B7000020E68EB04030138002EA6D0B5EB0E027E
:100B800061EB030101FA0CFC22FA07F34CEA0303C0
:100B9000F940C6E9003198E74046C5E74346D9E742
:100BA00038B500F06DF81C4B1C681C4B041B1C6016
:100BB0002046FFF7D7FB12A3D3E90023FFF74CFC35
:100BC00011A3D3E90023FFF771FDFFF757FE201AA9
:100BD000FFF7C8FB124B044618680D46FFF7D2FB1F
:100BE0000BA3D3E90023FFF737FC02460B46204650
:100BF0002946FFF77BFAFFF741FE38BDAFF30080CF
:100C00001C7C61325556C340000000000088C34080
:100C1000802D6ABFFB578441E0180020EC180020AB
:100C2000E8180020014800F0D1B800BFA4990000E6
:100C300038B500F049F80A2006F0B2FF0D4A0E4818
:100C40000E4D0D4C032107F084FE00F05FF9FFF715
:100C5000E9FFFFF7E7FF1E2006F0A2FF03212A4667
:100C6000204607F076FE00214FF4C03008F0E0FA8D
:100C7000EFE700BFAE990000B4970000C4990000F0
:100C8000044A13681BB104490B6801330B60002050
:100C900010607047E4180020E818002002488368BC
:100CA0004FF400415B6918474C9500000548036903
:100CB0001B681B0483684FF4004154BF1B69DB6849
:100CC000184700BF4C95000010B50F4C204608F0A7
:100CD0008AF908B9002010BD204608F084F90028E0
:100CE000F8D0204608F07FF90028F3D02269A168E7
:100CF000136823F4004313600B68044A0F21204655
:100D00009847C043C00FE6E74C95000010000A006A
:100D100010B40B460449024651F8040B8468246859
:100D2000A44610BC604700BF0000002010B4054975
:100D3000024651F8040B83681C680023A44610BCCB
:100D4000604700BF0000002013B5041E0DF107012D
:100D50004FF0D00018BF012406F03AFF9DF807308D
:100D6000A401A3420DD02146D02006F05CFF04462A
:100D700020B102460449054806F025FF204602B08E
:100D800010BD0024FAE700BFD7990000C497000007
:100D900008B5FFF7D9FF024618B10949094806F01E
:100DA00012FF06F056FF0021A02006F03CFF02468D
:100DB00028B1BDE808400449024806F004BF08BD58
:100DC000D7990000C4970000EE9900002DE9F04388
:100DD0008DB000AF40B9434A0121434806F0F1FE0F
:100DE0003437BD46BDE8F083404B0268404C1A6082
:100DF00042685A6002891A81206808F0F4F808B93C
:100E00003C4AE9E7E06818B108F0EDF80028F7D0AF
:100E1000FF233B7407F11008012307F1180907F1BC
:100E20002005C7E90893C7F81880FB612846FFF73B
:100E30007DFF024618B130492B4806F0C4FE002160
:100E4000422008F0F5F906F0DDFE44F22C63BB8089
:100E50009F2302243B8107F10C0607F10803C7E931
:100E60000454C7E906544946C7E90A643B627C62F8
:100E70004046FFF74DFF224605463146381D08F033
:100E8000A3FAC0B16C468AB0397B7B7B6A461B48AB
:100E9000D361C2E9050146232C21C2E908130623C8
:100EA00042F8103F104800234FF4415101F07CFC00
:100EB000A546134A90E7002DFBD106F0CAFE10218B
:100EC000B02006F0B0FE024618B10E49064806F002
:100ED0007AFE4020FFF75CFF0020FFF759FF0A4A27
:100EE00003217AE7069A0000C4970000F01A002058
:100EF000000000201C9A0000389A0000549A00005C
:100F00007E9A00008E9A0000A59A00002DE9F04715
:100F100000AF00F09DF80446184DDFF86490194AC0
:100F20000321284607F015FDD9F80030EA4688B0BD
:100F30001B686A4614494FF00308C2E905134FF4D1
:100F4000C65642F8108F00233146284601F02CFC8B
:100F5000D546D9F8003088B05B686A460B49C2E9CB
:100F6000051342F8108F00232846314601F01CFC7F
:100F7000B4FA84F04009BD46BDE8F0878C970000C4
:100F8000F0180020C49A0000DB9A0000E99A0000E3
:100F900010B4084B196800F11C020B4650F8044BC2
:100FA00043F8044B9042F9D1034B10BC186806F08B
:100FB000DEBD00BFF4180020F0180020B0B50D46CB
:100FC0005C1C11461A46083384B023F0070300AFB7
:100FD000ADEB030D684600F8015B08F0DFF9094945
:100FE000C7F800D00123C7E9014751F8040BFB60A3
:100FF000836807F108021C680023A0471037BD462C
:10100000B0BD00BF1800002010B58EB0CDE90C2394
:101010008DF807100DF10701069106A909930291B9
:101020000AAB0221CDE904310391084901200024D3
:10103000CDE90704CDE90A4051F8040B836802AA00
:101040001C6804ABA0470EB010BD00BF1800002004
:1010500030B589B01C4A1D481D4D032107F079FCAD
:10106000012307931B4B03931B4B049300231B4A41
:10107000029302A94FF400632846CDE905332A62A2
:1010800000F0FAF9044638B1154A1048032107F078
:1010900060FC204609B030BD0DF10701284600F084
:1010A000C9F8044648B99DF80720672A08D10D49B8
:1010B000064806F0DFFD0C4AE7E76FF00104E8E7B9
:1010C0006FF00204E5E700BFFF9A0000749700008C
:1010D0006801002009100000BD0F0000910F000002
:1010E000149B0000339B00004B9B000073B5012252
:1010F0002C490DF10703002405468DF8074000F048
:10110000E7FA0DF10703064627490122284600F0B9
:10111000DFFA6B690643C3B924490DF107030122C5
:10112000284606F075FE9DF80730204923F00C0391
:1011300004468DF8073001220DF10703284600F020
:10114000C7FA2043304302B070BD012B24D0022BDC
:1011500024D10DF1070301224FF0011128468DF82B
:10116000074000F0B5FA124904460DF107030122C9
:10117000284606F04DFE9DF807300D4943F0030365
:1011800004438DF8073001220DF10703284600F0D3
:101190009FFA34432043D6E70424DAE76FF00A00CD
:1011A000D1E700BF7C00010079000100360001009A
:1011B0003500010037B500238DF8073019490DF1CE
:1011C00007030122054600F083FA0DF107031649D3
:1011D00004460122284600F07BFA102313498DF8BB
:1011E000073001220DF107030443284600F070FA8E
:1011F00004434FF47A7006F046FD2846FFF776FF69
:101200000DF1070304430A490122284606F000FEB7
:101210009DF807302043102B18BF60F00B0003B07F
:1012200030BD00BF7C000100790001000200010018
:101230003A0001000B460122014906F0E9BD00BF5A
:1012400075000100F7B53F4F0E4601AB394602224B
:10125000054606F0DDFD32787378003A18BF0122AA
:10126000003B18BF0123DB0043EA82139DF80420F2
:1012700022F04E021343B278003A18BF012243EA2B
:101280008203F278003A18BF012243EA42038DF844
:1012900004309DF80530727923F00F03002A18BF3F
:1012A00043F001033279003A18BF012243EAC20336
:1012B000B279003A18BF012243EA4203F279003AB8
:1012C00018BF012243EA82038DF80530394601AB8D
:1012D00004460222284600F0FBF901AB0443012238
:1012E0002F21284606F094FD327A737A003A18BF0F
:1012F0000122003B18BF01239B0143EAC2139DF862
:10130000042002F007021343B27A003A18BF012208
:1013100043EA4213F27A003A18BF012243EA021369
:10132000327B003A18BF012243EAC20304438DF81E
:101330000430012201AB2F21284600F0C9F92043D7
:1013400003B0F0BD2B000100F7B53F4F0E4601ABD7
:1013500039460222054606F05BFD32787378003A82
:1013600018BF0122003B18BF0123DB0043EA8213B0
:101370009DF8042022F04E021343B278003A18BFC1
:10138000012243EA8203F278003A18BF012243EABD
:1013900042038DF804309DF80530727923F00F0375
:1013A000002A18BF43F001033279003A18BF012226
:1013B00043EAC203B279003A18BF012243EA42036A
:1013C000F279003A18BF012243EA82038DF8053012
:1013D000394601AB04460222284600F079F901ABF8
:1013E000044301223021284606F012FD327A737A36
:1013F000003A18BF0122003B18BF01239B0143EABA
:10140000C2139DF8042002F007021343B27A003A97
:1014100018BF012243EA4213F27A003A18BF0122B0
:1014200043EA0213327B003A18BF012243EAC203A7
:1014300004438DF80430012201AB3021284600F02E
:1014400047F9204303B0F0BD2D00010013B5012280
:1014500008490DF10703044606F0DAFC38B99DF897
:10146000073004F5805403F0100384F8453002B0CF
:1014700010BD00BF35000100F0B50C4687B017461F
:10148000002141F25802054607F096FF002C00F0BB
:10149000D4806368002B00F0D080A368002B00F09C
:1014A000CC800FCC2E460FC694E8030086E80300DC
:1014B0000021632007F0BCFE2F6200272F7728460B
:1014C000FFF714FE06465E4A034603215D4807F017
:1014D00049FA5D495B4806F0D2FB2846FFF76AFEF1
:1014E00006435A4A57483346032107F03BFA284639
:1014F00006F0B2FC0643564A52483346032107F031
:1015000031FA2846FFF7A2FF0643524A4D483346B8
:10151000032107F027FA50494A4806F0B0FB284655
:1015200006F0B3FB08210446284606F0E5FB0DF162
:1015300007034A4904430122284606F069FC9DF846
:101540000730464923F0020343F002038DF80730C9
:1015500004430DF107030122284600F0B9F80DF10C
:1015600007033E4904430122284606F051FC9DF83A
:1015700007303A4923F0010343F001038DF80730A7
:1015800001220DF107030443284600F0A1F8344B73
:101590000297CDE9033702A90127044328468DF8B5
:1015A0001470FFF74FFE0DF107033A462B49044331
:1015B000284606F02DFC9DF80730284923F0080343
:1015C00043F008033A468DF8073004430DF1070352
:1015D000284600F07DF802A904432846FFF7B4FE30
:1015E0000DF107033A4604430221284606F010FC99
:1015F0009DF807303B438DF8073004430DF1070396
:101600003A460221284600F063F804433443154A61
:101610000C482346032107F0A5F91349094806F0B1
:101620002EFB05F582554FF0FF320023C5E902235A
:10163000C5E90423204607B0F0BD4FF0FF34F9E7B9
:101640006C9B0000949700007E9B0000979B00001D
:10165000A99B0000BB9B0000CD9B00000600010081
:1016600000010101E79B0000F99B000073B50546EE
:1016700040B3067F012E0DF1070317D113493246FF
:1016800006F0C6FB9DF80730104923F0100304460E
:101690008DF8073032460DF10703284600F018F8A0
:1016A00020432B7F013B2B7702B070BD07490122FD
:1016B00006F0AEFB9DF8073013F0100F08BF4FF097
:1016C000FF30EEE76FF00A00EEE700BF1F000100F9
:1016D0002DE9F04F87B0884601929A4604460028CB
:1016E00076D09B4613460B4402930E460027029B7E
:1016F000B34208F480320CD13AB1019A53465FFAF2
:1017000088F1204606F028FB0743384607B0BDE8BD
:10171000F08F314B9E4249D03CD8002E49D0013B3E
:101720009E423DD092BBC6F3072320468DF817306A
:1017300000F056F89DF81730814643B10DF11703BC
:1017400001227921204606F007FB49EA00090DF144
:10175000160301227A2120468DF8166006F0FCFA65
:101760005B4601227B210546204606F0F5FA0390F0
:1017700006F007FB9DF81730F3B9039845EA090511
:1017800005432046FFF772FF284307430BF1010B87
:101790000136ACE7114B9E42C4D104F11A0301E0BB
:1017A00004F118039BF800101970BBE704F119034A
:1017B000F8E704F11B03F5E700238DF8163001224A
:1017C0000DF116037921204606F0C6FA0546D8E742
:1017D0006FF00A0799E700BF200001002100010017
:1017E0002DE9F341054600284AD0037FCBBB2749AA
:1017F0000DF10703012206F00BFB9DF8073023498A
:1018000043F0100304468DF8073001220DF1070361
:101810002846FFF75DFF04431FD106F044FBDFF8C5
:10182000708006460F460DF1070301224FF4803108
:10183000284606F0EDFA044678B906F034FB801B22
:1018400061EB0703804574EB03031CD39DF807305D
:101850001B07E8D52B7F01332B77204602B0BDE86C
:10186000F0810DF107030949012206F0D1FA9DF834
:10187000073013F0100F14BF04464FF0FF34E9E7B0
:101880006FF00A04E9E76FF00304E6E71F000100C8
:1018900040420F002DE9F04F91B08407009302F011
:1018A00004030293C2F3C20303F10103DDF868806D
:1018B000039205460E46059340F0BA81041D30B1EF
:1018C000072909D86FF01B0011B0BDE8F08F01F0B7
:1018D00007063444C6F10806009B4FF00009591E64
:1018E0004FF0040A4FF0FF330193CDF810904F46AC
:1018F000CB4653460DB1009A22600598002800F3AC
:10190000E8809848009A824203D397488242C0F008
:10191000E080039AA4EB050E92074FEA9E0000F1C7
:1019200003810F2F00F2B180002D00F0058107F137
:1019300040020DEB020C019A0CF8200C0CF8102C54
:10194000049801300490E7E07A285DD84B280ED83F
:10195000472859D829282DD8252852D054D82028AE
:101960007AD02338D0F1000B4BEB000B74E04C38ED
:101970002E2849D8DFE800F07048484848484848D1
:10198000484848484B484848484848484859484BC0
:101990004B595959704B6D487048184B184848823C
:1019A0007F4B48484B487F0000204FF0000B4FF022
:1019B000040A38E02A38C0B2012202FA00F010EA24
:1019C0000E0F49D110F0625C2FD110EA020B43D008
:1019D0006046013C5444B4FBFAF40AFB04F4002DC5
:1019E00061D0A3EB050CA444B4453FF66BAF0028CF
:1019F00068D1042B47D158F8043B236004340423F6
:101A00002AE0019A013A01924FF0000B24E011F80C
:101A1000010C6C2834D111F8023C00206C2B834659
:101A2000C5D14FF0080A5346D3E708F1070828F05C
:101A300007080734F8E802AB24F0070435B106982C
:101A40002044B0423FF63EAFC4E900AB08344FF04B
:101A5000000B4FF0080A534611F8010F002878D008
:101A6000BBF1000F7FF470AF2528F5D1019B013346
:101A700001934FF0010B4FF0040AECE7584694E74E
:101A800000208346A5E7082B02D06FF015001BE766
:101A900008F1070828F00708F8E80223C4E9002342
:101AA00008340823D8E768B9042B02D108F10408E8
:101AB000A4E7082BE9D108F1070828F0070808F186
:101AC0000808EDE7059A013A059258F8042B0092B0
:101AD00010E7039A900720D5A4EB050E4FEA9E006D
:101AE0004FF0010CBEF5007FCFD20F2FCDD8F5B14E
:101AF00007F140020DEB020EC0B2019A0EF8200C65
:101B00000EF8102CBCF1000F3FF41AAF60F07F000C
:101B10000EF8200C09F101090137C5F1080204345F
:101B200006924FF6DA7E97E74FF0000CDAE7BCF149
:101B3000000F01D00136EFE7029802360028EBD102
:101B40000098CDE90631FEF7D3FEDDE90631064403
:101B5000E2E7631BB3F5806F97D23DB9A6F10804A5
:101B6000E018B1E6D49400000CA60000029A2860A8
:101B70009B082B709DF81030C2B1EB7085F8029075
:101B8000B9F1000F05D008A80022C5F1010C974259
:101B90000ED1C5F101030DF120084FF0000A0193A9
:101BA0000DF1300B574512D1601B8DE66B70E5E7E8
:101BB00010F8013B190608D50CEB040EB64503F0EE
:101BC0007F033FF67FAE04F8013B0132DFE7B9F156
:101BD000000F03D098F90020002A17DB029BD3B135
:101BE0001AF80B2004F8012B0022019B181910444D
:101BF000B0423FF667AE98F8000004F8010B009978
:101C00000392204607F0CAFB039A14440AF1010A22
:101C100008F10108C6E798F8002055F82230009333
:101C2000029B45F822300098FEF762FE421CDCE77A
:101C30006FF00D0048E600BF2DE9F04F97B000AF00
:101C400090F802A0D7F880B03B62CBF3C003044603
:101C5000FA62BB61894641B9457800780AEB800099
:101C600020444D4517D8A0EB0409E378FB61BAF195
:101C7000000F02D01BF0010F16D1FB6953BBFB6AAA
:101C80001BB13A6A4946204698474D4628465C377C
:101C9000BD46BDE8F08F461C3046FEF729FE0130F8
:101CA000304409F10109DCE7237862687A62FA6A54
:101CB0009900796104EB8301002A40F000814D46D0
:101CC0000E4601EB0A094FF000084E454CD101EBDE
:101CD0000A0610E01BF0020FD1D023789A007A6137
:101CE00062687A62FA6A04EB8301002A77D14D4672
:101CF00001EB0A0690461BF0050F0CBF02230123DF
:101D0000FB62FB6906EB430A0BF00203BB6256451C
:101D1000BCD016F8021B16F8013C54F82390994BDE
:101D2000994502D3984B994536D3BB69002B40D0D7
:101D3000786A06F0D1F900283BD0E9468AB06A46B5
:101D4000924B53617B6AC2E906314FF400731384EE
:101D50008F4B42F8103F8F4800234FF4125100F090
:101D600023FD023DCD46D2E716F8013BF96254F857
:101D70002300FEF7BDFDD7F88430F96A01304BB17E
:101D8000D7F8883098453EBFD7F8843023F818003C
:101D900008F10108054498E7BB6923B1786A06F0A9
:101DA0009BF90028C9D11BF0010F05D1FB6AED1A80
:101DB000ADE7BB6A002BAAD04846FEF799FDD7F8DD
:101DC000843053B1D7F8883098453FBFD7F8842086
:101DD000431C22F8183008F10108054497E7BAF1CE
:101DE000000F72D01BF0040672D0D046002607F117
:101DF000480052463B61B96207F0D0FAB96A3B69C4
:101E000001EB0A02BA62FA69F9695200FA60BA6A29
:101E100002EB41023A610BF00202BA603A69B96A18
:101E20008A4257D162787A621BF0020F32440CBFAB
:101E30004FEA580100211BF0010FD2B240F09F8001
:101E40001BF0040F14BF40460020BB616270A070FD
:101E5000E1703A6A7969FB6A20469847051EFFF6E9
:101E600015AFBB6923707B6A6370FB69E370414601
:101E70003A6AFB6A84F802A007F148009847B0F17B
:101E80000008C0F2BB807B693A6AA9EB0A01C91A53
:101E9000FB68C91AD7E90A0398470028C0F2B08046
:101EA000A84408EB00054FF0000B07F1380AB345D2
:101EB00072D300213A6AFB6A08469847E6E656461E
:101EC0004FF0000807F1380093E75646D04697E7F1
:101ED000B04695E7BA6A12F8021BBA6212F8015CC2
:101EE000284A54F82500904202D3274A90421ED334
:101EF000BA6932B1786A7B6006F0EEF87B68002838
:101F00008CD1BA6802BB08F1280207F1300C08F145
:101F10000100944407F1580252FA80F008F10208D7
:101F20000CF8101C5FFA88F800F8105C76E7BA69C4
:101F30003AB1786A7B6006F0CFF87B6800287FF4BE
:101F40006DAF1BF0010F09D006F1280207F1300038
:101F5000711C161806F8205CCEB25FE71BF0040F68
:101F60003FF45CAF08F1280207F1300008F10101ED
:101F700002EB000808F8105C5FFA81F84EE70020D9
:101F800063E700BFD49400000CA60000339C00005F
:101F9000040000017C9700001BF80A3087F83730F6
:101FA00054F82390D7F884302BB3D7F888309B456A
:101FB00021D2D7F8843033F81B803A6AFB6A0121BA
:101FC00007F13700984700281ADB0544B8F1000FE5
:101FD00006D14846FEF78CFC00F101081FFA88F88C
:101FE0003A6AFB6A414648469847002808DB0544A0
:101FF0000BF1010B5BE74FF00008DEE7454645E6D5
:10200000054643E6014B1860704700BF30000020D2
:1020100080B505460E461746984604F0D1FF0346A4
:1020200007F04EFADFF81890044649F800304246AF
:1020300030463946A84754F8090001F0A7F900BF17
:10204000080000002DE9F047058B0446280790465C
:1020500011D4022905F0070540F0CC80204606F097
:10206000D9FA78B10138218B042811D8DFE800F0C3
:10207000C2106D85950001290CBF45F0100545F093
:102080002005258388F31188BFF36F8FBDE8F087A3
:1020900001F0070AAA4500F0A5800027B9463E4690
:1020A000A368002B00F0BC8041F00801218388F375
:1020B0001188BFF36F8FA168002900F0BA800D6806
:1020C000002900F0B680D1F80480334652462046FD
:1020D000C047002D76D02B6829461D46F0E701F059
:1020E00007035A1F012A1BD8002221F00701062BE3
:1020F000276889B2C4E9002209D13B4603E0628B1C
:10210000013262831B68002BF9D141F00201218367
:10211000204606F07FFA00287AD041F0200176E0D0
:10212000042B0AD121F0070189B22183204606F051
:1021300071FA10B141F020012183218B01F0070ACF
:10214000AA454FD00027B946AAE7236921F0070125
:1021500041F00601062DD3F8009021832DD1B9F16D
:10216000000F3FD041F00801218388F31188BFF3AD
:102170006F8F3A492046C84729E021F007012369BB
:1021800041F0040189B2042DD3F804902183E6D0F4
:1021900000273E464FF0040A82E721F00701236939
:1021A00041F0050189B2052DD3F808902183D6D0DE
:1021B00000273E464FF0050A72E700273E464FF0E3
:1021C000060A6DE72B4687E7B9F1000FD1D1EFF38F
:1021D0001188202383F31288BFF36F8F238B23F0A2
:1021E00008032383258BEA062ED525F010032383CD
:1021F00005F007056669218B002EBFF670AF00233E
:102200002768C4E9003321F0070141F0010121836F
:10221000218B01F0070AAA454FF000097FF440AF77
:10222000002F9CD041F00801218388F31188BFF36F
:102230006F8F002FC8D03D6839463346524620463E
:1022400006F014FA2F46F4E7AB067FF51BAF25F036
:102250002003238305F0070500E700BF99860000EF
:102260002DE9F047DFF85880044607464FF0010992
:1022700014B93846BDE8F08794FAA4F5B5FA85F5A7
:1022800009FA05F32E0108EB05156FEA030A24EAA3
:1022900003042B7B002BEBD058F806301B694BB99D
:1022A0004644042273682846196807EA0A0706F0BC
:1022B000E1FADDE7284698470028D9D1F0E700BFCA
:1022C000EC97000030B51049104889B0002207F0A3
:1022D0003DF80F4D0F4900220023CDE906230024CD
:1022E0000E23CDE90334CDE901440B4B00944FF4A8
:1022F0004072284604F086FB0849284606F002FF93
:10230000204609B030BD00BF212300004816002040
:10231000C0110020081B00204D260000E79C000093
:10232000014804F055B900BF580100202DE9F047DD
:10233000804621480F4606F07DFA0646002833D035
:1023400000252846BDE8F087237B83B12368DB683E
:102350000BB120469847636883F8069023681B6991
:10236000D3B9636804221968204606F083FA01365F
:1023700010345445E8D3B8F1000FE2D0002DDFD07F
:102380002846FFF76DFF0546002FF7D000214FF4D8
:10239000A47006F04DFFF1E7204698470028E0D0F2
:1023A00009FA06F31D43E2E7044CDFF814A00546E2
:1023B0004FF00109DDE700BF08190020EC9700008D
:1023C000FC970000014B53F8200070471C98000058
:1023D00008B5034608462BB1044A136000F07AFCA6
:1023E000002008BD6FF01500FBE700BF340000209F
:1023F00010B5044C237813B9034804F0E9F801231D
:10240000237010BDFC1A00205801002010B50446AE
:102410000B4806F00FFA5CB1BFF35B8F094B53E832
:10242000001F013943E80012002AF8D1BFF35B8F87
:10243000054806F097FF0548BDE8104004F0C8B80D
:10244000001900200419002048160020580100201F
:102450000020064BBFF35B8F014653E8000F43E8B3
:102460000012002AF9D1BFF35B8F704700190020DA
:1024700070B5FFF7EDFF084C084E0546B44200D397
:1024800070BD63685B792BB123685B6813B1294623
:10249000204698471034F1E7EC970000FC970000C5
:1024A00010B5044C0449204605F04DFF034B1C6059
:1024B00010BD00BFE400002008980000F8180020BC
:1024C0000D4A0E48002310B513700D4A13600D4AD3
:1024D0004FF400411360FFF77BFFFFF7E1FF0A4B6A
:1024E0000A4918468B4200D310BD1A1A5C681211B3
:1024F000013222711033F5E7FD1A00203188000007
:102500000019002004190020EC970000FC9700003F
:10251000014600220148002305F036BFE4000020F8
:10252000014805F0CFBF00BFE4000020024B014688
:10253000186806F01BB800BFF8180020014806F024
:1025400050B800BFE400002070B5294B187800286F
:102550004DD0FFF7E5FF0546002845D1254B264C19
:102560001B68002B19DD06F0EFFE4FF47A72A0FB1A
:10257000020302FB0131C30BD4E9002043EA4143CB
:102580009B1A4FEAD13140F2E93261EB00019342EC
:1025900071F1000101D3FFF76BFFD4E9003213F5AD
:1025A0007A7342F10002C4E90032BDE87040FFF7DF
:1025B000C5BF63685B7923B1236829461B68204641
:1025C00098471034B442F4D32846FFF7AFFFBFF367
:1025D0005B8F0A4B53E8001F013943E80012002AC1
:1025E000F8D1BFF35B8FB9E7054C064EEAE770BD43
:1025F000FC1A0020001900204016002004190020B9
:10260000EC970000FC97000070B50D4D297861B97A
:102610000120FFF78BFE0B4C0B4EB44206D3FFF7A5
:1026200093FF0028FBD101232B7070BD63685B7999
:102630001BB1236820469B6898471034EDE700BF24
:10264000FD1A0020EC970000FC97000000212DE906
:10265000F0470846FFF76AFE044658B340F2676841
:102660004FF0000906F02CFF1B4B1C4A1B5813604F
:1026700033B11B4B1B68092B02DD1A4803F0A8FF7E
:10268000194FDFF860A0002544B12046FFF7E8FDB0
:10269000044618B94FF0FF384FF0FF39FFF754FFE9
:1026A000064628B9B5B942464B46504603F0C4FF2A
:1026B0003546E9E74FF0FF384FF0FF39D2E72B6896
:1026C0009B691BB100221146284698471035BD4230
:1026D000F5D3E8E7054DFAE708000000FC180020F4
:1026E0000419002058010020FC970000EC9700001E
:1026F00013B5184806F09EF8174B1B7873B1EFF32B
:102700001184202383F31288BFF36F8FFFF71CFF20
:1027100084F31188BFF36F8F02B010BD0F4B1B689D
:10272000002BF9D050B900220023CDE900230C483A
:102730004FF40042002304F041FFEDE70928EBD1FC
:10274000074806F00FFE074802B0BDE8104003F04E
:102750003FBF00BF04190020FD1A0020FC18002014
:10276000481600205801002010B5064B1B6804468F
:1027700098472146A060044805F085FEBDE810405A
:10278000FFF7B6BF34000020E4000020044A054BE8
:102790009B1AB1EBD30F34BF52F8310000207047C1
:1027A00074970000EC9700002DE9F04F8FB004AF54
:1027B000C1F34A28B8600D4691467B600C0DB8F114
:1027C000000F63D0002607F114034FF0040B4FF005
:1027D0000A0AC7F80C80C7E907667E620193CDF844
:1027E00008B0CDF800A007F11C03F968324648464E
:1027F000FFF722FAB0F5006F03461CD36C468AB08F
:10280000D9F8041004AB2648C3E9050140F2FF7172
:10281000D9611A464FF400711984224B42F8103FD7
:10282000214833464FF41251FFF7BEFFA5462C371F
:10283000BD46BDE8F08FC0F30A0804F11700184444
:1028400020F0070080083B60FFF762FE68F3532525
:10285000044690B13B68154AC7E9083600F11001FB
:1028600007F11403F961CDE900A3CDF808B0F968C8
:1028700007F11C034846FFF7DFF968F353257B682F
:10288000B9682A46204606F014F8D0E704F117008C
:1028900020F007008008FFF73BFE0446EDE700BF8D
:1028A000FC9C0000040000019C9700008788000049
:1028B0002DE9F04F87B0DDE91279DDE9105A0446C1
:1028C000039193469846BFB1CDF800903B465246DF
:1028D00010210020CDF81490FEF7DCFFB0F5006F5A
:1028E00006460AD3184A194840F2FF73022107B07E
:1028F000BDE8F04F06F036B83E4605F1170030440B
:1029000020F0070004F007048008FFF701FE0BF039
:10291000070BE40044EA8B1444EA462444EA0554D5
:10292000054640B13FB1CDF800903B465246314696
:102930001030FEF7AFFF039943462246284607B002
:10294000BDE8F04F05F0B5BF3B9D00009C9700002F
:10295000406820B1034BC01A40F3CF0070474FF0DE
:10296000FF307047749700000EB403B503AB014607
:1029700053F8042B0448019300F068FF02B05DF89F
:1029800004EB03B0704700BFAF890000CA0605D44E
:102990008B064CBF02490349FFF7E6BF704700BFF3
:1029A0007C9B00007B9B00002DE9F04F89B09B468B
:1029B000149B06939DF84CA0159B0593169B179EA0
:1029C000049304460D469046BAF1000F00F09D8036
:1029D00006F48073079305F04BFF06F002090246E8
:1029E00000283ED091492046FFF7BEFF0746B9F1C7
:1029F000000F08D016F0440F35D18D492A462046E5
:102A0000FFF7B2FF074406F0010353B1894B8A492F
:102A100053F82A20894B2046002A08BF1A46FFF7A0
:102A2000A3FF06F48073002B49D006F00803002BA7
:102A300063D1B8F1000F66D0814942462046FFF7C6
:102A400093FF0546069B3D44002B6DD1049B002B54
:102A500073D1F30700F1E48031462046FFF796FF7B
:102A6000D8E00746C3E7774B18680028CAD0764BF2
:102A70004FF47A791B68B5FBF3F54FF46163B5FB4E
:102A8000F0F100FB115509FB05F54FF03C0CB1FBD3
:102A9000F3F203FB1211B5FBF0FEB1FBFCF300FBFC
:102AA0001E550CFB131109FB05F50091B5FBF0F564
:102AB0006649CDE901E52046FFF756FFA2E706F09B
:102AC0000803EBB1624B634953F82A202046FFF715
:102AD0004BFF0546B8F1000F05D059494246204644
:102AE000FFF742FF0544BBF1000FABD05A495A46ED
:102AF0002046FFF739FF0544A4E74FF0000BE1E75C
:102B000006F00805E6E745469CE7BBF1010F069B8A
:102B100006D1002B64D1049B002B7BD000250CE058
:102B2000002BF8D04D485CE04D48069B4D492246AD
:102B300005F0A1FA049B002B68D0DFF82C81DFF8A8
:102B40002C91049F3146102F204628BF1027FFF7F5
:102B50001DFF4FF0000B5D4545DC059B49461A788B
:102B60002046FFF701FF4FF0010B1BF0070F03D1C9
:102B700041462046FFF7F8FE5F453BD9059B494695
:102B800013F80B202046FFF7EFFE0BF1010BBBF112
:102B9000100FEAD1364920464FF0000BFFF7E4FE54
:102BA0005A46059B9A5CA2F120015F2928BF2E227C
:102BB00030492046FFF7D8FE0BF1010BBBF1100F97
:102BC0001DD01BF0070F03D141462046FFF7CCFE76
:102BD0005F455A46E5D841462046FFF7C5FEEBE77C
:102BE0001F485546A1E741462046FFF7BDFE0BF1C1
:102BF000010BB0E720492046FFF7B6FEC5E7059B6D
:102C00003B440593049BDB1B04939AD1BAF1000F5C
:102C10007FF41FAF204609B0BDE8F04F05F0BABE03
:102C2000064A05492046FFF79FFE15E7789D0000FC
:102C30007C9D00002C980000F8A30000739D00000C
:102C4000A19D0000101900200C190020859D000096
:102C500040980000A59D0000AB9D0000E5890000A4
:102C6000AF8900004D380000B89D0000B09D000005
:102C7000BA9D0000BC9D0000B69D000073B542F2F5
:102C80000F738B4228BF0B4605680F4A0446052187
:102C9000684604F0E3FC63680C495B6806460B2257
:102CA000284605F069FE63683246694628465B6837
:102CB00005F062FE636806495B681B22284605F042
:102CC0005BFE02B070BD00BF039A0000DB9D0000F8
:102CD000BF9D0000074A00210123904206D8064A02
:102CE00001B901231360054B1860704740085B0071
:102CF0000121F2E740420F000C19002010190020BA
:102D0000F8B5074F0D4604464618B44201D128468F
:102D1000F8BD14F8011BBB6801485B689847F4E7ED
:102D20006C950000014B03600020704788980000FC
:102D300008B5044805F0F7F9BDE80840024805F079
:102D4000F2B900BF219E0000569E00002DE9F04719
:102D5000064600AF0C46002936D0E9468AB0D1E9D4
:102D60000012A3686D462148A8464FF0050AC5E940
:102D70000501C5E9072348F810AF1D484246002366
:102D80004FF42151FFF710FDCD46D4E903126369DA
:102D9000AD461848C5F810A0C5E90501C5E90723E7
:102DA0001348002342464FF42151FFF7FDFCCD4666
:102DB000E369114A0E48012105F0D4FDA3690F4AC9
:102DC0000B48012105F0CEFD012E07D1EFF305835D
:102DD0000B4A0748103B314605F0C4FD21463046FA
:102DE00003F098F9BD46BDE8F08700BF849E00005F
:102DF000CC970000B39E0000E29E0000F19E000010
:102E00001F9F000030BFFFF7FDBF00BF2DE9F0415D
:102E10000B4EDFF8308006EB0807CC1B0546324628
:102E20000949204606F0BAFAA01942460021083C9A
:102E300006F0C2FA2C6707F10800BDE8F08100BF78
:102E40000000000004000000FC970000054B5A69D8
:102E50009B689A421FBF044A536843F080535360F3
:102E6000704700BFBC1A002000ED00E070B52A4C8E
:102E700006460D4629482A4905F03BFEA36ADB06B3
:102E800047D52648274905F034FE1120A36A1C07C0
:102E900004D52248244905F02CFE12201E4CA36ABA
:102EA000990712D521491D4805F023FE636BA26ADC
:102EB000120609D51E4A1948012105F053FD1EB11D
:102EC000A36A23F08003A3621320134CA36ADE07D6
:102ED00004D51248174905F00CFE1420A36A9C067D
:102EE00004D50E48144905F004FE15200A4B9A6AD1
:102EF000D10658BF9A6A9A6A920642BF5A6A22F469
:102F000000525A629A6A42F0FF029A6200232B70C2
:102F100070BD1020BAE700BF00ED00E0CC970000C4
:102F2000329F0000489F00007B9F00008E9F0000A2
:102F3000A69F0000BC9F0000DB9F000010B5204C46
:102F40002049214805F0D5FDA36A990136D51E48D0
:102F50001E4905F0CEFD1E20A36ADA0104D51A48E9
:102F60001B4905F0C6FD1F20154CA36A1B0304D5A1
:102F70001548184905F0BDFD2120A36A590304D561
:102F80001148154905F0B5FD22200D4CA36A9A039E
:102F900004D50D48114905F0ACFD2320A36ADB03DD
:102FA00004D509480E4905F0A4FD2420044A936A7B
:102FB0006FEA03436FEA1343936210BD1D20CBE712
:102FC00000ED00E00AA00000CC97000022A0000065
:102FD00035A000004FA000006DA0000092A00000EE
:102FE000ACA0000070B5294C06460D46284829497A
:102FF00005F07FFDA36AD9043CD52548264905F094
:1030000078FD1720A36A1A0504D52148234905F045
:1030100070FD18201D4CA36A9B0512D51C48204941
:1030200005F067FDA36BA26A100409D51D4A184874
:10303000012105F097FC1EB1A36A23F40043A362AB
:103040001920124CA36A590504D51148164905F0F8
:1030500050FD1A20A36ADA050ED50D48134905F074
:1030600048FD1B20094A936A43F47F43936200237F
:103070002B7070BD1620C5E7A36A9B04F2D50448E7
:103080000B4905F036FD1C20ECE700BF00ED00E029
:10309000CC970000D7A00000EDA000007B9F0000AF
:1030A000FEA0000017A100002CA1000047A1000015
:1030B000DB9F00002DE9F041654B8AB0D3F8048016
:1030C00000AF0446C8F30805002686F31188BFF355
:1030D0006F8F02F07F43B3F17F4F07D102F00C03F3
:1030E000082B12D15B495C4805F003FD00263446ED
:1030F0000023FB71EB1E092B00F28980DFE803F04F
:103100000A7F827B87878787878510074CBF0C469D
:103110000126EDE7514950484D4D05F0EAFC0023EA
:10312000FB71EB6A9A0705D54D494B4805F0E1FC68
:10313000002331E0EB6A002B01DA4A49F5E7EB6A3C
:103140005B00F5D54849444805F0D3FC6B69A2699A
:1031500043F480736B61BFF34F8FBFF36F8F6B6965
:1031600032F8022C23F480736B61BFF34F8FBFF3EF
:103170006F8F4DF602739A4207D0AB6ADBB26BB326
:10318000F91D0120FFF772FE37E02368374A324805
:10319000012105F0E7FB2368FA79DAB907F10805A0
:1031A00004F1200C206861682A4603C20834644593
:1031B0001546F7D17A6A002E45D0C2F3080121B92D
:1031C0006FEA52226FEA42227A6207F1080118463A
:1031D000FFF7BCFD2837BD46BDE8F081AB6A13F4AC
:1031E0007F4F04D0F91D0120FFF7FCFE05E0AB6A1C
:1031F000B3F5803F9CD3FFF7A1FE0346CCE7F91D52
:103200000020BFE7F91D0020EEE719498DE7194AB4
:10321000194B18F4F87FE8468AB018BF13466A467F
:103220001649C2E905134FF400731384103D144B83
:10323000D56142F8103F084800234FF41151FFF7C1
:10324000B3FAC54674E722F4FF7222F00102BBE72D
:1032500000ED00E08DA10000CC970000B8A10000B7
:10326000CFA10000F0A10000FEA100001DA20000FF
:1032700039A2000074A100005FA100005DA200005F
:1032800004000001044B5A6942F010025A615A6965
:1032900022F008025A61704700ED00E0EFF3088069
:1032A000EFF3098101B57246FFF704FF01BD00BFCE
:1032B000002080F31488BFF36F8F0F4880F30888D5
:1032C00001F016FF00200D490860BFF34F8F00F09A
:1032D0002BF8202080F3118809484FF40061401832
:1032E00080F30988EFF314800221084380F31488E7
:1032F000BFF36F8F00F0F2F8482B002094ED00E050
:10330000081E00200749D1F890200023C2F30722AD
:103310001846934200DB7047C1F89830C1F8A0000E
:103320000133F6E700ED00E008B572B6002383F341
:103330001388FFF7E7FF144B4FF0FF32C3F88020EC
:10334000C3F88420C3F88820C3F88C20C3F89020E9
:10335000C3F89420C3F89820C3F89C20C3F88021B8
:10336000C3F88421C3F88821C3F88C21C3F89021C5
:10337000C3F89421C3F89821C3F89C2162B6BFF327
:103380004F8FBFF36F8F08BD00E100E0084B9B68D3
:1033900083420BD1EFF3058343B1064B5A6842F0E9
:1033A00080525A605A6A22F400425A6203F00EBEFA
:1033B000BC1A002000ED00E011498A684FF030008F
:1033C0001044EFF3098C80E8F01F202080F312886E
:1033D000BFF36F8F0B4F4FF000664A698A603E6003
:1033E000106F094C2060506F0023536780F31188E1
:1033F00002F1300090E8F01F8CF30988704700005C
:10340000BC1A002004ED00E0381900201EF0040F63
:103410000CBFEFF30880EFF30980816911F8021CFB
:103420000229FFD001B5724605F058FB01BD00BF6F
:1034300040B2002807DB044A4109012300F01F00C5
:10344000834042F82130704700E100E040B200289C
:103450000CDB4309064900F01F00203301228240A3
:1034600041F82320BFF34F8FBFF36F8F704700BF2A
:1034700000E100E0054B420900F01F0053F8222054
:10348000012303FA00F01040704700BF00E100E0A4
:1034900040B20028A8BF00F1604001F10101B8BFAF
:1034A000064B4FEA4111ACBF00F5614000F00F0040
:1034B000C9B2B4BF195480F80013704714ED00E08E
:1034C000044B054A23F07F039360BFF34F8FBFF394
:1034D0006F8F70470000000000ED00E008B5FFF7B7
:1034E000EFFF074AD2F8883023F47003C2F888301F
:1034F00002F0FCFE03F09EFE00F042F802F036FF00
:1035000000ED00E042F8203C009B42F81C3C0A49D8
:10351000019B42F8183C029B42F8143C21F0010147
:103520004FF0807342F8043C42F8081C0023203A14
:1035300002654367704700BF1120000000B5094BCA
:103540009860094B1546026F1A600E462C4686F3AA
:1035500009880020054B98472046002100220023BF
:10356000034C2047BC1A002038190020038B0000B0
:1035700011200000014B10221A61704700ED00E09D
:10358000044800232021C2180133272B82F800139E
:10359000F9D1704700E100E008B5EFF30583064A72
:1035A000103B02EBC30152F8330049688847BDE87D
:1035B0000840FFF74BBC00BFCC950000024B034A0C
:1035C0000348012100F07AB800000120000000202B
:1035D0008898000008B503461048D0F89020C2F340
:1035E0000722013A934207D90D480E4A012105F0FE
:1035F000B9F96FF0150008BDC0F898300A6822F0DC
:103600001F021A4342F01002C0F89C208A6842F060
:103610000102C0F8A0201846EDE700BF00ED00E071
:10362000BC97000074A20000F0B50E4685B01F469E
:1036300004460025B5420DDA606810B397B1431E09
:1036400018420AD0104A11482B46012105F08AF988
:103650006FF01502104605B0F0BD1F28F2D92168A1
:103660000B42EFD12368019305F06EFAA36801A91C
:103670000343D0B20393FFF7ADFF10F1160FE7D06D
:10368000421C01350C34D5E79AA20000BC9700001B
:10369000044B0522C3F89420BFF34F8FBFF36F8F05
:1036A000704700BF00ED00E0BFF35F8F024B0022C8
:1036B000C3F89420704700BF00ED00E010B5034C44
:1036C00001232278FFF7B0FF207010BDFF1A002001
:1036D0002DE9F04357485849D0F890300D68C3F3AE
:1036E00007239D4285B000F2A180FFF7DDFF496806
:1036F0000022954201F10C011AD1504C504F257017
:103700006846FFF70FFBDFF83C81DFF83C91064687
:103710000025AE421FD1237846490020D1F89020E1
:10372000C2F3072293427BDBFFF7B2FF00204CE09D
:10373000C0F8982051F80C3C23F01F03134343F0CA
:103740001003C0F89C3051F8043C43F00103C0F86A
:10375000A0300132CDE7009800EB05114FEA051CBF
:10376000CB683B40B3F5000F44D00AD8B3F5001F37
:103770002ED0B3F5800F34D0B3F5801F10D00135B3
:10378000C7E7B3F1807F3ED0B3F1007FF7D150F8A7
:103790000C3088684A6805F0D7F940F4802009E0C9
:1037A00050F80C3088684A6805F0CEF940F088502F
:1037B00040F43020039001A92078CDE90123FFF7E0
:1037C00009FF002828DA6FF0150005B0BDE8F08386
:1037D00050F80C3088684A6805F0B6F940EA0800ED
:1037E000E8E750F80C3088684A6805F0ADF940EA1F
:1037F0000900DFE750F80C3088684A6805F0A4F942
:1038000040F08270D6E750F80C3088684A6805F0BE
:103810009BF940F08870CDE7237801332370AEE741
:10382000C1F89830C1F8A000013377E74FF0FF30BE
:10383000CBE700BF00ED00E094980000FF1A0020E5
:103840000000F0FF0000081100000206F0B587B08C
:1038500007460E4614460021102268461D4605F014
:10386000ABFD02238DF802302A46054B0193214619
:103870006846CDE9047603F01DFF07B0F0BD00BF38
:10388000698B000008B5024B1B689847002008BDF3
:103890003C190020034B044A1860937843F002035C
:1038A000937070473C1900204000002008B506497D
:1038B000064821F00701C1F1005202F5803204F000
:1038C00082FB002008BD00BF4F2F002040190020C0
:1038D000024B0122C3F840250020704700E0014060
:1038E00020B1034B800143F001031847704700BF2C
:1038F00000980000084B70B5C31A0D4607499B108D
:10390000044659430648402205F042F92B46014639
:103910002046BDE87040184760190020B76DDBB63F
:103920002C95000073B50C4C0C4A4023041B0093EB
:103930000D460B460A49A41061430646094805F0A6
:1039400052F9011E05DA30462B4602B0BDE8704040
:10395000184702B070BD00BF601900204F8C0000F6
:10396000B76DDBB62C950000002270B5012104462E
:103970001046FFF78DFD114801F09CFD104B984259
:1039800018D1206900F0DEF901F0A6FD26690D4985
:10399000304604F08EFE00280BDB012535642469D7
:1039A000084904F11C0004F084FE002801DBE564F2
:1039B000002070BD6FF00400FBE700BFA13A0000DB
:1039C0000000AD0BB49800001FB500220123CDE923
:1039D0000223094ACDF800D06B46CDF804D005F09B
:1039E0002FF9002805DB4FF480420023684602F0DF
:1039F00023FE05B05DF804FB618C000010B5074C98
:103A000023782BB94FF4A57005F0E8FA0123237051
:103A1000BDE81040002001F071BD00BF001B002078
:103A200010B5EFF31184202383F31288BFF36F8F57
:103A3000074A136823F00201DB07116002D401205A
:103A400005F0FCF984F31188BFF36F8F10BD00BF40
:103A5000B019002030B4104B0C2202FB0033014699
:103A60000020D3E90E529863EFF31180202484F3F1
:103A70001288BFF36F8F1C6C04F0C00444F0020482
:103A80001C6480F31188BFF36F8F1DB12B46034870
:103A900030BC184730BC7047601900202C950000DE
:103AA000012810B504460AD003280CD078B9084B79
:103AB0001B6C5B070BD1BDE81040FFF7CBBF00F0DC
:103AC0004FF92046F7E7BDE8104000F057B910BDA8
:103AD0006019002010B4EFF31182202383F31288C1
:103AE000BFF36F8F1748016841F002040460C807F4
:103AF00007D482F31188BFF36F8F012010BC01F04F
:103B0000FDBC4FF08041D1F80C04D1F80C14C9076A
:103B1000EFD5EFF3118083F31288BFF36F8F0A495B
:103B20000B6C03F0C00343F002030B6480F31188B5
:103B3000BFF36F8F82F31188BFF36F8F002010BC2B
:103B4000FFF788BFB019002060190020024AC3B2F5
:103B50001C2003FB0020704760190020F8B528499D
:103B6000BFF35B8F0646012251E8003F41E8002089
:103B70000028F9D1BFF35B8F33B9224922484B604B
:103B8000CB608A6004F0A8FD731E012B1DD805F0E0
:103B9000B3FA0446D0B91D4B1B78BBB14FF080433C
:103BA0000222C3F8082305464FF08047D7F81824AF
:103BB000D7F81834D20312D59B0701D0012E0ED1AD
:103BC000BCB185F31188BFF36F8FF8BDEFF311859A
:103BD000202383F31288BFF36F8F0124E4E71CB125
:103BE000284604F0A2FFE1E70021212005F020FB98
:103BF000DCE74FF080430222C3F80423E5E700BF6F
:103C00005C1900204C1900207C190020021B0020A8
:103C10000D4BBFF35B8F012253E8001F002903D136
:103C200043E800200028F7D1BFF35B8F0AD1074992
:103C30000023CB60064B4B6003238B60054B186859
:103C400004F04ABD704700BFD0190020B819002009
:103C5000193D0000B419002007B500220023CDE96A
:103C6000002308484FF40032002303F0A7FC064B62
:103C7000186804F088FD054B00221A6003B05DF857
:103C800004FB00BF20010020B4190020D01900203F
:103C9000F7B51C4E1C4CB7681C4DFB6840213046E4
:103CA000984740B1002323702B8001F099FC012339
:103CB000237003B0F0BD0C213B696A46304698473B
:103CC0000028EFD1124A019B93FBF2F3009A21786E
:103CD00003EB82031BB2B5F900200029E4D09A1A45
:103CE000002AB8BF524212B2012ADDDC094A136829
:103CF000013901332170136003B0BDE8F040FFF7D4
:103D0000ABBF00BFAC950000011B0020FA1A0020D9
:103D100090D00300C819002008B5074805F063F9E2
:103D200028B901F05DFC054B01221A7008BDBDE801
:103D30000840034802F0E2BDAC950000011B0020E2
:103D400050000020034B044A186000231360034A0C
:103D500013607047B4190020CC190020C819002046
:103D6000024B00221A70FFF753BF00BF011B002057
:103D7000014805F0F7BA00BF20010020024A13688D
:103D800001331360FFF768BFCC19002008B507485E
:103D900005F029F938B10648FFF77CFD0448FEF725
:103DA00031F9002008BD6FF01200FBE76C950000B0
:103DB000B53D00000A2838B5074D044604D1AB686C
:103DC0000D215B6828469847AB6803485B68E1B201
:103DD0009847204638BD00BF6C950000430970B578
:103DE00007D10B4B596821B101250C68094E85405C
:103DF00001B970BD8A682A4002D04B6830469847A6
:103E00001CB1236821461C46F2E72346FAE700BFAF
:103E1000D41900204C9500002DE9F043476840F28A
:103E20000636D0063B7B87B002EA060654BFC2F3D3
:103E30004010032001F01F05B6F5837F144645EAC4
:103E400043158DF8030042D00FD8062E18D007D89E
:103E5000B6B1022E3DD06FF0150007B0BDE8F0837B
:103E6000B6F5807FF7D101260AE040F202229642A1
:103E700031D0B6F5407F30D0B6F5007FEBD10226C9
:103E800022032CD57A6801238B40C2F808353B69A0
:103E90006BBB05F01F026D0976D1920002F1A042C2
:103EA00084F48031D2F80037C1F30041C4F34044B8
:103EB00023F4E16344EA410423F007031C4344EA8A
:103EC000800444EA0624C2F800470020C5E707261C
:103ED000D6E70426D4E70526D2E70326D0E7630316
:103EE00041BF01237A688B40C2F80C35CFE7103709
:103EF0000DF102022946384601F0F2FD14F4403F6C
:103F000080460CD12946384605F00AF8214B9845E1
:103F1000DBD19DF80210384601F022FED5E701AB57
:103F20004FF0000903AA29463846CDE90439CDE906
:103F30000199CDF80C9001F0A3FC164B98428AD160
:103F400014F4003315D09DF803308DF80E3084F44E
:103F50008034C4F300444B4603AA294638468DF802
:103F60000C608DF80D4001F03FFD0A4B9842CDD01A
:103F700071E7CDE9043303AA0DF10303294638465E
:103F8000039301F07DFCF0E702F5E07253F8223074
:103F9000FFDE00BF0000AD0B38B545682B69B3B13B
:103FA0001035284601F0D2FD044680B90146284666
:103FB00001F0A8FD084B98420BD10849224628463B
:103FC00001F088FD224605210620FFF761FA002056
:103FD00038BD6FF00400FBE70000AD0BDD3D0000D5
:103FE000F0B516464268107B01F01F0444EA401405
:103FF000106987B000286ED0B6F5001F02F11005D9
:1040000006D12146284604F08DFF002007B0F0BD00
:1040100001A80027B6F5800F0197476038D1B3F1AA
:10402000007F14BF052304238DF804300023CDE95D
:1040300004030393936823FA01F111F001010DF1D8
:1040400003073AD1B6F1A07F37D104F01F0362090C
:1040500003F5E07345D14FF0A04252F82330DB075F
:104060002BD43A462146284601F03AFD1E4B984291
:1040700019D0029703AA2146284601F001FC1B4BE8
:1040800098422BD101222146284601F079FDBCE758
:10409000B3F1C06F05D0B3F1007F14BF0123022339
:1040A000C2E70323C0E73946284601F061FD0F4B04
:1040B0009842DED06FF00B00A8E73A46214628462A
:1040C00001F00EFD094B9842D4D19DF8031028460B
:1040D00001F046FDCEE76FF0850097E76FF0150021
:1040E00094E751F82330FFDE0400AD0B0000AD0B68
:1040F0002DE9F04FDFF81CC1474F002540F2FF16B5
:10410000EBB2994202D80020BDE8F08F50F825406C
:1041100014F4804FC4F3C32EC4F3080366D1240EF5
:1041200017F80E90B34208BF4FF0FF33062C60D84B
:10413000DFE804F0040A114F14494F00C2F80C35AF
:104140005C1C49D10135DBE7C2F814355C1CF9D0A1
:104150000024A04612E0C2F80835F1E75C1CC2F862
:104160000835EFD000245FEA531E45D14FF0010817
:104170004FF0A04E08FA03FACEF80CA550F825B07F
:104180000BF4004EBEF1000F1CBF4FF000080124DD
:1041900003F01F0E5B0937D14FEA8E0E0EF1A04ED1
:1041A000CBF3412BDEF800A74FEA092343EA8B0348
:1041B0000AEA0C0A43EA0A0343EA080343EA44030F
:1041C000CEF80037BEE75C1CC2F80C35BAD001242B
:1041D000C9E7C2F81035B9E75C0911D101244FF0E5
:1041E000A04E04FA03F8CEF80885B2E76FF0150088
:1041F0008AE76FF0850087E70023C3F80C35FFDE00
:104200000023C3F80835FAE70EF5E07E002353F8E3
:104210002E30F4E7F0F8FCFF07A30000014B012269
:104220001A60704700C000400C2903690BD15B6A1B
:10423000064907484B4393FBF0F100FB1133116033
:104240005360002070476FF08500704790D00300E6
:1042500040420F00044B00690022C3F80021D3F84C
:10426000003102F0B5B900BF00C000407FB505695C
:10427000AB6A63B3402901D00C292BD105F110069C
:104280004FF0FF324FF0FF33304602F0D9F8134BB6
:104290000193A86A0323002469460394029304F05F
:1042A0001BFA4FF0FF324FF0FF33284602F0C4F9FB
:1042B000A86A04F068FA0A4BD3F808256A6201225A
:1042C0005A60304602F034F9204604B070BD6FF0F9
:1042D0000A00FAE76FF08500F7E700BF1D42000013
:1042E00000C0004010B504690020FFF72FFCA06259
:1042F0004FF0FF320021204604F0BDFE04F1100013
:1043000004F0B2FE002201210C20FFF7C1F80C20BE
:10431000FFF78EF8024B0122C3F80423002010BDE2
:1043200000C00040074BD3F8082142B10020C3F879
:104330000801D3F80821D3F818350B7070474FF0F7
:10434000FF30704700200040024BD3F88004C3F8D0
:104350008004704700200040F8B50E4604F0CCFE03
:104360001A4D78BB64240127BFF35B8F55E8003FEB
:10437000002B03D145E80072002AF7D1BFF35B8F11
:1043800007D021200021013C04F052FF14F0FF046B
:10439000EAD10F4C0023C4F81C31D4F81C3101239E
:1043A000A360C4F81C6542F21076D4F81C3123B91E
:1043B000012004F041FD013EF7D10123E360002319
:1043C0002B60F8BD01232B60E3E700BF0C1A00202F
:1043D0000020004073B5594A436804690021C2F8BF
:1043E00000151E68054601AA304604F09BFC002813
:1043F000C0F28180019B326819791868FFF778FE56
:10440000002878DB6379012B1CD1A379032B19D108
:10441000E379BBB9217911B1022913D10E212368A7
:10442000B3F5164F69D02BD8B3F5165F67D014D803
:10443000B3F5966F65D008D8B3F5967F64D0B3F521
:10444000167F64D06FF0850055E0B3F5166F61D02C
:10445000B3F5965FF6D13A4B39E0B3F5E14F5CD056
:1044600007D8B3F5615F5AD0B3F5964FEAD1354B13
:104470002DE047F612229342E4D14FF4000326E0E8
:10448000B3F5613F4ED011D8B3F5963F4CD008D864
:104490004DF6C022934249D0B3F5614FD2D12A4B99
:1044A00015E0B3F5E13FCDD1284B10E0B3F5612F16
:1044B0003FD007D8264A93423DD0B3F5E12FC1D172
:1044C000244B04E0244A9342BCD14FF080531B4A52
:1044D0002D69C2F82435C2F86C1594E8030085E80C
:1044E000030004230020C2F80035C2F80801D2F806
:1044F00008310123136002B070BD184BE7E7184B79
:10450000E5E74FF49E23E2E74FF4A033DFE74FF4F3
:104510001C33DCE74FF41D23D9E7124BD7E74FF4E8
:104520006C13D4E7104BD2E7104BD0E74FF4650380
:10453000CDE70F4BCBE74FF08063C8E7002000408A
:1045400000B0130000A04E0000F0EB0000E0D70127
:1045500090D0030000705F0740420F0000509D00A4
:104560000050270000F0750000B0AF0300903A0142
:1045700000D0BE0E2DE9F04383B045680669D5F83A
:10458000208000AF3A1D0021404604F0CBFB041E02
:104590001ADB7B68D8F8002019791868FFF7A8FDA6
:1045A000041E11DB696A481C1BD005F1280000F0CD
:1045B000F7FA10F1130F04460BD1314A31480121AB
:1045C00004F0C3FB6FF0120420460C37BD46BDE873
:1045D000F083411D05D12C4A2A48012104F0B5FB86
:1045E000F2E7EB699847B5684FF00108D6E9023267
:1045F00003EBC2039D4204D3304604F0D4FB0024F5
:10460000E2E7286804F0EFFC0346B0B92A6829798C
:1046100010686C468AB06A461C4DD1614FF4007137
:1046200011841B49C2E9055042F8101F15484FF488
:104630001151FEF7B9F8A546C4E728682979EB8837
:10464000D0F810C0D0F80890DCF80040DA0754BF6A
:1046500043F4B01383F4D01323F4801208FA01FE5C
:10466000DB074CBF44EA0E0424EA0E04CCF80040F9
:10467000D9F800309847041EA6DB0835B6E700BF1E
:1046800035A30000DC97000060A300007DA30000BC
:10469000040000017FB50546406829698A6C0B6DEE
:1046A0000ABBABB14C6C8B6516461A46C96C0291BD
:1046B000CDE9004611B3002B18BF1346002269460E
:1046C000039301F079FC0E4B98420AD06FF004037B
:1046D0002C69236304F1200001F07AFF002384F8A1
:1046E0005C3004B070BD4C6C13B19A4228BF1A46BE
:1046F000002C8A6514BF16460026D7E70B46DDE777
:104700000000AD0B38B503780C4663B98D6D5DB90B
:104710004B6D1C696FF07303236304F1200001F0FB
:1047200057FF84F85C5038BD8B6C33B19D4213D970
:10473000224A2348012104F008FB236DA26D33B106
:104740009A4221D91D4A1E48012104F0FEFA606DEB
:10475000BDE83840FFF79EBF5B1B8B6473B94B6BA2
:1047600008334B638B6B013B8B6301F1480204F10F
:104770003400383104F0F0FA6064DEE74B6C002B53
:10478000DBD02B444B64D8E79B1A23657BB9E36BE2
:104790000833E363236C013B236404F1500204F10A
:1047A000400104F13C0004F0D7FAE064CFE7E36C89
:1047B000002BCCD01344E364C9E700BFA1A30000E1
:1047C000DC9700002DE9F04F8BB000AFC7E9023253
:1047D00043687B608B88046989469904804630D49D
:1047E0004FF0FF324FF0FF3304F1100001F024FFCF
:1047F000C4F80490D8F810A0D8F804B09AF85D3046
:1048000023B1DAF80030994500F0D780B9F8046098
:1048100016F400631CD0B34AB348012104F095FAA2
:104820006FF0850523689B8813F4005304D16360FF
:1048300004F1100001F0CCFE28462C37BD46BDE83F
:10484000F08FA369002BCBD163689945C8D1D1E71C
:10485000F20716D56D4688B0D8F800106A46A3480E
:10486000C2E905014FF400719183A14942F8101F7C
:104870009D484FF4E251FDF797FFAD466FF01505E7
:10488000D0E7350705D59B4A9748012104F05DFA2A
:10489000F4E7C6F34513082B01D0974AF4E7D9F89B
:1048A0000050964B9D4201D8954AEDE70BF1080E5A
:1048B000BEE80F0007F1140CACE80F00DEF8003082
:1048C000CCF800308F4B9D4256D98F4B9D4256D924
:1048D0008E4B9D4256D98E4B9D4256D98D4B9D4253
:1048E00056D98D4B9D422CBF4FF000454FF080456F
:1048F000B007FD6106F004034DD5002B14BF032360
:10490000022387F82030C6F3001387F82130DBF844
:104910000030D3F80825511C12D016F0020F02F017
:104920001F00C6F340014FEA52124FF0010336D187
:10493000002A40F02E814FF0A0428340C2F80C358F
:104940009AF85D302BB1584601F0FEFA00238AF840
:104950005D30724A534607F11401584601F0C0FA1F
:104960006F4A9042034623D06E4A5F48012103F00C
:10497000F9FF6FF0040555E74FF00075B8E74FF009
:104980008065B5E74FF00065B2E74FF08055AFE7BF
:104990004FF00055ACE7003B18BF0123B1E7002AF8
:1049A00040F0FA804FF0A0428340C2F80835C7E7D4
:1049B00001238AF85D30CAF80090012384F85C3046
:1049C0007B68596A4A1C0AD003F1280000F018F9E4
:1049D000743004D1544A4448022104F0B6F9FB680B
:1049E000002B76D163630023A36304F1480204F132
:1049F000380104F1340004F0AFF9BB686064002BA7
:104A000040F09680E3630023236404F1500204F134
:104A1000400104F13C0004F09FF9E06420680023A9
:104A2000236348B183683BB10121083004F0A7F942
:104A30002368186904F0D2FA4046FFF72BFE0023E2
:104A4000A06B1A4682427CD10022256C1146A942F5
:104A50007ED19342264638BF13464FF4FA5202FBEA
:104A600003F556F8203B4FF4004C1B68B5FBF3F5FB
:104A700040F2E730C83500214FF47A720023E5FB9D
:104A80000C01FBF71BFF02460B46304601F0D4FD3C
:104A9000002864D0254A1448012104F056F94FF04B
:104AA00000097868C4F8589001F04EFA84F85D90D7
:104AB000D8F810506FF07308C5F8308005F1200069
:104AC00001F086FD85F85C90304601F0DBFD45463F
:104AD00049E0FB681B686363002B84D0FB685B685C
:104AE00082E700BFBFA30000DC970000D9A300004D
:104AF00003000001FBA300001AA4000047E8010026
:104B000049A400008FD003001FA107003F420F00FF
:104B10007F841E00FF083D0000127A000547000058
:104B20000000AD0B7AA40000A1A40000CBA40000FB
:104B3000BB681B68E363002B3FF465AFBB685B6831
:104B400062E7616B01EBC201013249680B4479E70E
:104B5000E06B00EBC10001314068024477E7256B50
:104B600015F1740F9BD02368002B3FF45BAE9A685D
:104B7000002A3FF457AE998811F480567FF452AE64
:104B8000186904F02BFA20683146083004F0F7F871
:104B900048E6C1F80C15FFDE0023C3F80835FAE734
:104BA000F0B587B001238DF8023002238DF8043070
:104BB0006B4403930F4601AB0DF1030100240493F2
:104BC00005460291059400F0D3FF0C4B984206462F
:104BD0000FD103AA3946284600F052FEB0420BD04E
:104BE0009DF80310284600F0BBFF6FF0040007B0EB
:104BF000F0BD6FF01200FAE72046F8E70000AD0BB9
:104C00002DE9F0410D46064604F08EF900220746D4
:104C10002946304600F0B4FF6B0905F01F0429D186
:104C2000A40004F1A044164BD4F80027134043F02D
:104C30000C03C4F8003704F0ECF880463368DB5905
:104C40007BB100273046294604F06CF9D4F80027E0
:104C50000B4B134043F00403C4F800373846BDE85B
:104C6000F08104F0D6F8A0EB08000628E6D96FF032
:104C70007307E7E704F5E074002353F82430FFDE00
:104C8000F0F8FCFF70B5012383400E4ABFF35B8F41
:104C9000DC4352E8001F01EA040542E80056002EFA
:104CA000F7D1BFF35B8F4FF4803282400648C0F8E3
:104CB0000823BFF35F8FBFF36F8F0B4214BF012038
:104CC000002070BD141A00200010014070B40E497D
:104CD000D1E90034D01AC31844F1000422F07F4611
:104CE000C1E90034A6F50013B3F5400F09D2074B14
:104CF0001B681A0A1B069C19054B42F10005C3E903
:104D0000004570BC02F072BB90160020181A0020FB
:104D10009816002011B3BFF35B8F0123104A834024
:104D200052E800CF4CEA030C42E800C10029F7D159
:104D3000BFF35B8F0B4A4FF480338340C2F80433D8
:104D4000094BBFF35B8F1B68BFF35B8FC340DB076F
:104D500042BF064B4FF40032C3F80021704700BF3A
:104D6000141A002000100140101A002000E100E099
:104D70000D4B1868010A0006BFF35F8F0B4BD3F889
:104D80000435181841F10001B3F5801F0AD2084B11
:104D9000D3E90023904271EB030303D210F180703A
:104DA00041F10001704700BF181A002000100140B7
:104DB000981600202DE9F04F85B016461F469DF845
:104DC00040A00446FFF75EFF0190FFF7D1FFB0421D
:104DD00071EB070354D23E4B301A67EB0101984246
:104DE00071F100014FD23B4B03EB0413D3E90223D3
:104DF0009F4208BF96425ED037494FF4803804F195
:104E0000500508FA04F8AD00C1F848832046ADB259
:104E100003F0F3FF26F07F4B05F1804504F5A873FE
:104E200005F58835DC464FF003090293029A2CF011
:104E30007F4341F82230C1F84483D1F80435274A32
:104E40006FF00200C01A604420F07F40904232D9D7
:104E5000286868B1D1F804350393A3EB0B0020F068
:104E60007F40B0F5000F26D9204603F0C6FF039B14
:104E7000BAF1000F07D109EB030C09F10109D5E7DD
:104E8000BAF1000F09D06FF0150520460199FFF720
:104E900041FF284605B0BDE8F08F0123104ABFF35B
:104EA0005B8FA34052E8000F184342E8000100293D
:104EB000F8D1BFF35B8F07490E98230101EB041271
:104EC000C8500F9B5360C2E902670025DDE700BFB1
:104ED000010080008016002000100140FDFF7F00CF
:104EE000101A00207FB51C4C1C4BC4F80833C4F8C2
:104EF00048331B4B00254FF0FF304FF0FF31C4F813
:104F00000855C3E902014FF48033C4F80433154B4C
:104F100002264FF400320121C4F804631120C3F8C3
:104F200080212A46FEF7B4FA1120FEF781FA0E4AD4
:104F30000123A360236013600C4B0D4A0093CDE95D
:104F4000015500232846FFF735FF3046FEF706FEE1
:104F5000284604B070BD00BF0010014003000F00E0
:104F60008016002000E100E0141A0020CD4C000063
:104F7000FFFF7F002DE9F7432F4CD4F80433990746
:104F80000BD5D4F8043143B12C4A0023C4F80431C2
:104F9000D4F80431136801331360D4F80433DA030E
:104FA00029D5BFF35B8F264B53E8002F22F0010178
:104FB00043E800100028F7D1BFF35B8FD30702D47A
:104FC000D4F84031BBB10025C4F84051D4F8403189
:104FD000FFF7CEFEEFF31182202383F31288BFF395
:104FE0006F8F184BD3E90267B042B94106D282F302
:104FF0001188BFF36F8F03B0BDE8F0834FF0FF3827
:105000004FF0FF39C3E90289D3E900101D604FF466
:105010008033C4F84833C4F84051D4F8403182F3A7
:105020001188BFF36F8F0029E5D0009032463B46D0
:1050300028468847DFE700BF00100140181A00200B
:10504000101A00208016002030B5431C124C85B089
:1050500005D08442A8BF0446012CB8BF0124FFF745
:1050600087FE0E4B0C4DD3E90013401AB0F5000F2C
:1050700010D22218AA4228BF2A4652184FF0000028
:1050800007490091CDE9010043F10003FFF792FECB
:1050900005B030BD2A46F0E7FFFF7F0090160020E4
:1050A000CD4C000008B5FFF763FE024B1B68C01A29
:1050B00008BD00BF901600204FF0704393F8E02F1A
:1050C000062A09D1D3F8E83FC3F30313033B042BAB
:1050D00002D8024AD05C7047002070471AA5000031
:1050E000024AD2F80034002BFBD0704700E00140A8
:1050F00010B503F092FE40B14FF080538E4AD3F8C2
:105100002433C3F30423C2F84035FFF7D5FF10B1B1
:105110008A4B8B4A5A6703F080FE48B14FF08053A8
:105120004FF08042D3F84432C3F34233C2F83C35E7
:10513000FFF7C2FF30B1834AD2F8FC3023F080730E
:10514000C2F8FC3003F069FE40B14FF0804300220A
:10515000C3F80C21C3F81021C3F83825FFF7ACFFC2
:1051600020B14FF080430322C3F8A025FFF7A4FF2E
:1051700060B1754B0522C3F810260122C3F88826BA
:105180000022C3F818263F22C3F814264FF080539C
:10519000D3F83021511C09BF4FF07043D3F834319C
:1051A00093F8E02FD3F8E83F08BFC3F30313062AB0
:1051B0004DD1033B042B03D8644AD35C002B46D06B
:1051C0004FF08052624BD2F80414C3F82015D2F885
:1051D0000814C3F82415D2F80C14C3F82815D2F813
:1051E0001014C3F82C15D2F81414C3F83015D2F8E3
:1051F0001814C3F83415D2F81C14C3F84015D2F8AB
:105200002014C3F84415D2F82414C3F84815D2F872
:105210002814C3F84C15D2F82C14C3F85015D2F842
:105220003014C3F85415D2F83414C3F86015D2F80A
:105230003814C3F86415D2F83C14C3F86815D2F8D2
:105240004014C3F86C15D2F84424C3F8702503F059
:10525000E4FD48B14FF080534FF08042D3F858320C
:1052600003F04F03C2F8E43E03F0D7FD48B14FF01E
:105270008043D3F80024D20744BF6FF00102C3F883
:1052800000244FF08053D3F83021062A26D1D3F8DA
:105290003431033B042B02D82E4AD35C63B12E4A2F
:1052A000D2F83C3743F48063C2F83C374FF0805368
:1052B000D3F83031062B11D14FF08053D3F834316D
:1052C000033B042B02D8254AD35C3BB14FF010239B
:1052D000D3F808224FF08043C3F858254FF010232D
:1052E000D3F80022002A03DBD3F80432002B22DAA1
:1052F0001B4901234FF01020C1F804351524FFF796
:10530000EFFEC0F80042FFF7EBFEC0F80442FFF7E3
:10531000E7FE0023C1F80435FFF7E2FEBFF34F8F2D
:105320000849104BCA6802F4E0621343CB60BFF334
:105330004F8F00BFFDE710BD0030014000C00740A7
:105340000DF0ADBA00ED00E00050004015A50000E2
:1053500000C0004010A50000001000400BA5000098
:1053600000E001400400FA0530B50468CCB1BFF399
:105370005B8FB4FA84F3C3F11F03DBB201229A40BE
:1053800024EA020250E8005FA54204D140E8002C64
:10539000BCF1000FF6D1BFF35B8FE6D102480B7072
:1053A00030BD0248FCE700BF0000AD0B0200AD0BB2
:1053B00010B50368CB40DB0714D401238B4002688F
:1053C000BFF35B8F43EA020150E8004F944204D1DF
:1053D00040E8001CBCF1000FF6D1BFF35B8FEED1AB
:1053E000014810BD0148FCE70000AD0B0400AD0B07
:1053F000F7B50546F8B101281BD104224FF480739C
:1054000001464FF0804003440244C0F808130026D0
:10541000012111601E608D421B688DF8071008BFC6
:105420000DF1070642F210744FF0804745B1012D8F
:1054300029D003B0F0BD0C224FF482730221E0E7C3
:10544000D7F8183403F4803366B9002BF1D001206B
:1054500003F0F2FC013CF3D1EBE703F0EDFC013C7F
:10546000E4D1E6E7D7F8182402F003023260002BFB
:10547000DFD09DF807000128EFD0012DD9D10C4BCA
:1054800000225A71D5E7D7F80C3403F480333EB9C3
:10549000002BF4D0012003F0CFFC013CF3D1C8E78E
:1054A000D7F80C2402F001023270002BE1D1E6E7BC
:1054B0001C1A0020054B1A792AB99A71012218602A
:1054C0009A80034870470348704700BF1C1A0020A9
:1054D0000000AD0B0C00AD0B08B5074B1B682BB1E2
:1054E0000020FDF7C7FF08B9FDF7A2FF4FF080438A
:1054F0000022C3F8182508BD1C1A002038B5B0B129
:10550000012851D14FF080420023C2F80031D2F877
:1055100000212E4A03F18043012119602C4B1B68A6
:10552000002B4CD04FF08043C3F804033CE04FF015
:105530008043D3F81814D3F81824CC0326D5900749
:1055400002D00020FFF754FF4FF080430022C3F841
:105550001825C3F804211F4AD3F80431D2F8FC00FF
:1055600040F08073C2F8FC301B4B1C6844F0010112
:1055700019605D685968491BB1F50A5FFAD31C6070
:10558000C2F8FC000823154A0220C3E7D3F814240C
:10559000D107D9D5D3F81C249207D2D10C4A12686E
:1055A0001AB10222C3F8042338BDD3F80421002A1B
:1055B000FBD00022C3F80421D3F80431F4E71368C8
:1055C000002BFCD0002313601368EDE700010040BE
:1055D0001C1A002000ED00E0001000E00401004073
:1055E0004FF08043D3F80C14D3F80C24C80325D50E
:1055F000D10723D5D3F81824D2031FD5114A9179A6
:1056000001F0FF00E1B9C3F80C01D3F80C1102203E
:1056100001219171C3F8340C1961126822B108227A
:10562000C3F8042308487047D3F80C21002AFBD0A4
:105630000022C3F80C21D3F80C31F3E7034870477C
:10564000034870471C1A00200000AD0B0500AD0B8D
:105650000B00AD0BF8B54FF08043184DD3F8044361
:105660000127002604B9F8BDB4FA84F0C0F11F0088
:10567000830003F580739BB203F1804307FA00F2C5
:105680001968D2B224EA02040029EBD01E601B681C
:105690004FF08043012AC3F8082305D0082A08D018
:1056A0002B68C0B29847DDE76B79002BDAD16A71BD
:1056B000F6E7C3F8346CAE71F2E700BF1C1A0020A5
:1056C00070B5C3B20C4C0833054634F81330DA0514
:1056D0000E4607D5C3F3432304EBC30254F833301B
:1056E00052689847A3682BB1E26831462846BDE866
:1056F0007040184770BD00BF241A002010B4C0B21B
:10570000114A083032F81030D9051BD5C3F34321B4
:1057100023F4F85322F8103002F10E04002034F87C
:10572000023F13F4807F03D0C3F34323994209D08F
:1057300001302028F3D1002342F83130034810BC57
:10574000FFF736BE10BC7047241A00207C1A0020D8
:1057500001F18051F0B501F5C2510446114A002013
:105760008900012506468A420BD10F4BD3F87C21D4
:1057700032B10022C3F87C21D3F87C3140F00040E4
:10578000F0BD02F14043A3F5C2439B0805FA03F3C1
:105790001C4204D0176817B116601768184304320A
:1057A000E1E700BF0061004000600040C0B2064B6E
:1057B000083033F81000830643BF400B800000F52B
:1057C00080704FF4BE707047241A0020CBB202469E
:1057D000083308460C4931F81330990611D599075A
:1057E0000FD410685B0B01219940C0F808131268B0
:1057F00002EB8303D3F8102522F00302C3F810252F
:105800007047002103F06FBB241A0020F7B5CDB21A
:10581000174E0835074636F81530DB070C4624D5F9
:10582000FFF7D4FF36F815309A0606D55B0B3A68B9
:1058300003F5A273002142F823102046FFF75EFF14
:10584000002301A826F81530019403F0F9FA019B12
:1058500000EB8300074BD0F80027134043F002030E
:10586000C0F80037044803B0F0BD0448FBE700BFB0
:10587000241A0020F0F8FCFF0000AD0B0400AD0B73
:105880002DE9FF41136807460C461646FBB1CDB221
:10589000DFF84481083538F8152002F02202222A68
:1058A00022D00022CDE900228DF80E208DF80F20A5
:1058B0000DF10E010DF10F02204603F0CBFA38F87E
:1058C000153023F0020343F0010328F81530736804
:1058D0004BB393F800C058683F4AE3B2083332F83C
:1058E00013108D0702D5B0B13C481FE021F0200114
:1058F000C904C90C22F8131068B1BCF1030FF3D826
:105900007068406805783868BCF1000F11D105F562
:10591000A27540F825C032F8131021F01C0141EAAD
:105920008C0122F81310B36863BB2D4804B0BDE8A6
:10593000F08100EB850041EA4531D0F810E52EF00A
:10594000030EC0F810E53F6807EB850741F0200122
:10595000D7F8100522F8131020F4473020F44070D7
:10596000C7F810052002D7F810E500F4F85040EA17
:105970000C4040EA0E00C7F8100502EB4500A0F805
:105980005C40C8E7D3E900672046FFF7B7FE002E6A
:10599000CBD0114DD5E90023964203D19F4201D1CE
:1059A000002209E00F480DF10F01FFF7DDFC0C4B61
:1059B0009842BBD19DF80F2045F83260E4B205EB68
:1059C000C20308345F6035F8143043EA422343F4DD
:1059D000807325F81430A8E7241A00200400AD0BCA
:1059E0000000AD0B7C1A00202DE9FF4107460C4654
:1059F0001E4612B3CDB2DFF8D080083538F8153026
:105A0000980701D4990621D413F01C0F02D05378C3
:105A1000012B1BD001238DF80F300023CDE900238B
:105A20000DF10F01931C2046013203F013FA38F8F0
:105A3000153043F0030328F81530002E42D0E1B2B0
:105A4000214D083135F81120930703D41F4804B0C5
:105A5000BDE8F08196F800E0D7F800C022F02002FF
:105A60000EF5A270D2040023D20C4CF8203025F899
:105A7000112096F801C0BCF1000F23D03868B67829
:105A800000EB8E004FEA0C4CD0F8103523F498133D
:105A900023F4F853C0F81035230203F4F8530CF440
:105AA000403C3605D0F8107543EA0C0306F4801626
:105AB00042EA4E32334342F020023B4325F81120A4
:105AC000C0F810350248C2E7241A00200400AD0BCC
:105AD0000000AD0B014BC3E902127047241A0020ED
