:10000000B811002001070000B1460000ED06000015
:10001000ED060000ED060000ED0600000000000007
:100020000000000000000000000000005D0800006B
:10003000ED0600000000000009080000ED060000C9
:10004000C1090000C1090000C1090000C109000088
:10005000C1090000C1090000C1090000C109000078
:10006000C1090000C1090000C1090000C109000068
:10007000C1090000C1090000C1090000C109000058
:10008000C1090000C1090000C1090000C109000048
:10009000C1090000C1090000C1090000C109000038
:1000A000C1090000C1090000C1090000C109000028
:1000B000C1090000C1090000C1090000C109000018
:1000C000C1090000C1090000C1090000C109000008
:1000D000C1090000C1090000C1090000F8B5174DB1
:1000E000284604F0A8FC044630B32A69A9681368BE
:1000F00023F4004313600B68114A0F2128469847E8
:10010000002819DB0F4F104EAB684FF400415B69BC
:100110002846984700280FDB84F0010414F0FF0400
:1001200014BF39463146094803F05EFE00214FF402
:10013000004004F0A6FDE7E70020F8BD3C4F0000BA
:1001400010000A00EC510000EF510000F3510000D4
:10015000014B1B68184700BF00000020014B1860CE
:10016000704700BF0000002030B585B004460D4642
:1001700010220021684604F03CFE02238DF8023074
:100180002A46044B01932146684603F03FFE05B022
:1001900030BD00BF5101000080B505460E46174630
:1001A000984603F0D3FA034604F08EFEDFF8189069
:1001B000044649F80030424630463946A84754F8CC
:1001C000090000F00BFB00BF080000002DE9F0471C
:1001D000058B04462807904611D4022905F007052F
:1001E00040F0CC80204604F05DF978B10138218BD5
:1001F000042811D8DFE800F0C2106D8595000129B0
:100200000CBF45F0100545F02005258388F31188C3
:10021000BFF36F8FBDE8F08701F0070AAA4500F031
:10022000A5800027B9463E46A368002B00F0BC809D
:1002300041F00801218388F31188BFF36F8FA16813
:10024000002900F0BA800D68002900F0B680D1F8CE
:100250000480334652462046C047002D76D02B6896
:1002600029461D46F0E701F007035A1F012A1BD853
:10027000002221F00701062B276889B2C4E9002279
:1002800009D13B4603E0628B013262831B68002B7D
:10029000F9D141F002012183204604F003F900283E
:1002A0007AD041F0200176E0042B0AD121F0070139
:1002B00089B22183204604F0F5F810B141F0200105
:1002C0002183218B01F0070AAA454FD00027B946A8
:1002D000AAE7236921F0070141F00601062DD3F8B2
:1002E000009021832DD1B9F1000F3FD041F00801DA
:1002F000218388F31188BFF36F8F3A492046C8479E
:1003000029E021F00701236941F0040189B2042D9D
:10031000D3F804902183E6D000273E464FF0040A2C
:1003200082E721F00701236941F0050189B2052D1B
:10033000D3F808902183D6D000273E464FF0050A17
:1003400072E700273E464FF0060A6DE72B4687E727
:10035000B9F1000FD1D1EFF31188202383F3128874
:10036000BFF36F8F238B23F008032383258BEA06CB
:100370002ED525F01003238305F007056669218B30
:10038000002EBFF670AF00232768C4E9003321F0C8
:10039000070141F001012183218B01F0070AAA45E1
:1003A0004FF000097FF440AF002F9CD041F00801CE
:1003B000218388F31188BFF36F8F002FC8D03D6869
:1003C000394633465246204604F098F82F46F4E763
:1003D000AB067FF51BAF25F02003238305F007054F
:1003E00000E700BF29450000014B03600020704773
:1003F0004851000008B5044804F047F8BDE808403B
:10040000024804F042B800BF025200003752000018
:1004100030BFFFF7FDBF00BF2DE9F0410B4EDFF805
:10042000308006EB0807CC1B0546324609492046BA
:1004300004F0D1FCA01942460021083C04F0D9FC8C
:100440002C6707F10800BDE8F08100BF0000000044
:10045000040000003C510000054B5A699B689A4219
:100460001FBF044A536843F080535360704700BF76
:100470003C04002000ED00E0134B9A6A12F0007F6C
:100480009A6A14BF1E201D2012F0807F9A6A18BF3E
:100490001F2012F4002F9A6A18BF212012F4802F17
:1004A0009A6A18BF222012F4003F9A6A18BF2320CC
:1004B00012F4803F9A6A6FEA02426FEA12429A622D
:1004C00018BF2420704700BF00ED00E010B5194BA5
:1004D0000246986A9C6A10F4805F14BF17201620A9
:1004E00014F4006F9C6A18BF1820A40509D5986BF6
:1004F000986A000404D51AB19A6A22F400429A62FA
:1005000019200C4B9A6A12F4806F9A6A18BF1A204D
:10051000D2050CD49B6A13F4005F18BF1C20054A57
:10052000936A43F47F43936200230B7010BD1B203A
:10053000F5E700BF00ED00E010B51C4B0246986ADD
:100540009C6A10F0100F14BF1120102014F0080F37
:100550009C6A18BF1220A40709D5586B986A000638
:1005600004D51AB19A6A22F080029A6213200F4BC6
:100570009A6A12F0010F9A6A18BF142012F0200F25
:100580009A6A18BF1520D40658BF9B6A074B9A6A0F
:10059000920642BF5A6A22F400525A629A6A42F0A4
:1005A000FF029A6200230B7010BD00BF00ED00E057
:1005B000F0B5474B5B688BB00446C3F308030025D6
:1005C00085F31188BFF36F8F02F07F40B0F17F4F4A
:1005D00011D102F00C0008280DD010074CBF0C46BA
:1005E00001250022033B8DF80720032B05D8DFE807
:1005F00003F02462665F2C46F3E700239DF8072092
:10060000CAB902AE04F1200720686168324603C20D
:100610000834BC421646F7D1099A002D53D0C2F3D4
:10062000080121B96FEA52226FEA4222099202A917
:10063000184604F033F80BB0F0BD254BDA6A910789
:10064000DBD4DA6A002AD8DBDA6A5200D5D55A69D7
:10065000A16942F480725A61BFF34F8FBFF36F8F6D
:100660005A6931F8021C22F480725A61BFF34F8F2D
:10067000BFF36F8F4DF60272914209D09A6AD2B2DF
:1006800042B10DF107010120FFF756FF0346B5E720
:100690002368B3E79A6A12F47F4F05D00DF1070182
:1006A0000120FFF713FFF1E79B6AB3F5803FA4D366
:1006B000FFF7E2FEEAE70DF107010020E4E70DF1A4
:1006C00007010020EDE722F4FF7222F00102ADE7FE
:1006D00000ED00E0044B5A6942F010025A615A6979
:1006E00022F008025A61704700ED00E0EFF3088045
:1006F000EFF3098101B57246FFF75AFF01BD00BF54
:10070000002080F31488BFF36F8F0F4880F30888B0
:1007100001F050FB00200D490860BFF34F8F00F03F
:100720002BF8202080F3118809484FF4006140180D
:1007300080F30988EFF314800221084380F31488C2
:10074000BFF36F8F00F0DEF8B811002094ED00E0E9
:10075000780400200749D1F890200023C2F3072233
:100760001846934200DB7047C1F89830C1F8A000EA
:100770000133F6E700ED00E008B572B6002383F31D
:100780001388FFF7E7FF144B4FF0FF32C3F88020C8
:10079000C3F88420C3F88820C3F88C20C3F89020C5
:1007A000C3F89420C3F89820C3F89C20C3F8802194
:1007B000C3F88421C3F88821C3F88C21C3F89021A1
:1007C000C3F89421C3F89821C3F89C2162B6BFF303
:1007D0004F8FBFF36F8F08BD00E100E0084B9B68AF
:1007E00083420BD1EFF3058343B1064B5A6842F0C5
:1007F00080525A605A6A22F400425A6202F0ACBF38
:100800003C04002000ED00E011498A684FF0300000
:100810001044EFF3098C80E8F01F202080F3128849
:10082000BFF36F8F0B4F4FF000664A698A603E60DE
:10083000106F094C2060506F0023536780F31188BC
:1008400002F1300090E8F01F8CF309887047000037
:100850003C04002004ED00E0E00200201EF0040F44
:100860000CBFEFF30880EFF30980816911F8021CD7
:100870000229FFD001B5724603F016FF01BD00BF8B
:1008800040B2002807DB044A4109012300F01F00A1
:10089000834042F82130704700E100E0054B4209F7
:1008A00000F01F0053F82220012303FA00F010404B
:1008B000704700BF00E100E040B20028A8BF00F18F
:1008C000604001F10101B8BF064B4FEA4111ACBFD6
:1008D00000F5614000F00F00C9B2B4BF195480F8B0
:1008E0000013704714ED00E0044B054A23F07F032A
:1008F0009360BFF34F8FBFF36F8F7047000000000E
:1009000000ED00E008B5FFF7EFFF074AD2F88830A6
:1009100023F47003C2F8883002F008F903F050F8AD
:1009200000F042F802F042F900ED00E042F8203C0D
:10093000009B42F81C3C0A49019B42F8183C029B70
:1009400042F8143C21F001014FF0807342F8043C5E
:1009500042F8081C0023203A02654367704700BF35
:100960009901000000B5094B9860094B1546026FCC
:100970001A600E462C4686F309880020054B9847DE
:100980002046002100220023034C20473C04002085
:10099000E0020020C746000099010000014B102230
:1009A0001A61704700ED00E0044800232021C218BE
:1009B0000133272B82F80013F9D1704700E100E0E2
:1009C00008B5EFF30583064A103B02EBC30152F86A
:1009D000330049688847BDE80840FFF73DBD00BFC8
:1009E0009C4F0000024B034A0348012100F066B807
:1009F000000001200000002048510000084AC2F811
:100A000098000B6823F01F03034343F01003C2F860
:100A10009C308B6843F00103C2F8A030704700BFE0
:100A200000ED00E02DE9F043DFF8608085B00E4670
:100A30001F4604464FF00009B14523DA6068D8B17B
:100A40003FB1411E08421BD11F2819D92368194202
:100A500016D12368019303F059FEA368034303935F
:100A6000D8F89050C5F30725D0B2013DA84207D869
:100A700001A9FFF7C3FF421C09F101090C34DBE7B0
:100A80006FF01502104605B0BDE8F08300ED00E000
:100A9000044B0522C3F89420BFF34F8FBFF36F8F31
:100AA000704700BF00ED00E0BFF35F8F024B0022F4
:100AB000C3F89420704700BF00ED00E010B5034C70
:100AC00001232278FFF7AEFF207010BD72040020D2
:100AD0002DE9F043534B544CD3F890302568C3F3C1
:100AE00007239D4285B000F29A80FFF7DDFF0020CA
:100AF0000C2685421AD14D4C4D4F25706846FFF7A4
:100B000073FCDFF82081DFF82C9106460025AE4209
:100B100013D1237843490020D1F89020C2F3072253
:100B2000934276DBFFF7B4FF002042E0616806FBEA
:100B30000011FFF763FF0130DBE7009800EB0511C0
:100B40004FEA051CCB683B40B3F5000F48D00AD8EC
:100B5000B3F5001F30D0B3F5800F36D0B3F5801F4A
:100B600010D00135D3E7B3F1807F42D0B3F1007FDD
:100B7000F7D150F80C3088684A6803F0C7FD40F49C
:100B8000802009E050F80C3088684A6803F0BEFD08
:100B900040F0885040F43020CDE901230390D8F88C
:100BA00090302078C3F30723013B98422AD96FF095
:100BB000150005B0BDE8F08350F80C3088684A682D
:100BC00003F0A4FD40EA0900E6E750F80C3088681D
:100BD0004A6803F09BFD40F0C06040F40030DBE762
:100BE00050F80C3088684A6803F090FD40F082703D
:100BF000D2E750F80C3088684A6803F087FD40F06F
:100C00008870C9E701A9FFF7F9FE23780133237043
:100C1000A7E7C1F89830C1F8A00001337CE74FF096
:100C2000FF30C6E700ED00E05451000072040020E0
:100C30000000F0FF0000081108B5024B1B68984740
:100C4000002008BDE4020020034B044A186093789A
:100C500043F0020393707047E40200200400002078
:100C600008B50649064821F00701C1F1005202F516
:100C7000803203F0B0FB002008BD00BFBF1500208C
:100C8000E8020020024B0122C3F8402500207047F3
:100C900000E0014020B1034B800143F001031847FD
:100CA000704700BF40510000084B70B5C31A0D4695
:100CB00007499B10044659430648402203F044FD6F
:100CC0002B4601462046BDE8704018470803002027
:100CD000B76DDBB61C4F000073B50C4C0C4A4023BB
:100CE000041B00930D460B460A49A41061430646B7
:100CF000094803F055FD011E05DA30462B4602B0C7
:100D0000BDE87040184702B070BD00BF0803002066
:100D10000B480000B76DDBB61C4F0000002270B519
:100D2000012104461046FFF7C7FD114801F024FADF
:100D3000104B984218D1206900F0DEF901F02EFA2C
:100D400026690D49304603F0FCFB00280BDB01252A
:100D500035642469084904F11C0003F0F2FB002803
:100D600001DBE564002070BD6FF00400FBE700BF0D
:100D7000550E00000000AD0B785100001FB5002299
:100D80000123CDE90223094ACDF800D06B46CDF806
:100D900004D003F033FD002805DB4FF4804200232C
:100DA000684602F067F805B05DF804FB1D480000D6
:100DB00010B5074C23782BB94FF4A57003F036FE1D
:100DC00001232370BDE81040002001F0F9B900BFF5
:100DD0007304002010B5EFF31184202383F31288ED
:100DE000BFF36F8F074A136823F00201DB0711601E
:100DF00002D4012003F0A4FD84F31188BFF36F8FA8
:100E000010BD00BF5803002030B4104B0C2202FB71
:100E1000003301460020D3E90E529863EFF31180AE
:100E2000202484F31288BFF36F8F1C6C04F0C0047D
:100E300044F002041C6480F31188BFF36F8F1DB16E
:100E40002B46034830BC184730BC704708030020CD
:100E50001C4F0000012810B504460AD003280CD00E
:100E600078B9084B1B6C5B070BD1BDE81040FFF74E
:100E7000CBBF00F04FF92046F7E7BDE8104000F087
:100E800057B910BD0803002010B4EFF311822023DE
:100E900083F31288BFF36F8F1748016841F0020493
:100EA0000460C80707D482F31188BFF36F8F012055
:100EB00010BC01F085B94FF08041D1F80C04D1F895
:100EC0000C14C907EFD5EFF3118083F31288BFF339
:100ED0006F8F0A490B6C03F0C00343F002030B64ED
:100EE00080F31188BFF36F8F82F31188BFF36F8F88
:100EF000002010BCFFF788BF580300200803002023
:100F0000024AC3B21C2003FB0020704708030020E4
:100F1000F8B52849BFF35B8F0646012251E8003F30
:100F200041E800200028F9D1BFF35B8F33B9224993
:100F300022484B60CB608A6003F016FB731E012BC6
:100F40001DD803F004FE0446D0B91D4B1B78BBB17D
:100F50004FF080430222C3F8082305464FF0804734
:100F6000D7F81824D7F81834D20312D59B0701D02C
:100F7000012E0ED1BCB185F31188BFF36F8FF8BD80
:100F8000EFF31185202383F31288BFF36F8F0124C1
:100F9000E4E71CB1284603F0AAFBE1E70021212089
:100FA00003F06FFEDCE74FF080430222C3F8042316
:100FB000E5E700BF04030020F40200202403002022
:100FC000750400200D4BBFF35B8F012253E8001F17
:100FD000002903D143E800200028F7D1BFF35B8F3D
:100FE0000AD107490023CB60064B4B6003238B607B
:100FF000054B186803F0B8BA704700BF78030020AB
:1010000060030020CD1000005C03002007B5002223
:101010000023CDE9002308484FF40032002302F0FA
:1010200093FE064B186803F0F6FA054B00221A608F
:1010300003B05DF804FB00BF480000205C03002003
:1010400078030020F7B51C4E1C4CB7681C4DFB689C
:1010500040213046984740B1002323702B8001F097
:1010600021F90123237003B0F0BD0C213B696A46CE
:10107000304698470028EFD1124A019B93FBF2F3C8
:10108000009A217803EB82031BB2B5F900200029F6
:10109000E4D09A1A002AB8BF524212B2012ADDDC0B
:1010A000094A1368013901332170136003B0BDE8A8
:1010B000F040FFF7ABBF00BF7C4F0000740400207E
:1010C0007004002090D003007003002008B507488A
:1010D00003F0B1FC28B901F0E5F8054B01221A70C4
:1010E00008BDBDE80840034801F0ECBF7C4F00009C
:1010F0007404002014000020034B044A18600023ED
:101100001360034A136070475C03002074030020DF
:1011100070030020024B00221A70FFF753BF00BF7C
:1011200074040020014803F03ABE00BF48000020CC
:10113000024A136801331360FFF768BF740300208D
:1011400008B5074803F077FC38B10648FFF77CFD87
:101150000448FFF703F8002008BD6FF01200FBE71A
:101160005C4F0000691100000A2838B5074D04469D
:1011700004D1AB680D215B6828469847AB680348EB
:101180005B68E1B29847204638BD00BF5C4F000065
:10119000430970B507D10B4B596821B101250C6883
:1011A000094E854001B970BD8A682A4002D04B685B
:1011B000304698471CB1236821461C46F2E7234677
:1011C000FAE700BF7C0300203C4F00002DE9F0430C
:1011D000476840F20636D0063B7B87B002EA060637
:1011E00054BFC2F34010032001F01F05B6F5837F02
:1011F000144645EA43158DF8030042D00FD8062E59
:1012000018D007D8B6B1022E3DD06FF0150007B048
:10121000BDE8F083B6F5807FF7D101260AE040F201
:101220000222964231D0B6F5407F30D0B6F5007F2D
:10123000EBD1022622032CD57A6801238B40C2F819
:1012400008353B696BBB05F01F026D0976D1920032
:1012500002F1A04284F48031D2F80037C1F300419A
:10126000C4F3404423F4E16344EA410423F0070358
:101270001C4344EA800444EA0624C2F800470020E4
:10128000C5E70726D6E70426D4E70526D2E70326D6
:10129000D0E7630341BF01237A688B40C2F80C3565
:1012A000CFE710370DF102022946384601F06AFAFD
:1012B00014F4403F80460CD12946384603F0B2FB77
:1012C000214B9845DBD19DF80210384601F09AFA7F
:1012D000D5E701AB4FF0000903AA29463846CDE90E
:1012E0000439CDE90199CDF80C9001F01BF9164BAA
:1012F00098428AD114F4003315D09DF803308DF84C
:101300000E3084F48034C4F300444B4603AA2946CB
:1013100038468DF80C608DF80D4001F0B7F90A4B96
:101320009842CDD071E7CDE9043303AA0DF1030350
:1013300029463846039301F0F5F8F0E702F5E0722C
:1013400053F82230FFDE00BF0000AD0B38B5456812
:101350002B69B3B11035284601F04AFA044680B92A
:101360000146284601F020FA084B98420BD1084963
:101370002246284601F000FA224605210620FFF702
:101380009BFA002038BD6FF00400FBE70000AD0BB6
:1013900091110000F0B516464268107B01F01F0461
:1013A00044EA4014106987B000286ED0B6F5001FDB
:1013B00002F1100506D12146284603F035FB002036
:1013C00007B0F0BD01A80027B6F5800F0197476070
:1013D00038D1B3F1007F14BF052304238DF8043006
:1013E0000023CDE904030393936823FA01F111F07C
:1013F00001010DF103073AD1B6F1A07F37D104F016
:101400001F03620903F5E07345D14FF0A04252F883
:101410002330DB072BD43A462146284601F0B2F9A7
:101420001E4B984219D0029703AA2146284601F084
:1014300079F81B4B98422BD101222146284601F016
:10144000F1F9BCE7B3F1C06F05D0B3F1007F14BF71
:1014500001230223C2E70323C0E73946284601F0EF
:10146000D9F90F4B9842DED06FF00B00A8E73A464F
:101470002146284601F086F9094B9842D4D19DF8BF
:101480000310284601F0BEF9CEE76FF0850097E71C
:101490006FF0150094E751F82330FFDE0400AD0B28
:1014A0000000AD0B2DE9F047DFF83CC14F4F0025A0
:1014B00040F2FF16EBB2994202D80020BDE8F08757
:1014C00050F8254014F4804FC4F3C32EC4F308032E
:1014D00076D1240E17F80E90B34208BF4FF0FF33B9
:1014E0000C2C70D8DFE804F0070D1316192A166FBC
:1014F0006F6F6F305E00C2F80C355C1C55D1013542
:10150000D8E7C2F814355C1CF9D0002456E0C2F8C4
:101510000835F2E7C2F81035F5E75C1CC2F808356B
:10152000EDD000245FEA531E50D14FF001084FF078
:10153000A04E08FA03FACEF80CA510E05C1CC2F825
:101540000C35DCD00124EDE7C2F80835B9F1000F05
:10155000D9D15C1CD3D00024A0464FF0060950F826
:1015600025A00AF4004EBEF1000F1CBF4FF000088A
:10157000012403F01F0E5B0930D14FEA8E0E0EF1ED
:10158000A04ECAF3412ADEF8003703EA0C0343EA0F
:101590008A0343EA092343EA080343EA4403CEF8F3
:1015A0000037ACE7C2F80C35D0E75C0912D1012452
:1015B0004FF0A04E04FA03F8CEF80885A046CEE717
:1015C0006FF015007AE76FF0850077E70023C3F826
:1015D0000C35FFDE0023C3F80835FAE70EF5E07E90
:1015E000002353F82E30F4E7F0F8FCFF915200008E
:1015F000014B01221A60704700C000400C290369AA
:101600000BD15B6A064907484B4393FBF0F100FBA3
:10161000113311605360002070476FF085007047F0
:1016200090D0030040420F00044B00690022C3F831
:101630000021D3F8003101F0E9BB00BF00C0004039
:101640007FB50569AB6A63B3402901D00C292BD162
:1016500005F110064FF0FF324FF0FF33304601F036
:101660000DFB134B0193A86A0323002469460394DE
:10167000029302F079FF4FF0FF324FF0FF3328461C
:1016800001F0F8FBA86A02F0C6FF0A4BD3F8082560
:101690006A6201225A60304601F068FB204604B0BD
:1016A00070BD6FF00A00FAE76FF08500F7E700BF42
:1016B000F115000000C0004010B504690020FFF7DC
:1016C0001FFCA0624FF0FF320021204603F0FEF91C
:1016D00004F1100003F0F3F9002201210C20FFF7C0
:1016E000EBF80C20FFF7CCF8024B0122C3F80423DF
:1016F000002010BD00C00040074BD3F8082142B1C4
:101700000020C3F80801D3F80821D3F818350B706E
:1017100070474FF0FF30704700200040024BD3F875
:101720008004C3F88004704700200040F8B50E46DE
:1017300003F00DFA1A4D78BB64240127BFF35B8FC9
:1017400055E8003F002B03D145E80072002AF7D18D
:10175000BFF35B8F07D021200021013C03F091FAF9
:1017600014F0FF04EAD10F4C0023C4F81C31D4F864
:101770001C310123A360C4F81C6542F21076D4F832
:101780001C3123B9012003F0D9F8013EF7D1012320
:10179000E36000232B60F8BD01232B60E3E700BF6B
:1017A000B40300200020004073B5594A436804691F
:1017B0000021C2F800151E68054601AA304603F054
:1017C0008FF80028C0F28180019B3268197918686F
:1017D000FFF768FE002878DB6379012B1CD1A37921
:1017E000032B19D1E379BBB9217911B1022913D1A6
:1017F0000E212368B3F5164F69D02BD8B3F5165FC9
:1018000067D014D8B3F5966F65D008D8B3F5967F36
:1018100064D0B3F5167F64D06FF0850055E0B3F562
:10182000166F61D0B3F5965FF6D13A4B39E0B3F558
:10183000E14F5CD007D8B3F5615F5AD0B3F5964F4E
:10184000EAD1354B2DE047F612229342E4D14FF412
:10185000000326E0B3F5613F4ED011D8B3F5963FB3
:101860004CD008D84DF6C022934249D0B3F5614F11
:10187000D2D12A4B15E0B3F5E13FCDD1284B10E092
:10188000B3F5612F3FD007D8264A93423DD0B3F538
:10189000E12FC1D1244B04E0244A9342BCD14FF044
:1018A00080531B4A2D69C2F82435C2F86C1594E8A0
:1018B000030085E8030004230020C2F80035C2F8C5
:1018C0000801D2F808310123136002B070BD184B33
:1018D000E7E7184BE5E74FF49E23E2E74FF4A03328
:1018E000DFE74FF41C33DCE74FF41D23D9E7124B3D
:1018F000D7E74FF46C13D4E7104BD2E7104BD0E787
:101900004FF46503CDE70F4BCBE74FF08063C8E79B
:101910000020004000B0130000A04E0000F0EB00DB
:1019200000E0D70190D0030000705F0740420F0035
:1019300000509D000050270000F0750000B0AF037C
:1019400000903A0100D0BE0E70B5012383400E4ACC
:10195000BFF35B8FDC4352E8001F01EA040542E855
:101960000056002EF7D1BFF35B8F4FF480328240D8
:101970000648C0F80823BFF35F8FBFF36F8F0B4299
:1019800014BF0120002070BDBC03002000100140E6
:1019900070B40E49D1E90034D01AC31844F10004E0
:1019A00022F07F46C1E90034A6F50013B3F5400FDD
:1019B00009D2074B1B681A0A1B069C19054B42F1FA
:1019C0000005C3E9004570BC02F0D6B890000020C5
:1019D000C00300209800002011B3BFF35B8F0123E8
:1019E000104A834052E800CF4CEA030C42E800C1A1
:1019F0000029F7D1BFF35B8F0B4A4FF4803383404C
:101A0000C2F80433094BBFF35B8F1B68BFF35B8FD6
:101A1000C340DB0742BF064B4FF40032C3F800213E
:101A2000704700BFBC03002000100140B803002035
:101A300000E100E00D4B1868010A0006BFF35F8F5C
:101A40000B4BD3F80435181841F10001B3F5801F92
:101A50000AD2084BD3E90023904271EB030303D26F
:101A600010F1807041F10001704700BFC0030020F9
:101A700000100140980000202DE9F04F85B0164677
:101A80001F469DF840A00446FFF75EFF0190FFF758
:101A9000D1FFB04271EB070354D23E4B301A67EBD3
:101AA0000101984271F100014FD23B4B03EB04134B
:101AB000D3E902239F4208BF96425ED037494FF4D4
:101AC000803804F1500508FA04F8AD00C1F84883E5
:101AD0002046ADB202F017FF26F07F4B05F180459E
:101AE00004F5A87305F58835DC464FF00309029329
:101AF000029A2CF07F4341F82230C1F84483D1F898
:101B00000435274A6FF00200C01A604420F07F407D
:101B1000904232D9286868B1D1F804350393A3EB19
:101B20000B0020F07F40B0F5000F26D9204602F0D0
:101B3000EAFE039BBAF1000F07D109EB030C09F190
:101B40000109D5E7BAF1000F09D06FF0150520465D
:101B50000199FFF741FF284605B0BDE8F08F01234A
:101B6000104ABFF35B8FA34052E8000F184342E8CE
:101B700000010029F8D1BFF35B8F07490E982301BC
:101B800001EB0412C8500F9B5360C2E902670025A5
:101B9000DDE700BF01008000800000200010014050
:101BA000FDFF7F00B80300207FB51C4C1C4BC4F820
:101BB0000833C4F848331B4B00254FF0FF304FF07B
:101BC000FF31C4F80855C3E902014FF48033C4F86B
:101BD0000433154B02264FF400320121C4F804638C
:101BE0001120C3F880212A46FEF766FE1120FEF779
:101BF00047FE0E4A0123A360236013600C4B0D4A7D
:101C00000093CDE9015500232846FFF735FF304604
:101C1000FFF77EF9284604B070BD00BF00100140F8
:101C200003000F008000002000E100E0BC03002062
:101C300091190000FFFF7F002DE9F7432F4CD4F8E6
:101C4000043399070BD5D4F8043143B12C4A00234F
:101C5000C4F80431D4F80431136801331360D4F8A4
:101C60000433DA0329D5BFF35B8F264B53E8002FEB
:101C700022F0010143E800100028F7D1BFF35B8F89
:101C8000D30702D4D4F84031BBB10025C4F8405189
:101C9000D4F84031FFF7CEFEEFF31182202383F317
:101CA0001288BFF36F8F184BD3E90267B042B94176
:101CB00006D282F31188BFF36F8F03B0BDE8F083C3
:101CC0004FF0FF384FF0FF39C3E90289D3E9001024
:101CD0001D604FF48033C4F84833C4F84051D4F841
:101CE000403182F31188BFF36F8F0029E5D0009057
:101CF00032463B4628468847DFE700BF00100140D8
:101D0000C0030020B80300208000002030B5431C31
:101D1000124C85B005D08442A8BF0446012CB8BF40
:101D20000124FFF787FE0E4B0C4DD3E90013401A38
:101D3000B0F5000F10D22218AA4228BF2A46521826
:101D40004FF0000007490091CDE9010043F1000385
:101D5000FFF792FE05B030BD2A46F0E7FFFF7F0097
:101D6000900000209119000008B5FFF763FE024BB8
:101D70001B68C01A08BD00BF900000204FF07043E0
:101D800093F8E02F062A09D1D3F8E83FC3F30313F1
:101D9000033B042B02D8024AD05C704700207047F6
:101DA000C4520000024AD2F80034002BFBD0704726
:101DB00000E0014010B502F0B2FD40B14FF0805399
:101DC0008E4AD3F82433C3F30423C2F84035FFF717
:101DD000D5FF10B18A4B8B4A5A6702F0A0FD48B17B
:101DE0004FF080534FF08042D3F84432C3F3423374
:101DF000C2F83C35FFF7C2FF30B1834AD2F8FC305D
:101E000023F08073C2F8FC3002F089FD40B14FF03E
:101E100080430022C3F80C21C3F81021C3F83825F1
:101E2000FFF7ACFF20B14FF080430322C3F8A02599
:101E3000FFF7A4FF60B1754B0522C3F810260122FD
:101E4000C3F888260022C3F818263F22C3F81426B8
:101E50004FF08053D3F83021511C09BF4FF070432D
:101E6000D3F8343193F8E02FD3F8E83F08BFC3F339
:101E70000313062A4DD1033B042B03D8644AD35CD9
:101E8000002B46D04FF08052624BD2F80414C3F8B6
:101E90002015D2F80814C3F82415D2F80C14C3F88E
:101EA0002815D2F81014C3F82C15D2F81414C3F85E
:101EB0003015D2F81814C3F83415D2F81C14C3F82E
:101EC0004015D2F82014C3F84415D2F82414C3F8EE
:101ED0004815D2F82814C3F84C15D2F82C14C3F8BE
:101EE0005015D2F83014C3F85415D2F83414C3F88E
:101EF0006015D2F83814C3F86415D2F83C14C3F84E
:101F00006815D2F84014C3F86C15D2F84424C3F80D
:101F1000702502F004FD48B14FF080534FF080422D
:101F2000D3F8583203F04F03C2F8E43E02F0F7FC56
:101F300048B14FF08043D3F80024D20744BF6FF07C
:101F40000102C3F800244FF08053D3F83021062A51
:101F500026D1D3F83431033B042B02D82E4AD35C6C
:101F600063B12E4AD2F83C3743F48063C2F83C3761
:101F70004FF08053D3F83031062B11D14FF08053FE
:101F8000D3F83431033B042B02D8254AD35C3BB150
:101F90004FF01023D3F808224FF08043C3F85825A0
:101FA0004FF01023D3F80022002A03DBD3F80432C9
:101FB000002B22DA1B4901234FF01020C1F8043511
:101FC0001524FFF7EFFEC0F80042FFF7EBFEC0F864
:101FD0000442FFF7E7FE0023C1F80435FFF7E2FEF5
:101FE000BFF34F8F0849104BCA6802F4E0621343F5
:101FF000CB60BFF34F8F00BFFDE710BD0030014045
:1020000000C007400DF0ADBA00ED00E00050004008
:10201000BF52000000C00040BA5200000010004053
:10202000B552000000E001400400FA0530B5046834
:10203000CCB1BFF35B8FB4FA84F3C3F11F03DBB2FF
:1020400001229A4024EA020250E8005FA54204D12E
:1020500040E8002CBCF1000FF6D1BFF35B8FE6D156
:1020600002480B7030BD0248FCE700BF0000AD0B1A
:102070000200AD0B10B50368CB40DB0714D401237D
:102080008B400268BFF35B8F43EA020150E8004FC8
:10209000944204D140E8001CBCF1000FF6D1BFF31C
:1020A0005B8FEED1014810BD0148FCE70000AD0B8D
:1020B0000400AD0BF7B50546F8B101281BD1042289
:1020C0004FF4807301464FF0804003440244C0F84F
:1020D00008130026012111601E608D421B688DF8D7
:1020E000071008BF0DF1070642F210744FF0804749
:1020F00045B1012D29D003B0F0BD0C224FF48273FD
:102100000221E0E7D7F8183403F4803366B9002BD6
:10211000F1D0012002F012FC013CF3D1EBE702F018
:102120000DFC013CE4D1E6E7D7F8182402F00302E5
:102130003260002BDFD09DF807000128EFD0012D81
:10214000D9D10C4B00225A71D5E7D7F80C3403F4DF
:1021500080333EB9002BF4D0012002F0EFFB013CAC
:10216000F3D1C8E7D7F80C2402F001023270002B3B
:10217000E1D1E6E7C4030020054B1A792AB99A7128
:10218000012218609A80034870470348704700BFD7
:10219000C40300200000AD0B0C00AD0B08B5074BCD
:1021A0001B682BB10020FEF779FB08B9FEF768FB2E
:1021B0004FF080430022C3F8182508BDC403002057
:1021C00038B5B0B1012851D14FF080420023C2F898
:1021D0000031D2F800212E4A03F180430121196019
:1021E0002C4B1B68002B4CD04FF08043C3F80403EA
:1021F0003CE04FF08043D3F81814D3F81824CC03F4
:1022000026D5900702D00020FFF754FF4FF08043FF
:102210000022C3F81825C3F804211F4AD3F804315B
:10222000D2F8FC0040F08073C2F8FC301B4B1C68F5
:1022300044F0010119605D685968491BB1F50A5FF6
:10224000FAD31C60C2F8FC000823154A0220C3E739
:10225000D3F81424D107D9D5D3F81C249207D2D1AE
:102260000C4A12681AB10222C3F8042338BDD3F80D
:102270000421002AFBD00022C3F80421D3F8043142
:10228000F4E71368002BFCD0002313601368EDE71C
:1022900000010040C403002000ED00E0001000E059
:1022A000040100404FF08043D3F80C14D3F80C2401
:1022B000C80325D5D10723D5D3F81824D2031FD5B9
:1022C000114A917901F0FF00E1B9C3F80C01D3F88C
:1022D0000C11022001219171C3F8340C19611268AC
:1022E00022B10822C3F8042308487047D3F80C2110
:1022F000002AFBD00022C3F80C21D3F80C31F3E7FD
:102300000348704703487047C40300200000AD0B2A
:102310000500AD0B0B00AD0BF8B54FF08043184D29
:10232000D3F804430127002604B9F8BDB4FA84F0B9
:10233000C0F11F00830003F580739BB203F180435B
:1023400007FA00F21968D2B224EA02040029EBD09D
:102350001E601B684FF08043012AC3F8082305D094
:10236000082A08D02B68C0B29847DDE76B79002BAC
:10237000DAD16A71F6E7C3F8346CAE71F2E700BFE8
:10238000C403002070B5C3B20C4C0833054634F8C2
:102390001330DA050E4607D5C3F3432304EBC3021B
:1023A00054F8333052689847A3682BB1E26831463D
:1023B0002846BDE87040184770BD00BFCC03002020
:1023C00010B4C0B2114A083032F81030D9051BD50C
:1023D000C3F3432123F4F85322F8103002F10E0422
:1023E000002034F8023F13F4807F03D0C3F343236B
:1023F000994209D001302028F3D1002342F831302E
:10240000034810BCFFF736BE10BC7047CC03002059
:102410002404002001F18051F0B501F5C2510446B9
:10242000114A00208900012506468A420BD10F4B34
:10243000D3F87C2132B10022C3F87C21D3F87C315F
:1024400040F00040F0BD02F14043A3F5C2439B08B9
:1024500005FA03F31C4204D0176817B11660176819
:1024600018430432E1E700BF006100400060004013
:10247000CBB20246083308460C4931F813309906AE
:1024800011D599070FD410685B0B01219940C0F852
:102490000813126802EB8303D3F8102522F003021D
:1024A000C3F810257047002102F09FBACC0300202A
:1024B000F7B5CDB2174E0835074636F81530DB07AD
:1024C0000C4624D5FFF7D4FF36F815309A0606D50A
:1024D0005B0B3A6803F5A273002142F823102046F3
:1024E000FFF76EFF002301A826F81530019402F0D3
:1024F00029FA019B00EB8300074BD0F8002713401B
:1025000043F00203C0F80037044803B0F0BD0448AC
:10251000FBE700BFCC030020F0F8FCFF0000AD0B90
:102520000400AD0B2DE9FF41136807460C46164623
:10253000FBB1CDB2DFF84481083538F8152002F040
:102540002202222A22D00022CDE900228DF80E207C
:102550008DF80F200DF10E010DF10F02204602F053
:10256000FBF938F8153023F0020343F0010328F893
:10257000153073684BB393F800C058683F4AE3B214
:10258000083332F813108D0702D5B0B13C481FE074
:1025900021F02001C904C90C22F8131068B1BCF164
:1025A000030FF3D87068406805783868BCF1000FF5
:1025B00011D105F5A27540F825C032F8131021F0AD
:1025C0001C0141EA8C0122F81310B36863BB2D484B
:1025D00004B0BDE8F08100EB850041EA4531D0F858
:1025E00010E52EF0030EC0F810E53F6807EB8507F5
:1025F00041F02001D7F8100522F8131020F44730DD
:1026000020F44070C7F810052002D7F810E500F458
:10261000F85040EA0C4040EA0E00C7F8100502EB03
:102620004500A0F85C40C8E7D3E900672046FFF703
:10263000C7FE002ECBD0114DD5E90023964203D121
:102640009F4201D1002209E00F480DF10F01FFF771
:10265000EDFC0C4B9842BBD19DF80F2045F8326041
:10266000E4B205EBC20308345F6035F8143043EA86
:10267000422343F4807325F81430A8E7CC030020EC
:102680000400AD0B0000AD0B240400202DE9FF4138
:1026900007460C461E4612B3CDB2DFF8D08008358F
:1026A00038F81530980701D4990621D413F01C0F7F
:1026B00002D05378012B1BD001238DF80F3000235B
:1026C000CDE900230DF10F01931C2046013202F0E9
:1026D00043F938F8153043F0030328F81530002E7D
:1026E00042D0E1B2214D083135F81120930703D4CF
:1026F0001F4804B0BDE8F08196F800E0D7F800C0AC
:1027000022F020020EF5A270D2040023D20C4CF865
:10271000203025F8112096F801C0BCF1000F23D01D
:102720003868B67800EB8E004FEA0C4CD0F81035C4
:1027300023F4981323F4F853C0F81035230203F45C
:10274000F8530CF4403C3605D0F8107543EA0C03FE
:1027500006F4801642EA4E32334342F020023B43F5
:1027600025F81120C0F810350248C2E7CC0300203C
:102770000400AD0B0000AD0B014BC3E90212704722
:10278000CC030020C9B20831044B33F8113099064C
:1027900043BF5B0B0248137002487047CC03002014
:1027A0000000AD0B0400AD0B70B50E4C94F86C50EE
:1027B0000646A5B94022294604F1100002F019FB93
:1027C0003068C0F87C51D0F87C3140F30730FEF718
:1027D00057F80123044884F86C30A36570BD0348A2
:1027E000FCE700BFCC0300200000AD0B0C00AD0BDC
:1027F000034B93F86C00003818BF0120704700BFEE
:10280000CC0300200079024B03EB8000FFF732BCC1
:102810002C0000200079024B03EB8000FFF706BC80
:102820002C00002073B5CBB20C460833214931F897
:10283000133001689D0619D513F0020616D15B0B03
:102840009C0004F580754E51495901682144D1F826
:10285000104544F00104C1F810452AB10168012275
:1028600002FA03F3C1F8043302B070BDD1F80423B7
:10287000002AA8BF4FF00042C3F38203A8BFC1F8EB
:102880000423042B12D0052B12D001A8019402F0CE
:1028900059F8019AD0F81035D34003F00103991C80
:1028A000204602B0BDE8704002F09FB80321F7E770
:1028B0000221F5E7CC0300202DE9F347514BD3F873
:1028C0000403C0B2082140F00040FFF7A3FD051E3D
:1028D00016DA002301216846009302F095F8DFF82C
:1028E00028810127009999B94FF00040FFF792FD28
:1028F0000121684602F088F80028F3D125F0004550
:10290000404E414F0124002D66D102B0BDE8F08752
:1029100091FAA1F4B4FA84F4E00804F1080304F095
:10292000070238F813901DF80030019407FA02F2FC
:1029300023EA02030DF8003001A802F003F8019B1E
:1029400003F5E0734FEA990150F82360C9F3820A56
:102950004B07D146C6F3014623D520465146FFF723
:1029600011FD01A8019401F0EDFF019B03F5E07357
:10297000F6B250F82330C3F301439E4207D1002141
:10298000204602F032F83146204602F02EF801A827
:10299000019401F0D7FF019B07FA03F3C0F820353B
:1029A000A0E7022E0CD10321204602F01EF80AF007
:1029B0000503012BEBD149462046FFF7E3FCE6E790
:1029C0000221204602F011F8BAF1030FF3D0032ED2
:1029D000DDD1BAF1020FEDE795FAA5F3B3FA83F36F
:1029E00004FA03F225EA020503F5A27207EB43039A
:1029F00056F82210B3F85C00C1F30141FFF7C2FCA6
:102A000081E700BF00600040CC03002038B5EFF341
:102A10001185202383F31288BFF36F8F064B9C68C8
:102A200002F01CF885F31188BFF36F8F2046BDE8D4
:102A30003840FDF7D3BE00BF3C04002038B50A4B38
:102A400053F82040013053F82050A54200D838BD3B
:102A5000606830B1037FDB0701D402F002F808346C
:102A6000F3E723689847FAE7CC51000070B52A4B8A
:102A70002A4C2B4D012286B003201A70FFF7DEFF8F
:102A8000FDF7B8FC0420FFF7D9FF2646AE4204F15B
:102A9000300410D300F066FD204C224EAC4226D309
:102AA00000F074FDFDF71AFB1F4A137B23F00103AE
:102AB000137306B070BD54F80C3C059354F8103CE9
:102AC000049354F8143C039354F8183C029354F8BC
:102AD0001C3C019354F8203C009354E90A2354E928
:102AE0000C0100F035FB54F8303C5E65CDE7D4E9CD
:102AF0000A23B3F1FF3F08BFB2F1FF3F05D052EA0E
:102B00000301206803D100F0FDFD3034C6E73146F3
:102B1000183000F09FFFF8E775040020D450000043
:102B2000D45000004F4C00002001002008B503489D
:102B3000034A0021121A01F0ABFF08BD80000020FB
:102B40007804002070B5002386B00122CDE904236B
:102B5000114E124D01930F22CDE902321049142378
:102B600003FB005506EBC0164FF4A072044602FBAF
:102B700000110C4B0095304600F0EAFA737B2C7480
:102B800023F004037373084BEE60013403EBC4239A
:102B90006B6006B070BD00BFA00000203C040020A8
:102BA000780C0020994A000078040020BFB500206E
:102BB000FFF744FF294B83F30888294C294F6369A9
:102BC00043F4007363610025E02384F82230E57745
:102BD00025766576A57684F82050636A43F4E02371
:102BE000636284F82350FDF775FDFDF7D7FE4FF0C3
:102BF000FF33A362E362FDF76BFFFDF7F3FE1A48B4
:102C00001A4C00F00FFB01F015FF0120FFF716FF33
:102C10000220FFF713FF00F0EDFC154B15495C6136
:102C2000154B05930123CDE903534FF480623B46D6
:102C3000CDE901550095204600F08AFA627B0646F0
:102C400022F004022046627301F0C4FF2846FFF719
:102C500079FF3A4631462046FDF784FE780C002085
:102C600000ED00E06D2A0000A001002020010020FE
:102C70003C040020B80D0020C95200002DE9F341AA
:102C8000044617461E46EFF31188202383F312886B
:102C9000BFF36F8FC368334A7BB180689168884205
:102CA00019D057EA060318D188F31188BFF36F8F44
:102CB0006FF00F0002B0BDE8F081916891F90E103D
:102CC00021610133E3609368A36088F31188BFF347
:102CD0006F8F0020EEE72169F2E791F90E1090F96D
:102CE0000E309942A8BF19466FF07E029142B8BFDC
:102CF00011468B422DDD01F0DAFE0546CDE9007666
:102D000019482246414600F073FB0028E1D0EFF35A
:102D10001186202383F31288BFF36F8FA068D0B190
:102D2000236821699C420AD04BB193F90E30994235
:102D3000A8BF19466FF07E039942B8BF194601F04B
:102D4000B6FE40B10848314600F0E6FB6FF00A00DD
:102D5000B0E70025D2E7002DF4D186F31188BFF348
:102D60006F8FF3E73C04002076040020F8B58368F9
:102D70000546002B3FD0234A926893423ED1C36858
:102D8000012B03D9013BC3600020F8BDEFF311878D
:102D9000202383F31288BFF36F8F0169806801F0ED
:102DA00086FE2C68A54207D10023C5E9023387F3CC
:102DB0001188BFF36F8FE7E7002CF5D0D4E900321C
:102DC00013605A60637B002623F002036373C4E937
:102DD0000066A66004F1180001F0B3FFAC6094F93E
:102DE0000E302B612046A66701F0F4FE06483946F6
:102DF00000F092FBC8E76FF01500C6E74FF0FF3018
:102E0000C3E700BF3C0400207604002070B5EFF358
:102E10001186202383F31288BFF36F8F0468A042CA
:102E20001AD0CCB1D4E9003213605A60637B00251C
:102E300023F002036373C4E90055A56004F1180090
:102E400001F07FFF2046A56701F0C4FE3146084827
:102E5000BDE8704000F060BBD0E902329A4218BF72
:102E60000133836086F31188BFF36F8F70BD00BF9D
:102E70007604002013B5EFF31181202484F3128827
:102E8000BFF36F8F846844B1013C846081F3118883
:102E9000BFF36F8F002002B010BD52EA030406D1C9
:102EA00081F31188BFF36F8F6FF00F00F3E7CDE967
:102EB00000230246014800F09BFAECE7760400206C
:102EC0002DE9FF414F4E04462027EFF3118887F389
:102ED0001288BFF36F8FD4F88450F5B9022104F142
:102EE0009C0001F0FFFD002868D004F19405002249
:102EF0000121284601F0ECFE0028F8D100230293BE
:102F00004FF0FF324FF0FF33CDE90023414604F18B
:102F10008C023D4800F0BCFCD7E7D4F888202B6831
:102F2000C4F88430954208BFC4F88830D4F89C3087
:102F300043F00203C4F89C30EB6823F0040343F031
:102F40000103EB606B6888F31188BFF36F8F28462D
:102F50009847EFF3118887F31288BFF36F8FEB6800
:102F6000D80623F0010236D4EA60EB689A0716D53A
:102F7000306823F00203EB6088B10368002170B170
:102F80004268954235D1036869BB726833608242FA
:102F900000D17360002340F8083BFFF737FFD4F8F7
:102FA0009C3023F00203C4F89C3088F31188BFF3EF
:102FB0006F8FDB0589D400F025FB86E7D4F89C30C1
:102FC000D9069BD5C4F89C0088F31188BFF36F8F96
:102FD00004B0BDE8F08123F01103EB6005F11000AF
:102FE000FFF714FFC1E70B607368834208BF71608D
:102FF000D0E723B11A68014618461346BFE71A46C0
:10300000F9E700BF5C04002076040020F8B5C3682F
:103010009A0704460F46C3F340062ED45B071CD420
:103020000B680BB983680B60E368DD0744BFA368D6
:103030003B603D684CBF02260126002D3CD0204B52
:103040009A68D5F880309A420AD0D5F89C30D807D3
:10305000C3F3800214D46FF0120600233B6025E016
:1030600001F075FDD5F89C300028F0D1D907C3F3E5
:10307000C002F0D552B15B0708D46FF00F06ECE741
:10308000002AFAD1C3F3C003002BF6D1002323603A
:10309000D5F8883063B9C5E92144284601F02DFDF3
:1030A000E36843F00403E3603B68A3603046F8BD87
:1030B0001C60C5F88840F0E76FF01506CDE700BF4B
:1030C0003C0400200146014801F031BD40020020CF
:1030D000F0B589B004460020C4E921000E9D04F13A
:1030E0008C00C4E9230004F19400C4E9250055B321
:1030F0002879002840F2011008BF0120C4F89C0084
:1031000000204FF0FF364FF0FF37CDE90330CDE917
:103110000100CDE906670D4B0094204600F056F8FB
:1031200055B1296811B1204601F017FD6B791BB12B
:10313000237B43F001032373204600F0E3FAC4F835
:10314000804009B0F0BD0120D8E700BFC12E0000CB
:103150002DE9F04385B0984600F158030732C0E9E5
:103160001633109B037322F00705042300264373D4
:1031700001EB05090F9B83730F46C0E906664946BC
:103180008660C6730446FDF747F907300E9B20F0B2
:103190000700A066C4E9187502930D9B0193A9EB83
:1031A00000090C9B00934A46434639462046FDF7EA
:1031B000BDFB054B66659B6803B1DB6EE366484665
:1031C00005B0BDE8F08300BF3C040020F0B587B037
:1031D00000250595109D04950F9D03950E9D029564
:1031E000DDE912760D9D01950C9D00950446FFF7D3
:1031F000AFFFB6F1FF3F08BFB7F1FF3F05D056EA7A
:10320000070305D1204600F07DFA204607B0F0BD47
:103210003A46334604F11800014900F01BFCF4E77C
:103220004F4C000040F2011383810023C0E91833A2
:10323000C366014B986070473C040020094A9368BC
:103240006FF00A019967084958674B6843F080534B
:103250004B60002383F31188BFF36F8F9368986FDF
:10326000704700BF3C04002000ED00E070B590F90D
:103270000D20437B002A36DBD90634D11B4C63F08A
:103280007F032246437352F8183FE169934207D106
:10329000C0E900210860E06111E09942F8D01B68A4
:1032A000002BF5D090F90E5093F90E60B542F4D092
:1032B000AE42F2DD5968C0E9003108605860A56986
:1032C000954200D005B9E568A3685A7BD20604D1BF
:1032D000DA897F2A01D9AA6932B1AB4202D02846E5
:1032E00000F016FB656170BD6361FCE73C040020E3
:1032F00038B590F90D20437B002A014604DA03F02B
:103300007F03437301F02CFC0D4D2A46AB6852F845
:10331000184F944200D004B9EC688B4207D05A7B16
:10332000D20604D1DA897F2A01D9A2692AB1A3423F
:1033300002D0204600F0ECFA23466B6138BD00BF96
:103340003C040020B3F1FF3F08BFB2F1FF3F03D0C0
:103350000249183000F07EBB704700BF4F4C0000A0
:1033600070B590F90D20437B002A014604DA03F082
:103370007F03437301F0F4FB4B7B1C4C63F07F0332
:1033800022464B7352F8183FE069934207D1C1E9D6
:1033900000200160E16111E09842F8D01B68002B29
:1033A000F5D091F90E5093F90E60B542F4D0AE42CB
:1033B000F2DD5868C1E9003001605960A569A36871
:1033C000954200D005B9E5688B4207D05A7BD206FA
:1033D00004D1DA897F2A01D9AA692AB1AB4202D085
:1033E000284600F095FA2B46636170BD3C0400202E
:1033F000F8B50E4B0C4611460D4A98681060DDE991
:103400000667EFF31182202282F31288BFF36F8FD9
:103410009D68284601F0B6FB284632463B46FFF73A
:1034200091FF2046BDE8F840FFF708BF3C040020AC
:1034300064040020F8B50446EFF31187202383F3DA
:103440001288BFF36F8F437B03F01F02002A0CBF6B
:103450000126002649B239D103F07F03437301F0FE
:103460007FFB2C4D437B817363F07F032A464373BC
:1034700052F8183F934227D1E869C4E9002004605C
:10348000EC610FE09842F8D01B68002BF5D093F95F
:103490000EC06145F6D08C45F4DD5968C4E90031B1
:1034A0000C605C60AC69944200D004B9EC68AB6815
:1034B0009C4202D0204600F02BFA6C6187F3118801
:1034C000BFF36F8F3046F8BDE869DEE79B071ED576
:1034D000856801F045FB81732B689D4209D16B68BB
:1034E000C4E900531C606C60E8E76A689342F6D058
:1034F0001B68002BF3D093F90E209142F5D08A423D
:10350000F3DD5A68C4E9003214605C60D6E7817369
:10351000D4E700BF3C04002049B9EFF3058030B97F
:10352000054B5A699B689A4201D0FFF787BE81F329
:103530001188BFF36F8F70473C040020034648B9E1
:10354000EFF3058232B9064A51699268914201D07F
:10355000FFF774BE83F31188BFF36F8F704700BF0E
:103560003C040020EFF31181202383F31288BFF382
:103570006F8F054B9A68D37B013BD37381F311881E
:10358000BFF36F8F704700BF3C04002070B5EFF3AE
:103590001186202383F31288BFF36F8F144DAB681D
:1035A000DA7B0132DA732A4652F8184F944200D07F
:1035B00004B9EC685A7BD20604D1DA897F2A01D992
:1035C000A2692AB1A34202D0204600F0A1F9234605
:1035D0006B6186F31188BFF36F8FEFF311802023A7
:1035E00083F31288BFF36F8FBDE87040FFF7A6BF6B
:1035F0003C040020024B03F11802C3E90622704785
:103600003C04002070B5EFF31186202383F3128869
:10361000BFF36F8F1B4CA168E0690B68814214BF38
:103620001A46002249680B605960A368E1692AB90B
:10363000154AC3E900210B60E3610CE093F90E0029
:1036400092F90E50A84218D0854216DD5168C3E9A0
:1036500000210B605360A5690B4B9D4200D005B95A
:10366000E568A3689D4202D0284600F051F96561E3
:103670003046BDE87040FFF7E1BD8A42D8D01268FD
:10368000D5E700BF3C04002054040020F8B550EA00
:10369000010306460C4603D1FFF7B4FF0020F8BD36
:1036A000EFF31187202383F31288BFF36F8F124D3E
:1036B000124BA8681860FFF71BFEA8681049234644
:1036C0003246183000F0C6F9AA68537B43F0040371
:1036D000537304463846FFF7B1FDAB68D3E90A23BC
:1036E000B3F1004F08BF002AD8D101F052FB201AD5
:1036F00020EAE070D3E700BF3C040020640400200F
:103700004F4C000038B50446EFF31185202383F3B6
:103710001288BFF36F8F437B5B070FD5183001F022
:1037200010FB637B23F0040320466373FFF79EFDC9
:1037300029460548BDE83840FFF7EEBE85F31188FD
:10374000BFF36F8F38BD00BF76040020014B98682F
:10375000704700BF3C0400202DE9F8430446077B76
:10376000EFF31185202383F31288BFF36F8F437B20
:10377000190705D585F31188BFF36F8FBDE8F8836E
:10378000D90943F008025AD14273A36813B1204605
:1037900001F0EEF904F1180001F0D3FAA66D04F17E
:1037A0005808B04511D04FF0000976B1304601F00D
:1037B000DFF906F1180001F0C4FAC6F87890304637
:1037C000FFF754FDA66DB045EFD1DFF8B880D8F80B
:1037D00008309C423BD1EFF30589B9F1000918BFCD
:1037E0004FF00109D8F81860274A964200D00EB968
:1037F000D8F80C60B34202D0304600F089F8C8F81F
:103800001460B9F1000F02D02048FFF70BFDD8F883
:1038100008309C4231D1EFF3058373BB227BD20782
:1038200018D42846FFF70AFDFB07A7D5002383F32A
:103830001188BFF36F8F0423184602DF9EE703F061
:103840007F0343F00803437301F08AF99DE74FF0CB
:103850000009C7E785F31188BFF36F8F83F31188E1
:10386000BFF36F8F0423184602DFEFF3118020238C
:1038700083F31288BFF36F8FD4E785F31188BFF30A
:103880006F8FD1E73C04002054040020A0010020E9
:10389000D3B5DDE90667089CCDE90067FFF7A8FD11
:1038A0001CB1034B9B681B69236002B0D0BD00BFF5
:1038B0003C040020044BC01A044BC0105843044B76
:1038C00001221A54704700BF20020020ABAAAAAA06
:1038D00076040020C3897F2B12D80A4B1B6863B182
:1038E000094B90F90E201B689A4209DB437BDB06EB
:1038F00006D1064BC31A18BF012303F0010070471D
:103900000023FAE73000002068040020A000002017
:1039100070B50E4B0E4C1E7C06EB460304EBC30445
:103920000546204601F00DFA0A4B002228469A551A
:10393000FFF7D0FF48B1084B08491A68013A204602
:10394000D317BDE8704000F085B870BD3C0400207E
:10395000200200207604002030000020B53800004E
:1039600038B5EFF31185202383F31288BFF36F8FEF
:10397000104B114A9C681068A04206D1FFF7C8FF9F
:1039800085F31188BFF36F8F38BD00211B7C116058
:103990000A4AD35C002BF3D02046FFF79BFF002898
:1039A000EED0637BDB0602D12046FFF7D9FC204630
:1039B000E4E700BF3C0400206404002076040020FB
:1039C0000748084A084908B5121A01F063F8074881
:1039D000074A0849BDE80840121A01F05BB800BF69
:1039E0000000002080000020E852000000000020BD
:1039F00000000020E8520000024B1868984208BFFF
:103A00000020704734000020034B1B680BB9FEF701
:103A1000ABB90020704700BF6C04002030B570B116
:103A20000B4B5B6898420AD0036843B1D3E9042189
:103A3000D0E90445121941EB0501C3E90421D0E99D
:103A4000003213605A600023C0E9003330BD00BF6C
:103A500034000020B3F1FF3F08BFB2F1FF3F2DE972
:103A6000F84F0446994615461F467BD08160EFF318
:103A70001188202383F31288BFF36F8F013279F10D
:103A8000FF33DFF8E8A020DBFFF7BEFFDAE900270D
:103A9000013549F100092D1849EBE073C4E90453DD
:103AA000AD18064643EB07074FF00109FFF7A4FFE7
:103AB000DFF8BCE0DEF804A00346EBB9C4E900EA95
:103AC000CAF80040CEF8044028E0DAE900126FF0AE
:103AD00001035B1A4FF0FF3161EB02025B1B62EBEB
:103AE0000902012B72F10001BCBF01230022C0E9D1
:103AF00004324FF00009D9E7D3E9041CD4E90420CB
:103B00008A4270EB0C0B24DA891A5A686CEB0000BD
:103B1000C3E90410C4E9003214605C60FFF76CFF75
:103B200084420ED1134B1B685BB9B9F1000F02D16F
:103B3000FFF76AFF0646304601F0ECF80021FEF779
:103B4000E5F888F31188BFF36F8F28463946BDE842
:103B5000F88F521A60EB0C009A45C4E90420ADD0EE
:103B60001B68AAE700252F46EFE700BF38020020B8
:103B7000340000206C0400202DE9F047EFF311859C
:103B8000202383F31288BFF36F8FDFF8A490DFF850
:103B9000A480C9F80000FFF72FFF00260027D9F8FE
:103BA0000030D8E900ECD91750B1D0E90442A34263
:103BB00071EB020A1CDAE41A62EB0102C0E904426A
:103BC00013EB0E034FF000044CEB01012046C8E953
:103BD0000031C9F8004001F09DF82146FEF796F843
:103BE00085F31188BFF36F8FBDE8F047FFF7B8BECC
:103BF00014EB0E024CEBE473C0E90467C8E9002340
:103C0000FFF70CFF85F31188BFF36F8F8368984728
:103C1000EFF31185202383F31288BFF36F8FD9F858
:103C200000301B1BC9F80030FFF7E6FEB7E700BF06
:103C30006C0400203802002010B5EFF3118420231B
:103C400083F31288BFF36F8FFFF7DEFE054A03464A
:103C5000D2E90001181841EBE37184F31188BFF336
:103C60006F8F10BD38020020F8B50446EFF31187BE
:103C7000202383F31288BFF36F8F026822B187F38A
:103C80001188BFF36F8FF8BDD0E90A36581C46F192
:103C90000001022871F1000127D3012B76F1000108
:103CA000BCBF012316465D1E46F1FF3601F075F8D4
:103CB000013041F10001401946EB0101012871F189
:103CC000000139DB01F069F8013041F100016FF0CA
:103CD0000102401946EB0103121A4FF0FF3161EB6C
:103CE000030318492046FFF7B5FE236B0133236316
:103CF000236A6BB187F31188BFF36F8F236A204665
:103D00009847EFF31187202383F31288BFF36F8F57
:103D100054F8185FA542B2D0002DB0D0284600F06C
:103D200068FF0023AB6787F31188BFF36F8F2846C6
:103D3000BDE8F84000F04EBF6FF001024FF0FF33D6
:103D4000CFE700BF693C00002DE9F04105461C4665
:103D500090461F46EFF31186202383F31288BFF3AA
:103D60006F8FB4F1FF3F08BFB2F1FF3F05D186F37B
:103D70001188BFF36F8FBDE8F081531C74F1FF33DE
:103D800009DB012A74F10003BCBF0122002412F1F7
:103D9000FF3844F1FF37284600F0D3FFDDE9060184
:103DA0000023C5E90A012B6342463B4628460249E7
:103DB000FFF750FEDBE700BF693C000007B5074B8B
:103DC0000093074907484FF0FF334FF48062FFF735
:103DD0007FF9002003B05DF804FB00BFE451000050
:103DE000B8110020400200200FB407B5064B04AA0A
:103DF000186852F8041B019200F008F803B05DF84F
:103E000004EB04B0704700BF745100002DE9F04F7F
:103E10008DB043680293837815469A07804640F137
:103E20000D8100240E78002E00F00A81252E0BD083
:103E30004B1C03930134029B4146304698470028AF
:103E4000C0F2F6800399EDE74E788B1C252E039384
:103E5000F0D00027B946BB46BBF11F0F38D8A6F1FA
:103E60002003102B0AD8DFE803F02A0909300909DA
:103E7000092109090928092D09091F00A6F13003A4
:103E8000092B33D92A2E37D11BF0400F55F8043BAC
:103E900040F08280002BA7BF4BF0200B9946C3F166
:103EA00000094BF0280B01E04BF0010B039B13F8CA
:103EB000016B0393002ECFD130E04BF0020B4BF09F
:103EC000040BF3E74BF0080BF0E74BF0100BEDE7BA
:103ED000BBF17F0F19D8A6F13003092BD2D81BF004
:103EE000400F03D00A2101FB0737DFE70A2101FB5E
:103EF00009394BF0200BD9E72E2E06D11BF0400FCD
:103F000040F09E804BF0400BD0E76C2E31D02BD888
:103F1000682E36D06A2E3CD04C2E3AD0002F46F078
:103F20002003B8BF2BF04002A3F16501BCBF1FFA0C
:103F300082FB0027022901D9612B2FD1073525F0FB
:103F40000705DFF8ACA2083507271BF0080F66D07D
:103F50000AEB070B56465E4563D1A4EB0A0A06EB53
:103F60000A02A9EB07096FE1742E9FD07A2E9DD02B
:103F7000D4E71BF0800F18BF4BF4007B4BF0800B95
:103F800094E71BF4807F18BF4BF4007B4BF4807BDD
:103F90008CE74BF4207B89E71F4687E7A6F1630196
:103FA000122900F2F080DFE811F013004F00EE005C
:103FB000EE00EE00EE004F00EE00EE00EE00EE0030
:103FC000EE00FE00E900EE00EE001B00EE00AF0088
:103FD00055F8043B8DF8183001270DF1180AB4E7A5
:103FE00055F804AB834BBAF1000F08BF9A461BF09B
:103FF000400F14BF39464FF0FF31504600F001FF2B
:104000000746A2E7029B41462020984700280FDB85
:10401000013EB742F6D34C44A41BB14698E74E4646
:10402000F7E716F8010B029B41469847002892DA01
:1040300098F8023043F0040388F802304FF0FF3460
:1040400020460DB0BDE8F08F1BF0800F34D01BF47C
:10405000007F2CD0073525F00705AA4669685AF875
:10406000080B2BF010050029ADB237DA404261EBA6
:10407000410145F480650DF1180B0A235A4600F002
:10408000CCFEA0EB0B0301936B0662D5019B25F0E0
:1040900001019F4289B240F3A180002E00F0998077
:1040A00015F0100240F09C80BB460D4623E0AA4666
:1040B0005AF8040BC117D4E7AA461BF4807F5AF8BC
:1040C000041B01D10846F5E71BF4007F15BF48B279
:1040D00008B241F3C01141F3C031C2E750EA010315
:1040E000C9D11BF0400FC6D0002FC4D12BF0110254
:1040F00095B2BB46019740F2064115EA01021CBF8A
:104100000BF1010B00222CE02BF010021FFA82FBB6
:104110000A231BF0800C49D01BF400711DBF07352A
:1041200025F00705AA46AA461ABF5AF8080B69687F
:104130005AF8040B50EA010545D12BF016051BF087
:10414000400FADB242D0002F40D12BF0170295B2F4
:10415000019715F0100248D0019B002E42D103F1C7
:10416000010B29075AD4EB0706D5D9456FDD019914
:10417000A9EB0B035F18CB465B4649E04BF0100BF5
:1041800010237826C5E7782B04D1C6F1780343F0D5
:104190001003BEE7029B4146252098470028FFF602
:1041A00047AF023447E608230026B2E7AA461BF4CD
:1041B00080715AF8040BBDD01BF400711ABFC0B255
:1041C000614680B2B6E72BF0060295B20DF1180BEE
:1041D00054E725F01105ADB2BB468CE70D46B8E7B4
:1041E0003B460D4603F1020BBBE7DDF804B082E766
:1041F000DE520000D7520000CDE904324146029B56
:10420000202098470028FFF613AF049B059A01333E
:104210009945F1DCA4EB0B01CC189B460AB3029B39
:104220004146302098470028FFF602AF8EB901348E
:104230002744019B391B994224DC1D465DBB019A32
:10424000A9EB0B09224455461446914435E0019FE1
:1042500092E7023441463046029B98470028E7DA4D
:10426000E6E640F206410D42E2D015F0020F14BF1F
:104270002B20202015F4806F04F10104414618BF63
:104280002D20E9E7029B414630209847002804F1A1
:104290000104CEDACCE606AB013D4146585D029BF7
:1042A00098470028CADAC3E6029B41462020984777
:1042B000002804F10104FFF6BBAEA9EB0403002BB8
:1042C000F2DCBFE57047836800EBC101B3F5004F36
:1042D0002CBF51F8220031F81200704700EBC101E9
:1042E0008068B0F5004F2CBF41F8223021F8123021
:1042F000704708B50122FFF7E6FFD04008BD83688C
:10430000B3F5004F00EBC10108D34B681AB143F07D
:1043100001034B60704723F00103FAE74B881AB1A1
:1043200043F001034B80704723F00103FAE7530089
:104330000122FFF7D3BFB0F5004F34BF0423082399
:10434000481C0833A0EBD300B0FA80F0C0F11F0086
:1043500070472DE9F0410D4686680446FFF7C9FF16
:10436000B6F5004F014601D3012832D03046FFF7A1
:10437000E2FF04EB80010E6996B9E36801228240F6
:104380001343E36002220D612B4629462046FFF7C6
:10439000A5FF032229462046BDE8F041FFF79EBF56
:1043A000022231462046FFF78EFF29460346074684
:1043B0002046FFF793FF0322334629462046FFF7A6
:1043C0008DFF39462B462046FFF788FF02223146F3
:1043D000E1E7BDE8F081B2F5802F2CBF082304236C
:1043E000D21A2DE9F0418C18CD1D25F0070524F0D7
:1043F0000704641B0026E40805602146AC60EE60FB
:104400002046FFF798FF421D9200013002F1070796
:104410004FEAD707A2F110023146B8BF324605F184
:10442000100000F0E6FC3A4631462846FFF77FFFD1
:104430003346324631462846FFF750FFA4EB0708C3
:10444000284631460122FFF75AFF42463946FFF718
:104450006EFF3B46324639462846FFF73FFF21466E
:104460002846FFF764FF4346324621462846FFF7B9
:1044700035FF214628460122FFF741FF3946BDE8B6
:10448000F041FFF766BF002070470FB407B504A9DD
:1044900051F8040B0191FBF767FE03B05DF804EBE4
:1044A00004B07047038B13F0070305D10368002B9A
:1044B0000CBF002003207047022B05D1408BB0FABF
:1044C00080F0400980007047012B05D10368002B64
:1044D0000CBF0020052070470020704710B50C4627
:1044E00000B111B96FF0150010BD081D00F0B7F84C
:1044F0000028F9D1A368032BF6D9F3E72DE9F041A1
:104500000D4607461946281D90461E4600F0B8F88D
:10451000044638B13346424629463846A446BDE8EB
:10452000F0416047BDE8F08110B4EFF31182202420
:1045300084F31288BFF36F8F416110BC0121FBF738
:1045400045BE38B50C46054658B151B10B6843B16C
:104550004B6833B11C22002100F04BFC2C61002081
:1045600038BD6FF01500FBE770B505460E46FFF746
:10457000B5FF041E14DBEFF31182202383F31288AE
:10458000BFF36F8F6B8B2C8B4FF6FF718B4204F058
:10459000070407D182F31188BFF36F8F6FF00A040D
:1045A000204670BD022C0CD101336B8382F311883D
:1045B000BFF36F8F0023224631462846FFF79EFF48
:1045C000EEE7062C14D8DFE804F004131313041AE2
:1045D0000400002333606B683BB9C5E90066ACB9E1
:1045E00002212846FBF7F2FDDAE71E606E60F6E76F
:1045F00082F31188BFF36F8F6FF00404D0E782F36A
:104600001188BFF36F8F6FF08504C9E782F31188BB
:10461000BFF36F8FC4E710B5EFF31182202383F34C
:104620001288BFF36F8F048B04F00704022C0AD0AA
:10463000012C0CBF6FF004006FF0850082F311882D
:10464000BFF36F8F08E0438B013B9BB2438323B9D9
:104650002146FBF7BBFD204610BD2046EEE7034692
:1046600058B1426802F00302012A03D0032A04D1A0
:10467000026812B10020986070476FF01500704713
:104680004268816002F00302032A4FF000020346F1
:104690000CBF006810465A6070477047012801D16E
:1046A000EFF30583FEF7B2B901460068FFF7F6BFE6
:1046B00008B5FBF7ADFEBDE80840FBF7CDBE002115
:1046C0000120FFF7EBBF61B662B680F31188BFF33C
:1046D0006F8F704772B6002383F31188BFF36F8F1B
:1046E000BFF34F8F30BF62B6BFF36F8F704772B6A4
:1046F000002383F31188BFF36F8FBFF34F8F20BF69
:1047000080F31188BFF36F8F62B67047202809D9F4
:10471000B0F1004F08D80138B0FA80F0C0F11F00A6
:1047200040007047082070473E20704708B5FCF7EE
:1047300083FA002008BD0369C9B20C2201FB0233D1
:10474000186C00F00700704770B5C9B20369EFF349
:104750001185202484F31288BFF36F8F0C2606FB8B
:104760000134246C14F0C00408D0A24206D085F3B2
:104770001188BFF36F8F4FF0FF3070BD06FB013320
:1047800001221A6485F31188BFF36F8F436803EB2E
:10479000C1035B6898470020EFE78022FFF7D4BF92
:1047A000F8B5069F0469C9B2EFF31186202585F399
:1047B0001288BFF36F8F0C2505FB0144256C05F0B3
:1047C000070CBCF1010F0CD1276486F31188BFF3ED
:1047D0006F8FC4E90E23436853F8313098470020A7
:1047E000F8BD05F0C005AF4286F31188BFF36F8FA7
:1047F0000CBF6FF077004FF0FF30F1E713B5802466
:104800000094FFF7CDFF02B010BD10B40069CBB229
:104810001C2403FB0400002110BC10471046FEF7C7
:10482000F5BA08B5FCF77EFCBDE80840002000F0B2
:1048300087B8FCF7C7BB43685B68D3F810350B60DB
:104840000020704743685B6802EA010021EA020128
:10485000C3F80805C3F80C150020704743685B686F
:104860000020C3F80815704743685B680020C3F850
:104870000C15704743685A68D2F8043521EA0300E2
:104880000B40C2F80805C2F80C350020704710B57F
:1048900003695868F8B1884219D19C680868586063
:1048A000A14200D19860002008602AB15A680A60CD
:1048B0009A68596002B99960002010E0814206D1DF
:1048C0000868206098688142EDD19C60EBE704465F
:1048D00000680028F2D1002AE8D16FF0150010BD61
:1048E00030B543681360057A446804EBC504A342FD
:1048F00002D36FF0010030BD5C798C4201D00833E7
:10490000F0E70020F7E700F150039B009BB203F1B2
:10491000804303F5883300221A601B6870474FF00C
:104920008053D3F83001421C04BF4FF0704393F81A
:10493000E00F831F584258417047004700F076B897
:10494000FDF7B8BB036803F01F025B0902600CBFF0
:104950004FF0A04000207047F7B5019001A8DDE9B5
:10496000084716461D46FFF7EDFF019BB6F1000C08
:1049700018BF4FF0010C00EB83000B1E18BF012382
:10498000002D43EA4C0314BF4FF00C0C4FF0000C09
:10499000002C43EA0C0314BF4FF4E06C4FF0000C02
:1049A000002F43EA0C03D0F8002714BF4FF4403C1B
:1049B0004FF0000C43EA0C0322EA030301B109782B
:1049C0000EB13678760019430DB12D78AD00314324
:1049D0000CB12478240229430FB13F783F040C43E3
:1049E0003C43C0F8004703B0F0BD1FB50DF10F0305
:1049F000019300238DF80F1000931A461946FFF714
:104A0000ABFF05B05DF804FB024611F0010007D0D2
:104A10004FF0A041D1F820351360C1F8203503B91B
:104A200000207047FDF744BDFDF722BD08B1FCF73B
:104A300031B97047704740B1C368587810F0010031
:104A40001EBF1878B0FA80F040097047EFF3118369
:104A5000202383F31288BFF36F8FFEE708B5FFF7BB
:104A6000F5FF10B54369044633B90020E268537876
:104A700043F00103537010BD98470028F5D000287B
:104A8000B8BF4042E368FF28A8BFFF201870EDE7D9
:104A900000F0AFB900F09FB908B52024EFF31183FF
:104AA00084F31288BFF36F8FFFF714FEF6E790F9D7
:104AB0000E308B4201D0FEF7BDBC0020704703468C
:104AC0000020C3E90200C3E9003370473AB18A42CB
:104AD00005D3C0E90212C0E90000002070476FF062
:104AE00015007047026801238B4022EA030303602C
:104AF00022FA01F000F00100704720B100221146B7
:104B00008C3000F0E5B8704713B501900846EFF31C
:104B10001184202383F31288BFF36F8F01A9FEF75E
:104B200075FA84F31188BFF36F8F02B010BD10B512
:104B3000FFF7EAFF041E08DDEFF31180202383F363
:104B40001288BFF36F8FFEF7F9FC204610BDEFF31C
:104B50000580003818BF012070476FF0570070477C
:104B6000D0E9003213605A600023C0E90033704777
:104B700008B5FFF7F5FF437B23F0020343730023DF
:104B8000836008BD38B504460D46FEF7B1FB637B74
:104B900043F002036373E5B1A5602B689D4209D120
:104BA0006B68C4E900531C606C6012E06A689A424A
:104BB000F6D01B68002BF3D094F90E2093F90E1059
:104BC0008A42F3D09142F1DD5A68C4E900321460A0
:104BD0005C6038BD10B5EFF31184202383F3128895
:104BE000BFF36F8FFEF742FB84F31188BFF36F8F23
:104BF00010BD08B5EFF31181202282F31288BFF3B4
:104C00006F8F83680BB1FFF7B3FF81F31188BFF398
:104C10006F8F08BD10B50146EFF31184202383F395
:104C20001288BFF36F8F437B13F0280F0AD183687C
:104C30000BB1FFF79DFF4B7B23F004034B7308463A
:104C4000FEF714FB84F31188BFF36F8F10BD0121B1
:104C50001838FFF7DFBF08B50346EFF311812022B4
:104C600082F31288BFF36F8F0068834207D008B1C8
:104C7000FFF77EFF81F31188BFF36F8F08BD00201F
:104C8000F8E738B504460D46FEF700FDB5F1FF3FE5
:104C900008BFB4F1FF3F0246204618D000204FF471
:104CA0007A7447F6FF730146C2FB0431B3F5004F37
:104CB00071F100020BD36FF400429A4243F6FF7287
:104CC0008A4126BFD80B40EA41406FF0004038BD12
:104CD00038B5EFF31185202383F31288BFF36F8F6C
:104CE0000468A04212D09CB1A16722612046FFF760
:104CF0003FFF04F1180000F024F82046FEF7B6FA52
:104D0000012085F31188BFF36F8F38BD0020F8E7CD
:104D10002046F6E708B50246FEF76EFE70B1D0E910
:104D200004319B1A61EBE272B3F1004F72F10001A2
:104D300004DA002AACBF1846002008BD6FF000401E
:104D4000FBE738B50246EFF31185202383F3128881
:104D5000BFF36F8F0368CBB1FEF74EFE04461046DB
:104D6000FEF75CFE00224FF000438442C0E90423BA
:104D700006D1FEF749FEFFF7CDFF0021FCF7C6FF85
:104D8000002085F31188BFF36F8F38BD6FF01500D9
:104D9000F7E708B5FEF750FF08BDFEF74DBF10B5A9
:104DA0000446FFF7CEFFA8B9636A0BB120469847C7
:104DB00004F11800FFF74FFF60B1FFF70BFFEFF3AF
:104DC0001180202383F31288BFF36F8FBDE810405A
:104DD000FEF7B4BB10BD0A44914200F1FF3300D18D
:104DE000704710B511F8014B03F8014F9142F9D10A
:104DF00010BD02440346934200D1704703F8011BE3
:104E0000F9E710B5024601448A42134603D01C78E4
:104E10000132002CF8D1181A10BDF0B5C3F13707D4
:104E20000446FFB203F01F031046082BE6B233D04E
:104E3000102B3ED06508A40844EA817445EAC17588
:104E40002D194FEA910242EB5102290941EA027100
:104E50006D1842EB1212290A41EA02616D1842EB09
:104E60001222290C41EA02416D1842EB1242AD18A0
:104E700042F10002EC0844EA4274D10804EB8402D7
:104E8000A6EB4205EDB2092D0CD90134A5F10A05B6
:104E900041F10001EDB212E0E40844EA417406F089
:104EA0000705C908303554EA010200F8015BBCD19E
:104EB000F0BD240944EA017406F00F050909092D23
:104EC00084BFED19EDB2EDE70148006870470000BE
:104ED000E0020020850C000000000000000000003F
:104EE0001C4F0000000000003C4F000000000000CC
:104EF0005C4F00004111000000000000A91B0000F1
:104F000000000000610C000000000000BD3D00003A
:104F100000000000000000007C4F00007452000000
:104F200084510000145100003C00002008030020C0
:104F30001D0D000000000000000000008352000072
:104F400094510000D45000003E0000207C0300205B
:104F50004D1300000000000000000000A7520000F8
:104F6000AC5100003051000042000020240000201D
:104F7000A917000000000000000000009952000086
:104F800000000000F85000004000002088030020CE
:104F9000B916000000000000000000001923000006
:104FA0003B49000000000000BF4600000000000078
:104FB000BF46000000000000BF46000000000000E7
:104FC000BF46000000000000BF460000B9280000F6
:104FD0003B49000000000000BF4600000000000048
:104FE000BF46000000000000BF46000000000000B7
:104FF000BF46000000000000BF4600007C4F0000DC
:105000002916000000000000BF460000000000005C
:10501000BF46000000000000BF4600000000000086
:10502000BF46000000000000391C00000000000026
:10503000BF46000000000000BF4600000000000066
:10504000BF46000000000000BF4600000000000056
:10505000BF46000000000000BF4600000000000046
:10506000BF46000000000000BF4600000000000036
:10507000BF46000000000000BF4600000000000026
:10508000BF46000000000000BF4600000000000016
:10509000BF46000000000000BF4600000000000006
:1050A000BF46000000000000BF46000000000000F6
:1050B000BF46000000000000BF46000000000000E6
:1050C000BF46000000000000BF46000000000000D6
:1050D000BF460000CD1100003748000045480000E1
:1050E0005D48000069480000754800009513000005
:1050F0008F480000000000000000000000000000D9
:105100000000000041160000FD1500000000000036
:10511000000000007D0D00009B470000FD470000DF
:105120000000000037470000000000000000000001
:0C513000F91600002D1700001D170000EC
:105140000338FDD870470000000000200000000078
:1051500000000B06020000005C510000000000008F
:105160006552000024000206000000206D5200007D
:105170001E000B1104000020D90C0000A90C000037
:1051800000000000890E0000D50D0000B10D0000E8
:1051900023480000FFFFFFFF000000500000000058
:1051A000000000000060004000000000B05100005E
:1051B00000200040BC51000001000000C45100006C
:1051C000020000001200000113000000D44E000095
:1051D000D44E0000FC4E0000044F00001C4F0000A5
:1051E0001C4F0000CE520000000100004F4E004F47
:1051F0004646004C45442073746174653A2025731B
:105200000A002A2A2A20426F6F74696E67206E5244
:105210004620436F6E6E6563742053444B20763393
:105220002E312E312D65326139376665323537388A
:1052300061202A2A2A0A002A2A2A205573696E67C1
:10524000205A6570687972204F532076342E312EA3
:1052500039392D66663866306335373965656220C1
:105260002A2A2A0A00464C4153485F3000535241D3
:105270004D5F3000636C6F636B40343030303030E2
:105280003030006770696F4035303030303030304A
:1052900000000102030405060774656D7040343098
:1052A00030306330303000756172744034303030EB
:1052B0003230303000000000000100000001010029
:1052C0000001010101000000006D61696E00737949
:1052D00073776F726B7100286E756C6C29002A668B
:1052E0006C6F61742A000000874400000000000019
:1052F0002D4700000000000000000000000000003A
:1053000045100000000000000000000000C2010085
:1053100000010300FF0000009002000034000020A4
:0C5320003400002000000000000000002D
:105330000000000000000000693C000000000000C8
:10534000000000000000000060000020600000205D
:1053500033480000000000000000000000000000D2
:0C536000000000000000000015E015E057
:00000001FF
