:10000000583500200D290000FFA60000F928000047
:10001000F9280000F9280000F9280000000000007D
:10002000000000000000000000000000752A000031
:10003000F9280000000000001D2A0000F928000037
:10004000212C0000212C0000212C0000212C00007C
:10005000212C0000212C0000212C0000212C00006C
:10006000212C0000212C0000212C0000212C00005C
:10007000212C0000212C0000212C0000212C00004C
:10008000212C0000212C0000212C0000212C00003C
:10009000212C0000212C0000212C0000212C00002C
:1000A000212C0000212C0000212C0000212C00001C
:1000B000212C0000212C0000212C0000212C00000C
:1000C000212C0000212C0000212C0000212C0000FC
:0C00D000212C0000212C0000212C00003D
:1000E0007BB972B90029BEBF00204FF0004106E085
:1000F00008BF00281CBF6FF000414FF0FF3000F038
:1001000057B8ADF1080C6DE904CE002909DB002BCE
:100110001ADB00F057F8DDF804E0DDE9022304B053
:100120007047404261EB4101002B1BDB00F04AF8B5
:10013000DDF804E0DDE9022304B0404261EB410157
:10014000524263EB43037047524263EB430300F0B8
:1001500039F8DDF804E0DDE9022304B0404261EB48
:1001600041017047524263EB430300F02BF8DDF886
:1001700004E0DDE9022304B0524263EB430370471D
:1001800053B94AB9002908BF00281CBF4FF0FF31FE
:100190004FF0FF3000F00CB8ADF1080C6DE904CE63
:1001A00000F010F8DDF804E0DDE9022304B0704748
:1001B000704700BF034613F8012B002AFBD1181A21
:1001C000013870472DE9F04786468C460846089E60
:1001D000154674461946002B40F0C2808542B2FA9B
:1001E00082F245D94AB1C2F1200300FA02FC2EFA8C
:1001F00003F3954043EA0C0C94404FEA154EA8B225
:10020000BCFBFEF8230C0EFB18CC08FB00F943EAFC
:100210000C43994528D9EB1808F1FF3704D29945CA
:1002200002D9A8F102072B44A3EB0903A4B2B3FB44
:10023000FEFC0EFB1C330CFB00F044EA0344A0421E
:1002400014D92C190CF1FF3304D2A04202D9ACF11D
:1002500002032C44241A43EA07401EB1D440002371
:1002600034607360BDE8F0874746DDE76346F1E739
:1002700092BB431B01214FEA154EAFB2B3FBFEFC0C
:10028000200C0EFB1C330CFB07F840EA0343984597
:1002900062D9EB180CF1FF3004D2984502D9ACF1C9
:1002A00002002B44A3EB0803A4B2B3FBFEFC0EFB3D
:1002B0001C330CFB07F744EA0344A7424ED92C1920
:1002C0000CF1FF3304D2A74202D9ACF102032C4453
:1002D000E41B43EA0040C0E7C2F1200320FA03F127
:1002E000954090402EFA03F303434FEA154EAFB208
:1002F000B1FBFEFC0EFB1C10190C0CFB07F841EACD
:100300000041884504FA02F422D969180CF1FF3043
:1003100004D2884502D9ACF102002944A1EB0801BE
:100320009BB2B1FBFEFC0EFB1C110CFB07F743EA72
:1003300001439F420ED9EB180CF1FF3104D29F42CA
:1003400002D9ACF102012B44DB1B41EA004192E7E8
:100350006046E3E76146F7E76046A3E76346B7E731
:10036000834206D916B9002108467BE7C6E900E0BA
:10037000F9E7B3FA83F78FB9834201D3724508D8FE
:10038000BEEB020460EB030301209C461EB9002172
:1003900068E73846FAE7C6E9004CF8E7C7F1200CF1
:1003A000BB4022FA0CF41C432EFA0CF120FA0CF399
:1003B000B84001434FEA14490EFA07F5B3FBF9F8C8
:1003C0001FFA84FE09FB18300B0C08FB0EFA43EAF7
:1003D00000439A4502FA07F240D9E31808F1FF30CA
:1003E00004D29A4502D9A8F102002344A3EB0A03E0
:1003F00089B2B3FBF9F809FB183308FB0EFE41EA9A
:1004000003418E452CD9611808F1FF3304D28E4583
:1004100002D9A8F10203214443EA0040A0FB02985C
:10042000A1EB0E014145CE46434602D306D14D45D0
:1004300004D2B9EB020E68EB04030138002EA6D0FB
:10044000B5EB0E0261EB030101FA0CFC22FA07F393
:100450004CEA0303F940C6E9003198E74046C5E796
:100460004346D9E70000000010B50468E2175301C5
:1004700043EAD4636101091B63EB02035B0243EAB5
:10048000D1534902091942EB030C4FEA8C1E4EEA84
:10049000916E8B015B1A6EEB0C0E1B1942EB0E0278
:1004A00041685B1842EBE172012B72F100011ADB2B
:1004B000D91842EB0200CB1842EB0002110141EACD
:1004C00013711801C01A61EB0201890041EA9071B1
:1004D0008000154BC01812A3D3E9002341F100019D
:1004E000FFF7FEFD10BDD91842EB0200CB1842EB1E
:1004F0000002110141EA13711801C01A61EB0201F7
:10050000890041EA90718000084BC01804A3D3E928
:10051000002361F10001FFF7E3FDE3E7AFF30080A3
:10052000D8EF2F0000000000ECF717001408E8FFD8
:1005300008B500F0A7F8012000F0EAF8022000F06A
:10054000E7F8032000F0E4F800F062F8154A032110
:10055000154809F0CBFF154808F0AFFF00F0F0F8A0
:10056000A8B9134808F0A9FF124A03210E4809F060
:10057000BDFF114B1B6873B9104B1B68002BF3D0E8
:10058000032000F0C5F80D4B00221A60ECE70C4880
:1005900008F093FFE8E7022000F0BAF8064B0022CB
:1005A0001A60E9E798D60000E8D50000B0D6000050
:1005B000D0D6000004D70000D41A0020D01A0020A2
:1005C000E4D6000038B5836805699C697CB112F4F3
:1005D000000F06D02D6801238B401D4201D082F010
:1005E000C062044B134002F0B072A04738BD6FF0F8
:1005F0005700FBE740000006014B01221A607047DC
:10060000D41A0020014B01221A607047D01A002032
:1006100038B5154C4FF48031204608F034FD4FF0CA
:10062000B861204608F0FFFC1049114B4B604FF4B5
:1006300000638B600F4C204608F030FD0E4D4FF4E8
:100640008031284608F01FFD4FF07071284608F0F1
:10065000EAFC0A490A4B4B604FF480538B602046FA
:1006600008F01CFD38BD00BF2CD70000C41A0020C4
:10067000F905000028D3000024D70000B81A002094
:100680000506000010B514480CF098F908B90020D0
:1006900010BD11480CF092F908B90020F8E70E4897
:1006A0000CF08CF908B90020F2E74FF4D0110B4898
:1006B00008F026FD04464FF4D011094808F020FD4B
:1006C00004434FF4D011074808F01AFD044301D445
:1006D0000120DDE70020DBE728D3000044D700003D
:1006E0003CD7000034D70000022807D0032807D0E9
:1006F000012801D000207047024870470248704727
:100700000248704744D700003CD7000034D70000AF
:1007100038B5FFF7E9FF0546002406E0284608F053
:1007200017FD064807F0E4FD01340B2CF6DD00222E
:100730002979286808F0FFFC38BD00BFA0860100B9
:1007400008B50848084B18600CF038F920B1074884
:1007500008F0B3FE002008BD054808F0AEFE6FF0BB
:100760001200F8E7A8D30000D81A002074D70000C0
:1007700058D700002DE9F04F91B00592029313462F
:1007800002F004020092C3F3C20210F003030193CB
:1007900040F02B8280468A460132041D00284FD04B
:1007A000B8F1000F05D0A4EB08030433534500F261
:1007B0001F82029B5D1E019B0493069303930026F8
:1007C0004FF0FF3B0427B946B8F1000F01D0029B60
:1007D0002360531E0793002A40F35D81059B13F0AD
:1007E000020228D00120A4EB08018B081AB1B1F550
:1007F000007F80F0038203990F2900F20282B8F192
:10080000000F00F06081DBB201F140026A4402F89F
:10081000103C02F820BC002800F0518163F07F03F7
:1008200001F140026A4402F8103C049B0133049336
:10083000039B0133039304340022CC4640463DE041
:1008400001F0070A5444CAF1080AA9E7002634E077
:10085000002632E0002630E00827BC462DE025299E
:100860002BD10BF1010B01260427BC4625E04729BB
:10087000EED82A2914D32A39C9B24FF0010E0EFA44
:1008800001F14FF6DA7E11EA0E0F16D111F0625F18
:1008900040F0C08011F0010F40F08C8000260CE089
:1008A000252903D10BF1FF3B002606E001D90026E4
:1008B00003E0202901D02329CCD11D466B1C697887
:1008C000002900F01981002EC9D07A29BED84C2900
:1008D000CDD34C392E2961D80FF2040E5EF821F0E9
:1008E000BB0800009D0900009D0900009D09000053
:1008F0009D0900009D0900009D0900009D09000060
:100900009D0900009D0900009D0900009D0900004F
:10091000AD0900009D0900009D0900009D0900002F
:100920009D0900009D0900009D0900009D0900002F
:100930009D090000150A00009D090000AD09000096
:10094000AD090000150A0000150A0000150A000094
:10095000BB080000AD090000590800009D09000017
:10096000BB0800009D090000710A0000AD090000ED
:10097000710A00009D0900009D090000790A00002D
:10098000A7090000AD0900009D0900009D090000B5
:10099000AD0900009D090000A109000000268CE7B8
:1009A0000427BC4689E70427BC4686E729786C29DA
:1009B00024D000263C44013CB4FBF7F407FB04F4CC
:1009C00020B1211A6144514500F21581002A58D105
:1009D000BCF1040F00F08880BCF1080F40F01481D6
:1009E0001A99073121F0070101F108051A95D1E99B
:1009F000008908B1C4E9008908345EE713F8021CD5
:100A00006C2903D000260427BC46D3E7002608271C
:100A1000BC46CFE729784C291AD01A99073121F022
:100A2000070101F108061A96D1E90067073424F09E
:100A3000070440B1211A0831514513D829784C29AF
:100A400013D0C4E90067083400260827BC4634E701
:100A50001A99073121F0070101F108061A96D1E928
:100A60000067E3E76FF01B00BCE0C4E90067EAE75A
:100A700000260427BC469DE7324600260427BC46D4
:100A800098E7E14680461A9A111D1A91126802925F
:100A9000079A1D4698E6624B029A9A4204D3614B2C
:100AA0009A420AD3002300E00023002B7FF496AE85
:100AB000059B03F00202002095E60123F5E7069B63
:100AC00001330693B4E610B10AF1010AB0E6009BC7
:100AD00013B10AF1020AABE60298FFF76BFB0AEBCF
:100AE000000303F1020AA3E61A990D1D1A9509687D
:100AF00000B121600434E0E68046231AB3F5806F2C
:100B000080F0858090B1002202609B080370009BFA
:100B100083B1069BC370049B88F802301BBB019D08
:100B2000DDF80C90DDF810B0029F3DE05344A3F1D6
:100B3000080057E0069B4370EDE701339842EED979
:100B400003F140026A4412F8101C12F9102C002A1A
:100B5000F3DA01F07F01A4EB08020132524559D8C3
:100B600004F8011BE9E7019B0398E7E7009B43B307
:100B700005F140036B4413F8203C04F8013B019E4F
:100B8000A4EB080333440133534546D805F1400331
:100B90006B4413F8103C04F8013B324639462046BA
:100BA0000CF0D6FA34440135A94519D9BBF1000F30
:100BB000DCD005F140036B4413F9103C002BD5DA6F
:100BC000F1E705F140036B4413F8103C58F823702B
:100BD000002248F823203846FFF7ECFA461CCFE7FE
:100BE000A4EB080011B0BDE8F08F6FF00D00F9E73D
:100BF0006FF01B00F6E76FF01B00F3E76FF01500D6
:100C0000F0E76FF01500EDE76FF01500EAE76FF021
:100C10001500E7E76FF01B00E4E76FF01B00E1E76A
:100C200088D200006CE700002DE9F04F97B000AFCC
:100C30008346BA613B61D7F88030C3F3C0033B629F
:100C4000F96011B908F0B1FBF8609BF80260B14699
:100C500036B1D7F8803013F0010F0DD1002300E03A
:100C600000239BF803207A6242B1D7F8802012F06B
:100C7000020F22D1002202E00123F2E7002202B992
:100C8000EBB19BF80050AA00BA60DBF804207A614F
:100C90000BEB8505BA69F2B1002B40F00481B9F184
:100CA000000F00F00F81D7F8803013F0040F40F0F0
:100CB0000D810020F8610646F9E00122DFE7BB69FB
:100CC0001BB13A69F96858469847FC6820465C377A
:100CD000BD46BDE8F08FFC68E3B94D4400233B619D
:100CE00023E00444013501364E451AD22A78002308
:100CF0005BF822201946B86908F06CFBBAF1000FC6
:100D0000EFD0D7F888309845EBD22AF8180008F1D0
:100D10000108E6E70026C7F81C80B046D7F884A093
:100D2000E2E7C7F81080D7F81C80D7F8803003F0CE
:100D30000503FB604FF0000AA146C7F81CB09CE019
:100D400000253B6A7BB9002D79D0D7F8803013F0AD
:100D5000010F79D1FB68002B6FD10223A9EB0309A6
:100D600088E00125EDE75946786908F079FB00280D
:100D7000E9D06C46002387F82C30022387F82D3009
:100D80008AB0694611F1100237D012251AB1042D2C
:100D900001DDB34B4B61002387F82830022387F82D
:100DA00029306ABB112D45DD122362B1042087F87A
:100DB0002C00002087F82D0087F82E00012087F8EE
:100DC0002F00F86A08616FF300086FF341086FF3B2
:100DD00082086FF3C508022161F38818C3F30A0380
:100DE00063F353286FF31F58002341469D4800F0DA
:100DF0005DFEA546A9F102093CE06FF00045C5E79C
:100E00002B46082D01DD786988610C2B01DDC1F8C6
:100E10001CB001F12003002009E000F1300C07F1C3
:100E2000280EF4441CF830CC03F801CB0130012823
:100E3000F3D9B7E76FF01B03B7E701238EE7D7F8C5
:100E4000803013F0020F15D0002322461946B869EE
:100E500008F0C0FAD7F8843053B13B69D7F888203E
:100E6000934205D2D7F8842022F8130001333B6166
:100E7000013881440AF1010A35467B6A9A4510D24D
:100E80002E4616F802BB6B78FA6952F82340764B6F
:100E90009C42FFF455AF754B9C42FFF462AF0025B6
:100EA0004FE74C4612E707F144000023FB6118B1FD
:100EB0004A4629460CF04CF94D444FF00008C7F85B
:100EC00004901EE00020F8610646F0E7FE6107F19D
:100ED00034000026EBE700253B6A33BB002D3BD0F6
:100EE000D7F8803013F0010F26D0731C06F13002C2
:100EF00007F12801561806F8149CDEB208F1010823
:100F000025467B6A98454AD22C4614F802AB95F8E0
:100F100001905BF82930544A9342DCD3534A934200
:100F200001D30025D8E70125D6E75146786908F0B6
:100F300097FA0028D2D0E1E7D7F8803013F0040FF9
:100F4000DCD0FA69531C303207F128010A4402F858
:100F5000249CDBB2FB61D1E7D7F8803013F0020F9D
:100F600009D0731C06F1300207F12801561806F863
:100F7000149CDEB2C2E7F869431C00F1300107F1AE
:100F800028028A1802F824AC02460232D2B2FA6170
:100F900007F1580252FA83F303F8249CAEE7D7F81E
:100FA00004909BF8003087F854309BF801303344AC
:100FB00087F85530D7F8803013F0020F0ED1FB6957
:100FC000C3F3470387F85730D7F8803013F0010F89
:100FD00006D113F0040F3ED1002302E00023F1E715
:100FE000002387F85630DBF800003863786DCBF8C3
:100FF0000000D7F810804246B9685846D7F818A0C4
:10100000D047041EFFF662AE386BCBF80000C7F87D
:1010100010804246F96907F13400D04700285EDBB2
:1010200004EB0008B96849447B6A01EB4301D7F837
:1010300010904A46FB68591A2846D047041EFFF60E
:1010400045AE08EB04054FF00008C7F824B0B346DE
:101050005446CA4621E0FB69C3E74FF0000909E0A6
:1010600098D70000B8D5000088D200006CE70000D7
:101070004FF000095246012107F12C00A04700283B
:101080002FDB05444B4632465146204608F0A2F974
:10109000002828DB054408F10108D84518D208F1DA
:1010A000300307F12802134413F8143C87F82C305E
:1010B0007A6A52F82360D7F88430002BCDD0D7F865
:1010C00088309845D4D2D7F8843033F81890D1E7D7
:1010D0003A6900210846BB6998472C46F6E5044664
:1010E000F4E50446F2E50446F0E500BF014B186064
:1010F000704700BFA010002080B505460E46174679
:10110000984607F055F903460CF0B4F80446DFF8AA
:10111000189049F80030424639463046A84754F8FE
:10112000090001F061FC00BF0800000080B582B03A
:101130000546EFF31187202383F31288BFF36F8FE7
:101140000DE089F31188BFF36F8F2B6A40469847F3
:10115000EFF31187202383F31288BFF36F8F05F11C
:1011600008060121304608F041FE044600283BD025
:10117000A0F120080146304608F047FE244EB3682F
:10118000A36005F11403AA69236062601460AC6176
:101190004146B06808F09DFCB06808F0BBFC87F3DE
:1011A0001188BFF36F8F54F8183C40469847EFF30F
:1011B0001189202383F31288BFF36F8F4F46B068E5
:1011C00008F0ADFC0028CAD16268236813605A6039
:1011D000002323606360A3602B6A002BB1D1A4F1CC
:1011E000100006F06FFABAE74FF0FF324FF0FF330E
:1011F000CDE900232A463946284606F093FEEFF350
:101200001187202383F31288BFF36F8FA7E700BFF6
:10121000CC1C002010B50446242200210BF0A6FFB0
:1012200024606460034BE36004F114036361A36111
:1012300010BD00BFDD9A0000F0B589B00446084635
:1012400011461A46E36913F0020F12D04FF0FF3631
:101250004FF0FF37CDE90667002304936FF00F05C9
:101260000395029301930094034B0BF039FD09B0F1
:10127000F0BD00260027EDE72D1100002DE9F0411B
:101280001D4C31E0A66829E03046FFF7C3FFA36993
:1012900033626369F36113F0040F02D043F0020379
:1012A000F361E1682269636805FB0822B02000FB56
:1012B00008113046FFF7C0FF01372368B846BB422C
:1012C00011D96568073525F00705636913F0010337
:1012D000D8D0A66808EBC8018A001644002FD3D0E6
:1012E000002BD6D0D0E71C34044B9C4201D20027FF
:1012F000E3E70020BDE8F08100D500001CD5000028
:101300002DE9F04383B0044608461546238B13F0BD
:10131000080F05D103F0070600230093019354E062
:10132000012909D043F02003238385F31188BFF3FB
:101330006F8F03B0BDE8F08343F010032383F4E71D
:10134000204608F087FE42E0D4F814904A466946E9
:10135000204608F098FE4FF00008238B03F00707A3
:10136000B74269D0A268002A66D0012243F0080380
:10137000238385F31188BFF36F8F002A64D1009B0C
:101380002BB14B463A466946204608F0F5FEB8F1C7
:10139000000F02D034492046C047EFF311852023C7
:1013A00083F31288BFF36F8F238B23F0080323830B
:1013B000238B13F0100F4DD023F010032383012053
:1013C000268B06F007060028AFD00228B8D00028E8
:1013D000ABD0013804282BD801A353F820F000BF6C
:1013E0004913000031140000F51300000914000037
:1013F0001D1400002369D3F800800621204608F060
:10140000FFFD4FF00009A8E72369D3F80480042109
:10141000204608F0F5FD4FF000099EE72369D3F858
:1014200008800521204608F0EBFD4FF0000994E705
:101430004FF00008C14690E7009A0AB1002295E7F4
:10144000B8F1000F92D1B3E74A463946204608F07A
:10145000DFFD94E713F0200F04D023F02003238353
:101460000220ADE70020ABE7A7A1000038B5054694
:101470000B4C00E010340B4B9C420FD263685B793D
:10148000002BF7D02946204608F07DFF0028F1D038
:1014900023681B68294620469847EBE738BD00BF04
:1014A00038D6000048D6000070B506460D46084CF8
:1014B00004E02A463146204698471034054B9C42AA
:1014C00004D223689B69002BF3D1F6E770BD00BFFF
:1014D00038D6000048D600002DE9F0410746054601
:1014E0000AE007EA0807144B03EB06135B680422C3
:1014F0001968204608F091FFD5B195FAA5F6B6FA1D
:1015000086F60D4C04EB06140123B3406FEA030882
:1015100025EA0305237B002BEED03301064AD3587E
:101520001B69002BDDD0204698470028E4D1D8E77E
:101530003846BDE8F08100BF38D600002DE9F04103
:1015400080460F461F4BBFF35B8F53E8005F6A1C5A
:1015500043E800210029F8D1BFF35B8F6DBB1A4C23
:10156000002607E0636804221968204608F055FF4A
:1015700001361034154B9C4211D2237B002BF7D03F
:10158000204608F0F4FE23681B69002BEAD02046B1
:1015900098470028E6D00123B3401D43E8E7B8F19F
:1015A000000F0BD055B12846FFF796FF0546002FD8
:1015B000F8D00A2008F0EDFEF4E700252846BDE843
:1015C000F08100BFF01A002038D6000048D6000095
:1015D00008B5064B186018B1054B1B68092B00DCD9
:1015E00008BD044806F06EF8FAE700BFE41A0020D0
:1015F000EC1A0020E411002008B5024806F062F859
:1016000008BD00BFE411002030B589B000220F49A9
:101610000F480BF07EFD0F4D00220023CDE906237D
:10162000002404940E2303930294019400940A4B23
:101630004FF44072094928460BF052FB08492846EE
:1016400006F03AFA204609B030BD00BFF915000097
:10165000B0160020F8110020D5190000181D002038
:1016600058D80000014B53F82000704774D8000090
:1016700048B108B5054A1060054B1960084600F0EE
:1016800009FD002008BD6FF015007047A410002070
:10169000E01A002008B5054B1B781BB1034B012253
:1016A0001A7008BD024806F00DF8F7E70A1D002081
:1016B000E411002008B5104BBFF35B8F53E8001F07
:1016C000013143E80012002AF8D1BFF35B8F30B933
:1016D0000A480BF02AFD0A4805F0F4FF08BD094B43
:1016E000BFF35B8F53E8001F013943E80012002A63
:1016F000F8D1BFF35B8FEBE7E81A0020B0160020AB
:10170000E4110020EC1A0020064B00200146BFF334
:101710005B8F53E8000F43E80012002AF9D1BFF3B2
:101720005B8F7047E81A002038B5FFF7EDFF0546DC
:10173000094C00E01034094B9C420BD263685B7982
:10174000002BF7D023685B68002BF3D02946204696
:101750009847EFE738BD00BF38D6000048D60000F4
:10176000034B18680028D4BF00200120704700BF39
:10177000E81A002010B5044C0449204608F004F88B
:10178000034B1C6010BD00BF5411002060D8000046
:10179000DC1A002008B500230C4A13700C4A1360B1
:1017A0000C4A13604FF400410B48FFF761FFFFF74D
:1017B000E1FF0A4A06E0094BD31A1B1101335168B5
:1017C0000B711032064B9A42F5D308BD0B1D002059
:1017D000E81A0020EC1A00208BA3000038D6000085
:1017E00048D6000008B50146014808F0E8FD08BDEC
:1017F0005411002008B5024808F0A9F808BD00BF40
:101800005411002008B50146024B186808F0DDFDB0
:1018100008BD00BFDC1A002008B5024808F0D9FD59
:1018200008BD00BF5411002010B582B00022002373
:10183000CDE90023284B187808B902B010BD6846DE
:1018400008F0DFFD044680B1FFF710FE2046FFF7E9
:10185000D9FF224BBFF35B8F53E8001F013943E8E8
:101860000012002AF8D1BFF35B8FFFF779FF58B958
:101870001B4A1368516813F57A7341F10001136034
:101880005160FFF7C9FFD8E70BF034FC4A0142EA88
:10189000D06243011B1A62EB0102920042EA93728A
:1018A0009B001B1842EB0102D20042EA5372C3F3C1
:1018B000103343EA4243D20B0948016840685B1A7F
:1018C00062EB000240F2E9318B4272F10002CFD3A9
:1018D000FFF72AFFCCE700BF0A1D0020EC1A00200A
:1018E000A81600200F4B1B7803B1704710B50021DC
:1018F0000120FFF723FE0C4C00E010340B4B9C4200
:1019000008D263685B79002BF7D023689B68204678
:101910009847F2E7FFF788FF0028FBD1014B01222F
:101920001A7010BD0B1D002038D6000048D60000EC
:1019300010B582B01A4BBFF35B8F53E8002F511CD8
:1019400043E800100028F8D1BFF35B8F154B1B78DC
:1019500063B9154B1B68B3B1BAB1092A13D1134847
:101960000BF0E3FB124805F0ADFE0CE0EFF3118441
:10197000202383F31288BFF36F8FFFF755FF84F3A3
:101980001188BFF36F8F02B010BD00220023CDE994
:1019900000234FF400420023044807F065F8F2E703
:1019A000EC1A00200B1D0020E41A0020B0160020C5
:1019B000E411002010B50446044B1B689847A06052
:1019C0002146034808F021FD10BD00BFA4100020EF
:1019D000541100202DE9F04100210846FFF7AEFD2B
:1019E000804650B140F2676600270BF043FC154B70
:1019F0001858FFF7EDFD002515E04FF0FF364FF0CA
:101A0000FF37F2E74046FFF767FD804670B94FF0B9
:101A1000FF364FF0FF3709E02C4632463B460A4876
:101A200005F094FE2546B8F1000FEBD1FFF7FCFE60
:101A300004460028F6D1002DEED000210846FFF71D
:101A400033FDEAE708000000E41100200248034BE0
:101A5000C01AC008704700BF38D60000A8D50000E3
:101A600010B50C46FFF7F2FFA04203D9024B53F822
:101A7000340010BD0020FCE7A8D5000000B589B0F7
:101A8000059206930023079362B1074A0C9B0293C9
:101A90000B9B01930A9B009305ABFFF7C5F809B0B8
:101AA0005DF804FB0022F1E731A400002DE9F04FBE
:101AB0008BB004AF05461E468846C1F34A24002C6D
:101AC00000F0898091460022FA603A617A6104232D
:101AD0000293FB1801930A23009307F10C0321469C
:101AE0004846FFF7A1F8B0F5006F58D3D9F80410B5
:101AF0006D4600233B7302237B738AB004AC14F160
:101B0000100217D012201AB1042801DD3B4B63618B
:101B100000233B7002237B70CAB10346082800DD16
:101B2000A1610C2B02DD40F2FF73E36104F120039D
:101B300000210AE06FF00040E5E701F118063E449D
:101B400016F8186C03F8016B01310129F5D9112839
:101B500022DD122342B10421397300217973B97354
:101B60000121F973F868206100216FF300016FF320
:101B700041016FF382016FF3C501022060F3881108
:101B8000C3F30A0363F353210023C1F313011C4879
:101B900008F0C1FCAD462DE06FF01B03DAE760F3FF
:101BA0005328C0F30A0A0AEB1850173020F0070038
:101BB0008008FFF717FE8346B0B104230293FB1899
:101BC00001930A230093534600F110022146484630
:101BD000FFF754FF08E004EB1154173424F0070416
:101BE000A008FFF7FFFD8346334642462946584684
:101BF00008F034FC1C37BD46BDE8F08F94D80000D7
:101C0000D0D500002DE9F04F85B080460D4617462F
:101C10001E46DDF838B0DDF84090B9F1000F41D034
:101C2000119B039300934B460F9A10210020FEF75F
:101C3000A1FDB0F5006F2DD282460BEB00031733E8
:101C400023F0070300246FF300046FF341046FF3E4
:101C5000820468F3C50467F3881460F353246BF3BC
:101C60001F549808FFF7BEFD074650B11030B9F178
:101C7000000F06D0119B00934B460F9A5146FEF77A
:101C800079FD334622462946384608F0E7FB05B081
:101C9000BDE8F08F40F2FF73034A0221034808F0C9
:101CA0002FFCF4E70020C7E7D4D80000D0D500000F
:101CB000406820B1034BC01A40F3CF0070474FF08B
:101CC000FF307047A8D500000EB400B582B00146C1
:101CD00003AB53F8042B0193034801F083F802B0DF
:101CE0005DF804EB03B070474DA5000010B584B05B
:101CF00011F0440F05D01A4B1B6833B9002004B013
:101D000010BD1849FFF7E0FFF9E717490968B2FB72
:101D1000F1F2B2FBF3FC03FB1C224FF47A7E0EFBC4
:101D200002F2B2FBF3F403FB14210EFB01F1B1FB51
:101D3000F3F10E4AA2FB0C32D20A4FF4616303FBAB
:101D400012CC0B4BA3FB0CE35B0902910194C3EB98
:101D50000311ACEB810100910649FFF7B5FFCEE717
:101D6000F81A00200CD90000F41A0020C5B3A29183
:101D70008988888818D9000061B108B52AB1064A57
:101D800052F8232012B9054A00E0044A0449FFF73B
:101D90009BFF08BD704700BFBCD9000034D90000CC
:101DA0003CD900002DE9F04105461746069EDDF8B6
:101DB0001C8081B900242EB1324611492846FFF714
:101DC00083FF0444B8F1000F14D06FB1099B042BBA
:101DD00013D00C4909E00C4B099A53F822200B4907
:101DE000FFF772FF0446E6E7064942462846FFF73A
:101DF0006BFF04442046BDE8F0810549F5E700BFCC
:101E000054D9000044D90000D0D900004CD90000BA
:101E100040D900002DE9F04F87B005460C460492EA
:101E200005939DF84C7001F0020B01F0010AC1F31B
:101E3000C00801F4807908F0EEFA18B3024616499A
:101E40002846FFF741FF0646BBF1000F1CD13A467A
:101E50005146284608F0A5FBB9F1000F01D0002338
:101E600011930397129B0293119B0193109B009374
:101E70000023049A41462846FFF794FF304407B0F8
:101E8000BDE8F08F0026DFE7059A21462846FFF7D8
:101E90002DFF0644DBE700BF58D9000011F0100FFA
:101EA0000BD108B511F0200F03D00449FFF70CFF48
:101EB00008BD0349FFF708FFFAE770479CDA000006
:101EC0005CD900002DE9F04105460F4616469846BC
:101ED0000699FFF7E3FF0024444505DA2449284624
:101EE000FFF7F2FE0134F7E7002409E02049284615
:101EF000FFF7EAFE0BE01F492846FFF7E5FE013435
:101F00000F2C0CDC002C02DD14F0070FEED0B442D5
:101F1000F1D23A5D18492846FFF7D6FEEFE7174998
:101F20002846FFF7D1FE002409E011492846FFF7B3
:101F3000CBFE0BE012492846FFF7C6FE01340F2CFA
:101F400013DC002C02DD14F0070FEED0B44207D2F0
:101F50003A5D0C4B9B5C13F0970FEBD12E22E9E717
:101F600003492846FFF7B0FEE8E7BDE8F08100BF6F
:101F700050D9000068D9000060D900006CD9000079
:101F800070D900005DE600002DE9F04184B0044600
:101F90009DF82C500C9F0E9E95B9012B1ED0194810
:101FA0004FF0000827B13B462246174907F028FAB0
:101FB000C6B905BB204608F0B2FA04B0BDE8F0810E
:101FC00003950A980290019300920B4600220F9904
:101FD0002046FFF71FFF80460C48E3E70B484FF011
:101FE0000008DFE70F9B0093434632460D992046D9
:101FF00008F0EFFADDE72A460F99204608F0DDFAEF
:10200000D8E700BF85A50000E52D00004DA5000024
:102010002DE9F04383B00646056842F20F738B4208
:1020200028BF0B46184A0521684606F073FD044692
:102030007368D3F804900B27DFF8508005E04A4618
:1020400039464046A8473F1A8044002FF7D17368AD
:10205000D3F804806F4605E0424621463846A8473B
:10206000241A0744002CF7D173685F681B24084EBC
:1020700005E03A4621463046A847241A0644002C7B
:10208000F7D103B0BDE8F08384E0000090D90000F0
:1020900074D90000074B01221A6004E04008054A89
:1020A00013685B001360044B9842F7D8034B186029
:1020B000704700BFF41A002040420F00F81A0020B9
:1020C00070B506460D46002405E0315D044883687E
:1020D0005B6898470134AC42F7D3284670BD00BF17
:1020E00048D30000014B03600020704738DA00003D
:1020F00008B5034807F0E1F9024807F0DEF908BD2A
:1021000038DA000070DA00002DE9F04182B000AF4B
:102110000446D0F800E0D0F804C085686E468AB066
:102120006B4613F1100200F0888014218AB1084632
:10213000042903DDDFF81C81C3F81480082801DDC1
:10214000C3F818E00C2801DDC3F81CC0102800DD1E
:102150001D62132974DD14253AB10521397100215E
:102160007971B971F9717868186100216FF3000114
:102170006FF341016FF382016FF3C501012363F334
:102180008811C5F30A0565F353216FF31F5100232E
:102190003148FFF78BFCB546D4F80CC02669656959
:1021A000E8468AB06B4613F110024CD0142182B17C
:1021B0000846042903DDDFF8A4E0C3F814E008288A
:1021C00001DDC3F818C00C2800DDDE61102800DD39
:1021D0001D6213293ADD14253AB105213971002118
:1021E0007971B971F9717868186100216FF3000194
:1021F0006FF341016FF382016FF3C501012666F3AE
:102200008811C5F30A0565F353216FF31F51124D71
:1022100000232846FFF74AFCC546E369104A3146C9
:10222000284608F06DF9A3690E4A3146284608F0A1
:1022300067F90837BD46BDE8F0816FF0004175E7EA
:102240006FF01B0588E76FF00041B0E76FF01B05EA
:10225000C2E700BFA0DA000000D60000D0DA00001C
:1022600000DB000010DB000038B504460D4611B15C
:102270000846FFF749FF012C04D02946204604F008
:10228000EFFE38BDEFF30583103B034A01210348FD
:1022900008F036F9F1E700BF40DB000000D600008F
:1022A00030BFFFF7FDBF00BF38B50446054D2A46D5
:1022B00005490AF04DFF054A002160190AF056FF52
:1022C00038BD00BF000000008CD6000004000000F4
:1022D00070B50646064D074B1D444C1B2046FFF7C4
:1022E000E3FF083CC6F8A44005F1080070BD00BF3C
:1022F0000000000004000000054B5A699B689A42E8
:1023000004D0044A536843F080535360704700BFC1
:10231000CC1C002000ED00E081690D4B5A6942F4AD
:1023200080725A61BFF34F8FBFF36F8F31F8021C79
:102330005A6922F480725A61BFF34F8FBFF36F8FD7
:102340004DF60273994201D000207047012070477A
:1023500000ED00E04FF0000C83F800C002F07F4C6D
:10236000BCF17F4F14D102F00C0CBCF1080F04D06B
:1023700012F0080F09D00846704708B5054A012138
:10238000054808F0B3F8002008BD01221A70704714
:102390000020704754DB000000D6000008B52B4A2F
:1023A00001212B4808F0A2F82A4B9B6A13F0007F0A
:1023B00021D11D20274B9B6A13F0807F22D1254B12
:1023C0009B6A13F4002F24D1224B9B6A13F4802FB5
:1023D00026D1204B9B6A13F4003F28D11D4B9B6AEA
:1023E00013F4803F2AD11B4A936A6FEA03436FEAD2
:1023F0001343936208BD184A0121154808F076F886
:102400001E20D7E7154A0121114808F06FF81F2058
:10241000D5E7134A01210E4808F068F82120D3E7D8
:10242000104A01210A4808F061F82220D1E70E4A3B
:102430000121074808F05AF82320CFE70B4A012171
:10244000034808F053F82420CDE700BF80DB0000EC
:1024500000D6000000ED00E098DB0000ACDB0000DF
:10246000C8DB0000E8DB000010DC00002CDC000012
:1024700008B500230B70034A0121034808F036F821
:1024800008BD00BF58DC000000D6000090B583B046
:1024900000AF0F2923DC2F4C103900233B7102239E
:1024A0007B718AB0EC461CF110021AD0122022B1C6
:1024B000042802DD284BCCF8143000233B700223A3
:1024C0007B70E2B10346082801DDCCF818400C2BE4
:1024D00001DDCCF81C100CF1200300210DE01F4C95
:1024E000DAE76FF00040E2E701F1080404EB070EC1
:1024F0001EF808EC03F801EB01310129F4D9112889
:1025000024DD12234AB10421397100217971B97196
:102510000121F9717868CCF8100000216FF30001F7
:102520006FF341016FF382016FF3C501012060F386
:102530008811C3F30A0363F353216FF31F51002380
:102540000748FFF7B3FA0C37BD4690BD6FF01B0389
:10255000D8E700BF7CDC0000B0DC000094DC0000A9
:1025600000D60000F8B505460F461446394A012149
:10257000394807F0BBFF394B9B6A13F0100F31D17C
:102580001026364B9B6A13F0080F32D1334B9B6AEF
:1025900013F0020F34D1314B9B6A13F0010F4BD172
:1025A0002E4B9B6A13F0200F4DD12C4B9B6A13F0DE
:1025B000100F01D1294B9B6A284B9B6A13F0200F07
:1025C00004D0264A536A23F400535362234A936A81
:1025D00043F0FF0393620121284608F096F820702B
:1025E0003046F8BD1E4A01211B4807F07FFF112627
:1025F000C7E71C4A0121184807F078FF1226C5E7F3
:10260000194A0121144807F071FF144A536B926A6A
:1026100012F0800F01D11326BDE7144A01210E48A4
:1026200007F06EFF37B10D4A936A23F0800393627F
:102630001326B0E71326AEE70D4A0121064807F03E
:1026400055FF1426ACE70B4A0121034807F04EFF63
:102650001526AAE7C4DC000000D6000000ED00E06B
:10266000DCDC000010DD000024DD00003CDD0000AB
:1026700054DD000074DD0000F8B505460F46144631
:10268000374A0121374807F031FF374B9B6A13F473
:10269000805F25D11626344B9B6A13F4006F26D138
:1026A000314B9B6A13F4007F28D12F4B9B6A13F4A4
:1026B000806F3FD12C4B9B6A13F4807F41D12A4B12
:1026C0009B6A13F4005F43D1274A936A43F47F4324
:1026D00093620121284608F018F820703046F8BDB2
:1026E000224A01211F4807F001FF1726D3E7204A9D
:1026F00001211C4807F0FAFE1826D1E71D4A0121E6
:10270000184807F0F3FE184A936B926A12F4004FD0
:1027100001D11926C9E7184A0121124807F0F0FE35
:1027200037B1114A936A23F4004393621926BCE738
:102730001926BAE7114A01210A4807F0D7FE1A26DE
:10274000B8E70F4A0121074807F0D0FE1B26BBE778
:102750000C4A0121034807F0C9FE1C26B4E700BF5C
:10276000A4DD000000D6000000ED00E0BCDD0000AC
:1027700010DD0000D0DD0000ECDD000004DE000014
:1027800020DE000074DD000070B506460D462B4AC1
:1027900001212B4807F0AAFE00232B70294BDC6A8D
:1027A00014F002040AD1274BDB6A002B0DDB254B0A
:1027B000DC6A14F080440ED1204670BD224A01210B
:1027C0001F4807F093FE0024F6E7204A01211C4829
:1027D00007F08CFEF0E71E4A0121194807F086FE3B
:1027E0003046FFF799FD98B9164B9B6A13F0FF0F1F
:1027F00016D1144B9C6A14F47F4418D1114B9B6A78
:10280000B3F5803FD8D33046FFF7C8FD0446D3E781
:102810003368104A01210A4807F072FE3468CBE79A
:102820002A4601213046FFF79DFE0446C4E72A46AA
:1028300001213046FFF720FF0446BDE738DE0000E7
:1028400000D6000000ED00E050DE000074DE000065
:1028500084DE0000A4DE000030B58BB01F4B5D6845
:10286000C5F30805002383F31188BFF36F8F0DF1C3
:102870002603FFF76FFD04460DF12702294607F0F6
:1028800046FF9DF827300BB10BB030BD05460DF16A
:10289000040C20686168A268E368ACE80F00206956
:1028A0006169A269E369ACE80F009DF826304BB17D
:1028B000089BC3F308025AB96FEA53236FEA432314
:1028C000089305E0089B23F4FF7323F001030893AA
:1028D00001A92846FFF7C8FCD6E700BF00ED00E0DD
:1028E000044B5A6942F010025A615A6922F00802F8
:1028F0005A61704700ED00E0EFF30880EFF30981C3
:1029000001B57246FFF7A8FF01BD00BF002080F3AC
:102910001488BFF36F8F114880F308880020104996
:10292000087002F057FE00200E490860BFF34F8F79
:1029300000F030F8202080F311880B484FF400613C
:10294000401880F30988EFF314800221084380F3D4
:102950001488BFF36F8F00F0EFF8000058350020A7
:10296000101D002094ED00E018280020084BD3F83B
:102970009000C0F30720002306E0054AC2F8983013
:102980000021C2F8A01001338342F6DB704700BF7C
:1029900000ED00E010B572B6002484F31388FFF751
:1029A000E5FF234608E003F120010E4A4FF0FF3017
:1029B00042F821000133DBB2072BF4D9002308E0F1
:1029C00003F16001074A4FF0FF3042F82100013364
:1029D000DBB2072BF4D962B6BFF34F8FBFF36F8F13
:1029E00010BD00BF00E100E008B50A4B9B688342C0
:1029F00002D005F0E3FC08BDEFF30583002BF8D00F
:102A0000054B5A6842F080525A605A6A22F40042DA
:102A10005A62EEE7CC1C002000ED00E012498A6803
:102A20004FF030001044EFF3098C80E8F01F2020B5
:102A300080F31288BFF36F8F0C4F4FF000664A6926
:102A40008A603E60D2F8A400094C2060D2F8A80049
:102A50000023C2F8A83080F3118802F1300090E81A
:102A6000F01F8CF309887047CC1C002004ED00E0B7
:102A7000241B00201EF0040F0CBFEFF30880EFF3BF
:102A80000980816911F8021C0229FFD001B5724644
:102A900007F02FFE01BD00BF002807DB00F01F027A
:102AA000400901239340024A42F82030704700BF9A
:102AB00000E100E000280CDB00F01F0240090123C8
:102AC00093402030034A42F82030BFF34F8FBFF3CA
:102AD0006F8F704700E100E0002808DB4901C9B2B0
:102AE00000F1604000F5614080F80013704700F08D
:102AF0000F004901C9B2014B1954704714ED00E0B1
:102B00004209054B53F8222000F01F00012303FA6D
:102B100000F01040704700BF00E100E0044B23F0DC
:102B20007F03044A9360BFF34F8FBFF36F8F7047EB
:102B30000000000000ED00E008B5FFF7EFFF074AD6
:102B4000D2F8883023F47003C2F8883004F036FCE1
:102B500005F0AEFD00F04AF804F08CFC00ED00E05A
:102B600010B4A2F120040E4942F8081C21F0010122
:102B700042F8081C42F8203C019B42F81C3C029B96
:102B800042F8183C039B42F8143C4FF0807342F823
:102B9000043C04650023C0F8A83010BC704700BF97
:102BA000F910000000B50E461546094B9860D0F8A4
:102BB000A420084B1A602C4686F309880020064B97
:102BC00098472046002100220023044C204700BFE4
:102BD000CC1C0020241B002085A70000F910000059
:102BE000014B10221A61704700ED00E0002206E060
:102BF00003F00F030949194420230B760132262ADA
:102C00000ADC53B2002BF3DB03F1604303F56143AD
:102C1000202183F80013F1E7704700BFFCEC00E0CF
:102C200008B5EFF30583103B044A02EBC301496882
:102C300052F833008847FFF75FFB08BDC8D3000098
:102C400008B5034B034A0121034807F0C6FE08BD3F
:102C50000000012000000020C0DE0000084AC2F889
:102C600098000B6823F01F03034343F01003C2F8DE
:102C70009C308B6843F00103C2F8A030704700BF5E
:102C800000ED00E010B504460A4BD3F89030C3F3D2
:102C90000723013B984203D8FFF7E0FF204610BD11
:102CA0000346054A0121054807F02AFC6FF015008C
:102CB000F5E700BF00ED00E0D0DE0000F0D5000039
:102CC0002DE9F04780460F469A461646002409E053
:102CD0002946F0B207F08AFD064610F1160F1AD009
:102CE00001360134BC4216DA04EB440508EB8505D5
:102CF0006A68002AF5D0BAF1000FE9D0284607F03B
:102D000064FD0028E4D12346044A0121044807F069
:102D1000F7FB6FF015063046BDE8F087F8DE0000DF
:102D2000F0D5000010B5034C01232278FFF7C8FF4F
:102D3000207010BD0C1D0020044B0522C3F8942008
:102D4000BFF34F8FBFF36F8F704700BF00ED00E000
:102D5000BFF35F8F024B0022C3F89420704700BF7F
:102D600000ED00E038B51C4B1D681C4BD3F89030CB
:102D7000C3F307239D422BD8FFF7EAFF002409E0A5
:102D8000154B5B6804EB440103EB81012046FFF720
:102D900065FF0134A542F3D81148057007F045FDE1
:102DA00010F1160F13D00E4B1A780C4BD3F890304D
:102DB000C3F307239A4207DA084BC3F8982000218F
:102DC000C3F8A0100132F0E7FFF7B6FF002038BDCE
:102DD0004FF0FF30FBE700BF1CDF000000ED00E01C
:102DE0000C1D002030B587B00D461146002400941C
:102DF0000194029403940494059402228DF8022015
:102E0000044A0192049005951A46684605F0AEFE04
:102E100007B030BDE3A9000008B5024B1B68984716
:102E2000002008BD281B0020034B1860034A93783C
:102E300043F0020393707047281B0020B01000205D
:102E400008B5064921F00701C1F1005202F58032B0
:102E5000034806F01EFA002008BD00BF3F3A0020DC
:102E60002C1B0020024B0122C3F840250020704794
:102E700000E0014030B108B5034B800143F001038D
:102E8000984708BD704700BF90D6000030B4224A72
:102E900019E0136903EB811303F1300000241C6374
:102EA000EFF31183202484F31288BFF36F8F14682B
:102EB0001060206083F31188BFF36F8F0131938915
:102EC0008B42E6DC1432154B9A4201D20021F6E720
:102ED000134A18E010691C0100EB0311002505518D
:102EE000EFF31180202484F31288BFF36F8F1468EE
:102EF0001160216080F31188BFF36F8F01339189D6
:102F00009942E7DC1432074B9A4201D20023F6E7DC
:102F1000002030BC704700BFF4110020F4110020E5
:102F2000F4110020F411002008B50146014809F011
:102F300099FD08BDC811002000487047B01B002053
:102F4000034BC01A8010034B03FB00F0704700BF17
:102F5000701B0020B76DDBB638B505460C46FFF791
:102F6000EFFF01464022034807F0D6FD0146284600
:102F7000A04738BD08D3000030B583B005460C46E5
:102F8000FFF7DEFF0146402300932346054A06482B
:102F900007F0DCFD011E01DB03B030BD2846A04771
:102FA000FAE700BF95AB000008D3000010B582B06F
:102FB000EFF31184202383F31288BFF36F8F154A38
:102FC000136843F00201116013F0010F09D10023CF
:102FD00084F31188BFF36F8FB3B907F0E3FD02B03C
:102FE00010BD0DF1070201214FF0804007F004FDF4
:102FF0009DF80730012B01D00023E9E7FFF79CFF84
:1030000007F066FD0123E3E70021034807F072FDA6
:10301000E5E700BFC01B002008D3000010B5EFF3A8
:103020001184202383F31288BFF36F8F074A13683C
:1030300023F00201116013F0010F04D084F3118812
:10304000BFF36F8F10BD07F0B2FDF7E7C01B002084
:1030500070B582B0064609F030FE18B904461A4B26
:103060001B7873B9EFF31185202383F31288BFF324
:103070006F8F01245CB94FF080430222C3F808230C
:1030800005E00025F6E7ACB1284607F08FFB01AA62
:1030900000214FF0804007F0AFFC0028F3D0019BE7
:1030A0000BB1012EEFD14CB185F31188BFF36F8FB7
:1030B00002B070BD012007F07FFDE8E74FF08043CC
:1030C0000222C3F80423F3E7101D002000B585B0E9
:1030D000CDF800D0CDF804D0002302930123039350
:1030E0006B46074A07F04EFD002805DB4FF480428F
:1030F0000023684604F02AFB05B05DF804FB00BF1E
:10310000E5AB000070B5054600220121104607F02E
:103110002DFB134802F0FCFB124B98421CD128698E
:1031200000F046F902F008FC0024012C12D82146D8
:10313000284607F07DFC06462146284607F085FC18
:10314000094907F03EF8002805DB0123B3601C4461
:10315000E4B2EAE7002070BD6FF00400FBE700BFB7
:103160006D3100000000AD0B60DF000008B50128E4
:1031700010D0032815D000B108BD00210A4807F07F
:1031800057FC836813F0070FF6D10021064807F0BB
:10319000B1FCF1E707F04CFD0121034807F0AAFC60
:1031A000EAE700F01BF9E7E708D3000008B5064B93
:1031B0001B7803B108BD4FF4A57009F0F9FB024B71
:1031C00001221A70F6E700BF0D1D002008B5C1B23C
:1031D000014807F03AFC08BD08D3000010B50446CA
:1031E000104B0121BFF35B8F53E8002F43E8001021
:1031F0000028F9D1BFF35B8F1AB1631E012B0DD9E3
:1032000010BD094807F021FC084900234B608B6082
:10321000CB6001238B6006F0F1FFEEE72046FFF75D
:1032200017FFEDE76C1B002008D300005C1B00209B
:1032300010B582B004460D488368DB68402198478A
:1032400088B90A4883681B696A460C21984750B9B7
:10325000019B074A82FB0312DB17C3EB2243009A50
:1032600003EB8203238002B010BD00BF88D30000AF
:1032700083DE1B4308B5024B186807F0C6FC08BD87
:10328000C41B002000B583B000220023CDE9002339
:103290004FF400320023054805F0E6FBFFF7EAFF94
:1032A000034B00221A6003B05DF804FB901100206C
:1032B000E01B002008B502F0C1FB024B01221A708E
:1032C00008BD00BF0E1D002008B5054809F076FBBB
:1032D00010B9FFF7EFFF08BD024804F091FBFAE7D1
:1032E00088D30000C010002000B583B00023ADF8E3
:1032F00006300DF10600FFF79BFF80B10023124A54
:103300001370114A12780AB1012B13DD0F4BBDF86F
:1033100006201A80FFF7CEFF03B05DF804FBBDF96D
:1033200006300A4AB2F900209B1A002BB8BF5B4254
:103330001BB2E6E7013A044B1A70054A13680133E1
:103340001360FFF79FFFE7E70E1D0020081D002018
:10335000D81B002008B5034A0349044B186807F03E
:1033600058FC08BDC9320000C81B0020C41B002047
:1033700008B5094B0122BFF35B8F53E8001F0029FA
:1033800003D143E800200028F7D1BFF35B8F01D1C0
:10339000FFF7E0FF08BD00BFE01B002008B5034BAE
:1033A00000221A70FFF7E4FF08BD00BF0E1D0020C9
:1033B000034B18600023034A1360034A13607047ED
:1033C000C41B0020DC1B0020D81B002008B50248CD
:1033D00009F0ABFE08BD00BF9011002008B5034AFC
:1033E000136801331360FFF74DFF08BDDC1B00209D
:1033F00010B504460A2806D0E1B2064883685B6827
:103400009847204610BD034883685B680D219847A4
:10341000F2E700BF48D3000010B5044C2046FFF788
:1034200003FD2046FDF762FE10BD00BFF133000032
:1034300008B5054809F0C2FA18B1FFF7EDFF002002
:1034400008BD6FF01200FBE748D3000008B902483E
:1034500070470020704700BF28D300002DE9F047D7
:1034600086B0884616469946446801F01F05237BBE
:1034700045EA4315204607F0A2FC00286ED0B6F5B9
:10348000001F35D00DF10C0A002703970497494619
:10349000304607F0D1FC8DF80C0000970197029799
:1034A000CDF804A0A36823FA08F313F0010F02D1AA
:1034B000B6F1A07F23D004F110060DF117022946C2
:1034C000304608F06BFF284B984241D010346A46D2
:1034D0002946204608F056FF234B984241D101224D
:1034E0002946204608F072FF002006B0BDE8F087AC
:1034F000294604F1100008F06DFF0020F5E705F003
:103500001F036A0916D14FF0A04203F5E07352F889
:10351000233013F0010FCED10DF11702294604F12B
:10352000100008F03BFF114B984205D00DF1170336
:103530000493CBE73A46E8E70DF1170241462046EF
:1035400007F0B6FC084B9842F0D06FF00B00CCE7C8
:103550009DF81710304608F031FFB7E76FF085008F
:10356000C3E76FF01500C0E70000AD0B0400AD0B22
:10357000F0B589B00F461446456801F01F062B7B55
:1035800046EA4316104607F01FFC8DF81E0040F275
:1035900006332340B3F5837F54D016D8062B4DD085
:1035A00006D9B3F5807F0DD101238DF81D3024E0BD
:1035B00003B3022B03D104238DF81D301DE06FF0FF
:1035C000150039E06FF0150036E040F20222934218
:1035D0003CD0B3F5407F03D103238DF81D300CE0C0
:1035E000B3F5007F03D102238DF81D3005E06FF0A5
:1035F000150021E000238DF81D3014F4002F29D090
:103600006A680123BB40C2F80835284607F0D7FB9B
:1036100048B310350DF11F023146284608F0BEFEB2
:10362000074614F4403F37D13146284608F0C2FE21
:103630003C4B9F426ED0002009B0F0BD06238DF8B0
:103640001D30DAE707238DF81D30D6E705238DF806
:103650001D30D2E714F4802FD7D06A680123BB4015
:10366000C2F80C35D1E7C4F340438DF8083014F4A8
:10367000803F0CBF012300238DF8103000240194FB
:103680000DF11D0300930DF11E0304AA02A930469B
:1036900007F0F5FA2046CFE702AA0023029303932E
:1036A000049305930693059204AA3146284608F030
:1036B00069FE1C4B98421DD114F4003F1DD09DF8AB
:1036C0001D308DF8103014F4803F0CBF012300230F
:1036D0008DF811309DF81E308DF81230002304AAA9
:1036E0003146284608F052FE0E4B9842A0D06FF0AB
:1036F0001500A1E76FF015009EE7002304930593E2
:1037000006930DF11E03049304AA3146284608F0DF
:1037100039FEE9E79DF81F10284608F04FFE00200B
:103720008AE700BF0000AD0B38B50446456828465F
:1037300007F045FB20B91049204607F0EFFA38BDE5
:103740001035284608F032FE0028F4D10021284622
:1037500008F028FE094B98420AD100220849284661
:1037600008F018FE00220521062006F0FFFFE2E720
:103770006FF00400E3E700BF97AE00000000AD0B60
:1037800071AE000030B500F01F0C400917D14FF0AA
:10379000A04E0CF5E0705EF820500A4C2C4041EA37
:1037A000420141EA83039DF80C2043EA02239DF87D
:1037B000102043EA024323434EF8203030BD4FF03F
:1037C000000EE6E7F0F8FCFF2DE9F04F85B08046EB
:1037D00089460392002421E04FF0FF3634E0039B3A
:1037E000C3F80C65012702973946B6F1FF3F13D0A5
:1037F000B1F1FF3F6AD158F80A3013F4004F69D194
:10380000029D00220192CDF800B0C3F341233A4655
:1038100029463046FFF7B6FF0134E4B24C455BD28F
:103820004FEA840A58F82430C3F3C725C3F3C322F0
:10383000C3F3080615F0080552D12C4911F802B05F
:1038400040F2FF129642C7D01B0E062B4BD801A2A6
:1038500052F823F0DF370000713800008138000093
:103860008F3800009F380000AF380000BD380000DE
:10387000039BC3F814652F4602954FF0FF31B4E760
:10388000039BC3F80865012702973946ADE7039B00
:10389000C3F810652F4602954FF0FF31A5E7039B53
:1038A000C3F808652F460123029300219DE7039B7F
:1038B000C3F80C6501270297002196E7039BC3F824
:1038C00010652F4602954FF0FF318EE7304607F026
:1038D0000EFB90E7012794E7002005B0BDE8F08FCC
:1038E0006FF01500F9E76FF08500F6E7DCDF000008
:1038F000014B01221A60704700C0004003690C2987
:1039000010D15B6A094901FB03F3094880FB0310EE
:10391000D917C1EBA0411160064800FB1133536079
:10392000002070476FF08500704700BF90D0030003
:1039300083DE1B4340420F002DE9704384B00469CD
:10394000A36A7BB3402901D00C292ED104F11006C3
:103950004FF0FF384FF0FF3942464B46304603F0F8
:10396000DBFD0025019502950395114B019303237F
:1039700002936946A06A06F041FC42464B46204647
:1039800003F0E4FEA06A06F098FC0A4BD3F8082581
:10399000626201225A60304603F03EFE284604B0BF
:1039A000BDE870836FF00A00F9E76FF08500F6E775
:1039B000F138000000C0004010B504690020FFF796
:1039C00005FCA0624FF0FF320021204609F0D2F83A
:1039D00004F1100009F0C7F8002201210C2006F0C4
:1039E000C5FE0C2006F0B8FE024B0122C3F80423EA
:1039F000002010BD00C0004008B50069044B002243
:103A0000C3F80021D3F8003103F05CFE08BD00BF0D
:103A100000C0004070B50446C817A2FB011302FBAA
:103A200000331F4AA1FB020102FB0313DD174FF60F
:103A3000ED7606EAE37620F04042810F41EA830109
:103A400021F040410A4402EB137232441549A1FBB4
:103A50000261561A01EB5601890BC1EBC131521AB2
:103A600025F4FF4121F07D010A44801A63EBE273E3
:103A70000D4A0E4E00FB06F602FB0366A0FB025247
:103A800016440B4A002328463146FCF729FB2060E8
:103A9000074A002328463146FCF722FB626070BDCE
:103AA0003AA3950005000200FF7FFFBFFFDFFFEF95
:103AB00040420F0070B50646CA17500140EAD16077
:103AC0004B015B1A60EB0205EC0144EA5364D80138
:103AD000C01A64EB0504E50145EA5065C3011B1AF1
:103AE00065EB0405591842EB0502094C0C1942F12B
:103AF0000005084A002320462946FCF7F1FA306009
:103B0000044A002320462946FCF7EAFA726070BD99
:103B100040787D0140420F0010B582B004696B46C9
:103B20000622124904F1180008F00EFFD8B99DF8DA
:103B300000209DF8013043EA02231BB204F58054B3
:103B4000E3679DF802209DF8033043EA02231BB28D
:103B5000C4F880309DF804209DF8053043EA022324
:103B60001BB2C4F8843002B010BD00BF0B000100CE
:103B700010B582B0046901AB0222094904F11800B2
:103B800008F0E2FE50B99DF804209DF8053043EAA4
:103B900002231BB204F58054C4F89C3002B010BD5F
:103BA00009000100F0B583B006460C4607690DF127
:103BB000070301222B4907F1180008F0C5FE05464E
:103BC0009DF8073013F0010F3ED00C2C36D010D8E2
:103BD000032C27D9043CA4B2032C3AD807F580570C
:103BE00097F87030672B23D0692B21D06FF08500B8
:103BF0002BE0402C30D13046FFF78EFF054307F510
:103C0000805797F87030672B07D0692B05D0304666
:103C1000FFF7AEFF0543002017E0304600F006FD39
:103C20000543F4E73046FFF777FF054300200CE03B
:103C3000304600F0FBFC0543002006E03046FFF76D
:103C400097FF0543002000E00020002D07DB03B0B4
:103C5000F0BD6FF08500F8E76FF08500F5E76FF0D5
:103C60000400F4E73900010010B504694068072931
:103C70000BD8042920D2032944D862B904F5805412
:103C8000B4F888201A60002043E041293AD10A2A7A
:103C900033D000203DE0072A06D104F5805494F883
:103CA0008A201A60002034E01C4A01211C4806F0DA
:103CB0001DFC6FF015002CE004F5805191F8701098
:103CC000672901D0692925D132B904F58054B4F8A7
:103CD00098201A6000201CE0072A06D104F58054C1
:103CE000B4F89A201A60002013E00C4A01210C4815
:103CF00006F0FCFB6FF015000BE090F837201A601F
:103D0000002006E0074A0121054806F0EFFB6FF0AE
:103D1000150010BD6FF01500FBE700BF00E00000CC
:103D2000B0D5000018E0000070B504460D460E68DE
:103D3000012E18D0002E3ED104F5805393F88B301D
:103D4000CBB304F58053B3F888302BB10B2B2AD9B1
:103D500004F1180002F098FD2B6804F5805484F8F3
:103D60008B30304670BD00F5805393F88B30012BBB
:103D7000E0D000F58053B3F888302BB1B3F5C87F9D
:103D800009D8183002F0F6FC2B6804F5805484F84A
:103D90008B300026E5E70C4A01210C4806F0A6FB13
:103DA0006FF01506DDE7084A0121084806F09EFB82
:103DB0006FF01506D5E7044A0121044806F096FB8A
:103DC0006FF01506CDE700BF2CE00000B0D5000075
:103DD00010B503460868821E0E2A0CD803F1180499
:103DE00003F584510A3107F0D1F8C1B2204602F040
:103DF00007FC002010BD044A0121044806F076FBB0
:103E00006FF01500F6E700BF48E00000B0D50000F5
:103E1000F0B583B000AF0469426820604B4B63602B
:103E20004B4BA3604FF40043E3602361D3696361AC
:103E300004F1180600222146304608F01DFC051E3C
:103E400014DB04F583511831304602F065FB051E82
:103E500013DB04F5805393F8781093F8703099428F
:103E600012D1002528460C37BD46F0BD2B46394AF5
:103E70000121394806F044FBF4E72B46374A01217B
:103E8000354806F03DFBEDE704F58054D4F874C0E6
:103E90006C4602223A7104227A718AB06D4615F19D
:103EA00010021BD0162062B10646042803DDDFF89D
:103EB000B0E0C5F814E0082E00DDA9610C2E00DD8D
:103EC000EB6102233B7004237B70A2B1102801DD5B
:103ED000C5F820C005F1240300210AE06FF000407E
:103EE000E1E701F108063E4416F8086C03F8016B9F
:103EF00001310129F5D9152824DD162342B1052108
:103F0000397100217971B9710121F97178682861DD
:103F100000216FF300016FF341016FF382016FF332
:103F2000C501012060F38811C3F30A0363F3532131
:103F30006FF31F5100230848FDF7B8FDA5466FF049
:103F400085058FE76FF01B03D8E700BF25AF0000A2
:103F500033AF000064E00000B0D5000074E0000062
:103F600088E000002DE9F0410669446806F1180771
:103F700094F82810490101F0E001384602F040FBB6
:103F8000054694F82800400100F0E00007F050F8E2
:103F900006F5805383F88A00002D52DB002850D0AC
:103FA00006F5805393F87030672B52D0692B50D0B0
:103FB00094F82C10090101F0F001384602F0D8FA0B
:103FC000054694F82E10384602F0F6FA054306F539
:103FD000805393F87030672B5AD0692B58D0002D3E
:103FE0005DDB618D002962D106F5805393F8703056
:103FF000672B00F08880692B00F08580002DC0F2CF
:10400000928094F8363006F5805585F88B3094F818
:104010002A0006F095FFA5F8880095F87030672B08
:1040200001D0692B07D194F8320006F089FF06F51C
:104030008056A6F89800642007F00BF80020BDE831
:10404000F0813D4A01213D4806F050FA6FF004002E
:10405000F5E794F83010490101F0E001384602F02C
:1040600037FB0546208E400100F0E00007F022FA01
:1040700006F58053A3F89A00002D01DB002897D1A4
:104080002F4A01212D4806F031FA6FF00400D6E7DF
:1040900094F83410384602F0F7FA05439FE7294AAE
:1040A0000121264806F022FA6FF00400C7E7C9B2E2
:1040B0000431C9B2384602F039FA054394F8368023
:1040C000B8F1000F05D194F82A0006F039FF0B284B
:1040D0000FD8B8F1010F06D194F82A0006F030FF8E
:1040E000B0F5C87F0AD9184A0121144806F0FEF934
:1040F0007AE7384602F0C8FB054375E7384602F018
:1041000039FB054370E7618E00293FF477AFC9B2F0
:104110000431C9B2384602F095FA0543384602F038
:1041200011FC05436AE7094A0121044806F0DEF95B
:104130006FF0040083E700BFC4E00000B0D50000CA
:10414000E4E0000004E1000024E1000044E100009C
:1041500038B504460569406883691B68984700289C
:1041600023DB05F580530022DA67C3F88020C3F80B
:10417000842093F87030672B01D0692B08D105F5A6
:1041800080530022C3F88C20C3F89020C3F89420F9
:1041900005F580550023C5F89C302046FFF738FE12
:1041A00058B92046FFF7DEFE38BD084A012108480D
:1041B00006F09CF96FF01200F6E7064A0121044868
:1041C00006F094F96FF00400EEE700BF60E1000034
:1041D000B0D5000074E1000008B5410CC003064BE7
:1041E000C018064A4FF0000341F10001FBF7C8FF79
:1041F00008F0A7FE08BD00BF3F420F0040420F007D
:1042000070B504460D686B1EB3F5C86F30D22846F2
:1042100004F58053B3F88830EBB904F1180504F5C0
:104220008451083107F034F8C1B2284602F07EF913
:1042300004F5805494F88B30012B02D033B1002563
:1042400020E0284602F096FA00251BE0284602F0FE
:104250001BFB002516E004F1180504F58451083114
:1042600007F016F8C1B2284602F060F9002509E00F
:104270000E464DB9183002F0EFFB336804F5805458
:10428000A4F88830284670BD034A0121034806F08F
:104290002DF96FF01505F5E790E10000B0D50000AD
:1042A00010B50B4611460A2B16D0CBB1072B1BD0ED
:1042B000DBB2122B1CD0132B38D113689A1E3E2A66
:1042C0002CD800F11804184606F07FFEC1B2204633
:1042D00002F04EF9002010BDFFF726FD0020FAE79E
:1042E000FFF78EFF0020F6E7FFF772FD0020F2E7F0
:1042F0001368B42B0ADC00F11804184607F040F8E4
:10430000C1B2204602F058F90020E4E70B4A01212F
:104310000B4806F0EBF86FF01500DCE7094A0121C5
:10432000074806F0E3F86FF01500D4E7064A0121CC
:10433000034806F0DBF86FF01500CCE7ACE10000B5
:10434000B0D50000D8E1000000E0000010B50C4638
:1043500011461A460069E3B2412B19D0032C21D033
:1043600004B3012C1ED0022C1CD0072C05D0042C29
:1043700003D0052C01D0062C18D100F5805393F8FA
:104380007030672B01D0692B10D100F0D3F80BE00F
:104390000A2909D0094A0121094806F0A7F86FF057
:1043A000150002E0FFF77CFF002010BD054A012147
:1043B000034806F09BF86FF01500F6E7FCE10000FB
:1043C000B0D5000018E0000010B588B001F07F0102
:1043D0008DF81C1007A90391012104910592069301
:1043E00003AB01930223029301A907F01CF80446D2
:1043F00010B9204608B010BD0346034A0121034806
:1044000006F07EF8F5E700BF6CE20000B0D50000D2
:1044100010B58CB061F07F018DF82C100BA90991BB
:1044200001210A9109AC0794089103AC019402247C
:1044300002940024039404910693059201AA07A90B
:1044400006F0E6FF044610B920460CB010BD034646
:10445000024A0121024806F053F8F5E780E2000025
:10446000B0D5000070B504460D68A5F10C0240F20D
:1044700034639A4222D8284604F58053B3F8983022
:104480007BB904F1180504F58451183106F000FFDA
:10449000C1B2284602F0D6F8284602F053FA0025A9
:1044A00016E004F1180504F58451183106F0F0FE09
:1044B000C1B2284602F0C6F8002509E00E464DB903
:1044C000183002F031FB336804F58054A4F89830BA
:1044D000284670BD034A0121034806F007F86FF033
:1044E0001505F5E790E10000A8D5000038B50446B1
:1044F0000846FBF7B9FFA0F1FA0240F2D6639A42F0
:104500000CD804F1180504F584511A3106F0ACFFFB
:10451000C1B2284602F0DCF8002038BD034A012170
:10452000034805F0E3FF6FF01500F6E748E00000F0
:10453000A8D5000010B591B1072915D0CBB2122B28
:104540001FD11368B42B14DC00F11804184606F0D0
:1045500017FFC1B2204602F097F8002010BD1146A7
:10456000FFF780FF0020F9E71146FFF7BFFF0020AB
:10457000F4E7084A0121084805F0B8FF6FF015007C
:10458000ECE7064A0121044805F0B0FF6FF0150082
:10459000E4E700BFACE10000A8D5000000E00000A7
:1045A00070B50446CB17A2FB010102FB03120318EE
:1045B00042EB020113EB000C42EB01031B0243EA46
:1045C0001C634FEA0C2CBCEB000C63EB0203DB0119
:1045D00043EA5C634FEACC1CBCEB000C63EB0203C8
:1045E0009B0043EA9C734FEA8C0CBCEB000C63EB22
:1045F0000201C9000B4A00234FEACC0041EA5C717A
:10460000FBF76EFD06460D46074A0023FBF768FDE3
:104610002060054A002330462946FBF761FD6260B1
:1046200070BD00BF4CFF590040420F0010B582B072
:1046300004696B460622124904F1180008F084F957
:10464000E0B99DF800209DF8013043EA02231BB237
:1046500004F58054C4F88C309DF802209DF8033096
:1046600043EA02231BB2C4F890309DF804209DF861
:10467000053043EA02231BB2C4F8943002B010BDE7
:1046800011000100034B00E01033034A9342FBD3B7
:10469000002070478CD600008CD60000034BD3F866
:1046A0001C01003818BF0120704700BF00200040E7
:1046B000034B0022C3F81C21D3F81C31704700BF04
:1046C00000200040B1F5164F6DD03BD8B1F5165F14
:1046D0006BD00AD9B1F5E14F72D025D947F6122334
:1046E00099422CD14FF4000313E0B1F5966F5ED0E0
:1046F00007D9B1F5166F60D0B1F5965F11D13A4B7D
:1047000007E0B1F5967F55D0B1F5167F06D14FF48D
:104710001C33364AC2F82435002070476FF015006C
:1047200070476FF015007047B1F5615F4AD0B1F581
:10473000964F01D12E4BECE76FF0150070476FF0EC
:1047400015007047B1F5613F3FD009D9B1F5612F30
:1047500042D01DD9274B994243D14FF08053D8E71F
:10476000B1F5963F33D004D9B1F5E13F0DD1224BDD
:10477000CFE74DF6C02399422BD0B1F5614F01D15F
:104780001E4BC6E76FF0150070476FF015007047BD
:104790001B4B994222D0B1F5E12F01D1194BB8E75B
:1047A0006FF015007047184BB3E7184BB1E74FF4A3
:1047B0009E23AEE74FF4A033ABE74FF41D23A8E7E9
:1047C000134BA6E74FF46C13A3E7124BA1E7124B70
:1047D0009FE74FF465039CE7104B9AE74FF0806327
:1047E00097E76FF01500704700B0130000200040FD
:1047F00000A04E0040420F0000E0D70100F0EB00A7
:1048000090D0030000705F0700509D00005027000B
:1048100000F0750000B0AF0300903A0100D0BE0E6A
:10482000084BD3F808314BB1064B0020C3F8080100
:10483000D3F80821D3F818350B7070474FF0FF30CC
:10484000704700BF00200040024BD3F88004C3F83B
:10485000800470470020004030B583B005694B7973
:10486000012B29D10C468B79032B28D1CB7923B18D
:104870006FF08503184603B030BD8DF804300B7916
:1048800023B1022B14D06FF08503F3E700238DF8DA
:1048900005302168FFF716FF034698B99DF805100B
:1048A0000A4AC2F86C1594E8030085E80300E1E7C2
:1048B0000E238DF80530ECE76FF08503DAE76FF033
:1048C0008503D7E76FF08503D4E700BF00200040E1
:1048D00038B50C4608F0F1F9B8B96425184B012237
:1048E000BFF35B8F53E8001F002903D143E800208A
:1048F0000028F7D1BFF35B8F0AD0012006F0EEFD50
:10490000013D15F0FF05E9D102E00D4B01221A60CF
:10491000FFF7CEFE0B4B01229A60C3F81C4542F212
:104920001074FFF7BBFE20B9012007F042F9013CEB
:10493000F7D1044B0122DA60014B00221A6038BD26
:104940001C1C00200020004038B50446436805695F
:1049500000210C4AC2F80015186806F0D5FD0028A1
:104960000FDB29462046FFF777FF50B9054B04229D
:10497000C3F800250022C3F80821D3F8082101223A
:104980001A6038BD00200040134B984211D9134BD8
:10499000984211D9124B984211D9124B984211D911
:1049A000114B984211D9114B984211D24FF08040CF
:1049B00070474FF0007070474FF0806070474FF0C5
:1049C000006070474FF0805070474FF000507047C4
:1049D0004FF00040704700BF8FD003001FA10700B9
:1049E0003F420F007F841E00FF083D0000127A0046
:1049F00038B50546002106F049FE04460021284648
:104A000006F051FE844238BF04464FF4FA5304FBCB
:104A100003F32C4654F8202B1268B3FBF2F3C8338F
:104A2000590CDB0340F2E73298184FF47A724FF0DA
:104A3000000341F10001FBF7A3FB02460B462046B1
:104A400002F084FE08B9286B38BD044A01210448ED
:104A500005F04CFD6FF07300F6E700BFF0E20000D8
:104A600028D60000F0B589B000AF0C46056946684D
:104A700095F85D301BB12B68994200F0EB80A3885C
:104A800013F4006F51D113F0010F56D113F0080F3A
:104A900040F0A780C3F34513082B40F0AA8022689A
:104AA0006D4B9A4240F2AD8007F10C0C06F1080EF6
:104AB000BEE80F00ACE80F00DEF80030CCF80030A4
:104AC0002068FFF761FF7861A38813F0020F00F000
:104AD000A08013F0040F00F0A18003233B76A3888D
:104AE00013F0100F00F09E8001237B763368D3F81B
:104AF0000805B0F1FF3F40F0978095F85D30002B3E
:104B000040F098802B46554A07F10C01304601F0E1
:104B100049FB534B984240F09480012385F85D3067
:104B20002C6000202437BD46F0BD4E4A01214E487E
:104B300005F0DCFC6FF08500F4E701686D460023AA
:104B40003B7202237B7288B06C4614F1100211D0C4
:104B50000E201AB1042801DD444B636100233B7130
:104B600002237B719AB1082800DDA16104F11C03C6
:104B700000210AE06FF00040EBE701F120063E441F
:104B800016F81C6C03F8016B01310129F5D90D28C9
:104B900024DD0E2342B10321397200217972B972EA
:104BA0000121F972B868206100216FF300016FF3F1
:104BB00041016FF382016FF3C501012060F3881199
:104BC000C3F30A0363F353216FF31F5100232648F5
:104BD000FCF76CFFAD466FF01500A3E76FF01B0309
:104BE000D8E7234A0121204805F080FC6FF015002A
:104BF00098E7204A01211C4805F078FC6FF0150069
:104C000090E71D4A0121184805F070FC6FF015006F
:104C100088E713F0040F03D001235FE702235DE769
:104C200000235BE7002360E7A188C1F3400106F0A1
:104C3000CBFC62E7304601F0E9FA002385F85D30ED
:104C400060E703460D4A0121074805F059FC6FF063
:104C5000040067E7002065E747E80100ED4C00002D
:104C60000000AD0B18E3000028D6000034E300007C
:104C700058E3000078E30000A8E30000DCE3000054
:104C800030B585B0044640682269916C01B3136D5C
:104C900003B38B4228BF0B4623B39365556C009535
:104CA000D5B1D9B90191D16C0291C9B1126D02B9D6
:104CB000134603930022694601F0ECFA0A4B98422E
:104CC00004D06FF00401204606F03BFD05B030BD76
:104CD000136DE1E70B46DFE70021E3E71946E1E763
:104CE0000023E6E70021EEE70000AD0B0378002B80
:104CF00051D110B50C468A6D5AB18B6CA3B19A4252
:104D00000DD89B1A8B64E3B14B6C6BB113444B64AD
:104D10000AE06FF07301606D06F013FD29E01E4A92
:104D200001211E4805F0E2FBA26D236DF3B19A420A
:104D300017D89B1A2365EBB1E36CBBB11344E36452
:104D400014E04B6B08334B638B6B013B8B6301238C
:104D500001F14802383104F1340006F050FC60647F
:104D6000E2E70D4A01210D4805F0C0FB606DFFF739
:104D700087FF10BDE36B0833E363236C013B2364BF
:104D8000012304F1500204F1400104F13C0006F05B
:104D900036FCE064EAE7704704E4000028D600002F
:104DA0002DE9F04383B004460E4690461F46056940
:104DB000D0F8049000910C9B0B9A9DF8281028467F
:104DC00006F0D7FC31462046FFF74CFE064608BBEE
:104DD000012385F85C30D9F82410B1F1FF3F21D1CF
:104DE00001233A464146284606F020FC00220121D4
:104DF000284606F065FC2046FFF742FF2846FFF7ED
:104E0000F7FD064610F1740F19D00022114628460E
:104E100006F056FC3146284606F09EFC304603B0AC
:104E2000BDE8F08309F1280006F0EFFC10F1740FE3
:104E3000D6D10B4A02210B4805F058FBD0E70027DA
:104E4000AF65484601F0E2F985F85D706FF07301D7
:104E5000204606F076FC05F1200002F09FFCD4E726
:104E600024E4000028D60000F0B583B000AF05466A
:104E700084685BE023681E6821796D4600233B71DE
:104E800002237B718AB06C4614F1100215D01220F7
:104E90001AB1042801DD314B636100233B7002230A
:104EA0007B70C2B10346082800DDA6610C2B00DD33
:104EB000E16104F1200300210BE06FF00040E7E71F
:104EC00001F1080606EB070C1CF808CC03F801CB2F
:104ED00001310129F4D9112824DD122342B1042122
:104EE000397100217971B9710121F97178682061F6
:104EF00000216FF300016FF341016FF382016FF343
:104F0000C501012060F38811C3F30A0363F3532141
:104F10006FF31F5100231248FCF7C8FDAD466FF038
:104F2000120017E06FF01B03D8E70834AB68EA689B
:104F300003EBC2039C420CD2206807F03FFD00281F
:104F400098D04FF4B011204606F016FB0028ECDA9A
:104F500000E000200C37BD46F0BD00BF50E400006B
:104F600028D6000070B5456806690021286A06F059
:104F700029FC041E0EDB696AB1F1FF3F0CD1EB691D
:104F800098473046FFF770FF041E03DB304606F0FB
:104F9000B7FB0024204670BD05F1280000F03CF866
:104FA000044610F1130F08D010F1050FE7D1064A9F
:104FB0000121064805F09AFAECE7054A0121034869
:104FC00005F094FAE6E700BFA0E4000028D6000050
:104FD00074E4000030B500F01F0C400917D14FF009
:104FE000A04E0CF5E0705EF820500A4C2C4041EACF
:104FF000420141EA83039DF80C2043EA02239DF815
:10500000102043EA024323434EF8203030BD4FF0D6
:10501000000EE6E7F0F8FCFF30B587B004460D4619
:1050200001238DF8173002238DF80C300DF1160195
:1050300004910DF11703009303AB01930023029336
:1050400007F0C0F90C4B984212D16A462946204617
:1050500007F098F9084B984202D1002007B030BD04
:105060009DF81610204607F0A9F96FF00400F5E747
:105070006FF01200F2E700BF0000AD0B21F07F419E
:1050800000F5A870014B43F8201070470010014054
:105090004FF480338340024AC2F84433704700BF64
:1050A000001001404FF480338340024AC2F8483375
:1050B000704700BF00100140014BD3F80405704752
:1050C000001001402DE9F843054689469046FFF758
:1050D000E9FF284606F025FC4E46032710E0FFF7BF
:1050E000EBFF0446494606F00BFCB0F5000F26D94D
:1050F000284606F016FCB8F1000F22D13E19013700
:1051000031462846FFF7BAFF2846FFF7C1FFFFF7F1
:10511000D3FF0446C11C304606F0F2FB0A4B98420E
:105120000AD9284606F0F0FB0028D8D1B8F1000FC4
:10513000E4D06FF0150000E00020BDE8F883002007
:10514000FBE76FF01500F8E7FDFF7F00034B044A13
:10515000C3F80823C3F84823704700BF001001407C
:1051600003000F0010B5012383406FEA030C0E4AC1
:10517000BFF35B8F52E8001F01EA0C0E42E800E427
:10518000002CF7D1BFF35B8F4FF480328240074889
:10519000C0F80823BFF35F8FBFF36F8F0B4214BFBC
:1051A0000120002010BD00BF241C00200010014081
:1051B0004FF480338340144AD2F80423134201D1C0
:1051C0000020704710B5044601238340DB430F499C
:1051D000BFF35B8F51E8002F02EA030041E8000CA7
:1051E000BCF1000FF6D1BFF35B8F22FA04F313F08A
:1051F000010F03D1204606F087FB18B1204606F0C8
:1052000090FB012010BD00BF00100140201C0020B9
:1052100001B9704701238340114ABFF35B8F52E805
:1052200000CF4CEA030C42E800C10029F7D1BFF3DC
:105230005B8F4FF4803383400A4AC2F80433BFF3D4
:105240005B8F094B1B68BFF35B8FC34013F0010FEB
:10525000DFD0064B4FF40032C3F80021D9E700BF7E
:10526000241C002000100140201C002000E100E070
:1052700038B514461046194606F05FFB02460D4944
:105280000B68E01A1B184C6844F100040B604C607A
:10529000A2F50013B3F5400F09D2074B1B68190A9A
:1052A0001B06D41841F10005044BC3E9004503F087
:1052B000DDFA38BDA8170020281C0020B0170020F8
:1052C00038B50D4B1C68250A2406BFF35F8FFFF726
:1052D000F3FE0346001945F10001B3F5801F0AD221
:1052E000064BD3E90023904271EB030303D210F184
:1052F000807041F1000138BD281C0020B01700204B
:105300002DE9F041064614461D469DF820801046C2
:10531000194606F012FB0746FFF7D2FFA04271EBD9
:10532000050319D2201A65EB01011D4B984271F15A
:1053300000012FD21B4B03EB0613D3E90223AB4230
:1053400008BFA24201D1002018E04246394630464B
:10535000FFF7B8FE90B11BE0B8F1000F1DD101239B
:10536000B340114ABFF35B8F52E8000F184342E885
:1053700000010029F8D1BFF35B8F0020094B3201F7
:1053800003EB0616C6E9024506999950079B736020
:10539000BDE8F0816FF01500FAE76FF01500F7E750
:1053A0000100800098170020201C002030B585B037
:1053B000FFF7CCFE00231E4AC2F80835002B25DD7E
:1053C0001B4C0225C4F804531A4B4FF40032C3F8A7
:1053D000802100220121112005F0C8F9112005F0DB
:1053E000BBF90123A3602360134A136000240294D5
:1053F0000194124B0093124A0023204606F0ADFAA6
:105400002846FDF7EBFE204605B030BD0D4A02EB05
:1054100003124FF0FF304FF0FF31C2E902014FF4A9
:1054200080329A400249C1F804230133C6E700BF25
:105430000010014000E100E0241C00207152000037
:10544000FFFF7F00981700202DE9F04782B0044647
:10545000FFF7AEFE10B902B0BDE8F087FFF730FFEE
:1054600082460D4606F06CFA0646154B03EB041314
:10547000D3E90289C24575EB09050BD200253046F8
:1054800006F066FA002DE6D0009742464B462046CD
:10549000A847E0E70A4A230102EB0411D5584F68F8
:1054A0000020D0504FF0FF324FF0FF33C1E902230C
:1054B0002046FFF7F7FD204606F033FADFE700BF8E
:1054C0009817002010B50D4BD3F8043313F0020FDA
:1054D00003D10024002C0BDD10BD0221074806F08B
:1054E000D9F90028F5D0064A136801331360F0E7B4
:1054F0002046FFF7A9FF0134ECE700BF0010014090
:10550000281C002010B584B0B0F1FF3F18D001284E
:105510001BDD154B9842A8BF18460446134B0122C9
:105520001A70FFF7CDFE124B1A685B68801AB0F54F
:10553000000F0CD20444B4F5000F09D30A4C07E065
:105540000A4B00221A70084CEBE70124E6E7064CF0
:1055500000201219029001900649009143F10003C6
:1055600006F0FBF904B010BDFFFF7F000F1D002007
:10557000A81700207152000008B5FFF7A1FE024BEA
:105580001B68C01A08BD00BFA8170020BFF34F8FCB
:105590000549CA6802F4E062044B1343CB60BFF3D1
:1055A0004F8F00BFFDE700BF00ED00E00400FA05EB
:1055B000024BD3F80034002BFAD0704700E00140D2
:1055C00008B5034BC3F80405FFF7F2FF08BD00BFA1
:1055D00000E0014038B506F0E0F940B14FF08053EB
:1055E000D3F82433C3F304236B4AC2F8403506F0E2
:1055F000E6F910B1694B6A4A5A6706F0F6F948B104
:105600004FF08053D3F84432C3F342334FF080421B
:10561000C2F83C3506F0FBF930B1624AD2F8FC30F2
:1056200023F08073C2F8FC3006F007FA40B14FF067
:1056300080430022C3F80C21C3F81021C3F8382599
:1056400006F00DFA20B14FF080430322C3F8A025E5
:1056500006F01BFA60B1544B0522C3F81026012254
:10566000C3F888260022C3F818263F22C3F8142660
:1056700006F021FA002846D04FF08052D2F80414E8
:105680004A4BC3F82015D2F80814C3F82415D2F8F1
:105690000C14C3F82815D2F81014C3F82C15D2F83E
:1056A0001414C3F83015D2F81814C3F83415D2F80E
:1056B0001C14C3F84015D2F82014C3F84415D2F8CE
:1056C0002414C3F84815D2F82814C3F84C15D2F89E
:1056D0002C14C3F85015D2F83014C3F85415D2F86E
:1056E0003414C3F86015D2F83814C3F86415D2F82E
:1056F0003C14C3F86815D2F84014C3F86C15D2F8FE
:105700004424C3F8702506F0F8F948B14FF08053EF
:10571000D3F8583203F04F034FF08042C2F8E43E12
:1057200006F0FDF960B14FF08043D3F8003413F078
:10573000010F05D04FF080436FF00102C3F8002441
:1057400006F0FFF930B11A4AD2F83C3743F48063CF
:10575000C2F83C3706F01DFA4FF01023D3F80032A0
:10576000002B06DB4FF01023D3F80432002B00DBB4
:1057700038BD0120FFF724FF4FF010241525C4F891
:105780000052FFF715FFC4F80452FFF711FF002085
:10579000FFF716FFFFF7FAFE0030014000C0074098
:1057A0000DF0ADBA00ED00E00050004000C0004038
:1057B0000010004010B50468CCB1B4FA84F3C3F112
:1057C0001F03DBB201229A4024EA0202BFF35B8F7F
:1057D00050E800CFA44504D140E8002EBEF1000FF0
:1057E000F6D1BFF35B8FE6D10B70024810BD0248C3
:1057F000FCE700BF0000AD0B0200AD0B0368CB401F
:1058000013F0010F15D100B5026801238B4013433B
:10581000BFF35B8F50E800CF944504D140E8003ED1
:10582000BEF1000FF6D1BFF35B8FEDD102485DF8FA
:1058300004FB0248704700BF0000AD0B0400AD0B35
:105840000D4BD3F8FC1041F08072C3F8FC20A3F597
:105850005D43186840F001021A605A68074B5B68A4
:105860009B1AB3F50A5FF9D3044B186003F55D4347
:10587000C3F8FC10704700BF00ED00E0001000E02E
:1058800070B582B00646C0B1012838D104224FF469
:10589000807301214FF08040C0F8081302440121B9
:1058A0001160034400221A601B688DF807108E42B5
:1058B00008D0002542F210740CE00C224FF48273E1
:1058C0000221E7E70DF10705F4E7012006F071F981
:1058D000013C0ED02A4631464FF0804006F06DF96B
:1058E000024640B1002DF0D09DF80730012BECD0DE
:1058F00002E0002200E001220AB1012E01D002B034
:1059000070BD024B00225A71F9E700BF2C1C002029
:10591000064B1B7943B9054B00229A71186001218F
:1059200019715A7102487047024870472C1C0020B8
:105930000000AD0B0C00AD0B08B5064B1B680BB19E
:1059400006F059F906F055F94FF08043C3F81805F1
:1059500008BD00BF2C1C002070B582B018B1012812
:1059600048D002B070BD4FF08043D3F81824D3F86C
:10597000183403F00303019312F4803F13D14FF066
:105980008043D3F8143413F0010F10D106F031F92D
:105990000190019A4FF08043C3F8182508254FF471
:1059A000827302262AE001A806F02EF9F1E74FF0F3
:1059B0008043D3F81C3403F00303019301A806F0DD
:1059C00023F90028E5D01C4B1B682BB14FF0804316
:1059D0000222C3F80423C4E74FF08043D3F8043114
:1059E000002BF9D04FF080430022C3F80421D3F8F4
:1059F0000431B6E700254FF48073012603F180449B
:105A0000002222602268B3F5827F0BD005F1804529
:105A100001232B60084B1B683BB14FF08043C3F858
:105A200004639EE7FFF70CFFF0E72368002BFCD030
:105A300000232360236894E72C1C002000B583B06A
:105A40000DF1070201214FF0804006F0B6F818B1C1
:105A50009DF80730012B03D01B4803B05DF804FB11
:105A6000002211464FF0804006F0A7F80028F3D03E
:105A7000164B9B79B3B94FF080430022C3F80C2139
:105A8000D3F80C21114A012191710220C3F8340C82
:105A90001961136843B14FF080430822C3F804230F
:105AA0000B48DAE70B48D8E74FF08043D3F80C31C6
:105AB000002BF9D04FF080430022C3F80C21D3F81B
:105AC0000C310348C9E700BF0500AD0B2C1C0020BA
:105AD0000000AD0B0B00AD0B10B54FF08043D3F8B9
