:020000040000FA
:10000000A08D002091620000AFF400007D6200002E
:100010007D6200007D6200007D6200000000000043
:10002000000000000000000000000000F563000078
:100030007D62000000000000A96300007D620000F6
:10004000B1650000B1650000B1650000B165000058
:10005000B1650000B1650000B1650000B165000048
:10006000B1650000B1650000B1650000B165000038
:10007000B1650000B1650000B1650000B165000028
:10008000B1650000B1650000B1650000B165000018
:10009000B1650000B1650000B1650000B165000008
:1000A000B1650000B1650000B1650000B1650000F8
:1000B000B1650000B1650000B1650000B1650000E8
:1000C000B1650000B1650000B1650000B1650000D8
:0C00D000B1650000B1650000B1650000E2
:1000E00001F0FF01102A2BDB10F0070F08D010F8E9
:1000F000013B013A8B422DD010F0070F42B3F6D1ED
:10010000F0B441EA012141EA014122F007047FF005
:1001100000070023F0E80256083C85EA010586EA5C
:10012000010685FA47F5A3FA87F586FA47F6A5FA98
:1001300087F68EB9EED1F0BC01F0FF0102F00702A4
:1001400032B110F8013B013A83EA010313B1F8D14F
:100150000020704701387047002D06BF3546033830
:10016000073815F0010F07D1013015F4807F02BF69
:10017000013015F4C03F0130F0BC0138704700BFBA
:1001800081F0004102E000BF83F0004330B54FEA48
:1001900041044FEA430594EA050F08BF90EA020FB5
:1001A0001FBF54EA000C55EA020C7FEA645C7FEA48
:1001B000655C00F0E2804FEA5454D4EB5555B8BF6B
:1001C0006D420CDD2C4480EA020281EA030382EADC
:1001D000000083EA010180EA020281EA0303362D6E
:1001E00088BF30BD11F0004F4FEA01314FF4801C41
:1001F0004CEA113102D0404261EB410113F0004F53
:100200004FEA03334CEA133302D0524263EB430309
:1002100094EA050F00F0A780A4F10104D5F1200EA7
:100220000DDB02FA0EFC22FA05F2801841F1000102
:1002300003FA0EF2801843FA05F359410EE0A5F1D6
:1002400020050EF1200E012A03FA0EFC28BF4CF007
:10025000020C43FA05F3C01851EBE37101F00045BD
:1002600007D54FF0000EDCF1000C7EEB00006EEBCA
:100270000101B1F5801F1BD3B1F5001F0CD3490854
:100280005FEA30004FEA3C0C04F101044FEA4452AB
:1002900012F5800F80F09A80BCF1004F08BF5FEA32
:1002A000500C50F1000041EB045141EA050130BD12
:1002B0005FEA4C0C404141EB0101013C28BFB1F524
:1002C000801FE9D291F0000F04BF01460020B1FA6F
:1002D00081F308BF2033A3F10B03B3F120020CDA42
:1002E0000C3208DD02F1140CC2F10C0201FA0CF020
:1002F00021FA02F10CE002F11402D8BFC2F1200C85
:1003000001FA02F120FA0CFCDCBF41EA0C0190403A
:10031000E41AA2BF01EB0451294330BD6FEA040483
:100320001F3C1CDA0C340EDC04F11404C4F120026E
:1003300020FA04F001FA02F340EA030021FA04F380
:1003400045EA030130BDC4F10C04C4F1200220FAD7
:1003500002F001FA04F340EA0300294630BD21FA15
:1003600004F0294630BD94F0000F83F4801306BFDB
:1003700081F480110134013D4EE77FEA645C18BFCF
:100380007FEA655C29D094EA050F08BF90EA020F66
:1003900005D054EA000C04BF1946104630BD91EA5E
:1003A000030F1EBF0021002030BD5FEA545C05D161
:1003B0004000494128BF41F0004130BD14F58004A0
:1003C0003CBF01F5801130BD01F0004545F0FE4114
:1003D00041F470014FF0000030BD7FEA645C1ABF49
:1003E000194610467FEA655C1CBF0B46024650EA80
:1003F000013406BF52EA033591EA030F41F40021AC
:1004000030BD00BF90F0000F04BF0021704730B531
:100410004FF4806404F132044FF000054FF0000106
:1004200050E700BF90F0000F04BF0021704730B5C7
:100430004FF4806404F1320410F0004548BF40429C
:100440004FF000013EE700BF42004FEAE2014FEAF1
:1004500031014FEA02701FBF12F07F4393F07F4FCC
:1004600081F06051704732F07F4208BF704793F0CF
:100470007F4F04BF41F40021704730B54FF46074E2
:1004800001F0004521F000411CE700BF50EA0102E5
:1004900008BF704730B54FF000050AE050EA01028E
:1004A00008BF704730B511F0004502D5404261EBFE
:1004B00041014FF4806404F132045FEA915C3FF43F
:1004C000D8AE4FF003025FEADC0C18BF03325FEADC
:1004D000DC0C18BF033202EBDC02C2F1200300FA8D
:1004E00003FC20FA02F001FA03FE40EA0E0021FAB2
:1004F00002F11444BDE600BF70B54FF0FF0C4CF4A0
:10050000E06C1CEA11541DBF1CEA135594EA0C0F51
:1005100095EA0C0F00F0DEF82C4481EA030621EA8C
:100520004C5123EA4C5350EA013518BF52EA0335C7
:1005300041F4801143F4801338D0A0FB02CE4FF079
:100540000005E1FB02E506F00042E0FB03E54FF0A9
:100550000006E1FB03569CF0000F18BF4EF0010EA1
:10056000A4F1FF04B6F5007F64F5407404D25FEA9D
:100570004E0E6D4146EB060642EAC62141EA555150
:100580004FEAC52040EA5E504FEACE2EB4F1FD0C92
:1005900088BFBCF5E06F1ED8BEF1004F08BF5FEA10
:1005A000500E50F1000041EB045170BD06F00046C2
:1005B00046EA010140EA020081EA0301B4EB5C046F
:1005C000C2BFD4EB0C0541EA045170BD41F4801167
:1005D0004FF0000E013C00F3AB8014F1360FDEBF8C
:1005E000002001F0004170BDC4F10004203C35DA68
:1005F0000C341BDC04F11404C4F1200500FA05F3EB
:1006000020FA04F001FA05F240EA020001F000428B
:1006100021F0004110EBD37021FA04F642EB060101
:100620005EEA430E08BF20EAD37070BDC4F10C042B
:10063000C4F1200500FA04F320FA05F001FA04F2EF
:1006400040EA020001F0004110EBD37041F10001DB
:100650005EEA430E08BF20EAD37070BDC4F12005E6
:1006600000FA05F24EEA020E20FA04F301FA05F24E
:1006700043EA020321FA04F001F0004121FA04F2F6
:1006800020EA020000EBD3705EEA430E08BF20EAC6
:10069000D37070BD94F0000F0FD101F00046400000
:1006A00041EB010111F4801F08BF013CF7D041EA82
:1006B000060195F0000F18BF704703F00046520086
:1006C00043EB030313F4801F08BF013DF7D043EA57
:1006D0000603704794EA0C0F0CEA135518BF95EA0D
:1006E0000C0F0CD050EA410618BF52EA4306D1D194
:1006F00081EA030101F000414FF0000070BD50EAB3
:10070000410606BF1046194652EA430619D094EA3C
:100710000C0F02D150EA013613D195EA0C0F05D126
:1007200052EA03361CBF104619460AD181EA03017A
:1007300001F0004141F0FE4141F470014FF0000032
:1007400070BD41F0FE4141F4780170BD70B54FF0CD
:10075000FF0C4CF4E06C1CEA11541DBF1CEA13554D
:1007600094EA0C0F95EA0C0F00F0A7F8A4EB05042F
:1007700081EA030E52EA03354FEA013100F0888026
:100780004FEA03334FF0805545EA131343EA1263EF
:100790004FEA022245EA111545EA10654FEA0026A4
:1007A0000EF000419D4208BF964244F1FD0404F55D
:1007B000407402D25B084FEA3202B61A65EB0305B9
:1007C0005B084FEA32024FF480104FF4002CB6EB76
:1007D000020E75EB030E22BFB61A754640EA0C00F6
:1007E0005B084FEA3202B6EB020E75EB030E22BF36
:1007F000B61A754640EA5C005B084FEA3202B6EB77
:10080000020E75EB030E22BFB61A754640EA9C0035
:100810005B084FEA3202B6EB020E75EB030E22BF05
:10082000B61A754640EADC0055EA060E18D04FEAC3
:10083000051545EA16754FEA06164FEAC30343EA63
:1008400052734FEAC2025FEA1C1CC0D111F4801F30
:100850000BD141EA00014FF000004FF0004CB6E729
:1008600011F4801F04BF01430020B4F1FD0C88BFC8
:10087000BCF5E06F3FF6AFAEB5EB030C04BFB6EBD3
:10088000020C5FEA500C50F1000041EB045170BDC6
:100890000EF0004E4EEA113114EB5C04C2BFD4EBF3
:1008A0000C0541EA045170BD41F480114FF0000E77
:1008B000013C90E645EA060E8DE60CEA135594EAF3
:1008C0000C0F08BF95EA0C0F3FF43BAF94EA0C0FF6
:1008D0000AD150EA01347FF434AF95EA0C0F7FF46B
:1008E00025AF104619462CE795EA0C0F06D152EABF
:1008F00003353FF4FDAE1046194622E750EA4106A3
:1009000018BF52EA43067FF4C5AE50EA41047FF4B3
:100910000DAF52EA43057FF4EBAE12E74FF0FF3C18
:1009200006E000BF4FF0010C02E000BF4FF0010CE9
:100930004DF804CD4FEA410C7FEA6C5C4FEA430C62
:1009400018BF7FEA6C5C1BD001B050EA410C0CBFB1
:1009500052EA430C91EA030F02BF90EA020F002013
:10096000704710F1000F91EA030F58BF994208BF7A
:1009700090422CBFD8176FEAE37040F00100704737
:100980004FEA410C7FEA6C5C02D150EA013C07D18E
:100990004FEA430C7FEA6C5CD6D152EA033CD3D0D9
:1009A0005DF8040B704700BF8446104662468C46D3
:1009B0001946634600E000BF01B5FFF7B7FF002806
:1009C00048BF10F1000F01BD4DF808EDFFF7F4FF2F
:1009D0000CBF012000205DF808FB00BF4DF808EDBA
:1009E000FFF7EAFF34BF012000205DF808FB00BFDD
:1009F0004DF808EDFFF7E0FF94BF012000205DF8FF
:100A000008FB00BF4DF808EDFFF7CEFF94BF0120B3
:100A100000205DF808FB00BF4DF808EDFFF7C4FFAC
:100A200034BF012000205DF808FB00BF4FEA410CF5
:100A30007FEA6C5C02D150EA013C0AD14FEA430CD8
:100A40007FEA6C5C02D152EA033C02D14FF0000015
:100A500070474FF0010070474FEA410212F5001253
:100A600015D211D56FF47873B3EB625212D94FEAF5
:100A7000C12343F0004343EA505311F0004F23FADF
:100A800002F018BF404270474FF00000704750EA34
:100A9000013005D111F0004008BF6FF000407047F1
:100AA0004FF00000704700BF4A0011D212F500124B
:100AB00011D20DD56FF47873B3EB62520ED44FEAB6
:100AC000C12343F0004343EA505323FA02F0704736
:100AD0004FF00000704750EA013002D14FF0FF3074
:100AE00070474FF00000704753B94AB9002908BF5A
:100AF00000281CBF4FF0FF314FF0FF3000F00CB862
:100B0000ADF1080C6DE904CE00F010F8DDF804E05A
:100B1000DDE9022304B07047704700BF034613F8B5
:100B2000012B002AFBD1181A013870472DE9F04734
:100B300086468C460846089E154674461946002B84
:100B400040F0C2808542B2FA82F245D94AB1C2F180
:100B5000200300FA02FC2EFA03F3954043EA0C0C42
:100B600094404FEA154EA8B2BCFBFEF8230C0EFBD6
:100B700018CC08FB00F943EA0C43994528D9EB1837
:100B800008F1FF3704D2994502D9A8F102072B4496
:100B9000A3EB0903A4B2B3FBFEFC0EFB1C330CFB5E
:100BA00000F044EA0344A04214D92C190CF1FF339D
:100BB00004D2A04202D9ACF102032C44241A43EA25
:100BC00007401EB1D440002334607360BDE8F08755
:100BD0004746DDE76346F1E792BB431B01214FEA3D
:100BE000154EAFB2B3FBFEFC200C0EFB1C330CFB0E
:100BF00007F840EA0343984562D9EB180CF1FF303F
:100C000004D2984502D9ACF102002B44A3EB0803AF
:100C1000A4B2B3FBFEFC0EFB1C330CFB07F744EA4B
:100C20000344A7424ED92C190CF1FF3304D2A7423A
:100C300002D9ACF102032C44E41B43EA0040C0E7B4
:100C4000C2F1200320FA03F1954090402EFA03F3FD
:100C500003434FEA154EAFB2B1FBFEFC0EFB1C1076
:100C6000190C0CFB07F841EA0041884504FA02F42C
:100C700022D969180CF1FF3004D2884502D9ACF1B1
:100C800002002944A1EB08019BB2B1FBFEFC0EFB64
:100C90001C110CFB07F743EA01439F420ED9EB18E6
:100CA0000CF1FF3104D29F4202D9ACF102012B4476
:100CB000DB1B41EA004192E76046E3E76146F7E764
:100CC0006046A3E76346B7E7834206D916B9002119
:100CD00008467BE7C6E900E0F9E7B3FA83F78FB986
:100CE000834201D3724508D8BEEB020460EB0303D4
:100CF00001209C461EB9002168E73846FAE7C6E99C
:100D0000004CF8E7C7F1200CBB4022FA0CF41C435E
:100D10002EFA0CF120FA0CF3B84001434FEA1449C3
:100D20000EFA07F5B3FBF9F81FFA84FE09FB183039
:100D30000B0C08FB0EFA43EA00439A4502FA07F24D
:100D400040D9E31808F1FF3004D29A4502D9A8F13E
:100D500002002344A3EB0A0389B2B3FBF9F809FBB1
:100D6000183308FB0EFE41EA03418E452CD9611869
:100D700008F1FF3304D28E4502D9A8F102032144C1
:100D800043EA0040A0FB0298A1EB0E014145CE468C
:100D9000434602D306D14D4504D2B9EB020E68EBAF
:100DA00004030138002EA6D0B5EB0E0261EB03015F
:100DB00001FA0CFC22FA07F34CEA0303F940C6E9F6
:100DC000003198E74046C5E74346D9E700000000F8
:100DD00038B500F099FF1A4B18600446FFF712FB74
:100DE00011A3D3E90023FFF787FB11A3D3E9002365
:100DF000FFF7ACFCFFF758FE201AFFF703FB114B7F
:100E0000044618680D46FFF70DFB0BA3D3E900233A
:100E1000FFF772FB02460B4620462946FFF7B6F95C
:100E2000FFF742FE38BD00BF1C7C61325556C340FF
:100E3000000000000088C340802D6ABFFB5784413A
:100E4000A06D00209C6D002008B502F0A7F80028D6
:100E5000B8BF7F30C011193000B2FFF7E3FA06A324
:100E6000D3E90023FFF748FB054B0022FFF78EF97B
:100E7000FFF7F2FD00B208BDCDCCCCCCCCCCFC3F12
:100E800000004040000000002DE9F04F476A97B095
:100E900014461D46CDE90445239E83467FB91020A4
:100EA0000CF08AF80246CBF8240020B9A24BEA21C4
:100EB000A2480DF0E5F8C0E901770760C760DBF8EC
:100EC0002430196859B15A684A60012393408B60F5
:100ED00058460CF001FDDBF8243000221A602B1E6E
:100EE000B9BF23F00043059300233360059F944B63
:100EF000BCBF01223260BB4319D1229A42F20F7368
:100F00001360C7F31303234300F0E285249B53B916
:100F10008C4B21E08C4B08930833249A136008987B
:100F200017B0BDE8F08F874B08930333F5E7DDE991
:100F30000423CDE90C23DDE90C0100220023FFF797
:100F400043FD804650B1229A01231360249B13B1C4
:100F5000249A7E4B13607E4B0893E0E714AB019319
:100F600015AB00935846DDE90C230CF035FFC7F3B1
:100F70000A560390002E7AD00D9BCDF84C80C3F317
:100F80001303DDE90C0143F07F5343F44013A6F251
:100F9000FF36194600226F4BFFF7F6F860A3D3E93E
:100FA0000023FFF7A9FA60A3D3E90023FFF7EEF8C7
:100FB000044630460D46FFF735FA5DA3D3E900231A
:100FC000FFF79AFA02460B4620462946FFF7DEF85D
:100FD00004460D46FFF740FD002207460023204649
:100FE0002946FFF7FBFC40B13846FFF71BFA2246C3
:100FF0002B46FFF7E9FC00B9013F162F54D8564B9A
:1010000003EBC703D3E90023DDE90C01FFF7E6FC9E
:1010100000284BD0013F00231293149B9B1B5A1EA8
:1010200045BFC3F101030693002300230A9254BF76
:1010300006930A93002F3BDB0A9B0F973B440A93CE
:1010400000230B93209B092B00F28A80052BC4BF41
:10105000043B2093209BA3F10203CCBF0024012476
:10106000032B00F28880DFE803F02B383657DDE9E8
:1010700014631E4406F23243202BC1BFC3F1400368
:101080009F4006F2124324FA03F3D6BFC3F12003B4
:1010900047EA030004FA03F0FFF7B4F90122A1F1D3
:1010A000F873013E139274E70123B5E71290B4E799
:1010B000069BDB1B06937B420B9300230F93C1E738
:1010C00000230E93219B002B58DC012309939946A2
:1010D0001A4621920CE00123F3E700230E93219B93
:1010E000FB1803F1010909934B46012BB8BF0123FB
:1010F000DBF824000021042202F114059D4241D9AD
:10110000416058460CF0A8FB089000283DD1134BD5
:1011100002464FF4D571CBE60123DFE7AFF3008041
:1011200061436F63A787D23FB3C8608B288AC63FED
:10113000FB799F501344D33F95310100AC3101003E
:101140000000F07F91310100883101002E0E010076
:101150002D0E01000000F83F0008010008320100D8
:101160000124002320930E944FF0FF3309939946F6
:1011700000221223ADE701230E93F5E7219B09938B
:101180009946B5E701315200B6E7DBF82430089AFA
:101190001A60B9F10E0F6FD8002C6DD0002F36DD1C
:1011A000A14B07F00F0203EBC203D3E90034F805AB
:1011B000CDE910344FEA271417D59C4BDDE90C011B
:1011C000D3E90823FFF7C2FACDE9040104F00F04C4
:1011D0004FF00308954D5CB9DDE91023DDE904010A
:1011E000FFF7B4FACDE904012BE04FF00208F1E774
:1011F000E10709D5DDE91001D5E90023FFF77CF906
:10120000CDE9100108F1010864100835E3E700F0AA
:1012100007817C42844B854D04F00F0203EBC2032F
:10122000D3E90023DDE90C01FFF766F9CDE90401FC
:10123000241100234FF00208002C40F0E580002B21
:10124000D0D1129BDDE90445002B00F04C81784B96
:10125000002220462946FFF7C1FB002800F0438109
:10126000B9F1000F00F03F81099B002B00F3E480EF
:10127000DDE90C34CDE90434159B002B02DB0E2F85
:1012800040F342820E9A002A40F067820B9CDDF800
:1012900018800025B8F1000F0DD00A9B002B0ADD45
:1012A0004345069AA8BF4346D21A06920A9AA8EB6B
:1012B0000308D31A0A930B9B0BB30E9B002B00F071
:1012C000A682002C00F0A1822946224658460CF046
:1012D0002BFC039A0146054658460CF07BFB03990C
:1012E000064658460CF0F8FA0B9B1B1B0B9300F0BC
:1012F00091820B9A314658460CF016FC039001215E
:1013000058460CF051FB0F9B0446002B00F08482E2
:101310001A46014658460CF007FC209B012B044658
:1013200003DC049B002B00F07C820026236904EB85
:10133000830318690EF021FE0F96C0F120000A9B6E
:10134000184410F01F0000F09182C0F12003042B1C
:1013500040F38182069BC0F11C00034406930A9B64
:10136000034480440A93069B002B05DD03991A462B
:1013700058460CF033FC03900A9B002B05DD2146F8
:101380001A4658460CF02AFC0446129B002B00F02B
:101390007682039821460EF03FFE002880F26F828D
:1013A000002303990A2258460CF0B8FA0E9B0390CA
:1013B0007E1E002B00F05C82002329460A2258463C
:1013C0000CF0ACFA099B002B054603DC209B022B9A
:1013D00000F35E82B8F1000F05DD2946424658460B
:1013E0000CF0FCFB05460F9B002B00F0D0826968D7
:1013F00058460CF031FA0746002840F07F820D4B2A
:10140000024640F2EA2153E5E20706D5D5E900237A
:10141000FFF772F808F101080123641008350BE7A3
:101420004FF002080DE700BF00080100D8070100D7
:101430000000F03F083201002046AD4B0022294653
:10144000FFF75AF8CDE90401099C7E1E08F1010856
:101450004046FEF7E7FFDDE90423FFF74DF8A54B13
:101460000022FEF793FEA1F15073CDE91001119314
:10147000002C3BD1DDE904019F4B0022FEF784FEE6
:1014800002460B46CDE90423DDE91023FFF7C4FA39
:10149000002840F05781DDE9102101F10043DDE92A
:1014A0000401FFF79BFA00283FF4E2AE0024254632
:1014B000219BDDF820A0DE434FF00008214658466E
:1014C0000CF00AFA002D00F0A980B8F1000F05D049
:1014D000A84503D0414658460CF0FEF92946584627
:1014E0000CF0FAF99AE03E464C46B1E7834B03EB29
:1014F000C40353E90201089B1C440E9B002B4AD0F5
:1015000002460B4600207E49FFF720F9DDE9102353
:10151000FEF73AFECDE91001DDF820A0DDE9040177
:10152000FFF79AFA0546FEF77DFF02460B46DDE916
:101530000401FEF729FE3035CDE9040102460B46D1
:101540000AF8015BDDE91001FFF766FA002865D1B2
:10155000DDE904236B490020FEF716FE02460B4628
:10156000DDE91001FFF758FA002840F00D81A2458F
:1015700000F0EA80DDE910015D4B0022FEF7BCFFC0
:101580005B4BCDE910010022DDE90401FEF7B4FF59
:10159000CDE90401C2E7DDE91023FEF7ADFFCDE997
:1015A0001001DDF820A0A046DDE90401FFF754FAA0
:1015B0000546FEF737FF02460B46DDE90401FEF75C
:1015C000E3FD30350AF8015B02460B46A245CDE942
:1015D00004234FF0000223D1494BDDE91001FEF74F
:1015E000D5FD02460B46DDE90401FFF715FA002898
:1015F00040F0CA80DDE9102341490020FEF7C4FD18
:1016000002460B46DDE90401FFF7E8F970B1C24676
:1016100008F1FF381AF8013C302BF8D0374655E076
:10162000334BFEF769FFCDE90401BDE7DDE90C347A
:10163000CDE90434159B002BFFF628AE0E2F3FF7A3
:1016400025AE2E4B03EBC703D3E90034CDE90634B6
:10165000219B002B02DAB9F1000F64D0DDE90445CB
:10166000DDF820A0DDE9062320462946FFF76EF8C5
:10167000FFF7F2F90646FEF7D5FEDDE90623FEF791
:101680003BFF02460B462046294606F13004FEF792
:101690007BFD0AF8014B089CAAEB0404A145024615
:1016A0000B4640F08280FEF771FDDDE9062304461B
:1016B0000D46FFF7B1F9002865D1DDE90623204684
:1016C0002946FFF781F908B1F3075CD4039958461E
:1016D0000CF002F900238AF80030229B01371F60CA
:1016E000249B002B3FF41BACC3F800A017E400BF01
:1016F0000000244000001C400000144000080100CD
:101700000000E03F0000F03FA24B03EBC703D3E92A
:101710000034CDE90634219B002B9FDAB9F1000F8C
:101720009CDC7FF4C3AE9C4B0022DDE90601FEF792
:10173000E3FEDDE90423FFF765F9044600287FF4A2
:10174000B5AE3E462546B4E0DDE90C34CDE90434BF
:10175000159B002B01DB0E2FD6DD209A012A36DCEB
:10176000139A82B303F233430B9CDDF81880069A78
:101770001A4406920A9A01211A4458460A920CF019
:1017800013F9054686E53E4653469A4613F8012D61
:10179000392A06D1089A9A42F7D10899302201369F
:1017A0000A701A7801321A7038E77C4B0022FEF773
:1017B000A3FE0022002304460D46FFF705F900288A
:1017C0003FF450AF82E7149BC3F13603CCE70B9B89
:1017D00009F1FF34A34208DBB9F1000FA3EB0404C5
:1017E0000EDBDDF818804B46C1E70B9B0F9A0B947C
:1017F000E31A1A44DDF818800F924B460024B6E72E
:10180000069BA3EB09080023B1E7039E71E50B9A41
:10181000039970E5039672E5209B012B17DC049B6E
:10182000ABB9059BC3F313039BB9059B23F000469B
:10183000360D360536B1069B013306930A9B0133FC
:101840000A9301260F9B002B7FF470AD0F960120A9
:1018500075E50026F6E73FF486AD069A1C331A4478
:1018600006920A9A1A4498440A927CE50346F4E7E1
:10187000099B002B2BDC209B022B09DC27E0B9F114
:10188000000F1DDC209B022B1ADDCDF824903E4674
:10189000099B002B7FF40CAE2146052258460CF024
:1018A0003DF80146044603980EF0B6FB00287FF78A
:1018B000FFADDDF820A031230AF8013B0136FBE53E
:1018C0000E9BCDF824903E46002B7FF483AD089FFD
:1018D000039821460EF0C9FA00F1300907F8019B80
:1018E000089B099AFB1A9A4240F3CB800399002384
:1018F0000A2258460CF012F80390E9E72A690232EE
:10190000920005F10C010C300EF07FF901223946EE
:1019100058460CF063F9089B03F1010ADDE908233E
:1019200013440A93049B03F00103A8460B93054656
:101930000AF1FF332146039806930EF096FA4146CA
:10194000099000F1300903980EF066FB2A46214603
:10195000074658460CF0AEF9C268014602B3584635
:101960000BF0BAFF002F3ADA0399012258460CF027
:1019700035F9214603900EF04FFB002803DC29D1F6
:1019800019F0010F26D0B9F1390F1DD132E02846E8
:10199000C1E700BF0008010000001440000024401F
:1019A0000E9003980EF038FB0E990C9058460BF0F1
:1019B00093FF0C9A5ABB209B53B90B9B43B9B9F1C7
:1019C000390F17D0002F05DD099B03F1310901E024
:1019D000002F2ADADDF818A00AF8019B6EE5209B9B
:1019E0003B4304D1049B03F00103002BBCD0B9F1AD
:1019F000390F36D1069F392307F8013BBA46013F1C
:101A00001AF8013C392B5BD001333B7056E5002FAF
:101A100006DB209B3B4306D1049B03F0010313B973
:101A2000002AA1DCD6E7002AE1DC0A9B0AF8019C27
:101A3000534557462FD0039900230A2258460BF0EE
:101A40006DFFA84503904FF000034FF00A02414696
:101A500058460BD10BF062FF804605460AF1010A99
:101A600066E7DDF818A009F10109B5E70BF056FFAC
:101A70002946804600230A2258460BF04FFF0546B0
:101A8000ECE7099B002BC8BF1F46089BD8BF012766
:101A90001F444FF000080399012258460CF09EF8AD
:101AA000214603900EF0B8FA0028A7DC02D119F005
:101AB000010FA3D1BA4617F8013D302BFAD0FDE44F
:101AC000089BBB429AD1089A312301361370F5E482
:101AD000249B002B7FF41EAA014BFFF73DBA00BFE9
:101AE00088310100F0B52B4D2B4E2C4F95B04C2278
:101AF000002168460EF097F80224294B8DF80D401E
:101B000004958DF8214009968DF835400E978DF893
:101B1000494013934FF0FF334FF0FF3204216846E2
:101B20000BF0A0F8039B03F4FE13B3F5004F09D1AB
:101B30000022002328460CF062FE204601F050F9F6
:101B400001F032F9089B03F4FE13B3F5004F06D100
:101B50000022002330460CF052FE01F025F90D9BC7
:101B600003F4FE13B3F5004F06D1002200233846DC
:101B70000CF045FE01F018F9129B03F4FE13B3F5C7
:101B8000004FB4D10648002200230CF038FE01F0CB
:101B90000BF9ACE7B4530020CC530020E4530020F1
:101BA000FC53002073B5144D144E154C4FF0FF320A
:101BB0004FF0FF3328460CF022FE4FF4FA630193F6
:101BC00001A930460DF02CFF019B0E4A032120464F
:101BD0000DF0C7FB0C4801A90DF022FF019B0B4A39
:101BE000032120460DF0BDFB094B1B68012BDDD105
:101BF00001F0B2F8DAE700BF44540020105500208D
:101C000070070100AC0B010078540020C10B0100EB
:101C1000D86D0020D0B588B000F0F4FA0A21012078
:101C20000CF02DFE00F0D8FB012108460CF020FE40
:101C300000F024FC002101200CF01AFE01F084F8D1
:101C4000244B1B68012B01D101F086F800F052F9FA
:101C5000214A224803210DF07BFB214A1F48032122
:101C60000DF076FB0026002700240723CDE903347E
:101C7000CDE90667CDE901441A4B1B4900944FF4A6
:101C800081621A4808F0B8FF194918480DF0B4FEEF
:101C90000523CDE90243CDE90667CDE90044154BA4
:101CA000154904944FF48062144808F0A5FF1449C4
:101CB00012480DF0A1FE134A084803210DF048FB1D
:101CC0000CF0CBFD4FF0FF314FF0FF3009F05EFE1E
:101CD000F8E700BFD86D0020D60B010070070100A7
:101CE000EC0B0100A51B00005874002010550020CB
:101CF0000C0C0100E51A00005870002078540020F8
:101D0000170C0100260C0100044A13681BB104499A
:101D10000B6801330B60002010607047986D002045
:101D20009C6D002013B50DF0D9FE4FF47A74A0FB22
:101D3000040304FB01310E4AC30B43EA41434EF650
:101D40006020B3FBF2F102FB1133C9B2B3FBF0F236
:101D500000FB1233002061F30700D2B262F30F20C0
:101D6000B3FBF4F3DBB263F3174002B010BD00BF66
:101D700080EE3600014808F09FBA00BFFC530020F7
:101D800070B5034600681979836845689C690269E3
:101D90000CB32D6801238B402B420ED10E490F4A04
:101DA0000F4840F293330DF0B6F80E480DF0B3F83B
:101DB0000A4840F293310DF0A5F812681342A44688
:101DC00018BF4FF00073BDE8704008BF4FF080634C
:101DD0004FF0A072604770BD830C0100520C0100EF
:101DE000C10C0100DE0C0100014603488368DB6979
:101DF0000BB1012218477047F80401002DE9F041AA
:101E000003460068DD88197945F4803205F0300416
:101E1000302CD0E9013706690ED12449244A2548DF
:101E200040F2E2330DF077F823480DF074F840F2F9
:101E3000E2311F480DF066F805F0020464B11F4955
:101E40001B4A1C4840F2E6330DF065F81C480DF0C3
:101E500062F840F2E631ECE705F00604042C09D103
:101E60001849134A134840F2E9330DF054F840F290
:101E7000E931DEE71B6801248C401C420CD1124979
:101E80000B4A0C484FF47F730DF045F80F480DF0E6
:101E900042F84FF47F71CCE73368ED074CBF234322
:101EA000A34333603B68BDE8F0411847F00C0100E4
:101EB000520C0100C10C0100290D0100660D01004A
:101EC000AD0D0100FC0D0100830C0100DE0C0100D2
:101ED000014808F0F1B900BFB4530020014808F0F0
:101EE000EBB900BFCC530020014808F0E5B900BFB2
:101EF000E453002010B51F4C2046FFF77FFF20461B
:101F0000FFF73EFF1C481D4C1D4B43604FF4006320
:101F10008360FFF769FF2046FFF770FF2046FFF759
:101F20002FFF1848184C194B43604FF480538360BF
:101F3000FFF75AFF2046FFF761FF2046FFF720FF1B
:101F40001348144C144B43604FF400538360FFF765
:101F50004BFF2046FFF752FF2046FFF711FF0F48C7
:101F60000F4B43604FF480438360BDE81040FFF7A0
:101F70003BBF00BFE0080100C86D0020D808010089
:101F8000D11E0000BC6D0020D0080100DD1E000045
:101F9000B06D0020C8080100E91E0000A46D0020FB
:101FA000751D0000014808F087B900BF2C540020BF
:101FB000014808F081B900BF5C540020014808F0D6
:101FC0007BB900BF4454002013B5114C0120216897
:101FD0000CF04EFC0F4823680268B3FA83F3013219
:101FE0005B09072A026023600EDD002101600120E9
:101FF0000CF03EFC4FF4802200230748CDE900237B
:102000000AF0ACFB02B010BD40F26762F4E700BF1B
:1020100000000020D46D00209852002007B503284E
:1020200026D8DFE800F0020E151C4FF480220023B2
:10203000CDE900230F480AF091FB012003B05DF8C1
:1020400004FB4FF4902200230B48CDE90023F2E774
:102050004FF4C04200230948CDE90023EBE70022FA
:102060000023CDE9002306484FF490220023E2E745
:102070000020E3E798520020D052002008530020AF
:10208000405300202DE9F041034600681979DB88B0
:1020900003F03002302AD0E9014706690ED1214908
:1020A000214A224840F2E2330CF035FF20480CF080
:1020B00032FF40F2E2311C480CF024FF03F006022C
:1020C000042A09D11B49184A184840F2E9330CF098
:1020D00022FF40F2E931EEE724680125DA0705FA2C
:1020E00001F554BF43F4B01383F4D013254223F415
:1020F00080120CD110490C4A0C484FF47F730CF03D
:102100000AFF0E480CF007FF4FF47F71D3E73468E5
:10211000DB074CBF2C43AC4334603B68BDE8F04167
:10212000184700BFF00C0100520C0100C10C010067
:10213000290D0100FC0D0100830C0100DE0C0100E3
:1021400010B5034600681B790121994043681B685C
:1021500019420ED109490A4A0A4840F2B6630CF006
:10216000DAFE09480CF0D7FE054840F2B6610CF0E3
:10217000C9FE8368BDE810405B691847830C010005
:10218000520C0100C10C0100DE0C010010B5034629
:102190000A46006819790469012303FA01F14368CA
:1021A0001B6819420ED10E490E4A0F4840F28D634A
:1021B0000CF0B1FE0D480CF0AEFE0A4840F28D6105
:1021C0000CF0A0FE2368194203D022B183681B697A
:1021D00003E0002AFAD08368DB68BDE810401847A6
:1021E000830C0100520C0100C10C0100DE0C010047
:1021F000013802289ABF024B53F820000020704794
:10220000E808010010B50F480DF081FB08B9002067
:1022100010BD0C480DF07BFB0028F8D009480DF0EC
:1022200076FB0028F3D00848FFF72CFF0446074848
:10223000FFF728FF04430648FFF724FF2043C0436D
:10224000C00FE5E7F804010004090100FC080100E3
:10225000F408010037B5034600681B7901249C404F
:1022600043681B681C420ED10E490F4A0F4840F2CA
:1022700034630CF050FE0E480CF04DFE0A4840F25C
:1022800034610CF03FFE0569836801A95B689847DB
:1022900030B92A68019B5340234214BF012000201B
:1022A00003B030BD830C0100520C0100C10C0100D1
:1022B000DE0C01002DE9F04103460068DD88197944
:1022C00045F4803205F03004302CD0E9013706693E
:1022D0000ED12449244A254840F2E2330CF01BFE7B
:1022E00023480CF018FE40F2E2311F480CF00AFEC1
:1022F00005F0020464B11F491B4A1C4840F2E63352
:102300000CF009FE1C480CF006FE40F2E631ECE74A
:1023100005F00604042C09D11849134A134840F269
:10232000E9330CF0F8FD40F2E931DEE71B680124E7
:102330008C401C420CD112490B4A0C484FF47F735D
:102340000CF0E9FD0F480CF0E6FD4FF47F71CCE78F
:102350003368ED074CBF2343A34333603B68BDE8BC
:10236000F0411847F00C0100520C0100C10C0100B3
:10237000290D0100660D0100AD0D0100FC0D0100ED
:10238000830C0100DE0C010070B50F48FFF762FFFF
:1023900006460E48FFF75EFF04460D48FFF75AFF5A
:1023A00005460C48FFF756FF6400AD0005F0040534
:1023B00004F002042C4306F00106C000344300F090
:1023C0000800204370BD00BF240901001C09010062
:1023D000140901000C09010010B515480DF097FA19
:1023E00018B96FF01204204610BD11480DF08FFA95
:1023F0000028F6D00E480DF08AFA0028F1D00C48DB
:102400000DF085FA0028ECD00A48FFF753FF044688
:102410000948FFF74FFF04430848FFF74BFF044309
:102420000748FFF747FF0443DDD1FFF7ADFFDAE7C9
:10243000F8040100240901001C090100140901002D
:102440000C09010070B50E461546044680B10C3BE0
:10245000DBB2142B96BF074A074852F8230000F05E
:1024600015FA2246B1B2A8B2BDE8704000F09CBA9D
:1024700070BD00BF2C090100022B002008B50CF034
:1024800097FA0A221146104600F0A2FA14223C21C3
:10249000782000F0AFFA00F0E7F9024B01221A6051
:1024A00008BD00BFD86D002070B5074E0024355D13
:1024B00028460135611C2C443144A4B20CF0B9FA11
:1024C000742CF4D970BD00BF08030020074B084AE4
:1024D0001B880849013B1380074B00221A80074BD9
:1024E0001B88013B0B80064B1A80704706030020B7
:1024F0002E7000202A7000202C7000200403002081
:10250000287000200E4B1B88834217D90D4B1B8867
:102510008B4213D90C4B1A88824288BF18800B4B10
:102520001A88824238BF1880094B1A888A4288BFAD
:102530001980084B1A888A4238BF1980704700BF3B
:1025400006030020040300202E7000202C700020C1
:102550002A7000202870002010B5234B234C1A88C5
:10256000234B248818882349234B09881B8810444F
:102570002244224C248886B0194423442A248DF80E
:1025800008408DF80A00C0F307248DF80C20C2F330
:1025900007202B228DF81020C1F307228DF80B00A5
:1025A0008DF811208DF81210C3F307228DF8143026
:1025B00002A92C2305208DF813208DF804308DF806
:1025C00009400CF036FA04A905200CF032FA01A9F2
:1025D00001200CF018FA0A4902200CF01FFAFFF74C
:1025E00075FF06B010BD00BF327000202C700020B7
:1025F0002E7000202A7000203070002028700020EB
:102600003A70002008B5094A128882420DD9084A5A
:1026100012888A4209D9074B1A88074B1A80FFF79C
:1026200071FFBDE80840FFF797BF08BD0603002013
:1026300004030020387000203A70002008B5094AD1
:10264000128882420DD9084A12888A4209D9074B5A
:102650001A88074B1A80FFF755FFBDE80840FFF7BF
:102660007BBF08BD06030020040300203670002055
:102670003A70002010B503460A46006819790469CB
:10268000012303FA01F143681B6819420ED10E4978
:102690000E4A0F4840F28D630CF03DFC0D480CF0E3
:1026A0003AFC0A4840F28D610CF02CFC2368194278
:1026B00018BF82F0010222B18368DB68BDE81040D8
:1026C000184783681B69F9E7830C0100520C01006D
:1026D000C10C0100DE0C01002DE9F0410346006849
:1026E0001979DB8803F03002302AD0E90147066906
:1026F0000ED12149214A224840F2E2330CF00BFC72
:1027000020480CF008FC40F2E2311C480CF0FAFBC7
:1027100003F00602042A09D11B49184A184840F25E
:10272000E9330CF0F8FB40F2E931EEE724680125CB
:10273000DA0705FA01F554BF43F4B01383F4D0135C
:10274000254223F480120CD110490C4A0C484FF456
:102750007F730CF0E0FB0E480CF0DDFB4FF47F7153
:10276000D3E73468DB074CBF2C43AC4334603B6891
:10277000BDE8F041184700BFF00C0100520C010009
:10278000C10C0100290D0100FC0D0100830C0100AA
:10279000DE0C010010B50E4C20680DF0B8F820B129
:1027A000E06818B10DF0B3F800B9FEE709480DF084
:1027B000AEF800B9FEE707480DF0A9F800B9FEE74A
:1027C0000548FFF789FFBDE810400448FFF784BFC4
:1027D00004000020F80401008809010080090100BC
:1027E00001480021FFF746BF80090100014801218F
:1027F000FFF740BF8009010008B504480121FFF739
:1028000039FF0A20BDE808400DF07DB888090100B5
:1028100008B504480021FFF72DFF0A20BDE8084055
:102820000DF071B888090100014B1870704700BFA6
:102830007D0300201FB5CDE900100749CDF808D071
:10284000012351F8040B0393836802AA1C68002338
:10285000A04704B010BD00BF04000020014B187059
:10286000704700BF4470002008B5064A064B128826
:102870001B88002108460CF087F9BDE80840FFF7E7
:102880006BBE00BF060300200403002030B5094DD5
:1028900000212860CAB200EB82049300B4F805401E
:1028A000E4B224B91AB106331844686030BD01316E
:1028B000F0E700BF3C700020F0B5DFF85CC0DCF84A
:1028C000006073780022DF085B07044618BF0137F9
:1028D000134695B206EB8505B5F8051011F0FF001B
:1028E00004D11FFA82FEBEF1000F0ED1A142B5F84D
:1028F00007000BD8A04209D323445B1ADCF804007C
:1029000032789BB27B4302FB0300F0BD01300344ED
:102910005B1A9BB20132DCE73C7000202DE9F84FD6
:10292000064610460F46FFF7C7FF044650B1DFF8D2
:1029300070804FF0000AD8F800301B785FFA8AF5F3
:10294000AB4227D8BDE8F88F590708BF14F8019BA0
:10295000D94301F0070149FA01F1CA0710D5334400
:10296000294698B2FFF74EFE0BF1010BD8F8001084
:1029700049785FFA8BF39942E6D80AF1010ADAE75F
:10298000084A11780029EFD13344294698B2FFF75D
:1029900055FEE9E74FF0000B3D44D946ADB2E5E7FF
:1029A0003C70002044700020F8B5084F04460E46E5
:1029B000551E15F8012F02B9F8BD20463146FFF724
:1029C000ADFF3B685B781C44A4B2F2E73C7000208A
:1029D00001F03F0100F01F0040EA4110044B40EAC3
:1029E000C22282B0C2F307221A70587002B0704738
:1029F0003870002001F03F0100F01F0040EA411054
:102A0000044B40EAC22282B0C2F307221A70587007
:102A100002B070473670002000B589B0C0F307429D
:102A20000092C0F30723C2B2064904A80AF0E4FEEC
:102A30000C231422022104A80BF044FF09B05DF816
:102A400004FB00BF460E010030B5154DB0F9002063
:102A50008BB00446294601A80AF0CEFEB4F9042042
:102A6000294604A80AF0C8FEB4F90620294607A89A
:102A70000AF0C2FE0BF01AFF01A81423082200215D
:102A80000BF020FF04A81423082201210BF01AFFE9
:102A900014230822022107A80BF014FF0BB030BD4D
:102AA000BE0B010013B50A4604460A4968460AF0FF
:102AB000A3FE0BF0FBFE14230C2202212046FFF79D
:102AC000C1FC14230C2203216846FFF7BBFC02B0B3
:102AD00010BD00BFBE0B0100024A00231360024A72
:102AE00013607047E46D0020E06D0020434203F066
:102AF000030310B50C4600F0030158BF59420A48C1
:102B00001023002201310BF0DDFE634203F00303CA
:102B100004F0030158BF5942BDE810400348102398
:102B2000002201310BF012BF870E0100E0180100F6
:102B3000F8B5134F3A6800280346B8BFC31C002AF3
:102B40004FEAA303B8BF0332B3EBA20F044600D190
:102B500069B10C4E002506EB0316013556F8040B3F
:102B600010230C2229460BF0C1FE042DF5D1064B93
:102B7000386800221A702146BDE8F840FFF7B6BF5A
:102B8000DC6D00206C0000204670002008B5054B6D
:102B900001211868FFF7CCFF034A00231360034AA2
:102BA000137008BDE46D0020E06D00204670002029
:102BB000024B01EB800153F8213018471C00002024
:102BC000074A084913680B60411C03D10BB1013B54
:102BD000136070470128FCD1032BFAD00133F7E7CB
:102BE000E46D0020DC6D0020014B1878704700BFB9
:102BF000457000202DE9F04700290C468046B8BFFB
:102C0000CC1C0CF019F8DFF86C90A410D9F8003047
:102C1000A0EB8406042EA8BF0426002BB8BF033304
:102C2000B4EBA30F0D4600D132B15823DFF848A012
:102C30005C430027BE420CDC6A4202F0030205F04E
:102C4000030358BF53429E42D9F800000CDC711EAA
:102C50000BE05AF828000137204410230C22394693
:102C60000BF044FE1634E5E72946BDE8F047FFF7D0
:102C70003DBF00BFDC6D00205C00002008B50A4AA3
:102C80000A4913680B60411C03D10BB1013B13606F
:102C900008BD0128FCD1064908680BF0CDFF0138BA
:102CA0008342F5D00133F2E7E06D0020DC6D0020B7
:102CB000E46D002038B51F490C7844B31E490C78E8
:102CC0008CB1022807D100230B7000F0A9F8BDE8F1
:102CD0003840FFF75BBF194B1968194B1868BDE8FE
:102CE0003840FFF765BF022806D101230B70154855
:102CF000BDE8384008F08EBEFFF7C0FF0F4B1968E3
:102D00000F4B18682246BDE83840FFF773BF022812
:102D10000B4D06D1094B28681C6001220A70214620
:102D2000F1E7FFF74DFF28682146BDE83840FFF77F
:102D3000FFBE00BF4670002045700020E06D0020FF
:102D4000E46D0020400D0300024B01221A60FFF7E2
:102D5000C3BE00BFE86D002007B5114B1B68012BF7
:102D600016D10BF076FDC0F307238DF80400C0F3F5
:102D700007408DF805308DF806000198FFF74CFEEE
:102D8000084B1A780AB100221A7003B05DF804FBF0
:102D9000022BFAD1002003B05DF804EBFFF78ABFE5
:102DA000E86D00200A52002008B50C4B1B68022B6E
:102DB00013D1FFF7E9FA012805D14FF0FF30BDE844
:102DC0000840FFF777BF022801D10120F7E7042868
:102DD00001D10220F3E70828FBD008BDE86D0020F0
:102DE00038B50E4D2B688342044616D0012808D012
:102DF0000228286011D1BDE8384001210020FFF7EA
:102E000097BEFFF7F1FE40B92C60FFF765FE0BF0AF
:102E10004DFDBDE83840FFF79FBF38BDE86D00208D
:102E2000014B00221A607047EC6D002070B52E48EF
:102E30002E4C2F4D2F4E14230C2200210BF042FD5F
:102E40002D4814230C2201210BF03CFD23786278DD
:102E5000A07843EA022343EA0040FFF7DDFD29683A
:102E6000022900DD70BDD9B9244814230C220BF0CF
:102E70003DFD234B082BFDD0FFF786FA01282BD10F
:102E80002B68DBB920780BF0D8FC207023786278AF
:102E9000A07843EA022343EA0040FFF7BDFDEBE7D9
:102EA000012904D114230C2200213046DFE7022936
:102EB000DFD1144814230C220021D8E7012B04D1C0
:102EC00060780BF0C0FC6070E0E7022BDED1A078E8
:102ED0000BF0ADFCA070D9E70228D7D00828CBD1E1
:102EE0002B6801332B60BAE7810E01004770002088
:102EF000EC6D00208F0E01007F0E0100890E010095
:102F000089230000970E010038B512483221FFF7DF
:102F1000C9FD4FF48030002108F038FD0D4D3224FA
:102F200042F2107008F076FDFFF72EFA012809D161
:102F3000013CE4B228462146FFF7B4FD20460BF0E1
:102F400026FDEDE7022801D10134F2E70028E7D1A0
:102F500038BD00BF9F0E010008B50020FDF774FFCB
:102F6000BDE8084001460148FFF79CBDA80E0100DE
:102F700070B5094B88B0064601A9186801AC0BF082
:102F800040FC0FCC35460FC594E8070085E80700E4
:102F9000304608B070BD00BFF06D0020014800F061
:102FA00003B800BFA855002013B501220D490DF14B
:102FB000030304460BF0D3FE10B100B202B010BD03
:102FC000204604F58054084901AB02220BF0C7FEED
:102FD00094F845000DF1060201A90BF047FEBDF97A
:102FE0000600EBE7390001000900010073B5054652
:102FF00040B3067F012E0DF1070317D11349324666
:103000000BF0ADFE9DF80730104923F01003044685
:103010008DF8073032460DF10703284600F018F806
:1030200020432B7F013B2B7702B070BD0749012263
:103030000BF095FE9DF8073013F0100F08BF4FF00E
:10304000FF30EEE76FF00A00EEE700BF1F0001005F
:103050002DE9F04F87B0884601929A460446002831
:1030600076D09B4613460B4402930E460027029BE4
:10307000B34208F480320CD13AB1019A53465FFA58
:1030800088F120460BF00FFE0743384607B0BDE835
:10309000F08F314B9E4249D03CD8002E49D0013BA5
:1030A0009E423DD092BBC6F3072320468DF81730D1
:1030B00000F056F89DF81730814643B10DF1170323
:1030C0000122792120460BF0EEFD49EA00090DF1BD
:1030D000160301227A2120468DF816600BF0E3FDDD
:1030E0005B4601227B21054620460BF0DCFD039068
:1030F0000BF0EEFD9DF81730F3B9039845EA09058A
:1031000005432046FFF772FF284307430BF1010BED
:103110000136ACE7114B9E42C4D104F11A0301E021
:1031200004F118039BF800101970BBE704F11903B0
:10313000F8E704F11B03F5E700238DF816300122B0
:103140000DF11603792120460BF0ADFD0546D8E7B9
:103150006FF00A0799E700BF20000100210001007D
:103160002DE9F341054600284AD0037FCBBB274910
:103170000DF1070301220BF0F2FD9DF80730234902
:1031800043F0100304468DF8073001220DF10703C8
:103190002846FFF75DFF04431FD10BF004FEDFF864
:1031A000708006460F460DF1070301224FF480316F
:1031B00028460BF0D4FD044678B90BF0F4FD801BD3
:1031C00061EB0703804574EB03031CD39DF80730C4
:1031D0001B07E8D52B7F01332B77204602B0BDE8D3
:1031E000F0810DF10703094901220BF0B8FD9DF8AC
:1031F000073013F0100F14BF04464FF0FF34E9E717
:103200006FF00A04E9E76FF00304E6E71F0001002E
:1032100040420F002DE9F04F91B00546009302F0B7
:1032200004030193C2F3C203013304938307DDF85F
:10323000689002920E4640F0FC81041D30B10729CF
:1032400009D86FF01B0011B0BDE8F08F01F0070640
:103250003444C6F10806009B4FF000084FF0040B01
:10326000591ECDF80C80474643464FF0FF32DA46F0
:103270000DB1009820600498002800F3DF809B487F
:10328000DDF800C0844503D399488445C0F0D6805A
:10329000DDF808C0A4EB050E1CF0020F4FEA9E00FB
:1032A00000F0E7804FF0000CD1E07A2862D84B287C
:1032B0000FD847285ED829282DD8252859D059D885
:1032C00020287DD0A0F12309D9F1000343EB0903A5
:1032D00076E04C382E284DD8DFE800F0724C4C4C8C
:1032E0004C4C4C4C4C4C4C4C4E4C4C4C4C4C4C4C1C
:1032F0004C5C4C4E4E5C5C5C724E6F4C724C184E8B
:10330000184C4C817E4E4C4C4E4C7E0000200023CD
:103310004FF0040B3CE02A384FF0010EC0B20EFA19
:1033200000F04FF6DA7E10EA0E0F49D110F0625E1F
:1033300030D110F0010343D07046013C5C44B4FB33
:10334000FBF40BFB04F4002D5ED0AAEB050EA644A3
:10335000B6453FF676AF002868D1BAF1040F43D1E5
:10336000E14659F8040B20600434CC464FF0040ABF
:1033700026E0013A002323E011F8013C6C2B30D108
:1033800011F8023C00206C2B0346C1D14FF0080B12
:10339000DA46D2E70CF1070929F0070C0734FCE8FC
:1033A00002AB24F0070435B105982044B0423FF643
:1033B00048AFC4E900AB083400234FF0080BDA46ED
:1033C00011F8010F002800F0BC80002B7FF46DAFD6
:1033D0002528F5D1013201234FF0040BEFE7184601
:1033E00095E700200346A8E7BAF1080F40F09B805C
:1033F0000CF1070929F0070CFCE8029AC4E9009ACD
:1034000008344FF0080ADBE780B9BAF1040F02D1A3
:103410000CF10409A8E7BAF1080F40F084800CF120
:10342000070929F0070909F1080CE9E70498E146C2
:103430000138049059F8040B009019E702988007AE
:1034400048D5A4EB050E4FEA9E004FF0010CBEF5E7
:10345000007F1DD32749284A28484FF41F730BF0DB
:103460005AFD27480BF057FD4FF41F7122480BF00F
:1034700049FD0F2F0ED8002D46D007F1400CEC442B
:103480000CF8200C0CF8102C03980130039020E06D
:103490000F2F0CD91749184A184840F281230BF016
:1034A0003AFD18480BF037FD40F28121DEE7BDB14F
:1034B00007F1400EEE44C0B20EF8200C0EF8102CAE
:1034C000BCF1000FE0D060F07F000EF8200C08F196
:1034D00001080137C5F108000434CC4605906FE7B8
:1034E000BCF1000F10D00136F3E700BF80040100EB
:1034F000CC3201002D0E0100CE0E0100C10C0100E6
:10350000FC0E01001D0F0100019802360028E0D1D9
:1035100000980592CDE90631FDF700FBDDE90631A3
:10352000059A0644D5E7444A4449454840F2C62333
:103530000BF0F1FC514643480BF0EDFC40F2C62184
:1035400094E7631BB3F5806F0CD33C493A4A3C487F
:1035500040F2D2230BF0DFFC3B480BF0DCFC40F2E6
:10356000D22183E71DB9A6F10804E0186BE6019AA1
:1035700028609B082B709DF80C30C2B1EB7085F869
:103580000280B8F1000F05D008A80022C5F1010C97
:1035900097420ED1C5F101030DF120094FF0000A49
:1035A00002930DF1300B574512D1601B4BE66B7047
:1035B000E5E710F8013B190608D50CEB040EB645FB
:1035C00003F07F033FF63DAE04F8013B0132DFE735
:1035D000B8F1000F03D099F90020002A17DB019BF6
:1035E000D3B11AF80B2004F8012B0022029B181902
:1035F0001044B0423FF625AE99F8000004F8010BE4
:103600000099039220460CF000FB039A14440AF13F
:10361000010A09F10109C6E799F8002055F822309E
:103620000093019B45F822300098FDF777FA421C81
:10363000DCE76FF00D0006E6CE0E01002D0E010056
:10364000C10C0100370F01004C0F01002DE9F04FB4
:1036500097B000AF8946D7F880B0FA623B62044663
:1036600058B9A849A84AA94840F299330BF053FC2D
:1036700040F29931A4480BF045FCCBF3C00390F81D
:1036800002A07B6141B9457800780AEB80002044B4
:103690004D4517D8A0EB0409E378FB61BAF1000FA0
:1036A00002D01BF0010F16D1FB6953BBFB6A1BB1A3
:1036B0003A6A4946204698474D4628465C37BD46FB
:1036C000BDE8F08F461C3046FDF728FA0130304443
:1036D00009F10109DCE7237862687A62FA6A9900E5
:1036E000B96104EB8301002A40F001814D460E468A
:1036F00001EB0A094FF000084E454CD101EB0A06D8
:1037000010E01BF0020FD1D023789A00BA616268F2
:103710007A62FA6A04EB8301002A77D14D4601EB05
:103720000A0690461BF0050F0CBF02230123FB6223
:10373000FB6906EB430A0BF00203BB625645BCD0A3
:1037400016F8021B16F8013C54F82390704B99456B
:1037500002D3704B994536D37B69002B40D0786AF1
:103760000BF05AFB00283BD0E9468AB06A466A4B08
:1037700053617B6AC2E906314FF400731384674BCF
:1037800042F8103F664800234FF4125101F024FF25
:10379000023DCD46D2E716F8013BF96254F823000A
:1037A000FDF7BCF9D7F88430F96A01304BB1D7F88E
:1037B000883098453EBFD7F8843023F8180008F1C8
:1037C0000108054498E77B6923B1786A0BF024FB74
:1037D0000028C9D11BF0010F05D1FB6AED1AADE736
:1037E000BB6A002BAAD04846FDF798F9D7F8843079
:1037F00053B1D7F8883098453FBFD7F88420431C91
:1038000022F8183008F10108054497E7BAF1000FD3
:1038100073D01BF0040673D0D046002607F1480091
:1038200052463B61B9620CF0F0F9B96A3B6901EBB1
:103830000A02BA62FA69F9695200FA60BA6A02EBDE
:1038400041023A610BF00202BA60BA6A39698A42EF
:1038500068D162787A621BF0020F32440CBF4FEAE3
:10386000580100211BF0010FD2B240F0E4801BF0A0
:10387000040F14BF404600207B616270A070E170AD
:103880003A6AB969FB6A20469847051EFFF615AFEC
:103890007B6923707B6A6370FB69E37041463A6A17
:1038A000FB6A84F802A007F148009847B0F10008CD
:1038B000C0F2F580BB693A6AA9EB0A01C91AFB6834
:1038C000C91AD7E90A0398470028C0F2EA80A84439
:1038D00008EB00054FF0000B07F1380AB345C0F0C4
:1038E000AC8000213A6AFB6A08469847E5E65646EE
:1038F0004FF0000807F1380092E75646D04696E7A9
:10390000B04694E7630F0100CE0E0100C10C010028
:1039100080040100CC3201007E0F01000400000190
:1039200028070100BA6A12F8021BBA6212F8015C99
:103930005D4A54F82500904202D35C4A904218D365
:103940007A693AB1786A7B600BF066FA7B68002886
:103950007FF47BAFBA68002A4CD00F2E40D954496F
:10396000544A554840F24D430BF0D5FA40F24D41D0
:1039700080E67A693AB1786A7B600BF04DFA7B6831
:1039800000287FF462AF1BF0010F0BD00F2E27D958
:103990004749484A484840F243430BF0BCFA40F2DA
:1039A000434167E61BF0040F3FF44FAFB8F10F0F30
:1039B00009D942493F4A404840F246430BF0ABFA2E
:1039C00040F2464156E608F1280207F1300008F1BE
:1039D000010102EB000808F8105C5FFA81F834E797
:1039E00006F1280207F13000711C161806F8205C59
:1039F000CEB22AE7B8F10F0F09D930492D4A2E4827
:103A00004FF48A630BF087FA4FF48A6132E608F1CB
:103A1000280207F1300C08F10100944407F1580224
:103A200052FA80F008F102080CF8101C5FFA88F8CE
:103A300000F8105C09E700201EE71BF80A3087F841
:103A4000373054F82390D7F884302BB3D7F8883028
:103A50009B4521D2D7F8843033F81B803A6AFB6A41
:103A6000012107F13700984700281ADB0544B8F117
:103A7000000F06D14846FDF751F800F101081FFA82
:103A800088F83A6AFB6A414648469847002808DBAE
:103A900005440BF1010B21E74FF00008DEE7454636
:103AA0000BE6054609E600BF80040100CC320100A8
:103AB00021100100CE0E0100C10C010040100100D8
:103AC000014B1860704700BF7C00002030B587B004
:103AD0000025CDE903010446009503A90548059595
:103AE00000F06EF8DDE904309842B8BF255407B005
:103AF00030BD00BF67EE0000F0B5094E0168024618
:103B00000A2700200B4601311C78355D6D0701D472
:103B10001360F0BD07FB0043A3F13000F2E700BFE4
:103B20005A3001002DE9F84F15469A46D378234ABA
:103B300012F803B06F2B81460F460BF0030B2BD00E
:103B400026D8582B0CBF10260A26DDF828803246CE
:103B5000002348463946FCF7C7FF092A08F1FF3819
:103B6000D4B21ED83034B145E4B277F1000788F8FA
:103B7000004001D3D04511D82B789B0605D5082EDF
:103B800015D1AB7843F00803AB704046BDE8F88F21
:103B900003F0F703702BD5E70826D6E781460F46DA
:103BA000D5E7BBF1010F0CBF37345734DBE7102EDC
:103BB000EBD1AB7843F01003E6E700BF5A300100C9
:103BC0002DE9F04F97B08A46039016461C46002513
:103BD000307808B9284656E325280AD0039B514679
:103BE00098470028C0F24F83731C01350493049E4C
:103BF000EEE71822002110A80CF015F87378252B99
:103C000000F0A3800023711C98469E469C461846EF
:103C10000F4611F8012B2B2A00F0C68000F2BD8060
:103C2000202A00F0C480232A00F0C4802BB19DF824
:103C3000483043F040038DF84830B8F1000F05D00C
:103C40009DF8483043F020038DF84830BEF1000F56
:103C500005D09DF8483043F010038DF84830BCF192
:103C6000000F05D09DF8483043F008038DF8483028
:103C700028B19DF8483043F004038DF848309DF892
:103C8000483003F04401442903D16FF386138DF8C3
:103C900048309DF84830099743F080032A2A8DF870
:103CA000483040F08C809DF8493043F001038DF896
:103CB00049307B1C1A782E2A9DF849200CBF01211F
:103CC000002161F341028DF849200CD15A1C099260
:103CD0005A782A2A40F083809DF8492042F0040255
:103CE0008DF8492002331A786C2A00F0A48000F283
:103CF0008680682A00F08C806A2A00F0A5804C2A11
:103D000000F0AA801A4612F8013B0492782B9DF825
:103D100049208DF84B3000F217816D2B00F2A980FD
:103D2000692B00F21181572B00F2BE80412B03D08A
:103D3000453B022B00F208819DF84A30042262F3D1
:103D400002038DF84A300123CAE08DF84B30B31CD2
:103D500004939DF84930D90740F1FD8054F8048B55
:103D6000B8F1000F07DA9DF8482042F004028DF800
:103D70004820C8F100085A0740F1F68054F804BB07
:103D8000BBF1000F80F2F5809DF849306FF34103DD
:103D90008DF849304FF0FF3BEBE02D2A0DD0302A53
:103DA0007FF444AF012333E74FF0010C30E74FF0CD
:103DB000010E2DE74FF001082AE7012028E709A8A6
:103DC000FFF79AFE099BBB423FF474AF9DF8482071
:103DD0001390C00F60F341028DF848206AE709A8EC
:103DE000FFF78AFE9DF848301490C3F3400242EA80
:103DF000D07262F341038DF84830099B73E7742A4F
:103E000026D07A2A7FF47EAF9DF8492006210CE067
:103E10005A78682A9DF8492006D1012161F3C6022B
:103E20008DF8492002336DE7022161F3C6028DF857
:103E30004920013366E75A786C2A9DF8492001D160
:103E40000421EBE70321F0E79DF849200521ECE789
:103E50009DF849200721E8E7BDF8482022F4F04208
:103E600022F0020242F4804242F00202ADF8482001
:103E7000DFE76E3BD9B201238B4040F282410B4217
:103E800038D113F0240F52D1DF075DD59DF84A30A9
:103E9000032161F302038DF84A3002F07803A3F1A5
:103EA0004000434243411BE0A3F15801C9B2012045
:103EB00000FA01F111F4624F7FF43EAF40F60107C2
:103EC00039421DD111F4043F3ED09DF84A3060F3D1
:103ED000020302F07802402A8DF84A3034D00023E1
:103EE0009DF84820C2F340010B4363F341028DF873
:103EF00048202EE79DF84A30022161F30203E8E7EB
:103F00009DF84A10022002F0780260F30201402A74
:103F10008DF84A1002BF9DF8481041F001018DF85C
:103F20004810632BDBD1131E18BF0123D8E79DF87F
:103F30004A30032161F3020312F0780F8DF84A3002
:103F400014BF01230023CBE79DF8483043F0010361
:103F50008DF84830C3E79DF94820002AB4BFDDF84A
:103F60004C804FF0FF3806E79F077FF513AFDDF871
:103F700050B09DF849100023CDE913339DF84A3025
:103F800003F00703012BC1F3C30132D1CB1E042B75
:103F900004D8DFE803F020454520200023680129EC
:103FA0004FEAE372CDE910321BD19DF94030DA17A8
:103FB000CDE9103204349DF8483013F003074FD098
:103FC000049B0398324651460AF085FF0028C0F250
:103FD0005A8105440BE654F8043BDA17CDE9103258
:103FE000E9E70229E6D11AB243F3C033CDE9102341
:103FF000E0E7022B24D1CB1E042B04D8DFE803F02A
:10400000181010181800012954F8043B4FF0000252
:1040100014D00229CDE91032CDD19BB21093CAE75A
:10402000073424F00704F4E80223CDE91023C2E7A3
:1040300054F8043B109300231193BCE7DBB2CDE7A7
:10404000042B08D1073424F00704D4E900230834F2
:10405000CDE91023AFE7032BADD154F8043BDDE7E6
:104060009DF84B0078283FF6C2AD62281ED825285F
:1040700050D058287FF4BBAD0DF13E030093DDE92D
:1040800010010AAB12AAFFF74DFDBBF1000F8146EC
:1040900080F2C280B9F1000F3FF4A9AD0DF13E06E8
:1040A000A6EB0903002F7BD0013379E06338152894
:1040B0003FF69DAD01A252F820F000BF8F410000F5
:1040C000ED410000EF3B0000EF3B0000EF3B000044
:1040D000EF3B0000ED410000EF3B0000EF3B000034
:1040E000EF3B0000EF3B00003B42000013420000AA
:1040F0004D410000EF3B0000EF3B00002541000078
:10410000EF3B000013420000EF3B0000EF3B0000DC
:1041100013420000039B514698470028C0F2B38029
:10412000013564E5BBF1000FDDF840900ADB59462C
:1041300048460BF08EFEB9F1000F3FF458AD09EB85
:10414000000620E04846FCF7E9FCF8E71098002854
:1041500000F087800DF13E060AAB009612AA0021FE
:10416000FFF7E0FCBDF84A3003F0EF0343F4F043FF
:1041700043F01003BBF1000F8146ADF84A304ADA34
:1041800000283FF434ADA6EB0903002708E0109B9C
:104190008DF8283000270DF129060DF1280901239B
:1041A0009DF84A1011F01002069260D00233139A63
:1041B000059213444A0644BF14995B18B8F1000FE6
:1041C0006EDDA8EB03089DF848305807C3F3800B59
:1041D00066D459065AD53FB1039B51463846984795
:1041E000002850DB01355F46302350E01E075CBFDE
:1041F000C3F300135F01DDE9102348BF2B27002B19
:10420000BFF63AAF524263EB4303CDE910232D27AB
:1042100032E7002730E700279DF848100DF13E03F4
:10422000A3EB09036FF386119B458DF848107FF6C9
:1042300031AFABEB030313932CE7109B07293FF639
:10424000D6ACDFE801F00C04060C08080C0C1D705D
:10425000CDE41D80CBE4EA17C3E90052C7E41D603A
:10426000C5E4314E0746A6F10509052398E708077E
:1042700048BF01339BE7184607935146039B984775
:104280000028079B04DA17B0BDE8F08F2023C3464F
:10429000594600290BF1FF3BEDDC45446D1AD84629
:1042A00037B1039B5146384698470028EBDB013570
:1042B0009DF84A30DA0601D41B0706D5039B514608
:1042C000302098470028DEDB0135069B3BB19DF886
:1042D0004B00039B514698470028D4DB0135059FCE
:1042E0002F4406E0039B5146302098470028CADB44
:1042F00001357B1B002BF5DC039833464A465146BB
:104300000AF0E9FD0028BEDB0544A844A8EB05033C
:10431000002B7FF76CAC039B514620209847002868
:10432000B1DB0135F2E700BF7610010038B50D466C
:104330000446202200210BF076FCEB68E361AB68B9
:10434000A3612B6823626B6863620022A2622A6900
:1043500023B1591E194208BF42F001022261012215
:10436000002104F12C000BF00FFB48B10549064871
:10437000064A2F230AF0CFFD04482F210AF0C2FD80
:1043800038BD00BF9D100100C10C01007710010075
:104390002DE9F04F89B0CDE90123436A00278B4214
:1043A0000446884605970797BA4654D300F1140689
:1043B000EFF31185202383F31288BFF36F8F30460C
:1043C000A94607F013FE58B94D4A4E494E48882376
:1043D0000AF0A1FD31464D480AF09DFD882163E0B9
:1043E000304607F027FE079A2AB1394620460AF0E0
:1043F0007AFE0023079306A920460AF099FD069944
:104400004145834630D32268236A13F8221021F0F5
:10441000030103F8221003EB820A2168424620467A
:104420000AF0AAFDE3682060984218D04FF0000B14
:10443000304607F0E9FD50B389F31188BFF36F8F61
:10444000059929B1A2690AB1204690470023059336
:10445000BBF1000FACD1504609B0BDE8F08F236925
:1044600043F008032361E1E718B120460AF09EFDFE
:10447000DEE7DDE90132134339D003910BF0B6FAE0
:104480000399A0BB9DBB304607F0BEFD78B91C4A1E
:104490001F491D4840F231130AF03DFD31461D48C9
:1044A0000AF039FD40F2311115480AF02BFD85F371
:1044B0001188BFF36F8FDDE9012304F12C0005F0B3
:1044C0007FFF8346EFF31189202383F31288BFF324
:1044D0006F8F304607F08AFD00283FF475AF3046F5
:1044E000BBFA8BFB07F0A6FD4FEA5B1BA0E707AB0F
:1044F00005AA204627680AF076FD834698E700BFA4
:10450000A6100100D3100100C10C0100E810010049
:10451000FE100100151101002DE9F0410446C369A8
:1045200008460E46984704F114050746EFF3118834
:10453000202383F31288BFF36F8F284607F056FDC0
:1045400068B91B4A1B491C4888230AF0E4FC294629
:104550001A480AF0E0FC882115480AF0D3FC2846E6
:1045600007F068FD337843F00103337061683A4621
:1045700020460AF001FD606020460AF0CFFD284683
:1045800007F042FD68B90A4A0D490B4840F2311361
:104590000AF0C1FC29460B480AF0BDFC40F231117B
:1045A000DAE788F31188BFF36F8FBDE8F08100BFB1
:1045B000A6100100D3100100C10C0100E810010099
:1045C000FE100100151101002DE9F843044600F129
:1045D0001407EFF31188202383F31288BFF36F8F42
:1045E000384607F003FD054668B9354A354936486F
:1045F00088230AF090FC394634480AF08CFC882164
:104600002F480AF07FFC384607F014FD2369A268A2
:1046100013F0080F02D163689A4200D9636A9B1AAB
:10462000002B3FD0216A11F8223013F0030001EB78
:1046300082093AD0022803D151F82260B60805D188
:10464000D8071FD4E369484698470646A168324612
:1046500020460AF091FC3146A06020460AF09AFC00
:10466000384607F0D1FC10BB154A1949164840F2EC
:1046700031130AF050FC394616480AF04CFC40F25F
:104680003111BDE743F0020301F822304846E369E7
:10469000A56898472946024620460AF06DFC002589
:1046A000A060DDE71D46A946DAE70546FBE788F38B
:1046B0001188BFF36F8F002D8BD14846BDE8F8837A
:1046C000A6100100D3100100C10C0100E810010088
:1046D000FE100100151101002DE9F0410446C369E7
:1046E00008460D46984704F114060746EFF3118873
:1046F000202383F31288BFF36F8F304607F076FCD8
:1047000068B9284A2849294888230AF004FC314618
:1047100027480AF000FC882122480AF0F3FB3046C3
:1047200007F088FC2B786FF300032B7023699B073D
:1047300005D5E268236A03EB82039D4222D12B78E0
:104740006FF341032B70D4E90231994204D13A4608
:1047500020460AF011FCA060394620460AF01AFCF7
:10476000304607F051FC90B90E4A12490F4840F20A
:1047700031130AF0D0FB31460F480AF0CCFB40F26F
:104780003111C9E72B6867F39F032B60E8E788F3D3
:104790001188BFF36F8F04F12C00BDE8F04105F0E4
:1047A0008BBD00BFA6100100D3100100C10C010099
:1047B000E8100100FE1001001511010070B504465B
:1047C00000F11405EFF31186202383F31288BFF361
:1047D0006F8F284607F00AFC68B91B4A1B491C4822
:1047E00088230AF098FB29461A480AF094FB88218E
:1047F00015480AF087FB284607F01CFC2369A068CF
:1048000013F0080F02D16368984213D9646A241A1E
:10481000284607F0F9FB78B90B4A0F490C4840F2DB
:1048200031130AF078FB29460C480AF074FB40F279
:104830003111DDE71C1AEBE786F31188BFF36F8FA8
:10484000201E18BF012070BDA6100100D31001006A
:10485000C10C0100E8100100FE100100151101005B
:104860002DE9F84F04460846A38B1907154612D4C4
:10487000022803F0070165D120460AF05CFC88B1EC
:104880000138042800F23781DFE810F05C003501C0
:104890008200D400040101280CBF43F0100143F052
:1048A0002001A1831434204607F0AEFB002840F01D
:1048B0009D819A499A4A9B4840F231130AF02BFB9A
:1048C0002146B1E003F00702501F01281ED8002046
:1048D000062A2768C4E9000014D13A4603E0E08BB9
:1048E0000130E0831268002AF9D123F0070343F076
:1048F0000202A28320460AF01EFC90B342F020027E
:10490000A2832EE023F007039AB2F2E7042A33D100
:1049100023F007039AB2A28320460AF00CFC10B1E0
:1049200042F02002A283A38B03F00709894540F0DF
:10493000EC80A18BCA0640F1508121F01003A383C3
:1049400001F00701D4F81880A38BB8F1000FB9DA91
:104950000022276823F00703C4E9002243F0010383
:10496000A383A38B03F00709894540F0CF80002F74
:10497000DFD00026B24644E06B496C4A694840F2F9
:104980001B130AF0C8FA40F21B1168480AF0BAFA81
:1049900049B16749654A63484FF4AB730AF0BBFA03
:1049A0004FF4AB71F1E723684BB962495F4A5D4848
:1049B00040F257130AF0AFFA40F25711E5E72369C6
:1049C0001E684EB95C49594A56484FF4AD730AF017
:1049D000A2FA4FF4AD71D8E7A38B23F0070343F09D
:1049E00006039BB2A3830F4688464FF00609A268D0
:1049F000002A40F08D80002F40F08D80002E98D04E
:104A0000BA4643F0080304F1140BA383584607F099
:104A1000FBFA002840F09A804049414A414840F260
:104A200031130AF078FA594644480AF074FA40F211
:104A30003111ADE0022909D041493C4A394840F2E0
:104A40005D130AF068FA40F25D119EE7E78B4FB103
:104A50003C49364A33484FF4AF730AF05CFA4FF4DE
:104A6000AF7192E723695E684EB933492F4A2D48EA
:104A700040F261130AF04FFA40F2611185E7A38B0F
:104A800023F0070343F004039BB2A383B8464FF01F
:104A90000409ACE7012909D02B49244A21484FF4E5
:104AA000B2730AF038FA4FF4B2716EE723684BB96B
:104AB00020491E4A1B4840F265130AF02CFA40F2C6
:104AC000651162E723699E684EB91B49174A15486C
:104AD0004FF4B4730AF01FFA4FF4B47155E7A38B87
:104AE00023F0070343F005039BB20027A383B846D6
:104AF0004FF005097BE70C490C4A0A4840F26B135A
:104B00000AF009FA40F26B113FE7002700266EE732
:104B10004FF0010A75E7924673E700BFFE100100EF
:104B2000A6100100C10C01002D0E01002A11010088
:104B30004F1101005B1101007E11010015110100F0
:104B400095110100AB110100BA11010085F3118824
:104B5000BFF36F8FBAF1000F1CD177BB16B1264996
:104B60002046B047EFF31185202383F31288BFF36B
:104B70006F8F584607F03AFA38BB204A204921483F
:104B800088230AF0C8F959461F480AF0C4F9882159
:104B90001A48FBE6A1680029DFD00D680029DCD0A7
:104BA000D1F804A043464A462046D0471DB12B68A1
:104BB00029461D46F2E72B46FAE7394643464A4660
:104BC00020463F680AF0E3FAC7E7584607F032FA92
:104BD000A38B23F00803A383ABE68B067FF562AEBD
:104BE00021F02003A38301F0070145E685F3118836
:104BF000BFF36F8FBDE8F88F0D4C0000A6100100C9
:104C0000D3100100C10C0100E8100100F8B5044602
:104C10000D4600F11406EFF31187202383F3128869
:104C2000BFF36F8F304607F0E1F968B90C4A0D49C0
:104C30000D4888230AF06FF90C4831460AF06BF9E9
:104C4000074888210AF05EF9304607F0F3F9A561BC
:104C50003A4620460121BDE8F840FFF701BE00BFFB
:104C6000A6100100D3100100C10C0100E8100100E2
:104C70002DE9F04704460F460AF079FA051E68DB75
:104C800004F11409EFF3118A202383F31288BFF390
:104C90006F8F484607F0AAF9804660B9384A39490B
:104CA000394888230AF037F9494638480AF033F979
:104CB0008821334842E0484607F0BCF9E38BA68BD5
:104CC0004FF6FF72934206F0070645D0022E15D12B
:104CD0000133E3833546484607F096F9002841D171
:104CE000274A2B49284840F231130AF014F9494663
:104CF00028480AF010F940F23111DAE7062E13D8ED
:104D0000DFE806F0092D1212090409006FF085058D
:104D10004FF00008DFE700233B60636883B9C4E914
:104D2000007786B13546F3E71B4917481B4A4FF415
:104D3000E4730AF0F0F819484FF4E4710AF0E2F86D
:104D40001F606760EDE7524602212046FFF788FDAD
:104D500035462846BDE8F0876FF00A05D8E76FF0C2
:104D60000405D5E78AF31188BFF36F8FB8F1000F00
:104D7000EFD000233246394620460AF008FAE8E729
:104D8000A6100100D3100100C10C0100E8100100C1
:104D9000FE10010015110100BA1101002A110100D5
:104DA000F8B5054600F11406EFF31187202383F3CD
:104DB0001288BFF36F8F304607F018F960B9264AA2
:104DC0002649274888230AF0A6F8314625480AF0E4
:104DD000A2F8882120482BE0304607F02BF9AC8B55
:104DE00004F00704022C17D0012C0CBF6FF0040450
:104DF0006FF08504304607F007F938BB164A1A49A8
:104E0000174840F231130AF086F8314617480AF085
:104E100082F840F23111DDE7EB8B5BB914491048A1
:104E2000144A40F2EF130AF076F8124840F2EF11FC
:104E30000AF068F8013B9BB2EB83002BDAD13A46CB
:104E400021462846FFF70CFD2046F8BD87F3118860
:104E5000BFF36F8FF8E700BFA6100100D310010069
:104E6000C10C0100E8100100FE1001001511010045
:104E7000D01101002A11010008B54268816002F0DA
:104E80000302022A03460AD0032A4FF0000103D08E
:104E9000012A0AD1596006E01868596008BD1868EF
:104EA00000225A6058B90020F8E706490648074A28
:104EB00045230AF030F8054845210AF023F808F0A8
:104EC00009F8F0E72D0E0100C10C0100DE11010010
:104ED00030B51049104889B000220AF001FE0F4D8C
:104EE0000F4900220023CDE9062300240E23CDE93B
:104EF0000334CDE901440B4B00944FF40062284683
:104F000005F07AFE084928460AF076FD204609B0E9
:104F100030BD00BF75500000A06A00200066002070
:104F200060780020C9530000041201002DE9F04709
:104F3000DFF85880044607464FF0010914B9384697
:104F4000BDE8F08794FAA4F5B5FA85F509FA05F3FA
:104F50002E0108EB05156FEA030A24EA03042B7BF4
:104F6000002BEBD058F806301B694BB9464404229D
:104F700073682846196807EA0A070AF07AF9DDE734
:104F8000284698470028D9D1F0E700BFC0070100A4
:104F90002DE9F047DFF8BC902F4CA9EB04038F2BD1
:104FA00080460F460BD92D492D4A2E484FF4A77342
:104FB00009F0B1FF4FF4A771294809F0A3FF2A486F
:104FC0000AF037F9064678B300252846BDE8F08791
:104FD000237B83B12368DB680BB120469847636865
:104FE00083F806A023681B69B3B9636804221968B3
:104FF00020460AF03EF9013610344C4518D91B49B9
:10500000174A18484FF4AD7309F085FF184809F0A6
:1050100082FF4FF4AD71CFE7204698470028E4D0D7
:105020000AFA06F31D43E6E705464FF0010AE4E7F6
:10503000CED3B8F1000FC8D0002DC5D02846FFF759
:1050400075FF0546002FF7D000214FF4A47006F03D
:105050009DFCF1E7D0070100C007010039120100F3
:105060000C120100C10C0100086E00206912010041
:105070008A120100014805F01FB900BF1454002036
:10508000014B53F820007047A409010008B50346FE
:1050900008462BB1044A136000F0BEFD002008BD95
:1050A0006FF01500FBE700BF8000002010B5044C36
:1050B000237813B9034805F0FFF80123237010BDCE
:1050C0004A7000201454002010B504460B480AF022
:1050D000B0F85CB1BFF35B8F094B53E8001F013997
:1050E00043E80012002AF8D1BFF35B8F05480AF0AD
:1050F00003FD0548BDE8104005F0DEB8006E002055
:10510000046E0020A06A0020145400200020064BEA
:10511000BFF35B8F014653E8000F43E80012002AFB
:10512000F9D1BFF35B8F7047006E002070B5FFF7B9
:10513000EDFF104C104E0546B44219D90F49104AE4
:10514000104840F20E2309F0E6FE0F4809F0E3FE96
:105150000B4840F20E2109F0D5FE63685B792BB154
:1051600023685B6813B12946204698471034E3E76B
:10517000F3D370BDC0070100D00701006912010020
:105180000C120100C10C01008A12010010B5044C80
:1051900004492046FFF7CAF8034B1C6010BD00BF4E
:1051A0001852002090090100F46D0020154A16489D
:1051B000002310B51370154A1360154A4FF40041CF
:1051C0001360FFF763FFFFF7E1FF124B1249184628
:1051D0008B4215D91149124A124840F2291309F09D
:1051E0009AFE114809F097FE0D4840F2291109F086
:1051F00089FE1A1A5C681211013222711033E7E736
:10520000F7D310BD4B7000202FF20000006E00207D
:10521000046E0020C0070100D007010069120100E0
:105220000C120100C10C01008A120100014600228B
:1052300001480023FFF7ACB8185200200148FFF7DF
:10524000C3B900BF18520020024B01461868FFF78F
:1052500043BA00BFF46D00200148FFF7AFBA00BFAA
:105260001852002070B5314B187800285DD0FFF738
:10527000E5FF0546002844D12D4B2E4C1B68002B22
:1052800019DD0AF02BFC4FF47A72A0FB020302FB3B
:105290000131C30BD4E9002043EA41439B1A4FEA92
:1052A000D13140F2E93261EB0001934271F100012A
:1052B00001D3FFF73BFFD4E9003213F57A7342F1D3
:1052C0000002C4E90032BDE87040FFF7C5BF636863
:1052D0005B7923B1236829461B6820469847103420
:1052E000B44211D91449154A154840F2022309F075
:1052F00012FE144809F00FFE104840F2022109F096
:1053000001FE114C114EEBE7E1D32846FFF79CFF5D
:10531000BFF35B8F0E4B53E8001F013943E80012C7
:10532000002AF8D1BFF35B8FA6E770BD4A7000205A
:10533000006E0020986A0020691201000C12010022
:10534000C10C01008A120100C0070100D007010052
:10535000046E002070B5154D297829BB0120FFF798
:1053600017FE134C134EB44217D91349134A14486D
:1053700040F2C71309F0CFFD124809F0CCFD0F48E9
:1053800040F2C71109F0BEFD63685B791BB1236869
:1053900020469B6898471034E5E7F5D3FFF762FF96
:1053A0000028FBD101232B7070BD00BF4B70002083
:1053B000C0070100D0070100691201000C120100B2
:1053C000C10C01008A1201002DE9F0472F4B304F2C
:1053D000FB1A1B090BD12F492F4A304840F2AB333F
:1053E00009F099FD40F2AB312B4809F08BFD00210B
:1053F0000846FFF7CDFD044640B340F267684FF022
:10540000000906F07DFB264B186030B1254B1B6868
:10541000092B02DD244804F04FFFDFF88CA00025A3
:1054200044B12046FFF782FD044618B94FF0FF381B
:105430004FF0FF39FFF716FF064628B95DB942461F
:105440004B46504604F0BCFF3546E9E74FF0FF38C5
:105450004FF0FF39D5E70D4D08E0F0D22B689B697E
:105460001BB100221146284698471035BD42F4D999
:105470000E49094A094840F29F3309F04CFD0C4897
:1054800009F049FD40F29F31AEE700BFC0070100BF
:10549000D0070100A91201000C120100C10C01008B
:1054A000FC6D0020046E00201454002069120100DD
:1054B0008A12010013B52C4809F0BBFE2B4B1B7858
:1054C000002B35D0EFF31184202383F31288BFF330
:1054D0006F8F274806F08AFD68B9264A2649274873
:1054E000882309F018FD2249254809F014FD882178
:1054F000204809F007FD1E4806F09CFDFFF7B2FEAC
:105500001B4806F081FD68B91A4A1E491B4840F243
:10551000311309F000FD16491B4809F0FCFC40F26C
:105520003111E5E784F31188BFF36F8F02B010BD2E
:10553000164B1B68002BF9D050B900220023CDE98F
:10554000002313484FF40042002307F007F9EDE76A
:105550000928EBD10E480AF0CFFA0E4802B0BDE898
:10556000104004F0A9BE00BF046E00204B70002064
:10557000F86D0020A6100100D3100100C10C01003D
:10558000E8100100FE10010015110100FC6D002063
:10559000A06A00201454002010B5064B1B68044676
:1055A00098472146A0600448FEF7B6FFBDE81040CA
:1055B000FFF780BF8000002018520020044A054BEE
:1055C0009B1AB1EBD30F34BF52F831000020704763
:1055D00020070100C00701002DE9F04F8FB004AF94
:1055E000C1F34A28B8600D4691467B600C0DB8F1B6
:1055F000000F68D0002607F114034FF0040B4FF0A2
:105600000A0AC7F80C80C7E907667E620193CDF8E5
:1056100008B0CDF800A007F11C03F96832464846EF
:10562000FEF714F8B0F5006F03461CD36C468AB041
:10563000D9F8041004AB2C48C3E9050140F2FF710E
:10564000D9611A464FF400711984284B42F8103F73
:10565000274833464FF41251FFF7BEFFA5462C37BB
:10566000BD46BDE8F08FC0F30A0804F117001844E6
:1056700020F0070080083B60FFF7D8FD68F3532552
:10568000044640B33B681B4AC7E9083600F11001E5
:1056900007F11403F961CDE900A3CDF808B0F9686A
:1056A00007F11C034846FDF7D1FF002813DA124921
:1056B0001248134A4FF4A37309F02DFC10484FF41D
:1056C000A37109F01FFC04F1170020F00700800807
:1056D000FFF7ACFD044668F353257B68B9682A469A
:1056E000204609F0E5FDBAE7D212010004000001EE
:1056F0005807010085F200003E130100C10C0100B3
:10570000111301002DE9F04F87B0DDE91279DDE9D1
:10571000106A044603919346984627B3CDF800904B
:105720003B46524610210020CDF81490FDF772FD43
:10573000051E0BDA2649274A274840F2651309F06F
:10574000EAFB40F26511234809F0DCFBB5F5006F78
:105750000ADB224A224840F2FF73022107B0BDE86B
:10576000F04F09F0FEBD3D4606F11700284420F039
:10577000070004F007048008FFF758FD0BF0070B43
:10578000E40044EA8B1444EA452444EA06540646FD
:10579000A0B19FB1CDF800903B465246294610304B
:1057A000FDF738FD002809DA09490A4A0A484FF48A
:1057B000C47309F0B0FB4FF4C471C4E703994346C6
:1057C0002246304607B0BDE8F04F09F071BD00BF7A
:1057D0003D13010011130100C10C0100471301002A
:1057E00058070100406820B1034BC01A40F3CF00B6
:1057F00070474FF0FF307047200701000EB403B52B
:1058000003AB014653F8042B0448019309F0CEFD85
:1058100002B05DF804EB03B0704700BF3D580000D4
:10582000CA0605D48B064CBF02490349FFF7E6BF01
:10583000704700BF9E2801007F13010038B54B68F8
:105840001A68CB689A4205460C4602D1084609F010
:10585000A0FD6368BFF35B8F53E8002F511C43E842
:1058600000100028F8D1BFF35B8FA3689D546368D4
:105870001A68E3689A4209D905490648064A72231C
:1058800009F049FB0448722109F03CFB002038BDB7
:10589000B1130100C10C0100821301002DE9F04F8A
:1058A00089B09A46149B06939DF84CB0159B0593BE
:1058B000169B179E049304460D469046BBF1000FBD
:1058C00000F0AD80BBF1040F0BD9A449A44AA54850
:1058D00040F2462309F01FFB40F24621A04809F0A0
:1058E00011FB06F48073079309F0C1FC06F002096E
:1058F000024600283FD09C492046FFF77FFF07461D
:10590000B9F1000F08D016F0440F36D197492A4656
:105910002046FFF773FF074406F0010353B1944B91
:10592000944953F82B20944B2046002A08BF1A466E
:10593000FFF764FF06F48073002B4AD006F00803DB
:10594000002B64D1B8F1000F67D08C494246204645
:10595000FFF754FF0546069B3D44002B6ED1049B88
:10596000002B40F08380F30700F1F18031462046A0
:10597000FFF756FFE5E00746C2E7814B18680028AD
:10598000C9D0804B4FF47A791B68B5FBF3F54FF41F
:105990006163B5FBF0F100FB115509FB05F54FF014
:1059A0003C0CB1FBF3F203FB1211B5FBF0FEB1FBB3
:1059B000FCF300FB1E550CFB131109FB05F50091D0
:1059C000B5FBF0F57049CDE901E52046FFF716FF7C
:1059D000A1E706F00803EBB16C4B6D4953F82B209F
:1059E0002046FFF70BFF0546B8F1000F05D06349CD
:1059F00042462046FFF702FF0544BAF1000FAAD045
:105A0000644952462046FFF7F9FE0544A3E74FF0EC
:105A1000000AE1E706F00805E6E745469BE7BAF12C
:105A2000010F069B06D1DBB9049B002B00F0898097
:105A300000251BE0002BF7D0574812E05748069B83
:105A40005749224609F0B7F900280CDA5549444A6B
:105A500044484FF4287309F05EFA4FF428713DE78B
:105A60004E485D46EBE7049B002B66D0DFF838819B
:105A7000DFF83891049F3146102F204628BF1027A9
:105A8000FFF7CEFE4FF0000A554543DC059B494623
:105A90001A782046FFF7B2FE4FF0010A1AF0070FFE
:105AA00003D141462046FFF7A9FE574539D9059B4A
:105AB000494613F80A202046FFF7A0FE0AF1010A22
:105AC000BAF1100FEAD13A4920464FF0000AFFF729
:105AD00095FE5246059B9A5C364B995C11F0970FE8
