:10000000C01A0020A52000006976000091200000A1
:1000100091200000912000009120000000000000CD
:1000200000000000000000000000000001220000AD
:100030009120000000000000AD2100009120000090
:100040008D2300008D2300008D2300008D230000F0
:100050008D2300008D2300008D2300008D230000E0
:100060008D2300008D2300008D2300008D230000D0
:100070008D2300008D2300008D2300008D230000C0
:100080008D2300008D2300008D2300008D230000B0
:100090008D2300008D2300008D2300008D230000A0
:1000A0008D2300008D2300008D2300008D23000090
:1000B0008D2300008D2300008D2300008D23000080
:1000C0008D2300008D2300008D2300008D23000070
:1000D0008D2300008D2300008D23000053B94AB901
:1000E000002908BF00281CBF4FF0FF314FF0FF3040
:1000F00000F00CB8ADF1080C6DE904CE00F010F87A
:10010000DDF804E0DDE9022304B07047704700BF6A
:10011000034613F8012B002AFBD1181A0138704747
:100120002DE9F04786468C460846089E15467446DB
:100130001946002B40F0C2808542B2FA82F245D9BE
:100140004AB1C2F1200300FA02FC2EFA03F39540F3
:1001500043EA0C0C94404FEA154EA8B2BCFBFEF8E3
:10016000230C0EFB18CC08FB00F943EA0C4399451D
:1001700028D9EB1808F1FF3704D2994502D9A8F124
:1001800002072B44A3EB0903A4B2B3FBFEFC0EFB56
:100190001C330CFB00F044EA0344A04214D92C1990
:1001A0000CF1FF3304D2A04202D9ACF102032C447B
:1001B000241A43EA07401EB1D44000233460736020
:1001C000BDE8F0874746DDE76346F1E792BB431B96
:1001D00001214FEA154EAFB2B3FBFEFC200C0EFB23
:1001E0001C330CFB07F840EA0343984562D9EB182F
:1001F0000CF1FF3004D2984502D9ACF102002B4437
:10020000A3EB0803A4B2B3FBFEFC0EFB1C330CFBF8
:1002100007F744EA0344A7424ED92C190CF1FF33E7
:1002200004D2A74202D9ACF102032C44E41B43EAF6
:100230000040C0E7C2F1200320FA03F1954090404E
:100240002EFA03F303434FEA154EAFB2B1FBFEFCA7
:100250000EFB1C10190C0CFB07F841EA0041884505
:1002600004FA02F422D969180CF1FF3004D288454F
:1002700002D9ACF102002944A1EB08019BB2B1FB09
:10028000FEFC0EFB1C110CFB07F743EA01439F42E7
:100290000ED9EB180CF1FF3104D29F4202D9ACF118
:1002A00002012B44DB1B41EA004192E76046E3E791
:1002B0006146F7E76046A3E76346B7E7834206D99E
:1002C00016B9002108467BE7C6E900E0F9E7B3FA72
:1002D00083F78FB9834201D3724508D8BEEB02047D
:1002E00060EB030301209C461EB9002168E73846F5
:1002F000FAE7C6E9004CF8E7C7F1200CBB4022FA48
:100300000CF41C432EFA0CF120FA0CF3B840014314
:100310004FEA14490EFA07F5B3FBF9F81FFA84FE09
:1003200009FB18300B0C08FB0EFA43EA00439A4510
:1003300002FA07F240D9E31808F1FF3004D29A45D7
:1003400002D9A8F102002344A3EB0A0389B2B3FB4C
:10035000F9F809FB183308FB0EFE41EA03418E450C
:100360002CD9611808F1FF3304D28E4502D9A8F1C7
:100370000203214443EA0040A0FB0298A1EB0E01D6
:100380004145CE46434602D306D14D4504D2B9EB92
:10039000020E68EB04030138002EA6D0B5EB0E0266
:1003A00061EB030101FA0CFC22FA07F34CEA0303A8
:1003B000F940C6E9003198E74046C5E74346D9E72A
:1003C000014800F0C1B800BF2485000038B500F036
:1003D00039F80A2006F0C7FA0C4A0D480D4D0C4CAE
:1003E000032107F078F8FFF7EBFFFFF7E9FF1E2086
:1003F00006F0B9FA03212A46204607F06CF80021DE
:100400004FF4C03007F0D6FCEFE700BF2E850000A8
:100410003883000044850000024883684FF400419F
:100420005B691847D0800000054803691B681B04FE
:1004300083684FF4004154BF1B69DB68184700BF55
:10044000D080000010B50F4C204607F08EFB08B995
:10045000002010BD204607F088FB0028F8D0204679
:1004600007F083FB0028F3D02269A168136823F406
:10047000004313600B68044A0F2120469847C0438D
:10048000C00FE6E7D080000010000A0010B40B4651
:100490000449024651F8040B84682468A44610BC41
:1004A000604700BF0000002010B40549024651F823
:1004B000040B83681C680023A44610BC604700BF7F
:1004C0000000002013B5041E0DF107014FF0D0000D
:1004D00018BF012406F05FFA9DF80730A401A3427B
:1004E0000DD02146D02006F081FA044620B1024604
:1004F0000449054806F04AFA204602B010BD00241F
:10050000FAE700BF578500004883000008B5FFF7F1
:10051000D9FF024618B10949094806F037FA06F032
:100520007BFA0021A02006F061FA024628B1BDE85E
:1005300008400449024806F029BA08BD5785000062
:10054000488300006E8500002DE9F0438DB000AFB8
:1005500040B9434A0121434806F016FA3437BD46F4
:10056000BDE8F083404B0268404C1A6042685A6014
:1005700002891A81206807F0F8FA08B93C4AE9E7CD
:10058000E06818B107F0F1FA0028F7D0FF233B74B8
:1005900007F11008012307F1180907F12005C7E941
:1005A0000893C7F81880FB612846FFF77DFF0246D5
:1005B00018B130492B4806F0E9F90021422007F034
:1005C000F9FB06F002FA44F22C63BB809F2302245D
:1005D0003B8107F10C0607F10803C7E90454C7E99A
:1005E00006544946C7E90A643B627C624046FFF70D
:1005F0004DFF224605463146381D07F0A7FCC0B125
:100600006C468AB0397B7B7B6A461B48D361C2E962
:10061000050146232C21C2E90813062342F8103FA6
:10062000104800234FF4415100F0B8FFA546134A8B
:1006300090E7002DFBD106F0EFF91021B02006F075
:10064000D5F9024618B10E49064806F09FF9402038
:10065000FFF75CFF0020FFF759FF0A4A03217AE702
:100660008685000048830000680A00200000002002
:100670009C850000B8850000D4850000FE85000040
:100680000E860000258600002DE9F04F91B084070A
:10069000009302F004030293C2F3C20303F10103C7
:1006A000DDF86880039205460E46059340F0BA8156
:1006B000041D30B1072909D86FF01B0011B0BDE847
:1006C000F08F01F007063444C6F10806009B4FF096
:1006D0000009591E4FF0040A4FF0FF330193CDF883
:1006E00010904F46CB4653460DB1009A22600598B4
:1006F000002800F3E8809848009A824203D3974884
:100700008242C0F0E080039AA4EB050E92074FEA04
:100710009E0000F103810F2F00F2B180002D00F048
:10072000058107F140020DEB020C019A0CF8200C38
:100730000CF8102C049801300490E7E07A285DD87A
:100740004B280ED8472859D829282DD8252852D0EB
:1007500054D820287AD02338D0F1000B4BEB000B73
:1007600074E04C382E2849D8DFE800F0704848483B
:1007700048484848484848484B48484848484848F6
:100780004859484B4B595959704B6D487048184B54
:10079000184848827F4B48484B487F0000204FF064
:1007A000000B4FF0040A38E02A38C0B2012202FAE6
:1007B00000F010EA0E0F49D110F0625C2FD110EA60
:1007C000020B43D06046013C5444B4FBFAF40AFBEC
:1007D00004F4002D61D0A3EB050CA444B4453FF60E
:1007E0006BAF002868D1042B47D158F8043B236035
:1007F000043404232AE0019A013A01924FF0000BDD
:1008000024E011F8010C6C2834D111F8023C0020CE
:100810006C2B8346C5D14FF0080A5346D3E708F145
:10082000070828F007080734F8E802AB24F00704AB
:1008300035B106982044B0423FF63EAFC4E900AB64
:1008400008344FF0000B4FF0080A534611F8010F1F
:10085000002878D0BBF1000F7FF470AF2528F5D1C8
:10086000019B013301934FF0010B4FF0040AECE7B9
:10087000584694E700208346A5E7082B02D06FF086
:1008800015001BE708F1070828F00708F8E802231D
:10089000C4E9002308340823D8E768B9042B02D13F
:1008A00008F10408A4E7082BE9D108F1070828F0AB
:1008B000070808F10808EDE7059A013A059258F88B
:1008C000042B009210E7039A900720D5A4EB050EA5
:1008D0004FEA9E004FF0010CBEF5007FCFD20F2FE4
:1008E000CDD8F5B107F140020DEB020EC0B2019A6E
:1008F0000EF8200C0EF8102CBCF1000F3FF41AAFCC
:1009000060F07F000EF8200C09F101090137C5F1F4
:100910000802043406924FF6DA7E97E74FF0000C97
:10092000DAE7BCF1000F01D00136EFE7029802369A
:100930000028EBD10098CDE90631FFF7E9FBDDE9AE
:1009400006310644E2E7631BB3F5806F97D23DB9E9
:10095000A6F10804E018B1E6588000003C900000C1
:10096000029A28609B082B709DF81030C2B1EB7082
:1009700085F80290B9F1000F05D008A80022C5F152
:10098000010C97420ED1C5F101030DF120084FF083
:10099000000A01930DF1300B574512D1601B8DE613
:1009A0006B70E5E710F8013B190608D50CEB040E57
:1009B000B64503F07F033FF67FAE04F8013B0132FA
:1009C000DFE7B9F1000F03D098F90020002A17DB08
:1009D000029BD3B11AF80B2004F8012B0022019BD3
:1009E00018191044B0423FF667AE98F8000004F8BA
:1009F000010B00990392204607F092FA039A1444DF
:100A00000AF1010A08F10108C6E798F8002055F834
:100A100022300093029B45F822300098FFF778FBC4
:100A2000421CDCE76FF00D0048E600BF2DE9F04FF7
:100A300097B000AF90F802A0D7F880B03B62CBF33C
:100A4000C0030446FA62BB61894641B94578007823
:100A50000AEB800020444D4517D8A0EB0409E37849
:100A6000FB61BAF1000F02D01BF0010F16D1FB6938
:100A700053BBFB6A1BB13A6A4946204698474D462C
:100A800028465C37BD46BDE8F08F461C3046FFF770
:100A90003FFB0130304409F10109DCE7237862684B
:100AA0007A62FA6A9900796104EB8301002A40F0C6
:100AB00000814D460E4601EB0A094FF000084E45F5
:100AC0004CD101EB0A0610E01BF0020FD1D02378C5
:100AD0009A007A6162687A62FA6A04EB8301002AFA
:100AE00077D14D4601EB0A0690461BF0050F0CBF6F
:100AF00002230123FB62FB6906EB430A0BF00203AE
:100B0000BB625645BCD016F8021B16F8013C54F8DF
:100B10002390994B994502D3984B994536D3BB699D
:100B2000002B40D0786A06F099F800283BD0E946BF
:100B30008AB06A46924B53617B6AC2E906314FF430
:100B4000007313848F4B42F8103F8F4800234FF4FB
:100B5000125100F023FD023DCD46D2E716F8013BCD
:100B6000F96254F82300FFF7D3FAD7F88430F96A12
:100B700001304BB1D7F8883098453EBFD7F8843064
:100B800023F8180008F10108054498E7BB6923B170
:100B9000786A06F063F80028C9D11BF0010F05D16F
:100BA000FB6AED1AADE7BB6A002BAAD04846FFF7F7
:100BB000AFFAD7F8843053B1D7F8883098453FBFA3
:100BC000D7F88420431C22F8183008F101080544A6
:100BD00097E7BAF1000F72D01BF0040672D0D0462E
:100BE000002607F1480052463B61B96207F098F9C8
:100BF000B96A3B6901EB0A02BA62FA69F969520003
:100C0000FA60BA6A02EB41023A610BF00202BA6082
:100C10003A69B96A8A4257D162787A621BF0020F48
:100C200032440CBF4FEA580100211BF0010FD2B231
:100C300040F09F801BF0040F14BF40460020BB61B2
:100C40006270A070E1703A6A7969FB6A2046984741
:100C5000051EFFF615AFBB6923707B6A6370FB69E5
:100C6000E37041463A6AFB6A84F802A007F1480043
:100C70009847B0F10008C0F2BB807B693A6AA9EBE3
:100C80000A01C91AFB68C91AD7E90A03984700285C
:100C9000C0F2B080A84408EB00054FF0000B07F14C
:100CA000380AB34572D300213A6AFB6A084698476E
:100CB000E6E656464FF0000807F1380093E756463F
:100CC000D04697E7B04695E7BA6A12F8021BBA62B7
:100CD00012F8015C284A54F82500904202D3274AB2
:100CE00090421ED3BA6932B1786A7B6005F0B6FFD4
:100CF0007B6800288CD1BA6802BB08F1280207F192
:100D0000300C08F10100944407F1580252FA80F0C7
:100D100008F102080CF8101C5FFA88F800F8105C63
:100D200076E7BA693AB1786A7B6005F097FF7B682D
:100D300000287FF46DAF1BF0010F09D006F12802E7
:100D400007F13000711C161806F8205CCEB25FE780
:100D50001BF0040F3FF45CAF08F1280207F13000EC
:100D600008F1010102EB000808F8105C5FFA81F855
:100D70004EE7002063E700BF588000003C90000071
:100D80006186000004000001008300001BF80A30A7
:100D900087F8373054F82390D7F884302BB3D7F83E
:100DA00088309B4521D2D7F8843033F81B803A6ACB
:100DB000FB6A012107F13700984700281ADB054438
:100DC000B8F1000F06D14846FFF7A2F900F101087B
:100DD0001FFA88F83A6AFB6A414648469847002855
:100DE00008DB05440BF1010B5BE74FF00008DEE781
:100DF000454645E6054643E6014B1860704700BF8F
:100E00001800002080B505460E461746984604F0A7
:100E1000D1FF034607F016F9DFF81890044649F8A9
:100E20000030424630463946A84754F8090001F0E0
:100E3000A7F900BF080000002DE9F047058B044624
:100E40002807904611D4022905F0070540F0CC8010
:100E5000204606F0A1F978B10138218B042811D879
:100E6000DFE800F0C2106D85950001290CBF45F048
:100E7000100545F02005258388F31188BFF36F8F97
:100E8000BDE8F08701F0070AAA4500F0A580002719
:100E9000B9463E46A368002B00F0BC8041F0080133
:100EA000218388F31188BFF36F8FA168002900F0B8
:100EB000BA800D68002900F0B680D1F8048033466E
:100EC00052462046C047002D76D02B6829461D4645
:100ED000F0E701F007035A1F012A1BD8002221F076
:100EE0000701062B276889B2C4E9002209D13B46D5
:100EF00003E0628B013262831B68002BF9D141F061
:100F000002012183204606F047F900287AD041F0FB
:100F1000200176E0042B0AD121F0070189B2218358
:100F2000204606F039F910B141F020012183218BD0
:100F300001F0070AAA454FD00027B946AAE723695E
:100F400021F0070141F00601062DD3F8009021831E
:100F50002DD1B9F1000F3FD041F00801218388F372
:100F60001188BFF36F8F3A492046C84729E021F026
:100F70000701236941F0040189B2042DD3F80490DC
:100F80002183E6D000273E464FF0040A82E721F095
:100F90000701236941F0050189B2052DD3F80890B6
:100FA0002183D6D000273E464FF0050A72E700277E
:100FB0003E464FF0060A6DE72B4687E7B9F1000F72
:100FC000D1D1EFF31188202383F31288BFF36F8F01
:100FD000238B23F008032383258BEA062ED525F0E7
:100FE0001003238305F007056669218B002EBFF6E9
:100FF00070AF00232768C4E9003321F0070141F0F6
:1010000001012183218B01F0070AAA454FF0000955
:101010007FF440AF002F9CD041F00801218388F37A
:101020001188BFF36F8F002FC8D03D683946334613
:101030005246204606F0DCF82F46F4E7AB067FF573
:101040001BAF25F02003238305F0070500E700BF51
:101050001D7200002DE9F047DFF85880044607466E
:101060004FF0010914B93846BDE8F08794FAA4F5A9
:10107000B5FA85F509FA05F32E0108EB05156FEAB7
:10108000030A24EA03042B7B002BEBD058F806302C
:101090001B694BB94644042273682846196807EA5D
:1010A0000A0706F0A9F9DDE7284698470028D9D1B4
:1010B000F0E700BF7083000030B51049104889B0D8
:1010C000002206F005FF0F4D0F4900220023CDE955
:1010D000062300240E23CDE90334CDE901440B4B54
:1010E00000944FF44072284604F086FB08492846D5
:1010F00006F0CAFD204609B030BD00BF1511000042
:10110000D805002050010020800A00204114000072
:1011100015870000014804F055B900BF40010020C8
:101120002DE9F047804621480F4606F045F906466E
:10113000002833D000252846BDE8F087237B83B103
:101140002368DB680BB120469847636883F80690F4
:1011500023681B69D3B9636804221968204606F026
:101160004BF9013610345445E8D3B8F1000FE2D002
:10117000002DDFD02846FFF76DFF0546002FF7D082
:1011800000214FF4A47006F015FEF1E720469847C1
:101190000028E0D009FA06F31D43E2E7044CDFF82B
:1011A00014A005464FF00109DDE700BF80080020CC
:1011B0007083000080830000014B53F820007047CB
:1011C0009C83000008B5034608462BB1044A13600F
:1011D00000F07AFC002008BD6FF01500FBE700BFAF
:1011E0001C00002010B5044C237813B9034804F008
:1011F000E9F80123237010BD740A0020400100208B
:1012000010B504460B4806F0D7F85CB1BFF35B8F0E
:10121000094B53E8001F013943E80012002AF8D1B6
:10122000BFF35B8F054806F05FFE0548BDE8104040
:1012300004F0C8B8780800207C080020D8050020F9
:10124000400100200020064BBFF35B8F014653E8AE
:10125000000F43E80012002AF9D1BFF35B8F7047FB
:101260007808002070B5FFF7EDFF084C084E0546E2
:10127000B44200D370BD63685B792BB123685B68AF
:1012800013B12946204698471034F1E770830000D7
:101290008083000010B5044C0449204605F015FE7B
:1012A000034B1C6010BD00BFCC00002088830000F1
:1012B000700800200D4A0E48002310B513700D4A27
:1012C00013600D4A4FF400411360FFF77BFFFFF7F7
:1012D000E1FF0A4B0A4918468B4200D310BD1A1A87
:1012E0005C681211013222711033F5E7750A002093
:1012F000B5730000780800207C080020708300008F
:1013000080830000014600220148002305F0FEBD55
:10131000CC000020014805F097BE00BFCC000020A3
:10132000024B0146186805F0E3BE00BF70080020BC
:10133000014805F018BF00BFCC00002070B5294B54
:10134000187800284DD0FFF7E5FF0546002845D165
:10135000254B264C1B68002B19DD06F0B7FD4FF41A
:101360007A72A0FB020302FB0131C30BD4E9002017
:1013700043EA41439B1A4FEAD13140F2E93261EB33
:101380000001934271F1000101D3FFF76BFFD4E933
:10139000003213F57A7342F10002C4E90032BDE86D
:1013A0007040FFF7C5BF63685B7923B123682946A6
:1013B0001B68204698471034B442F4D32846FFF700
:1013C000AFFFBFF35B8F0A4B53E8001F013943E8BF
:1013D0000012002AF8D1BFF35B8FB9E7054C064E27
:1013E000EAE770BD740A002078080020D0050020CC
:1013F0007C080020708300008083000070B50D4DD4
:10140000297861B90120FFF78BFE0B4C0B4EB442DB
:1014100006D3FFF793FF0028FBD101232B7070BD8B
:1014200063685B791BB1236820469B68984710343A
:10143000EDE700BF750A0020708300008083000084
:1014400000212DE9F0470846FFF76AFE044658B32D
:1014500040F267684FF0000906F0F4FD1B4B1C4A90
:101460001B58136033B11B4B1B68092B02DD1A4854
:1014700003F0A8FF194FDFF860A0002544B1204613
:10148000FFF7E8FD044618B94FF0FF384FF0FF3979
:10149000FFF754FF064628B9B5B942464B465046B9
:1014A00003F0C4FF3546E9E74FF0FF384FF0FF394E
:1014B000D2E72B689B691BB100221146284698474A
:1014C0001035BD42F5D3E8E7054DFAE70800000006
:1014D000740800207C080020400100208083000068
:1014E0007083000013B5184805F066FF174B1B7892
:1014F00073B1EFF31184202383F31288BFF36F8F4E
:10150000FFF71CFF84F31188BFF36F8F02B010BD8B
:101510000F4B1B68002BF9D050B900220023CDE9F6
:1015200000230C484FF40042002304F041FFEDE794
:101530000928EBD1074806F0D7FC074802B0BDE800
:10154000104003F03FBF00BF7C080020750A002058
:1015500074080020D80500204001002010B5064B7B
:101560001B68044698472146A060044805F04DFDDD
:10157000BDE81040FFF7B6BF1C000020CC000020E3
:10158000044A054B9B1AB1EBD30F34BF52F831001C
:1015900000207047F8820000708300002DE9F04FB2
:1015A0008FB004AFC1F34A28B8600D4691467B6006
:1015B0000C0DB8F1000F63D0002607F114034FF0B3
:1015C000040B4FF00A0AC7F80C80C7E907667E6271
:1015D0000193CDF808B0CDF800A007F11C03F9681D
:1015E00032464846FFF722FAB0F5006F03461CD397
:1015F0006C468AB0D9F8041004AB2648C3E905014B
:1016000040F2FF71D9611A464FF400711984224BE0
:1016100042F8103F214833464FF41251FFF7BEFF06
:10162000A5462C37BD46BDE8F08FC0F30A0804F18B
:101630001700184420F0070080083B60FFF762FEA7
:1016400068F35325044690B13B68154AC7E908364C
:1016500000F1100107F11403F961CDE900A3CDF801
:1016600008B0F96807F11C034846FFF7DFF968F393
:1016700053257B68B9682A46204605F0DCFED0E792
:1016800004F1170020F007008008FFF73BFE044636
:10169000EDE700BF2A87000004000001208300005E
:1016A0000B7400002DE9F04F87B0DDE91279DDE918
:1016B000105A0446039193469846BFB1CDF8009066
:1016C0003B46524610210020CDF81490FEF7DCFF77
:1016D000B0F5006F06460AD3184A194840F2FF7366
:1016E000022107B0BDE8F04F05F0FEBE3E4605F111
:1016F0001700304420F0070004F007048008FFF7CB
:1017000001FE0BF0070BE40044EA8B1444EA462484
:1017100044EA0554054640B13FB1CDF800903B4640
:10172000524631461030FEF7AFFF0399434622463A
:10173000284607B0BDE8F04F05F07DBE6987000080
:1017400020830000406820B1034BC01A40F3CF0053
:1017500070474FF0FF307047F88200000EB403B5B9
:1017600003AB014653F8042B0448019300F068FFD3
:1017700002B05DF804EB03B0704700BF33750000A2
:10178000CA0605D48B064CBF02490349FFF7E6BFE2
:10179000704700BFA2870000A18700002DE9F04F2D
:1017A00089B09B46149B06939DF84CA0159B05930E
:1017B000169B179E049304460D469046BAF1000FFF
:1017C00000F09D8006F48073079305F013FE06F089
:1017D0000209024600283ED091492046FFF7BEFF8D
:1017E0000746B9F1000F08D016F0440F35D18D49E6
:1017F0002A462046FFF7B2FF074406F0010353B123
:10180000894B8A4953F82A20894B2046002A08BF71
:101810001A46FFF7A3FF06F48073002B49D006F0A9
:101820000803002B63D1B8F1000F66D0814942460E
:101830002046FFF793FF0546069B3D44002B6DD1E4
:10184000049B002B73D1F30700F1E480314620465E
:10185000FFF796FFD8E00746C3E7774B18680028E4
:10186000CAD0764B4FF47A791B68B5FBF3F54FF489
:101870006163B5FBF0F100FB115509FB05F54FF075
:101880003C0CB1FBF3F203FB1211B5FBF0FEB1FB14
:10189000FCF300FB1E550CFB131109FB05F5009131
:1018A000B5FBF0F56649CDE901E52046FFF756FFA7
:1018B000A2E706F00803EBB1624B634953F82A2014
:1018C0002046FFF74BFF0546B8F1000F05D05949F8
:1018D00042462046FFF742FF0544BBF1000FABD064
:1018E0005A495A462046FFF739FF0544A4E74FF00E
:1018F000000BE1E706F00805E6E745469CE7BBF18B
:10190000010F069B06D1002B64D1049B002B7BD0DA
:1019100000250CE0002BF8D04D485CE04D48069BBC
:101920004D49224605F069F9049B002B68D0DFF889
:101930002C81DFF82C91049F3146102F204628BFC0
:101940001027FFF71DFF4FF0000B5D4545DC059BA1
:1019500049461A782046FFF701FF4FF0010B1BF0B4
:10196000070F03D141462046FFF7F8FE5F453BD9FC
:10197000059B494613F80B202046FFF7EFFE0BF1BD
:10198000010BBBF1100FEAD1364920464FF0000B96
:10199000FFF7E4FE5A46059B9A5CA2F120015F29FD
:1019A00028BF2E2230492046FFF7D8FE0BF1010B4D
:1019B000BBF1100F1DD01BF0070F03D1414620468D
:1019C000FFF7CCFE5F455A46E5D841462046FFF773
:1019D000C5FEEBE71F485546A1E741462046FFF705
:1019E000BDFE0BF1010BB0E720492046FFF7B6FE24
:1019F000C5E7059B3B440593049BDB1B04939AD1ED
:101A0000BAF1000F7FF41FAF204609B0BDE8F04FD8
:101A100005F082BD064A05492046FFF79FFE15E7FF
:101A2000A9870000AD870000AC830000298E00006C
:101A3000A4870000D28700008808002084080020C6
:101A4000B6870000C0830000D6870000DC87000056
:101A5000697500003375000041260000E987000029
:101A6000E1870000EB870000ED870000E7870000BA
:101A700073B542F20F738B4228BF0B4605680F4ABD
:101A800004460521684604F0E3FC63680C495B6882
:101A900006460B22284605F031FD6368324669464A
:101AA00028465B6805F02AFD636806495B681B22CF
:101AB000284605F023FD02B070BD00BF83850000FD
:101AC0000C880000F0870000074A002101239042A3
:101AD00006D8064A01B901231360054B1860704708
:101AE00040085B000121F2E740420F00840800201B
:101AF00088080020F8B5074F0D4604464618B44242
:101B000001D12846F8BD14F8011BBB6801485B6889
:101B10009847F4E7F0800000014B03600020704715
:101B20000884000008B5044805F0BFF8BDE8084087
:101B3000024805F0BAB800BF52880000878800004C
:101B40002DE9F047064600AF0C46002936D0E9469D
:101B50008AB0D1E90012A3686D462148A8464FF02B
:101B6000050AC5E90501C5E9072348F810AF1D4876
:101B7000424600234FF42151FFF710FDCD46D4E932
:101B800003126369AD461848C5F810A0C5E9050100
:101B9000C5E907231348002342464FF42151FFF7BC
:101BA000FDFCCD46E369114A0E48012105F09CFC7D
:101BB000A3690F4A0B48012105F096FC012E07D1BD
:101BC000EFF305830B4A0748103B314605F08CFCC8
:101BD0002146304603F098F9BD46BDE8F08700BFC6
:101BE000B588000050830000E488000013890000DD
:101BF000228900005089000030BFFFF7FDBF00BF01
:101C00002DE9F0410B4EDFF8308006EB0807CC1BC6
:101C1000054632460949204606F082F9A019424697
:101C20000021083C06F08AF92C6707F10800BDE89E
:101C3000F08100BF0000000004000000808300006D
:101C4000054B5A699B689A421FBF044A536843F088
:101C500080535360704700BF340A002000ED00E05D
:101C600070B52A4C06460D4629482A4905F003FD61
:101C7000A36ADB0647D52648274905F0FCFC11205E
:101C8000A36A1C0704D52248244905F0F4FC12205D
:101C90001E4CA36A990712D521491D4805F0EBFC9B
:101CA000636BA26A120609D51E4A1948012105F084
:101CB0001BFC1EB1A36A23F08003A3621320134C04
:101CC000A36ADE0704D51248174905F0D4FC142096
:101CD000A36A9C0604D50E48144905F0CCFC1520D7
:101CE0000A4B9A6AD10658BF9A6A9A6A920642BF0C
:101CF0005A6A22F400525A629A6A42F0FF029A62C9
:101D000000232B7070BD1020BAE700BF00ED00E08B
:101D1000508300006389000079890000AC890000CD
:101D2000BF890000D7890000ED8900000C8A0000FF
:101D300010B5204C2049214805F09DFCA36A99016B
:101D400036D51E481E4905F096FC1E20A36ADA010E
:101D500004D51A481B4905F08EFC1F20154CA36AB8
:101D60001B0304D51548184905F085FC2120A36AFA
:101D7000590304D51148154905F07DFC22200D4C6E
:101D8000A36A9A0304D50D48114905F074FC232079
:101D9000A36ADB0304D509480E4905F06CFC242036
:101DA000044A936A6FEA03436FEA1343936210BDD8
:101DB0001D20CBE700ED00E03B8A000050830000CF
:101DC000538A0000668A0000808A00009E8A000014
:101DD000C38A0000DD8A000070B5294C06460D4616
:101DE0002848294905F047FCA36AD9043CD5254871
:101DF000264905F040FC1720A36A1A0504D521489E
:101E0000234905F038FC18201D4CA36A9B0512D508
:101E10001C48204905F02FFCA36BA26A100409D5C9
:101E20001D4A1848012105F05FFB1EB1A36A23F487
:101E30000043A3621920124CA36A590504D5114826
:101E4000164905F018FC1A20A36ADA050ED50D48CC
:101E5000134905F010FC1B20094A936A43F47F43A1
:101E6000936200232B7070BD1620C5E7A36A9B0404
:101E7000F2D504480B4905F0FEFB1C20ECE700BF3F
:101E800000ED00E050830000088B00001E8B000076
:101E9000AC8900002F8B0000488B00005D8B000098
:101EA000788B00000C8A00002DE9F041654B8AB068
:101EB000D3F8048000AF0446C8F30805002686F373
:101EC0001188BFF36F8F02F07F43B3F17F4F07D1CB
:101ED00002F00C03082B12D15B495C4805F0CBFBE8
:101EE000002634460023FB71EB1E092B00F289808B
:101EF000DFE803F00A7F827B878787878785100763
:101F00004CBF0C460126EDE7514950484D4D05F0B8
:101F1000B2FB0023FB71EB6A9A0705D54D494B488C
:101F200005F0A9FB002331E0EB6A002B01DA4A49F6
:101F3000F5E7EB6A5B00F5D54849444805F09BFBA3
:101F40006B69A26943F480736B61BFF34F8FBFF37A
:101F50006F8F6B6932F8022C23F480736B61BFF3CF
:101F60004F8FBFF36F8F4DF602739A4207D0AB6A63
:101F7000DBB26BB3F91D0120FFF772FE37E0236877
:101F8000374A3248012105F0AFFA2368FA79DAB905
:101F900007F1080504F1200C206861682A4603C295
:101FA000083464451546F7D17A6A002E45D0C2F34D
:101FB000080121B96FEA52226FEA42227A6207F1E0
:101FC00008011846FFF7BCFD2837BD46BDE8F08183
:101FD000AB6A13F47F4F04D0F91D0120FFF7FCFE1C
:101FE00005E0AB6AB3F5803F9CD3FFF7A1FE034643
:101FF000CCE7F91D0020BFE7F91D0020EEE71949E5
:102000008DE7194A194B18F4F87FE8468AB018BFD3
:1020100013466A461649C2E905134FF40073138448
:10202000103D144BD56142F8103F084800234FF48F
:102030001151FFF7B3FAC54674E722F4FF7222F09C
:102040000102BBE700ED00E0BE8B00005083000002
:10205000E98B0000008C0000218C00002F8C000018
:102060004E8C00006A8C0000A58B0000908B000055
:102070008E8C000004000001044B5A6942F01002EB
:102080005A615A6922F008025A61704700ED00E077
:10209000EFF30880EFF3098101B57246FFF704FF03
:1020A00001BD00BF002080F31488BFF36F8F0F487D
:1020B00080F3088801F016FF00200D490860BFF387
:1020C0004F8F00F02BF8202080F3118809484FF43F
:1020D0000061401880F30988EFF31480022108435F
:1020E00080F31488BFF36F8F00F0F2F8C01A00205D
:1020F00094ED00E0800D00200749D1F890200023E6
:10210000C2F307221846934200DB7047C1F89830AB
:10211000C1F8A0000133F6E700ED00E008B572B6A3
:10212000002383F31388FFF7E7FF144B4FF0FF32D0
:10213000C3F88020C3F88420C3F88820C3F88C201B
:10214000C3F89020C3F89420C3F89820C3F89C20CB
:10215000C3F88021C3F88421C3F88821C3F88C21F7
:10216000C3F89021C3F89421C3F89821C3F89C21A7
:1021700062B6BFF34F8FBFF36F8F08BD00E100E081
:10218000084B9B6883420BD1EFF3058343B1064BA9
:102190005A6842F080525A605A6A22F400425A62E7
:1021A00003F00EBE340A002000ED00E011498A68F9
:1021B0004FF030001044EFF3098C80E8F01F20202E
:1021C00080F31288BFF36F8F0B4F4FF000664A69A0
:1021D0008A603E60106F094C2060506F0023536787
:1021E00080F3118802F1300090E8F01F8CF3098829
:1021F00070470000340A002004ED00E0B008002021
:102200001EF0040F0CBFEFF30880EFF30980816923
:1022100011F8021C0229FFD001B5724605F020FA20
:1022200001BD00BF40B2002807DB044A4109012379
:1022300000F01F00834042F82130704700E100E0C9
:1022400040B200280CDB4309064900F01F00203390
:102250000122824041F82320BFF34F8FBFF36F8FDD
:10226000704700BF00E100E0054B420900F01F008D
:1022700053F82220012303FA00F01040704700BFFA
:1022800000E100E040B20028A8BF00F1604001F189
:102290000101B8BF064B4FEA4111ACBF00F56140E8
:1022A00000F00F00C9B2B4BF195480F80013704792
:1022B00014ED00E0044B054A23F07F039360BFF365
:1022C0004F8FBFF36F8F70470000000000ED00E0FC
:1022D00008B5FFF7EFFF074AD2F8883023F4700300
:1022E000C2F8883002F0FCFE03F09EFE00F042F8D7
:1022F00002F036FF00ED00E042F8203C009B42F87F
:102300001C3C0A49019B42F8183C029B42F8143CD1
:1023100021F001014FF0807342F8043C42F8081CA0
:102320000023203A02654367704700BF050E000096
:1023300000B5094B9860094B1546026F1A600E46AE
:102340002C4686F309880020054B9847204600213B
:1023500000220023034C2047340A0020B00800204C
:1023600087760000050E0000014B10221A617047AD
:1023700000ED00E0044800232021C2180133272B80
:1023800082F80013F9D1704700E100E008B5EFF3DF
:102390000583064A103B02EBC30152F8330049683B
:1023A0008847BDE80840FFF74BBC00BF50810000E4
:1023B000024B034A0348012100F07AB800000120D3
:1023C000000000200884000008B503461048D0F83B
:1023D0009020C2F30722013A934207D90D480E4AD2
:1023E000012105F081F86FF0150008BDC0F89830A4
:1023F0000A6822F01F021A4342F01002C0F89C2023
:102400008A6842F00102C0F8A0201846EDE700BF3C
:1024100000ED00E040830000A58C0000F0B50E4602
:1024200085B01F4604460025B5420DDA606810B33A
:1024300097B1431E18420AD0104A11482B46012179
:1024400005F052F86FF01502104605B0F0BD1F28D8
:10245000F2D921680B42EFD12368019305F036F9D8
:10246000A36801A90343D0B20393FFF7ADFF10F1B6
:10247000160FE7D0421C01350C34D5E7CB8C000099
:1024800040830000044B0522C3F89420BFF34F8F14
:10249000BFF36F8F704700BF00ED00E0BFF35F8FA9
:1024A000024B0022C3F89420704700BF00ED00E00B
:1024B00010B5034C01232278FFF7B0FF207010BD48
:1024C000770A00202DE9F04357485849D0F890305A
:1024D0000D68C3F307239D4285B000F2A180FFF78A
:1024E000DDFF49680022954201F10C011AD1504CE0
:1024F000504F25706846FFF70FFBDFF83C81DFF88F
:102500003C9106460025AE421FD123784649002063
:10251000D1F89020C2F3072293427BDBFFF7B2FF92
:1025200000204CE0C0F8982051F80C3C23F01F0329
:10253000134343F01003C0F89C3051F8043C43F0BF
:102540000103C0F8A0300132CDE7009800EB05117F
:102550004FEA051CCB683B40B3F5000F44D00AD8C6
:10256000B3F5001F2ED0B3F5800F34D0B3F5801F24
:1025700010D00135C7E7B3F1807F3ED0B3F1007FC3
:10258000F7D150F80C3088684A6805F09FF840F49D
:10259000802009E050F80C3088684A6805F096F809
:1025A00040F0885040F43020039001A92078CDE914
:1025B0000123FFF709FF002828DA6FF0150005B0A6
:1025C000BDE8F08350F80C3088684A6805F07EF862
:1025D00040EA0800E8E750F80C3088684A6805F0DF
:1025E00075F840EA0900DFE750F80C3088684A685F
:1025F00005F06CF840F08270D6E750F80C3088682F
:102600004A6805F063F840F08870CDE7237801331D
:102610002370AEE7C1F89830C1F8A000013377E726
:102620004FF0FF30CBE700BF00ED00E01484000066
:10263000770A00200000F0FF0000081100000206E9
:10264000F0B587B007460E461446002110226846B2
:102650001D4605F073FC02238DF802302A46054B17
:10266000019321466846CDE9047603F01DFF07B0CB
:10267000F0BD00BFED76000008B5024B1B6898471F
:10268000002008BDB4080020034B044A186093786A
:1026900043F0020393707047B40800202800002024
:1026A00008B50649064821F00701C1F1005202F5BC
:1026B000803204F04AFA002008BD00BFC71E002087
:1026C000B8080020024B0122C3F8402500207047C3
:1026D00000E0014020B1034B800143F001031847A3
:1026E000704700BF80830000084B70B5C31A0D46C9
:1026F00007499B10044659430648402205F00AF852
:102700002B4601462046BDE870401847D8080020F7
:10271000B76DDBB6B080000073B50C4C0C4A40239B
:10272000041B00930D460B460A49A410614306465C
:10273000094805F01AF8011E05DA30462B4602B0AA
:10274000BDE87040184702B070BD00BFD808002037
:10275000D3770000B76DDBB6B0800000002270B503
:10276000012104461046FFF78DFD114801F09CFD44
:10277000104B984218D1206900F0DEF901F0A6FD57
:1027800026690D49304604F056FD00280BDB012573
:1027900035642469084904F11C0004F04CFD00284C
:1027A00001DBE564002070BD6FF00400FBE700BFB3
:1027B000952800000000AD0B348400001FB50022F6
:1027C0000123CDE90223094ACDF800D06B46CDF8AC
:1027D00004D004F0F7FF002805DB4FF4804200230B
:1027E000684602F023FE05B05DF804FBE5770000C3
:1027F00010B5074C23782BB94FF4A57005F0B0F94C
:1028000001232370BDE81040002001F071BD00BF1E
:10281000780A002010B5EFF31184202383F3128887
:10282000BFF36F8F074A136823F00201DB071160C3
:1028300002D4012005F0C4F884F31188BFF36F8F30
:1028400010BD00BF2809002030B4104B0C2202FB41
:10285000003301460020D3E90E529863EFF3118054
:10286000202484F31288BFF36F8F1C6C04F0C00423
:1028700044F002041C6480F31188BFF36F8F1DB114
:102880002B46034830BC184730BC7047D80800209E
:10289000B0800000012810B504460AD003280CD0EF
:1028A00078B9084B1B6C5B070BD1BDE81040FFF7F4
:1028B000CBBF00F04FF92046F7E7BDE8104000F02D
:1028C00057B910BDD808002010B4EFF311822023AF
:1028D00083F31288BFF36F8F1748016841F0020439
:1028E0000460C80707D482F31188BFF36F8F0120FB
:1028F00010BC01F0FDBC4FF08041D1F80C04D1F8C0
:102900000C14C907EFD5EFF3118083F31288BFF3DE
:102910006F8F0A490B6C03F0C00343F002030B6492
:1029200080F31188BFF36F8F82F31188BFF36F8F2D
:10293000002010BCFFF788BF28090020D80800201D
:10294000024AC3B21C2003FB00207047D8080020B5
:10295000F8B52849BFF35B8F0646012251E8003FD6
:1029600041E800200028F9D1BFF35B8F33B9224939
:1029700022484B60CB608A6004F070FC731E012B10
:102980001DD805F07BF90446D0B91D4B1B78BBB1AF
:102990004FF080430222C3F8082305464FF08047DA
:1029A000D7F81824D7F81834D20312D59B0701D0D2
:1029B000012E0ED1BCB185F31188BFF36F8FF8BD26
:1029C000EFF31185202383F31288BFF36F8F012467
:1029D000E4E71CB1284604F06AFEE1E7002121206B
:1029E00005F0E8F9DCE74FF080430222C3F8042346
:1029F000E5E700BFD4080020C4080020F408002048
:102A00007A0A00200D4BBFF35B8F012253E8001FB1
:102A1000002903D143E800200028F7D1BFF35B8FE2
:102A20000AD107490023CB60064B4B6003238B6020
:102A3000054B186804F012BC704700BF480900201D
:102A4000300900200D2B00002C09002007B50022C2
:102A50000023CDE9002308484FF40032002303F09F
:102A6000A7FC064B186804F050FC054B00221A60C6
:102A700003B05DF804FB00BF080100202C09002012
:102A800048090020F7B51C4E1C4CB7681C4DFB686C
:102A900040213046984740B1002323702B8001F03D
:102AA00099FC0123237003B0F0BD0C213B696A46F9
:102AB000304698470028EFD1124A019B93FBF2F36E
:102AC000009A217803EB82031BB2B5F9002000299C
:102AD000E4D09A1A002AB8BF524212B2012ADDDCB1
:102AE000094A1368013901332170136003B0BDE84E
:102AF000F040FFF7ABBF00BF30810000790A002033
:102B0000720A002090D003004009002008B5074851
:102B100005F02BF828B901F05DFC054B01221A7075
:102B200008BDBDE80840034802F0E2BD3081000066
:102B3000790A002038000020034B044A1860002363
:102B40001360034A136070472C09002044090020D9
:102B500040090020024B00221A70FFF753BF00BF4C
:102B6000790A0020014805F0BFB900BF0801002024
:102B7000024A136801331360FFF768BF440900205D
:102B800008B5074804F0F1FF38B10648FFF77CFDAF
:102B90000448FEF731F9002008BD6FF01200FBE792
:102BA000F0800000A92B00000A2838B5074D044624
:102BB00004D1AB680D215B6828469847AB68034891
:102BC0005B68E1B29847204638BD00BFF080000046
:102BD000430970B507D10B4B596821B101250C6829
:102BE000094E854001B970BD8A682A4002D04B6801
:102BF000304698471CB1236821461C46F2E723461D
:102C0000FAE700BF4C090020D08000002DE9F04316
:102C1000476840F20636D0063B7B87B002EA0606DC
:102C200054BFC2F34010032001F01F05B6F5837FA7
:102C3000144645EA43158DF8030042D00FD8062EFE
:102C400018D007D8B6B1022E3DD06FF0150007B0EE
:102C5000BDE8F083B6F5807FF7D101260AE040F2A7
:102C60000222964231D0B6F5407F30D0B6F5007FD3
:102C7000EBD1022622032CD57A6801238B40C2F8BF
:102C800008353B696BBB05F01F026D0976D19200D8
:102C900002F1A04284F48031D2F80037C1F3004140
:102CA000C4F3404423F4E16344EA410423F00703FE
:102CB0001C4344EA800444EA0624C2F8004700208A
:102CC000C5E70726D6E70426D4E70526D2E703267C
:102CD000D0E7630341BF01237A688B40C2F80C350B
:102CE000CFE710370DF102022946384601F0F2FD18
:102CF00014F4403F80460CD12946384604F0D2FEF9
:102D0000214B9845DBD19DF80210384601F022FE98
:102D1000D5E701AB4FF0000903AA29463846CDE9B3
:102D20000439CDE90199CDF80C9001F0A3FC164BC4
:102D300098428AD114F4003315D09DF803308DF8F1
:102D40000E3084F48034C4F300444B4603AA294671
:102D500038468DF80C608DF80D4001F03FFD0A4BB0
:102D60009842CDD071E7CDE9043303AA0DF10303F6
:102D700029463846039301F07DFCF0E702F5E07246
:102D800053F82230FFDE00BF0000AD0B38B54568B8
:102D90002B69B3B11035284601F0D2FD044680B945
:102DA0000146284601F0A8FD084B98420BD108497E
:102DB0002246284601F088FD224605210620FFF71D
:102DC00061FA002038BD6FF00400FBE70000AD0B96
:102DD000D12B0000F0B516464268107B01F01F04AD
:102DE00044EA4014106987B000286ED0B6F5001F81
:102DF00002F1100506D12146284604F055FE0020B8
:102E000007B0F0BD01A80027B6F5800F0197476015
:102E100038D1B3F1007F14BF052304238DF80430AB
:102E20000023CDE904030393936823FA01F111F021
:102E300001010DF103073AD1B6F1A07F37D104F0BB
:102E40001F03620903F5E07345D14FF0A04252F829
:102E50002330DB072BD43A462146284601F03AFDC1
:102E60001E4B984219D0029703AA2146284601F02A
:102E700001FC1B4B98422BD101222146284601F030
:102E800079FDBCE7B3F1C06F05D0B3F1007F14BF8B
:102E900001230223C2E70323C0E73946284601F095
:102EA00061FD0F4B9842DED06FF00B00A8E73A4669
:102EB0002146284601F00EFD094B9842D4D19DF8D9
:102EC0000310284601F046FDCEE76FF0850097E736
:102ED0006FF0150094E751F82330FFDE0400AD0BCE
:102EE0000000AD0B2DE9F04FDFF81CC1474F002566
:102EF00040F2FF16EBB2994202D80020BDE8F08FF5
:102F000050F8254014F4804FC4F3C32EC4F30803D3
:102F100066D1240E17F80E90B34208BF4FF0FF336E
:102F2000062C60D8DFE804F0040A114F14494F0062
:102F3000C2F80C355C1C49D10135DBE7C2F8143509
:102F40005C1CF9D00024A04612E0C2F80835F1E775
:102F50005C1CC2F80835EFD000245FEA531E45D14F
:102F60004FF001084FF0A04E08FA03FACEF80CA576
:102F700050F825B00BF4004EBEF1000F1CBF4FF00F
:102F80000008012403F01F0E5B0937D14FEA8E0EB3
:102F90000EF1A04ECBF3412BDEF800A74FEA092338
:102FA00043EA8B030AEA0C0A43EA0A0343EA0803EA
:102FB00043EA4403CEF80037BEE75C1CC2F80C3588
:102FC000BAD00124C9E7C2F81035B9E75C0911D1BC
:102FD00001244FF0A04E04FA03F8CEF80885B2E7BA
:102FE0006FF015008AE76FF0850087E70023C3F8CC
:102FF0000C35FFDE0023C3F80835FAE70EF5E07E56
:10300000002353F82E30F4E7F0F8FCFF388D000071
:10301000014B01221A60704700C000400C2903696F
:103020000BD15B6A064907484B4393FBF0F100FB69
:10303000113311605360002070476FF085007047B6
:1030400090D0030040420F00044B00690022C3F8F7
:103050000021D3F8003102F0B5B900BF00C0004034
:103060007FB50569AB6A63B3402901D00C292BD128
:1030700005F110064FF0FF324FF0FF33304602F0FB
:10308000D9F8134B0193A86A0323002469460394DB
:10309000029304F0E3F84FF0FF324FF0FF3328467D
:1030A00002F0C4F9A86A04F030F90A4BD3F80825F5
:1030B0006A6201225A60304602F034F9204604B0B8
:1030C00070BD6FF00A00FAE76FF08500F7E700BF08
:1030D0001130000000C0004010B504690020FFF767
:1030E0002FFCA0624FF0FF320021204604F085FD46
:1030F00004F1100004F07AFD002201210C20FFF7FA
:10310000C1F80C20FFF78EF8024B0122C3F804230C
:10311000002010BD00C00040074BD3F8082142B189
:103120000020C3F80801D3F80821D3F818350B7034
:1031300070474FF0FF30704700200040024BD3F83B
:103140008004C3F88004704700200040F8B50E46A4
:1031500004F094FD1A4D78BB64240127BFF35B8F04
:1031600055E8003F002B03D145E80072002AF7D153
:10317000BFF35B8F07D021200021013C04F01AFE31
:1031800014F0FF04EAD10F4C0023C4F81C31D4F82A
:103190001C310123A360C4F81C6542F21076D4F8F8
:1031A0001C3123B9012004F009FC013EF7D10123B1
:1031B000E36000232B60F8BD01232B60E3E700BF31
:1031C000840900200020004073B5594A436804690F
:1031D0000021C2F800151E68054601AA304604F019
:1031E00063FB0028C0F28180019B3268197918685E
:1031F000FFF778FE002878DB6379012B1CD1A379D7
:10320000032B19D1E379BBB9217911B1022913D16B
:103210000E212368B3F5164F69D02BD8B3F5165F8E
:1032200067D014D8B3F5966F65D008D8B3F5967FFC
:1032300064D0B3F5167F64D06FF0850055E0B3F528
:10324000166F61D0B3F5965FF6D13A4B39E0B3F51E
:10325000E14F5CD007D8B3F5615F5AD0B3F5964F14
:10326000EAD1354B2DE047F612229342E4D14FF4D8
:10327000000326E0B3F5613F4ED011D8B3F5963F79
:103280004CD008D84DF6C022934249D0B3F5614FD7
:10329000D2D12A4B15E0B3F5E13FCDD1284B10E058
:1032A000B3F5612F3FD007D8264A93423DD0B3F5FE
:1032B000E12FC1D1244B04E0244A9342BCD14FF00A
:1032C00080531B4A2D69C2F82435C2F86C1594E866
:1032D000030085E8030004230020C2F80035C2F88B
:1032E0000801D2F808310123136002B070BD184BF9
:1032F000E7E7184BE5E74FF49E23E2E74FF4A033EE
:10330000DFE74FF41C33DCE74FF41D23D9E7124B02
:10331000D7E74FF46C13D4E7104BD2E7104BD0E74C
:103320004FF46503CDE70F4BCBE74FF08063C8E761
:103330000020004000B0130000A04E0000F0EB00A1
:1033400000E0D70190D0030000705F0740420F00FB
:1033500000509D000050270000F0750000B0AF0342
:1033600000903A0100D0BE0E2DE9F04383B04568CD
:103370000669D5F8208000AF3A1D0021404604F0D0
:1033800093FA041E1ADB7B68D8F8002019791868B4
:10339000FFF7A8FD041E11DB696A481C1BD005F16C
:1033A000280000F0F7FA10F1130F04460BD1314A50
:1033B0003148012104F08BFA6FF0120420460C37DB
:1033C000BD46BDE8F083411D05D12C4A2A480121A4
:1033D00004F07DFAF2E7EB699847B5684FF0010811
:1033E000D6E9023203EBC2039D4204D3304604F017
:1033F0009CFA0024E2E7286804F0B7FB0346B0B962
:103400002A68297910686C468AB06A461C4DD161D9
:103410004FF4007111841B49C2E9055042F8101F96
:1034200015484FF41151FEF7B9F8A546C4E72868CE
:103430002979EB88D0F810C0D0F80890DCF800406B
:10344000DA0754BF43F4B01383F4D01323F480128B
:1034500008FA01FEDB074CBF44EA0E0424EA0E041E
:10346000CCF80040D9F800309847041EA6DB083598
:10347000B6E700BF668D000060830000918D0000FC
:10348000AE8D0000040000017FB505464068296943
:103490008A6C0B6D0ABBABB14C6C8B6516461A4639
:1034A000C96C0291CDE9004611B3002B18BF134639
:1034B00000226946039301F079FC0E4B98420AD032
:1034C0006FF004032C69236304F1200001F07AFFFC
:1034D000002384F85C3004B070BD4C6C13B19A4288
:1034E00028BF1A46002C8A6514BF16460026D7E767
:1034F0000B46DDE70000AD0B38B503780C4663B929
:103500008D6D5DB94B6D1C696FF07303236304F11E
:10351000200001F057FF84F85C5038BD8B6C33B14C
:103520009D4213D9224A2348012104F0D0F9236D8A
:10353000A26D33B19A4221D91D4A1E48012104F0DF
:10354000C6F9606DBDE83840FFF79EBF5B1B8B641A
:1035500073B94B6B08334B638B6B013B8B6301F18E
:10356000480204F13400383104F0B8F96064DEE751
:103570004B6C002BDBD02B444B64D8E79B1A2365A4
:103580007BB9E36B0833E363236C013B236404F1F1
:10359000500204F1400104F13C0004F09FF9E064A2
:1035A000CFE7E36C002BCCD01344E364C9E700BF42
:1035B000D28D0000608300002DE9F04F8BB000AF8A
:1035C000C7E9023243687B608B88046989469904A5
:1035D000804630D44FF0FF324FF0FF3304F110003B
:1035E00001F024FFC4F80490D8F810A0D8F804B073
:1035F0009AF85D3023B1DAF80030994500F0D780B1
:10360000B9F8046016F400631CD0B34AB348012132
:1036100004F05DF96FF0850523689B8813F400536F
:1036200004D1636004F1100001F0CCFE28462C3771
:10363000BD46BDE8F08FA369002BCBD163689945E7
:10364000C8D1D1E7F20716D56D4688B0D8F800107A
:103650006A46A348C2E905014FF400719183A1496C
:1036600042F8101F9D484FF4E251FDF797FFAD4619
:103670006FF01505D0E7350705D59B4A974801211E
:1036800004F025F9F4E7C6F34513082B01D0974A57
:10369000F4E7D9F80050964B9D4201D8954AEDE7E2
:1036A0000BF1080EBEE80F0007F1140CACE80F0098
:1036B000DEF80030CCF800308F4B9D4256D98F4B4E
:1036C0009D4256D98E4B9D4256D98E4B9D4256D91E
:1036D0008D4B9D4256D98D4B9D422CBF4FF00045DE
:1036E0004FF08045B007FD6106F004034DD5002B77
:1036F00014BF0323022387F82030C6F3001387F892
:103700002130DBF80030D3F80825511C12D016F018
:10371000020F02F01F00C6F340014FEA52124FF0B1
:10372000010336D1002A40F02E814FF0A0428340A1
:10373000C2F80C359AF85D302BB1584601F0FEFA0C
:1037400000238AF85D30724A534607F11401584647
:1037500001F0C0FA6F4A9042034623D06E4A5F4898
:10376000012103F0C1FE6FF0040555E74FF000752D
:10377000B8E74FF08065B5E74FF00065B2E74FF06E
:103780008055AFE74FF00055ACE7003B18BF012371
:10379000B1E7002A40F0FA804FF0A0428340C2F81F
:1037A0000835C7E701238AF85D30CAF80090012385
:1037B00084F85C307B68596A4A1C0AD003F12800FF
:1037C00000F018F9743004D1544A4448022104F03E
:1037D0007EF8FB68002B76D163630023A36304F1BA
:1037E000480204F1380104F1340004F077F8BB68B2
:1037F0006064002B40F09680E3630023236404F1AF
:10380000500204F1400104F13C0004F067F8E06468
:1038100020680023236348B183683BB1012108304D
:1038200004F06FF82368186904F09AF94046FFF72E
:103830002BFE0023A06B1A4682427CD10022256C0D
:103840001146A9427ED19342264638BF13464FF413
:10385000FA5202FB03F556F8203B4FF4004C1B686C
:10386000B5FBF3F540F2E730C83500214FF47A722A
:103870000023E5FB0C01FCF731FC02460B46304609
:1038800001F0D4FD002864D0254A1448012104F039
:103890001EF84FF000097868C4F8589001F04EFA0D
:1038A00084F85D90D8F810506FF07308C5F8308038
:1038B00005F1200001F086FD85F85C90304601F0AE
:1038C000DBFD454649E0FB681B686363002B84D041
:1038D000FB685B6882E700BFF08D0000608300003A
:1038E0000A8E0000030000012C8E00004B8E0000A9
:1038F00047E801007A8E00008FD003001FA1070067
:103900003F420F007F841E00FF083D0000127A0036
:10391000F93400000000AD0BAB8E0000D28E000029
:10392000FC8E0000BB681B68E363002B3FF465AFAF
:10393000BB685B6862E7616B01EBC20101324968F9
:103940000B4479E7E06B00EBC100013140680244B1
:1039500077E7256B15F1740F9BD02368002B3FF49C
:103960005BAE9A68002A3FF457AE998811F48056EE
:103970007FF452AE186904F0F3F82068314608303D
:1039800003F0BFFF48E6C1F80C15FFDE0023C3F8C3
:103990000835FAE7F0B587B001238DF8023002232D
:1039A0008DF804306B4403930F4601AB0DF1030116
:1039B0000024049305460291059400F0D3FF0C4BBC
:1039C000984206460FD103AA3946284600F052FE17
:1039D000B0420BD09DF80310284600F0BBFF6FF0FB
:1039E000040007B0F0BD6FF01200FAE72046F8E7D8
:1039F0000000AD0B2DE9F0410D46064604F056F8E7
:103A0000002207462946304600F0B4FF6B0905F056
:103A10001F0429D1A40004F1A044164BD4F80027B8
:103A2000134043F00C03C4F8003703F0B4FF8046A2
:103A30003368DB597BB100273046294604F034F85F
:103A4000D4F800270B4B134043F00403C4F80037AD
:103A50003846BDE8F08103F09EFFA0EB0800062881
:103A6000E6D96FF07307E7E704F5E074002353F835
:103A70002430FFDEF0F8FCFF70B5012383400E4ACE
:103A8000BFF35B8FDC4352E8001F01EA040542E804
:103A90000056002EF7D1BFF35B8F4FF48032824087
:103AA0000648C0F80823BFF35F8FBFF36F8F0B4248
:103AB00014BF0120002070BD8C09002000100140BF
:103AC00070B40E49D1E90034D01AC31844F100048F
:103AD00022F07F46C1E90034A6F50013B3F5400F8C
:103AE00009D2074B1B681A0A1B069C19054B42F1A9
:103AF0000005C3E9004570BC02F072BB200600203F
:103B0000900900202806002011B3BFF35B8F01232A
:103B1000104A834052E800CF4CEA030C42E800C14F
:103B20000029F7D1BFF35B8F0B4A4FF480338340FA
:103B3000C2F80433094BBFF35B8F1B68BFF35B8F85
:103B4000C340DB0742BF064B4FF40032C3F80021ED
:103B5000704700BF8C090020001001408809002038
:103B600000E100E00D4B1868010A0006BFF35F8F0B
:103B70000B4BD3F80435181841F10001B3F5801F41
:103B80000AD2084BD3E90023904271EB030303D21E
:103B900010F1807041F10001704700BF90090020D2
:103BA00000100140280600202DE9F04F85B0164690
:103BB0001F469DF840A00446FFF75EFF0190FFF707
:103BC000D1FFB04271EB070354D23E4B301A67EB82
:103BD0000101984271F100014FD23B4B03EB0413FA
:103BE000D3E902239F4208BF96425ED037494FF483
:103BF000803804F1500508FA04F8AD00C1F8488394
:103C00002046ADB203F0BBFE26F07F4B05F18045A8
:103C100004F5A87305F58835DC464FF003090293D7
:103C2000029A2CF07F4341F82230C1F84483D1F846
:103C30000435274A6FF00200C01A604420F07F402C
:103C4000904232D9286868B1D1F804350393A3EBC8
:103C50000B0020F07F40B0F5000F26D9204603F07E
:103C60008EFE039BBAF1000F07D109EB030C09F19B
:103C70000109D5E7BAF1000F09D06FF0150520460C
:103C80000199FFF741FF284605B0BDE8F08F0123F9
:103C9000104ABFF35B8FA34052E8000F184342E87D
:103CA00000010029F8D1BFF35B8F07490E9823016B
:103CB00001EB0412C8500F9B5360C2E90267002554
:103CC000DDE700BF01008000100600200010014069
:103CD000FDFF7F00880900207FB51C4C1C4BC4F8F9
:103CE0000833C4F848331B4B00254FF0FF304FF02A
:103CF000FF31C4F80855C3E902014FF48033C4F81A
:103D00000433154B02264FF400320121C4F804633A
:103D10001120C3F880212A46FEF7B4FA1120FEF7DD
:103D200081FA0E4A0123A360236013600C4B0D4AF5
:103D30000093CDE9015500232846FFF735FF3046B3
:103D4000FEF706FE284604B070BD00BF001001401B
:103D500003000F001006002000E100E08C090020A5
:103D6000C13A0000FFFF7F002DE9F7432F4CD4F844
:103D7000043399070BD5D4F8043143B12C4A0023FE
:103D8000C4F80431D4F80431136801331360D4F853
:103D90000433DA0329D5BFF35B8F264B53E8002F9A
:103DA00022F0010143E800100028F7D1BFF35B8F38
:103DB000D30702D4D4F84031BBB10025C4F8405138
:103DC000D4F84031FFF7CEFEEFF31182202383F3C6
:103DD0001288BFF36F8F184BD3E90267B042B94125
:103DE00006D282F31188BFF36F8F03B0BDE8F08372
:103DF0004FF0FF384FF0FF39C3E90289D3E90010D3
:103E00001D604FF48033C4F84833C4F84051D4F8EF
:103E1000403182F31188BFF36F8F0029E5D0009005
:103E200032463B4628468847DFE700BF0010014086
:103E300090090020880900201006002030B5431C9E
:103E4000124C85B005D08442A8BF0446012CB8BFEF
:103E50000124FFF787FE0E4B0C4DD3E90013401AE7
:103E6000B0F5000F10D22218AA4228BF2A465218D5
:103E70004FF0000007490091CDE9010043F1000334
:103E8000FFF792FE05B030BD2A46F0E7FFFF7F0046
:103E900020060020C13A000008B5FFF763FE024B80
:103EA0001B68C01A08BD00BF200600204FF07043F9
:103EB00093F8E02F062A09D1D3F8E83FC3F30313A0
:103EC000033B042B02D8024AD05C704700207047A5
:103ED0004B8F0000024AD2F80034002BFBD0704711
:103EE00000E0014010B503F05AFD40B14FF080539F
:103EF0008E4AD3F82433C3F30423C2F84035FFF7C6
:103F0000D5FF10B18A4B8B4A5A6703F048FD48B180
:103F10004FF080534FF08042D3F84432C3F3423322
:103F2000C2F83C35FFF7C2FF30B1834AD2F8FC300B
:103F300023F08073C2F8FC3003F031FD40B14FF044
:103F400080430022C3F80C21C3F81021C3F83825A0
:103F5000FFF7ACFF20B14FF080430322C3F8A02548
:103F6000FFF7A4FF60B1754B0522C3F810260122AC
:103F7000C3F888260022C3F818263F22C3F8142667
:103F80004FF08053D3F83021511C09BF4FF07043DC
:103F9000D3F8343193F8E02FD3F8E83F08BFC3F3E8
:103FA0000313062A4DD1033B042B03D8644AD35C88
:103FB000002B46D04FF08052624BD2F80414C3F865
:103FC0002015D2F80814C3F82415D2F80C14C3F83D
:103FD0002815D2F81014C3F82C15D2F81414C3F80D
:103FE0003015D2F81814C3F83415D2F81C14C3F8DD
:103FF0004015D2F82014C3F84415D2F82414C3F89D
:104000004815D2F82814C3F84C15D2F82C14C3F86C
:104010005015D2F83014C3F85415D2F83414C3F83C
:104020006015D2F83814C3F86415D2F83C14C3F8FC
:104030006815D2F84014C3F86C15D2F84424C3F8BC
:10404000702503F0ACFC48B14FF080534FF0804234
:10405000D3F8583203F04F03C2F8E43E03F09FFC5C
:1040600048B14FF08043D3F80024D20744BF6FF02B
:104070000102C3F800244FF08053D3F83021062A00
:1040800026D1D3F83431033B042B02D82E4AD35C1B
:1040900063B12E4AD2F83C3743F48063C2F83C3710
:1040A0004FF08053D3F83031062B11D14FF08053AD
:1040B000D3F83431033B042B02D8254AD35C3BB1FF
:1040C0004FF01023D3F808224FF08043C3F858254F
:1040D0004FF01023D3F80022002A03DBD3F8043278
:1040E000002B22DA1B4901234FF01020C1F80435C0
:1040F0001524FFF7EFFEC0F80042FFF7EBFEC0F813
:104100000442FFF7E7FE0023C1F80435FFF7E2FEA3
:10411000BFF34F8F0849104BCA6802F4E0621343A3
:10412000CB60BFF34F8F00BFFDE710BD00300140F3
:1041300000C007400DF0ADBA00ED00E000500040B7
:10414000468F000000C00040418F0000001000407A
:104150003C8F000000E001400400FA0530B504681F
:10416000CCB1BFF35B8FB4FA84F3C3F11F03DBB2AE
:1041700001229A4024EA020250E8005FA54204D1DD
:1041800040E8002CBCF1000FF6D1BFF35B8FE6D105
:1041900002480B7030BD0248FCE700BF0000AD0BC9
:1041A0000200AD0B10B50368CB40DB0714D401232C
:1041B0008B400268BFF35B8F43EA020150E8004F77
:1041C000944204D140E8001CBCF1000FF6D1BFF3CB
:1041D0005B8FEED1014810BD0148FCE70000AD0B3C
:1041E0000400AD0BF7B50546F8B101281BD1042238
:1041F0004FF4807301464FF0804003440244C0F8FE
:1042000008130026012111601E608D421B688DF885
:10421000071008BF0DF1070642F210744FF08047F7
:1042200045B1012D29D003B0F0BD0C224FF48273AB
:104230000221E0E7D7F8183403F4803366B9002B85
:10424000F1D0012003F0BAFB013CF3D1EBE703F01E
:10425000B5FB013CE4D1E6E7D7F8182402F00302ED
:104260003260002BDFD09DF807000128EFD0012D30
:10427000D9D10C4B00225A71D5E7D7F80C3403F48E
:1042800080333EB9002BF4D0012003F097FB013CB2
:10429000F3D1C8E7D7F80C2402F001023270002BEA
:1042A000E1D1E6E794090020054B1A792AB99A7101
:1042B000012218609A80034870470348704700BF86
:1042C000940900200000AD0B0C00AD0B08B5074BA6
:1042D0001B682BB10020FDF7C7FF08B9FDF7A2FF4F
:1042E0004FF080430022C3F8182508BD9409002030
:1042F00038B5B0B1012851D14FF080420023C2F847
:104300000031D2F800212E4A03F1804301211960C7
:104310002C4B1B68002B4CD04FF08043C3F8040398
:104320003CE04FF08043D3F81814D3F81824CC03A2
:1043300026D5900702D00020FFF754FF4FF08043AE
:104340000022C3F81825C3F804211F4AD3F804310A
:10435000D2F8FC0040F08073C2F8FC301B4B1C68A4
:1043600044F0010119605D685968491BB1F50A5FA5
:10437000FAD31C60C2F8FC000823154A0220C3E7E8
:10438000D3F81424D107D9D5D3F81C249207D2D15D
:104390000C4A12681AB10222C3F8042338BDD3F8BC
:1043A0000421002AFBD00022C3F80421D3F80431F1
:1043B000F4E71368002BFCD0002313601368EDE7CB
:1043C000000100409409002000ED00E0001000E032
:1043D000040100404FF08043D3F80C14D3F80C24B0
:1043E000C80325D5D10723D5D3F81824D2031FD568
:1043F000114A917901F0FF00E1B9C3F80C01D3F83B
:104400000C11022001219171C3F8340C196112685A
:1044100022B10822C3F8042308487047D3F80C21BE
:10442000002AFBD00022C3F80C21D3F80C31F3E7AB
:104430000348704703487047940900200000AD0B03
:104440000500AD0B0B00AD0BF8B54FF08043184DD8
:10445000D3F804430127002604B9F8BDB4FA84F068
:10446000C0F11F00830003F580739BB203F180430A
:1044700007FA00F21968D2B224EA02040029EBD04C
:104480001E601B684FF08043012AC3F8082305D043
:10449000082A08D02B68C0B29847DDE76B79002B5B
:1044A000DAD16A71F6E7C3F8346CAE71F2E700BF97
:1044B0009409002070B5C3B20C4C0833054634F89B
:1044C0001330DA050E4607D5C3F3432304EBC302CA
:1044D00054F8333052689847A3682BB1E2683146EC
:1044E0002846BDE87040184770BD00BF9C090020F9
:1044F00010B4C0B2114A083032F81030D9051BD5BB
:10450000C3F3432123F4F85322F8103002F10E04D0
:10451000002034F8023F13F4807F03D0C3F3432319
:10452000994209D001302028F3D1002342F83130DC
:10453000034810BCFFF736BE10BC70479C09002032
:10454000F409002001F18051F0B501F5C251044693
:10455000114A00208900012506468A420BD10F4BE3
:10456000D3F87C2132B10022C3F87C21D3F87C310E
:1045700040F00040F0BD02F14043A3F5C2439B0868
:1045800005FA03F31C4204D0176817B116601768C8
:1045900018430432E1E700BF0061004000600040C2
:1045A000C0B2064B083033F81000830643BF400BFF
:1045B000800000F580704FF4BE7070479C090020A9
:1045C000CBB20246083308460C4931F8133099063D
:1045D00011D599070FD410685B0B01219940C0F8E1
:1045E0000813126802EB8303D3F8102522F00302AC
:1045F000C3F810257047002103F037BA9C0900204A
:10460000F7B5CDB2174E0835074636F81530DB073B
:104610000C4624D5FFF7D4FF36F815309A0606D598
:104620005B0B3A6803F5A273002142F82310204681
:10463000FFF75EFF002301A826F81530019403F070
:10464000C1F9019B00EB8300074BD0F80027134012
:1046500043F00203C0F80037044803B0F0BD04483B
:10466000FBE700BF9C090020F0F8FCFF0000AD0B49
:104670000400AD0B2DE9FF41136807460C461646B2
:10468000FBB1CDB2DFF84481083538F8152002F0CF
:104690002202222A22D00022CDE900228DF80E200B
:1046A0008DF80F200DF10E010DF10F02204603F0E1
:1046B00093F938F8153023F0020343F0010328F88A
:1046C000153073684BB393F800C058683F4AE3B2A3
:1046D000083332F813108D0702D5B0B13C481FE003
:1046E00021F02001C904C90C22F8131068B1BCF1F3
:1046F000030FF3D87068406805783868BCF1000F84
:1047000011D105F5A27540F825C032F8131021F03B
:104710001C0141EA8C0122F81310B36863BB2D48D9
:1047200004B0BDE8F08100EB850041EA4531D0F8E6
:1047300010E52EF0030EC0F810E53F6807EB850783
:1047400041F02001D7F8100522F8131020F447306B
:1047500020F44070C7F810052002D7F810E500F4E7
:10476000F85040EA0C4040EA0E00C7F8100502EB92
:104770004500A0F85C40C8E7D3E900672046FFF792
:10478000B7FE002ECBD0114DD5E90023964203D1C0
:104790009F4201D1002209E00F480DF10F01FFF700
:1047A000DDFC0C4B9842BBD19DF80F2045F83260E0
:1047B000E4B205EBC20308345F6035F8143043EA15
:1047C000422343F4807325F81430A8E79C090020A5
:1047D0000400AD0B0000AD0BF40900202DE9FF41F2
:1047E00007460C461E4612B3CDB2DFF8D08008351E
:1047F00038F81530980701D4990621D413F01C0F0E
:1048000002D05378012B1BD001238DF80F300023E9
:10481000CDE900230DF10F01931C2046013203F076
:10482000DBF838F8153043F0030328F81530002E74
:1048300042D0E1B2214D083135F81120930703D45D
:104840001F4804B0BDE8F08196F800E0D7F800C03A
:1048500022F020020EF5A270D2040023D20C4CF8F4
:10486000203025F8112096F801C0BCF1000F23D0AC
:104870003868B67800EB8E004FEA0C4CD0F8103553
:1048800023F4981323F4F853C0F81035230203F4EB
:10489000F8530CF4403C3605D0F8107543EA0C038D
:1048A00006F4801642EA4E32334342F020023B4384
:1048B00025F81120C0F810350248C2E79C090020F5
:1048C0000400AD0B0000AD0B014BC3E902127047B1
:1048D0009C090020C9B20831044B33F81130990605
:1048E00043BF5B0B02481370024870479C090020CD
:1048F0000000AD0B0400AD0B70B50E4C94F86C507D
:104900000646A5B94022294604F1100003F016FB23
:104910003068C0F87C51D0F87C3140F30730FDF7A7
:1049200081FC0123044884F86C30A36570BD034802
:10493000FCE700BF9C0900200000AD0B0C00AD0B94
:10494000034B93F86C00003818BF0120704700BF7C
:104950009C0900200079024B03EB8000FFF722BC8A
:10496000B00000200079024B03EB8000FFF7F6BB9C
:10497000B000002073B5CBB20C460833214931F8A2
:10498000133001689D0619D513F0020616D15B0B92
:104990009C0004F580754E51495901682144D1F8B5
:1049A000104544F00104C1F810452AB10168012204
:1049B00002FA03F3C1F8043302B070BDD1F8042346
:1049C000002AA8BF4FF00042C3F38203A8BFC1F87A
:1049D0000423042B12D0052B12D001A8019402F05D
:1049E000F1FF019AD0F81035D34003F00103991C70
:1049F000204602B0BDE8704003F037B80321F7E766
:104A00000221F5E79C0900202DE9F347514BD3F82B
:104A10000403C0B2082140F00040FFF793FD051EDB
:104A200016DA002301216846009303F02DF8DFF821
:104A300028810127009999B94FF00040FFF782FDC6
:104A40000121684603F020F80028F3D125F0004545
:104A5000404E414F0124002D66D102B0BDE8F087E1
:104A600091FAA1F4B4FA84F4E00804F1080304F024
:104A7000070238F813901DF80030019407FA02F28B
:104A800023EA02030DF8003001A802F09BFF019B0E
:104A900003F5E0734FEA990150F82360C9F3820AE5
:104AA0004B07D146C6F3014623D520465146FFF7B2
:104AB00001FD01A8019402F085FF019B03F5E0735D
:104AC000F6B250F82330C3F301439E4207D10021D0
:104AD000204602F0CAFF3146204602F0C6FF01A878
:104AE000019402F06FFF019B07FA03F3C0F8203531
:104AF000A0E7022E0CD10321204602F0B6FF0AF0F7
:104B00000503012BEBD149462046FFF7D3FCE6E72E
:104B10000221204602F0A9FFBAF1030FF3D0032EC1
:104B2000DDD1BAF1020FEDE795FAA5F3B3FA83F3FD
:104B300004FA03F225EA020503F5A27207EB430328
:104B400056F82210B3F85C00C1F30141FFF7B2FC44
:104B500081E700BF006000409C09002007B501907C
:104B600001A802F0A6FF019B00EB8300054BD0F8E3
:104B70000027134043F00303C0F8003703B05DF88B
:104B800004FB00BFF0F8FCFF73B5CB7B0446002BA1
:104B900038D10B7B0878012B77D802F0A1FF0B7876
:104BA000019301A802F085FF019B00EB83003C4BC1
:104BB000D0F80027134043F00103C0F800374878CD
:104BC000FF2804D002F08CFF4878FFF7C7FF8B78EE
:104BD000FF2B0FD001A88D7B019302F06AFF019B90
:104BE00000EB83002E4BD0F80027134043EA8503E7
:104BF000C0F80037C878FF2804D002F064FFC878F6
:104C0000FFF7ACFF23792748CA78282505FB030363
:104C10009A770B7C9BB94B7825680E78FF2B18BFD1
:104C20001A468B78C5F8086508BF4FF0FF32FF2B96
:104C300008BF4FF0FF33C5F80C25C5F810352368C1
:104C40008A68C3F824254B7B0A7B2568003B18BF84
:104C50000123022A1CD0032A1DD0012A01D143F0CE
:104C60000203C5F8543523794979282202FB03034E
:104C7000D97723795343C35883B1206840F3073071
:104C800002B0BDE87040FDF7CDBA02F01CFF86E728
:104C900043F00403E5E743F00603E2E702B070BD2A
:104CA000F0F8FCFF0C0A002007B5019001A802F003
:104CB00000FF019B00EB8300054BD0F80027134059
:104CC00043F00203C0F8003703B05DF804FB00BFF7
:104CD000F0F8FCFF2DE9F04190F80480144C4FF0FF
:104CE000280C0CFB08FC04EB0C06074696F81CE0AD
:104CF000BEF1000F19D144F80C20736041B1CB7B99
:104D000086F82530CB78B3774B79F377FFF73CFF04
:104D10003A6808480123C2F80035282202FB0844FB
:104D2000002262772377BDE8F0810348FBE700BFEC
:104D30000C0A00200000AD0B0C00AD0B70B506791D
:104D4000194C056828237343E35833B145F3073002
:104D5000FDF776FA0423C5F808330023C5F80035BB
:104D6000282303FB064393F82530BBB9D5F8080583
:104D7000FFF79AFFD5F81005421C01D0FFF794FF0A
:104D8000D5F80C05431C01D0FFF78EFF282303FB49
:104D90000643987FFF2801D0FFF786FF282303FBF7
:104DA00006440023237770BD0C0A00202DE9F84348
:104DB0000779394C28237B439046E2180E46517FF1
:104DC0008146002966D1E3580BB10123537796E859
:104DD0000F00282505FB074505F10C0C8CE80F009A
:104DE000A87F0023FF2885F8243001D002F078FE48
:104DF0002823B8F1000F06D003FB07430022274801
:104E00005A77BDE8F883D9F8005003FB0743042222
:104E1000C5F80823C3F82080C5F80881D5F8082113
:104E200072689AB133681B78C5F81C357368012B1A
:104E30000ED933685B78C5F81C3528237B43E658C8
:104E400076B10423C5F804331548DAE7DB7FEBE7D6
:104E5000F368012BF1D9282303FB0743DB7FEAE743
:104E600007EB870104EBC101D5F80831002BFBD01B
:104E7000C5F808612846D5F8083102F03EFE002842
:104E8000F2D1282303FB0744A07FFF28DCD002F0E7
:104E90001AFED9E70348B4E70C0A00200300AD0B63
:104EA0000000AD0B0B00AD0B10B54FF04020002300
:104EB000C0F808310A49D0F8083102F01EFE68B97E
:104EC000887FFF2801D002F0FEFD00234B770B7294
:104ED000BDE81040D1E900310248184710BD00BFBD
:104EE0000C0A0020140A002010B50446FCF786FACC
:104EF0000348044A012102F0EEFA204602F040FE87
:104F000050830000508F00002DE9F843044600AFA5
:104F10000D46EFF31188202383F31288BFF36F8FC0
:104F20000428294A98BF294B9668117C94BF53F8EE
:104F30002030274BE9468AB06A462648C2E9073145
:104F400040F201339384244BC2E9050442F8103F38
:104F5000224800234FF43151FCF720FBCD4645B1E8
:104F6000EB69C3F3080323B11D4A1C48012102F079
:104F7000B2FA2EB1304602F08AFE08B1037803B9C6
:104F80001848E9468AB06A46174BD061C2E905362F
:104F900040F201331384154B42F8103F00230F48B1
:104FA0004FF41151FCF7FAFA2946CD462046FFF797
:104FB0009BFF88F31188BFF36F8F3046FDF7E0F851
:104FC000BD46BDE8F88300BF340A0020F08400002D
:104FD0005F8F0000758F0000050000015083000006
:104FE0009D8F00006D8F0000BE8F00000400000147
:104FF00038B50A4B53F82040013053F82050A542F1
:1050000000D838BD606830B1037FDB0701D402F0FF
:10501000BFFD0834F3E723689847FAE704850000EA
:1050200070B52A4B2A4C2B4D012286B003201A70F2
:10503000FFF7DEFFFCF776FD0420FFF7D9FF2646D9
:10504000AE4204F1300410D300F0A2FD204C224EF9
:10505000AC4226D300F0B0FDFBF7B8F91F4A137B32
:1050600023F00103137306B070BD54F80C3C059394
:1050700054F8103C049354F8143C039354F8183C2F
:10508000029354F81C3C019354F8203C009354E9DB
:105090000A2354E90C0100F071FB54F8303C5E65C2
:1050A000CDE7D4E90A23B3F1FF3F08BFB2F1FF3FD8
:1050B00005D052EA0301206803D100F057FE3034D6
:1050C000C6E73146183000F0F9FFF8E77A0A002009
:1050D0008882000088820000817D0000B0060020E8
:1050E00008B50348034A0021121A02F068FD08BD02
:1050F000500100207C0A002070B5002386B00122F8
:10510000CDE90423114E124D01930F22CDE9023255
:105110001049142303FB005506EBC0164FF4A07290
:10512000044602FB00110C4B0095304600F026FBB4
:10513000737B2C7423F004037373084BEE6001340B
:1051400003EBC4236B6006B070BD00BF30060020C7
:10515000340A002080150020C77B0000800D00204D
:10516000BFB50020FFF744FF2A4B83F308882A4C81
:105170002A4F636943F4007363610025E02384F8D8
:105180002230E57725766576A57684F82050636A27
:1051900043F4E023636284F82350FCF76DFFFDF7CE
:1051A000E3F84FF0FF33A362E362FDF78BF9FDF7FD
:1051B000FFF8FCF77FF81A481A4C00F049FB02F0A0
:1051C000D3FC0120FFF714FF0220FFF711FF00F0CE
:1051D00027FD154B15495C61154B05930123CDE95E
:1051E00003534FF480623B46CDE9015500952046BC
:1051F00000F0C4FA627B064622F004022046627385
:1052000002F081FD2846FFF777FF3A4631462046F7
:10521000FDF78EF88015002000ED00E02150000021
:1052200030070020B0060020340A0020C0160020FD
:10523000528500002DE9F341044617461E46EFF360
:105240001188202383F31288BFF36F8FC368334A1A
:105250007BB180689168884219D057EA060318D15B
:1052600088F31188BFF36F8F6FF00F0002B0BDE8B5
:10527000F081916891F90E1021610133E360936828
:10528000A36088F31188BFF36F8F0020EEE72169D8
:10529000F2E791F90E1090F90E309942A8BF194625
:1052A0006FF07E029142B8BF11468B422DDD02F0B5
:1052B00095FC0546CDE9007619482246414600F0A6
:1052C000ADFB0028E1D0EFF31186202383F3128891
:1052D000BFF36F8FA068D0B1236821699C420AD0C8
:1052E0004BB193F90E309942A8BF19466FF07E0377
:1052F0009942B8BF194602F071FC40B108483146E6
:1053000000F020FC6FF00A00B0E70025D2E7002D86
:10531000F4D186F31188BFF36F8FF3E7340A0020CE
:105320007B0A0020F8B583680546002B3FD0234A4E
:10533000926893423ED1C368012B03D9013BC360FD
:105340000020F8BDEFF31187202383F31288BFF309
:105350006F8F0169806802F041FC2C68AC4207D174
:105360000023C5E9023387F31188BFF36F8FE7E7A6
:10537000002CF5D0D4E9003213605A60637B00261C
:1053800023F002036373C4E90066A66004F1180009
:1053900002F070FDAC6094F90E302B612046A667D8
:1053A00002F0B1FC0648394600F0CCFBC8E76FF0CC
:1053B0001500C6E74FF0FF30C3E700BF340A0020F6
:1053C0007B0A002070B5EFF31186202383F3128847
:1053D000BFF36F8F0468A0421AD0CCB1D4E9003279
:1053E00013605A60637B002523F002036373C4E9F2
:1053F0000055A56004F1180002F03CFD2046A567A9
:1054000002F081FC31460848BDE8704000F09ABBCC
:10541000D0E902329A4218BF0133836086F31188C3
:10542000BFF36F8F70BD00BF7B0A002013B5EFF391
:105430001181202484F31288BFF36F8F846844B1F4
:10544000013C846081F31188BFF36F8F002002B0AC
:1054500010BD52EA030406D181F31188BFF36F8FA8
:105460006FF00F00F3E7CDE900230246014800F09A
:10547000D5FAECE77B0A00202DE9F0410546EFF371
:105480001187202383F31288BFF36F8F00231E46FA
:105490006FF00A082C68A54216D0ACB1D4E90032EE
:1054A00013605A60637BA66023F002036373C4E950
:1054B000006604F1180002F0DDFCC4F87880204694
:1054C00002F021FC0123E5E70022AA602BB1394656
:1054D0000548BDE8F04100F035BB87F31188BFF304
:1054E0006F8FBDE8F08100BF7B0A00202DE9FF41EE
:1054F0004F4E04462027EFF3118887F31288BFF33D
:105500006F8FD4F88450F5B9022104F19C0002F0A9
:1055100080FB002868D004F1940500220121284670
:1055200002F06FFC0028F8D1002302934FF0FF3205
:105530004FF0FF33CDE90023414604F18C023D4892
:1055400000F0DAFCD7E7D4F888202B68C4F8843060
:10555000954208BFC4F88830D4F89C3043F0020369
:10556000C4F89C30EB6823F0040343F00103EB60C4
:105570006B6888F31188BFF36F8F28469847EFF365
:10558000118887F31288BFF36F8FEB68D80623F07A
:10559000010236D4EA60EB689A0716D5306823F02A
:1055A0000203EB6088B10368002170B14268954244
:1055B00035D1036869BB72683360824200D1736081
:1055C000002340F8083BFFF7FDFED4F89C3023F0A1
:1055D0000203C4F89C3088F31188BFF36F8FDB059A
:1055E00089D400F025FB86E7D4F89C30D9069BD5FA
:1055F000C4F89C0088F31188BFF36F8F04B0BDE836
:10560000F08123F01103EB6005F11000FFF7DAFEE3
:10561000C1E70B607368834208BF7160D0E723B1B4
:105620001A68014618461346BFE71A46F9E700BF55
:10563000540A00207B0A0020F8B5C3689A07044684
:105640000F46C3F340062ED45B071CD40B680BB97E
:1056500083680B60E368DD0744BFA3683B603D6877
:105660004CBF02260126002D3CD0204B9A68D5F86D
:1056700080309A420AD0D5F89C30D807C3F3800214
:1056800014D46FF0120600233B6025E002F0F6FA16
:10569000D5F89C300028F0D1D907C3F3C002F0D56B
:1056A00052B15B0708D46FF00F06ECE7002AFAD17D
:1056B000C3F3C003002BF6D100232360D5F8883054
:1056C00063B9C5E92144284602F0AEFAE36843F025
:1056D0000403E3603B68A3603046F8BD1C60C5F876
:1056E0008840F0E76FF01506CDE700BF340A0020D0
:1056F0000146014802F0B2BAD0070020F0B589B0E7
:1057000004460020C4E921000E9D04F18C00C4E988
:10571000230004F19400C4E9250055B3287900283A
:1057200040F2011008BF0120C4F89C0000204FF097
:10573000FF364FF0FF37CDE90330CDE90100CDE969
:1057400006670D4B0094204600F056F855B12968C5
:1057500011B1204602F098FA6B791BB1237B43F01C
:1057600001032373204600F001FBC4F8804009B018
:10577000F0BD0120D8E700BFED5400002DE9F04353
:1057800085B0984600F158030732C0E91633109BE4
:10579000037322F0070504230026437301EB050978
:1057A0000F9B83730F46C0E9066649468660C67341
:1057B0000446FCF725FA07300E9B20F00700A06690
:1057C000C4E9187502930D9B0193A9EB00090C9B8A
:1057D00000934A46434639462046FCF78DFD054B6B
:1057E00066659B6803B1DB6EE366484605B0BDE8BD
:1057F000F08300BF340A0020F0B587B0002505957E
:10580000109D04950F9D03950E9D0295DDE912767E
:105810000D9D01950C9D00950446FFF7AFFFB6F175
:10582000FF3F08BFB7F1FF3F05D056EA070305D198
:10583000204600F09BFA204607B0F0BD3A463346BA
:1058400004F11800014900F039FCF4E7817D000003
:1058500040F2011383810023C0E91833C366014B72
:1058600098607047340A0020094A93686FF00A0173
:105870009967084958674B6843F080534B60002391
:1058800083F31188BFF36F8F9368986F704700BFE1
:10589000340A002000ED00E070B590F90D20437B44
:1058A000002A36DBD90634D11B4C63F07F03224635
:1058B000437352F8183FE169934207D1C0E90021D0
:1058C0000860E06111E09942F8D01B68002BF5D028
:1058D00090F90E5093F90E60B542F4D0AE42F2DD6D
:1058E0005968C0E9003108605860A569954200D048
:1058F00005B9E568A3685A7BD20604D1DA897F2A04
:1059000001D9AA6932B1AB4202D0284600F034FB7B
:10591000656170BD6361FCE7340A002038B590F919
:105920000D20437B002A014604DA03F07F03437312
:1059300002F0AFF90D4D2A46AB6852F8184F944269
:1059400000D004B9EC688B4207D05A7BD20604D150
:10595000DA897F2A01D9A2692AB1A34202D020465E
:1059600000F00AFB23466B6138BD00BF340A0020FB
:10597000B3F1FF3F08BFB2F1FF3F03D00249183037
:1059800000F09CBB704700BF817D000070B590F9AE
:105990000D20437B002A014604DA03F07F034373A2
:1059A00002F077F94B7B1C4C63F07F0322464B736C
:1059B00052F8183FE069934207D1C1E90020016025
:1059C000E16111E09842F8D01B68002BF5D091F905
:1059D0000E5093F90E60B542F4D0AE42F2DD586835
:1059E000C1E9003001605960A569A368954200D003
:1059F00005B9E5688B4207D05A7BD20604D1DA8913
:105A00007F2A01D9AA692AB1AB4202D0284600F008
:105A1000B3FA2B46636170BD340A0020F8B50E4B13
:105A20000C4611460D4A98681060DDE90667EFF3F1
:105A30001182202282F31288BFF36F8F9D6828465F
:105A400002F039F9284632463B46FFF791FF2046DF
:105A5000BDE8F840FFF708BF340A00205C0A0020C8
:105A6000F8B50446EFF31187202383F31288BFF3C0
:105A70006F8F437B03F01F02002A0CBF0126002614
:105A800049B239D103F07F03437302F002F92C4D80
:105A9000437B817363F07F032A46437352F8183FB8
:105AA000934227D1E869C4E900200460EC610FE06B
:105AB0009842F8D01B68002BF5D093F90EC06145D1
:105AC000F6D08C45F4DD5968C4E900310C605C60A7
:105AD000AC69944200D004B9EC68AB689C4202D037
