:020000040000FA
:10000000E8A1002039630000D9F300002563000057
:100010002563000025630000256300000000000048
:1000200000000000000000000000000089640000E3
:10003000256300000000000041640000256300000B
:100040004566000045660000456600004566000004
:1000500045660000456600004566000045660000F4
:1000600045660000456600004566000045660000E4
:1000700045660000456600004566000045660000D4
:1000800045660000456600004566000045660000C4
:1000900045660000456600004566000045660000B4
:1000A00045660000456600004566000045660000A4
:1000B0004566000045660000456600004566000094
:1000C0004566000045660000456600004566000084
:0C00D00045660000456600004566000023
:1000E00001F0FF01102A2BDB10F0070F08D010F8E9
:1000F000013B013A8B422DD010F0070F42B3F6D1ED
:10010000F0B441EA012141EA014122F007047FF005
:1001100000070023F0E80256083C85EA010586EA5C
:10012000010685FA47F5A3FA87F586FA47F6A5FA98
:1001300087F68EB9EED1F0BC01F0FF0102F00702A4
:1001400032B110F8013B013A83EA010313B1F8D14F
:100150000020704701387047002D06BF3546033830
:10016000073815F0010F07D1013015F4807F02BF69
:10017000013015F4C03F0130F0BC0138704700BFBA
:1001800081F0004102E000BF83F0004330B54FEA48
:1001900041044FEA430594EA050F08BF90EA020FB5
:1001A0001FBF54EA000C55EA020C7FEA645C7FEA48
:1001B000655C00F0E2804FEA5454D4EB5555B8BF6B
:1001C0006D420CDD2C4480EA020281EA030382EADC
:1001D000000083EA010180EA020281EA0303362D6E
:1001E00088BF30BD11F0004F4FEA01314FF4801C41
:1001F0004CEA113102D0404261EB410113F0004F53
:100200004FEA03334CEA133302D0524263EB430309
:1002100094EA050F00F0A780A4F10104D5F1200EA7
:100220000DDB02FA0EFC22FA05F2801841F1000102
:1002300003FA0EF2801843FA05F359410EE0A5F1D6
:1002400020050EF1200E012A03FA0EFC28BF4CF007
:10025000020C43FA05F3C01851EBE37101F00045BD
:1002600007D54FF0000EDCF1000C7EEB00006EEBCA
:100270000101B1F5801F1BD3B1F5001F0CD3490854
:100280005FEA30004FEA3C0C04F101044FEA4452AB
:1002900012F5800F80F09A80BCF1004F08BF5FEA32
:1002A000500C50F1000041EB045141EA050130BD12
:1002B0005FEA4C0C404141EB0101013C28BFB1F524
:1002C000801FE9D291F0000F04BF01460020B1FA6F
:1002D00081F308BF2033A3F10B03B3F120020CDA42
:1002E0000C3208DD02F1140CC2F10C0201FA0CF020
:1002F00021FA02F10CE002F11402D8BFC2F1200C85
:1003000001FA02F120FA0CFCDCBF41EA0C0190403A
:10031000E41AA2BF01EB0451294330BD6FEA040483
:100320001F3C1CDA0C340EDC04F11404C4F120026E
:1003300020FA04F001FA02F340EA030021FA04F380
:1003400045EA030130BDC4F10C04C4F1200220FAD7
:1003500002F001FA04F340EA0300294630BD21FA15
:1003600004F0294630BD94F0000F83F4801306BFDB
:1003700081F480110134013D4EE77FEA645C18BFCF
:100380007FEA655C29D094EA050F08BF90EA020F66
:1003900005D054EA000C04BF1946104630BD91EA5E
:1003A000030F1EBF0021002030BD5FEA545C05D161
:1003B0004000494128BF41F0004130BD14F58004A0
:1003C0003CBF01F5801130BD01F0004545F0FE4114
:1003D00041F470014FF0000030BD7FEA645C1ABF49
:1003E000194610467FEA655C1CBF0B46024650EA80
:1003F000013406BF52EA033591EA030F41F40021AC
:1004000030BD00BF90F0000F04BF0021704730B531
:100410004FF4806404F132044FF000054FF0000106
:1004200050E700BF90F0000F04BF0021704730B5C7
:100430004FF4806404F1320410F0004548BF40429C
:100440004FF000013EE700BF42004FEAE2014FEAF1
:1004500031014FEA02701FBF12F07F4393F07F4FCC
:1004600081F06051704732F07F4208BF704793F0CF
:100470007F4F04BF41F40021704730B54FF46074E2
:1004800001F0004521F000411CE700BF50EA0102E5
:1004900008BF704730B54FF000050AE050EA01028E
:1004A00008BF704730B511F0004502D5404261EBFE
:1004B00041014FF4806404F132045FEA915C3FF43F
:1004C000D8AE4FF003025FEADC0C18BF03325FEADC
:1004D000DC0C18BF033202EBDC02C2F1200300FA8D
:1004E00003FC20FA02F001FA03FE40EA0E0021FAB2
:1004F00002F11444BDE600BF70B54FF0FF0C4CF4A0
:10050000E06C1CEA11541DBF1CEA135594EA0C0F51
:1005100095EA0C0F00F0DEF82C4481EA030621EA8C
:100520004C5123EA4C5350EA013518BF52EA0335C7
:1005300041F4801143F4801338D0A0FB02CE4FF079
:100540000005E1FB02E506F00042E0FB03E54FF0A9
:100550000006E1FB03569CF0000F18BF4EF0010EA1
:10056000A4F1FF04B6F5007F64F5407404D25FEA9D
:100570004E0E6D4146EB060642EAC62141EA555150
:100580004FEAC52040EA5E504FEACE2EB4F1FD0C92
:1005900088BFBCF5E06F1ED8BEF1004F08BF5FEA10
:1005A000500E50F1000041EB045170BD06F00046C2
:1005B00046EA010140EA020081EA0301B4EB5C046F
:1005C000C2BFD4EB0C0541EA045170BD41F4801167
:1005D0004FF0000E013C00F3AB8014F1360FDEBF8C
:1005E000002001F0004170BDC4F10004203C35DA68
:1005F0000C341BDC04F11404C4F1200500FA05F3EB
:1006000020FA04F001FA05F240EA020001F000428B
:1006100021F0004110EBD37021FA04F642EB060101
:100620005EEA430E08BF20EAD37070BDC4F10C042B
:10063000C4F1200500FA04F320FA05F001FA04F2EF
:1006400040EA020001F0004110EBD37041F10001DB
:100650005EEA430E08BF20EAD37070BDC4F12005E6
:1006600000FA05F24EEA020E20FA04F301FA05F24E
:1006700043EA020321FA04F001F0004121FA04F2F6
:1006800020EA020000EBD3705EEA430E08BF20EAC6
:10069000D37070BD94F0000F0FD101F00046400000
:1006A00041EB010111F4801F08BF013CF7D041EA82
:1006B000060195F0000F18BF704703F00046520086
:1006C00043EB030313F4801F08BF013DF7D043EA57
:1006D0000603704794EA0C0F0CEA135518BF95EA0D
:1006E0000C0F0CD050EA410618BF52EA4306D1D194
:1006F00081EA030101F000414FF0000070BD50EAB3
:10070000410606BF1046194652EA430619D094EA3C
:100710000C0F02D150EA013613D195EA0C0F05D126
:1007200052EA03361CBF104619460AD181EA03017A
:1007300001F0004141F0FE4141F470014FF0000032
:1007400070BD41F0FE4141F4780170BD70B54FF0CD
:10075000FF0C4CF4E06C1CEA11541DBF1CEA13554D
:1007600094EA0C0F95EA0C0F00F0A7F8A4EB05042F
:1007700081EA030E52EA03354FEA013100F0888026
:100780004FEA03334FF0805545EA131343EA1263EF
:100790004FEA022245EA111545EA10654FEA0026A4
:1007A0000EF000419D4208BF964244F1FD0404F55D
:1007B000407402D25B084FEA3202B61A65EB0305B9
:1007C0005B084FEA32024FF480104FF4002CB6EB76
:1007D000020E75EB030E22BFB61A754640EA0C00F6
:1007E0005B084FEA3202B6EB020E75EB030E22BF36
:1007F000B61A754640EA5C005B084FEA3202B6EB77
:10080000020E75EB030E22BFB61A754640EA9C0035
:100810005B084FEA3202B6EB020E75EB030E22BF05
:10082000B61A754640EADC0055EA060E18D04FEAC3
:10083000051545EA16754FEA06164FEAC30343EA63
:1008400052734FEAC2025FEA1C1CC0D111F4801F30
:100850000BD141EA00014FF000004FF0004CB6E729
:1008600011F4801F04BF01430020B4F1FD0C88BFC8
:10087000BCF5E06F3FF6AFAEB5EB030C04BFB6EBD3
:10088000020C5FEA500C50F1000041EB045170BDC6
:100890000EF0004E4EEA113114EB5C04C2BFD4EBF3
:1008A0000C0541EA045170BD41F480114FF0000E77
:1008B000013C90E645EA060E8DE60CEA135594EAF3
:1008C0000C0F08BF95EA0C0F3FF43BAF94EA0C0FF6
:1008D0000AD150EA01347FF434AF95EA0C0F7FF46B
:1008E00025AF104619462CE795EA0C0F06D152EABF
:1008F00003353FF4FDAE1046194622E750EA4106A3
:1009000018BF52EA43067FF4C5AE50EA41047FF4B3
:100910000DAF52EA43057FF4EBAE12E74FF0FF3C18
:1009200006E000BF4FF0010C02E000BF4FF0010CE9
:100930004DF804CD4FEA410C7FEA6C5C4FEA430C62
:1009400018BF7FEA6C5C1BD001B050EA410C0CBFB1
:1009500052EA430C91EA030F02BF90EA020F002013
:10096000704710F1000F91EA030F58BF994208BF7A
:1009700090422CBFD8176FEAE37040F00100704737
:100980004FEA410C7FEA6C5C02D150EA013C07D18E
:100990004FEA430C7FEA6C5CD6D152EA033CD3D0D9
:1009A0005DF8040B704700BF8446104662468C46D3
:1009B0001946634600E000BF01B5FFF7B7FF002806
:1009C00048BF10F1000F01BD4DF808EDFFF7F4FF2F
:1009D0000CBF012000205DF808FB00BF4DF808EDBA
:1009E000FFF7EAFF34BF012000205DF808FB00BFDD
:1009F0004DF808EDFFF7E0FF94BF012000205DF8FF
:100A000008FB00BF4DF808EDFFF7CEFF94BF0120B3
:100A100000205DF808FB00BF4DF808EDFFF7C4FFAC
:100A200034BF012000205DF808FB00BF4FEA410CF5
:100A30007FEA6C5C02D150EA013C0AD14FEA430CD8
:100A40007FEA6C5C02D152EA033C02D14FF0000015
:100A500070474FF0010070474FEA410212F5001253
:100A600015D211D56FF47873B3EB625212D94FEAF5
:100A7000C12343F0004343EA505311F0004F23FADF
:100A800002F018BF404270474FF00000704750EA34
:100A9000013005D111F0004008BF6FF000407047F1
:100AA0004FF00000704700BF4A0011D212F500124B
:100AB00011D20DD56FF47873B3EB62520ED44FEAB6
:100AC000C12343F0004343EA505323FA02F0704736
:100AD0004FF00000704750EA013002D14FF0FF3074
:100AE00070474FF00000704753B94AB9002908BF5A
:100AF00000281CBF4FF0FF314FF0FF3000F00CB862
:100B0000ADF1080C6DE904CE00F010F8DDF804E05A
:100B1000DDE9022304B07047704700BF034613F8B5
:100B2000012B002AFBD1181A013870472DE9F04734
:100B300086468C460846089E154674461946002B84
:100B400040F0C2808542B2FA82F245D94AB1C2F180
:100B5000200300FA02FC2EFA03F3954043EA0C0C42
:100B600094404FEA154EA8B2BCFBFEF8230C0EFBD6
:100B700018CC08FB00F943EA0C43994528D9EB1837
:100B800008F1FF3704D2994502D9A8F102072B4496
:100B9000A3EB0903A4B2B3FBFEFC0EFB1C330CFB5E
:100BA00000F044EA0344A04214D92C190CF1FF339D
:100BB00004D2A04202D9ACF102032C44241A43EA25
:100BC00007401EB1D440002334607360BDE8F08755
:100BD0004746DDE76346F1E792BB431B01214FEA3D
:100BE000154EAFB2B3FBFEFC200C0EFB1C330CFB0E
:100BF00007F840EA0343984562D9EB180CF1FF303F
:100C000004D2984502D9ACF102002B44A3EB0803AF
:100C1000A4B2B3FBFEFC0EFB1C330CFB07F744EA4B
:100C20000344A7424ED92C190CF1FF3304D2A7423A
:100C300002D9ACF102032C44E41B43EA0040C0E7B4
:100C4000C2F1200320FA03F1954090402EFA03F3FD
:100C500003434FEA154EAFB2B1FBFEFC0EFB1C1076
:100C6000190C0CFB07F841EA0041884504FA02F42C
:100C700022D969180CF1FF3004D2884502D9ACF1B1
:100C800002002944A1EB08019BB2B1FBFEFC0EFB64
:100C90001C110CFB07F743EA01439F420ED9EB18E6
:100CA0000CF1FF3104D29F4202D9ACF102012B4476
:100CB000DB1B41EA004192E76046E3E76146F7E764
:100CC0006046A3E76346B7E7834206D916B9002119
:100CD00008467BE7C6E900E0F9E7B3FA83F78FB986
:100CE000834201D3724508D8BEEB020460EB0303D4
:100CF00001209C461EB9002168E73846FAE7C6E99C
:100D0000004CF8E7C7F1200CBB4022FA0CF41C435E
:100D10002EFA0CF120FA0CF3B84001434FEA1449C3
:100D20000EFA07F5B3FBF9F81FFA84FE09FB183039
:100D30000B0C08FB0EFA43EA00439A4502FA07F24D
:100D400040D9E31808F1FF3004D29A4502D9A8F13E
:100D500002002344A3EB0A0389B2B3FBF9F809FBB1
:100D6000183308FB0EFE41EA03418E452CD9611869
:100D700008F1FF3304D28E4502D9A8F102032144C1
:100D800043EA0040A0FB0298A1EB0E014145CE468C
:100D9000434602D306D14D4504D2B9EB020E68EBAF
:100DA00004030138002EA6D0B5EB0E0261EB03015F
:100DB00001FA0CFC22FA07F34CEA0303F940C6E9F6
:100DC000003198E74046C5E74346D9E700000000F8
:100DD00038B500F0B9FF1A4B18600446FFF712FB54
:100DE00011A3D3E90023FFF787FB11A3D3E9002365
:100DF000FFF7ACFCFFF758FE201AFFF703FB114B7F
:100E0000044618680D46FFF70DFB0BA3D3E900233A
:100E1000FFF772FB02460B4620462946FFF7B6F95C
:100E2000FFF742FE38BD00BF1C7C61325556C340FF
:100E3000000000000088C340802D6ABFFB5784413A
:100E4000FC6D0020F86D002008B502F0FBF80028CA
:100E5000B8BF7F30C011193000B2FFF7E3FA06A324
:100E6000D3E90023FFF748FB054B0022FFF78EF97B
:100E7000FFF7F2FD00B208BDCDCCCCCCCCCCFC3F12
:100E800000004040000000002DE9F04F476A97B095
:100E900014461D46CDE90445239E83467FB91020A4
:100EA0000CF01EF80246CBF8240020B9A24BEA2130
:100EB000A2480DF079F8C0E901770760C760DBF858
:100EC0002430196859B15A684A60012393408B60F5
:100ED00058460CF095FCDBF8243000221A602B1EDB
:100EE000B9BF23F00043059300233360059F944B63
:100EF000BCBF01223260BB4319D1229A42F20F7368
:100F00001360C7F31303234300F0E285249B53B916
:100F10008C4B21E08C4B08930833249A136008987B
:100F200017B0BDE8F08F874B08930333F5E7DDE991
:100F30000423CDE90C23DDE90C0100220023FFF797
:100F400043FD804650B1229A01231360249B13B1C4
:100F5000249A7E4B13607E4B0893E0E714AB019319
:100F600015AB00935846DDE90C230CF0C9FEC7F31E
:100F70000A560390002E7AD00D9BCDF84C80C3F317
:100F80001303DDE90C0143F07F5343F44013A6F251
:100F9000FF36194600226F4BFFF7F6F860A3D3E93E
:100FA0000023FFF7A9FA60A3D3E90023FFF7EEF8C7
:100FB000044630460D46FFF735FA5DA3D3E900231A
:100FC000FFF79AFA02460B4620462946FFF7DEF85D
:100FD00004460D46FFF740FD002207460023204649
:100FE0002946FFF7FBFC40B13846FFF71BFA2246C3
:100FF0002B46FFF7E9FC00B9013F162F54D8564B9A
:1010000003EBC703D3E90023DDE90C01FFF7E6FC9E
:1010100000284BD0013F00231293149B9B1B5A1EA8
:1010200045BFC3F101030693002300230A9254BF76
:1010300006930A93002F3BDB0A9B0F973B440A93CE
:1010400000230B93209B092B00F28A80052BC4BF41
:10105000043B2093209BA3F10203CCBF0024012476
:10106000032B00F28880DFE803F02B383657DDE9E8
:1010700014631E4406F23243202BC1BFC3F1400368
:101080009F4006F2124324FA03F3D6BFC3F12003B4
:1010900047EA030004FA03F0FFF7B4F90122A1F1D3
:1010A000F873013E139274E70123B5E71290B4E799
:1010B000069BDB1B06937B420B9300230F93C1E738
:1010C00000230E93219B002B58DC012309939946A2
:1010D0001A4621920CE00123F3E700230E93219B93
:1010E000FB1803F1010909934B46012BB8BF0123FB
:1010F000DBF824000021042202F114059D4241D9AD
:10110000416058460CF03CFB089000283DD1134B41
:1011100002464FF4D571CBE60123DFE7AFF3008041
:1011200061436F63A787D23FB3C8608B288AC63FED
:10113000FB799F501344D33F463001005D300100DE
:101140000000F07F4230010039300100210D010024
:10115000200D01000000F83F00070100B930010038
:101160000124002320930E944FF0FF3309939946F6
:1011700000221223ADE701230E93F5E7219B09938B
:101180009946B5E701315200B6E7DBF82430089AFA
:101190001A60B9F10E0F6FD8002C6DD0002F36DD1C
:1011A000A14B07F00F0203EBC203D3E90034F805AB
:1011B000CDE910344FEA271417D59C4BDDE90C011B
:1011C000D3E90823FFF7C2FACDE9040104F00F04C4
:1011D0004FF00308954D5CB9DDE91023DDE904010A
:1011E000FFF7B4FACDE904012BE04FF00208F1E774
:1011F000E10709D5DDE91001D5E90023FFF77CF906
:10120000CDE9100108F1010864100835E3E700F0AA
:1012100007817C42844B854D04F00F0203EBC2032F
:10122000D3E90023DDE90C01FFF766F9CDE90401FC
:10123000241100234FF00208002C40F0E580002B21
:10124000D0D1129BDDE90445002B00F04C81784B96
:10125000002220462946FFF7C1FB002800F0438109
:10126000B9F1000F00F03F81099B002B00F3E480EF
:10127000DDE90C34CDE90434159B002B02DB0E2F85
:1012800040F342820E9A002A40F067820B9CDDF800
:1012900018800025B8F1000F0DD00A9B002B0ADD45
:1012A0004345069AA8BF4346D21A06920A9AA8EB6B
:1012B0000308D31A0A930B9B0BB30E9B002B00F071
:1012C000A682002C00F0A1822946224658460CF046
:1012D000BFFB039A0146054658460CF00FFB0399E5
:1012E000064658460CF08CFA0B9B1B1B0B9300F028
:1012F00091820B9A314658460CF0AAFB03900121CB
:1013000058460CF0E5FA0F9B0446002B00F084824F
:101310001A46014658460CF09BFB209B012B0446C5
:1013200003DC049B002B00F07C820026236904EB85
:10133000830318690EF0A2FD0F96C0F120000A9BEE
:10134000184410F01F0000F09182C0F12003042B1C
:1013500040F38182069BC0F11C00034406930A9B64
:10136000034480440A93069B002B05DD03991A462B
:1013700058460CF0C7FB03900A9B002B05DD214665
:101380001A4658460CF0BEFB0446129B002B00F098
:101390007682039821460EF0C0FD002880F26F820D
:1013A000002303990A2258460CF04CFA0E9B039036
:1013B0007E1E002B00F05C82002329460A2258463C
:1013C0000CF040FA099B002B054603DC209B022B06
:1013D00000F35E82B8F1000F05DD2946424658460B
:1013E0000CF090FB05460F9B002B00F0D082696843
:1013F00058460CF0C5F90746002840F07F820D4B97
:10140000024640F2EA2153E5E20706D5D5E900237A
:10141000FFF772F808F101080123641008350BE7A3
:101420004FF002080DE700BF00070100D8060100D9
:101430000000F03FB93001002046AD4B00222946A4
:10144000FFF75AF8CDE90401099C7E1E08F1010856
:101450004046FEF7E7FFDDE90423FFF74DF8A54B13
:101460000022FEF793FEA1F15073CDE91001119314
:10147000002C3BD1DDE904019F4B0022FEF784FEE6
:1014800002460B46CDE90423DDE91023FFF7C4FA39
:10149000002840F05781DDE9102101F10043DDE92A
:1014A0000401FFF79BFA00283FF4E2AE0024254632
:1014B000219BDDF820A0DE434FF00008214658466E
:1014C0000CF09EF9002D00F0A980B8F1000F05D0B6
:1014D000A84503D0414658460CF092F92946584693
:1014E0000CF08EF99AE03E464C46B1E7834B03EB95
:1014F000C40353E90201089B1C440E9B002B4AD0F5
:1015000002460B4600207E49FFF720F9DDE9102353
:10151000FEF73AFECDE91001DDF820A0DDE9040177
:10152000FFF79AFA0546FEF77DFF02460B46DDE916
:101530000401FEF729FE3035CDE9040102460B46D1
:101540000AF8015BDDE91001FFF766FA002865D1B2
:10155000DDE904236B490020FEF716FE02460B4628
:10156000DDE91001FFF758FA002840F00D81A2458F
:1015700000F0EA80DDE910015D4B0022FEF7BCFFC0
:101580005B4BCDE910010022DDE90401FEF7B4FF59
:10159000CDE90401C2E7DDE91023FEF7ADFFCDE997
:1015A0001001DDF820A0A046DDE90401FFF754FAA0
:1015B0000546FEF737FF02460B46DDE90401FEF75C
:1015C000E3FD30350AF8015B02460B46A245CDE942
:1015D00004234FF0000223D1494BDDE91001FEF74F
:1015E000D5FD02460B46DDE90401FFF715FA002898
:1015F00040F0CA80DDE9102341490020FEF7C4FD18
:1016000002460B46DDE90401FFF7E8F970B1C24676
:1016100008F1FF381AF8013C302BF8D0374655E076
:10162000334BFEF769FFCDE90401BDE7DDE90C347A
:10163000CDE90434159B002BFFF628AE0E2F3FF7A3
:1016400025AE2E4B03EBC703D3E90034CDE90634B6
:10165000219B002B02DAB9F1000F64D0DDE90445CB
:10166000DDF820A0DDE9062320462946FFF76EF8C5
:10167000FFF7F2F90646FEF7D5FEDDE90623FEF791
:101680003BFF02460B462046294606F13004FEF792
:101690007BFD0AF8014B089CAAEB0404A145024615
:1016A0000B4640F08280FEF771FDDDE9062304461B
:1016B0000D46FFF7B1F9002865D1DDE90623204684
:1016C0002946FFF781F908B1F3075CD4039958461E
:1016D0000CF096F800238AF80030229B01371F6037
:1016E000249B002B3FF41BACC3F800A017E400BF01
:1016F0000000244000001C400000144000070100CE
:101700000000E03F0000F03FA24B03EBC703D3E92A
:101710000034CDE90634219B002B9FDAB9F1000F8C
:101720009CDC7FF4C3AE9C4B0022DDE90601FEF792
:10173000E3FEDDE90423FFF765F9044600287FF4A2
:10174000B5AE3E462546B4E0DDE90C34CDE90434BF
:10175000159B002B01DB0E2FD6DD209A012A36DCEB
:10176000139A82B303F233430B9CDDF81880069A78
:101770001A4406920A9A01211A4458460A920CF019
:10178000A7F8054686E53E4653469A4613F8012DCE
:10179000392A06D1089A9A42F7D10899302201369F
:1017A0000A701A7801321A7038E77C4B0022FEF773
:1017B000A3FE0022002304460D46FFF705F900288A
:1017C0003FF450AF82E7149BC3F13603CCE70B9B89
:1017D00009F1FF34A34208DBB9F1000FA3EB0404C5
:1017E0000EDBDDF818804B46C1E70B9B0F9A0B947C
:1017F000E31A1A44DDF818800F924B460024B6E72E
:10180000069BA3EB09080023B1E7039E71E50B9A41
:10181000039970E5039672E5209B012B17DC049B6E
:10182000ABB9059BC3F313039BB9059B23F000469B
:10183000360D360536B1069B013306930A9B0133FC
:101840000A9301260F9B002B7FF470AD0F960120A9
:1018500075E50026F6E73FF486AD069A1C331A4478
:1018600006920A9A1A4498440A927CE50346F4E7E1
:10187000099B002B2BDC209B022B09DC27E0B9F114
:10188000000F1DDC209B022B1ADDCDF824903E4674
:10189000099B002B7FF40CAE2146052258460BF025
:1018A000D1FF0146044603980EF037FB00287FF76E
:1018B000FFADDDF820A031230AF8013B0136FBE53E
:1018C0000E9BCDF824903E46002B7FF483AD089FFD
:1018D000039821460EF04AFA00F1300907F8019BFF
:1018E000089B099AFB1A9A4240F3CB800399002384
:1018F0000A2258460BF0A6FF0390E9E72A69023254
:10190000920005F10C010C300EF000F9012239466D
:1019100058460CF0F7F8089B03F1010ADDE90823AB
:1019200013440A93049B03F00103A8460B93054656
:101930000AF1FF332146039806930EF017FA414649
:10194000099000F1300903980EF0E7FA2A46214683
:10195000074658460CF042F9C268014602B35846A1
:101960000BF04EFF002F3ADA0399012258460CF093
:10197000C9F8214603900EF0D0FA002803DC29D1E3
:1019800019F0010F26D0B9F1390F1DD132E02846E8
:10199000C1E700BF00070100000014400000244020
:1019A0000E9003980EF0B9FA0E990C9058460BF071
:1019B00027FF0C9A5ABB209B53B90B9B43B9B9F133
:1019C000390F17D0002F05DD099B03F1310901E024
:1019D000002F2ADADDF818A00AF8019B6EE5209B9B
:1019E0003B4304D1049B03F00103002BBCD0B9F1AD
:1019F000390F36D1069F392307F8013BBA46013F1C
:101A00001AF8013C392B5BD001333B7056E5002FAF
:101A100006DB209B3B4306D1049B03F0010313B973
:101A2000002AA1DCD6E7002AE1DC0A9B0AF8019C27
:101A3000534557462FD0039900230A2258460BF0EE
:101A400001FFA84503904FF000034FF00A02414602
:101A500058460BD10BF0F6FE804605460AF1010A06
:101A600066E7DDF818A009F10109B5E70BF0EAFE19
:101A70002946804600230A2258460BF0E3FE05461D
:101A8000ECE7099B002BC8BF1F46089BD8BF012766
:101A90001F444FF000080399012258460CF032F819
:101AA000214603900EF039FA0028A7DC02D119F084
:101AB000010FA3D1BA4617F8013D302BFAD0FDE44F
:101AC000089BBB429AD1089A312301361370F5E482
:101AD000249B002B7FF41EAA014BFFF73DBA00BFE9
:101AE00039300100F0B52E4D2E4E2F4F95B04C22BF
:101AF000002168460EF018F802242C4B8DF80D409A
:101B000004958DF8214009968DF835400E978DF893
:101B1000494013934FF0FF334FF0FF3204216846E2
:101B20000BF034F8039B03F4FE13B3F5004F0CD114
:101B30000022002328460CF0F6FD1D4B0022204613
:101B40001A6001F08BF901F06DF9089B03F4FE13A4
:101B5000B3F5004F09D10022002330460CF0E3FD1D
:101B6000134B00221A6001F05DF90D9B03F4FE1384
:101B7000B3F5004F06D10022002338460CF0D3FD08
:101B800001F050F9129B03F4FE13B3F5004FAED1F0
:101B90000648002200230CF0C6FD01F043F9A6E739
:101BA000B4530020CC530020E4530020FC53002009
:101BB000F06D002010B5044C4FF0FF324FF0FF33B2
:101BC00020460CF0B0FDF7E75C54002010B5044C43
:101BD0004FF0FF324FF0FF3320460CF0A4FDF7E743
:101BE0004454002010B5044C4FF0FF324FF0FF3347
:101BF00020460CF098FDF7E72C540020F0B589B092
:101C000000F020FB0A2101200CF0C7FD00F004FCCD
:101C1000012108460CF0BAFD00F050FC0021012023
:101C20000CF0B4FD01F0CEF800F084F9324A3348EC
:101C300003210DF022FB324A304803210DF01DFB39
:101C40000026002700240725CDE90667CDE90354C7
:101C5000CDE901442B4B2C4900944FF400622B48F2
:101C600008F0BAFF2A4929480DF05BFE294B2A49A2
:101C70000094CDE90667CDE90354CDE901444FF462
:101C80000062264808F0A8FF254924480DF049FEC7
:101C9000244B25490094CDE90667CDE90354CDE9ED
:101CA00001444FF48062214808F096FF20491F4804
:101CB0000DF037FE0523CDE90243CDE90667CDE9F6
:101CC00000441C4B1C4904944FF400621B4808F06C
:101CD00083FF1B4919480DF024FE1A4A07480321C7
:101CE0000DF0CBFA0CF04DFD4FF0FF314FF0FF300F
:101CF00009F038FEF8E700BFAC0A010070060100E9
:101D0000C20A0100E51B0000A8840020F85500204D
:101D1000E20A0100CD1B0000A87C002078550020BD
:101D2000EF0A0100B51B0000A8780020F85400203D
:101D3000FA0A0100E51A0000A8700020785400207B
:101D40000A0B0100190B0100044A13681BB1044976
:101D50000B6801330B60002010607047F46D0020A9
:101D6000F86D002013B50DF03AFE4FF47A74A0FB25
:101D7000040304FB01310E4AC30B43EA41434EF610
:101D80006020B3FBF2F102FB1133C9B2B3FBF0F2F6
:101D900000FB1233002061F30700D2B262F30F2080
:101DA000B3FBF4F3DBB263F3174002B010BD00BF26
:101DB00080EE3600014808F0C7BA00BFFC5300208F
:101DC00070B5034600681979836845689C690269A3
:101DD0000CB32D6801238B402B420ED10E490F4AC4
:101DE0000F4840F293330DF02BF80E480DF028F811
:101DF0000A4840F293310DF01AF812681342A446D3
:101E000018BF4FF00073BDE8704008BF4FF080630B
:101E10004FF0A072604770BD760B0100450B0100CA
:101E2000B40B0100D10B0100014603488368DB6954
:101E30000BB1012218477047F80301002DE9F0416A
:101E400003460068DD88197945F4803205F03004D6
:101E5000302CD0E9013706690ED12449244A25489F
:101E600040F2E2330CF0ECFF23480CF0E9FF40F2C3
:101E7000E2311F480CF0DBFF05F0020464B11F499A
:101E80001B4A1C4840F2E6330CF0DAFF1C480CF009
:101E9000D7FF40F2E631ECE705F00604042C09D147
:101EA0001849134A134840F2E9330CF0C9FF40F2D5
:101EB000E931DEE71B6801248C401C420CD1124939
:101EC0000B4A0C484FF47F730CF0BAFF0F480CF02C
:101ED000B7FF4FF47F71CCE73368ED074CBF234366
:101EE000A34333603B68BDE8F0411847E30B0100B2
:101EF000450B0100B40B01001C0C0100590C010042
:101F0000A00C0100EF0C0100760B0100D10B0100C9
:101F1000014808F019BA00BFB4530020014808F086
:101F200013BA00BFCC530020014808F00DBA00BF1F
:101F3000E453002010B51F4C2046FFF77FFF2046DA
:101F4000FFF73EFF1C481D4C1D4B43604FF40063E0
:101F50008360FFF769FF2046FFF770FF2046FFF719
:101F60002FFF1848184C194B43604FF4805383607F
:101F7000FFF75AFF2046FFF761FF2046FFF720FFDB
:101F80001348144C144B43604FF400538360FFF725
:101F90004BFF2046FFF752FF2046FFF711FF0F4887
:101FA0000F4B43604FF480438360BDE81040FFF760
:101FB0003BBF00BFE0070100246E0020D8070100EE
:101FC000111F0000186E0020D00701001D1F000027
:101FD0000C6E0020C8070100291F0000006E0020C1
:101FE000B51D0000014808F0AFB900BF2C54002017
:101FF000014808F0A9B900BF5C540020014808F06E
:10200000A3B900BF4454002013B5114C012021682E
:102010000CF0BCFB0F4823680268B3FA83F301326B
:102020005B09072A026023600EDD002101600120A8
:102030000CF0ACFB4FF4802200230748CDE90023CD
:102040000AF020FB02B010BD40F26762F4E700BF67
:1020500000000020306E00209852002007B50328B1
:1020600026D8DFE800F0020E151C4FF48022002372
:10207000CDE900230F480AF005FB012003B05DF80D
:1020800004FB4FF4902200230B48CDE90023F2E734
:1020900040F2676200230948CDE90023EBE7002204
:1020A0000023CDE9002306484FF490220023E2E705
:1020B0000020E3E798520020D0520020085300206F
:1020C000405300202DE9F041034600681979DB8870
:1020D00003F03002302AD0E9014706690ED12149C8
:1020E000214A224840F2E2330CF0AAFE20480CF0CC
:1020F000A7FE40F2E2311C480CF099FE03F0060204
:10210000042A09D11B49184A184840F2E9330CF057
:1021100097FE40F2E931EEE724680125DA0705FA77
:1021200001F554BF43F4B01383F4D013254223F4D4
:1021300080120CD110490C4A0C484FF47F730CF0FC
:102140007FFE0E480CF07CFE4FF47F71D3E73468BD
:10215000DB074CBF2C43AC4334603B68BDE8F04127
:10216000184700BFE30B0100450B0100B40B010051
:102170001C0C0100EF0C0100760B0100D10B0100DB
:1021800010B5034600681B790121994043681B681C
:1021900019420ED109490A4A0A4840F2B6630CF0C6
:1021A0004FFE09480CF04CFE054840F2B6610CF0B9
:1021B0003EFE8368BDE810405B691847760B01005E
:1021C000450B0100B40B0100D10B010010B5034613
:1021D0000A46006819790469012303FA01F143688A
:1021E0001B6819420ED10E490E4A0F4840F28D630A
:1021F0000CF026FE0D480CF023FE0A4840F28D61DB
:102200000CF015FE2368194203D022B183681B69C4
:1022100003E0002AFAD08368DB68BDE81040184765
:10222000760B0100450B0100B40B0100D10B01003E
:10223000013802289ABF024B53F820000020704753
:10224000E807010010B50F480DF0F6FA08B90020B4
:1022500010BD0C480DF0F0FA0028F8D009480DF038
:10226000EBFA0028F3D00848FFF72CFF0446074894
:10227000FFF728FF04430648FFF724FF2043C0432D
:10228000C00FE5E7F803010004080100FC070100A6
:10229000F407010037B5034600681B7901249C4010
:1022A00043681B681C420ED10E490F4A0F4840F28A
:1022B00034630CF0C5FD0E480CF0C2FD0A4840F234
:1022C00034610CF0B4FD0569836801A95B68984727
:1022D00030B92A68019B5340234214BF01200020DB
:1022E00003B030BD760B0100450B0100B40B0100BB
:1022F000D10B01002DE9F04103460068DD88197912
:1023000045F4803205F03004302CD0E901370669FD
:102310000ED12449244A254840F2E2330CF090FDC6
:1023200023480CF08DFD40F2E2311F480CF07FFD98
:1023300005F0020464B11F491B4A1C4840F2E63311
:102340000CF07EFD1C480CF07BFD40F2E631ECE722
:1023500005F00604042C09D11849134A134840F229
:10236000E9330CF06DFD40F2E931DEE71B68012432
:102370008C401C420CD112490B4A0C484FF47F731D
:102380000CF05EFD0F480CF05BFD4FF47F71CCE765
:102390003368ED074CBF2343A34333603B68BDE87C
:1023A000F0411847E30B0100450B0100B40B01009D
:1023B0001C0C0100590C0100A00C0100EF0C0100E5
:1023C000760B0100D10B010070B50F48FFF762FFDB
:1023D00006460E48FFF75EFF04460D48FFF75AFF1A
:1023E00005460C48FFF756FF6400AD0005F00405F4
:1023F00004F002042C4306F00106C000344300F050
:102400000800204370BD00BF240801001C08010023
:10241000140801000C08010010B515480DF00CFA65
:1024200018B96FF01204204610BD11480DF004FADF
:102430000028F6D00E480DF0FFF90028F1D00C4826
:102440000DF0FAF90028ECD00A48FFF753FF0446D4
:102450000948FFF74FFF04430848FFF74BFF0443C9
:102460000748FFF747FF0443DDD1FFF7ADFFDAE789
:10247000F8030100240801001C08010014080100F1
:102480000C08010070B50E461546044680B10C3BA1
:10249000DBB2142B96BF074A074852F8230000F01E
:1024A00015FA2246B1B2A8B2BDE8704000F09CBA5D
:1024B00070BD00BF2C080100022B002008B50CF0F5
:1024C0000AFA0A221146104600F0A2FA14223C2110
:1024D000782000F0AFFA00F0E7F9024B01221A6011
:1024E00008BD00BF346E002070B5074E0024355D76
:1024F00028460135611C2C443144A4B20CF02CFA5E
:10250000742CF4D970BD00BF08030020074B084AA3
:102510001B880849013B1380074B00221A80074B98
:102520001B88013B0B80064B1A8070470603002076
:10253000827000207E700020807000200403002044
:102540007C7000200E4B1B88834217D90D4B1B88D3
:102550008B4213D90C4B1A88824288BF18800B4BD0
:102560001A88824238BF1880094B1A888A4288BF6D
:102570001980084B1A888A4238BF1980704700BFFB
:1025800006030020040300208270002080700020D9
:102590007E7000207C70002010B5234B234C1A88DD
:1025A000234B248818882349234B09881B8810440F
:1025B0002244224C248886B0194423442A248DF8CE
:1025C00008408DF80A00C0F307248DF80C20C2F3F0
:1025D00007202B228DF81020C1F307228DF80B0065
:1025E0008DF811208DF81210C3F307228DF81430E6
:1025F00002A92C2305208DF813208DF804308DF8C6
:1026000009400CF0A9F904A905200CF0A5F901A9CD
:1026100001200CF08BF90A4902200CF092F9FFF727
:1026200075FF06B010BD00BF8670002080700020CE
:10263000827000207E700020847000207C7000205A
:102640008E70002008B5094A128882420DD9084AC6
:1026500012888A4209D9074B1A88074B1A80FFF75C
:1026600071FFBDE80840FFF797BF08BD06030020D3
:10267000040300208C7000208E70002008B5094AE9
:10268000128882420DD9084A12888A4209D9074B1A
:102690001A88074B1A80FFF755FFBDE80840FFF77F
:1026A0007BBF08BD06030020040300208A700020C1
:1026B0008E70002010B503460A4600681979046937
:1026C000012303FA01F143681B6819420ED10E4938
:1026D0000E4A0F4840F28D630CF0B2FB0D480CF02F
:1026E000AFFB0A4840F28D610CF0A1FB2368194250
:1026F00018BF82F0010222B18368DB68BDE8104098
:10270000184783681B69F9E7760B0100450B010048
:10271000B40B0100D10B01002DE9F0410346006824
:102720001979DB8803F03002302AD0E901470669C5
:102730000ED12149214A224840F2E2330CF080FBBD
:1027400020480CF07DFB40F2E2311C480CF06FFB9E
:1027500003F00602042A09D11B49184A184840F21E
:10276000E9330CF06DFB40F2E931EEE72468012516
:10277000DA0705FA01F554BF43F4B01383F4D0131C
:10278000254223F480120CD110490C4A0C484FF416
:102790007F730CF055FB0E480CF052FB4FF47F7129
:1027A000D3E73468DB074CBF2C43AC4334603B6851
:1027B000BDE8F041184700BFE30B0100450B0100E5
:1027C000B40B01001C0C0100EF0C0100760B0100A2
:1027D000D10B010010B50E4C20680DF02DF820B182
:1027E000E06818B10DF028F800B9FEE709480DF0CF
:1027F00023F800B9FEE707480DF01EF800B9FEE720
:102800000548FFF789FFBDE810400448FFF784BF83
:1028100004000020F803010088080100800801007E
:1028200001480021FFF746BF80080100014801214F
:10283000FFF740BF8008010008B504480121FFF7F9
:1028400039FF0A20BDE808400CF0F2BF88080100FB
:1028500008B504480021FFF72DFF0A20BDE8084015
:102860000CF0E6BF88080100014B1870704700BFEC
:102870007D0300201FB5CDE900100749CDF808D031
:10288000012351F8040B0393836802AA1C680023F8
:10289000A04704B010BD00BF04000020014B187019
:1028A000704700BF9870002008B5064A064B128892
:1028B0001B88002108460CF0FAF8BDE80840FFF735
:1028C0006BBE00BF060300200403002030B5094D95
:1028D00000212860CAB200EB82049300B4F80540DE
:1028E000E4B224B91AB106331844686030BD01312E
:1028F000F0E700BF90700020F0B5DFF85CC0DCF8B6
:10290000006073780022DF085B07044618BF0137B8
:10291000134695B206EB8505B5F8051011F0FF00DA
:1029200004D11FFA82FEBEF1000F0ED1A142B5F80C
:1029300007000BD8A04209D323445B1ADCF804003B
:1029400032789BB27B4302FB0300F0BD01300344AD
:102950005B1A9BB20132DCE7907000202DE9F84F42
:10296000064610460F46FFF7C7FF044650B1DFF892
:1029700070804FF0000AD8F800301B785FFA8AF5B3
:10298000AB4227D8BDE8F88F590708BF14F8019B60
:10299000D94301F0070149FA01F1CA0710D53344C0
:1029A000294698B2FFF74EFE0BF1010BD8F8001044
:1029B00049785FFA8BF39942E6D80AF1010ADAE71F
:1029C000084A11780029EFD13344294698B2FFF71D
:1029D00055FEE9E74FF0000B3D44D946ADB2E5E7BF
:1029E0009070002098700020F8B5084F04460E46FD
:1029F000551E15F8012F02B9F8BD20463146FFF7E4
:102A0000ADFF3B685B781C44A4B2F2E790700020F5
:102A100001F03F0100F01F0040EA4110044B40EA82
:102A2000C22282B0C2F307221A70587002B07047F7
:102A30008C70002001F03F0100F01F0040EA4110BF
:102A4000044B40EAC22282B0C2F307221A705870C7
:102A500002B070478A70002000B589B0C0F3074209
:102A60000092C0F30723C2B2064904A80AF058FE38
:102A70000C231422022104A80BF0B7FE09B05DF864
:102A800004FB00BF390D010030B5154DB0F9002031
:102A90008BB00446294601A80AF042FEB4F904208E
:102AA000294604A80AF03CFEB4F90620294607A8E6
:102AB0000AF036FE0BF088FE01A81423082200213C
:102AC0000BF093FE04A81423082201210BF08DFEC5
:102AD00014230822022107A80BF087FE0BB030BD9B
:102AE000520D010013B50A4604460A4968460AF029
:102AF00017FE0BF069FE14230C2202212046FFF77B
:102B0000C1FC14230C2203216846FFF7BBFC02B072
:102B100010BD00BF520D0100024A00231360024A9B
:102B200013607047406E00203C6E00204B4203F063
:102B3000030370B501F0030458BF5C42434203F045
:102B4000030300F0030558BF5D420D4E0D4A2346B6
:102B5000032130460CF09AFB0B4A2B4630460321EA
:102B60000CF094FB691C0948102300220BF03DFE79
:102B7000611C0748BDE87040102300220BF079BEAD
:102B8000B8060100480D0100550D0100940D01002B
:102B9000ED170100F8B5144F3B6800280546B8BF93
:102BA000C51C002B4FEAA505B8BF0333B5EBA30F37
:102BB000044600D179B10D4E0BF0D1FF06EB05169E
:102BC0000025013556F8040B10230C2229460BF082
:102BD00020FE042DF5D1064B386800221A702146DC
:102BE000BDE8F840FFF7A2BF386E00206C0000205F
:102BF0009A70002008B5054B01211868FFF7CAFF3D
:102C0000034A00231360034A137008BD406E00207E
:102C10003C6E00209A70002070B505460C4604EB0F
:102C200085040BF09CFF034B53F82430BDE8704043
:102C3000184700BF1C000020074A084913680B60B2
:102C4000411C03D10BB1013B136070470128FCD13B
:102C5000032BFAD00133F7E7406E0020386E0020D6
:102C6000014B1878704700BF997000202DE9F0479C
:102C700000290C468046B8BFCC1C0BF072FFDFF871
:102C80007090A410D9F80030A0EB8406042EA8BFE1
:102C90000426002BB8BF0333B4EBA30F0D460DD1B0
:102CA00062B96A4202F0030205F0030358BF5342BF
:102CB0009E42D9F8000015DC711E14E00BF04FFFA6
:102CC000DFF830A058235C430027BE42E9DD5AF804
:102CD00028000137204410230C2239460BF085FDD3
:102CE0001634F2E72946BDE8F047FFF71FBF00BFE3
:102CF000386E00205C00002008B50A4A0A491368B3
:102D00000B60411C03D10BB1013B136008BD0128CE
:102D1000FCD1064908680BF024FF01388342F5D046
:102D20000133F2E73C6E0020386E0020406E002038
:102D300038B51F490C7844B31E490C788CB1022871
:102D400007D100230B7000F0A9F8BDE83840FFF769
:102D500051BF194B1968194B1868BDE83840FFF787
:102D60005BBF022806D101230B701548BDE838402F
:102D700008F03CBEFFF7C0FF0F4B19680F4B1868F7
:102D80002246BDE83840FFF771BF02280B4D06D13F
:102D9000094B28681C6001220A702146F1E7FFF701
:102DA0004BFF28682146BDE83840FFF7F3BE00BF5F
:102DB0009A700020997000203C6E0020406E002028
:102DC000400D0300024B01221A60FFF7A5BE00BFB1
:102DD000446E002007B5114B1B68012B16D10BF078
:102DE000CCFCC0F307238DF80400C0F307408DF836
:102DF00005308DF806000198FFF72EFE084B1A7873
:102E00000AB100221A7003B05DF804FB022BFAD15C
:102E1000002003B05DF804EBFFF78ABF446E00208A
:102E20000A52002008B50C4B1B68022B13D1FFF788
:102E3000CBFA012805D14FF0FF30BDE80840FFF77D
:102E400077BF022801D10120F7E7042801D1022031
:102E5000F3E70828FBD008BD446E002038B50E4DBE
:102E60002B688342044616D0012808D00228286027
:102E700011D1BDE8384001210020FFF78BBEFFF7DC
:102E8000EFFE40B92C60FFF747FE0BF09DFCBDE85C
:102E90003840FFF79FBF38BD446E0020014B002231
:102EA0001A607047486E00202DE9F84339483A4CC3
:102EB0003A4E3B4F14230C2200210BF096FC39486C
:102EC00014230C2201210BF090FC23786278A07867
:102ED00043EA022343EA0040FFF7BEFD31680229BE
:102EE00001DDBDE8F88349BB2F4814230C220BF009
:102EF0007CFCDFF8A080DFF8AC90FFF765FA0128D2
:102F0000054637D133683BBB20780BF02AFC207094
:102F1000404614230C2200210BF067FC4846142382
:102F20000C2201210BF061FC23786278A07843EA3F
:102F3000022343EA0040FFF78FFD1DE0012904D181
:102F400014230C2200213846D1E70229D1D1174899
:102F500014230C220021CAE7012B04D160780BF066
:102F600006FC6070D4E7022BD2D1A0780BF0F3FB03
:102F7000A070CDE70228CBD0032D07D133680133F1
:102F8000022B3360B9DD00233360B6E7042DB4D1E2
:102F9000A4E700BF8E0D01009B700020486E00204A
:102FA0009C0D01008C0D0100960D0100A40D010087
:102FB00038B512483221FFF795FD4FF480300021DB
:102FC00008F0D0FC0D4D322442F2107008F00EFDD6
:102FD000FFF7FAF9012809D1013CE4B2284621465D
:102FE000FFF780FD20460BF065FCEDE7022801D1DC
:102FF0000134F2E70028E7D138BD00BFAC0D010075
:1030000008B50020FDF720FFBDE808400146014853
:10301000FFF768BDB50D010070B5094B88B00646D5
:1030200001A9186801AC0BF080FB0FCC35460FC529
:1030300094E8070085E80700304608B070BD00BF7F
:103040004C6E0020014800F003B800BF7856002005
:1030500013B501220D490DF1030304460BF014FED4
:1030600010B100B202B010BD204604F580540849EA
:1030700001AB02220BF008FE94F845000DF10602A8
:1030800001A90BF088FDBDF90600EBE7390001004E
:103090000900010073B5054640B3067F012E0DF10E
:1030A000070317D1134932460BF0EEFD9DF80730A8
:1030B000104923F0100304468DF8073032460DF115
:1030C0000703284600F018F820432B7F013B2B779D
:1030D00002B070BD074901220BF0D6FD9DF8073004
:1030E00013F0100F08BF4FF0FF30EEE76FF00A004B
:1030F000EEE700BF1F0001002DE9F04F87B08846C2
:1031000001929A460446002876D09B4613460B440B
:1031100002930E460027029BB34208F480320CD182
:103120003AB1019A53465FFA88F120460BF050FD00
:103130000743384607B0BDE8F08F314B9E4249D077
:103140003CD8002E49D0013B9E423DD092BBC6F3F5
:10315000072320468DF8173000F056F89DF81730F9
:10316000814643B10DF117030122792120460BF06E
:103170002FFD49EA00090DF1160301227A212046AC
:103180008DF816600BF024FD5B4601227B2105467D
:1031900020460BF01DFD03900BF02FFD9DF817301E
:1031A000F3B9039845EA090505432046FFF772FF86
:1031B000284307430BF1010B0136ACE7114B9E424C
:1031C000C4D104F11A0301E004F118039BF80010C4
:1031D0001970BBE704F11903F8E704F11B03F5E7E5
:1031E00000238DF8163001220DF1160379212046B7
:1031F0000BF0EEFC0546D8E76FF00A0799E700BF31
:1032000020000100210001002DE9F34105460028BE
:103210004AD0037FCBBB27490DF1070301220BF0F6
:1032200033FD9DF80730234943F0100304468DF821
:10323000073001220DF107032846FFF75DFF044325
:103240001FD10BF045FDDFF8708006460F460DF1EB
:10325000070301224FF4803128460BF015FD044688
:1032600078B90BF035FD801B61EB0703804574EBEB
:1032700003031CD39DF807301B07E8D52B7F0133D0
:103280002B77204602B0BDE8F0810DF10703094914
:1032900001220BF0F9FC9DF8073013F0100F14BF5A
:1032A00004464FF0FF34E9E76FF00A04E9E76FF0F6
:1032B0000304E6E71F00010040420F002DE9F04F34
:1032C00091B00546009302F004030193C2F3C203D8
:1032D000013304938307DDF8689002920E4640F0B4
:1032E000FC81041D30B1072909D86FF01B0011B013
:1032F000BDE8F08F01F007063444C6F10806009BD4
:103300004FF000084FF0040B591ECDF80C804746D3
:1033100043464FF0FF32DA460DB100982060049822
:10332000002800F3DF809B48DDF800C0844503D30C
:1033300099488445C0F0D680DDF808C0A4EB050E9E
:103340001CF0020F4FEA9E0000F0E7804FF0000CE7
:10335000D1E07A2862D84B280FD847285ED8292890
:103360002DD8252859D059D820287DD0A0F123095F
:10337000D9F1000343EB090376E04C382E284DD8F1
:10338000DFE800F0724C4C4C4C4C4C4C4C4C4C4CD0
:103390004E4C4C4C4C4C4C4C4C5C4C4E4E5C5C5C27
:1033A000724E6F4C724C184E184C4C817E4E4C4CE9
:1033B0004E4C7E00002000234FF0040B3CE02A38E6
:1033C0004FF0010EC0B20EFA00F04FF6DA7E10EAAE
:1033D0000E0F49D110F0625E30D110F0010343D0DE
:1033E0007046013C5C44B4FBFBF40BFB04F4002D81
:1033F0005ED0AAEB050EA644B6453FF676AF002890
:1034000068D1BAF1040F43D1E14659F8040B2060AA
:103410000434CC464FF0040A26E0013A002323E0AE
:1034200011F8013C6C2B30D111F8023C00206C2BC0
:103430000346C1D14FF0080BDA46D2E70CF1070979
:1034400029F0070C0734FCE802AB24F0070435B17F
:1034500005982044B0423FF648AFC4E900AB0834B9
:1034600000234FF0080BDA4611F8010F002800F096
:10347000BC80002B7FF46DAF2528F5D101320123EC
:103480004FF0040BEFE7184695E700200346A8E746
:10349000BAF1080F40F09B800CF1070929F0070CE6
:1034A000FCE8029AC4E9009A08344FF0080ADBE706
:1034B00080B9BAF1040F02D10CF10409A8E7BAF1FE
:1034C000080F40F084800CF1070929F0070909F181
:1034D000080CE9E70498E1460138049059F8040B18
:1034E000009019E70298800748D5A4EB050E4FEA33
:1034F0009E004FF0010CBEF5007F1DD32749284ADE
:1035000028484FF41F730BF09BFC27480BF098FCE6
:103510004FF41F7122480BF08AFC0F2F0ED8002D9C
:1035200046D007F1400CEC440CF8200C0CF8102CA1
:1035300003980130039020E00F2F0CD91749184A47
:10354000184840F281230BF07BFC18480BF078FC04
:1035500040F28121DEE7BDB107F1400EEE44C0B27A
:103560000EF8200C0EF8102CBCF1000FE0D060F02B
:103570007F000EF8200C08F101080137C5F10800A2
:103580000434CC4605906FE7BCF1000F10D0013633
:10359000F3E700BF800301007C310100200D010032
:1035A000DB0D0100B40B0100090E01002A0E010021
:1035B000019802360028E0D100980592CDE9063145
:1035C000FDF7ACFADDE90631059A0644D5E7444A31
:1035D0004449454840F2C6230BF032FC514643486B
:1035E0000BF02EFC40F2C62194E7631BB3F5806F0D
:1035F0000CD33C493A4A3C4840F2D2230BF020FC21
:103600003B480BF01DFC40F2D22183E71DB9A6F127
:103610000804E0186BE6019A28609B082B709DF85F
:103620000C30C2B1EB7085F80280B8F1000F05D004
:1036300008A80022C5F1010C97420ED1C5F1010383
:103640000DF120094FF0000A02930DF1300B5745A0
:1036500012D1601B4BE66B70E5E710F8013B1906D1
:1036600008D50CEB040EB64503F07F033FF63DAEE4
:1036700004F8013B0132DFE7B8F1000F03D099F9FC
:103680000020002A17DB019BD3B11AF80B2004F8A5
:10369000012B0022029B18191044B0423FF625AEC0
:1036A00099F8000004F8010B0099039220460CF0F1
:1036B0002DFA039A14440AF1010A09F10109C6E737
:1036C00099F8002055F822300093019B45F82230EC
:1036D0000098FDF723FA421CDCE76FF00D0006E6C8
:1036E000DB0D0100200D0100B40B0100440E0100B0
:1036F000590E01002DE9F04F97B000AF8946D7F879
:1037000080B0FA623B62044658B9A849A84AA94861
:1037100040F299330BF094FB40F29931A4480BF03E
:1037200086FBCBF3C00390F802A07B6141B94578DA
:1037300000780AEB800020444D4517D8A0EB04091F
:10374000E378FB61BAF1000F02D01BF0010F16D134
:10375000FB6953BBFB6A1BB13A6A4946204698474E
:103760004D4628465C37BD46BDE8F08F461C3046C6
:10377000FDF7D4F90130304409F10109DCE7237881
:1037800062687A62FA6A9900B96104EB8301002ADF
:1037900040F001814D460E4601EB0A094FF000084A
:1037A0004E454CD101EB0A0610E01BF0020FD1D0C0
:1037B00023789A00BA6162687A62FA6A04EB83013C
:1037C000002A77D14D4601EB0A0690461BF0050F03
:1037D0000CBF02230123FB62FB6906EB430A0BF0DB
:1037E0000203BB625645BCD016F8021B16F8013C1A
:1037F00054F82390704B994502D3704B994536D3BA
:103800007B69002B40D0786A0BF09BFA00283BD0F4
:10381000E9468AB06A466A4B53617B6AC2E906315F
:103820004FF400731384674B42F8103F664800233F
:103830004FF4125101F024FF023DCD46D2E716F8B5
:10384000013BF96254F82300FDF768F9D7F884309A
:10385000F96A01304BB1D7F8883098453EBFD7F8A8
:10386000843023F8180008F10108054498E77B69C3
:1038700023B1786A0BF065FA0028C9D11BF0010F5B
:1038800005D1FB6AED1AADE7BB6A002BAAD048460A
:10389000FDF744F9D7F8843053B1D7F8883098450C
:1038A0003FBFD7F88420431C22F8183008F10108E4
:1038B000054497E7BAF1000F73D01BF0040673D0EC
:1038C000D046002607F1480052463B61B9620CF031
:1038D0001DF9B96A3B6901EB0A02BA62FA69F96932
:1038E0005200FA60BA6A02EB41023A610BF002023E
:1038F000BA60BA6A39698A4268D162787A621BF022
:10390000020F32440CBF4FEA580100211BF0010F97
:10391000D2B240F0E4801BF0040F14BF40460020F8
:103920007B616270A070E1703A6AB969FB6A2046F7
:103930009847051EFFF615AF7B6923707B6A63709D
:10394000FB69E37041463A6AFB6A84F802A007F11A
:1039500048009847B0F10008C0F2F580BB693A6AA8
:10396000A9EB0A01C91AFB68C91AD7E90A039847E3
:103970000028C0F2EA80A84408EB00054FF0000BD5
:1039800007F1380AB345C0F0AC8000213A6AFB6AFF
:1039900008469847E5E656464FF0000807F138001C
:1039A00092E75646D04696E7B04694E7700E01007F
:1039B000DB0D0100B40B0100800301007C3101002C
:1039C0008B0E01000400000128060100BA6A12F8FB
:1039D000021BBA6212F8015C5D4A54F8250090425D
:1039E00002D35C4A904218D37A693AB1786A7B6014
:1039F0000BF0A7F97B6800287FF47BAFBA68002A38
:103A00004CD00F2E40D95449544A554840F24D43AA
:103A10000BF016FA40F24D4180E67A693AB1786AC5
:103A20007B600BF08EF97B6800287FF462AF1BF09F
:103A3000010F0BD00F2E27D94749484A484840F27A
:103A400043430BF0FDF940F2434167E61BF0040FDE
:103A50003FF44FAFB8F10F0F09D942493F4A4048F0
:103A600040F246430BF0ECF940F2464156E608F1CD
:103A7000280207F1300008F1010102EB000808F804
:103A8000105C5FFA81F834E706F1280207F1300094
:103A9000711C161806F8205CCEB22AE7B8F10F0F99
:103AA00009D930492D4A2E484FF48A630BF0C8F9E2
:103AB0004FF48A6132E608F1280207F1300C08F170
:103AC0000100944407F1580252FA80F008F102080C
:103AD0000CF8101C5FFA88F800F8105C09E7002069
:103AE0001EE71BF80A3087F8373054F82390D7F8D0
:103AF00084302BB3D7F888309B4521D2D7F8843057
:103B000033F81B803A6AFB6A012107F137009847B6
:103B100000281ADB0544B8F1000F06D14846FCF72F
:103B2000FDFF00F101081FFA88F83A6AFB6A414676
:103B300048469847002808DB05440BF1010B21E7B4
:103B40004FF00008DEE745460BE6054609E600BFF4
:103B5000800301007C3101002E0F0100DB0D01000C
:103B6000B40B01004D0F0100014B1860704700BFFE
:103B70007C00002030B587B00025CDE90301044664
:103B8000009503A90548059500F06EF8DDE90430BD
:103B90009842B8BF255407B030BD00BF91ED00007A
:103BA000F0B5094E016802460A2700200B46013194
:103BB0001C78355D6D0701D41360F0BD07FB004331
:103BC000A3F13000F2E700BF0B2F01002DE9F84F01
:103BD00015469A46D378234A12F803B06F2B8146D4
:103BE0000F460BF0030B2BD026D8582B0CBF1026FA
:103BF0000A26DDF828803246002348463946FCF77D
:103C000073FF092A08F1FF38D4B21ED83034B14509
:103C1000E4B277F1000788F8004001D3D04511D80D
:103C20002B789B0605D5082E15D1AB7843F00803F9
:103C3000AB704046BDE8F88F03F0F703702BD5E773
:103C40000826D6E781460F46D5E7BBF1010F0CBF2A
:103C500037345734DBE7102EEBD1AB7843F0100349
:103C6000E6E700BF0B2F01002DE9F04F97B08A4621
:103C7000039016461C460025307808B9284656E3BE
:103C800025280AD0039B514698470028C0F24F834D
:103C9000731C01350493049EEEE71822002110A83E
:103CA0000BF042FF7378252B00F0A3800023711CDA
:103CB00098469E469C4618460F4611F8012B2B2A23
:103CC00000F0C68000F2BD80202A00F0C480232AC4
:103CD00000F0C4802BB19DF8483043F040038DF8CC
:103CE0004830B8F1000F05D09DF8483043F020036C
:103CF0008DF84830BEF1000F05D09DF8483043F0F4
:103D000010038DF84830BCF1000F05D09DF8483005
:103D100043F008038DF8483028B19DF8483043F04F
:103D200004038DF848309DF8483003F044014429DD
:103D300003D16FF386138DF848309DF8483009970A
:103D400043F080032A2A8DF8483040F08C809DF89B
:103D5000493043F001038DF849307B1C1A782E2A34
:103D60009DF849200CBF0121002161F341028DF82B
:103D700049200CD15A1C09925A782A2A40F0838093
:103D80009DF8492042F004028DF8492002331A7848
:103D90006C2A00F0A48000F28680682A00F08C80F3
:103DA0006A2A00F0A5804C2A00F0AA801A4612F870
:103DB000013B0492782B9DF849208DF84B3000F29E
:103DC00017816D2B00F2A980692B00F21181572B0E
:103DD00000F2BE80412B03D0453B022B00F208814C
:103DE0009DF84A30042262F302038DF84A30012321
:103DF000CAE08DF84B30B31C04939DF84930D907C5
:103E000040F1FD8054F8048BB8F1000F07DA9DF8FB
:103E1000482042F004028DF84820C8F100085A07F3
:103E200040F1F68054F804BBBBF1000F80F2F5803E
:103E30009DF849306FF341038DF849304FF0FF3B57
:103E4000EBE02D2A0DD0302A7FF444AF012333E775
:103E50004FF0010C30E74FF0010E2DE74FF0010855
:103E60002AE7012028E709A8FFF79AFE099BBB4231
:103E70003FF474AF9DF848201390C00F60F34102E7
:103E80008DF848206AE709A8FFF78AFE9DF84830B8
:103E90001490C3F3400242EAD07262F341038DF8FA
:103EA0004830099B73E7742A26D07A2A7FF47EAFC4
:103EB0009DF8492006210CE05A78682A9DF849208F
:103EC00006D1012161F3C6028DF8492002336DE766
:103ED000022161F3C6028DF84920013366E75A7862
:103EE0006C2A9DF8492001D10421EBE70321F0E77A
:103EF0009DF849200521ECE79DF849200721E8E7D6
:103F0000BDF8482022F4F04222F0020242F480423E
:103F100042F00202ADF84820DFE76E3BD9B2012340
:103F20008B4040F282410B4238D113F0240F52D122
:103F3000DF075DD59DF84A30032161F302038DF858
:103F40004A3002F07803A3F14000434243411BE0B2
:103F5000A3F15801C9B2012000FA01F111F4624F36
:103F60007FF43EAF40F6010739421DD111F4043F02
:103F70003ED09DF84A3060F3020302F07802402AF6
:103F80008DF84A3034D000239DF84820C2F3400118
:103F90000B4363F341028DF848202EE79DF84A3029
:103FA000022161F30203E8E79DF84A10022002F0C3
:103FB000780260F30201402A8DF84A1002BF9DF892
:103FC000481041F001018DF84810632BDBD1131E1E
:103FD00018BF0123D8E79DF84A30032161F302039B
:103FE00012F0780F8DF84A3014BF01230023CBE77D
:103FF0009DF8483043F001038DF84830C3E79DF940
:104000004820002AB4BFDDF84C804FF0FF3806E7A7
:104010009F077FF513AFDDF850B09DF849100023DE
:10402000CDE913339DF84A3003F00703012BC1F3A8
:10403000C30132D1CB1E042B04D8DFE803F02045A6
:1040400045202000236801294FEAE372CDE91032B0
:104050001BD19DF94030DA17CDE9103204349DF8B8
:10406000483013F003074FD0049B03983246514663
:104070000AF0C6FE0028C0F25A8105440BE654F847
:10408000043BDA17CDE91032E9E70229E6D11AB28A
:1040900043F3C033CDE91023E0E7022B24D1CB1E3C
:1040A000042B04D8DFE803F01810101818000129B9
:1040B00054F8043B4FF0000214D00229CDE910322D
:1040C000CDD19BB21093CAE7073424F00704F4E87B
:1040D0000223CDE91023C2E754F8043B10930023D8
:1040E0001193BCE7DBB2CDE7042B08D1073424F0F1
:1040F0000704D4E900230834CDE91023AFE7032BEC
:10410000ADD154F8043BDDE79DF84B0078283FF62D
:10411000C2AD62281ED8252850D058287FF4BBADE8
:104120000DF13E030093DDE910010AAB12AAFFF77F
:104130004DFDBBF1000F814680F2C280B9F1000F46
:104140003FF4A9AD0DF13E06A6EB0903002F7BD08D
:10415000013379E0633815283FF69DAD01A252F88E
:1041600020F000BF3742000095420000973C00005D
:10417000973C0000973C0000973C000095420000EF
:10418000973C0000973C0000973C0000973C0000E3
:10419000E3420000BB420000F5410000973C0000F4
:1041A000973C0000CD410000973C0000BB4200005E
:1041B000973C0000973C0000BB420000039B514627
:1041C00098470028C0F2B380013564E5BBF1000FC9
:1041D000DDF840900ADB594648460BF0BBFDB9F1CB
:1041E000000F3FF458AD09EB000620E04846FCF70D
:1041F00095FCF8E71098002800F087800DF13E0646
:104200000AAB009612AA0021FFF7E0FCBDF84A3085
:1042100003F0EF0343F4F04343F01003BBF1000F4E
:104220008146ADF84A304ADA00283FF434ADA6EBB7
:104230000903002708E0109B8DF8283000270DF1B6
:1042400029060DF1280901239DF84A1011F01002EA
:10425000069260D00233139A059213444A0644BF73
:1042600014995B18B8F1000F6EDDA8EB03089DF8F8
:1042700048305807C3F3800B66D459065AD53FB16E
:10428000039B514638469847002850DB01355F466E
:10429000302350E01E075CBFC3F300135F01DDE96C
:1042A000102348BF2B27002BBFF63AAF524263EBD7
:1042B0004303CDE910232D2732E7002730E70027FD
:1042C0009DF848100DF13E03A3EB09036FF386112F
:1042D0009B458DF848107FF631AFABEB030313938A
:1042E0002CE7109B07293FF6D6ACDFE801F00C0461
:1042F000060C08080C0C1D70CDE41D80CBE4EA17F9
:10430000C3E90052C7E41D60C5E4314E0746A6F17B
:104310000509052398E7080748BF01339BE71846BE
:1043200007935146039B98470028079B04DA17B070
:10433000BDE8F08F2023C346594600290BF1FF3B0F
:10434000EDDC45446D1AD84637B1039B51463846DB
:1043500098470028EBDB01359DF84A30DA0601D496
:104360001B0706D5039B5146302098470028DEDB0B
:104370000135069B3BB19DF84B00039B5146984786
:104380000028D4DB0135059F2F4406E0039B5146EE
:10439000302098470028CADB01357B1B002BF5DC59
:1043A000039833464A4651460AF02AFD0028BEDBF0
:1043B0000544A844A8EB0503002B7FF76CAC039BD6
:1043C0005146202098470028B1DB0135F2E700BFB5
:1043D000830F010038B50D460446202200210BF062
:1043E000A3FBEB68E361AB68A3612B6823626B6896
:1043F00063620022A2622A6923B1591E194208BFD2
:1044000042F0010222610122002104F12C000BF094
:1044100050FA48B105490648064A2F230AF010FD14
:1044200004482F210AF003FD38BD00BFAA0F010088
:10443000B40B0100840F01002DE9F04F89B0CDE9E4
:104440000123436A00278B42044688460597079755
:10445000BA4654D300F11406EFF31185202383F3F9
:104460001288BFF36F8F3046A94607F0A7FD58B9F1
:104470004D4A4E494E4888230AF0E2FC31464D48E9
:104480000AF0DEFC882163E0304607F0BBFD079AA6
:104490002AB1394620460AF0BBFD0023079306A93E
:1044A00020460AF0DAFC06994145834630D322685B
:1044B000236A13F8221021F0030103F8221003EB02
:1044C000820A2168424620460AF0EBFCE36820603D
:1044D000984218D04FF0000B304607F07DFD50B3E6
:1044E00089F31188BFF36F8F059929B1A2690AB1C9
:1044F0002046904700230593BBF1000FACD15046F6
:1045000009B0BDE8F08F236943F008032361E1E7B8
:1045100018B120460AF0DFFCDEE7DDE90132134383
:1045200039D003910BF0F7F90399A0BB9DBB30463E
:1045300007F052FD78B91C4A1F491D4840F231135B
:104540000AF07EFC31461D480AF07AFC40F2311137
:1045500015480AF06CFC85F31188BFF36F8FDDE915
:10456000012304F12C0005F073FF8346EFF311895A
:10457000202383F31288BFF36F8F304607F01EFDB0
:1045800000283FF475AF3046BBFA8BFB07F03AFDCD
:104590004FEA5B1BA0E707AB05AA204627680AF095
:1045A000B7FC834698E700BFB30F0100E00F01009E
:1045B000B40B0100F50F01000B10010022100100E7
:1045C0002DE9F0410446C36908460E46984704F1B8
:1045D00014050746EFF31188202383F31288BFF3F5
:1045E0006F8F284607F0EAFC68B91B4A1B491C4834
:1045F00088230AF025FC29461A480AF021FC882164
:1046000015480AF014FC284607F0FCFC337843F008
:104610000103337061683A4620460AF042FC60604C
:1046200020460AF010FD284607F0D6FC68B90A4A71
:104630000D490B4840F231130AF002FC29460B48A1
:104640000AF0FEFB40F23111DAE788F31188BFF37C
:104650006F8FBDE8F08100BFB30F0100E00F0100D4
:10466000B40B0100F50F01000B1001002210010036
:104670002DE9F843044600F11407EFF311882023D5
:1046800083F31288BFF36F8F384607F097FC054617
:1046900068B9354A3549364888230AF0D1FB39468E
:1046A00034480AF0CDFB88212F480AF0C0FB384679
:1046B00007F0A8FC2369A26813F0080F02D1636811
:1046C0009A4200D9636A9B1A002B3FD0216A11F8E5
:1046D000223013F0030001EB82093AD0022803D103
:1046E00051F82260B60805D1D8071FD4E3694846BF
:1046F00098470646A168324620460AF0D2FB31466A
:10470000A06020460AF0DBFB384607F065FC10BBD2
:10471000154A1949164840F231130AF091FB3946FF
:1047200016480AF08DFB40F23111BDE743F0020359
:1047300001F822304846E369A568984729460246B1
:1047400020460AF0AEFB0025A060DDE71D46A94625
:10475000DAE70546FBE788F31188BFF36F8F002D7A
:104760008BD14846BDE8F883B30F0100E00F01008C
:10477000B40B0100F50F01000B1001002210010025
:104780002DE9F0410446C36908460D46984704F1F7
:1047900014060746EFF31188202383F31288BFF332
:1047A0006F8F304607F00AFC68B9284A2849294823
:1047B00088230AF045FB314627480AF041FB88214F
:1047C00022480AF034FB304607F01CFC2B786FF3CC
:1047D00000032B7023699B0705D5E268236A03EB6E
:1047E00082039D4222D12B786FF341032B70D4E9D1
:1047F0000231994204D13A4620460AF052FBA060A9
:10480000394620460AF05BFB304607F0E5FB90B9DD
:104810000E4A12490F4840F231130AF011FB31469B
:104820000F480AF00DFB40F23111C9E72B6867F31E
:104830009F032B60E8E788F31188BFF36F8F04F1C3
:104840002C00BDE8F04105F07FBD00BFB30F0100B3
:10485000E00F0100B40B0100F50F01000B10010087
:104860002210010070B5044600F11405EFF3118623
:10487000202383F31288BFF36F8F284607F09EFB37
:1048800068B91B4A1B491C4888230AF0D9FA2946F3
:104890001A480AF0D5FA882115480AF0C8FA2846BD
:1048A00007F0B0FB2369A06813F0080F02D163681A
:1048B000984213D9646A241A284607F08DFB78B908
:1048C0000B4A0F490C4840F231130AF0B9FA294655
:1048D0000C480AF0B5FA40F23111DDE71C1AEBE79B
:1048E00086F31188BFF36F8F201E18BF012070BDA3
:1048F000B30F0100E00F0100B40B0100F50F010040
:104900000B100100221001002DE9F84F0446084663
:10491000A38B1907154612D4022803F0070165D1AD
:1049200020460AF09DFB88B10138042800F2378147
:10493000DFE810F05C0035018200D400040101289A
:104940000CBF43F0100143F02001A1831434204632
:1049500007F042FB002840F09D819A499A4A9B4803
:1049600040F231130AF06CFA2146B1E003F007027D
:10497000501F01281ED80020062A2768C4E900001D
:1049800014D13A4603E0E08B0130E0831268002A3C
:10499000F9D123F0070343F00202A28320460AF074
:1049A0005FFB90B342F02002A2832EE023F00703C6
:1049B0009AB2F2E7042A33D123F007039AB2A28312
:1049C00020460AF04DFB10B142F02002A283A38BD7
:1049D00003F00709894540F0EC80A18BCA0640F13D
:1049E000508121F01003A38301F00701D4F818804F
:1049F000A38BB8F1000FB9DA0022276823F0070370
:104A0000C4E9002243F00103A383A38B03F0070949
:104A1000894540F0CF80002FDFD00026B24644E029
:104A20006B496C4A694840F21B130AF009FA40F2DC
:104A30001B1168480AF0FBF949B16749654A6348A8
:104A40004FF4AB730AF0FCF94FF4AB71F1E7236854
:104A50004BB962495F4A5D4840F257130AF0F0F9DA
:104A600040F25711E5E723691E684EB95C49594A7F
:104A700056484FF4AD730AF0E3F94FF4AD71D8E73F
:104A8000A38B23F0070343F006039BB2A3830F46D7
:104A900088464FF00609A268002A40F08D80002F5A
:104AA00040F08D80002E98D0BA4643F0080304F100
:104AB000140BA383584607F08FFA002840F09A8021
:104AC0004049414A414840F231130AF0B9F9594688
:104AD00044480AF0B5F940F23111ADE0022909D09D
:104AE00041493C4A394840F25D130AF0A9F940F2C5
:104AF0005D119EE7E78B4FB13C49364A33484FF48E
:104B0000AF730AF09DF94FF4AF7192E723695E68C5
:104B10004EB933492F4A2D4840F261130AF090F9FB
:104B200040F2611185E7A38B23F0070343F00403F0
:104B30009BB2A383B8464FF00409ACE7012909D022
:104B40002B49244A21484FF4B2730AF079F94FF403
:104B5000B2716EE723684BB920491E4A1B4840F2E8
:104B600065130AF06DF940F2651162E723699E68EA
:104B70004EB91B49174A15484FF4B4730AF060F94F
:104B80004FF4B47155E7A38B23F0070343F00503FB
:104B90009BB20027A383B8464FF005097BE70C4979
:104BA0000C4A0A4840F26B130AF04AF940F26B11C2
:104BB0003FE7002700266EE74FF0010A75E79246AF
:104BC00073E700BF0B100100B30F0100B40B01002D
:104BD000200D0100371001005C1001006810010079
:104BE0008B10010022100100A2100100B81001007A
:104BF000C710010085F31188BFF36F8FBAF1000F62
:104C00001CD177BB16B126492046B047EFF311857A
:104C1000202383F31288BFF36F8F584607F0CEF935
:104C200038BB204A2049214888230AF009F959460F
:104C30001F480AF005F988211A48FBE6A1680029F7
:104C4000DFD00D680029DCD0D1F804A043464A46E5
:104C50002046D0471DB12B6829461D46F2E72B465A
:104C6000FAE7394643464A4620463F680AF024FAA6
:104C7000C7E7584607F0C6F9A38B23F00803A383C0
:104C8000ABE68B067FF562AE21F02003A38301F033
:104C9000070145E685F31188BFF36F8FBDE8F88FF4
:104CA000B54C0000B30F0100E00F0100B40B010090
:104CB000F50F0100F8B504460D4600F11406EFF3B8
:104CC0001187202383F31288BFF36F8F304607F0DC
:104CD00075F968B90C4A0D490D4888230AF0B0F8F7
:104CE0000C4831460AF0ACF8074888210AF09FF8D2
:104CF000304607F087F9A5613A4620460121BDE814
:104D0000F840FFF701BE00BFB30F0100E00F010044
:104D1000B40B0100F50F01002DE9F04704460F46E2
:104D20000AF0BAF9051E68DB04F11409EFF3118AE1
:104D3000202383F31288BFF36F8F484607F03EF9B4
:104D4000804660B9384A3949394888230AF078F8EA
:104D5000494638480AF074F88821334842E048460A
:104D600007F050F9E38BA68B4FF6FF72934206F0E3
:104D7000070645D0022E15D10133E3833546484658
:104D800007F02AF9002841D1274A2B49284840F248
:104D900031130AF055F8494628480AF051F840F214
:104DA0003111DAE7062E13D8DFE806F0092D1212CA
:104DB000090409006FF085054FF00008DFE70023C4
:104DC0003B60636883B9C4E9007786B13546F3E791
:104DD0001B4917481B4A4FF4E4730AF031F819488D
:104DE0004FF4E4710AF023F81F606760EDE7524664
:104DF00002212046FFF788FD35462846BDE8F087AA
:104E00006FF00A05D8E76FF00405D5E78AF311883B
:104E1000BFF36F8FB8F1000FEFD000233246394651
:104E200020460AF049F9E8E7B30F0100E00F01005E
:104E3000B40B0100F50F01000B100100221001005E
:104E4000C710010037100100F8B5054600F114063F
:104E5000EFF31187202383F31288BFF36F8F30465F
:104E600007F0ACF860B9264A26492748882309F09C
:104E7000E7FF3146254809F0E3FF882120482BE071
:104E8000304607F0BFF8AC8B04F00704022C17D0B3
:104E9000012C0CBF6FF004046FF08504304607F05E
:104EA0009BF838BB164A1A49174840F2311309F0EB
:104EB000C7FF3146174809F0C3FF40F23111DDE763
:104EC000EB8B5BB914491048144A40F2EF1309F018
:104ED000B7FF124840F2EF1109F0A9FF013B9BB266
:104EE000EB83002BDAD13A4621462846FFF70CFD2A
:104EF0002046F8BD87F31188BFF36F8FF8E700BF36
:104F0000B30F0100E00F0100B40B0100F50F010029
:104F10000B10010022100100DD100100371001000C
:104F200008B54268816002F00302022A03460AD0F3
:104F3000032A4FF0000103D0012A0AD1596006E08C
:104F40001868596008BD186800225A6058B90020D6
:104F5000F8E706490648074A452309F071FF054866
:104F6000452109F064FF07F049FFF0E7200D01003B
:104F7000B40B0100EB10010030B51049104889B0A6
:104F800000220AF02EFD0F4D0F4900220023CDE92B
:104F9000062300240E23CDE90334CDE901440B4B55
:104FA00000944FF40062284605F016FE0849284692
:104FB0000AF0B7FC204609B030BD00BF1D5100000B
:104FC000586B0020D0660020A88C0020715400008F
:104FD000111101002DE9F047DFF85880044607461B
:104FE0004FF0010914B93846BDE8F08794FAA4F5EA
:104FF000B5FA85F509FA05F32E0108EB05156FEAF8
:10500000030A24EA03042B7B002BEBD058F806306C
:105010001B694BB94644042273682846196807EA9D
:105020000A070AF0BBF8DDE7284698470028D9D1DF
:10503000F0E700BFC00601002DE9F047DFF8BC90A3
:105040002F4CA9EB04038F2B80460F460BD92D491B
:105050002D4A2E484FF4A77309F0F2FE4FF4A771C2
:10506000294809F0E4FE2A480AF078F8064678B3A1
:1050700000252846BDE8F087237B83B12368DB68E1
:105080000BB120469847636883F806A023681B6924
:10509000B3B963680422196820460AF07FF8013624
:1050A00010344C4518D91B49174A18484FF4AD73B2
:1050B00009F0C6FE184809F0C3FE4FF4AD71CFE702
:1050C000204698470028E4D00AFA06F31D43E6E795
:1050D00005464FF0010AE4E7CED3B8F1000FC8D07F
:1050E000002DC5D02846FFF775FF0546002FF7D0E5
:1050F00000214FF4A47006F035FCF1E7D006010062
:10510000C00601004611010019110100B40B010095
:10511000646E00207611010097110100014805F02E
:1051200013B900BF14540020014B53F820007047FE
:10513000A408010008B5034608462BB1044A1360D1
:1051400000F0BEFD002008BD6FF01500FBE700BFBA
:105150008000002010B5044C237813B9034805F0F3
:10516000F3F80123237010BD9E700020145400201A
:1051700010B504460B4809F0F1FF5CB1BFF35B8F3B
:10518000094B53E8001F013943E80012002AF8D107
:10519000BFF35B8F05480AF030FC0548BDE81040BE
:1051A00005F0D2B85C6E0020606E0020586B0020C5
:1051B000145400200020064BBFF35B8F014653E8D8
:1051C000000F43E80012002AF9D1BFF35B8F70474C
:1051D0005C6E002070B5FFF7EDFF104C104E0546D9
:1051E000B44219D90F49104A104840F20E2309F071
:1051F00027FE0F4809F024FE0B4840F20E2109F06B
:1052000016FE63685B792BB123685B6813B129468E
:10521000204698471034E3E7F3D370BDC006010081
:10522000D00601007611010019110100B40B010034
:105230009711010010B5044C04492046FFF7CAF845
:10524000034B1C6010BD00BF1852002090080100E5
:10525000506E0020154A1648002310B51370154AE9
:105260001360154A4FF400411360FFF763FFFFF727
:10527000E1FF124B124918468B4215D91149124AC7
:10528000124840F2291309F0DBFD114809F0D8FD5E
:105290000D4840F2291109F0CAFD1A1A5C68121172
:1052A000013222711033E7E7F7D310BD9F70002061
:1052B00059F100005C6E0020606E0020C006010005
:1052C000D00601007611010019110100B40B010094
:1052D000971101000146002201480023FFF7ACB8F6
:1052E000185200200148FFF7C3B900BF1852002030
:1052F000024B01461868FFF743BA00BF506E00200A
:105300000148FFF7AFBA00BF1852002070B5314B0B
:10531000187800285DD0FFF7E5FF0546002844D146
:105320002D4B2E4C1B68002B19DD0AF058FB4FF457
:105330007A72A0FB020302FB0131C30BD4E9002007
:1053400043EA41439B1A4FEAD13140F2E93261EB23
:105350000001934271F1000101D3FFF73BFFD4E953
:10536000003213F57A7342F10002C4E90032BDE85D
:105370007040FFF7C5BF63685B7923B12368294696
:105380001B68204698471034B44211D91449154A75
:10539000154840F2022309F053FD144809F050FD6E
:1053A000104840F2022109F042FD114C114EEBE78A
:1053B000E1D32846FFF79CFFBFF35B8F0E4B53E80A
:1053C000001F013943E80012002AF8D1BFF35B8FB8
:1053D000A6E770BD9E7000205C6E0020506B002020
:1053E0007611010019110100B40B010097110100A1
:1053F000C0060100D0060100606E002070B5154D9A
:10540000297829BB0120FFF717FE134C134EB44235
:1054100017D91349134A144840F2C71309F010FD75
:10542000124809F00DFD0F4840F2C71109F0FFFCCA
:1054300063685B791BB1236820469B6898471034EA
:10544000E5E7F5D3FFF762FF0028FBD101232B70BE
:1054500070BD00BF9F700020C0060100D006010093
:105460007611010019110100B40B01009711010020
:105470002DE9F0472F4B304FFB1A1B090BD12F4959
:105480002F4A304840F2AB3309F0DAFC40F2AB313E
:105490002B4809F0CCFC00210846FFF7CDFD04465F
:1054A00040B340F267684FF0000906F015FB264B49
:1054B000186030B1254B1B68092B02DD244804F02D
:1054C00043FFDFF88CA0002544B12046FFF782FDA2
:1054D000044618B94FF0FF384FF0FF39FFF716FFB9
:1054E000064628B95DB942464B46504604F0B0FF27
:1054F0003546E9E74FF0FF384FF0FF39D5E70D4D5E
:1055000008E0F0D22B689B691BB1002211462846A7
:1055100098471035BD42F4D90E49094A094840F26E
:105520009F3309F08DFC0C4809F08AFC40F29F3152
:10553000AEE700BFC0060100D0060100B6110100B1
:1055400019110100B40B0100586E0020606E00209C
:1055500014540020761101009711010013B52C4856
:1055600009F0FCFD2B4B1B78002B35D0EFF3118499
:10557000202383F31288BFF36F8F274806F01EFDA8
:1055800068B9264A26492748882309F059FC224948
:10559000254809F055FC8821204809F048FC1E48A0
:1055A00006F030FDFFF7B2FE1B4806F015FD68B9A6
:1055B0001A4A1E491B4840F2311309F041FC1649B2
:1055C0001B4809F03DFC40F23111E5E784F31188F6
:1055D000BFF36F8F02B010BD164B1B68002BF9D0C4
:1055E00050B900220023CDE9002313484FF40042B4
:1055F000002307F047F8EDE70928EBD10E480AF041
:10560000FCF90E4802B0BDE8104004F09DBE00BF9A
:10561000606E00209F700020546E0020B30F0100C8
:10562000E00F0100B40B0100F50F01000B100100A9
:1056300022100100586E0020586B002014540020E6
:1056400010B5064B1B68044698472146A0600448E5
:10565000FEF7B6FFBDE81040FFF780BF80000020D6
:1056600018520020044A054B9B1AB1EBD30F34BFEC
:1056700052F831000020704720060100C0060100EA
:105680002DE9F04F8FB004AFC1F34A28B8600D4642
:1056900091467B600C0DB8F1000F68D0002607F131
:1056A00014034FF0040B4FF00A0AC7F80C80C7E947
:1056B00007667E620193CDF808B0CDF800A007F12F
:1056C0001C03F96832464846FEF714F8B0F5006F3F
:1056D00003461CD36C468AB0D9F8041004AB2C489E
:1056E000C3E9050140F2FF71D9611A464FF4007118
:1056F0001984284B42F8103F274833464FF4125183
:10570000FFF7BEFFA5462C37BD46BDE8F08FC0F3BE
:105710000A0804F11700184420F0070080083B60D5
:10572000FFF7D8FD68F35325044640B33B681B4A96
:10573000C7E9083600F1100107F11403F961CDE95A
:1057400000A3CDF808B0F96807F11C034846FDF73F
:10575000D1FF002813DA12491248134A4FF4A373F9
:1057600009F06EFB10484FF4A37109F060FB04F1DF
:10577000170020F007008008FFF7ACFD044668F32F
:1057800053257B68B9682A46204609F026FDBAE70A
:10579000DF1101000400000158060100AFF1000014
:1057A0004B120100B40B01001E1201002DE9F04F55
:1057B00087B0DDE91279DDE9106A0446039193466A
:1057C000984627B3CDF800903B4652461021002062
:1057D000CDF81490FDF772FD051E0BDA2649274A15
:1057E000274840F2651309F02BFB40F2651123486E
:1057F00009F01DFBB5F5006F0ADB224A224840F292
:10580000FF73022107B0BDE8F04F09F03FBD3D46F0
:1058100006F11700284420F0070004F00704800870
:10582000FFF758FD0BF0070BE40044EA8B1444EA41
:10583000452444EA06540646A0B19FB1CDF8009035
:105840003B46524629461030FDF738FD002809DA5C
:1058500009490A4A0A484FF4C47309F0F1FA4FF4AF
:10586000C471C4E7039943462246304607B0BDE8F9
:10587000F04F09F0B2BC00BF4A1201001E12010035
:10588000B40B01005412010058060100406820B119
:10589000034BC01A40F3CF0070474FF0FF30704702
:1058A000200601000EB403B503AB014653F8042BE8
:1058B0000448019309F00FFD02B05DF804EB03B05A
:1058C000704700BFE5580000CA0605D48B064CBFE0
:1058D00002490349FFF7E6BF704700BFAB2701004D
:1058E0008C12010038B54B681A68CB689A4205469D
:1058F0000C4602D1084609F0E1FC6368BFF35B8FF8
:1059000053E8002F511C43E800100028F8D1BFF3E2
:105910005B8FA3689D5463681A68E3689A4209D94B
:1059200005490648064A722309F08AFA044872219A
:1059300009F07DFA002038BDBE120100B40B010051
:105940008F1201002DE9F04F89B09A46149B0693FF
:105950009DF84CB0159B0593169B179E0493044627
:105960000D469046BBF1000F00F0AD80BBF1040F77
:105970000BD9A449A44AA54840F2462309F060FA8D
:1059800040F24621A04809F052FA06F480730793CA
:1059900009F002FC06F00209024600283FD09C49AB
:1059A0002046FFF77FFF0746B9F1000F08D016F039
:1059B000440F36D197492A462046FFF773FF074424
:1059C00006F0010353B1944B944953F82B20944BA8
:1059D0002046002A08BF1A46FFF764FF06F48073CA
:1059E000002B4AD006F00803002B64D1B8F1000F59
:1059F00067D08C4942462046FFF754FF0546069B78
:105A00003D44002B6ED1049B002B40F08380F307B4
:105A100000F1F18031462046FFF756FFE5E00746EA
:105A2000C2E7814B18680028C9D0804B4FF47A79BF
:105A30001B68B5FBF3F54FF46163B5FBF0F100FBB8
:105A4000115509FB05F54FF03C0CB1FBF3F203FBDC
:105A50001211B5FBF0FEB1FBFCF300FB1E550CFB75
:105A6000131109FB05F50091B5FBF0F57049CDE97F
:105A700001E52046FFF716FFA1E706F00803EBB1AA
:105A80006C4B6D4953F82B202046FFF70BFF054662
:105A9000B8F1000F05D0634942462046FFF702FFE8
:105AA0000544BAF1000FAAD0644952462046FFF7D8
:105AB000F9FE0544A3E74FF0000AE1E706F0080508
:105AC000E6E745469BE7BAF1010F069B06D1DBB935
:105AD000049B002B00F0898000251BE0002BF7D0F1
